{
	"Variables y operadores/casteo_variables.sol": {
		"casteo": {
			"abi": [
				{
					"inputs": [],
					"name": "casteo_1",
					"outputs": [
						{
							"internalType": "uint64",
							"name": "",
							"type": "uint64"
						}
					],
					"stateMutability": "view",
					"type": "function"
				},
				{
					"inputs": [],
					"name": "casteo_2",
					"outputs": [
						{
							"internalType": "uint64",
							"name": "",
							"type": "uint64"
						}
					],
					"stateMutability": "view",
					"type": "function"
				},
				{
					"inputs": [],
					"name": "casteo_3",
					"outputs": [
						{
							"internalType": "uint8",
							"name": "",
							"type": "uint8"
						}
					],
					"stateMutability": "view",
					"type": "function"
				},
				{
					"inputs": [],
					"name": "casteo_4",
					"outputs": [
						{
							"internalType": "int256",
							"name": "",
							"type": "int256"
						}
					],
					"stateMutability": "view",
					"type": "function"
				},
				{
					"inputs": [],
					"name": "casteo_5",
					"outputs": [
						{
							"internalType": "int256",
							"name": "",
							"type": "int256"
						}
					],
					"stateMutability": "view",
					"type": "function"
				},
				{
					"inputs": [
						{
							"internalType": "uint8",
							"name": "_k",
							"type": "uint8"
						}
					],
					"name": "convertir",
					"outputs": [
						{
							"internalType": "uint64",
							"name": "",
							"type": "uint64"
						}
					],
					"stateMutability": "pure",
					"type": "function"
				}
			],
			"devdoc": {
				"methods": {}
			},
			"evm": {
				"assembly": "    /* \"Variables y operadores/casteo_variables.sol\":35:684  contract casteo {\r... */\n  mstore(0x40, 0x80)\n    /* \"Variables y operadores/casteo_variables.sol\":110:112  42 */\n  0x2a\n    /* \"Variables y operadores/casteo_variables.sol\":87:112  uint8 entero_8_bytes = 42 */\n  0x00\n  dup1\n  0x0100\n  exp\n  dup2\n  sload\n  dup2\n  0xff\n  mul\n  not\n  and\n  swap1\n  dup4\n  0xff\n  and\n  mul\n  or\n  swap1\n  sstore\n  pop\n    /* \"Variables y operadores/casteo_variables.sol\":144:149  60000 */\n  0xea60\n    /* \"Variables y operadores/casteo_variables.sol\":119:149  uint64 entero_64_bytes = 60000 */\n  0x00\n  exp(0x0100, 0x01)\n  dup2\n  sload\n  dup2\n  0xffffffffffffffff\n  mul\n  not\n  and\n  swap1\n  dup4\n  0xffffffffffffffff\n  and\n  mul\n  or\n  swap1\n  sstore\n  pop\n    /* \"Variables y operadores/casteo_variables.sol\":180:187  1000000 */\n  0x0f4240\n    /* \"Variables y operadores/casteo_variables.sol\":156:187  uint entero_256_bytes = 1000000 */\n  0x01\n  sstore\n    /* \"Variables y operadores/casteo_variables.sol\":218:221  156 */\n  0x9c\n    /* \"Variables y operadores/casteo_variables.sol\":194:221  int16 entero_16_bytes = 156 */\n  0x02\n  exp(0x0100, 0x00)\n  dup2\n  sload\n  dup2\n  0xffff\n  mul\n  not\n  and\n  swap1\n  dup4\n  0x01\n  signextend\n  0xffff\n  and\n  mul\n  or\n  swap1\n  sstore\n  pop\n    /* \"Variables y operadores/casteo_variables.sol\":254:260  900000 */\n  0x0dbba0\n    /* \"Variables y operadores/casteo_variables.sol\":228:260  int120 entero_120_bytes = 900000 */\n  0x02\n  dup1\n  0x0100\n  exp\n  dup2\n  sload\n  dup2\n  0xffffffffffffffffffffffffffffff\n  mul\n  not\n  and\n  swap1\n  dup4\n  0x0e\n  signextend\n  0xffffffffffffffffffffffffffffff\n  and\n  mul\n  or\n  swap1\n  sstore\n  pop\n    /* \"Variables y operadores/casteo_variables.sol\":280:287  5000000 */\n  0x4c4b40\n    /* \"Variables y operadores/casteo_variables.sol\":267:287  int entero = 5000000 */\n  0x03\n  sstore\n    /* \"Variables y operadores/casteo_variables.sol\":355:369  entero_8_bytes */\n  0x00\n  dup1\n  swap1\n  sload\n  swap1\n  0x0100\n  exp\n  swap1\n  div\n  0xff\n  and\n    /* \"Variables y operadores/casteo_variables.sol\":348:370  uint64(entero_8_bytes) */\n  0xff\n  and\n    /* \"Variables y operadores/casteo_variables.sol\":323:370  uint64 public casteo_1 = uint64(entero_8_bytes) */\n  0x04\n  exp(0x0100, 0x00)\n  dup2\n  sload\n  dup2\n  0xffffffffffffffff\n  mul\n  not\n  and\n  swap1\n  dup4\n  0xffffffffffffffff\n  and\n  mul\n  or\n  swap1\n  sstore\n  pop\n    /* \"Variables y operadores/casteo_variables.sol\":409:425  entero_256_bytes */\n  sload(0x01)\n    /* \"Variables y operadores/casteo_variables.sol\":377:426  uint64 public casteo_2 = uint64(entero_256_bytes) */\n  0x04\n  exp(0x0100, 0x08)\n  dup2\n  sload\n  dup2\n  0xffffffffffffffff\n  mul\n  not\n  and\n  swap1\n  dup4\n  0xffffffffffffffff\n  and\n  mul\n  or\n  swap1\n  sstore\n  pop\n    /* \"Variables y operadores/casteo_variables.sol\":463:478  entero_16_bytes */\n  0x02\n  0x00\n  swap1\n  sload\n  swap1\n  0x0100\n  exp\n  swap1\n  div\n  0x01\n  signextend\n    /* \"Variables y operadores/casteo_variables.sol\":433:479  uint8 public casteo_3 = uint8(entero_16_bytes) */\n  0x04\n  exp(0x0100, 0x10)\n  dup2\n  sload\n  dup2\n  0xff\n  mul\n  not\n  and\n  swap1\n  dup4\n  0xff\n  and\n  mul\n  or\n  swap1\n  sstore\n  pop\n    /* \"Variables y operadores/casteo_variables.sol\":512:528  entero_120_bytes */\n  0x02\n  dup1\n  swap1\n  sload\n  swap1\n  0x0100\n  exp\n  swap1\n  div\n  0x0e\n  signextend\n    /* \"Variables y operadores/casteo_variables.sol\":508:529  int(entero_120_bytes) */\n  0x0e\n  signextend\n    /* \"Variables y operadores/casteo_variables.sol\":486:529  int public casteo_4 = int(entero_120_bytes) */\n  0x05\n  sstore\n    /* \"Variables y operadores/casteo_variables.sol\":562:578  entero_256_bytes */\n  sload(0x01)\n    /* \"Variables y operadores/casteo_variables.sol\":536:579  int public casteo_5 = int(entero_256_bytes) */\n  0x06\n  sstore\n    /* \"Variables y operadores/casteo_variables.sol\":35:684  contract casteo {\r... */\n  callvalue\n    /* \"--CODEGEN--\":8:17   */\n  dup1\n    /* \"--CODEGEN--\":5:7   */\n  iszero\n  tag_1\n  jumpi\n    /* \"--CODEGEN--\":30:31   */\n  0x00\n    /* \"--CODEGEN--\":27:28   */\n  dup1\n    /* \"--CODEGEN--\":20:32   */\n  revert\n    /* \"--CODEGEN--\":5:7   */\ntag_1:\n    /* \"Variables y operadores/casteo_variables.sol\":35:684  contract casteo {\r... */\n  pop\n  dataSize(sub_0)\n  dup1\n  dataOffset(sub_0)\n  0x00\n  codecopy\n  0x00\n  return\nstop\n\nsub_0: assembly {\n        /* \"Variables y operadores/casteo_variables.sol\":35:684  contract casteo {\r... */\n      mstore(0x40, 0x80)\n      callvalue\n        /* \"--CODEGEN--\":8:17   */\n      dup1\n        /* \"--CODEGEN--\":5:7   */\n      iszero\n      tag_1\n      jumpi\n        /* \"--CODEGEN--\":30:31   */\n      0x00\n        /* \"--CODEGEN--\":27:28   */\n      dup1\n        /* \"--CODEGEN--\":20:32   */\n      revert\n        /* \"--CODEGEN--\":5:7   */\n    tag_1:\n        /* \"Variables y operadores/casteo_variables.sol\":35:684  contract casteo {\r... */\n      pop\n      jumpi(tag_2, lt(calldatasize, 0x04))\n      shr(0xe0, calldataload(0x00))\n      dup1\n      0x02b037a7\n      eq\n      tag_3\n      jumpi\n      dup1\n      0x2b74311b\n      eq\n      tag_4\n      jumpi\n      dup1\n      0x9fe40a17\n      eq\n      tag_5\n      jumpi\n      dup1\n      0xaf489aa6\n      eq\n      tag_6\n      jumpi\n      dup1\n      0xd5d240c1\n      eq\n      tag_7\n      jumpi\n      dup1\n      0xed4885e5\n      eq\n      tag_8\n      jumpi\n    tag_2:\n      0x00\n      dup1\n      revert\n        /* \"Variables y operadores/casteo_variables.sol\":323:370  uint64 public casteo_1 = uint64(entero_8_bytes) */\n    tag_3:\n      tag_9\n      tag_10\n      jump\t// in\n    tag_9:\n      mload(0x40)\n      dup1\n      dup3\n      0xffffffffffffffff\n      and\n      0xffffffffffffffff\n      and\n      dup2\n      mstore\n      0x20\n      add\n      swap2\n      pop\n      pop\n      mload(0x40)\n      dup1\n      swap2\n      sub\n      swap1\n      return\n        /* \"Variables y operadores/casteo_variables.sol\":377:426  uint64 public casteo_2 = uint64(entero_256_bytes) */\n    tag_4:\n      tag_11\n      tag_12\n      jump\t// in\n    tag_11:\n      mload(0x40)\n      dup1\n      dup3\n      0xffffffffffffffff\n      and\n      0xffffffffffffffff\n      and\n      dup2\n      mstore\n      0x20\n      add\n      swap2\n      pop\n      pop\n      mload(0x40)\n      dup1\n      swap2\n      sub\n      swap1\n      return\n        /* \"Variables y operadores/casteo_variables.sol\":588:681  function convertir(uint8 _k) public pure returns(uint64) {\r... */\n    tag_5:\n      tag_13\n      0x04\n      dup1\n      calldatasize\n      sub\n        /* \"--CODEGEN--\":13:15   */\n      0x20\n        /* \"--CODEGEN--\":8:11   */\n      dup2\n        /* \"--CODEGEN--\":5:16   */\n      lt\n        /* \"--CODEGEN--\":2:4   */\n      iszero\n      tag_14\n      jumpi\n        /* \"--CODEGEN--\":29:30   */\n      0x00\n        /* \"--CODEGEN--\":26:27   */\n      dup1\n        /* \"--CODEGEN--\":19:31   */\n      revert\n        /* \"--CODEGEN--\":2:4   */\n    tag_14:\n        /* \"Variables y operadores/casteo_variables.sol\":588:681  function convertir(uint8 _k) public pure returns(uint64) {\r... */\n      dup2\n      add\n      swap1\n      dup1\n      dup1\n      calldataload\n      0xff\n      and\n      swap1\n      0x20\n      add\n      swap1\n      swap3\n      swap2\n      swap1\n      pop\n      pop\n      pop\n      tag_15\n      jump\t// in\n    tag_13:\n      mload(0x40)\n      dup1\n      dup3\n      0xffffffffffffffff\n      and\n      0xffffffffffffffff\n      and\n      dup2\n      mstore\n      0x20\n      add\n      swap2\n      pop\n      pop\n      mload(0x40)\n      dup1\n      swap2\n      sub\n      swap1\n      return\n        /* \"Variables y operadores/casteo_variables.sol\":536:579  int public casteo_5 = int(entero_256_bytes) */\n    tag_6:\n      tag_16\n      tag_17\n      jump\t// in\n    tag_16:\n      mload(0x40)\n      dup1\n      dup3\n      dup2\n      mstore\n      0x20\n      add\n      swap2\n      pop\n      pop\n      mload(0x40)\n      dup1\n      swap2\n      sub\n      swap1\n      return\n        /* \"Variables y operadores/casteo_variables.sol\":433:479  uint8 public casteo_3 = uint8(entero_16_bytes) */\n    tag_7:\n      tag_18\n      tag_19\n      jump\t// in\n    tag_18:\n      mload(0x40)\n      dup1\n      dup3\n      0xff\n      and\n      0xff\n      and\n      dup2\n      mstore\n      0x20\n      add\n      swap2\n      pop\n      pop\n      mload(0x40)\n      dup1\n      swap2\n      sub\n      swap1\n      return\n        /* \"Variables y operadores/casteo_variables.sol\":486:529  int public casteo_4 = int(entero_120_bytes) */\n    tag_8:\n      tag_20\n      tag_21\n      jump\t// in\n    tag_20:\n      mload(0x40)\n      dup1\n      dup3\n      dup2\n      mstore\n      0x20\n      add\n      swap2\n      pop\n      pop\n      mload(0x40)\n      dup1\n      swap2\n      sub\n      swap1\n      return\n        /* \"Variables y operadores/casteo_variables.sol\":323:370  uint64 public casteo_1 = uint64(entero_8_bytes) */\n    tag_10:\n      0x04\n      0x00\n      swap1\n      sload\n      swap1\n      0x0100\n      exp\n      swap1\n      div\n      0xffffffffffffffff\n      and\n      dup2\n      jump\t// out\n        /* \"Variables y operadores/casteo_variables.sol\":377:426  uint64 public casteo_2 = uint64(entero_256_bytes) */\n    tag_12:\n      0x04\n      0x08\n      swap1\n      sload\n      swap1\n      0x0100\n      exp\n      swap1\n      div\n      0xffffffffffffffff\n      and\n      dup2\n      jump\t// out\n        /* \"Variables y operadores/casteo_variables.sol\":588:681  function convertir(uint8 _k) public pure returns(uint64) {\r... */\n    tag_15:\n        /* \"Variables y operadores/casteo_variables.sol\":637:643  uint64 */\n      0x00\n        /* \"Variables y operadores/casteo_variables.sol\":670:672  _k */\n      dup2\n        /* \"Variables y operadores/casteo_variables.sol\":663:673  uint64(_k) */\n      0xff\n      and\n        /* \"Variables y operadores/casteo_variables.sol\":656:673  return uint64(_k) */\n      swap1\n      pop\n        /* \"Variables y operadores/casteo_variables.sol\":588:681  function convertir(uint8 _k) public pure returns(uint64) {\r... */\n      swap2\n      swap1\n      pop\n      jump\t// out\n        /* \"Variables y operadores/casteo_variables.sol\":536:579  int public casteo_5 = int(entero_256_bytes) */\n    tag_17:\n      sload(0x06)\n      dup2\n      jump\t// out\n        /* \"Variables y operadores/casteo_variables.sol\":433:479  uint8 public casteo_3 = uint8(entero_16_bytes) */\n    tag_19:\n      0x04\n      0x10\n      swap1\n      sload\n      swap1\n      0x0100\n      exp\n      swap1\n      div\n      0xff\n      and\n      dup2\n      jump\t// out\n        /* \"Variables y operadores/casteo_variables.sol\":486:529  int public casteo_4 = int(entero_120_bytes) */\n    tag_21:\n      sload(0x05)\n      dup2\n      jump\t// out\n\n    auxdata: 0xa264697066735822122084ff144c2514e1e4f5ac195898916784e46333cb19fca1e1b1fd8d4eab96256e64736f6c63430006000033\n}\n",
				"bytecode": {
					"linkReferences": {},
					"object": "6080604052602a6000806101000a81548160ff021916908360ff16021790555061ea60600060016101000a81548167ffffffffffffffff021916908367ffffffffffffffff160217905550620f4240600155609c600260006101000a81548161ffff021916908360010b61ffff160217905550620dbba06002806101000a8154816effffffffffffffffffffffffffffff0219169083600e0b6effffffffffffffffffffffffffffff160217905550624c4b406003556000809054906101000a900460ff1660ff16600460006101000a81548167ffffffffffffffff021916908367ffffffffffffffff160217905550600154600460086101000a81548167ffffffffffffffff021916908367ffffffffffffffff160217905550600260009054906101000a900460010b600460106101000a81548160ff021916908360ff1602179055506002809054906101000a9004600e0b600e0b60055560015460065534801561016b57600080fd5b5061021a8061017b6000396000f3fe608060405234801561001057600080fd5b50600436106100625760003560e01c806302b037a7146100675780632b74311b146100995780639fe40a17146100cb578063af489aa614610124578063d5d240c114610142578063ed4885e514610166575b600080fd5b61006f610184565b604051808267ffffffffffffffff1667ffffffffffffffff16815260200191505060405180910390f35b6100a161019e565b604051808267ffffffffffffffff1667ffffffffffffffff16815260200191505060405180910390f35b6100fa600480360360208110156100e157600080fd5b81019080803560ff1690602001909291905050506101b8565b604051808267ffffffffffffffff1667ffffffffffffffff16815260200191505060405180910390f35b61012c6101c5565b6040518082815260200191505060405180910390f35b61014a6101cb565b604051808260ff1660ff16815260200191505060405180910390f35b61016e6101de565b6040518082815260200191505060405180910390f35b600460009054906101000a900467ffffffffffffffff1681565b600460089054906101000a900467ffffffffffffffff1681565b60008160ff169050919050565b60065481565b600460109054906101000a900460ff1681565b6005548156fea264697066735822122084ff144c2514e1e4f5ac195898916784e46333cb19fca1e1b1fd8d4eab96256e64736f6c63430006000033",
					"opcodes": "PUSH1 0x80 PUSH1 0x40 MSTORE PUSH1 0x2A PUSH1 0x0 DUP1 PUSH2 0x100 EXP DUP2 SLOAD DUP2 PUSH1 0xFF MUL NOT AND SWAP1 DUP4 PUSH1 0xFF AND MUL OR SWAP1 SSTORE POP PUSH2 0xEA60 PUSH1 0x0 PUSH1 0x1 PUSH2 0x100 EXP DUP2 SLOAD DUP2 PUSH8 0xFFFFFFFFFFFFFFFF MUL NOT AND SWAP1 DUP4 PUSH8 0xFFFFFFFFFFFFFFFF AND MUL OR SWAP1 SSTORE POP PUSH3 0xF4240 PUSH1 0x1 SSTORE PUSH1 0x9C PUSH1 0x2 PUSH1 0x0 PUSH2 0x100 EXP DUP2 SLOAD DUP2 PUSH2 0xFFFF MUL NOT AND SWAP1 DUP4 PUSH1 0x1 SIGNEXTEND PUSH2 0xFFFF AND MUL OR SWAP1 SSTORE POP PUSH3 0xDBBA0 PUSH1 0x2 DUP1 PUSH2 0x100 EXP DUP2 SLOAD DUP2 PUSH15 0xFFFFFFFFFFFFFFFFFFFFFFFFFFFFFF MUL NOT AND SWAP1 DUP4 PUSH1 0xE SIGNEXTEND PUSH15 0xFFFFFFFFFFFFFFFFFFFFFFFFFFFFFF AND MUL OR SWAP1 SSTORE POP PUSH3 0x4C4B40 PUSH1 0x3 SSTORE PUSH1 0x0 DUP1 SWAP1 SLOAD SWAP1 PUSH2 0x100 EXP SWAP1 DIV PUSH1 0xFF AND PUSH1 0xFF AND PUSH1 0x4 PUSH1 0x0 PUSH2 0x100 EXP DUP2 SLOAD DUP2 PUSH8 0xFFFFFFFFFFFFFFFF MUL NOT AND SWAP1 DUP4 PUSH8 0xFFFFFFFFFFFFFFFF AND MUL OR SWAP1 SSTORE POP PUSH1 0x1 SLOAD PUSH1 0x4 PUSH1 0x8 PUSH2 0x100 EXP DUP2 SLOAD DUP2 PUSH8 0xFFFFFFFFFFFFFFFF MUL NOT AND SWAP1 DUP4 PUSH8 0xFFFFFFFFFFFFFFFF AND MUL OR SWAP1 SSTORE POP PUSH1 0x2 PUSH1 0x0 SWAP1 SLOAD SWAP1 PUSH2 0x100 EXP SWAP1 DIV PUSH1 0x1 SIGNEXTEND PUSH1 0x4 PUSH1 0x10 PUSH2 0x100 EXP DUP2 SLOAD DUP2 PUSH1 0xFF MUL NOT AND SWAP1 DUP4 PUSH1 0xFF AND MUL OR SWAP1 SSTORE POP PUSH1 0x2 DUP1 SWAP1 SLOAD SWAP1 PUSH2 0x100 EXP SWAP1 DIV PUSH1 0xE SIGNEXTEND PUSH1 0xE SIGNEXTEND PUSH1 0x5 SSTORE PUSH1 0x1 SLOAD PUSH1 0x6 SSTORE CALLVALUE DUP1 ISZERO PUSH2 0x16B JUMPI PUSH1 0x0 DUP1 REVERT JUMPDEST POP PUSH2 0x21A DUP1 PUSH2 0x17B PUSH1 0x0 CODECOPY PUSH1 0x0 RETURN INVALID PUSH1 0x80 PUSH1 0x40 MSTORE CALLVALUE DUP1 ISZERO PUSH2 0x10 JUMPI PUSH1 0x0 DUP1 REVERT JUMPDEST POP PUSH1 0x4 CALLDATASIZE LT PUSH2 0x62 JUMPI PUSH1 0x0 CALLDATALOAD PUSH1 0xE0 SHR DUP1 PUSH4 0x2B037A7 EQ PUSH2 0x67 JUMPI DUP1 PUSH4 0x2B74311B EQ PUSH2 0x99 JUMPI DUP1 PUSH4 0x9FE40A17 EQ PUSH2 0xCB JUMPI DUP1 PUSH4 0xAF489AA6 EQ PUSH2 0x124 JUMPI DUP1 PUSH4 0xD5D240C1 EQ PUSH2 0x142 JUMPI DUP1 PUSH4 0xED4885E5 EQ PUSH2 0x166 JUMPI JUMPDEST PUSH1 0x0 DUP1 REVERT JUMPDEST PUSH2 0x6F PUSH2 0x184 JUMP JUMPDEST PUSH1 0x40 MLOAD DUP1 DUP3 PUSH8 0xFFFFFFFFFFFFFFFF AND PUSH8 0xFFFFFFFFFFFFFFFF AND DUP2 MSTORE PUSH1 0x20 ADD SWAP2 POP POP PUSH1 0x40 MLOAD DUP1 SWAP2 SUB SWAP1 RETURN JUMPDEST PUSH2 0xA1 PUSH2 0x19E JUMP JUMPDEST PUSH1 0x40 MLOAD DUP1 DUP3 PUSH8 0xFFFFFFFFFFFFFFFF AND PUSH8 0xFFFFFFFFFFFFFFFF AND DUP2 MSTORE PUSH1 0x20 ADD SWAP2 POP POP PUSH1 0x40 MLOAD DUP1 SWAP2 SUB SWAP1 RETURN JUMPDEST PUSH2 0xFA PUSH1 0x4 DUP1 CALLDATASIZE SUB PUSH1 0x20 DUP2 LT ISZERO PUSH2 0xE1 JUMPI PUSH1 0x0 DUP1 REVERT JUMPDEST DUP2 ADD SWAP1 DUP1 DUP1 CALLDATALOAD PUSH1 0xFF AND SWAP1 PUSH1 0x20 ADD SWAP1 SWAP3 SWAP2 SWAP1 POP POP POP PUSH2 0x1B8 JUMP JUMPDEST PUSH1 0x40 MLOAD DUP1 DUP3 PUSH8 0xFFFFFFFFFFFFFFFF AND PUSH8 0xFFFFFFFFFFFFFFFF AND DUP2 MSTORE PUSH1 0x20 ADD SWAP2 POP POP PUSH1 0x40 MLOAD DUP1 SWAP2 SUB SWAP1 RETURN JUMPDEST PUSH2 0x12C PUSH2 0x1C5 JUMP JUMPDEST PUSH1 0x40 MLOAD DUP1 DUP3 DUP2 MSTORE PUSH1 0x20 ADD SWAP2 POP POP PUSH1 0x40 MLOAD DUP1 SWAP2 SUB SWAP1 RETURN JUMPDEST PUSH2 0x14A PUSH2 0x1CB JUMP JUMPDEST PUSH1 0x40 MLOAD DUP1 DUP3 PUSH1 0xFF AND PUSH1 0xFF AND DUP2 MSTORE PUSH1 0x20 ADD SWAP2 POP POP PUSH1 0x40 MLOAD DUP1 SWAP2 SUB SWAP1 RETURN JUMPDEST PUSH2 0x16E PUSH2 0x1DE JUMP JUMPDEST PUSH1 0x40 MLOAD DUP1 DUP3 DUP2 MSTORE PUSH1 0x20 ADD SWAP2 POP POP PUSH1 0x40 MLOAD DUP1 SWAP2 SUB SWAP1 RETURN JUMPDEST PUSH1 0x4 PUSH1 0x0 SWAP1 SLOAD SWAP1 PUSH2 0x100 EXP SWAP1 DIV PUSH8 0xFFFFFFFFFFFFFFFF AND DUP2 JUMP JUMPDEST PUSH1 0x4 PUSH1 0x8 SWAP1 SLOAD SWAP1 PUSH2 0x100 EXP SWAP1 DIV PUSH8 0xFFFFFFFFFFFFFFFF AND DUP2 JUMP JUMPDEST PUSH1 0x0 DUP2 PUSH1 0xFF AND SWAP1 POP SWAP2 SWAP1 POP JUMP JUMPDEST PUSH1 0x6 SLOAD DUP2 JUMP JUMPDEST PUSH1 0x4 PUSH1 0x10 SWAP1 SLOAD SWAP1 PUSH2 0x100 EXP SWAP1 DIV PUSH1 0xFF AND DUP2 JUMP JUMPDEST PUSH1 0x5 SLOAD DUP2 JUMP INVALID LOG2 PUSH5 0x6970667358 0x22 SLT KECCAK256 DUP5 SELFDESTRUCT EQ 0x4C 0x25 EQ 0xE1 0xE4 CREATE2 0xAC NOT PC SWAP9 SWAP2 PUSH8 0x84E46333CB19FCA1 0xE1 0xB1 REVERT DUP14 0x4E 0xAB SWAP7 0x25 PUSH15 0x64736F6C6343000600003300000000 "
				},
				"gasEstimates": {
					"creation": {
						"codeDepositCost": "107600",
						"executionCost": "230638",
						"totalCost": "338238"
					},
					"external": {
						"casteo_1()": "1031",
						"casteo_2()": "1103",
						"casteo_3()": "1169",
						"casteo_4()": "1093",
						"casteo_5()": "1049",
						"convertir(uint8)": "346"
					}
				},
				"methodIdentifiers": {
					"casteo_1()": "02b037a7",
					"casteo_2()": "2b74311b",
					"casteo_3()": "d5d240c1",
					"casteo_4()": "ed4885e5",
					"casteo_5()": "af489aa6",
					"convertir(uint8)": "9fe40a17"
				}
			},
			"storageLayout": {
				"storage": [
					{
						"astId": 4,
						"contract": "Variables y operadores/casteo_variables.sol:casteo",
						"label": "entero_8_bytes",
						"offset": 0,
						"slot": "0",
						"type": "t_uint8"
					},
					{
						"astId": 7,
						"contract": "Variables y operadores/casteo_variables.sol:casteo",
						"label": "entero_64_bytes",
						"offset": 1,
						"slot": "0",
						"type": "t_uint64"
					},
					{
						"astId": 10,
						"contract": "Variables y operadores/casteo_variables.sol:casteo",
						"label": "entero_256_bytes",
						"offset": 0,
						"slot": "1",
						"type": "t_uint256"
					},
					{
						"astId": 13,
						"contract": "Variables y operadores/casteo_variables.sol:casteo",
						"label": "entero_16_bytes",
						"offset": 0,
						"slot": "2",
						"type": "t_int16"
					},
					{
						"astId": 16,
						"contract": "Variables y operadores/casteo_variables.sol:casteo",
						"label": "entero_120_bytes",
						"offset": 2,
						"slot": "2",
						"type": "t_int120"
					},
					{
						"astId": 19,
						"contract": "Variables y operadores/casteo_variables.sol:casteo",
						"label": "entero",
						"offset": 0,
						"slot": "3",
						"type": "t_int256"
					},
					{
						"astId": 25,
						"contract": "Variables y operadores/casteo_variables.sol:casteo",
						"label": "casteo_1",
						"offset": 0,
						"slot": "4",
						"type": "t_uint64"
					},
					{
						"astId": 31,
						"contract": "Variables y operadores/casteo_variables.sol:casteo",
						"label": "casteo_2",
						"offset": 8,
						"slot": "4",
						"type": "t_uint64"
					},
					{
						"astId": 37,
						"contract": "Variables y operadores/casteo_variables.sol:casteo",
						"label": "casteo_3",
						"offset": 16,
						"slot": "4",
						"type": "t_uint8"
					},
					{
						"astId": 43,
						"contract": "Variables y operadores/casteo_variables.sol:casteo",
						"label": "casteo_4",
						"offset": 0,
						"slot": "5",
						"type": "t_int256"
					},
					{
						"astId": 49,
						"contract": "Variables y operadores/casteo_variables.sol:casteo",
						"label": "casteo_5",
						"offset": 0,
						"slot": "6",
						"type": "t_int256"
					}
				],
				"types": {
					"t_int120": {
						"encoding": "inplace",
						"label": "int120",
						"numberOfBytes": "15"
					},
					"t_int16": {
						"encoding": "inplace",
						"label": "int16",
						"numberOfBytes": "2"
					},
					"t_int256": {
						"encoding": "inplace",
						"label": "int256",
						"numberOfBytes": "32"
					},
					"t_uint256": {
						"encoding": "inplace",
						"label": "uint256",
						"numberOfBytes": "32"
					},
					"t_uint64": {
						"encoding": "inplace",
						"label": "uint64",
						"numberOfBytes": "8"
					},
					"t_uint8": {
						"encoding": "inplace",
						"label": "uint8",
						"numberOfBytes": "1"
					}
				}
			},
			"userdoc": {
				"methods": {}
			}
		}
	}
}