{
	"Varios Smart Contracts/librerias.sol": {
		"Operaciones": {
			"abi": [
				{
					"inputs": [
						{
							"internalType": "uint256",
							"name": "a",
							"type": "uint256"
						},
						{
							"internalType": "uint256",
							"name": "b",
							"type": "uint256"
						}
					],
					"name": "Division",
					"outputs": [
						{
							"internalType": "uint256",
							"name": "",
							"type": "uint256"
						}
					],
					"stateMutability": "pure",
					"type": "function"
				},
				{
					"inputs": [
						{
							"internalType": "uint256",
							"name": "a",
							"type": "uint256"
						},
						{
							"internalType": "uint256",
							"name": "b",
							"type": "uint256"
						}
					],
					"name": "Multiplicacion",
					"outputs": [
						{
							"internalType": "uint256",
							"name": "",
							"type": "uint256"
						}
					],
					"stateMutability": "pure",
					"type": "function"
				}
			],
			"devdoc": {
				"methods": {}
			},
			"evm": {
				"assembly": "    /* \"Varios Smart Contracts/librerias.sol\":37:418  library Operaciones {\r... */\n  dataSize(sub_0)\n  dataOffset(sub_0)\n    /* \"--CODEGEN--\":132:134   */\n  0x0b\n    /* \"--CODEGEN--\":166:173   */\n  dup3\n    /* \"--CODEGEN--\":155:164   */\n  dup3\n    /* \"--CODEGEN--\":146:153   */\n  dup3\n    /* \"--CODEGEN--\":137:174   */\n  codecopy\n    /* \"--CODEGEN--\":255:262   */\n  dup1\n    /* \"--CODEGEN--\":249:263   */\n  mload\n    /* \"--CODEGEN--\":246:247   */\n  0x00\n    /* \"--CODEGEN--\":241:264   */\n  byte\n    /* \"--CODEGEN--\":235:239   */\n  0x73\n    /* \"--CODEGEN--\":232:265   */\n  eq\n    /* \"--CODEGEN--\":222:224   */\n  tag_1\n  jumpi\n    /* \"--CODEGEN--\":269:278   */\n  invalid\n    /* \"--CODEGEN--\":222:224   */\ntag_1:\n    /* \"--CODEGEN--\":293:302   */\n  address\n    /* \"--CODEGEN--\":290:291   */\n  0x00\n    /* \"--CODEGEN--\":283:303   */\n  mstore\n    /* \"--CODEGEN--\":323:327   */\n  0x73\n    /* \"--CODEGEN--\":314:321   */\n  dup2\n    /* \"--CODEGEN--\":306:328   */\n  mstore8\n    /* \"--CODEGEN--\":347:354   */\n  dup3\n    /* \"--CODEGEN--\":338:345   */\n  dup2\n    /* \"--CODEGEN--\":331:355   */\n  return\nstop\n\nsub_0: assembly {\n        /* \"Varios Smart Contracts/librerias.sol\":37:418  library Operaciones {\r... */\n      eq(address, deployTimeAddress())\n      mstore(0x40, 0x80)\n      jumpi(tag_1, lt(calldatasize, 0x04))\n      shr(0xe0, calldataload(0x00))\n      dup1\n      0x16286a22\n      eq\n      tag_2\n      jumpi\n      dup1\n      0x407787e6\n      eq\n      tag_3\n      jumpi\n    tag_1:\n      0x00\n      dup1\n      revert\n        /* \"Varios Smart Contracts/librerias.sol\":222:415  function Multiplicacion(uint256 a, uint256 b) public pure returns(uint){\r... */\n    tag_2:\n      tag_4\n      0x04\n      dup1\n      calldatasize\n      sub\n        /* \"--CODEGEN--\":13:15   */\n      0x40\n        /* \"--CODEGEN--\":8:11   */\n      dup2\n        /* \"--CODEGEN--\":5:16   */\n      lt\n        /* \"--CODEGEN--\":2:4   */\n      iszero\n      tag_5\n      jumpi\n        /* \"--CODEGEN--\":29:30   */\n      0x00\n        /* \"--CODEGEN--\":26:27   */\n      dup1\n        /* \"--CODEGEN--\":19:31   */\n      revert\n        /* \"--CODEGEN--\":2:4   */\n    tag_5:\n        /* \"Varios Smart Contracts/librerias.sol\":222:415  function Multiplicacion(uint256 a, uint256 b) public pure returns(uint){\r... */\n      dup2\n      add\n      swap1\n      dup1\n      dup1\n      calldataload\n      swap1\n      0x20\n      add\n      swap1\n      swap3\n      swap2\n      swap1\n      dup1\n      calldataload\n      swap1\n      0x20\n      add\n      swap1\n      swap3\n      swap2\n      swap1\n      pop\n      pop\n      pop\n      tag_6\n      jump\t// in\n    tag_4:\n      mload(0x40)\n      dup1\n      dup3\n      dup2\n      mstore\n      0x20\n      add\n      swap2\n      pop\n      pop\n      mload(0x40)\n      dup1\n      swap2\n      sub\n      swap1\n      return\n        /* \"Varios Smart Contracts/librerias.sol\":64:214  function Division(uint256 a, uint256 b) public pure returns(uint){\r... */\n    tag_3:\n      tag_7\n      0x04\n      dup1\n      calldatasize\n      sub\n        /* \"--CODEGEN--\":13:15   */\n      0x40\n        /* \"--CODEGEN--\":8:11   */\n      dup2\n        /* \"--CODEGEN--\":5:16   */\n      lt\n        /* \"--CODEGEN--\":2:4   */\n      iszero\n      tag_8\n      jumpi\n        /* \"--CODEGEN--\":29:30   */\n      0x00\n        /* \"--CODEGEN--\":26:27   */\n      dup1\n        /* \"--CODEGEN--\":19:31   */\n      revert\n        /* \"--CODEGEN--\":2:4   */\n    tag_8:\n        /* \"Varios Smart Contracts/librerias.sol\":64:214  function Division(uint256 a, uint256 b) public pure returns(uint){\r... */\n      dup2\n      add\n      swap1\n      dup1\n      dup1\n      calldataload\n      swap1\n      0x20\n      add\n      swap1\n      swap3\n      swap2\n      swap1\n      dup1\n      calldataload\n      swap1\n      0x20\n      add\n      swap1\n      swap3\n      swap2\n      swap1\n      pop\n      pop\n      pop\n      tag_9\n      jump\t// in\n    tag_7:\n      mload(0x40)\n      dup1\n      dup3\n      dup2\n      mstore\n      0x20\n      add\n      swap2\n      pop\n      pop\n      mload(0x40)\n      dup1\n      swap2\n      sub\n      swap1\n      return\n        /* \"Varios Smart Contracts/librerias.sol\":222:415  function Multiplicacion(uint256 a, uint256 b) public pure returns(uint){\r... */\n    tag_6:\n        /* \"Varios Smart Contracts/librerias.sol\":288:292  uint */\n      0x00\n        /* \"Varios Smart Contracts/librerias.sol\":314:315  0 */\n      dup1\n        /* \"Varios Smart Contracts/librerias.sol\":309:310  a */\n      dup4\n        /* \"Varios Smart Contracts/librerias.sol\":309:315  a == 0 */\n      eq\n        /* \"Varios Smart Contracts/librerias.sol\":308:328  (a == 0) || (b == 0) */\n      dup1\n      tag_11\n      jumpi\n      pop\n        /* \"Varios Smart Contracts/librerias.sol\":326:327  0 */\n      0x00\n        /* \"Varios Smart Contracts/librerias.sol\":321:322  b */\n      dup3\n        /* \"Varios Smart Contracts/librerias.sol\":321:327  b == 0 */\n      eq\n        /* \"Varios Smart Contracts/librerias.sol\":308:328  (a == 0) || (b == 0) */\n    tag_11:\n        /* \"Varios Smart Contracts/librerias.sol\":304:408  if ((a == 0) || (b == 0)) {\r... */\n      iszero\n      tag_12\n      jumpi\n        /* \"Varios Smart Contracts/librerias.sol\":352:353  0 */\n      0x00\n        /* \"Varios Smart Contracts/librerias.sol\":345:353  return 0 */\n      swap1\n      pop\n      jump(tag_10)\n        /* \"Varios Smart Contracts/librerias.sol\":304:408  if ((a == 0) || (b == 0)) {\r... */\n    tag_12:\n        /* \"Varios Smart Contracts/librerias.sol\":395:396  b */\n      dup2\n        /* \"Varios Smart Contracts/librerias.sol\":393:394  a */\n      dup4\n        /* \"Varios Smart Contracts/librerias.sol\":393:396  a*b */\n      mul\n        /* \"Varios Smart Contracts/librerias.sol\":386:396  return a*b */\n      swap1\n      pop\n        /* \"Varios Smart Contracts/librerias.sol\":222:415  function Multiplicacion(uint256 a, uint256 b) public pure returns(uint){\r... */\n    tag_10:\n      swap3\n      swap2\n      pop\n      pop\n      jump\t// out\n        /* \"Varios Smart Contracts/librerias.sol\":64:214  function Division(uint256 a, uint256 b) public pure returns(uint){\r... */\n    tag_9:\n        /* \"Varios Smart Contracts/librerias.sol\":124:128  uint */\n      0x00\n        /* \"Varios Smart Contracts/librerias.sol\":152:153  0 */\n      dup1\n        /* \"Varios Smart Contracts/librerias.sol\":148:149  b */\n      dup3\n        /* \"Varios Smart Contracts/librerias.sol\":148:153  b > 0 */\n      gt\n        /* \"Varios Smart Contracts/librerias.sol\":140:185  require(b > 0, \"No se puede dividir entre 0\") */\n      tag_15\n      jumpi\n      mload(0x40)\n      0x08c379a000000000000000000000000000000000000000000000000000000000\n      dup2\n      mstore\n      0x04\n      add\n      dup1\n      dup1\n      0x20\n      add\n      dup3\n      dup2\n      sub\n      dup3\n      mstore\n      0x1b\n      dup2\n      mstore\n      0x20\n      add\n      dup1\n      0x4e6f207365207075656465206469766964697220656e74726520300000000000\n      dup2\n      mstore\n      pop\n      0x20\n      add\n      swap2\n      pop\n      pop\n      mload(0x40)\n      dup1\n      swap2\n      sub\n      swap1\n      revert\n    tag_15:\n        /* \"Varios Smart Contracts/librerias.sol\":205:206  b */\n      dup2\n        /* \"Varios Smart Contracts/librerias.sol\":203:204  a */\n      dup4\n        /* \"Varios Smart Contracts/librerias.sol\":203:206  a/b */\n      dup2\n      tag_16\n      jumpi\n      invalid\n    tag_16:\n      div\n        /* \"Varios Smart Contracts/librerias.sol\":196:206  return a/b */\n      swap1\n      pop\n        /* \"Varios Smart Contracts/librerias.sol\":64:214  function Division(uint256 a, uint256 b) public pure returns(uint){\r... */\n      swap3\n      swap2\n      pop\n      pop\n      jump\t// out\n\n    auxdata: 0xa264697066735822122029a1f88139a7dacbceeee02cffab8b6509c5301e41439fd689106d56ad975b2c64736f6c63430006000033\n}\n",
				"bytecode": {
					"linkReferences": {},
					"object": "6101c6610026600b82828239805160001a60731461001957fe5b30600052607381538281f3fe73000000000000000000000000000000000000000030146080604052600436106100405760003560e01c806316286a2214610045578063407787e614610091575b600080fd5b61007b6004803603604081101561005b57600080fd5b8101908080359060200190929190803590602001909291905050506100dd565b6040518082815260200191505060405180910390f35b6100c7600480360360408110156100a757600080fd5b810190808035906020019092919080359060200190929190505050610107565b6040518082815260200191505060405180910390f35b6000808314806100ed5750600082145b156100fb5760009050610101565b81830290505b92915050565b600080821161017e576040517f08c379a000000000000000000000000000000000000000000000000000000000815260040180806020018281038252601b8152602001807f4e6f207365207075656465206469766964697220656e7472652030000000000081525060200191505060405180910390fd5b81838161018757fe5b0490509291505056fea264697066735822122029a1f88139a7dacbceeee02cffab8b6509c5301e41439fd689106d56ad975b2c64736f6c63430006000033",
					"opcodes": "PUSH2 0x1C6 PUSH2 0x26 PUSH1 0xB DUP3 DUP3 DUP3 CODECOPY DUP1 MLOAD PUSH1 0x0 BYTE PUSH1 0x73 EQ PUSH2 0x19 JUMPI INVALID JUMPDEST ADDRESS PUSH1 0x0 MSTORE PUSH1 0x73 DUP2 MSTORE8 DUP3 DUP2 RETURN INVALID PUSH20 0x0 ADDRESS EQ PUSH1 0x80 PUSH1 0x40 MSTORE PUSH1 0x4 CALLDATASIZE LT PUSH2 0x40 JUMPI PUSH1 0x0 CALLDATALOAD PUSH1 0xE0 SHR DUP1 PUSH4 0x16286A22 EQ PUSH2 0x45 JUMPI DUP1 PUSH4 0x407787E6 EQ PUSH2 0x91 JUMPI JUMPDEST PUSH1 0x0 DUP1 REVERT JUMPDEST PUSH2 0x7B PUSH1 0x4 DUP1 CALLDATASIZE SUB PUSH1 0x40 DUP2 LT ISZERO PUSH2 0x5B JUMPI PUSH1 0x0 DUP1 REVERT JUMPDEST DUP2 ADD SWAP1 DUP1 DUP1 CALLDATALOAD SWAP1 PUSH1 0x20 ADD SWAP1 SWAP3 SWAP2 SWAP1 DUP1 CALLDATALOAD SWAP1 PUSH1 0x20 ADD SWAP1 SWAP3 SWAP2 SWAP1 POP POP POP PUSH2 0xDD JUMP JUMPDEST PUSH1 0x40 MLOAD DUP1 DUP3 DUP2 MSTORE PUSH1 0x20 ADD SWAP2 POP POP PUSH1 0x40 MLOAD DUP1 SWAP2 SUB SWAP1 RETURN JUMPDEST PUSH2 0xC7 PUSH1 0x4 DUP1 CALLDATASIZE SUB PUSH1 0x40 DUP2 LT ISZERO PUSH2 0xA7 JUMPI PUSH1 0x0 DUP1 REVERT JUMPDEST DUP2 ADD SWAP1 DUP1 DUP1 CALLDATALOAD SWAP1 PUSH1 0x20 ADD SWAP1 SWAP3 SWAP2 SWAP1 DUP1 CALLDATALOAD SWAP1 PUSH1 0x20 ADD SWAP1 SWAP3 SWAP2 SWAP1 POP POP POP PUSH2 0x107 JUMP JUMPDEST PUSH1 0x40 MLOAD DUP1 DUP3 DUP2 MSTORE PUSH1 0x20 ADD SWAP2 POP POP PUSH1 0x40 MLOAD DUP1 SWAP2 SUB SWAP1 RETURN JUMPDEST PUSH1 0x0 DUP1 DUP4 EQ DUP1 PUSH2 0xED JUMPI POP PUSH1 0x0 DUP3 EQ JUMPDEST ISZERO PUSH2 0xFB JUMPI PUSH1 0x0 SWAP1 POP PUSH2 0x101 JUMP JUMPDEST DUP2 DUP4 MUL SWAP1 POP JUMPDEST SWAP3 SWAP2 POP POP JUMP JUMPDEST PUSH1 0x0 DUP1 DUP3 GT PUSH2 0x17E JUMPI PUSH1 0x40 MLOAD PUSH32 0x8C379A000000000000000000000000000000000000000000000000000000000 DUP2 MSTORE PUSH1 0x4 ADD DUP1 DUP1 PUSH1 0x20 ADD DUP3 DUP2 SUB DUP3 MSTORE PUSH1 0x1B DUP2 MSTORE PUSH1 0x20 ADD DUP1 PUSH32 0x4E6F207365207075656465206469766964697220656E74726520300000000000 DUP2 MSTORE POP PUSH1 0x20 ADD SWAP2 POP POP PUSH1 0x40 MLOAD DUP1 SWAP2 SUB SWAP1 REVERT JUMPDEST DUP2 DUP4 DUP2 PUSH2 0x187 JUMPI INVALID JUMPDEST DIV SWAP1 POP SWAP3 SWAP2 POP POP JUMP INVALID LOG2 PUSH5 0x6970667358 0x22 SLT KECCAK256 0x29 LOG1 0xF8 DUP2 CODECOPY 0xA7 0xDA 0xCB 0xCE 0xEE 0xE0 0x2C SELFDESTRUCT 0xAB DUP12 PUSH6 0x9C5301E4143 SWAP16 0xD6 DUP10 LT PUSH14 0x56AD975B2C64736F6C6343000600 STOP CALLER "
				},
				"gasEstimates": {
					"creation": {
						"codeDepositCost": "90800",
						"executionCost": "166",
						"totalCost": "90966"
					},
					"external": {
						"Division(uint256,uint256)": "376",
						"Multiplicacion(uint256,uint256)": "356"
					}
				},
				"methodIdentifiers": {
					"Division(uint256,uint256)": "407787e6",
					"Multiplicacion(uint256,uint256)": "16286a22"
				}
			},
			"storageLayout": {
				"storage": [],
				"types": null
			},
			"userdoc": {
				"methods": {}
			}
		}
	}
}