{
	"Variables y operadores/operadores.sol": {
		"operadores": {
			"abi": [
				{
					"inputs": [],
					"name": "diferente",
					"outputs": [
						{
							"internalType": "bool",
							"name": "",
							"type": "bool"
						}
					],
					"stateMutability": "view",
					"type": "function"
				},
				{
					"inputs": [
						{
							"internalType": "uint256",
							"name": "_i",
							"type": "uint256"
						}
					],
					"name": "divisibilidad",
					"outputs": [
						{
							"internalType": "bool",
							"name": "",
							"type": "bool"
						}
					],
					"stateMutability": "pure",
					"type": "function"
				},
				{
					"inputs": [
						{
							"internalType": "uint256",
							"name": "_i",
							"type": "uint256"
						}
					],
					"name": "divisibilidadV2",
					"outputs": [
						{
							"internalType": "bool",
							"name": "",
							"type": "bool"
						}
					],
					"stateMutability": "pure",
					"type": "function"
				},
				{
					"inputs": [],
					"name": "division",
					"outputs": [
						{
							"internalType": "uint256",
							"name": "",
							"type": "uint256"
						}
					],
					"stateMutability": "view",
					"type": "function"
				},
				{
					"inputs": [],
					"name": "exponente",
					"outputs": [
						{
							"internalType": "uint256",
							"name": "",
							"type": "uint256"
						}
					],
					"stateMutability": "view",
					"type": "function"
				},
				{
					"inputs": [],
					"name": "igual",
					"outputs": [
						{
							"internalType": "bool",
							"name": "",
							"type": "bool"
						}
					],
					"stateMutability": "view",
					"type": "function"
				},
				{
					"inputs": [],
					"name": "igual_t",
					"outputs": [
						{
							"internalType": "bool",
							"name": "",
							"type": "bool"
						}
					],
					"stateMutability": "view",
					"type": "function"
				},
				{
					"inputs": [],
					"name": "mayor",
					"outputs": [
						{
							"internalType": "bool",
							"name": "",
							"type": "bool"
						}
					],
					"stateMutability": "view",
					"type": "function"
				},
				{
					"inputs": [],
					"name": "mayor_igual",
					"outputs": [
						{
							"internalType": "bool",
							"name": "",
							"type": "bool"
						}
					],
					"stateMutability": "view",
					"type": "function"
				},
				{
					"inputs": [],
					"name": "menor",
					"outputs": [
						{
							"internalType": "bool",
							"name": "",
							"type": "bool"
						}
					],
					"stateMutability": "view",
					"type": "function"
				},
				{
					"inputs": [],
					"name": "modulo",
					"outputs": [
						{
							"internalType": "uint256",
							"name": "",
							"type": "uint256"
						}
					],
					"stateMutability": "view",
					"type": "function"
				},
				{
					"inputs": [],
					"name": "multiplicacion",
					"outputs": [
						{
							"internalType": "uint256",
							"name": "",
							"type": "uint256"
						}
					],
					"stateMutability": "view",
					"type": "function"
				},
				{
					"inputs": [],
					"name": "resta",
					"outputs": [
						{
							"internalType": "uint256",
							"name": "",
							"type": "uint256"
						}
					],
					"stateMutability": "view",
					"type": "function"
				},
				{
					"inputs": [],
					"name": "suma",
					"outputs": [
						{
							"internalType": "uint256",
							"name": "",
							"type": "uint256"
						}
					],
					"stateMutability": "view",
					"type": "function"
				}
			],
			"devdoc": {
				"methods": {}
			},
			"evm": {
				"assembly": "    /* \"Variables y operadores/operadores.sol\":35:1415  contract operadores {\r... */\n  mstore(0x40, 0x80)\n    /* \"Variables y operadores/operadores.sol\":108:110  32 */\n  0x20\n    /* \"Variables y operadores/operadores.sol\":95:110  uint num_1 = 32 */\n  0x00\n  sstore\n    /* \"Variables y operadores/operadores.sol\":130:131  4 */\n  0x04\n    /* \"Variables y operadores/operadores.sol\":117:131  uint num_2 = 4 */\n  0x01\n  sstore\n    /* \"Variables y operadores/operadores.sol\":167:172  num_2 */\n  sload(0x01)\n    /* \"Variables y operadores/operadores.sol\":159:164  num_1 */\n  sload(0x00)\n    /* \"Variables y operadores/operadores.sol\":159:172  num_1 + num_2 */\n  add\n    /* \"Variables y operadores/operadores.sol\":140:172  uint public suma = num_1 + num_2 */\n  0x02\n  sstore\n    /* \"Variables y operadores/operadores.sol\":207:212  num_2 */\n  sload(0x01)\n    /* \"Variables y operadores/operadores.sol\":199:204  num_1 */\n  sload(0x00)\n    /* \"Variables y operadores/operadores.sol\":199:212  num_1 - num_2 */\n  sub\n    /* \"Variables y operadores/operadores.sol\":179:212  uint public resta = num_1 - num_2 */\n  0x03\n  sstore\n    /* \"Variables y operadores/operadores.sol\":250:255  num_2 */\n  sload(0x01)\n    /* \"Variables y operadores/operadores.sol\":242:247  num_1 */\n  sload(0x00)\n    /* \"Variables y operadores/operadores.sol\":242:255  num_1 / num_2 */\n  dup2\n  tag_1\n  jumpi\n  invalid\ntag_1:\n  div\n    /* \"Variables y operadores/operadores.sol\":219:255  uint public division = num_1 / num_2 */\n  0x04\n  sstore\n    /* \"Variables y operadores/operadores.sol\":299:304  num_2 */\n  sload(0x01)\n    /* \"Variables y operadores/operadores.sol\":291:296  num_1 */\n  sload(0x00)\n    /* \"Variables y operadores/operadores.sol\":291:304  num_1 * num_2 */\n  mul\n    /* \"Variables y operadores/operadores.sol\":262:304  uint public multiplicacion = num_1 * num_2 */\n  0x05\n  sstore\n    /* \"Variables y operadores/operadores.sol\":340:345  num_2 */\n  sload(0x01)\n    /* \"Variables y operadores/operadores.sol\":332:337  num_1 */\n  sload(0x00)\n    /* \"Variables y operadores/operadores.sol\":332:345  num_1 % num_2 */\n  dup2\n  tag_2\n  jumpi\n  invalid\ntag_2:\n  mod\n    /* \"Variables y operadores/operadores.sol\":311:345  uint public modulo = num_1 % num_2 */\n  0x06\n  sstore\n    /* \"Variables y operadores/operadores.sol\":385:390  num_2 */\n  sload(0x01)\n    /* \"Variables y operadores/operadores.sol\":376:381  num_1 */\n  sload(0x00)\n    /* \"Variables y operadores/operadores.sol\":376:390  num_1 ** num_2 */\n  exp\n    /* \"Variables y operadores/operadores.sol\":352:390  uint public exponente = num_1 ** num_2 */\n  0x07\n  sstore\n    /* \"Variables y operadores/operadores.sol\":437:438  3 */\n  0x03\n    /* \"Variables y operadores/operadores.sol\":424:438  uint num_3 = 3 */\n  0x08\n  sstore\n    /* \"Variables y operadores/operadores.sol\":458:459  3 */\n  0x03\n    /* \"Variables y operadores/operadores.sol\":445:459  uint num_4 = 3 */\n  0x09\n  sstore\n    /* \"Variables y operadores/operadores.sol\":496:501  num_2 */\n  sload(0x01)\n    /* \"Variables y operadores/operadores.sol\":488:493  num_1 */\n  sload(0x00)\n    /* \"Variables y operadores/operadores.sol\":488:501  num_1 > num_2 */\n  gt\n    /* \"Variables y operadores/operadores.sol\":468:501  bool public mayor = num_1 > num_2 */\n  0x0a\n  exp(0x0100, 0x00)\n  dup2\n  sload\n  dup2\n  0xff\n  mul\n  not\n  and\n  swap1\n  dup4\n  iszero\n  iszero\n  mul\n  or\n  swap1\n  sstore\n  pop\n    /* \"Variables y operadores/operadores.sol\":536:541  num_2 */\n  sload(0x01)\n    /* \"Variables y operadores/operadores.sol\":528:533  num_1 */\n  sload(0x00)\n    /* \"Variables y operadores/operadores.sol\":528:541  num_1 < num_2 */\n  lt\n    /* \"Variables y operadores/operadores.sol\":508:541  bool public menor = num_1 < num_2 */\n  0x0a\n  exp(0x0100, 0x01)\n  dup2\n  sload\n  dup2\n  0xff\n  mul\n  not\n  and\n  swap1\n  dup4\n  iszero\n  iszero\n  mul\n  or\n  swap1\n  sstore\n  pop\n    /* \"Variables y operadores/operadores.sol\":577:582  num_2 */\n  sload(0x01)\n    /* \"Variables y operadores/operadores.sol\":568:573  num_1 */\n  sload(0x00)\n    /* \"Variables y operadores/operadores.sol\":568:582  num_1 == num_2 */\n  eq\n    /* \"Variables y operadores/operadores.sol\":548:582  bool public igual = num_1 == num_2 */\n  0x0a\n  exp(0x0100, 0x02)\n  dup2\n  sload\n  dup2\n  0xff\n  mul\n  not\n  and\n  swap1\n  dup4\n  iszero\n  iszero\n  mul\n  or\n  swap1\n  sstore\n  pop\n    /* \"Variables y operadores/operadores.sol\":620:625  num_4 */\n  sload(0x09)\n    /* \"Variables y operadores/operadores.sol\":611:616  num_3 */\n  sload(0x08)\n    /* \"Variables y operadores/operadores.sol\":611:625  num_3 == num_4 */\n  eq\n    /* \"Variables y operadores/operadores.sol\":589:625  bool public igual_t = num_3 == num_4 */\n  0x0a\n  exp(0x0100, 0x03)\n  dup2\n  sload\n  dup2\n  0xff\n  mul\n  not\n  and\n  swap1\n  dup4\n  iszero\n  iszero\n  mul\n  or\n  swap1\n  sstore\n  pop\n    /* \"Variables y operadores/operadores.sol\":665:670  num_2 */\n  sload(0x01)\n    /* \"Variables y operadores/operadores.sol\":656:661  num_1 */\n  sload(0x00)\n    /* \"Variables y operadores/operadores.sol\":656:670  num_1 != num_2 */\n  eq\n  iszero\n    /* \"Variables y operadores/operadores.sol\":632:670  bool public diferente = num_1 != num_2 */\n  0x0a\n  exp(0x0100, 0x04)\n  dup2\n  sload\n  dup2\n  0xff\n  mul\n  not\n  and\n  swap1\n  dup4\n  iszero\n  iszero\n  mul\n  or\n  swap1\n  sstore\n  pop\n    /* \"Variables y operadores/operadores.sol\":712:717  num_2 */\n  sload(0x01)\n    /* \"Variables y operadores/operadores.sol\":703:708  num_1 */\n  sload(0x00)\n    /* \"Variables y operadores/operadores.sol\":703:717  num_1 >= num_2 */\n  lt\n  iszero\n    /* \"Variables y operadores/operadores.sol\":677:717  bool public mayor_igual = num_1 >= num_2 */\n  0x0a\n  exp(0x0100, 0x05)\n  dup2\n  sload\n  dup2\n  0xff\n  mul\n  not\n  and\n  swap1\n  dup4\n  iszero\n  iszero\n  mul\n  or\n  swap1\n  sstore\n  pop\n    /* \"Variables y operadores/operadores.sol\":35:1415  contract operadores {\r... */\n  callvalue\n    /* \"--CODEGEN--\":8:17   */\n  dup1\n    /* \"--CODEGEN--\":5:7   */\n  iszero\n  tag_3\n  jumpi\n    /* \"--CODEGEN--\":30:31   */\n  0x00\n    /* \"--CODEGEN--\":27:28   */\n  dup1\n    /* \"--CODEGEN--\":20:32   */\n  revert\n    /* \"--CODEGEN--\":5:7   */\ntag_3:\n    /* \"Variables y operadores/operadores.sol\":35:1415  contract operadores {\r... */\n  pop\n  dataSize(sub_0)\n  dup1\n  dataOffset(sub_0)\n  0x00\n  codecopy\n  0x00\n  return\nstop\n\nsub_0: assembly {\n        /* \"Variables y operadores/operadores.sol\":35:1415  contract operadores {\r... */\n      mstore(0x40, 0x80)\n      callvalue\n        /* \"--CODEGEN--\":8:17   */\n      dup1\n        /* \"--CODEGEN--\":5:7   */\n      iszero\n      tag_1\n      jumpi\n        /* \"--CODEGEN--\":30:31   */\n      0x00\n        /* \"--CODEGEN--\":27:28   */\n      dup1\n        /* \"--CODEGEN--\":20:32   */\n      revert\n        /* \"--CODEGEN--\":5:7   */\n    tag_1:\n        /* \"Variables y operadores/operadores.sol\":35:1415  contract operadores {\r... */\n      pop\n      jumpi(tag_2, lt(calldatasize, 0x04))\n      shr(0xe0, calldataload(0x00))\n      dup1\n      0x9a441df9\n      gt\n      tag_17\n      jumpi\n      dup1\n      0xcf7ff133\n      gt\n      tag_18\n      jumpi\n      dup1\n      0xcf7ff133\n      eq\n      tag_13\n      jumpi\n      dup1\n      0xd9eb62f1\n      eq\n      tag_14\n      jumpi\n      dup1\n      0xdfdbfd34\n      eq\n      tag_15\n      jumpi\n      dup1\n      0xfa75054e\n      eq\n      tag_16\n      jumpi\n      jump(tag_2)\n    tag_18:\n      dup1\n      0x9a441df9\n      eq\n      tag_10\n      jumpi\n      dup1\n      0x9ffe1666\n      eq\n      tag_11\n      jumpi\n      dup1\n      0xc76218e6\n      eq\n      tag_12\n      jumpi\n      jump(tag_2)\n    tag_17:\n      dup1\n      0x55079601\n      gt\n      tag_19\n      jumpi\n      dup1\n      0x55079601\n      eq\n      tag_6\n      jumpi\n      dup1\n      0x68aac98d\n      eq\n      tag_7\n      jumpi\n      dup1\n      0x7e7d8ec6\n      eq\n      tag_8\n      jumpi\n      dup1\n      0x800c2a0e\n      eq\n      tag_9\n      jumpi\n      jump(tag_2)\n    tag_19:\n      dup1\n      0x29745262\n      eq\n      tag_3\n      jumpi\n      dup1\n      0x3205f5fc\n      eq\n      tag_4\n      jumpi\n      dup1\n      0x3475a3ed\n      eq\n      tag_5\n      jumpi\n    tag_2:\n      0x00\n      dup1\n      revert\n        /* \"Variables y operadores/operadores.sol\":311:345  uint public modulo = num_1 % num_2 */\n    tag_3:\n      tag_20\n      tag_21\n      jump\t// in\n    tag_20:\n      mload(0x40)\n      dup1\n      dup3\n      dup2\n      mstore\n      0x20\n      add\n      swap2\n      pop\n      pop\n      mload(0x40)\n      dup1\n      swap2\n      sub\n      swap1\n      return\n        /* \"Variables y operadores/operadores.sol\":219:255  uint public division = num_1 / num_2 */\n    tag_4:\n      tag_22\n      tag_23\n      jump\t// in\n    tag_22:\n      mload(0x40)\n      dup1\n      dup3\n      dup2\n      mstore\n      0x20\n      add\n      swap2\n      pop\n      pop\n      mload(0x40)\n      dup1\n      swap2\n      sub\n      swap1\n      return\n        /* \"Variables y operadores/operadores.sol\":179:212  uint public resta = num_1 - num_2 */\n    tag_5:\n      tag_24\n      tag_25\n      jump\t// in\n    tag_24:\n      mload(0x40)\n      dup1\n      dup3\n      dup2\n      mstore\n      0x20\n      add\n      swap2\n      pop\n      pop\n      mload(0x40)\n      dup1\n      swap2\n      sub\n      swap1\n      return\n        /* \"Variables y operadores/operadores.sol\":835:1076  function divisibilidad(uint _i) public pure returns(bool) {\r... */\n    tag_6:\n      tag_26\n      0x04\n      dup1\n      calldatasize\n      sub\n        /* \"--CODEGEN--\":13:15   */\n      0x20\n        /* \"--CODEGEN--\":8:11   */\n      dup2\n        /* \"--CODEGEN--\":5:16   */\n      lt\n        /* \"--CODEGEN--\":2:4   */\n      iszero\n      tag_27\n      jumpi\n        /* \"--CODEGEN--\":29:30   */\n      0x00\n        /* \"--CODEGEN--\":26:27   */\n      dup1\n        /* \"--CODEGEN--\":19:31   */\n      revert\n        /* \"--CODEGEN--\":2:4   */\n    tag_27:\n        /* \"Variables y operadores/operadores.sol\":835:1076  function divisibilidad(uint _i) public pure returns(bool) {\r... */\n      dup2\n      add\n      swap1\n      dup1\n      dup1\n      calldataload\n      swap1\n      0x20\n      add\n      swap1\n      swap3\n      swap2\n      swap1\n      pop\n      pop\n      pop\n      tag_28\n      jump\t// in\n    tag_26:\n      mload(0x40)\n      dup1\n      dup3\n      iszero\n      iszero\n      iszero\n      iszero\n      dup2\n      mstore\n      0x20\n      add\n      swap2\n      pop\n      pop\n      mload(0x40)\n      dup1\n      swap2\n      sub\n      swap1\n      return\n        /* \"Variables y operadores/operadores.sol\":589:625  bool public igual_t = num_3 == num_4 */\n    tag_7:\n      tag_29\n      tag_30\n      jump\t// in\n    tag_29:\n      mload(0x40)\n      dup1\n      dup3\n      iszero\n      iszero\n      iszero\n      iszero\n      dup2\n      mstore\n      0x20\n      add\n      swap2\n      pop\n      pop\n      mload(0x40)\n      dup1\n      swap2\n      sub\n      swap1\n      return\n        /* \"Variables y operadores/operadores.sol\":140:172  uint public suma = num_1 + num_2 */\n    tag_8:\n      tag_31\n      tag_32\n      jump\t// in\n    tag_31:\n      mload(0x40)\n      dup1\n      dup3\n      dup2\n      mstore\n      0x20\n      add\n      swap2\n      pop\n      pop\n      mload(0x40)\n      dup1\n      swap2\n      sub\n      swap1\n      return\n        /* \"Variables y operadores/operadores.sol\":352:390  uint public exponente = num_1 ** num_2 */\n    tag_9:\n      tag_33\n      tag_34\n      jump\t// in\n    tag_33:\n      mload(0x40)\n      dup1\n      dup3\n      dup2\n      mstore\n      0x20\n      add\n      swap2\n      pop\n      pop\n      mload(0x40)\n      dup1\n      swap2\n      sub\n      swap1\n      return\n        /* \"Variables y operadores/operadores.sol\":632:670  bool public diferente = num_1 != num_2 */\n    tag_10:\n      tag_35\n      tag_36\n      jump\t// in\n    tag_35:\n      mload(0x40)\n      dup1\n      dup3\n      iszero\n      iszero\n      iszero\n      iszero\n      dup2\n      mstore\n      0x20\n      add\n      swap2\n      pop\n      pop\n      mload(0x40)\n      dup1\n      swap2\n      sub\n      swap1\n      return\n        /* \"Variables y operadores/operadores.sol\":508:541  bool public menor = num_1 < num_2 */\n    tag_11:\n      tag_37\n      tag_38\n      jump\t// in\n    tag_37:\n      mload(0x40)\n      dup1\n      dup3\n      iszero\n      iszero\n      iszero\n      iszero\n      dup2\n      mstore\n      0x20\n      add\n      swap2\n      pop\n      pop\n      mload(0x40)\n      dup1\n      swap2\n      sub\n      swap1\n      return\n        /* \"Variables y operadores/operadores.sol\":262:304  uint public multiplicacion = num_1 * num_2 */\n    tag_12:\n      tag_39\n      tag_40\n      jump\t// in\n    tag_39:\n      mload(0x40)\n      dup1\n      dup3\n      dup2\n      mstore\n      0x20\n      add\n      swap2\n      pop\n      pop\n      mload(0x40)\n      dup1\n      swap2\n      sub\n      swap1\n      return\n        /* \"Variables y operadores/operadores.sol\":468:501  bool public mayor = num_1 > num_2 */\n    tag_13:\n      tag_41\n      tag_42\n      jump\t// in\n    tag_41:\n      mload(0x40)\n      dup1\n      dup3\n      iszero\n      iszero\n      iszero\n      iszero\n      dup2\n      mstore\n      0x20\n      add\n      swap2\n      pop\n      pop\n      mload(0x40)\n      dup1\n      swap2\n      sub\n      swap1\n      return\n        /* \"Variables y operadores/operadores.sol\":677:717  bool public mayor_igual = num_1 >= num_2 */\n    tag_14:\n      tag_43\n      tag_44\n      jump\t// in\n    tag_43:\n      mload(0x40)\n      dup1\n      dup3\n      iszero\n      iszero\n      iszero\n      iszero\n      dup2\n      mstore\n      0x20\n      add\n      swap2\n      pop\n      pop\n      mload(0x40)\n      dup1\n      swap2\n      sub\n      swap1\n      return\n        /* \"Variables y operadores/operadores.sol\":548:582  bool public igual = num_1 == num_2 */\n    tag_15:\n      tag_45\n      tag_46\n      jump\t// in\n    tag_45:\n      mload(0x40)\n      dup1\n      dup3\n      iszero\n      iszero\n      iszero\n      iszero\n      dup2\n      mstore\n      0x20\n      add\n      swap2\n      pop\n      pop\n      mload(0x40)\n      dup1\n      swap2\n      sub\n      swap1\n      return\n        /* \"Variables y operadores/operadores.sol\":1169:1412  function divisibilidadV2(uint _i) public pure returns(bool) {\r... */\n    tag_16:\n      tag_47\n      0x04\n      dup1\n      calldatasize\n      sub\n        /* \"--CODEGEN--\":13:15   */\n      0x20\n        /* \"--CODEGEN--\":8:11   */\n      dup2\n        /* \"--CODEGEN--\":5:16   */\n      lt\n        /* \"--CODEGEN--\":2:4   */\n      iszero\n      tag_48\n      jumpi\n        /* \"--CODEGEN--\":29:30   */\n      0x00\n        /* \"--CODEGEN--\":26:27   */\n      dup1\n        /* \"--CODEGEN--\":19:31   */\n      revert\n        /* \"--CODEGEN--\":2:4   */\n    tag_48:\n        /* \"Variables y operadores/operadores.sol\":1169:1412  function divisibilidadV2(uint _i) public pure returns(bool) {\r... */\n      dup2\n      add\n      swap1\n      dup1\n      dup1\n      calldataload\n      swap1\n      0x20\n      add\n      swap1\n      swap3\n      swap2\n      swap1\n      pop\n      pop\n      pop\n      tag_49\n      jump\t// in\n    tag_47:\n      mload(0x40)\n      dup1\n      dup3\n      iszero\n      iszero\n      iszero\n      iszero\n      dup2\n      mstore\n      0x20\n      add\n      swap2\n      pop\n      pop\n      mload(0x40)\n      dup1\n      swap2\n      sub\n      swap1\n      return\n        /* \"Variables y operadores/operadores.sol\":311:345  uint public modulo = num_1 % num_2 */\n    tag_21:\n      sload(0x06)\n      dup2\n      jump\t// out\n        /* \"Variables y operadores/operadores.sol\":219:255  uint public division = num_1 / num_2 */\n    tag_23:\n      sload(0x04)\n      dup2\n      jump\t// out\n        /* \"Variables y operadores/operadores.sol\":179:212  uint public resta = num_1 - num_2 */\n    tag_25:\n      sload(0x03)\n      dup2\n      jump\t// out\n        /* \"Variables y operadores/operadores.sol\":835:1076  function divisibilidad(uint _i) public pure returns(bool) {\r... */\n    tag_28:\n        /* \"Variables y operadores/operadores.sol\":887:891  bool */\n      0x00\n        /* \"Variables y operadores/operadores.sol\":904:921  uint ultima_cifra */\n      dup1\n        /* \"Variables y operadores/operadores.sol\":927:929  10 */\n      0x0a\n        /* \"Variables y operadores/operadores.sol\":924:926  _i */\n      dup4\n        /* \"Variables y operadores/operadores.sol\":924:929  _i%10 */\n      dup2\n      tag_51\n      jumpi\n      invalid\n    tag_51:\n      mod\n        /* \"Variables y operadores/operadores.sol\":904:929  uint ultima_cifra = _i%10 */\n      swap1\n      pop\n        /* \"Variables y operadores/operadores.sol\":962:963  0 */\n      0x00\n        /* \"Variables y operadores/operadores.sol\":946:958  ultima_cifra */\n      dup2\n        /* \"Variables y operadores/operadores.sol\":946:963  ultima_cifra == 0 */\n      eq\n        /* \"Variables y operadores/operadores.sol\":946:984  ultima_cifra == 0 || ultima_cifra == 5 */\n      dup1\n      tag_52\n      jumpi\n      pop\n        /* \"Variables y operadores/operadores.sol\":983:984  5 */\n      0x05\n        /* \"Variables y operadores/operadores.sol\":967:979  ultima_cifra */\n      dup2\n        /* \"Variables y operadores/operadores.sol\":967:984  ultima_cifra == 5 */\n      eq\n        /* \"Variables y operadores/operadores.sol\":946:984  ultima_cifra == 0 || ultima_cifra == 5 */\n    tag_52:\n        /* \"Variables y operadores/operadores.sol\":942:1069  if (ultima_cifra == 0 || ultima_cifra == 5) {\r... */\n      iszero\n      tag_53\n      jumpi\n        /* \"Variables y operadores/operadores.sol\":1008:1012  true */\n      0x01\n        /* \"Variables y operadores/operadores.sol\":1001:1012  return true */\n      swap2\n      pop\n      pop\n      jump(tag_50)\n        /* \"Variables y operadores/operadores.sol\":942:1069  if (ultima_cifra == 0 || ultima_cifra == 5) {\r... */\n    tag_53:\n        /* \"Variables y operadores/operadores.sol\":1052:1057  false */\n      0x00\n        /* \"Variables y operadores/operadores.sol\":1045:1057  return false */\n      swap2\n      pop\n      pop\n        /* \"Variables y operadores/operadores.sol\":835:1076  function divisibilidad(uint _i) public pure returns(bool) {\r... */\n    tag_50:\n      swap2\n      swap1\n      pop\n      jump\t// out\n        /* \"Variables y operadores/operadores.sol\":589:625  bool public igual_t = num_3 == num_4 */\n    tag_30:\n      0x0a\n      0x03\n      swap1\n      sload\n      swap1\n      0x0100\n      exp\n      swap1\n      div\n      0xff\n      and\n      dup2\n      jump\t// out\n        /* \"Variables y operadores/operadores.sol\":140:172  uint public suma = num_1 + num_2 */\n    tag_32:\n      sload(0x02)\n      dup2\n      jump\t// out\n        /* \"Variables y operadores/operadores.sol\":352:390  uint public exponente = num_1 ** num_2 */\n    tag_34:\n      sload(0x07)\n      dup2\n      jump\t// out\n        /* \"Variables y operadores/operadores.sol\":632:670  bool public diferente = num_1 != num_2 */\n    tag_36:\n      0x0a\n      0x04\n      swap1\n      sload\n      swap1\n      0x0100\n      exp\n      swap1\n      div\n      0xff\n      and\n      dup2\n      jump\t// out\n        /* \"Variables y operadores/operadores.sol\":508:541  bool public menor = num_1 < num_2 */\n    tag_38:\n      0x0a\n      0x01\n      swap1\n      sload\n      swap1\n      0x0100\n      exp\n      swap1\n      div\n      0xff\n      and\n      dup2\n      jump\t// out\n        /* \"Variables y operadores/operadores.sol\":262:304  uint public multiplicacion = num_1 * num_2 */\n    tag_40:\n      sload(0x05)\n      dup2\n      jump\t// out\n        /* \"Variables y operadores/operadores.sol\":468:501  bool public mayor = num_1 > num_2 */\n    tag_42:\n      0x0a\n      0x00\n      swap1\n      sload\n      swap1\n      0x0100\n      exp\n      swap1\n      div\n      0xff\n      and\n      dup2\n      jump\t// out\n        /* \"Variables y operadores/operadores.sol\":677:717  bool public mayor_igual = num_1 >= num_2 */\n    tag_44:\n      0x0a\n      0x05\n      swap1\n      sload\n      swap1\n      0x0100\n      exp\n      swap1\n      div\n      0xff\n      and\n      dup2\n      jump\t// out\n        /* \"Variables y operadores/operadores.sol\":548:582  bool public igual = num_1 == num_2 */\n    tag_46:\n      0x0a\n      0x02\n      swap1\n      sload\n      swap1\n      0x0100\n      exp\n      swap1\n      div\n      0xff\n      and\n      dup2\n      jump\t// out\n        /* \"Variables y operadores/operadores.sol\":1169:1412  function divisibilidadV2(uint _i) public pure returns(bool) {\r... */\n    tag_49:\n        /* \"Variables y operadores/operadores.sol\":1223:1227  bool */\n      0x00\n        /* \"Variables y operadores/operadores.sol\":1240:1257  uint ultima_cifra */\n      dup1\n        /* \"Variables y operadores/operadores.sol\":1263:1265  10 */\n      0x0a\n        /* \"Variables y operadores/operadores.sol\":1260:1262  _i */\n      dup4\n        /* \"Variables y operadores/operadores.sol\":1260:1265  _i%10 */\n      dup2\n      tag_56\n      jumpi\n      invalid\n    tag_56:\n      mod\n        /* \"Variables y operadores/operadores.sol\":1240:1265  uint ultima_cifra = _i%10 */\n      swap1\n      pop\n        /* \"Variables y operadores/operadores.sol\":1298:1299  0 */\n      0x00\n        /* \"Variables y operadores/operadores.sol\":1282:1294  ultima_cifra */\n      dup2\n        /* \"Variables y operadores/operadores.sol\":1282:1299  ultima_cifra != 0 */\n      eq\n      iszero\n        /* \"Variables y operadores/operadores.sol\":1282:1320  ultima_cifra != 0 && ultima_cifra != 5 */\n      dup1\n      iszero\n      tag_57\n      jumpi\n      pop\n        /* \"Variables y operadores/operadores.sol\":1319:1320  5 */\n      0x05\n        /* \"Variables y operadores/operadores.sol\":1303:1315  ultima_cifra */\n      dup2\n        /* \"Variables y operadores/operadores.sol\":1303:1320  ultima_cifra != 5 */\n      eq\n      iszero\n        /* \"Variables y operadores/operadores.sol\":1282:1320  ultima_cifra != 0 && ultima_cifra != 5 */\n    tag_57:\n        /* \"Variables y operadores/operadores.sol\":1278:1405  if (ultima_cifra != 0 && ultima_cifra != 5) {\r... */\n      iszero\n      tag_58\n      jumpi\n        /* \"Variables y operadores/operadores.sol\":1344:1348  true */\n      0x01\n        /* \"Variables y operadores/operadores.sol\":1337:1348  return true */\n      swap2\n      pop\n      pop\n      jump(tag_55)\n        /* \"Variables y operadores/operadores.sol\":1278:1405  if (ultima_cifra != 0 && ultima_cifra != 5) {\r... */\n    tag_58:\n        /* \"Variables y operadores/operadores.sol\":1388:1393  false */\n      0x00\n        /* \"Variables y operadores/operadores.sol\":1381:1393  return false */\n      swap2\n      pop\n      pop\n        /* \"Variables y operadores/operadores.sol\":1169:1412  function divisibilidadV2(uint _i) public pure returns(bool) {\r... */\n    tag_55:\n      swap2\n      swap1\n      pop\n      jump\t// out\n\n    auxdata: 0xa26469706673582212205aed46bc08c10364e01000a8f458766a526a204998d9499b964ac84d93c20d6364736f6c63430006000033\n}\n",
				"bytecode": {
					"linkReferences": {},
					"object": "60806040526020600055600460015560015460005401600255600154600054036003556001546000548161002f57fe5b04600455600154600054026005556001546000548161004a57fe5b066006556001546000540a6007556003600855600360095560015460005411600a60006101000a81548160ff02191690831515021790555060015460005410600a60016101000a81548160ff02191690831515021790555060015460005414600a60026101000a81548160ff02191690831515021790555060095460085414600a60036101000a81548160ff0219169083151502179055506001546000541415600a60046101000a81548160ff0219169083151502179055506001546000541015600a60056101000a81548160ff02191690831515021790555034801561013057600080fd5b5061043c806101406000396000f3fe608060405234801561001057600080fd5b50600436106100ea5760003560e01c80639a441df91161008c578063cf7ff13311610066578063cf7ff1331461024f578063d9eb62f114610271578063dfdbfd3414610293578063fa75054e146102b5576100ea565b80639a441df9146101ed5780639ffe16661461020f578063c76218e614610231576100ea565b806355079601116100c8578063550796011461014957806368aac98d1461018f5780637e7d8ec6146101b1578063800c2a0e146101cf576100ea565b806329745262146100ef5780633205f5fc1461010d5780633475a3ed1461012b575b600080fd5b6100f76102fb565b6040518082815260200191505060405180910390f35b610115610301565b6040518082815260200191505060405180910390f35b610133610307565b6040518082815260200191505060405180910390f35b6101756004803603602081101561015f57600080fd5b810190808035906020019092919050505061030d565b604051808215151515815260200191505060405180910390f35b610197610346565b604051808215151515815260200191505060405180910390f35b6101b9610359565b6040518082815260200191505060405180910390f35b6101d761035f565b6040518082815260200191505060405180910390f35b6101f5610365565b604051808215151515815260200191505060405180910390f35b610217610378565b604051808215151515815260200191505060405180910390f35b61023961038b565b6040518082815260200191505060405180910390f35b610257610391565b604051808215151515815260200191505060405180910390f35b6102796103a4565b604051808215151515815260200191505060405180910390f35b61029b6103b7565b604051808215151515815260200191505060405180910390f35b6102e1600480360360208110156102cb57600080fd5b81019080803590602001909291905050506103ca565b604051808215151515815260200191505060405180910390f35b60065481565b60045481565b60035481565b600080600a838161031a57fe5b069050600081148061032c5750600581145b1561033b576001915050610341565b60009150505b919050565b600a60039054906101000a900460ff1681565b60025481565b60075481565b600a60049054906101000a900460ff1681565b600a60019054906101000a900460ff1681565b60055481565b600a60009054906101000a900460ff1681565b600a60059054906101000a900460ff1681565b600a60029054906101000a900460ff1681565b600080600a83816103d757fe5b069050600081141580156103ec575060058114155b156103fb576001915050610401565b60009150505b91905056fea26469706673582212205aed46bc08c10364e01000a8f458766a526a204998d9499b964ac84d93c20d6364736f6c63430006000033",
					"opcodes": "PUSH1 0x80 PUSH1 0x40 MSTORE PUSH1 0x20 PUSH1 0x0 SSTORE PUSH1 0x4 PUSH1 0x1 SSTORE PUSH1 0x1 SLOAD PUSH1 0x0 SLOAD ADD PUSH1 0x2 SSTORE PUSH1 0x1 SLOAD PUSH1 0x0 SLOAD SUB PUSH1 0x3 SSTORE PUSH1 0x1 SLOAD PUSH1 0x0 SLOAD DUP2 PUSH2 0x2F JUMPI INVALID JUMPDEST DIV PUSH1 0x4 SSTORE PUSH1 0x1 SLOAD PUSH1 0x0 SLOAD MUL PUSH1 0x5 SSTORE PUSH1 0x1 SLOAD PUSH1 0x0 SLOAD DUP2 PUSH2 0x4A JUMPI INVALID JUMPDEST MOD PUSH1 0x6 SSTORE PUSH1 0x1 SLOAD PUSH1 0x0 SLOAD EXP PUSH1 0x7 SSTORE PUSH1 0x3 PUSH1 0x8 SSTORE PUSH1 0x3 PUSH1 0x9 SSTORE PUSH1 0x1 SLOAD PUSH1 0x0 SLOAD GT PUSH1 0xA PUSH1 0x0 PUSH2 0x100 EXP DUP2 SLOAD DUP2 PUSH1 0xFF MUL NOT AND SWAP1 DUP4 ISZERO ISZERO MUL OR SWAP1 SSTORE POP PUSH1 0x1 SLOAD PUSH1 0x0 SLOAD LT PUSH1 0xA PUSH1 0x1 PUSH2 0x100 EXP DUP2 SLOAD DUP2 PUSH1 0xFF MUL NOT AND SWAP1 DUP4 ISZERO ISZERO MUL OR SWAP1 SSTORE POP PUSH1 0x1 SLOAD PUSH1 0x0 SLOAD EQ PUSH1 0xA PUSH1 0x2 PUSH2 0x100 EXP DUP2 SLOAD DUP2 PUSH1 0xFF MUL NOT AND SWAP1 DUP4 ISZERO ISZERO MUL OR SWAP1 SSTORE POP PUSH1 0x9 SLOAD PUSH1 0x8 SLOAD EQ PUSH1 0xA PUSH1 0x3 PUSH2 0x100 EXP DUP2 SLOAD DUP2 PUSH1 0xFF MUL NOT AND SWAP1 DUP4 ISZERO ISZERO MUL OR SWAP1 SSTORE POP PUSH1 0x1 SLOAD PUSH1 0x0 SLOAD EQ ISZERO PUSH1 0xA PUSH1 0x4 PUSH2 0x100 EXP DUP2 SLOAD DUP2 PUSH1 0xFF MUL NOT AND SWAP1 DUP4 ISZERO ISZERO MUL OR SWAP1 SSTORE POP PUSH1 0x1 SLOAD PUSH1 0x0 SLOAD LT ISZERO PUSH1 0xA PUSH1 0x5 PUSH2 0x100 EXP DUP2 SLOAD DUP2 PUSH1 0xFF MUL NOT AND SWAP1 DUP4 ISZERO ISZERO MUL OR SWAP1 SSTORE POP CALLVALUE DUP1 ISZERO PUSH2 0x130 JUMPI PUSH1 0x0 DUP1 REVERT JUMPDEST POP PUSH2 0x43C DUP1 PUSH2 0x140 PUSH1 0x0 CODECOPY PUSH1 0x0 RETURN INVALID PUSH1 0x80 PUSH1 0x40 MSTORE CALLVALUE DUP1 ISZERO PUSH2 0x10 JUMPI PUSH1 0x0 DUP1 REVERT JUMPDEST POP PUSH1 0x4 CALLDATASIZE LT PUSH2 0xEA JUMPI PUSH1 0x0 CALLDATALOAD PUSH1 0xE0 SHR DUP1 PUSH4 0x9A441DF9 GT PUSH2 0x8C JUMPI DUP1 PUSH4 0xCF7FF133 GT PUSH2 0x66 JUMPI DUP1 PUSH4 0xCF7FF133 EQ PUSH2 0x24F JUMPI DUP1 PUSH4 0xD9EB62F1 EQ PUSH2 0x271 JUMPI DUP1 PUSH4 0xDFDBFD34 EQ PUSH2 0x293 JUMPI DUP1 PUSH4 0xFA75054E EQ PUSH2 0x2B5 JUMPI PUSH2 0xEA JUMP JUMPDEST DUP1 PUSH4 0x9A441DF9 EQ PUSH2 0x1ED JUMPI DUP1 PUSH4 0x9FFE1666 EQ PUSH2 0x20F JUMPI DUP1 PUSH4 0xC76218E6 EQ PUSH2 0x231 JUMPI PUSH2 0xEA JUMP JUMPDEST DUP1 PUSH4 0x55079601 GT PUSH2 0xC8 JUMPI DUP1 PUSH4 0x55079601 EQ PUSH2 0x149 JUMPI DUP1 PUSH4 0x68AAC98D EQ PUSH2 0x18F JUMPI DUP1 PUSH4 0x7E7D8EC6 EQ PUSH2 0x1B1 JUMPI DUP1 PUSH4 0x800C2A0E EQ PUSH2 0x1CF JUMPI PUSH2 0xEA JUMP JUMPDEST DUP1 PUSH4 0x29745262 EQ PUSH2 0xEF JUMPI DUP1 PUSH4 0x3205F5FC EQ PUSH2 0x10D JUMPI DUP1 PUSH4 0x3475A3ED EQ PUSH2 0x12B JUMPI JUMPDEST PUSH1 0x0 DUP1 REVERT JUMPDEST PUSH2 0xF7 PUSH2 0x2FB JUMP JUMPDEST PUSH1 0x40 MLOAD DUP1 DUP3 DUP2 MSTORE PUSH1 0x20 ADD SWAP2 POP POP PUSH1 0x40 MLOAD DUP1 SWAP2 SUB SWAP1 RETURN JUMPDEST PUSH2 0x115 PUSH2 0x301 JUMP JUMPDEST PUSH1 0x40 MLOAD DUP1 DUP3 DUP2 MSTORE PUSH1 0x20 ADD SWAP2 POP POP PUSH1 0x40 MLOAD DUP1 SWAP2 SUB SWAP1 RETURN JUMPDEST PUSH2 0x133 PUSH2 0x307 JUMP JUMPDEST PUSH1 0x40 MLOAD DUP1 DUP3 DUP2 MSTORE PUSH1 0x20 ADD SWAP2 POP POP PUSH1 0x40 MLOAD DUP1 SWAP2 SUB SWAP1 RETURN JUMPDEST PUSH2 0x175 PUSH1 0x4 DUP1 CALLDATASIZE SUB PUSH1 0x20 DUP2 LT ISZERO PUSH2 0x15F JUMPI PUSH1 0x0 DUP1 REVERT JUMPDEST DUP2 ADD SWAP1 DUP1 DUP1 CALLDATALOAD SWAP1 PUSH1 0x20 ADD SWAP1 SWAP3 SWAP2 SWAP1 POP POP POP PUSH2 0x30D JUMP JUMPDEST PUSH1 0x40 MLOAD DUP1 DUP3 ISZERO ISZERO ISZERO ISZERO DUP2 MSTORE PUSH1 0x20 ADD SWAP2 POP POP PUSH1 0x40 MLOAD DUP1 SWAP2 SUB SWAP1 RETURN JUMPDEST PUSH2 0x197 PUSH2 0x346 JUMP JUMPDEST PUSH1 0x40 MLOAD DUP1 DUP3 ISZERO ISZERO ISZERO ISZERO DUP2 MSTORE PUSH1 0x20 ADD SWAP2 POP POP PUSH1 0x40 MLOAD DUP1 SWAP2 SUB SWAP1 RETURN JUMPDEST PUSH2 0x1B9 PUSH2 0x359 JUMP JUMPDEST PUSH1 0x40 MLOAD DUP1 DUP3 DUP2 MSTORE PUSH1 0x20 ADD SWAP2 POP POP PUSH1 0x40 MLOAD DUP1 SWAP2 SUB SWAP1 RETURN JUMPDEST PUSH2 0x1D7 PUSH2 0x35F JUMP JUMPDEST PUSH1 0x40 MLOAD DUP1 DUP3 DUP2 MSTORE PUSH1 0x20 ADD SWAP2 POP POP PUSH1 0x40 MLOAD DUP1 SWAP2 SUB SWAP1 RETURN JUMPDEST PUSH2 0x1F5 PUSH2 0x365 JUMP JUMPDEST PUSH1 0x40 MLOAD DUP1 DUP3 ISZERO ISZERO ISZERO ISZERO DUP2 MSTORE PUSH1 0x20 ADD SWAP2 POP POP PUSH1 0x40 MLOAD DUP1 SWAP2 SUB SWAP1 RETURN JUMPDEST PUSH2 0x217 PUSH2 0x378 JUMP JUMPDEST PUSH1 0x40 MLOAD DUP1 DUP3 ISZERO ISZERO ISZERO ISZERO DUP2 MSTORE PUSH1 0x20 ADD SWAP2 POP POP PUSH1 0x40 MLOAD DUP1 SWAP2 SUB SWAP1 RETURN JUMPDEST PUSH2 0x239 PUSH2 0x38B JUMP JUMPDEST PUSH1 0x40 MLOAD DUP1 DUP3 DUP2 MSTORE PUSH1 0x20 ADD SWAP2 POP POP PUSH1 0x40 MLOAD DUP1 SWAP2 SUB SWAP1 RETURN JUMPDEST PUSH2 0x257 PUSH2 0x391 JUMP JUMPDEST PUSH1 0x40 MLOAD DUP1 DUP3 ISZERO ISZERO ISZERO ISZERO DUP2 MSTORE PUSH1 0x20 ADD SWAP2 POP POP PUSH1 0x40 MLOAD DUP1 SWAP2 SUB SWAP1 RETURN JUMPDEST PUSH2 0x279 PUSH2 0x3A4 JUMP JUMPDEST PUSH1 0x40 MLOAD DUP1 DUP3 ISZERO ISZERO ISZERO ISZERO DUP2 MSTORE PUSH1 0x20 ADD SWAP2 POP POP PUSH1 0x40 MLOAD DUP1 SWAP2 SUB SWAP1 RETURN JUMPDEST PUSH2 0x29B PUSH2 0x3B7 JUMP JUMPDEST PUSH1 0x40 MLOAD DUP1 DUP3 ISZERO ISZERO ISZERO ISZERO DUP2 MSTORE PUSH1 0x20 ADD SWAP2 POP POP PUSH1 0x40 MLOAD DUP1 SWAP2 SUB SWAP1 RETURN JUMPDEST PUSH2 0x2E1 PUSH1 0x4 DUP1 CALLDATASIZE SUB PUSH1 0x20 DUP2 LT ISZERO PUSH2 0x2CB JUMPI PUSH1 0x0 DUP1 REVERT JUMPDEST DUP2 ADD SWAP1 DUP1 DUP1 CALLDATALOAD SWAP1 PUSH1 0x20 ADD SWAP1 SWAP3 SWAP2 SWAP1 POP POP POP PUSH2 0x3CA JUMP JUMPDEST PUSH1 0x40 MLOAD DUP1 DUP3 ISZERO ISZERO ISZERO ISZERO DUP2 MSTORE PUSH1 0x20 ADD SWAP2 POP POP PUSH1 0x40 MLOAD DUP1 SWAP2 SUB SWAP1 RETURN JUMPDEST PUSH1 0x6 SLOAD DUP2 JUMP JUMPDEST PUSH1 0x4 SLOAD DUP2 JUMP JUMPDEST PUSH1 0x3 SLOAD DUP2 JUMP JUMPDEST PUSH1 0x0 DUP1 PUSH1 0xA DUP4 DUP2 PUSH2 0x31A JUMPI INVALID JUMPDEST MOD SWAP1 POP PUSH1 0x0 DUP2 EQ DUP1 PUSH2 0x32C JUMPI POP PUSH1 0x5 DUP2 EQ JUMPDEST ISZERO PUSH2 0x33B JUMPI PUSH1 0x1 SWAP2 POP POP PUSH2 0x341 JUMP JUMPDEST PUSH1 0x0 SWAP2 POP POP JUMPDEST SWAP2 SWAP1 POP JUMP JUMPDEST PUSH1 0xA PUSH1 0x3 SWAP1 SLOAD SWAP1 PUSH2 0x100 EXP SWAP1 DIV PUSH1 0xFF AND DUP2 JUMP JUMPDEST PUSH1 0x2 SLOAD DUP2 JUMP JUMPDEST PUSH1 0x7 SLOAD DUP2 JUMP JUMPDEST PUSH1 0xA PUSH1 0x4 SWAP1 SLOAD SWAP1 PUSH2 0x100 EXP SWAP1 DIV PUSH1 0xFF AND DUP2 JUMP JUMPDEST PUSH1 0xA PUSH1 0x1 SWAP1 SLOAD SWAP1 PUSH2 0x100 EXP SWAP1 DIV PUSH1 0xFF AND DUP2 JUMP JUMPDEST PUSH1 0x5 SLOAD DUP2 JUMP JUMPDEST PUSH1 0xA PUSH1 0x0 SWAP1 SLOAD SWAP1 PUSH2 0x100 EXP SWAP1 DIV PUSH1 0xFF AND DUP2 JUMP JUMPDEST PUSH1 0xA PUSH1 0x5 SWAP1 SLOAD SWAP1 PUSH2 0x100 EXP SWAP1 DIV PUSH1 0xFF AND DUP2 JUMP JUMPDEST PUSH1 0xA PUSH1 0x2 SWAP1 SLOAD SWAP1 PUSH2 0x100 EXP SWAP1 DIV PUSH1 0xFF AND DUP2 JUMP JUMPDEST PUSH1 0x0 DUP1 PUSH1 0xA DUP4 DUP2 PUSH2 0x3D7 JUMPI INVALID JUMPDEST MOD SWAP1 POP PUSH1 0x0 DUP2 EQ ISZERO DUP1 ISZERO PUSH2 0x3EC JUMPI POP PUSH1 0x5 DUP2 EQ ISZERO JUMPDEST ISZERO PUSH2 0x3FB JUMPI PUSH1 0x1 SWAP2 POP POP PUSH2 0x401 JUMP JUMPDEST PUSH1 0x0 SWAP2 POP POP JUMPDEST SWAP2 SWAP1 POP JUMP INVALID LOG2 PUSH5 0x6970667358 0x22 SLT KECCAK256 GAS 0xED CHAINID 0xBC ADDMOD 0xC1 SUB PUSH5 0xE01000A8F4 PC PUSH23 0x6A526A204998D9499B964AC84D93C20D6364736F6C6343 STOP MOD STOP STOP CALLER "
				},
				"gasEstimates": {
					"creation": {
						"codeDepositCost": "216800",
						"executionCost": "330144",
						"totalCost": "546944"
					},
					"external": {
						"diferente()": "1126",
						"divisibilidad(uint256)": "438",
						"divisibilidadV2(uint256)": "512",
						"division()": "1051",
						"exponente()": "1094",
						"igual()": "1169",
						"igual_t()": "1148",
						"mayor()": "1075",
						"mayor_igual()": "1147",
						"menor()": "1148",
						"modulo()": "1029",
						"multiplicacion()": "1072",
						"resta()": "1073",
						"suma()": "1072"
					}
				},
				"methodIdentifiers": {
					"diferente()": "9a441df9",
					"divisibilidad(uint256)": "55079601",
					"divisibilidadV2(uint256)": "fa75054e",
					"division()": "3205f5fc",
					"exponente()": "800c2a0e",
					"igual()": "dfdbfd34",
					"igual_t()": "68aac98d",
					"mayor()": "cf7ff133",
					"mayor_igual()": "d9eb62f1",
					"menor()": "9ffe1666",
					"modulo()": "29745262",
					"multiplicacion()": "c76218e6",
					"resta()": "3475a3ed",
					"suma()": "7e7d8ec6"
				}
			},
			"storageLayout": {
				"storage": [
					{
						"astId": 4,
						"contract": "Variables y operadores/operadores.sol:operadores",
						"label": "num_1",
						"offset": 0,
						"slot": "0",
						"type": "t_uint256"
					},
					{
						"astId": 7,
						"contract": "Variables y operadores/operadores.sol:operadores",
						"label": "num_2",
						"offset": 0,
						"slot": "1",
						"type": "t_uint256"
					},
					{
						"astId": 12,
						"contract": "Variables y operadores/operadores.sol:operadores",
						"label": "suma",
						"offset": 0,
						"slot": "2",
						"type": "t_uint256"
					},
					{
						"astId": 17,
						"contract": "Variables y operadores/operadores.sol:operadores",
						"label": "resta",
						"offset": 0,
						"slot": "3",
						"type": "t_uint256"
					},
					{
						"astId": 22,
						"contract": "Variables y operadores/operadores.sol:operadores",
						"label": "division",
						"offset": 0,
						"slot": "4",
						"type": "t_uint256"
					},
					{
						"astId": 27,
						"contract": "Variables y operadores/operadores.sol:operadores",
						"label": "multiplicacion",
						"offset": 0,
						"slot": "5",
						"type": "t_uint256"
					},
					{
						"astId": 32,
						"contract": "Variables y operadores/operadores.sol:operadores",
						"label": "modulo",
						"offset": 0,
						"slot": "6",
						"type": "t_uint256"
					},
					{
						"astId": 37,
						"contract": "Variables y operadores/operadores.sol:operadores",
						"label": "exponente",
						"offset": 0,
						"slot": "7",
						"type": "t_uint256"
					},
					{
						"astId": 40,
						"contract": "Variables y operadores/operadores.sol:operadores",
						"label": "num_3",
						"offset": 0,
						"slot": "8",
						"type": "t_uint256"
					},
					{
						"astId": 43,
						"contract": "Variables y operadores/operadores.sol:operadores",
						"label": "num_4",
						"offset": 0,
						"slot": "9",
						"type": "t_uint256"
					},
					{
						"astId": 48,
						"contract": "Variables y operadores/operadores.sol:operadores",
						"label": "mayor",
						"offset": 0,
						"slot": "10",
						"type": "t_bool"
					},
					{
						"astId": 53,
						"contract": "Variables y operadores/operadores.sol:operadores",
						"label": "menor",
						"offset": 1,
						"slot": "10",
						"type": "t_bool"
					},
					{
						"astId": 58,
						"contract": "Variables y operadores/operadores.sol:operadores",
						"label": "igual",
						"offset": 2,
						"slot": "10",
						"type": "t_bool"
					},
					{
						"astId": 63,
						"contract": "Variables y operadores/operadores.sol:operadores",
						"label": "igual_t",
						"offset": 3,
						"slot": "10",
						"type": "t_bool"
					},
					{
						"astId": 68,
						"contract": "Variables y operadores/operadores.sol:operadores",
						"label": "diferente",
						"offset": 4,
						"slot": "10",
						"type": "t_bool"
					},
					{
						"astId": 73,
						"contract": "Variables y operadores/operadores.sol:operadores",
						"label": "mayor_igual",
						"offset": 5,
						"slot": "10",
						"type": "t_bool"
					}
				],
				"types": {
					"t_bool": {
						"encoding": "inplace",
						"label": "bool",
						"numberOfBytes": "1"
					},
					"t_uint256": {
						"encoding": "inplace",
						"label": "uint256",
						"numberOfBytes": "32"
					}
				}
			},
			"userdoc": {
				"methods": {}
			}
		}
	}
}