{
	"Variables y operadores/enumeraciones.sol": {
		"Ejemplos_enumeraciones": {
			"abi": [
				{
					"inputs": [],
					"name": "Direcciones",
					"outputs": [
						{
							"internalType": "enum Ejemplos_enumeraciones.direcciones",
							"name": "",
							"type": "uint8"
						}
					],
					"stateMutability": "view",
					"type": "function"
				},
				{
					"inputs": [],
					"name": "Estado",
					"outputs": [
						{
							"internalType": "enum Ejemplos_enumeraciones.estado",
							"name": "",
							"type": "uint8"
						}
					],
					"stateMutability": "view",
					"type": "function"
				},
				{
					"inputs": [],
					"name": "abajo",
					"outputs": [],
					"stateMutability": "nonpayable",
					"type": "function"
				},
				{
					"inputs": [],
					"name": "arriba",
					"outputs": [],
					"stateMutability": "nonpayable",
					"type": "function"
				},
				{
					"inputs": [],
					"name": "derecha",
					"outputs": [],
					"stateMutability": "nonpayable",
					"type": "function"
				},
				{
					"inputs": [],
					"name": "encender",
					"outputs": [],
					"stateMutability": "nonpayable",
					"type": "function"
				},
				{
					"inputs": [
						{
							"internalType": "uint256",
							"name": "_k",
							"type": "uint256"
						}
					],
					"name": "fijarDirecciones",
					"outputs": [],
					"stateMutability": "nonpayable",
					"type": "function"
				},
				{
					"inputs": [
						{
							"internalType": "uint256",
							"name": "_k",
							"type": "uint256"
						}
					],
					"name": "fijarEstado",
					"outputs": [],
					"stateMutability": "nonpayable",
					"type": "function"
				},
				{
					"inputs": [],
					"name": "izquierda",
					"outputs": [],
					"stateMutability": "nonpayable",
					"type": "function"
				}
			],
			"devdoc": {
				"methods": {}
			},
			"evm": {
				"assembly": "    /* \"Variables y operadores/enumeraciones.sol\":35:1097  contract Ejemplos_enumeraciones {\r... */\n  mstore(0x40, 0x80)\n    /* \"Variables y operadores/enumeraciones.sol\":546:564  direcciones.ARRIBA */\n  0x00\n    /* \"Variables y operadores/enumeraciones.sol\":522:564  direcciones direccion = direcciones.ARRIBA */\n  dup1\n  exp(0x0100, 0x01)\n  dup2\n  sload\n  dup2\n  0xff\n  mul\n  not\n  and\n  swap1\n  dup4\n  0x03\n  dup2\n  gt\n  iszero\n  tag_1\n  jumpi\n  invalid\ntag_1:\n  mul\n  or\n  swap1\n  sstore\n  pop\n    /* \"Variables y operadores/enumeraciones.sol\":35:1097  contract Ejemplos_enumeraciones {\r... */\n  callvalue\n    /* \"--CODEGEN--\":8:17   */\n  dup1\n    /* \"--CODEGEN--\":5:7   */\n  iszero\n  tag_2\n  jumpi\n    /* \"--CODEGEN--\":30:31   */\n  0x00\n    /* \"--CODEGEN--\":27:28   */\n  dup1\n    /* \"--CODEGEN--\":20:32   */\n  revert\n    /* \"--CODEGEN--\":5:7   */\ntag_2:\n    /* \"Variables y operadores/enumeraciones.sol\":35:1097  contract Ejemplos_enumeraciones {\r... */\n  pop\n  dataSize(sub_0)\n  dup1\n  dataOffset(sub_0)\n  0x00\n  codecopy\n  0x00\n  return\nstop\n\nsub_0: assembly {\n        /* \"Variables y operadores/enumeraciones.sol\":35:1097  contract Ejemplos_enumeraciones {\r... */\n      mstore(0x40, 0x80)\n      callvalue\n        /* \"--CODEGEN--\":8:17   */\n      dup1\n        /* \"--CODEGEN--\":5:7   */\n      iszero\n      tag_1\n      jumpi\n        /* \"--CODEGEN--\":30:31   */\n      0x00\n        /* \"--CODEGEN--\":27:28   */\n      dup1\n        /* \"--CODEGEN--\":20:32   */\n      revert\n        /* \"--CODEGEN--\":5:7   */\n    tag_1:\n        /* \"Variables y operadores/enumeraciones.sol\":35:1097  contract Ejemplos_enumeraciones {\r... */\n      pop\n      jumpi(tag_2, lt(calldatasize, 0x04))\n      shr(0xe0, calldataload(0x00))\n      dup1\n      0xb46e8d1a\n      gt\n      tag_12\n      jumpi\n      dup1\n      0xb46e8d1a\n      eq\n      tag_7\n      jumpi\n      dup1\n      0xdaf4343f\n      eq\n      tag_8\n      jumpi\n      dup1\n      0xe0be4a2e\n      eq\n      tag_9\n      jumpi\n      dup1\n      0xe7260f9a\n      eq\n      tag_10\n      jumpi\n      dup1\n      0xe9073c33\n      eq\n      tag_11\n      jumpi\n      jump(tag_2)\n    tag_12:\n      dup1\n      0x39feafa3\n      eq\n      tag_3\n      jumpi\n      dup1\n      0x8a60839f\n      eq\n      tag_4\n      jumpi\n      dup1\n      0x943fad7f\n      eq\n      tag_5\n      jumpi\n      dup1\n      0xb1e92247\n      eq\n      tag_6\n      jumpi\n    tag_2:\n      0x00\n      dup1\n      revert\n        /* \"Variables y operadores/enumeraciones.sol\":1003:1094  function Direcciones() public view returns(direcciones) {\r... */\n    tag_3:\n      tag_13\n      tag_14\n      jump\t// in\n    tag_13:\n      mload(0x40)\n      dup1\n      dup3\n      0x03\n      dup2\n      gt\n      iszero\n      tag_15\n      jumpi\n      invalid\n    tag_15:\n      0xff\n      and\n      dup2\n      mstore\n      0x20\n      add\n      swap2\n      pop\n      pop\n      mload(0x40)\n      dup1\n      swap2\n      sub\n      swap1\n      return\n        /* \"Variables y operadores/enumeraciones.sol\":735:811  function derecha() public {\r... */\n    tag_4:\n      tag_16\n      tag_17\n      jump\t// in\n    tag_16:\n      stop\n        /* \"Variables y operadores/enumeraciones.sol\":819:899  function izquierda() public {\r... */\n    tag_5:\n      tag_18\n      tag_19\n      jump\t// in\n    tag_18:\n      stop\n        /* \"Variables y operadores/enumeraciones.sol\":907:995  function fijarDirecciones(uint _k) public {\r... */\n    tag_6:\n      tag_20\n      0x04\n      dup1\n      calldatasize\n      sub\n        /* \"--CODEGEN--\":13:15   */\n      0x20\n        /* \"--CODEGEN--\":8:11   */\n      dup2\n        /* \"--CODEGEN--\":5:16   */\n      lt\n        /* \"--CODEGEN--\":2:4   */\n      iszero\n      tag_21\n      jumpi\n        /* \"--CODEGEN--\":29:30   */\n      0x00\n        /* \"--CODEGEN--\":26:27   */\n      dup1\n        /* \"--CODEGEN--\":19:31   */\n      revert\n        /* \"--CODEGEN--\":2:4   */\n    tag_21:\n        /* \"Variables y operadores/enumeraciones.sol\":907:995  function fijarDirecciones(uint _k) public {\r... */\n      dup2\n      add\n      swap1\n      dup1\n      dup1\n      calldataload\n      swap1\n      0x20\n      add\n      swap1\n      swap3\n      swap2\n      swap1\n      pop\n      pop\n      pop\n      tag_22\n      jump\t// in\n    tag_20:\n      stop\n        /* \"Variables y operadores/enumeraciones.sol\":342:419  function Estado() public view returns(estado) {\r... */\n    tag_7:\n      tag_23\n      tag_24\n      jump\t// in\n    tag_23:\n      mload(0x40)\n      dup1\n      dup3\n      0x01\n      dup2\n      gt\n      iszero\n      tag_25\n      jumpi\n      invalid\n    tag_25:\n      0xff\n      and\n      dup2\n      mstore\n      0x20\n      add\n      swap2\n      pop\n      pop\n      mload(0x40)\n      dup1\n      swap2\n      sub\n      swap1\n      return\n        /* \"Variables y operadores/enumeraciones.sol\":655:727  function abajo() public {\r... */\n    tag_8:\n      tag_26\n      tag_27\n      jump\t// in\n    tag_26:\n      stop\n        /* \"Variables y operadores/enumeraciones.sol\":260:334  function fijarEstado(uint _k) public {\r... */\n    tag_9:\n      tag_28\n      0x04\n      dup1\n      calldatasize\n      sub\n        /* \"--CODEGEN--\":13:15   */\n      0x20\n        /* \"--CODEGEN--\":8:11   */\n      dup2\n        /* \"--CODEGEN--\":5:16   */\n      lt\n        /* \"--CODEGEN--\":2:4   */\n      iszero\n      tag_29\n      jumpi\n        /* \"--CODEGEN--\":29:30   */\n      0x00\n        /* \"--CODEGEN--\":26:27   */\n      dup1\n        /* \"--CODEGEN--\":19:31   */\n      revert\n        /* \"--CODEGEN--\":2:4   */\n    tag_29:\n        /* \"Variables y operadores/enumeraciones.sol\":260:334  function fijarEstado(uint _k) public {\r... */\n      dup2\n      add\n      swap1\n      dup1\n      dup1\n      calldataload\n      swap1\n      0x20\n      add\n      swap1\n      swap3\n      swap2\n      swap1\n      pop\n      pop\n      pop\n      tag_30\n      jump\t// in\n    tag_28:\n      stop\n        /* \"Variables y operadores/enumeraciones.sol\":573:647  function arriba() public {\r... */\n    tag_10:\n      tag_31\n      tag_32\n      jump\t// in\n    tag_31:\n      stop\n        /* \"Variables y operadores/enumeraciones.sol\":189:252  function encender() public {\r... */\n    tag_11:\n      tag_33\n      tag_34\n      jump\t// in\n    tag_33:\n      stop\n        /* \"Variables y operadores/enumeraciones.sol\":1003:1094  function Direcciones() public view returns(direcciones) {\r... */\n    tag_14:\n        /* \"Variables y operadores/enumeraciones.sol\":1046:1057  direcciones */\n      0x00\n        /* \"Variables y operadores/enumeraciones.sol\":1077:1086  direccion */\n      dup1\n      0x01\n      swap1\n      sload\n      swap1\n      0x0100\n      exp\n      swap1\n      div\n      0xff\n      and\n        /* \"Variables y operadores/enumeraciones.sol\":1070:1086  return direccion */\n      swap1\n      pop\n        /* \"Variables y operadores/enumeraciones.sol\":1003:1094  function Direcciones() public view returns(direcciones) {\r... */\n      swap1\n      jump\t// out\n        /* \"Variables y operadores/enumeraciones.sol\":735:811  function derecha() public {\r... */\n    tag_17:\n        /* \"Variables y operadores/enumeraciones.sol\":784:803  direcciones.DERECHA */\n      0x02\n        /* \"Variables y operadores/enumeraciones.sol\":772:781  direccion */\n      0x00\n      0x01\n        /* \"Variables y operadores/enumeraciones.sol\":772:803  direccion = direcciones.DERECHA */\n      0x0100\n      exp\n      dup2\n      sload\n      dup2\n      0xff\n      mul\n      not\n      and\n      swap1\n      dup4\n      0x03\n      dup2\n      gt\n      iszero\n      tag_37\n      jumpi\n      invalid\n    tag_37:\n      mul\n      or\n      swap1\n      sstore\n      pop\n        /* \"Variables y operadores/enumeraciones.sol\":735:811  function derecha() public {\r... */\n      jump\t// out\n        /* \"Variables y operadores/enumeraciones.sol\":819:899  function izquierda() public {\r... */\n    tag_19:\n        /* \"Variables y operadores/enumeraciones.sol\":870:891  direcciones.IZQUIERDA */\n      0x03\n        /* \"Variables y operadores/enumeraciones.sol\":858:867  direccion */\n      0x00\n      0x01\n        /* \"Variables y operadores/enumeraciones.sol\":858:891  direccion = direcciones.IZQUIERDA */\n      0x0100\n      exp\n      dup2\n      sload\n      dup2\n      0xff\n      mul\n      not\n      and\n      swap1\n      dup4\n      0x03\n      dup2\n      gt\n      iszero\n      tag_39\n      jumpi\n      invalid\n    tag_39:\n      mul\n      or\n      swap1\n      sstore\n      pop\n        /* \"Variables y operadores/enumeraciones.sol\":819:899  function izquierda() public {\r... */\n      jump\t// out\n        /* \"Variables y operadores/enumeraciones.sol\":907:995  function fijarDirecciones(uint _k) public {\r... */\n    tag_22:\n        /* \"Variables y operadores/enumeraciones.sol\":984:986  _k */\n      dup1\n        /* \"Variables y operadores/enumeraciones.sol\":972:987  direcciones(_k) */\n      0x03\n      dup2\n      gt\n      iszero\n      tag_41\n      jumpi\n      invalid\n    tag_41:\n        /* \"Variables y operadores/enumeraciones.sol\":960:969  direccion */\n      0x00\n      0x01\n        /* \"Variables y operadores/enumeraciones.sol\":960:987  direccion = direcciones(_k) */\n      0x0100\n      exp\n      dup2\n      sload\n      dup2\n      0xff\n      mul\n      not\n      and\n      swap1\n      dup4\n      0x03\n      dup2\n      gt\n      iszero\n      tag_42\n      jumpi\n      invalid\n    tag_42:\n      mul\n      or\n      swap1\n      sstore\n      pop\n        /* \"Variables y operadores/enumeraciones.sol\":907:995  function fijarDirecciones(uint _k) public {\r... */\n      pop\n      jump\t// out\n        /* \"Variables y operadores/enumeraciones.sol\":342:419  function Estado() public view returns(estado) {\r... */\n    tag_24:\n        /* \"Variables y operadores/enumeraciones.sol\":380:386  estado */\n      0x00\n        /* \"Variables y operadores/enumeraciones.sol\":406:411  state */\n      dup1\n      0x00\n      swap1\n      sload\n      swap1\n      0x0100\n      exp\n      swap1\n      div\n      0xff\n      and\n        /* \"Variables y operadores/enumeraciones.sol\":399:411  return state */\n      swap1\n      pop\n        /* \"Variables y operadores/enumeraciones.sol\":342:419  function Estado() public view returns(estado) {\r... */\n      swap1\n      jump\t// out\n        /* \"Variables y operadores/enumeraciones.sol\":655:727  function abajo() public {\r... */\n    tag_27:\n        /* \"Variables y operadores/enumeraciones.sol\":702:719  direcciones.ABAJO */\n      0x01\n        /* \"Variables y operadores/enumeraciones.sol\":690:699  direccion */\n      0x00\n      0x01\n        /* \"Variables y operadores/enumeraciones.sol\":690:719  direccion = direcciones.ABAJO */\n      0x0100\n      exp\n      dup2\n      sload\n      dup2\n      0xff\n      mul\n      not\n      and\n      swap1\n      dup4\n      0x03\n      dup2\n      gt\n      iszero\n      tag_45\n      jumpi\n      invalid\n    tag_45:\n      mul\n      or\n      swap1\n      sstore\n      pop\n        /* \"Variables y operadores/enumeraciones.sol\":655:727  function abajo() public {\r... */\n      jump\t// out\n        /* \"Variables y operadores/enumeraciones.sol\":260:334  function fijarEstado(uint _k) public {\r... */\n    tag_30:\n        /* \"Variables y operadores/enumeraciones.sol\":323:325  _k */\n      dup1\n        /* \"Variables y operadores/enumeraciones.sol\":316:326  estado(_k) */\n      0x01\n      dup2\n      gt\n      iszero\n      tag_47\n      jumpi\n      invalid\n    tag_47:\n        /* \"Variables y operadores/enumeraciones.sol\":308:313  state */\n      0x00\n      dup1\n        /* \"Variables y operadores/enumeraciones.sol\":308:326  state = estado(_k) */\n      0x0100\n      exp\n      dup2\n      sload\n      dup2\n      0xff\n      mul\n      not\n      and\n      swap1\n      dup4\n      0x01\n      dup2\n      gt\n      iszero\n      tag_48\n      jumpi\n      invalid\n    tag_48:\n      mul\n      or\n      swap1\n      sstore\n      pop\n        /* \"Variables y operadores/enumeraciones.sol\":260:334  function fijarEstado(uint _k) public {\r... */\n      pop\n      jump\t// out\n        /* \"Variables y operadores/enumeraciones.sol\":573:647  function arriba() public {\r... */\n    tag_32:\n        /* \"Variables y operadores/enumeraciones.sol\":621:639  direcciones.ARRIBA */\n      0x00\n        /* \"Variables y operadores/enumeraciones.sol\":609:618  direccion */\n      dup1\n      0x01\n        /* \"Variables y operadores/enumeraciones.sol\":609:639  direccion = direcciones.ARRIBA */\n      0x0100\n      exp\n      dup2\n      sload\n      dup2\n      0xff\n      mul\n      not\n      and\n      swap1\n      dup4\n      0x03\n      dup2\n      gt\n      iszero\n      tag_50\n      jumpi\n      invalid\n    tag_50:\n      mul\n      or\n      swap1\n      sstore\n      pop\n        /* \"Variables y operadores/enumeraciones.sol\":573:647  function arriba() public {\r... */\n      jump\t// out\n        /* \"Variables y operadores/enumeraciones.sol\":189:252  function encender() public {\r... */\n    tag_34:\n        /* \"Variables y operadores/enumeraciones.sol\":235:244  estado.ON */\n      0x00\n        /* \"Variables y operadores/enumeraciones.sol\":227:232  state */\n      dup1\n      0x00\n        /* \"Variables y operadores/enumeraciones.sol\":227:244  state = estado.ON */\n      0x0100\n      exp\n      dup2\n      sload\n      dup2\n      0xff\n      mul\n      not\n      and\n      swap1\n      dup4\n      0x01\n      dup2\n      gt\n      iszero\n      tag_52\n      jumpi\n      invalid\n    tag_52:\n      mul\n      or\n      swap1\n      sstore\n      pop\n        /* \"Variables y operadores/enumeraciones.sol\":189:252  function encender() public {\r... */\n      jump\t// out\n\n    auxdata: 0xa264697066735822122026628c04c233bc183bd64856a1acd2f1b36df77a46cd0c3d300e24475c48f89c64736f6c63430006000033\n}\n",
				"bytecode": {
					"linkReferences": {},
					"object": "608060405260008060016101000a81548160ff0219169083600381111561002257fe5b021790555034801561003357600080fd5b506102fd806100436000396000f3fe608060405234801561001057600080fd5b50600436106100935760003560e01c8063b46e8d1a11610066578063b46e8d1a14610106578063daf4343f14610132578063e0be4a2e1461013c578063e7260f9a1461016a578063e9073c331461017457610093565b806339feafa3146100985780638a60839f146100c4578063943fad7f146100ce578063b1e92247146100d8575b600080fd5b6100a061017e565b604051808260038111156100b057fe5b60ff16815260200191505060405180910390f35b6100cc610194565b005b6100d66101ba565b005b610104600480360360208110156100ee57600080fd5b81019080803590602001909291905050506101e0565b005b61010e610211565b6040518082600181111561011e57fe5b60ff16815260200191505060405180910390f35b61013a610227565b005b6101686004803603602081101561015257600080fd5b810190808035906020019092919050505061024d565b005b61017261027d565b005b61017c6102a2565b005b60008060019054906101000a900460ff16905090565b6002600060016101000a81548160ff021916908360038111156101b357fe5b0217905550565b6003600060016101000a81548160ff021916908360038111156101d957fe5b0217905550565b8060038111156101ec57fe5b600060016101000a81548160ff0219169083600381111561020957fe5b021790555050565b60008060009054906101000a900460ff16905090565b6001600060016101000a81548160ff0219169083600381111561024657fe5b0217905550565b80600181111561025957fe5b6000806101000a81548160ff0219169083600181111561027557fe5b021790555050565b60008060016101000a81548160ff0219169083600381111561029b57fe5b0217905550565b60008060006101000a81548160ff021916908360018111156102c057fe5b021790555056fea264697066735822122026628c04c233bc183bd64856a1acd2f1b36df77a46cd0c3d300e24475c48f89c64736f6c63430006000033",
					"opcodes": "PUSH1 0x80 PUSH1 0x40 MSTORE PUSH1 0x0 DUP1 PUSH1 0x1 PUSH2 0x100 EXP DUP2 SLOAD DUP2 PUSH1 0xFF MUL NOT AND SWAP1 DUP4 PUSH1 0x3 DUP2 GT ISZERO PUSH2 0x22 JUMPI INVALID JUMPDEST MUL OR SWAP1 SSTORE POP CALLVALUE DUP1 ISZERO PUSH2 0x33 JUMPI PUSH1 0x0 DUP1 REVERT JUMPDEST POP PUSH2 0x2FD DUP1 PUSH2 0x43 PUSH1 0x0 CODECOPY PUSH1 0x0 RETURN INVALID PUSH1 0x80 PUSH1 0x40 MSTORE CALLVALUE DUP1 ISZERO PUSH2 0x10 JUMPI PUSH1 0x0 DUP1 REVERT JUMPDEST POP PUSH1 0x4 CALLDATASIZE LT PUSH2 0x93 JUMPI PUSH1 0x0 CALLDATALOAD PUSH1 0xE0 SHR DUP1 PUSH4 0xB46E8D1A GT PUSH2 0x66 JUMPI DUP1 PUSH4 0xB46E8D1A EQ PUSH2 0x106 JUMPI DUP1 PUSH4 0xDAF4343F EQ PUSH2 0x132 JUMPI DUP1 PUSH4 0xE0BE4A2E EQ PUSH2 0x13C JUMPI DUP1 PUSH4 0xE7260F9A EQ PUSH2 0x16A JUMPI DUP1 PUSH4 0xE9073C33 EQ PUSH2 0x174 JUMPI PUSH2 0x93 JUMP JUMPDEST DUP1 PUSH4 0x39FEAFA3 EQ PUSH2 0x98 JUMPI DUP1 PUSH4 0x8A60839F EQ PUSH2 0xC4 JUMPI DUP1 PUSH4 0x943FAD7F EQ PUSH2 0xCE JUMPI DUP1 PUSH4 0xB1E92247 EQ PUSH2 0xD8 JUMPI JUMPDEST PUSH1 0x0 DUP1 REVERT JUMPDEST PUSH2 0xA0 PUSH2 0x17E JUMP JUMPDEST PUSH1 0x40 MLOAD DUP1 DUP3 PUSH1 0x3 DUP2 GT ISZERO PUSH2 0xB0 JUMPI INVALID JUMPDEST PUSH1 0xFF AND DUP2 MSTORE PUSH1 0x20 ADD SWAP2 POP POP PUSH1 0x40 MLOAD DUP1 SWAP2 SUB SWAP1 RETURN JUMPDEST PUSH2 0xCC PUSH2 0x194 JUMP JUMPDEST STOP JUMPDEST PUSH2 0xD6 PUSH2 0x1BA JUMP JUMPDEST STOP JUMPDEST PUSH2 0x104 PUSH1 0x4 DUP1 CALLDATASIZE SUB PUSH1 0x20 DUP2 LT ISZERO PUSH2 0xEE JUMPI PUSH1 0x0 DUP1 REVERT JUMPDEST DUP2 ADD SWAP1 DUP1 DUP1 CALLDATALOAD SWAP1 PUSH1 0x20 ADD SWAP1 SWAP3 SWAP2 SWAP1 POP POP POP PUSH2 0x1E0 JUMP JUMPDEST STOP JUMPDEST PUSH2 0x10E PUSH2 0x211 JUMP JUMPDEST PUSH1 0x40 MLOAD DUP1 DUP3 PUSH1 0x1 DUP2 GT ISZERO PUSH2 0x11E JUMPI INVALID JUMPDEST PUSH1 0xFF AND DUP2 MSTORE PUSH1 0x20 ADD SWAP2 POP POP PUSH1 0x40 MLOAD DUP1 SWAP2 SUB SWAP1 RETURN JUMPDEST PUSH2 0x13A PUSH2 0x227 JUMP JUMPDEST STOP JUMPDEST PUSH2 0x168 PUSH1 0x4 DUP1 CALLDATASIZE SUB PUSH1 0x20 DUP2 LT ISZERO PUSH2 0x152 JUMPI PUSH1 0x0 DUP1 REVERT JUMPDEST DUP2 ADD SWAP1 DUP1 DUP1 CALLDATALOAD SWAP1 PUSH1 0x20 ADD SWAP1 SWAP3 SWAP2 SWAP1 POP POP POP PUSH2 0x24D JUMP JUMPDEST STOP JUMPDEST PUSH2 0x172 PUSH2 0x27D JUMP JUMPDEST STOP JUMPDEST PUSH2 0x17C PUSH2 0x2A2 JUMP JUMPDEST STOP JUMPDEST PUSH1 0x0 DUP1 PUSH1 0x1 SWAP1 SLOAD SWAP1 PUSH2 0x100 EXP SWAP1 DIV PUSH1 0xFF AND SWAP1 POP SWAP1 JUMP JUMPDEST PUSH1 0x2 PUSH1 0x0 PUSH1 0x1 PUSH2 0x100 EXP DUP2 SLOAD DUP2 PUSH1 0xFF MUL NOT AND SWAP1 DUP4 PUSH1 0x3 DUP2 GT ISZERO PUSH2 0x1B3 JUMPI INVALID JUMPDEST MUL OR SWAP1 SSTORE POP JUMP JUMPDEST PUSH1 0x3 PUSH1 0x0 PUSH1 0x1 PUSH2 0x100 EXP DUP2 SLOAD DUP2 PUSH1 0xFF MUL NOT AND SWAP1 DUP4 PUSH1 0x3 DUP2 GT ISZERO PUSH2 0x1D9 JUMPI INVALID JUMPDEST MUL OR SWAP1 SSTORE POP JUMP JUMPDEST DUP1 PUSH1 0x3 DUP2 GT ISZERO PUSH2 0x1EC JUMPI INVALID JUMPDEST PUSH1 0x0 PUSH1 0x1 PUSH2 0x100 EXP DUP2 SLOAD DUP2 PUSH1 0xFF MUL NOT AND SWAP1 DUP4 PUSH1 0x3 DUP2 GT ISZERO PUSH2 0x209 JUMPI INVALID JUMPDEST MUL OR SWAP1 SSTORE POP POP JUMP JUMPDEST PUSH1 0x0 DUP1 PUSH1 0x0 SWAP1 SLOAD SWAP1 PUSH2 0x100 EXP SWAP1 DIV PUSH1 0xFF AND SWAP1 POP SWAP1 JUMP JUMPDEST PUSH1 0x1 PUSH1 0x0 PUSH1 0x1 PUSH2 0x100 EXP DUP2 SLOAD DUP2 PUSH1 0xFF MUL NOT AND SWAP1 DUP4 PUSH1 0x3 DUP2 GT ISZERO PUSH2 0x246 JUMPI INVALID JUMPDEST MUL OR SWAP1 SSTORE POP JUMP JUMPDEST DUP1 PUSH1 0x1 DUP2 GT ISZERO PUSH2 0x259 JUMPI INVALID JUMPDEST PUSH1 0x0 DUP1 PUSH2 0x100 EXP DUP2 SLOAD DUP2 PUSH1 0xFF MUL NOT AND SWAP1 DUP4 PUSH1 0x1 DUP2 GT ISZERO PUSH2 0x275 JUMPI INVALID JUMPDEST MUL OR SWAP1 SSTORE POP POP JUMP JUMPDEST PUSH1 0x0 DUP1 PUSH1 0x1 PUSH2 0x100 EXP DUP2 SLOAD DUP2 PUSH1 0xFF MUL NOT AND SWAP1 DUP4 PUSH1 0x3 DUP2 GT ISZERO PUSH2 0x29B JUMPI INVALID JUMPDEST MUL OR SWAP1 SSTORE POP JUMP JUMPDEST PUSH1 0x0 DUP1 PUSH1 0x0 PUSH2 0x100 EXP DUP2 SLOAD DUP2 PUSH1 0xFF MUL NOT AND SWAP1 DUP4 PUSH1 0x1 DUP2 GT ISZERO PUSH2 0x2C0 JUMPI INVALID JUMPDEST MUL OR SWAP1 SSTORE POP JUMP INVALID LOG2 PUSH5 0x6970667358 0x22 SLT KECCAK256 0x26 PUSH3 0x8C04C2 CALLER 0xBC XOR EXTCODESIZE 0xD6 0x48 JUMP LOG1 0xAC 0xD2 CALL 0xB3 PUSH14 0xF77A46CD0C3D300E24475C48F89C PUSH5 0x736F6C6343 STOP MOD STOP STOP CALLER "
				},
				"gasEstimates": {
					"creation": {
						"codeDepositCost": "153000",
						"executionCost": "21133",
						"totalCost": "174133"
					},
					"external": {
						"Direcciones()": "1132",
						"Estado()": "1081",
						"abajo()": "21103",
						"arriba()": "21147",
						"derecha()": "21104",
						"encender()": "21119",
						"fijarDirecciones(uint256)": "21258",
						"fijarEstado(uint256)": "21185",
						"izquierda()": "21126"
					}
				},
				"methodIdentifiers": {
					"Direcciones()": "39feafa3",
					"Estado()": "b46e8d1a",
					"abajo()": "daf4343f",
					"arriba()": "e7260f9a",
					"derecha()": "8a60839f",
					"encender()": "e9073c33",
					"fijarDirecciones(uint256)": "b1e92247",
					"fijarEstado(uint256)": "e0be4a2e",
					"izquierda()": "943fad7f"
				}
			},
			"storageLayout": {
				"storage": [
					{
						"astId": 6,
						"contract": "Variables y operadores/enumeraciones.sol:Ejemplos_enumeraciones",
						"label": "state",
						"offset": 0,
						"slot": "0",
						"type": "t_enum(estado)4"
					},
					{
						"astId": 44,
						"contract": "Variables y operadores/enumeraciones.sol:Ejemplos_enumeraciones",
						"label": "direccion",
						"offset": 1,
						"slot": "0",
						"type": "t_enum(direcciones)40"
					}
				],
				"types": {
					"t_enum(direcciones)40": {
						"encoding": "inplace",
						"label": "enum Ejemplos_enumeraciones.direcciones",
						"numberOfBytes": "1"
					},
					"t_enum(estado)4": {
						"encoding": "inplace",
						"label": "enum Ejemplos_enumeraciones.estado",
						"numberOfBytes": "1"
					}
				}
			},
			"userdoc": {
				"methods": {}
			}
		}
	}
}