{
	"Bloque_2/VOTACIONES/votaciones.sol": {
		"votacion": {
			"abi": [
				{
					"inputs": [],
					"stateMutability": "nonpayable",
					"type": "constructor"
				},
				{
					"inputs": [],
					"name": "Ganador",
					"outputs": [
						{
							"internalType": "string",
							"name": "",
							"type": "string"
						}
					],
					"stateMutability": "view",
					"type": "function"
				},
				{
					"inputs": [
						{
							"internalType": "string",
							"name": "_nombre",
							"type": "string"
						},
						{
							"internalType": "uint256",
							"name": "_edad",
							"type": "uint256"
						},
						{
							"internalType": "string",
							"name": "_id",
							"type": "string"
						}
					],
					"name": "Representar",
					"outputs": [],
					"stateMutability": "nonpayable",
					"type": "function"
				},
				{
					"inputs": [],
					"name": "VerCandidatos",
					"outputs": [
						{
							"internalType": "string[]",
							"name": "",
							"type": "string[]"
						}
					],
					"stateMutability": "view",
					"type": "function"
				},
				{
					"inputs": [],
					"name": "VerResultados",
					"outputs": [
						{
							"internalType": "string",
							"name": "",
							"type": "string"
						}
					],
					"stateMutability": "view",
					"type": "function"
				},
				{
					"inputs": [
						{
							"internalType": "string",
							"name": "_nombre",
							"type": "string"
						}
					],
					"name": "VerVotos",
					"outputs": [
						{
							"internalType": "uint256",
							"name": "",
							"type": "uint256"
						}
					],
					"stateMutability": "view",
					"type": "function"
				},
				{
					"inputs": [
						{
							"internalType": "string",
							"name": "_nombre",
							"type": "string"
						}
					],
					"name": "Votar",
					"outputs": [],
					"stateMutability": "nonpayable",
					"type": "function"
				}
			],
			"devdoc": {
				"methods": {}
			},
			"evm": {
				"assembly": "    /* \"Bloque_2/VOTACIONES/votaciones.sol\":383:4466  contract votacion {\r... */\n  mstore(0x40, 0x80)\n    /* \"Bloque_2/VOTACIONES/votaciones.sol\":496:554  constructor() public {\r... */\n  callvalue\n    /* \"--CODEGEN--\":8:17   */\n  dup1\n    /* \"--CODEGEN--\":5:7   */\n  iszero\n  tag_1\n  jumpi\n    /* \"--CODEGEN--\":30:31   */\n  0x00\n    /* \"--CODEGEN--\":27:28   */\n  dup1\n    /* \"--CODEGEN--\":20:32   */\n  revert\n    /* \"--CODEGEN--\":5:7   */\ntag_1:\n    /* \"Bloque_2/VOTACIONES/votaciones.sol\":496:554  constructor() public {\r... */\n  pop\n    /* \"Bloque_2/VOTACIONES/votaciones.sol\":536:546  msg.sender */\n  caller\n    /* \"Bloque_2/VOTACIONES/votaciones.sol\":528:533  owner */\n  0x00\n  dup1\n    /* \"Bloque_2/VOTACIONES/votaciones.sol\":528:546  owner = msg.sender */\n  0x0100\n  exp\n  dup2\n  sload\n  dup2\n  0xffffffffffffffffffffffffffffffffffffffff\n  mul\n  not\n  and\n  swap1\n  dup4\n  0xffffffffffffffffffffffffffffffffffffffff\n  and\n  mul\n  or\n  swap1\n  sstore\n  pop\n    /* \"Bloque_2/VOTACIONES/votaciones.sol\":383:4466  contract votacion {\r... */\n  dataSize(sub_0)\n  dup1\n  dataOffset(sub_0)\n  0x00\n  codecopy\n  0x00\n  return\nstop\n\nsub_0: assembly {\n        /* \"Bloque_2/VOTACIONES/votaciones.sol\":383:4466  contract votacion {\r... */\n      mstore(0x40, 0x80)\n      callvalue\n        /* \"--CODEGEN--\":8:17   */\n      dup1\n        /* \"--CODEGEN--\":5:7   */\n      iszero\n      tag_1\n      jumpi\n        /* \"--CODEGEN--\":30:31   */\n      0x00\n        /* \"--CODEGEN--\":27:28   */\n      dup1\n        /* \"--CODEGEN--\":20:32   */\n      revert\n        /* \"--CODEGEN--\":5:7   */\n    tag_1:\n        /* \"Bloque_2/VOTACIONES/votaciones.sol\":383:4466  contract votacion {\r... */\n      pop\n      jumpi(tag_2, lt(calldatasize, 0x04))\n      shr(0xe0, calldataload(0x00))\n      dup1\n      0x55911cc1\n      eq\n      tag_3\n      jumpi\n      dup1\n      0x8107caa1\n      eq\n      tag_4\n      jumpi\n      dup1\n      0xbfc2e938\n      eq\n      tag_5\n      jumpi\n      dup1\n      0xe7bf56fa\n      eq\n      tag_6\n      jumpi\n      dup1\n      0xf01ca6b7\n      eq\n      tag_7\n      jumpi\n      dup1\n      0xfebe07dc\n      eq\n      tag_8\n      jumpi\n    tag_2:\n      0x00\n      dup1\n      revert\n        /* \"Bloque_2/VOTACIONES/votaciones.sol\":3502:4463  function Ganador() public view returns(string memory) {\r... */\n    tag_3:\n      tag_9\n      tag_10\n      jump\t// in\n    tag_9:\n      mload(0x40)\n      tag_11\n      swap2\n      swap1\n      jump(tag_12)\n    tag_11:\n      mload(0x40)\n      dup1\n      swap2\n      sub\n      swap1\n      return\n        /* \"Bloque_2/VOTACIONES/votaciones.sol\":2304:2421  function VerVotos(string memory _nombre) public view returns(uint) {\r... */\n    tag_4:\n      tag_13\n      0x04\n      dup1\n      calldatasize\n      sub\n      tag_14\n      swap2\n      swap1\n      dup2\n      add\n      swap1\n      jump(tag_15)\n    tag_14:\n      tag_16\n      jump\t// in\n    tag_13:\n      mload(0x40)\n      tag_17\n      swap2\n      swap1\n      jump(tag_18)\n    tag_17:\n      mload(0x40)\n      dup1\n      swap2\n      sub\n      swap1\n      return\n        /* \"Bloque_2/VOTACIONES/votaciones.sol\":1499:1645  function VerCandidatos() public view returns(string[] memory) {\r... */\n    tag_5:\n      tag_19\n      tag_20\n      jump\t// in\n    tag_19:\n      mload(0x40)\n      tag_21\n      swap2\n      swap1\n      jump(tag_22)\n    tag_21:\n      mload(0x40)\n      dup1\n      swap2\n      sub\n      swap1\n      return\n        /* \"Bloque_2/VOTACIONES/votaciones.sol\":3018:3441  function VerResultados() public view returns(string memory) {\r... */\n    tag_6:\n      tag_23\n      tag_24\n      jump\t// in\n    tag_23:\n      mload(0x40)\n      tag_25\n      swap2\n      swap1\n      jump(tag_12)\n    tag_25:\n      mload(0x40)\n      dup1\n      swap2\n      sub\n      swap1\n      return\n        /* \"Bloque_2/VOTACIONES/votaciones.sol\":984:1401  function Representar(string memory _nombre, uint _edad, string memory _id) public {\r... */\n    tag_7:\n      tag_26\n      0x04\n      dup1\n      calldatasize\n      sub\n      tag_27\n      swap2\n      swap1\n      dup2\n      add\n      swap1\n      jump(tag_28)\n    tag_27:\n      tag_29\n      jump\t// in\n    tag_26:\n      stop\n        /* \"Bloque_2/VOTACIONES/votaciones.sol\":1653:2224  function Votar(string memory _nombre) public {\r... */\n    tag_8:\n      tag_30\n      0x04\n      dup1\n      calldatasize\n      sub\n      tag_31\n      swap2\n      swap1\n      dup2\n      add\n      swap1\n      jump(tag_15)\n    tag_31:\n      tag_32\n      jump\t// in\n    tag_30:\n      stop\n        /* \"Bloque_2/VOTACIONES/votaciones.sol\":3502:4463  function Ganador() public view returns(string memory) {\r... */\n    tag_10:\n        /* \"Bloque_2/VOTACIONES/votaciones.sol\":3541:3554  string memory */\n      0x60\n        /* \"Bloque_2/VOTACIONES/votaciones.sol\":3567:3588  string memory ganador */\n      dup1\n        /* \"Bloque_2/VOTACIONES/votaciones.sol\":3591:3601  candidatos */\n      0x03\n        /* \"Bloque_2/VOTACIONES/votaciones.sol\":3602:3603  0 */\n      0x00\n        /* \"Bloque_2/VOTACIONES/votaciones.sol\":3591:3604  candidatos[0] */\n      dup2\n      sload\n      dup2\n      lt\n      tag_34\n      jumpi\n      invalid\n    tag_34:\n      swap1\n      0x00\n      mstore\n      keccak256(0x00, 0x20)\n      add\n        /* \"Bloque_2/VOTACIONES/votaciones.sol\":3567:3604  string memory ganador = candidatos[0] */\n      dup1\n      sload\n      0x01\n      dup2\n      0x01\n      and\n      iszero\n      0x0100\n      mul\n      sub\n      and\n      0x02\n      swap1\n      div\n      dup1\n      0x1f\n      add\n      0x20\n      dup1\n      swap2\n      div\n      mul\n      0x20\n      add\n      mload(0x40)\n      swap1\n      dup2\n      add\n      0x40\n      mstore\n      dup1\n      swap3\n      swap2\n      swap1\n      dup2\n      dup2\n      mstore\n      0x20\n      add\n      dup3\n      dup1\n      sload\n      0x01\n      dup2\n      0x01\n      and\n      iszero\n      0x0100\n      mul\n      sub\n      and\n      0x02\n      swap1\n      div\n      dup1\n      iszero\n      tag_36\n      jumpi\n      dup1\n      0x1f\n      lt\n      tag_37\n      jumpi\n      0x0100\n      dup1\n      dup4\n      sload\n      div\n      mul\n      dup4\n      mstore\n      swap2\n      0x20\n      add\n      swap2\n      jump(tag_36)\n    tag_37:\n      dup3\n      add\n      swap2\n      swap1\n      0x00\n      mstore\n      keccak256(0x00, 0x20)\n      swap1\n    tag_38:\n      dup2\n      sload\n      dup2\n      mstore\n      swap1\n      0x01\n      add\n      swap1\n      0x20\n      add\n      dup1\n      dup4\n      gt\n      tag_38\n      jumpi\n      dup3\n      swap1\n      sub\n      0x1f\n      and\n      dup3\n      add\n      swap2\n    tag_36:\n      pop\n      pop\n      pop\n      pop\n      pop\n      swap1\n      pop\n        /* \"Bloque_2/VOTACIONES/votaciones.sol\":3664:3673  bool flag */\n      0x00\n        /* \"Bloque_2/VOTACIONES/votaciones.sol\":3779:3785  uint i */\n      dup1\n        /* \"Bloque_2/VOTACIONES/votaciones.sol\":3788:3789  0 */\n      0x00\n        /* \"Bloque_2/VOTACIONES/votaciones.sol\":3779:3789  uint i = 0 */\n      swap1\n      pop\n        /* \"Bloque_2/VOTACIONES/votaciones.sol\":3774:4279  for (uint i = 0; i < candidatos.length; i++) {\r... */\n    tag_39:\n        /* \"Bloque_2/VOTACIONES/votaciones.sol\":3795:3805  candidatos */\n      0x03\n        /* \"Bloque_2/VOTACIONES/votaciones.sol\":3795:3812  candidatos.length */\n      dup1\n      sload\n      swap1\n      pop\n        /* \"Bloque_2/VOTACIONES/votaciones.sol\":3791:3792  i */\n      dup2\n        /* \"Bloque_2/VOTACIONES/votaciones.sol\":3791:3812  i < candidatos.length */\n      lt\n        /* \"Bloque_2/VOTACIONES/votaciones.sol\":3774:4279  for (uint i = 0; i < candidatos.length; i++) {\r... */\n      iszero\n      tag_40\n      jumpi\n        /* \"Bloque_2/VOTACIONES/votaciones.sol\":3939:3962  VerVotos(candidatos[i]) */\n      tag_42\n        /* \"Bloque_2/VOTACIONES/votaciones.sol\":3948:3958  candidatos */\n      0x03\n        /* \"Bloque_2/VOTACIONES/votaciones.sol\":3959:3960  i */\n      dup3\n        /* \"Bloque_2/VOTACIONES/votaciones.sol\":3948:3961  candidatos[i] */\n      dup2\n      sload\n      dup2\n      lt\n      tag_43\n      jumpi\n      invalid\n    tag_43:\n      swap1\n      0x00\n      mstore\n      keccak256(0x00, 0x20)\n      add\n        /* \"Bloque_2/VOTACIONES/votaciones.sol\":3939:3962  VerVotos(candidatos[i]) */\n      dup1\n      sload\n      0x01\n      dup2\n      0x01\n      and\n      iszero\n      0x0100\n      mul\n      sub\n      and\n      0x02\n      swap1\n      div\n      dup1\n      0x1f\n      add\n      0x20\n      dup1\n      swap2\n      div\n      mul\n      0x20\n      add\n      mload(0x40)\n      swap1\n      dup2\n      add\n      0x40\n      mstore\n      dup1\n      swap3\n      swap2\n      swap1\n      dup2\n      dup2\n      mstore\n      0x20\n      add\n      dup3\n      dup1\n      sload\n      0x01\n      dup2\n      0x01\n      and\n      iszero\n      0x0100\n      mul\n      sub\n      and\n      0x02\n      swap1\n      div\n      dup1\n      iszero\n      tag_45\n      jumpi\n      dup1\n      0x1f\n      lt\n      tag_46\n      jumpi\n      0x0100\n      dup1\n      dup4\n      sload\n      div\n      mul\n      dup4\n      mstore\n      swap2\n      0x20\n      add\n      swap2\n      jump(tag_45)\n    tag_46:\n      dup3\n      add\n      swap2\n      swap1\n      0x00\n      mstore\n      keccak256(0x00, 0x20)\n      swap1\n    tag_47:\n      dup2\n      sload\n      dup2\n      mstore\n      swap1\n      0x01\n      add\n      swap1\n      0x20\n      add\n      dup1\n      dup4\n      gt\n      tag_47\n      jumpi\n      dup3\n      swap1\n      sub\n      0x1f\n      and\n      dup3\n      add\n      swap2\n    tag_45:\n      pop\n      pop\n      pop\n      pop\n      pop\n        /* \"Bloque_2/VOTACIONES/votaciones.sol\":3939:3947  VerVotos */\n      tag_16\n        /* \"Bloque_2/VOTACIONES/votaciones.sol\":3939:3962  VerVotos(candidatos[i]) */\n      jump\t// in\n    tag_42:\n        /* \"Bloque_2/VOTACIONES/votaciones.sol\":3912:3927  votos_candidato */\n      0x02\n        /* \"Bloque_2/VOTACIONES/votaciones.sol\":3928:3935  ganador */\n      dup5\n        /* \"Bloque_2/VOTACIONES/votaciones.sol\":3912:3936  votos_candidato[ganador] */\n      mload(0x40)\n      tag_48\n      swap2\n      swap1\n      jump(tag_49)\n    tag_48:\n      swap1\n      dup2\n      mstore\n      0x20\n      add\n      mload(0x40)\n      dup1\n      swap2\n      sub\n      swap1\n      keccak256\n      sload\n        /* \"Bloque_2/VOTACIONES/votaciones.sol\":3912:3962  votos_candidato[ganador] < VerVotos(candidatos[i]) */\n      lt\n        /* \"Bloque_2/VOTACIONES/votaciones.sol\":3908:4268  if (votos_candidato[ganador] < VerVotos(candidatos[i])) {\r... */\n      iszero\n      tag_50\n      jumpi\n        /* \"Bloque_2/VOTACIONES/votaciones.sol\":3993:4003  candidatos */\n      0x03\n        /* \"Bloque_2/VOTACIONES/votaciones.sol\":4004:4005  i */\n      dup2\n        /* \"Bloque_2/VOTACIONES/votaciones.sol\":3993:4006  candidatos[i] */\n      dup2\n      sload\n      dup2\n      lt\n      tag_51\n      jumpi\n      invalid\n    tag_51:\n      swap1\n      0x00\n      mstore\n      keccak256(0x00, 0x20)\n      add\n        /* \"Bloque_2/VOTACIONES/votaciones.sol\":3983:4006  ganador = candidatos[i] */\n      dup1\n      sload\n      0x01\n      dup2\n      0x01\n      and\n      iszero\n      0x0100\n      mul\n      sub\n      and\n      0x02\n      swap1\n      div\n      dup1\n      0x1f\n      add\n      0x20\n      dup1\n      swap2\n      div\n      mul\n      0x20\n      add\n      mload(0x40)\n      swap1\n      dup2\n      add\n      0x40\n      mstore\n      dup1\n      swap3\n      swap2\n      swap1\n      dup2\n      dup2\n      mstore\n      0x20\n      add\n      dup3\n      dup1\n      sload\n      0x01\n      dup2\n      0x01\n      and\n      iszero\n      0x0100\n      mul\n      sub\n      and\n      0x02\n      swap1\n      div\n      dup1\n      iszero\n      tag_53\n      jumpi\n      dup1\n      0x1f\n      lt\n      tag_54\n      jumpi\n      0x0100\n      dup1\n      dup4\n      sload\n      div\n      mul\n      dup4\n      mstore\n      swap2\n      0x20\n      add\n      swap2\n      jump(tag_53)\n    tag_54:\n      dup3\n      add\n      swap2\n      swap1\n      0x00\n      mstore\n      keccak256(0x00, 0x20)\n      swap1\n    tag_55:\n      dup2\n      sload\n      dup2\n      mstore\n      swap1\n      0x01\n      add\n      swap1\n      0x20\n      add\n      dup1\n      dup4\n      gt\n      tag_55\n      jumpi\n      dup3\n      swap1\n      sub\n      0x1f\n      and\n      dup3\n      add\n      swap2\n    tag_53:\n      pop\n      pop\n      pop\n      pop\n      pop\n      swap3\n      pop\n        /* \"Bloque_2/VOTACIONES/votaciones.sol\":4032:4037  false */\n      0x00\n        /* \"Bloque_2/VOTACIONES/votaciones.sol\":4025:4037  flag = false */\n      swap2\n      pop\n        /* \"Bloque_2/VOTACIONES/votaciones.sol\":3908:4268  if (votos_candidato[ganador] < VerVotos(candidatos[i])) {\r... */\n      jump(tag_56)\n    tag_50:\n        /* \"Bloque_2/VOTACIONES/votaciones.sol\":4173:4196  VerVotos(candidatos[i]) */\n      tag_57\n        /* \"Bloque_2/VOTACIONES/votaciones.sol\":4182:4192  candidatos */\n      0x03\n        /* \"Bloque_2/VOTACIONES/votaciones.sol\":4193:4194  i */\n      dup3\n        /* \"Bloque_2/VOTACIONES/votaciones.sol\":4182:4195  candidatos[i] */\n      dup2\n      sload\n      dup2\n      lt\n      tag_58\n      jumpi\n      invalid\n    tag_58:\n      swap1\n      0x00\n      mstore\n      keccak256(0x00, 0x20)\n      add\n        /* \"Bloque_2/VOTACIONES/votaciones.sol\":4173:4196  VerVotos(candidatos[i]) */\n      dup1\n      sload\n      0x01\n      dup2\n      0x01\n      and\n      iszero\n      0x0100\n      mul\n      sub\n      and\n      0x02\n      swap1\n      div\n      dup1\n      0x1f\n      add\n      0x20\n      dup1\n      swap2\n      div\n      mul\n      0x20\n      add\n      mload(0x40)\n      swap1\n      dup2\n      add\n      0x40\n      mstore\n      dup1\n      swap3\n      swap2\n      swap1\n      dup2\n      dup2\n      mstore\n      0x20\n      add\n      dup3\n      dup1\n      sload\n      0x01\n      dup2\n      0x01\n      and\n      iszero\n      0x0100\n      mul\n      sub\n      and\n      0x02\n      swap1\n      div\n      dup1\n      iszero\n      tag_60\n      jumpi\n      dup1\n      0x1f\n      lt\n      tag_61\n      jumpi\n      0x0100\n      dup1\n      dup4\n      sload\n      div\n      mul\n      dup4\n      mstore\n      swap2\n      0x20\n      add\n      swap2\n      jump(tag_60)\n    tag_61:\n      dup3\n      add\n      swap2\n      swap1\n      0x00\n      mstore\n      keccak256(0x00, 0x20)\n      swap1\n    tag_62:\n      dup2\n      sload\n      dup2\n      mstore\n      swap1\n      0x01\n      add\n      swap1\n      0x20\n      add\n      dup1\n      dup4\n      gt\n      tag_62\n      jumpi\n      dup3\n      swap1\n      sub\n      0x1f\n      and\n      dup3\n      add\n      swap2\n    tag_60:\n      pop\n      pop\n      pop\n      pop\n      pop\n        /* \"Bloque_2/VOTACIONES/votaciones.sol\":4173:4181  VerVotos */\n      tag_16\n        /* \"Bloque_2/VOTACIONES/votaciones.sol\":4173:4196  VerVotos(candidatos[i]) */\n      jump\t// in\n    tag_57:\n        /* \"Bloque_2/VOTACIONES/votaciones.sol\":4145:4160  votos_candidato */\n      0x02\n        /* \"Bloque_2/VOTACIONES/votaciones.sol\":4161:4168  ganador */\n      dup5\n        /* \"Bloque_2/VOTACIONES/votaciones.sol\":4145:4169  votos_candidato[ganador] */\n      mload(0x40)\n      tag_63\n      swap2\n      swap1\n      jump(tag_49)\n    tag_63:\n      swap1\n      dup2\n      mstore\n      0x20\n      add\n      mload(0x40)\n      dup1\n      swap2\n      sub\n      swap1\n      keccak256\n      sload\n        /* \"Bloque_2/VOTACIONES/votaciones.sol\":4145:4196  votos_candidato[ganador] == VerVotos(candidatos[i]) */\n      eq\n        /* \"Bloque_2/VOTACIONES/votaciones.sol\":4141:4252  if (votos_candidato[ganador] == VerVotos(candidatos[i])) {\r... */\n      iszero\n      tag_64\n      jumpi\n        /* \"Bloque_2/VOTACIONES/votaciones.sol\":4228:4232  true */\n      0x01\n        /* \"Bloque_2/VOTACIONES/votaciones.sol\":4221:4232  flag = true */\n      swap2\n      pop\n        /* \"Bloque_2/VOTACIONES/votaciones.sol\":4141:4252  if (votos_candidato[ganador] == VerVotos(candidatos[i])) {\r... */\n    tag_64:\n        /* \"Bloque_2/VOTACIONES/votaciones.sol\":3908:4268  if (votos_candidato[ganador] < VerVotos(candidatos[i])) {\r... */\n    tag_56:\n        /* \"Bloque_2/VOTACIONES/votaciones.sol\":3814:3817  i++ */\n      dup1\n      dup1\n      0x01\n      add\n      swap2\n      pop\n      pop\n        /* \"Bloque_2/VOTACIONES/votaciones.sol\":3774:4279  for (uint i = 0; i < candidatos.length; i++) {\r... */\n      jump(tag_39)\n    tag_40:\n      pop\n        /* \"Bloque_2/VOTACIONES/votaciones.sol\":4350:4354  true */\n      0x01\n        /* \"Bloque_2/VOTACIONES/votaciones.sol\":4342:4354  flag == true */\n      iszero\n      iszero\n        /* \"Bloque_2/VOTACIONES/votaciones.sol\":4342:4346  flag */\n      dup2\n        /* \"Bloque_2/VOTACIONES/votaciones.sol\":4342:4354  flag == true */\n      iszero\n      iszero\n      eq\n        /* \"Bloque_2/VOTACIONES/votaciones.sol\":4338:4429  if (flag == true) {\r... */\n      iszero\n      tag_65\n      jumpi\n        /* \"Bloque_2/VOTACIONES/votaciones.sol\":4371:4417  ganador = \"Hay un empate entre los candidatos\" */\n      mload(0x40)\n      dup1\n      0x60\n      add\n      0x40\n      mstore\n      dup1\n      0x22\n      dup2\n      mstore\n      0x20\n      add\n      data_41f82da17441ea04272ad4862c48de104e971b11291caf932cab5da13398e2ff\n      0x22\n      swap2\n      codecopy\n      swap2\n      pop\n        /* \"Bloque_2/VOTACIONES/votaciones.sol\":4338:4429  if (flag == true) {\r... */\n    tag_65:\n        /* \"Bloque_2/VOTACIONES/votaciones.sol\":4448:4455  ganador */\n      dup2\n        /* \"Bloque_2/VOTACIONES/votaciones.sol\":4441:4455  return ganador */\n      swap3\n      pop\n      pop\n      pop\n        /* \"Bloque_2/VOTACIONES/votaciones.sol\":3502:4463  function Ganador() public view returns(string memory) {\r... */\n      swap1\n      jump\t// out\n        /* \"Bloque_2/VOTACIONES/votaciones.sol\":2304:2421  function VerVotos(string memory _nombre) public view returns(uint) {\r... */\n    tag_16:\n        /* \"Bloque_2/VOTACIONES/votaciones.sol\":2365:2369  uint */\n      0x00\n        /* \"Bloque_2/VOTACIONES/votaciones.sol\":2389:2404  votos_candidato */\n      0x02\n        /* \"Bloque_2/VOTACIONES/votaciones.sol\":2405:2412  _nombre */\n      dup3\n        /* \"Bloque_2/VOTACIONES/votaciones.sol\":2389:2413  votos_candidato[_nombre] */\n      mload(0x40)\n      tag_67\n      swap2\n      swap1\n      jump(tag_49)\n    tag_67:\n      swap1\n      dup2\n      mstore\n      0x20\n      add\n      mload(0x40)\n      dup1\n      swap2\n      sub\n      swap1\n      keccak256\n      sload\n        /* \"Bloque_2/VOTACIONES/votaciones.sol\":2382:2413  return votos_candidato[_nombre] */\n      swap1\n      pop\n        /* \"Bloque_2/VOTACIONES/votaciones.sol\":2304:2421  function VerVotos(string memory _nombre) public view returns(uint) {\r... */\n      swap2\n      swap1\n      pop\n      jump\t// out\n        /* \"Bloque_2/VOTACIONES/votaciones.sol\":1499:1645  function VerCandidatos() public view returns(string[] memory) {\r... */\n    tag_20:\n        /* \"Bloque_2/VOTACIONES/votaciones.sol\":1544:1559  string[] memory */\n      0x60\n        /* \"Bloque_2/VOTACIONES/votaciones.sol\":1627:1637  candidatos */\n      0x03\n        /* \"Bloque_2/VOTACIONES/votaciones.sol\":1620:1637  return candidatos */\n      dup1\n      sload\n      dup1\n      0x20\n      mul\n      0x20\n      add\n      mload(0x40)\n      swap1\n      dup2\n      add\n      0x40\n      mstore\n      dup1\n      swap3\n      swap2\n      swap1\n      dup2\n      dup2\n      mstore\n      0x20\n      add\n      0x00\n      swap1\n    tag_69:\n      dup3\n      dup3\n      lt\n      iszero\n      tag_70\n      jumpi\n      dup4\n      dup3\n      swap1\n      0x00\n      mstore\n      keccak256(0x00, 0x20)\n      add\n      dup1\n      sload\n      0x01\n      dup2\n      0x01\n      and\n      iszero\n      0x0100\n      mul\n      sub\n      and\n      0x02\n      swap1\n      div\n      dup1\n      0x1f\n      add\n      0x20\n      dup1\n      swap2\n      div\n      mul\n      0x20\n      add\n      mload(0x40)\n      swap1\n      dup2\n      add\n      0x40\n      mstore\n      dup1\n      swap3\n      swap2\n      swap1\n      dup2\n      dup2\n      mstore\n      0x20\n      add\n      dup3\n      dup1\n      sload\n      0x01\n      dup2\n      0x01\n      and\n      iszero\n      0x0100\n      mul\n      sub\n      and\n      0x02\n      swap1\n      div\n      dup1\n      iszero\n      tag_72\n      jumpi\n      dup1\n      0x1f\n      lt\n      tag_73\n      jumpi\n      0x0100\n      dup1\n      dup4\n      sload\n      div\n      mul\n      dup4\n      mstore\n      swap2\n      0x20\n      add\n      swap2\n      jump(tag_72)\n    tag_73:\n      dup3\n      add\n      swap2\n      swap1\n      0x00\n      mstore\n      keccak256(0x00, 0x20)\n      swap1\n    tag_74:\n      dup2\n      sload\n      dup2\n      mstore\n      swap1\n      0x01\n      add\n      swap1\n      0x20\n      add\n      dup1\n      dup4\n      gt\n      tag_74\n      jumpi\n      dup3\n      swap1\n      sub\n      0x1f\n      and\n      dup3\n      add\n      swap2\n    tag_72:\n      pop\n      pop\n      pop\n      pop\n      pop\n      dup2\n      mstore\n      0x20\n      add\n      swap1\n      0x01\n      add\n      swap1\n      jump(tag_69)\n    tag_70:\n      pop\n      pop\n      pop\n      pop\n      swap1\n      pop\n        /* \"Bloque_2/VOTACIONES/votaciones.sol\":1499:1645  function VerCandidatos() public view returns(string[] memory) {\r... */\n      swap1\n      jump\t// out\n        /* \"Bloque_2/VOTACIONES/votaciones.sol\":3018:3441  function VerResultados() public view returns(string memory) {\r... */\n    tag_24:\n        /* \"Bloque_2/VOTACIONES/votaciones.sol\":3063:3076  string memory */\n      0x60\n        /* \"Bloque_2/VOTACIONES/votaciones.sol\":3089:3113  string memory resultados */\n      dup1\n        /* \"Bloque_2/VOTACIONES/votaciones.sol\":3129:3135  uint i */\n      0x00\n        /* \"Bloque_2/VOTACIONES/votaciones.sol\":3138:3139  0 */\n      dup1\n        /* \"Bloque_2/VOTACIONES/votaciones.sol\":3129:3139  uint i = 0 */\n      swap1\n      pop\n        /* \"Bloque_2/VOTACIONES/votaciones.sol\":3124:3366  for (uint i = 0; i < candidatos.length; i++) {\r... */\n    tag_76:\n        /* \"Bloque_2/VOTACIONES/votaciones.sol\":3145:3155  candidatos */\n      0x03\n        /* \"Bloque_2/VOTACIONES/votaciones.sol\":3145:3162  candidatos.length */\n      dup1\n      sload\n      swap1\n      pop\n        /* \"Bloque_2/VOTACIONES/votaciones.sol\":3141:3142  i */\n      dup2\n        /* \"Bloque_2/VOTACIONES/votaciones.sol\":3141:3162  i < candidatos.length */\n      lt\n        /* \"Bloque_2/VOTACIONES/votaciones.sol\":3124:3366  for (uint i = 0; i < candidatos.length; i++) {\r... */\n      iszero\n      tag_77\n      jumpi\n        /* \"Bloque_2/VOTACIONES/votaciones.sol\":3274:3284  resultados */\n      dup2\n        /* \"Bloque_2/VOTACIONES/votaciones.sol\":3290:3300  candidatos */\n      0x03\n        /* \"Bloque_2/VOTACIONES/votaciones.sol\":3301:3302  i */\n      dup3\n        /* \"Bloque_2/VOTACIONES/votaciones.sol\":3290:3303  candidatos[i] */\n      dup2\n      sload\n      dup2\n      lt\n      tag_79\n      jumpi\n      invalid\n    tag_79:\n      swap1\n      0x00\n      mstore\n      keccak256(0x00, 0x20)\n      add\n        /* \"Bloque_2/VOTACIONES/votaciones.sol\":3310:3343  uint2str(VerVotos(candidatos[i])) */\n      tag_81\n        /* \"Bloque_2/VOTACIONES/votaciones.sol\":3319:3342  VerVotos(candidatos[i]) */\n      tag_82\n        /* \"Bloque_2/VOTACIONES/votaciones.sol\":3328:3338  candidatos */\n      0x03\n        /* \"Bloque_2/VOTACIONES/votaciones.sol\":3339:3340  i */\n      dup6\n        /* \"Bloque_2/VOTACIONES/votaciones.sol\":3328:3341  candidatos[i] */\n      dup2\n      sload\n      dup2\n      lt\n      tag_83\n      jumpi\n      invalid\n    tag_83:\n      swap1\n      0x00\n      mstore\n      keccak256(0x00, 0x20)\n      add\n        /* \"Bloque_2/VOTACIONES/votaciones.sol\":3319:3342  VerVotos(candidatos[i]) */\n      dup1\n      sload\n      0x01\n      dup2\n      0x01\n      and\n      iszero\n      0x0100\n      mul\n      sub\n      and\n      0x02\n      swap1\n      div\n      dup1\n      0x1f\n      add\n      0x20\n      dup1\n      swap2\n      div\n      mul\n      0x20\n      add\n      mload(0x40)\n      swap1\n      dup2\n      add\n      0x40\n      mstore\n      dup1\n      swap3\n      swap2\n      swap1\n      dup2\n      dup2\n      mstore\n      0x20\n      add\n      dup3\n      dup1\n      sload\n      0x01\n      dup2\n      0x01\n      and\n      iszero\n      0x0100\n      mul\n      sub\n      and\n      0x02\n      swap1\n      div\n      dup1\n      iszero\n      tag_85\n      jumpi\n      dup1\n      0x1f\n      lt\n      tag_86\n      jumpi\n      0x0100\n      dup1\n      dup4\n      sload\n      div\n      mul\n      dup4\n      mstore\n      swap2\n      0x20\n      add\n      swap2\n      jump(tag_85)\n    tag_86:\n      dup3\n      add\n      swap2\n      swap1\n      0x00\n      mstore\n      keccak256(0x00, 0x20)\n      swap1\n    tag_87:\n      dup2\n      sload\n      dup2\n      mstore\n      swap1\n      0x01\n      add\n      swap1\n      0x20\n      add\n      dup1\n      dup4\n      gt\n      tag_87\n      jumpi\n      dup3\n      swap1\n      sub\n      0x1f\n      and\n      dup3\n      add\n      swap2\n    tag_85:\n      pop\n      pop\n      pop\n      pop\n      pop\n        /* \"Bloque_2/VOTACIONES/votaciones.sol\":3319:3327  VerVotos */\n      tag_16\n        /* \"Bloque_2/VOTACIONES/votaciones.sol\":3319:3342  VerVotos(candidatos[i]) */\n      jump\t// in\n    tag_82:\n        /* \"Bloque_2/VOTACIONES/votaciones.sol\":3310:3318  uint2str */\n      tag_88\n        /* \"Bloque_2/VOTACIONES/votaciones.sol\":3310:3343  uint2str(VerVotos(candidatos[i])) */\n      jump\t// in\n    tag_81:\n        /* \"Bloque_2/VOTACIONES/votaciones.sol\":3257:3353  abi.encodePacked(resultados, \"(\",candidatos[i], \",\", uint2str(VerVotos(candidatos[i])), \")----\") */\n      add(0x20, mload(0x40))\n      tag_89\n      swap4\n      swap3\n      swap2\n      swap1\n      jump(tag_90)\n    tag_89:\n      mload(0x40)\n        /* \"--CODEGEN--\":49:53   */\n      0x20\n        /* \"--CODEGEN--\":39:46   */\n      dup2\n        /* \"--CODEGEN--\":30:37   */\n      dup4\n        /* \"--CODEGEN--\":26:47   */\n      sub\n        /* \"--CODEGEN--\":22:54   */\n      sub\n        /* \"--CODEGEN--\":13:20   */\n      dup2\n        /* \"--CODEGEN--\":6:55   */\n      mstore\n        /* \"Bloque_2/VOTACIONES/votaciones.sol\":3257:3353  abi.encodePacked(resultados, \"(\",candidatos[i], \",\", uint2str(VerVotos(candidatos[i])), \")----\") */\n      swap1\n      0x40\n      mstore\n        /* \"Bloque_2/VOTACIONES/votaciones.sol\":3237:3354  resultados = string(abi.encodePacked(resultados, \"(\",candidatos[i], \",\", uint2str(VerVotos(candidatos[i])), \")----\")) */\n      swap2\n      pop\n        /* \"Bloque_2/VOTACIONES/votaciones.sol\":3164:3167  i++ */\n      dup1\n      dup1\n      0x01\n      add\n      swap2\n      pop\n      pop\n        /* \"Bloque_2/VOTACIONES/votaciones.sol\":3124:3366  for (uint i = 0; i < candidatos.length; i++) {\r... */\n      jump(tag_76)\n    tag_77:\n      pop\n        /* \"Bloque_2/VOTACIONES/votaciones.sol\":3423:3433  resultados */\n      dup1\n        /* \"Bloque_2/VOTACIONES/votaciones.sol\":3416:3433  return resultados */\n      swap2\n      pop\n      pop\n        /* \"Bloque_2/VOTACIONES/votaciones.sol\":3018:3441  function VerResultados() public view returns(string memory) {\r... */\n      swap1\n      jump\t// out\n        /* \"Bloque_2/VOTACIONES/votaciones.sol\":984:1401  function Representar(string memory _nombre, uint _edad, string memory _id) public {\r... */\n    tag_29:\n        /* \"Bloque_2/VOTACIONES/votaciones.sol\":1121:1133  bytes32 hash */\n      0x00\n        /* \"Bloque_2/VOTACIONES/votaciones.sol\":1163:1170  _nombre */\n      dup4\n        /* \"Bloque_2/VOTACIONES/votaciones.sol\":1172:1177  _edad */\n      dup4\n        /* \"Bloque_2/VOTACIONES/votaciones.sol\":1179:1182  _id */\n      dup4\n        /* \"Bloque_2/VOTACIONES/votaciones.sol\":1146:1183  abi.encodePacked(_nombre, _edad, _id) */\n      add(0x20, mload(0x40))\n      tag_92\n      swap4\n      swap3\n      swap2\n      swap1\n      jump(tag_93)\n    tag_92:\n      mload(0x40)\n        /* \"--CODEGEN--\":49:53   */\n      0x20\n        /* \"--CODEGEN--\":39:46   */\n      dup2\n        /* \"--CODEGEN--\":30:37   */\n      dup4\n        /* \"--CODEGEN--\":26:47   */\n      sub\n        /* \"--CODEGEN--\":22:54   */\n      sub\n        /* \"--CODEGEN--\":13:20   */\n      dup2\n        /* \"--CODEGEN--\":6:55   */\n      mstore\n        /* \"Bloque_2/VOTACIONES/votaciones.sol\":1146:1183  abi.encodePacked(_nombre, _edad, _id) */\n      swap1\n      0x40\n      mstore\n        /* \"Bloque_2/VOTACIONES/votaciones.sol\":1136:1184  keccak256(abi.encodePacked(_nombre, _edad, _id)) */\n      dup1\n      mload\n      swap1\n      0x20\n      add\n      keccak256\n        /* \"Bloque_2/VOTACIONES/votaciones.sol\":1121:1184  bytes32 hash = keccak256(abi.encodePacked(_nombre, _edad, _id)) */\n      swap1\n      pop\n        /* \"Bloque_2/VOTACIONES/votaciones.sol\":1296:1300  hash */\n      dup1\n        /* \"Bloque_2/VOTACIONES/votaciones.sol\":1272:1284  ID_Candidato */\n      0x01\n        /* \"Bloque_2/VOTACIONES/votaciones.sol\":1285:1292  _nombre */\n      dup6\n        /* \"Bloque_2/VOTACIONES/votaciones.sol\":1272:1293  ID_Candidato[_nombre] */\n      mload(0x40)\n      tag_94\n      swap2\n      swap1\n      jump(tag_49)\n    tag_94:\n      swap1\n      dup2\n      mstore\n      0x20\n      add\n      mload(0x40)\n      dup1\n      swap2\n      sub\n      swap1\n      keccak256\n        /* \"Bloque_2/VOTACIONES/votaciones.sol\":1272:1300  ID_Candidato[_nombre] = hash */\n      dup2\n      swap1\n      sstore\n      pop\n        /* \"Bloque_2/VOTACIONES/votaciones.sol\":1369:1379  candidatos */\n      0x03\n        /* \"Bloque_2/VOTACIONES/votaciones.sol\":1385:1392  _nombre */\n      dup5\n        /* \"Bloque_2/VOTACIONES/votaciones.sol\":1369:1393  candidatos.push(_nombre) */\n      swap1\n      dup1\n        /* \"--CODEGEN--\":39:40   */\n      0x01\n        /* \"--CODEGEN--\":33:36   */\n      dup2\n        /* \"--CODEGEN--\":27:37   */\n      sload\n        /* \"--CODEGEN--\":23:41   */\n      add\n        /* \"--CODEGEN--\":57:67   */\n      dup1\n        /* \"--CODEGEN--\":52:55   */\n      dup3\n        /* \"--CODEGEN--\":45:68   */\n      sstore\n        /* \"--CODEGEN--\":79:89   */\n      dup1\n        /* \"--CODEGEN--\":72:89   */\n      swap2\n      pop\n        /* \"--CODEGEN--\":0:93   */\n      pop\n        /* \"Bloque_2/VOTACIONES/votaciones.sol\":1369:1393  candidatos.push(_nombre) */\n      0x01\n      swap1\n      sub\n      swap1\n      0x00\n      mstore\n      keccak256(0x00, 0x20)\n      add\n      0x00\n      swap1\n      swap2\n      swap1\n      swap2\n      swap1\n      swap2\n      pop\n      swap1\n      dup1\n      mload\n      swap1\n      0x20\n      add\n      swap1\n      tag_96\n      swap3\n      swap2\n      swap1\n      tag_97\n      jump\t// in\n    tag_96:\n      pop\n        /* \"Bloque_2/VOTACIONES/votaciones.sol\":984:1401  function Representar(string memory _nombre, uint _edad, string memory _id) public {\r... */\n      pop\n      pop\n      pop\n      pop\n      jump\t// out\n        /* \"Bloque_2/VOTACIONES/votaciones.sol\":1653:2224  function Votar(string memory _nombre) public {\r... */\n    tag_32:\n        /* \"Bloque_2/VOTACIONES/votaciones.sol\":1771:1791  bytes32 hash_votante */\n      0x00\n        /* \"Bloque_2/VOTACIONES/votaciones.sol\":1821:1831  msg.sender */\n      caller\n        /* \"Bloque_2/VOTACIONES/votaciones.sol\":1804:1832  abi.encodePacked(msg.sender) */\n      add(0x20, mload(0x40))\n      tag_99\n      swap2\n      swap1\n      jump(tag_100)\n    tag_99:\n      mload(0x40)\n        /* \"--CODEGEN--\":49:53   */\n      0x20\n        /* \"--CODEGEN--\":39:46   */\n      dup2\n        /* \"--CODEGEN--\":30:37   */\n      dup4\n        /* \"--CODEGEN--\":26:47   */\n      sub\n        /* \"--CODEGEN--\":22:54   */\n      sub\n        /* \"--CODEGEN--\":13:20   */\n      dup2\n        /* \"--CODEGEN--\":6:55   */\n      mstore\n        /* \"Bloque_2/VOTACIONES/votaciones.sol\":1804:1832  abi.encodePacked(msg.sender) */\n      swap1\n      0x40\n      mstore\n        /* \"Bloque_2/VOTACIONES/votaciones.sol\":1794:1833  keccak256(abi.encodePacked(msg.sender)) */\n      dup1\n      mload\n      swap1\n      0x20\n      add\n      keccak256\n        /* \"Bloque_2/VOTACIONES/votaciones.sol\":1771:1833  bytes32 hash_votante = keccak256(abi.encodePacked(msg.sender)) */\n      swap1\n      pop\n        /* \"Bloque_2/VOTACIONES/votaciones.sol\":1898:1904  uint i */\n      0x00\n        /* \"Bloque_2/VOTACIONES/votaciones.sol\":1907:1908  0 */\n      dup1\n        /* \"Bloque_2/VOTACIONES/votaciones.sol\":1898:1908  uint i = 0 */\n      swap1\n      pop\n        /* \"Bloque_2/VOTACIONES/votaciones.sol\":1893:2028  for (uint i = 0; i < votantes.length; i++) {\r... */\n    tag_101:\n        /* \"Bloque_2/VOTACIONES/votaciones.sol\":1914:1922  votantes */\n      0x04\n        /* \"Bloque_2/VOTACIONES/votaciones.sol\":1914:1929  votantes.length */\n      dup1\n      sload\n      swap1\n      pop\n        /* \"Bloque_2/VOTACIONES/votaciones.sol\":1910:1911  i */\n      dup2\n        /* \"Bloque_2/VOTACIONES/votaciones.sol\":1910:1929  i < votantes.length */\n      lt\n        /* \"Bloque_2/VOTACIONES/votaciones.sol\":1893:2028  for (uint i = 0; i < votantes.length; i++) {\r... */\n      iszero\n      tag_102\n      jumpi\n        /* \"Bloque_2/VOTACIONES/votaciones.sol\":1974:1986  hash_votante */\n      dup2\n        /* \"Bloque_2/VOTACIONES/votaciones.sol\":1959:1967  votantes */\n      0x04\n        /* \"Bloque_2/VOTACIONES/votaciones.sol\":1968:1969  i */\n      dup3\n        /* \"Bloque_2/VOTACIONES/votaciones.sol\":1959:1970  votantes[i] */\n      dup2\n      sload\n      dup2\n      lt\n      tag_104\n      jumpi\n      invalid\n    tag_104:\n      swap1\n      0x00\n      mstore\n      keccak256(0x00, 0x20)\n      add\n      sload\n        /* \"Bloque_2/VOTACIONES/votaciones.sol\":1959:1986  votantes[i] != hash_votante */\n      eq\n      iszero\n        /* \"Bloque_2/VOTACIONES/votaciones.sol\":1951:2016  require(votantes[i] != hash_votante, \"Ya has votado previamente\") */\n      tag_106\n      jumpi\n      mload(0x40)\n      0x08c379a000000000000000000000000000000000000000000000000000000000\n      dup2\n      mstore\n      0x04\n      add\n      tag_107\n      swap1\n      jump(tag_108)\n    tag_107:\n      mload(0x40)\n      dup1\n      swap2\n      sub\n      swap1\n      revert\n    tag_106:\n        /* \"Bloque_2/VOTACIONES/votaciones.sol\":1931:1934  i++ */\n      dup1\n      dup1\n      0x01\n      add\n      swap2\n      pop\n      pop\n        /* \"Bloque_2/VOTACIONES/votaciones.sol\":1893:2028  for (uint i = 0; i < votantes.length; i++) {\r... */\n      jump(tag_101)\n    tag_102:\n      pop\n        /* \"Bloque_2/VOTACIONES/votaciones.sol\":2092:2100  votantes */\n      0x04\n        /* \"Bloque_2/VOTACIONES/votaciones.sol\":2106:2118  hash_votante */\n      dup2\n        /* \"Bloque_2/VOTACIONES/votaciones.sol\":2092:2119  votantes.push(hash_votante) */\n      swap1\n      dup1\n        /* \"--CODEGEN--\":39:40   */\n      0x01\n        /* \"--CODEGEN--\":33:36   */\n      dup2\n        /* \"--CODEGEN--\":27:37   */\n      sload\n        /* \"--CODEGEN--\":23:41   */\n      add\n        /* \"--CODEGEN--\":57:67   */\n      dup1\n        /* \"--CODEGEN--\":52:55   */\n      dup3\n        /* \"--CODEGEN--\":45:68   */\n      sstore\n        /* \"--CODEGEN--\":79:89   */\n      dup1\n        /* \"--CODEGEN--\":72:89   */\n      swap2\n      pop\n        /* \"--CODEGEN--\":0:93   */\n      pop\n        /* \"Bloque_2/VOTACIONES/votaciones.sol\":2092:2119  votantes.push(hash_votante) */\n      0x01\n      swap1\n      sub\n      swap1\n      0x00\n      mstore\n      keccak256(0x00, 0x20)\n      add\n      0x00\n      swap1\n      swap2\n      swap1\n      swap2\n      swap1\n      swap2\n      pop\n      sstore\n        /* \"Bloque_2/VOTACIONES/votaciones.sol\":2190:2205  votos_candidato */\n      0x02\n        /* \"Bloque_2/VOTACIONES/votaciones.sol\":2206:2213  _nombre */\n      dup3\n        /* \"Bloque_2/VOTACIONES/votaciones.sol\":2190:2214  votos_candidato[_nombre] */\n      mload(0x40)\n      tag_110\n      swap2\n      swap1\n      jump(tag_49)\n    tag_110:\n      swap1\n      dup2\n      mstore\n      0x20\n      add\n      mload(0x40)\n      dup1\n      swap2\n      sub\n      swap1\n      keccak256\n      0x00\n        /* \"Bloque_2/VOTACIONES/votaciones.sol\":2190:2216  votos_candidato[_nombre]++ */\n      dup2\n      sload\n      dup1\n      swap3\n      swap2\n      swap1\n      0x01\n      add\n      swap2\n      swap1\n      pop\n      sstore\n      pop\n        /* \"Bloque_2/VOTACIONES/votaciones.sol\":1653:2224  function Votar(string memory _nombre) public {\r... */\n      pop\n      pop\n      jump\t// out\n        /* \"Bloque_2/VOTACIONES/votaciones.sol\":2488:2970  function uint2str(uint _i) internal pure returns (string memory _uintAsString) {\r... */\n    tag_88:\n        /* \"Bloque_2/VOTACIONES/votaciones.sol\":2538:2565  string memory _uintAsString */\n      0x60\n        /* \"Bloque_2/VOTACIONES/votaciones.sol\":2588:2589  0 */\n      0x00\n        /* \"Bloque_2/VOTACIONES/votaciones.sol\":2582:2584  _i */\n      dup3\n        /* \"Bloque_2/VOTACIONES/votaciones.sol\":2582:2589  _i == 0 */\n      eq\n        /* \"Bloque_2/VOTACIONES/votaciones.sol\":2578:2628  if (_i == 0) {\r... */\n      iszero\n      tag_112\n      jumpi\n        /* \"Bloque_2/VOTACIONES/votaciones.sol\":2606:2616  return \"0\" */\n      mload(0x40)\n      dup1\n      0x40\n      add\n      0x40\n      mstore\n      dup1\n      0x01\n      dup2\n      mstore\n      0x20\n      add\n      0x3000000000000000000000000000000000000000000000000000000000000000\n      dup2\n      mstore\n      pop\n      swap1\n      pop\n      jump(tag_111)\n        /* \"Bloque_2/VOTACIONES/votaciones.sol\":2578:2628  if (_i == 0) {\r... */\n    tag_112:\n        /* \"Bloque_2/VOTACIONES/votaciones.sol\":2638:2644  uint j */\n      0x00\n        /* \"Bloque_2/VOTACIONES/votaciones.sol\":2647:2649  _i */\n      dup3\n        /* \"Bloque_2/VOTACIONES/votaciones.sol\":2638:2649  uint j = _i */\n      swap1\n      pop\n        /* \"Bloque_2/VOTACIONES/votaciones.sol\":2660:2668  uint len */\n      0x00\n        /* \"Bloque_2/VOTACIONES/votaciones.sol\":2679:2748  while (j != 0) {\r... */\n    tag_113:\n        /* \"Bloque_2/VOTACIONES/votaciones.sol\":2691:2692  0 */\n      0x00\n        /* \"Bloque_2/VOTACIONES/votaciones.sol\":2686:2687  j */\n      dup3\n        /* \"Bloque_2/VOTACIONES/votaciones.sol\":2686:2692  j != 0 */\n      eq\n        /* \"Bloque_2/VOTACIONES/votaciones.sol\":2679:2748  while (j != 0) {\r... */\n      tag_114\n      jumpi\n        /* \"Bloque_2/VOTACIONES/votaciones.sol\":2709:2714  len++ */\n      dup1\n      dup1\n      0x01\n      add\n      swap2\n      pop\n      pop\n        /* \"Bloque_2/VOTACIONES/votaciones.sol\":2734:2736  10 */\n      0x0a\n        /* \"Bloque_2/VOTACIONES/votaciones.sol\":2729:2736  j /= 10 */\n      dup3\n      dup2\n      tag_115\n      jumpi\n      invalid\n    tag_115:\n      div\n      swap2\n      pop\n        /* \"Bloque_2/VOTACIONES/votaciones.sol\":2679:2748  while (j != 0) {\r... */\n      jump(tag_113)\n    tag_114:\n        /* \"Bloque_2/VOTACIONES/votaciones.sol\":2758:2775  bytes memory bstr */\n      0x60\n        /* \"Bloque_2/VOTACIONES/votaciones.sol\":2788:2791  len */\n      dup2\n        /* \"Bloque_2/VOTACIONES/votaciones.sol\":2778:2792  new bytes(len) */\n      mload(0x40)\n      swap1\n      dup1\n      dup3\n      mstore\n      dup1\n      0x1f\n      add\n      not(0x1f)\n      and\n      0x20\n      add\n      dup3\n      add\n      0x40\n      mstore\n      dup1\n      iszero\n      tag_116\n      jumpi\n      dup2\n      0x20\n      add\n        /* \"--CODEGEN--\":29:30   */\n      0x01\n        /* \"--CODEGEN--\":21:27   */\n      dup3\n        /* \"--CODEGEN--\":17:31   */\n      mul\n        /* \"--CODEGEN--\":116:120   */\n      dup1\n        /* \"--CODEGEN--\":104:114   */\n      codesize\n        /* \"--CODEGEN--\":96:102   */\n      dup4\n        /* \"--CODEGEN--\":87:121   */\n      codecopy\n        /* \"--CODEGEN--\":147:151   */\n      dup1\n        /* \"--CODEGEN--\":139:145   */\n      dup3\n        /* \"--CODEGEN--\":135:152   */\n      add\n        /* \"--CODEGEN--\":125:152   */\n      swap2\n      pop\n        /* \"--CODEGEN--\":0:156   */\n      pop\n        /* \"Bloque_2/VOTACIONES/votaciones.sol\":2778:2792  new bytes(len) */\n      swap1\n      pop\n    tag_116:\n      pop\n        /* \"Bloque_2/VOTACIONES/votaciones.sol\":2758:2792  bytes memory bstr = new bytes(len) */\n      swap1\n      pop\n        /* \"Bloque_2/VOTACIONES/votaciones.sol\":2803:2809  uint k */\n      0x00\n        /* \"Bloque_2/VOTACIONES/votaciones.sol\":2818:2819  1 */\n      0x01\n        /* \"Bloque_2/VOTACIONES/votaciones.sol\":2812:2815  len */\n      dup4\n        /* \"Bloque_2/VOTACIONES/votaciones.sol\":2812:2819  len - 1 */\n      sub\n        /* \"Bloque_2/VOTACIONES/votaciones.sol\":2803:2819  uint k = len - 1 */\n      swap1\n      pop\n        /* \"Bloque_2/VOTACIONES/votaciones.sol\":2830:2933  while (_i != 0) {\r... */\n    tag_117:\n        /* \"Bloque_2/VOTACIONES/votaciones.sol\":2843:2844  0 */\n      0x00\n        /* \"Bloque_2/VOTACIONES/votaciones.sol\":2837:2839  _i */\n      dup7\n        /* \"Bloque_2/VOTACIONES/votaciones.sol\":2837:2844  _i != 0 */\n      eq\n        /* \"Bloque_2/VOTACIONES/votaciones.sol\":2830:2933  while (_i != 0) {\r... */\n      tag_118\n      jumpi\n        /* \"Bloque_2/VOTACIONES/votaciones.sol\":2894:2896  10 */\n      0x0a\n        /* \"Bloque_2/VOTACIONES/votaciones.sol\":2889:2891  _i */\n      dup7\n        /* \"Bloque_2/VOTACIONES/votaciones.sol\":2889:2896  _i % 10 */\n      dup2\n      tag_119\n      jumpi\n      invalid\n    tag_119:\n      mod\n        /* \"Bloque_2/VOTACIONES/votaciones.sol\":2884:2886  48 */\n      0x30\n        /* \"Bloque_2/VOTACIONES/votaciones.sol\":2884:2896  48 + _i % 10 */\n      add\n        /* \"Bloque_2/VOTACIONES/votaciones.sol\":2873:2898  byte(uint8(48 + _i % 10)) */\n      0xf8\n      shl\n        /* \"Bloque_2/VOTACIONES/votaciones.sol\":2861:2865  bstr */\n      dup3\n        /* \"Bloque_2/VOTACIONES/votaciones.sol\":2866:2869  k-- */\n      dup3\n      dup1\n      0x01\n      swap1\n      sub\n      swap4\n      pop\n        /* \"Bloque_2/VOTACIONES/votaciones.sol\":2861:2870  bstr[k--] */\n      dup2\n      mload\n      dup2\n      lt\n      tag_120\n      jumpi\n      invalid\n    tag_120:\n      0x20\n      add\n      add\n        /* \"Bloque_2/VOTACIONES/votaciones.sol\":2861:2898  bstr[k--] = byte(uint8(48 + _i % 10)) */\n      swap1\n      not(0xffffffffffffffffffffffffffffffffffffffffffffffffffffffffffffff)\n      and\n      swap1\n      dup2\n      0x00\n      byte\n      swap1\n      mstore8\n      pop\n        /* \"Bloque_2/VOTACIONES/votaciones.sol\":2919:2921  10 */\n      0x0a\n        /* \"Bloque_2/VOTACIONES/votaciones.sol\":2913:2921  _i /= 10 */\n      dup7\n      dup2\n      tag_121\n      jumpi\n      invalid\n    tag_121:\n      div\n      swap6\n      pop\n        /* \"Bloque_2/VOTACIONES/votaciones.sol\":2830:2933  while (_i != 0) {\r... */\n      jump(tag_117)\n    tag_118:\n        /* \"Bloque_2/VOTACIONES/votaciones.sol\":2957:2961  bstr */\n      dup2\n        /* \"Bloque_2/VOTACIONES/votaciones.sol\":2943:2962  return string(bstr) */\n      swap5\n      pop\n      pop\n      pop\n      pop\n      pop\n        /* \"Bloque_2/VOTACIONES/votaciones.sol\":2488:2970  function uint2str(uint _i) internal pure returns (string memory _uintAsString) {\r... */\n    tag_111:\n      swap2\n      swap1\n      pop\n      jump\t// out\n        /* \"Bloque_2/VOTACIONES/votaciones.sol\":383:4466  contract votacion {\r... */\n    tag_97:\n      dup3\n      dup1\n      sload\n      0x01\n      dup2\n      0x01\n      and\n      iszero\n      0x0100\n      mul\n      sub\n      and\n      0x02\n      swap1\n      div\n      swap1\n      0x00\n      mstore\n      keccak256(0x00, 0x20)\n      swap1\n      0x1f\n      add\n      0x20\n      swap1\n      div\n      dup2\n      add\n      swap3\n      dup3\n      0x1f\n      lt\n      tag_123\n      jumpi\n      dup1\n      mload\n      not(0xff)\n      and\n      dup4\n      dup1\n      add\n      or\n      dup6\n      sstore\n      jump(tag_122)\n    tag_123:\n      dup3\n      dup1\n      add\n      0x01\n      add\n      dup6\n      sstore\n      dup3\n      iszero\n      tag_122\n      jumpi\n      swap2\n      dup3\n      add\n    tag_124:\n      dup3\n      dup2\n      gt\n      iszero\n      tag_125\n      jumpi\n      dup3\n      mload\n      dup3\n      sstore\n      swap2\n      0x20\n      add\n      swap2\n      swap1\n      0x01\n      add\n      swap1\n      jump(tag_124)\n    tag_125:\n    tag_122:\n      pop\n      swap1\n      pop\n      tag_126\n      swap2\n      swap1\n      tag_127\n      jump\t// in\n    tag_126:\n      pop\n      swap1\n      jump\t// out\n    tag_127:\n      tag_128\n      swap2\n      swap1\n    tag_129:\n      dup1\n      dup3\n      gt\n      iszero\n      tag_130\n      jumpi\n      0x00\n      dup2\n      0x00\n      swap1\n      sstore\n      pop\n      0x01\n      add\n      jump(tag_129)\n    tag_130:\n      pop\n      swap1\n      jump\n    tag_128:\n      swap1\n      jump\t// out\n        /* \"--CODEGEN--\":6:448   */\n    tag_132:\n      0x00\n        /* \"--CODEGEN--\":108:111   */\n      dup3\n        /* \"--CODEGEN--\":101:105   */\n      0x1f\n        /* \"--CODEGEN--\":93:99   */\n      dup4\n        /* \"--CODEGEN--\":89:106   */\n      add\n        /* \"--CODEGEN--\":85:112   */\n      slt\n        /* \"--CODEGEN--\":75:77   */\n      tag_134\n      jumpi\n        /* \"--CODEGEN--\":126:127   */\n      0x00\n        /* \"--CODEGEN--\":123:124   */\n      dup1\n        /* \"--CODEGEN--\":116:128   */\n      revert\n        /* \"--CODEGEN--\":75:77   */\n    tag_134:\n        /* \"--CODEGEN--\":163:169   */\n      dup2\n        /* \"--CODEGEN--\":150:170   */\n      calldataload\n        /* \"--CODEGEN--\":185:250   */\n      tag_135\n        /* \"--CODEGEN--\":200:249   */\n      tag_136\n        /* \"--CODEGEN--\":242:248   */\n      dup3\n        /* \"--CODEGEN--\":200:249   */\n      jump(tag_137)\n    tag_136:\n        /* \"--CODEGEN--\":185:250   */\n      jump(tag_138)\n    tag_135:\n        /* \"--CODEGEN--\":176:250   */\n      swap2\n      pop\n        /* \"--CODEGEN--\":270:276   */\n      dup1\n        /* \"--CODEGEN--\":263:268   */\n      dup3\n        /* \"--CODEGEN--\":256:277   */\n      mstore\n        /* \"--CODEGEN--\":306:310   */\n      0x20\n        /* \"--CODEGEN--\":298:304   */\n      dup4\n        /* \"--CODEGEN--\":294:311   */\n      add\n        /* \"--CODEGEN--\":339:343   */\n      0x20\n        /* \"--CODEGEN--\":332:337   */\n      dup4\n        /* \"--CODEGEN--\":328:344   */\n      add\n        /* \"--CODEGEN--\":374:377   */\n      dup6\n        /* \"--CODEGEN--\":365:371   */\n      dup4\n        /* \"--CODEGEN--\":360:363   */\n      dup4\n        /* \"--CODEGEN--\":356:372   */\n      add\n        /* \"--CODEGEN--\":353:378   */\n      gt\n        /* \"--CODEGEN--\":350:352   */\n      iszero\n      tag_139\n      jumpi\n        /* \"--CODEGEN--\":391:392   */\n      0x00\n        /* \"--CODEGEN--\":388:389   */\n      dup1\n        /* \"--CODEGEN--\":381:393   */\n      revert\n        /* \"--CODEGEN--\":350:352   */\n    tag_139:\n        /* \"--CODEGEN--\":401:442   */\n      tag_140\n        /* \"--CODEGEN--\":435:441   */\n      dup4\n        /* \"--CODEGEN--\":430:433   */\n      dup3\n        /* \"--CODEGEN--\":425:428   */\n      dup5\n        /* \"--CODEGEN--\":401:442   */\n      jump(tag_141)\n    tag_140:\n        /* \"--CODEGEN--\":68:448   */\n      pop\n      pop\n      pop\n      swap3\n      swap2\n      pop\n      pop\n      jump\n        /* \"--CODEGEN--\":456:586   */\n    tag_142:\n      0x00\n        /* \"--CODEGEN--\":536:542   */\n      dup2\n        /* \"--CODEGEN--\":523:543   */\n      calldataload\n        /* \"--CODEGEN--\":514:543   */\n      swap1\n      pop\n        /* \"--CODEGEN--\":548:581   */\n      tag_144\n        /* \"--CODEGEN--\":575:580   */\n      dup2\n        /* \"--CODEGEN--\":548:581   */\n      jump(tag_145)\n    tag_144:\n        /* \"--CODEGEN--\":508:586   */\n      swap3\n      swap2\n      pop\n      pop\n      jump\n        /* \"--CODEGEN--\":593:940   */\n    tag_15:\n      0x00\n        /* \"--CODEGEN--\":707:709   */\n      0x20\n        /* \"--CODEGEN--\":695:704   */\n      dup3\n        /* \"--CODEGEN--\":686:693   */\n      dup5\n        /* \"--CODEGEN--\":682:705   */\n      sub\n        /* \"--CODEGEN--\":678:710   */\n      slt\n        /* \"--CODEGEN--\":675:677   */\n      iszero\n      tag_147\n      jumpi\n        /* \"--CODEGEN--\":723:724   */\n      0x00\n        /* \"--CODEGEN--\":720:721   */\n      dup1\n        /* \"--CODEGEN--\":713:725   */\n      revert\n        /* \"--CODEGEN--\":675:677   */\n    tag_147:\n        /* \"--CODEGEN--\":786:787   */\n      0x00\n        /* \"--CODEGEN--\":775:784   */\n      dup3\n        /* \"--CODEGEN--\":771:788   */\n      add\n        /* \"--CODEGEN--\":758:789   */\n      calldataload\n        /* \"--CODEGEN--\":809:827   */\n      0xffffffffffffffff\n        /* \"--CODEGEN--\":801:807   */\n      dup2\n        /* \"--CODEGEN--\":798:828   */\n      gt\n        /* \"--CODEGEN--\":795:797   */\n      iszero\n      tag_148\n      jumpi\n        /* \"--CODEGEN--\":841:842   */\n      0x00\n        /* \"--CODEGEN--\":838:839   */\n      dup1\n        /* \"--CODEGEN--\":831:843   */\n      revert\n        /* \"--CODEGEN--\":795:797   */\n    tag_148:\n        /* \"--CODEGEN--\":861:924   */\n      tag_149\n        /* \"--CODEGEN--\":916:923   */\n      dup5\n        /* \"--CODEGEN--\":907:913   */\n      dup3\n        /* \"--CODEGEN--\":896:905   */\n      dup6\n        /* \"--CODEGEN--\":892:914   */\n      add\n        /* \"--CODEGEN--\":861:924   */\n      jump(tag_132)\n    tag_149:\n        /* \"--CODEGEN--\":851:924   */\n      swap2\n      pop\n        /* \"--CODEGEN--\":737:930   */\n      pop\n        /* \"--CODEGEN--\":669:940   */\n      swap3\n      swap2\n      pop\n      pop\n      jump\n        /* \"--CODEGEN--\":947:1650   */\n    tag_28:\n      0x00\n      dup1\n      0x00\n        /* \"--CODEGEN--\":1105:1107   */\n      0x60\n        /* \"--CODEGEN--\":1093:1102   */\n      dup5\n        /* \"--CODEGEN--\":1084:1091   */\n      dup7\n        /* \"--CODEGEN--\":1080:1103   */\n      sub\n        /* \"--CODEGEN--\":1076:1108   */\n      slt\n        /* \"--CODEGEN--\":1073:1075   */\n      iszero\n      tag_151\n      jumpi\n        /* \"--CODEGEN--\":1121:1122   */\n      0x00\n        /* \"--CODEGEN--\":1118:1119   */\n      dup1\n        /* \"--CODEGEN--\":1111:1123   */\n      revert\n        /* \"--CODEGEN--\":1073:1075   */\n    tag_151:\n        /* \"--CODEGEN--\":1184:1185   */\n      0x00\n        /* \"--CODEGEN--\":1173:1182   */\n      dup5\n        /* \"--CODEGEN--\":1169:1186   */\n      add\n        /* \"--CODEGEN--\":1156:1187   */\n      calldataload\n        /* \"--CODEGEN--\":1207:1225   */\n      0xffffffffffffffff\n        /* \"--CODEGEN--\":1199:1205   */\n      dup2\n        /* \"--CODEGEN--\":1196:1226   */\n      gt\n        /* \"--CODEGEN--\":1193:1195   */\n      iszero\n      tag_152\n      jumpi\n        /* \"--CODEGEN--\":1239:1240   */\n      0x00\n        /* \"--CODEGEN--\":1236:1237   */\n      dup1\n        /* \"--CODEGEN--\":1229:1241   */\n      revert\n        /* \"--CODEGEN--\":1193:1195   */\n    tag_152:\n        /* \"--CODEGEN--\":1259:1322   */\n      tag_153\n        /* \"--CODEGEN--\":1314:1321   */\n      dup7\n        /* \"--CODEGEN--\":1305:1311   */\n      dup3\n        /* \"--CODEGEN--\":1294:1303   */\n      dup8\n        /* \"--CODEGEN--\":1290:1312   */\n      add\n        /* \"--CODEGEN--\":1259:1322   */\n      jump(tag_132)\n    tag_153:\n        /* \"--CODEGEN--\":1249:1322   */\n      swap4\n      pop\n        /* \"--CODEGEN--\":1135:1328   */\n      pop\n        /* \"--CODEGEN--\":1359:1361   */\n      0x20\n        /* \"--CODEGEN--\":1377:1430   */\n      tag_154\n        /* \"--CODEGEN--\":1422:1429   */\n      dup7\n        /* \"--CODEGEN--\":1413:1419   */\n      dup3\n        /* \"--CODEGEN--\":1402:1411   */\n      dup8\n        /* \"--CODEGEN--\":1398:1420   */\n      add\n        /* \"--CODEGEN--\":1377:1430   */\n      jump(tag_142)\n    tag_154:\n        /* \"--CODEGEN--\":1367:1430   */\n      swap3\n      pop\n        /* \"--CODEGEN--\":1338:1436   */\n      pop\n        /* \"--CODEGEN--\":1495:1497   */\n      0x40\n        /* \"--CODEGEN--\":1484:1493   */\n      dup5\n        /* \"--CODEGEN--\":1480:1498   */\n      add\n        /* \"--CODEGEN--\":1467:1499   */\n      calldataload\n        /* \"--CODEGEN--\":1519:1537   */\n      0xffffffffffffffff\n        /* \"--CODEGEN--\":1511:1517   */\n      dup2\n        /* \"--CODEGEN--\":1508:1538   */\n      gt\n        /* \"--CODEGEN--\":1505:1507   */\n      iszero\n      tag_155\n      jumpi\n        /* \"--CODEGEN--\":1551:1552   */\n      0x00\n        /* \"--CODEGEN--\":1548:1549   */\n      dup1\n        /* \"--CODEGEN--\":1541:1553   */\n      revert\n        /* \"--CODEGEN--\":1505:1507   */\n    tag_155:\n        /* \"--CODEGEN--\":1571:1634   */\n      tag_156\n        /* \"--CODEGEN--\":1626:1633   */\n      dup7\n        /* \"--CODEGEN--\":1617:1623   */\n      dup3\n        /* \"--CODEGEN--\":1606:1615   */\n      dup8\n        /* \"--CODEGEN--\":1602:1624   */\n      add\n        /* \"--CODEGEN--\":1571:1634   */\n      jump(tag_132)\n    tag_156:\n        /* \"--CODEGEN--\":1561:1634   */\n      swap2\n      pop\n        /* \"--CODEGEN--\":1446:1640   */\n      pop\n        /* \"--CODEGEN--\":1067:1650   */\n      swap3\n      pop\n      swap3\n      pop\n      swap3\n      jump\n        /* \"--CODEGEN--\":1658:1839   */\n    tag_157:\n      0x00\n        /* \"--CODEGEN--\":1771:1833   */\n      tag_159\n        /* \"--CODEGEN--\":1829:1832   */\n      dup4\n        /* \"--CODEGEN--\":1821:1827   */\n      dup4\n        /* \"--CODEGEN--\":1771:1833   */\n      jump(tag_160)\n    tag_159:\n        /* \"--CODEGEN--\":1757:1833   */\n      swap1\n      pop\n        /* \"--CODEGEN--\":1750:1839   */\n      swap3\n      swap2\n      pop\n      pop\n      jump\n        /* \"--CODEGEN--\":1847:2031   */\n    tag_161:\n        /* \"--CODEGEN--\":1964:2025   */\n      tag_163\n        /* \"--CODEGEN--\":1992:2024   */\n      tag_164\n        /* \"--CODEGEN--\":2018:2023   */\n      dup3\n        /* \"--CODEGEN--\":1992:2024   */\n      jump(tag_165)\n    tag_164:\n        /* \"--CODEGEN--\":1964:2025   */\n      jump(tag_166)\n    tag_163:\n        /* \"--CODEGEN--\":1959:1962   */\n      dup3\n        /* \"--CODEGEN--\":1952:2026   */\n      mstore\n        /* \"--CODEGEN--\":1946:2031   */\n      pop\n      pop\n      jump\n        /* \"--CODEGEN--\":2067:2963   */\n    tag_167:\n      0x00\n        /* \"--CODEGEN--\":2224:2284   */\n      tag_169\n        /* \"--CODEGEN--\":2278:2283   */\n      dup3\n        /* \"--CODEGEN--\":2224:2284   */\n      jump(tag_170)\n    tag_169:\n        /* \"--CODEGEN--\":2297:2389   */\n      tag_171\n        /* \"--CODEGEN--\":2382:2388   */\n      dup2\n        /* \"--CODEGEN--\":2377:2380   */\n      dup6\n        /* \"--CODEGEN--\":2297:2389   */\n      jump(tag_172)\n    tag_171:\n        /* \"--CODEGEN--\":2290:2389   */\n      swap4\n      pop\n        /* \"--CODEGEN--\":2412:2415   */\n      dup4\n        /* \"--CODEGEN--\":2454:2458   */\n      0x20\n        /* \"--CODEGEN--\":2446:2452   */\n      dup3\n        /* \"--CODEGEN--\":2442:2459   */\n      mul\n        /* \"--CODEGEN--\":2437:2440   */\n      dup6\n        /* \"--CODEGEN--\":2433:2460   */\n      add\n        /* \"--CODEGEN--\":2481:2543   */\n      tag_173\n        /* \"--CODEGEN--\":2537:2542   */\n      dup6\n        /* \"--CODEGEN--\":2481:2543   */\n      jump(tag_174)\n    tag_173:\n        /* \"--CODEGEN--\":2563:2570   */\n      dup1\n        /* \"--CODEGEN--\":2591:2592   */\n      0x00\n        /* \"--CODEGEN--\":2576:2924   */\n    tag_175:\n        /* \"--CODEGEN--\":2601:2607   */\n      dup6\n        /* \"--CODEGEN--\":2598:2599   */\n      dup2\n        /* \"--CODEGEN--\":2595:2608   */\n      lt\n        /* \"--CODEGEN--\":2576:2924   */\n      iszero\n      tag_177\n      jumpi\n        /* \"--CODEGEN--\":2663:2672   */\n      dup5\n        /* \"--CODEGEN--\":2657:2661   */\n      dup5\n        /* \"--CODEGEN--\":2653:2673   */\n      sub\n        /* \"--CODEGEN--\":2648:2651   */\n      dup10\n        /* \"--CODEGEN--\":2641:2674   */\n      mstore\n        /* \"--CODEGEN--\":2708:2714   */\n      dup2\n        /* \"--CODEGEN--\":2702:2715   */\n      mload\n        /* \"--CODEGEN--\":2730:2806   */\n      tag_178\n        /* \"--CODEGEN--\":2801:2805   */\n      dup6\n        /* \"--CODEGEN--\":2786:2799   */\n      dup3\n        /* \"--CODEGEN--\":2730:2806   */\n      jump(tag_157)\n    tag_178:\n        /* \"--CODEGEN--\":2722:2806   */\n      swap5\n      pop\n        /* \"--CODEGEN--\":2823:2889   */\n      tag_179\n        /* \"--CODEGEN--\":2882:2888   */\n      dup4\n        /* \"--CODEGEN--\":2823:2889   */\n      jump(tag_180)\n    tag_179:\n        /* \"--CODEGEN--\":2813:2889   */\n      swap3\n      pop\n        /* \"--CODEGEN--\":2912:2916   */\n      0x20\n        /* \"--CODEGEN--\":2907:2910   */\n      dup11\n        /* \"--CODEGEN--\":2903:2917   */\n      add\n        /* \"--CODEGEN--\":2896:2917   */\n      swap10\n      pop\n        /* \"--CODEGEN--\":2633:2924   */\n      pop\n        /* \"--CODEGEN--\":2623:2624   */\n      0x01\n        /* \"--CODEGEN--\":2620:2621   */\n      dup2\n        /* \"--CODEGEN--\":2616:2625   */\n      add\n        /* \"--CODEGEN--\":2611:2625   */\n      swap1\n      pop\n        /* \"--CODEGEN--\":2576:2924   */\n      jump(tag_175)\n    tag_177:\n        /* \"--CODEGEN--\":2580:2594   */\n      pop\n        /* \"--CODEGEN--\":2937:2941   */\n      dup3\n        /* \"--CODEGEN--\":2930:2941   */\n      swap8\n      pop\n        /* \"--CODEGEN--\":2954:2957   */\n      dup8\n        /* \"--CODEGEN--\":2947:2957   */\n      swap6\n      pop\n        /* \"--CODEGEN--\":2203:2963   */\n      pop\n      pop\n      pop\n      pop\n      pop\n      swap3\n      swap2\n      pop\n      pop\n      jump\n        /* \"--CODEGEN--\":2971:3318   */\n    tag_181:\n      0x00\n        /* \"--CODEGEN--\":3083:3122   */\n      tag_183\n        /* \"--CODEGEN--\":3116:3121   */\n      dup3\n        /* \"--CODEGEN--\":3083:3122   */\n      jump(tag_184)\n    tag_183:\n        /* \"--CODEGEN--\":3134:3205   */\n      tag_185\n        /* \"--CODEGEN--\":3198:3204   */\n      dup2\n        /* \"--CODEGEN--\":3193:3196   */\n      dup6\n        /* \"--CODEGEN--\":3134:3205   */\n      jump(tag_186)\n    tag_185:\n        /* \"--CODEGEN--\":3127:3205   */\n      swap4\n      pop\n        /* \"--CODEGEN--\":3210:3262   */\n      tag_187\n        /* \"--CODEGEN--\":3255:3261   */\n      dup2\n        /* \"--CODEGEN--\":3250:3253   */\n      dup6\n        /* \"--CODEGEN--\":3243:3247   */\n      0x20\n        /* \"--CODEGEN--\":3236:3241   */\n      dup7\n        /* \"--CODEGEN--\":3232:3248   */\n      add\n        /* \"--CODEGEN--\":3210:3262   */\n      jump(tag_188)\n    tag_187:\n        /* \"--CODEGEN--\":3283:3312   */\n      tag_189\n        /* \"--CODEGEN--\":3305:3311   */\n      dup2\n        /* \"--CODEGEN--\":3283:3312   */\n      jump(tag_190)\n    tag_189:\n        /* \"--CODEGEN--\":3278:3281   */\n      dup5\n        /* \"--CODEGEN--\":3274:3313   */\n      add\n        /* \"--CODEGEN--\":3267:3313   */\n      swap2\n      pop\n        /* \"--CODEGEN--\":3063:3318   */\n      pop\n      swap3\n      swap2\n      pop\n      pop\n      jump\n        /* \"--CODEGEN--\":3325:3685   */\n    tag_191:\n      0x00\n        /* \"--CODEGEN--\":3455:3494   */\n      tag_193\n        /* \"--CODEGEN--\":3488:3493   */\n      dup3\n        /* \"--CODEGEN--\":3455:3494   */\n      jump(tag_184)\n    tag_193:\n        /* \"--CODEGEN--\":3506:3595   */\n      tag_194\n        /* \"--CODEGEN--\":3588:3594   */\n      dup2\n        /* \"--CODEGEN--\":3583:3586   */\n      dup6\n        /* \"--CODEGEN--\":3506:3595   */\n      jump(tag_195)\n    tag_194:\n        /* \"--CODEGEN--\":3499:3595   */\n      swap4\n      pop\n        /* \"--CODEGEN--\":3600:3652   */\n      tag_196\n        /* \"--CODEGEN--\":3645:3651   */\n      dup2\n        /* \"--CODEGEN--\":3640:3643   */\n      dup6\n        /* \"--CODEGEN--\":3633:3637   */\n      0x20\n        /* \"--CODEGEN--\":3626:3631   */\n      dup7\n        /* \"--CODEGEN--\":3622:3638   */\n      add\n        /* \"--CODEGEN--\":3600:3652   */\n      jump(tag_188)\n    tag_196:\n        /* \"--CODEGEN--\":3673:3679   */\n      dup1\n        /* \"--CODEGEN--\":3668:3671   */\n      dup5\n        /* \"--CODEGEN--\":3664:3680   */\n      add\n        /* \"--CODEGEN--\":3657:3680   */\n      swap2\n      pop\n        /* \"--CODEGEN--\":3435:3685   */\n      pop\n      swap3\n      swap2\n      pop\n      pop\n      jump\n        /* \"--CODEGEN--\":3692:4011   */\n    tag_160:\n      0x00\n        /* \"--CODEGEN--\":3790:3825   */\n      tag_198\n        /* \"--CODEGEN--\":3819:3824   */\n      dup3\n        /* \"--CODEGEN--\":3790:3825   */\n      jump(tag_199)\n    tag_198:\n        /* \"--CODEGEN--\":3837:3898   */\n      tag_200\n        /* \"--CODEGEN--\":3891:3897   */\n      dup2\n        /* \"--CODEGEN--\":3886:3889   */\n      dup6\n        /* \"--CODEGEN--\":3837:3898   */\n      jump(tag_201)\n    tag_200:\n        /* \"--CODEGEN--\":3830:3898   */\n      swap4\n      pop\n        /* \"--CODEGEN--\":3903:3955   */\n      tag_202\n        /* \"--CODEGEN--\":3948:3954   */\n      dup2\n        /* \"--CODEGEN--\":3943:3946   */\n      dup6\n        /* \"--CODEGEN--\":3936:3940   */\n      0x20\n        /* \"--CODEGEN--\":3929:3934   */\n      dup7\n        /* \"--CODEGEN--\":3925:3941   */\n      add\n        /* \"--CODEGEN--\":3903:3955   */\n      jump(tag_188)\n    tag_202:\n        /* \"--CODEGEN--\":3976:4005   */\n      tag_203\n        /* \"--CODEGEN--\":3998:4004   */\n      dup2\n        /* \"--CODEGEN--\":3976:4005   */\n      jump(tag_190)\n    tag_203:\n        /* \"--CODEGEN--\":3971:3974   */\n      dup5\n        /* \"--CODEGEN--\":3967:4006   */\n      add\n        /* \"--CODEGEN--\":3960:4006   */\n      swap2\n      pop\n        /* \"--CODEGEN--\":3770:4011   */\n      pop\n      swap3\n      swap2\n      pop\n      pop\n      jump\n        /* \"--CODEGEN--\":4043:4927   */\n    tag_204:\n      0x00\n        /* \"--CODEGEN--\":4180:4185   */\n      dup2\n        /* \"--CODEGEN--\":4174:4186   */\n      sload\n        /* \"--CODEGEN--\":4214:4215   */\n      0x01\n        /* \"--CODEGEN--\":4203:4212   */\n      dup2\n        /* \"--CODEGEN--\":4199:4216   */\n      and\n        /* \"--CODEGEN--\":4227:4228   */\n      0x00\n        /* \"--CODEGEN--\":4222:4490   */\n      dup2\n      eq\n      tag_207\n      jumpi\n        /* \"--CODEGEN--\":4501:4502   */\n      0x01\n        /* \"--CODEGEN--\":4496:4921   */\n      dup2\n      eq\n      tag_208\n      jumpi\n        /* \"--CODEGEN--\":4192:4921   */\n      jump(tag_206)\n        /* \"--CODEGEN--\":4222:4490   */\n    tag_207:\n        /* \"--CODEGEN--\":4300:4304   */\n      0x7f\n        /* \"--CODEGEN--\":4296:4297   */\n      0x02\n        /* \"--CODEGEN--\":4285:4294   */\n      dup4\n        /* \"--CODEGEN--\":4281:4298   */\n      div\n        /* \"--CODEGEN--\":4277:4305   */\n      and\n        /* \"--CODEGEN--\":4319:4408   */\n      tag_209\n        /* \"--CODEGEN--\":4401:4407   */\n      dup2\n        /* \"--CODEGEN--\":4396:4399   */\n      dup8\n        /* \"--CODEGEN--\":4319:4408   */\n      jump(tag_195)\n    tag_209:\n        /* \"--CODEGEN--\":4312:4408   */\n      swap6\n      pop\n        /* \"--CODEGEN--\":4446:4450   */\n      0xff\n        /* \"--CODEGEN--\":4442:4451   */\n      not\n        /* \"--CODEGEN--\":4431:4440   */\n      dup4\n        /* \"--CODEGEN--\":4427:4452   */\n      and\n        /* \"--CODEGEN--\":4422:4425   */\n      dup7\n        /* \"--CODEGEN--\":4415:4453   */\n      mstore\n        /* \"--CODEGEN--\":4476:4482   */\n      dup1\n        /* \"--CODEGEN--\":4471:4474   */\n      dup7\n        /* \"--CODEGEN--\":4467:4483   */\n      add\n        /* \"--CODEGEN--\":4460:4483   */\n      swap4\n      pop\n        /* \"--CODEGEN--\":4229:4490   */\n      pop\n        /* \"--CODEGEN--\":4222:4490   */\n      jump(tag_206)\n        /* \"--CODEGEN--\":4496:4921   */\n    tag_208:\n        /* \"--CODEGEN--\":4565:4566   */\n      0x02\n        /* \"--CODEGEN--\":4554:4563   */\n      dup3\n        /* \"--CODEGEN--\":4550:4567   */\n      div\n        /* \"--CODEGEN--\":4581:4670   */\n      tag_210\n        /* \"--CODEGEN--\":4663:4669   */\n      dup2\n        /* \"--CODEGEN--\":4658:4661   */\n      dup8\n        /* \"--CODEGEN--\":4581:4670   */\n      jump(tag_195)\n    tag_210:\n        /* \"--CODEGEN--\":4574:4670   */\n      swap6\n      pop\n        /* \"--CODEGEN--\":4692:4730   */\n      tag_211\n        /* \"--CODEGEN--\":4724:4729   */\n      dup6\n        /* \"--CODEGEN--\":4692:4730   */\n      jump(tag_212)\n    tag_211:\n        /* \"--CODEGEN--\":4746:4747   */\n      0x00\n        /* \"--CODEGEN--\":4754:4884   */\n    tag_213:\n        /* \"--CODEGEN--\":4768:4774   */\n      dup3\n        /* \"--CODEGEN--\":4765:4766   */\n      dup2\n        /* \"--CODEGEN--\":4762:4775   */\n      lt\n        /* \"--CODEGEN--\":4754:4884   */\n      iszero\n      tag_215\n      jumpi\n        /* \"--CODEGEN--\":4833:4840   */\n      dup2\n        /* \"--CODEGEN--\":4827:4841   */\n      sload\n        /* \"--CODEGEN--\":4823:4824   */\n      dup2\n        /* \"--CODEGEN--\":4818:4821   */\n      dup10\n        /* \"--CODEGEN--\":4814:4825   */\n      add\n        /* \"--CODEGEN--\":4807:4842   */\n      mstore\n        /* \"--CODEGEN--\":4874:4875   */\n      0x01\n        /* \"--CODEGEN--\":4865:4872   */\n      dup3\n        /* \"--CODEGEN--\":4861:4876   */\n      add\n        /* \"--CODEGEN--\":4850:4876   */\n      swap2\n      pop\n        /* \"--CODEGEN--\":4790:4794   */\n      0x20\n        /* \"--CODEGEN--\":4787:4788   */\n      dup2\n        /* \"--CODEGEN--\":4783:4795   */\n      add\n        /* \"--CODEGEN--\":4778:4795   */\n      swap1\n      pop\n        /* \"--CODEGEN--\":4754:4884   */\n      jump(tag_213)\n    tag_215:\n        /* \"--CODEGEN--\":4907:4913   */\n      dup3\n        /* \"--CODEGEN--\":4902:4905   */\n      dup9\n        /* \"--CODEGEN--\":4898:4914   */\n      add\n        /* \"--CODEGEN--\":4891:4914   */\n      swap6\n      pop\n        /* \"--CODEGEN--\":4503:4921   */\n      pop\n      pop\n      pop\n        /* \"--CODEGEN--\":4192:4921   */\n    tag_206:\n      pop\n        /* \"--CODEGEN--\":4150:4927   */\n      pop\n      swap3\n      swap2\n      pop\n      pop\n      jump\n        /* \"--CODEGEN--\":4936:5271   */\n    tag_216:\n      0x00\n        /* \"--CODEGEN--\":5114:5198   */\n      tag_218\n        /* \"--CODEGEN--\":5196:5197   */\n      0x01\n        /* \"--CODEGEN--\":5191:5194   */\n      dup4\n        /* \"--CODEGEN--\":5114:5198   */\n      jump(tag_195)\n    tag_218:\n        /* \"--CODEGEN--\":5107:5198   */\n      swap2\n      pop\n        /* \"--CODEGEN--\":5231:5234   */\n      0x2c00000000000000000000000000000000000000000000000000000000000000\n        /* \"--CODEGEN--\":5227:5228   */\n      0x00\n        /* \"--CODEGEN--\":5222:5225   */\n      dup4\n        /* \"--CODEGEN--\":5218:5229   */\n      add\n        /* \"--CODEGEN--\":5211:5235   */\n      mstore\n        /* \"--CODEGEN--\":5263:5264   */\n      0x01\n        /* \"--CODEGEN--\":5258:5261   */\n      dup3\n        /* \"--CODEGEN--\":5254:5265   */\n      add\n        /* \"--CODEGEN--\":5247:5265   */\n      swap1\n      pop\n        /* \"--CODEGEN--\":5100:5271   */\n      swap2\n      swap1\n      pop\n      jump\n        /* \"--CODEGEN--\":5280:5615   */\n    tag_219:\n      0x00\n        /* \"--CODEGEN--\":5458:5542   */\n      tag_221\n        /* \"--CODEGEN--\":5540:5541   */\n      0x01\n        /* \"--CODEGEN--\":5535:5538   */\n      dup4\n        /* \"--CODEGEN--\":5458:5542   */\n      jump(tag_195)\n    tag_221:\n        /* \"--CODEGEN--\":5451:5542   */\n      swap2\n      pop\n        /* \"--CODEGEN--\":5575:5578   */\n      0x2800000000000000000000000000000000000000000000000000000000000000\n        /* \"--CODEGEN--\":5571:5572   */\n      0x00\n        /* \"--CODEGEN--\":5566:5569   */\n      dup4\n        /* \"--CODEGEN--\":5562:5573   */\n      add\n        /* \"--CODEGEN--\":5555:5579   */\n      mstore\n        /* \"--CODEGEN--\":5607:5608   */\n      0x01\n        /* \"--CODEGEN--\":5602:5605   */\n      dup3\n        /* \"--CODEGEN--\":5598:5609   */\n      add\n        /* \"--CODEGEN--\":5591:5609   */\n      swap1\n      pop\n        /* \"--CODEGEN--\":5444:5615   */\n      swap2\n      swap1\n      pop\n      jump\n        /* \"--CODEGEN--\":5624:5963   */\n    tag_222:\n      0x00\n        /* \"--CODEGEN--\":5802:5886   */\n      tag_224\n        /* \"--CODEGEN--\":5884:5885   */\n      0x05\n        /* \"--CODEGEN--\":5879:5882   */\n      dup4\n        /* \"--CODEGEN--\":5802:5886   */\n      jump(tag_195)\n    tag_224:\n        /* \"--CODEGEN--\":5795:5886   */\n      swap2\n      pop\n        /* \"--CODEGEN--\":5919:5926   */\n      0x292d2d2d2d000000000000000000000000000000000000000000000000000000\n        /* \"--CODEGEN--\":5915:5916   */\n      0x00\n        /* \"--CODEGEN--\":5910:5913   */\n      dup4\n        /* \"--CODEGEN--\":5906:5917   */\n      add\n        /* \"--CODEGEN--\":5899:5927   */\n      mstore\n        /* \"--CODEGEN--\":5955:5956   */\n      0x05\n        /* \"--CODEGEN--\":5950:5953   */\n      dup3\n        /* \"--CODEGEN--\":5946:5957   */\n      add\n        /* \"--CODEGEN--\":5939:5957   */\n      swap1\n      pop\n        /* \"--CODEGEN--\":5788:5963   */\n      swap2\n      swap1\n      pop\n      jump\n        /* \"--CODEGEN--\":5972:6297   */\n    tag_225:\n      0x00\n        /* \"--CODEGEN--\":6132:6199   */\n      tag_227\n        /* \"--CODEGEN--\":6196:6198   */\n      0x19\n        /* \"--CODEGEN--\":6191:6194   */\n      dup4\n        /* \"--CODEGEN--\":6132:6199   */\n      jump(tag_186)\n    tag_227:\n        /* \"--CODEGEN--\":6125:6199   */\n      swap2\n      pop\n        /* \"--CODEGEN--\":6232:6259   */\n      0x59612068617320766f7461646f207072657669616d656e746500000000000000\n        /* \"--CODEGEN--\":6228:6229   */\n      0x00\n        /* \"--CODEGEN--\":6223:6226   */\n      dup4\n        /* \"--CODEGEN--\":6219:6230   */\n      add\n        /* \"--CODEGEN--\":6212:6260   */\n      mstore\n        /* \"--CODEGEN--\":6288:6290   */\n      0x20\n        /* \"--CODEGEN--\":6283:6286   */\n      dup3\n        /* \"--CODEGEN--\":6279:6291   */\n      add\n        /* \"--CODEGEN--\":6272:6291   */\n      swap1\n      pop\n        /* \"--CODEGEN--\":6118:6297   */\n      swap2\n      swap1\n      pop\n      jump\n        /* \"--CODEGEN--\":6305:6418   */\n    tag_228:\n        /* \"--CODEGEN--\":6388:6412   */\n      tag_230\n        /* \"--CODEGEN--\":6406:6411   */\n      dup2\n        /* \"--CODEGEN--\":6388:6412   */\n      jump(tag_231)\n    tag_230:\n        /* \"--CODEGEN--\":6383:6386   */\n      dup3\n        /* \"--CODEGEN--\":6376:6413   */\n      mstore\n        /* \"--CODEGEN--\":6370:6418   */\n      pop\n      pop\n      jump\n        /* \"--CODEGEN--\":6425:6577   */\n    tag_232:\n        /* \"--CODEGEN--\":6526:6571   */\n      tag_234\n        /* \"--CODEGEN--\":6546:6570   */\n      tag_235\n        /* \"--CODEGEN--\":6564:6569   */\n      dup3\n        /* \"--CODEGEN--\":6546:6570   */\n      jump(tag_231)\n    tag_235:\n        /* \"--CODEGEN--\":6526:6571   */\n      jump(tag_236)\n    tag_234:\n        /* \"--CODEGEN--\":6521:6524   */\n      dup3\n        /* \"--CODEGEN--\":6514:6572   */\n      mstore\n        /* \"--CODEGEN--\":6508:6577   */\n      pop\n      pop\n      jump\n        /* \"--CODEGEN--\":6584:6860   */\n    tag_100:\n      0x00\n        /* \"--CODEGEN--\":6719:6810   */\n      tag_238\n        /* \"--CODEGEN--\":6806:6809   */\n      dup3\n        /* \"--CODEGEN--\":6797:6803   */\n      dup5\n        /* \"--CODEGEN--\":6719:6810   */\n      jump(tag_161)\n    tag_238:\n        /* \"--CODEGEN--\":6832:6834   */\n      0x14\n        /* \"--CODEGEN--\":6827:6830   */\n      dup3\n        /* \"--CODEGEN--\":6823:6835   */\n      add\n        /* \"--CODEGEN--\":6816:6835   */\n      swap2\n      pop\n        /* \"--CODEGEN--\":6852:6855   */\n      dup2\n        /* \"--CODEGEN--\":6845:6855   */\n      swap1\n      pop\n        /* \"--CODEGEN--\":6707:6860   */\n      swap3\n      swap2\n      pop\n      pop\n      jump\n        /* \"--CODEGEN--\":6867:7133   */\n    tag_49:\n      0x00\n        /* \"--CODEGEN--\":7013:7108   */\n      tag_240\n        /* \"--CODEGEN--\":7104:7107   */\n      dup3\n        /* \"--CODEGEN--\":7095:7101   */\n      dup5\n        /* \"--CODEGEN--\":7013:7108   */\n      jump(tag_191)\n    tag_240:\n        /* \"--CODEGEN--\":7006:7108   */\n      swap2\n      pop\n        /* \"--CODEGEN--\":7125:7128   */\n      dup2\n        /* \"--CODEGEN--\":7118:7128   */\n      swap1\n      pop\n        /* \"--CODEGEN--\":6994:7133   */\n      swap3\n      swap2\n      pop\n      pop\n      jump\n        /* \"--CODEGEN--\":7140:8523   */\n    tag_90:\n      0x00\n        /* \"--CODEGEN--\":7682:7777   */\n      tag_242\n        /* \"--CODEGEN--\":7773:7776   */\n      dup3\n        /* \"--CODEGEN--\":7764:7770   */\n      dup7\n        /* \"--CODEGEN--\":7682:7777   */\n      jump(tag_191)\n    tag_242:\n        /* \"--CODEGEN--\":7675:7777   */\n      swap2\n      pop\n        /* \"--CODEGEN--\":7795:7943   */\n      tag_243\n        /* \"--CODEGEN--\":7939:7942   */\n      dup3\n        /* \"--CODEGEN--\":7795:7943   */\n      jump(tag_219)\n    tag_243:\n        /* \"--CODEGEN--\":7788:7943   */\n      swap2\n      pop\n        /* \"--CODEGEN--\":7961:8053   */\n      tag_244\n        /* \"--CODEGEN--\":8049:8052   */\n      dup3\n        /* \"--CODEGEN--\":8040:8046   */\n      dup6\n        /* \"--CODEGEN--\":7961:8053   */\n      jump(tag_204)\n    tag_244:\n        /* \"--CODEGEN--\":7954:8053   */\n      swap2\n      pop\n        /* \"--CODEGEN--\":8071:8219   */\n      tag_245\n        /* \"--CODEGEN--\":8215:8218   */\n      dup3\n        /* \"--CODEGEN--\":8071:8219   */\n      jump(tag_216)\n    tag_245:\n        /* \"--CODEGEN--\":8064:8219   */\n      swap2\n      pop\n        /* \"--CODEGEN--\":8237:8332   */\n      tag_246\n        /* \"--CODEGEN--\":8328:8331   */\n      dup3\n        /* \"--CODEGEN--\":8319:8325   */\n      dup5\n        /* \"--CODEGEN--\":8237:8332   */\n      jump(tag_191)\n    tag_246:\n        /* \"--CODEGEN--\":8230:8332   */\n      swap2\n      pop\n        /* \"--CODEGEN--\":8350:8498   */\n      tag_247\n        /* \"--CODEGEN--\":8494:8497   */\n      dup3\n        /* \"--CODEGEN--\":8350:8498   */\n      jump(tag_222)\n    tag_247:\n        /* \"--CODEGEN--\":8343:8498   */\n      swap2\n      pop\n        /* \"--CODEGEN--\":8515:8518   */\n      dup2\n        /* \"--CODEGEN--\":8508:8518   */\n      swap1\n      pop\n        /* \"--CODEGEN--\":7663:8523   */\n      swap5\n      swap4\n      pop\n      pop\n      pop\n      pop\n      jump\n        /* \"--CODEGEN--\":8530:9096   */\n    tag_93:\n      0x00\n        /* \"--CODEGEN--\":8752:8847   */\n      tag_249\n        /* \"--CODEGEN--\":8843:8846   */\n      dup3\n        /* \"--CODEGEN--\":8834:8840   */\n      dup7\n        /* \"--CODEGEN--\":8752:8847   */\n      jump(tag_191)\n    tag_249:\n        /* \"--CODEGEN--\":8745:8847   */\n      swap2\n      pop\n        /* \"--CODEGEN--\":8858:8933   */\n      tag_250\n        /* \"--CODEGEN--\":8929:8932   */\n      dup3\n        /* \"--CODEGEN--\":8920:8926   */\n      dup6\n        /* \"--CODEGEN--\":8858:8933   */\n      jump(tag_232)\n    tag_250:\n        /* \"--CODEGEN--\":8955:8957   */\n      0x20\n        /* \"--CODEGEN--\":8950:8953   */\n      dup3\n        /* \"--CODEGEN--\":8946:8958   */\n      add\n        /* \"--CODEGEN--\":8939:8958   */\n      swap2\n      pop\n        /* \"--CODEGEN--\":8976:9071   */\n      tag_251\n        /* \"--CODEGEN--\":9067:9070   */\n      dup3\n        /* \"--CODEGEN--\":9058:9064   */\n      dup5\n        /* \"--CODEGEN--\":8976:9071   */\n      jump(tag_191)\n    tag_251:\n        /* \"--CODEGEN--\":8969:9071   */\n      swap2\n      pop\n        /* \"--CODEGEN--\":9088:9091   */\n      dup2\n        /* \"--CODEGEN--\":9081:9091   */\n      swap1\n      pop\n        /* \"--CODEGEN--\":8733:9096   */\n      swap5\n      swap4\n      pop\n      pop\n      pop\n      pop\n      jump\n        /* \"--CODEGEN--\":9103:9488   */\n    tag_22:\n      0x00\n        /* \"--CODEGEN--\":9283:9285   */\n      0x20\n        /* \"--CODEGEN--\":9272:9281   */\n      dup3\n        /* \"--CODEGEN--\":9268:9286   */\n      add\n        /* \"--CODEGEN--\":9260:9286   */\n      swap1\n      pop\n        /* \"--CODEGEN--\":9333:9342   */\n      dup2\n        /* \"--CODEGEN--\":9327:9331   */\n      dup2\n        /* \"--CODEGEN--\":9323:9343   */\n      sub\n        /* \"--CODEGEN--\":9319:9320   */\n      0x00\n        /* \"--CODEGEN--\":9308:9317   */\n      dup4\n        /* \"--CODEGEN--\":9304:9321   */\n      add\n        /* \"--CODEGEN--\":9297:9344   */\n      mstore\n        /* \"--CODEGEN--\":9358:9478   */\n      tag_253\n        /* \"--CODEGEN--\":9473:9477   */\n      dup2\n        /* \"--CODEGEN--\":9464:9470   */\n      dup5\n        /* \"--CODEGEN--\":9358:9478   */\n      jump(tag_167)\n    tag_253:\n        /* \"--CODEGEN--\":9350:9478   */\n      swap1\n      pop\n        /* \"--CODEGEN--\":9254:9488   */\n      swap3\n      swap2\n      pop\n      pop\n      jump\n        /* \"--CODEGEN--\":9495:9796   */\n    tag_12:\n      0x00\n        /* \"--CODEGEN--\":9633:9635   */\n      0x20\n        /* \"--CODEGEN--\":9622:9631   */\n      dup3\n        /* \"--CODEGEN--\":9618:9636   */\n      add\n        /* \"--CODEGEN--\":9610:9636   */\n      swap1\n      pop\n        /* \"--CODEGEN--\":9683:9692   */\n      dup2\n        /* \"--CODEGEN--\":9677:9681   */\n      dup2\n        /* \"--CODEGEN--\":9673:9693   */\n      sub\n        /* \"--CODEGEN--\":9669:9670   */\n      0x00\n        /* \"--CODEGEN--\":9658:9667   */\n      dup4\n        /* \"--CODEGEN--\":9654:9671   */\n      add\n        /* \"--CODEGEN--\":9647:9694   */\n      mstore\n        /* \"--CODEGEN--\":9708:9786   */\n      tag_255\n        /* \"--CODEGEN--\":9781:9785   */\n      dup2\n        /* \"--CODEGEN--\":9772:9778   */\n      dup5\n        /* \"--CODEGEN--\":9708:9786   */\n      jump(tag_181)\n    tag_255:\n        /* \"--CODEGEN--\":9700:9786   */\n      swap1\n      pop\n        /* \"--CODEGEN--\":9604:9796   */\n      swap3\n      swap2\n      pop\n      pop\n      jump\n        /* \"--CODEGEN--\":9803:10210   */\n    tag_108:\n      0x00\n        /* \"--CODEGEN--\":9994:9996   */\n      0x20\n        /* \"--CODEGEN--\":9983:9992   */\n      dup3\n        /* \"--CODEGEN--\":9979:9997   */\n      add\n        /* \"--CODEGEN--\":9971:9997   */\n      swap1\n      pop\n        /* \"--CODEGEN--\":10044:10053   */\n      dup2\n        /* \"--CODEGEN--\":10038:10042   */\n      dup2\n        /* \"--CODEGEN--\":10034:10054   */\n      sub\n        /* \"--CODEGEN--\":10030:10031   */\n      0x00\n        /* \"--CODEGEN--\":10019:10028   */\n      dup4\n        /* \"--CODEGEN--\":10015:10032   */\n      add\n        /* \"--CODEGEN--\":10008:10055   */\n      mstore\n        /* \"--CODEGEN--\":10069:10200   */\n      tag_257\n        /* \"--CODEGEN--\":10195:10199   */\n      dup2\n        /* \"--CODEGEN--\":10069:10200   */\n      jump(tag_225)\n    tag_257:\n        /* \"--CODEGEN--\":10061:10200   */\n      swap1\n      pop\n        /* \"--CODEGEN--\":9965:10210   */\n      swap2\n      swap1\n      pop\n      jump\n        /* \"--CODEGEN--\":10217:10430   */\n    tag_18:\n      0x00\n        /* \"--CODEGEN--\":10335:10337   */\n      0x20\n        /* \"--CODEGEN--\":10324:10333   */\n      dup3\n        /* \"--CODEGEN--\":10320:10338   */\n      add\n        /* \"--CODEGEN--\":10312:10338   */\n      swap1\n      pop\n        /* \"--CODEGEN--\":10349:10420   */\n      tag_259\n        /* \"--CODEGEN--\":10417:10418   */\n      0x00\n        /* \"--CODEGEN--\":10406:10415   */\n      dup4\n        /* \"--CODEGEN--\":10402:10419   */\n      add\n        /* \"--CODEGEN--\":10393:10399   */\n      dup5\n        /* \"--CODEGEN--\":10349:10420   */\n      jump(tag_228)\n    tag_259:\n        /* \"--CODEGEN--\":10306:10430   */\n      swap3\n      swap2\n      pop\n      pop\n      jump\n        /* \"--CODEGEN--\":10437:10693   */\n    tag_138:\n      0x00\n        /* \"--CODEGEN--\":10499:10501   */\n      0x40\n        /* \"--CODEGEN--\":10493:10502   */\n      mload\n        /* \"--CODEGEN--\":10483:10502   */\n      swap1\n      pop\n        /* \"--CODEGEN--\":10537:10541   */\n      dup2\n        /* \"--CODEGEN--\":10529:10535   */\n      dup2\n        /* \"--CODEGEN--\":10525:10542   */\n      add\n        /* \"--CODEGEN--\":10636:10642   */\n      dup2\n        /* \"--CODEGEN--\":10624:10634   */\n      dup2\n        /* \"--CODEGEN--\":10621:10643   */\n      lt\n        /* \"--CODEGEN--\":10600:10618   */\n      0xffffffffffffffff\n        /* \"--CODEGEN--\":10588:10598   */\n      dup3\n        /* \"--CODEGEN--\":10585:10619   */\n      gt\n        /* \"--CODEGEN--\":10582:10644   */\n      or\n        /* \"--CODEGEN--\":10579:10581   */\n      iszero\n      tag_261\n      jumpi\n        /* \"--CODEGEN--\":10657:10658   */\n      0x00\n        /* \"--CODEGEN--\":10654:10655   */\n      dup1\n        /* \"--CODEGEN--\":10647:10659   */\n      revert\n        /* \"--CODEGEN--\":10579:10581   */\n    tag_261:\n        /* \"--CODEGEN--\":10677:10687   */\n      dup1\n        /* \"--CODEGEN--\":10673:10675   */\n      0x40\n        /* \"--CODEGEN--\":10666:10688   */\n      mstore\n        /* \"--CODEGEN--\":10477:10693   */\n      pop\n      swap2\n      swap1\n      pop\n      jump\n        /* \"--CODEGEN--\":10700:11022   */\n    tag_137:\n      0x00\n        /* \"--CODEGEN--\":10844:10862   */\n      0xffffffffffffffff\n        /* \"--CODEGEN--\":10836:10842   */\n      dup3\n        /* \"--CODEGEN--\":10833:10863   */\n      gt\n        /* \"--CODEGEN--\":10830:10832   */\n      iszero\n      tag_263\n      jumpi\n        /* \"--CODEGEN--\":10876:10877   */\n      0x00\n        /* \"--CODEGEN--\":10873:10874   */\n      dup1\n        /* \"--CODEGEN--\":10866:10878   */\n      revert\n        /* \"--CODEGEN--\":10830:10832   */\n    tag_263:\n        /* \"--CODEGEN--\":10943:10947   */\n      0x1f\n        /* \"--CODEGEN--\":10939:10948   */\n      not\n        /* \"--CODEGEN--\":10932:10936   */\n      0x1f\n        /* \"--CODEGEN--\":10924:10930   */\n      dup4\n        /* \"--CODEGEN--\":10920:10937   */\n      add\n        /* \"--CODEGEN--\":10916:10949   */\n      and\n        /* \"--CODEGEN--\":10908:10949   */\n      swap1\n      pop\n        /* \"--CODEGEN--\":11007:11011   */\n      0x20\n        /* \"--CODEGEN--\":11001:11005   */\n      dup2\n        /* \"--CODEGEN--\":10997:11012   */\n      add\n        /* \"--CODEGEN--\":10989:11012   */\n      swap1\n      pop\n        /* \"--CODEGEN--\":10767:11022   */\n      swap2\n      swap1\n      pop\n      jump\n        /* \"--CODEGEN--\":11029:11186   */\n    tag_174:\n      0x00\n        /* \"--CODEGEN--\":11121:11124   */\n      dup2\n        /* \"--CODEGEN--\":11113:11124   */\n      swap1\n      pop\n        /* \"--CODEGEN--\":11159:11163   */\n      0x20\n        /* \"--CODEGEN--\":11154:11157   */\n      dup3\n        /* \"--CODEGEN--\":11150:11164   */\n      add\n        /* \"--CODEGEN--\":11142:11164   */\n      swap1\n      pop\n        /* \"--CODEGEN--\":11107:11186   */\n      swap2\n      swap1\n      pop\n      jump\n        /* \"--CODEGEN--\":11193:11351   */\n    tag_212:\n      0x00\n        /* \"--CODEGEN--\":11261:11264   */\n      dup2\n        /* \"--CODEGEN--\":11253:11264   */\n      swap1\n      pop\n        /* \"--CODEGEN--\":11298:11301   */\n      dup2\n        /* \"--CODEGEN--\":11295:11296   */\n      0x00\n        /* \"--CODEGEN--\":11288:11302   */\n      mstore\n        /* \"--CODEGEN--\":11330:11334   */\n      0x20\n        /* \"--CODEGEN--\":11327:11328   */\n      0x00\n        /* \"--CODEGEN--\":11317:11335   */\n      keccak256\n        /* \"--CODEGEN--\":11309:11335   */\n      swap1\n      pop\n        /* \"--CODEGEN--\":11247:11351   */\n      swap2\n      swap1\n      pop\n      jump\n        /* \"--CODEGEN--\":11358:11501   */\n    tag_170:\n      0x00\n        /* \"--CODEGEN--\":11473:11478   */\n      dup2\n        /* \"--CODEGEN--\":11467:11479   */\n      mload\n        /* \"--CODEGEN--\":11457:11479   */\n      swap1\n      pop\n        /* \"--CODEGEN--\":11438:11501   */\n      swap2\n      swap1\n      pop\n      jump\n        /* \"--CODEGEN--\":11508:11626   */\n    tag_199:\n      0x00\n        /* \"--CODEGEN--\":11598:11603   */\n      dup2\n        /* \"--CODEGEN--\":11592:11604   */\n      mload\n        /* \"--CODEGEN--\":11582:11604   */\n      swap1\n      pop\n        /* \"--CODEGEN--\":11563:11626   */\n      swap2\n      swap1\n      pop\n      jump\n        /* \"--CODEGEN--\":11633:11755   */\n    tag_184:\n      0x00\n        /* \"--CODEGEN--\":11727:11732   */\n      dup2\n        /* \"--CODEGEN--\":11721:11733   */\n      mload\n        /* \"--CODEGEN--\":11711:11733   */\n      swap1\n      pop\n        /* \"--CODEGEN--\":11692:11755   */\n      swap2\n      swap1\n      pop\n      jump\n        /* \"--CODEGEN--\":11762:11876   */\n    tag_180:\n      0x00\n        /* \"--CODEGEN--\":11866:11870   */\n      0x20\n        /* \"--CODEGEN--\":11861:11864   */\n      dup3\n        /* \"--CODEGEN--\":11857:11871   */\n      add\n        /* \"--CODEGEN--\":11849:11871   */\n      swap1\n      pop\n        /* \"--CODEGEN--\":11843:11876   */\n      swap2\n      swap1\n      pop\n      jump\n        /* \"--CODEGEN--\":11884:12068   */\n    tag_172:\n      0x00\n        /* \"--CODEGEN--\":12020:12026   */\n      dup3\n        /* \"--CODEGEN--\":12015:12018   */\n      dup3\n        /* \"--CODEGEN--\":12008:12027   */\n      mstore\n        /* \"--CODEGEN--\":12057:12061   */\n      0x20\n        /* \"--CODEGEN--\":12052:12055   */\n      dup3\n        /* \"--CODEGEN--\":12048:12062   */\n      add\n        /* \"--CODEGEN--\":12033:12062   */\n      swap1\n      pop\n        /* \"--CODEGEN--\":12001:12068   */\n      swap3\n      swap2\n      pop\n      pop\n      jump\n        /* \"--CODEGEN--\":12077:12230   */\n    tag_201:\n      0x00\n        /* \"--CODEGEN--\":12182:12188   */\n      dup3\n        /* \"--CODEGEN--\":12177:12180   */\n      dup3\n        /* \"--CODEGEN--\":12170:12189   */\n      mstore\n        /* \"--CODEGEN--\":12219:12223   */\n      0x20\n        /* \"--CODEGEN--\":12214:12217   */\n      dup3\n        /* \"--CODEGEN--\":12210:12224   */\n      add\n        /* \"--CODEGEN--\":12195:12224   */\n      swap1\n      pop\n        /* \"--CODEGEN--\":12163:12230   */\n      swap3\n      swap2\n      pop\n      pop\n      jump\n        /* \"--CODEGEN--\":12239:12402   */\n    tag_186:\n      0x00\n        /* \"--CODEGEN--\":12354:12360   */\n      dup3\n        /* \"--CODEGEN--\":12349:12352   */\n      dup3\n        /* \"--CODEGEN--\":12342:12361   */\n      mstore\n        /* \"--CODEGEN--\":12391:12395   */\n      0x20\n        /* \"--CODEGEN--\":12386:12389   */\n      dup3\n        /* \"--CODEGEN--\":12382:12396   */\n      add\n        /* \"--CODEGEN--\":12367:12396   */\n      swap1\n      pop\n        /* \"--CODEGEN--\":12335:12402   */\n      swap3\n      swap2\n      pop\n      pop\n      jump\n        /* \"--CODEGEN--\":12411:12556   */\n    tag_195:\n      0x00\n        /* \"--CODEGEN--\":12547:12550   */\n      dup2\n        /* \"--CODEGEN--\":12532:12550   */\n      swap1\n      pop\n        /* \"--CODEGEN--\":12525:12556   */\n      swap3\n      swap2\n      pop\n      pop\n      jump\n        /* \"--CODEGEN--\":12564:12663   */\n    tag_165:\n      0x00\n        /* \"--CODEGEN--\":12634:12658   */\n      tag_275\n        /* \"--CODEGEN--\":12652:12657   */\n      dup3\n        /* \"--CODEGEN--\":12634:12658   */\n      jump(tag_276)\n    tag_275:\n        /* \"--CODEGEN--\":12623:12658   */\n      swap1\n      pop\n        /* \"--CODEGEN--\":12617:12663   */\n      swap2\n      swap1\n      pop\n      jump\n        /* \"--CODEGEN--\":12670:12791   */\n    tag_276:\n      0x00\n        /* \"--CODEGEN--\":12743:12785   */\n      0xffffffffffffffffffffffffffffffffffffffff\n        /* \"--CODEGEN--\":12736:12741   */\n      dup3\n        /* \"--CODEGEN--\":12732:12786   */\n      and\n        /* \"--CODEGEN--\":12721:12786   */\n      swap1\n      pop\n        /* \"--CODEGEN--\":12715:12791   */\n      swap2\n      swap1\n      pop\n      jump\n        /* \"--CODEGEN--\":12798:12870   */\n    tag_231:\n      0x00\n        /* \"--CODEGEN--\":12860:12865   */\n      dup2\n        /* \"--CODEGEN--\":12849:12865   */\n      swap1\n      pop\n        /* \"--CODEGEN--\":12843:12870   */\n      swap2\n      swap1\n      pop\n      jump\n        /* \"--CODEGEN--\":12878:13023   */\n    tag_141:\n        /* \"--CODEGEN--\":12959:12965   */\n      dup3\n        /* \"--CODEGEN--\":12954:12957   */\n      dup2\n        /* \"--CODEGEN--\":12949:12952   */\n      dup4\n        /* \"--CODEGEN--\":12936:12966   */\n      calldatacopy\n        /* \"--CODEGEN--\":13015:13016   */\n      0x00\n        /* \"--CODEGEN--\":13006:13012   */\n      dup4\n        /* \"--CODEGEN--\":13001:13004   */\n      dup4\n        /* \"--CODEGEN--\":12997:13013   */\n      add\n        /* \"--CODEGEN--\":12990:13017   */\n      mstore\n        /* \"--CODEGEN--\":12929:13023   */\n      pop\n      pop\n      pop\n      jump\n        /* \"--CODEGEN--\":13032:13300   */\n    tag_188:\n        /* \"--CODEGEN--\":13097:13098   */\n      0x00\n        /* \"--CODEGEN--\":13104:13205   */\n    tag_281:\n        /* \"--CODEGEN--\":13118:13124   */\n      dup4\n        /* \"--CODEGEN--\":13115:13116   */\n      dup2\n        /* \"--CODEGEN--\":13112:13125   */\n      lt\n        /* \"--CODEGEN--\":13104:13205   */\n      iszero\n      tag_283\n      jumpi\n        /* \"--CODEGEN--\":13194:13195   */\n      dup1\n        /* \"--CODEGEN--\":13189:13192   */\n      dup3\n        /* \"--CODEGEN--\":13185:13196   */\n      add\n        /* \"--CODEGEN--\":13179:13197   */\n      mload\n        /* \"--CODEGEN--\":13175:13176   */\n      dup2\n        /* \"--CODEGEN--\":13170:13173   */\n      dup5\n        /* \"--CODEGEN--\":13166:13177   */\n      add\n        /* \"--CODEGEN--\":13159:13198   */\n      mstore\n        /* \"--CODEGEN--\":13140:13142   */\n      0x20\n        /* \"--CODEGEN--\":13137:13138   */\n      dup2\n        /* \"--CODEGEN--\":13133:13143   */\n      add\n        /* \"--CODEGEN--\":13128:13143   */\n      swap1\n      pop\n        /* \"--CODEGEN--\":13104:13205   */\n      jump(tag_281)\n    tag_283:\n        /* \"--CODEGEN--\":13220:13226   */\n      dup4\n        /* \"--CODEGEN--\":13217:13218   */\n      dup2\n        /* \"--CODEGEN--\":13214:13227   */\n      gt\n        /* \"--CODEGEN--\":13211:13213   */\n      iszero\n      tag_284\n      jumpi\n        /* \"--CODEGEN--\":13285:13286   */\n      0x00\n        /* \"--CODEGEN--\":13276:13282   */\n      dup5\n        /* \"--CODEGEN--\":13271:13274   */\n      dup5\n        /* \"--CODEGEN--\":13267:13283   */\n      add\n        /* \"--CODEGEN--\":13260:13287   */\n      mstore\n        /* \"--CODEGEN--\":13211:13213   */\n    tag_284:\n        /* \"--CODEGEN--\":13081:13300   */\n      pop\n      pop\n      pop\n      pop\n      jump\n        /* \"--CODEGEN--\":13308:13411   */\n    tag_166:\n      0x00\n        /* \"--CODEGEN--\":13380:13406   */\n      tag_286\n        /* \"--CODEGEN--\":13400:13405   */\n      dup3\n        /* \"--CODEGEN--\":13380:13406   */\n      jump(tag_287)\n    tag_286:\n        /* \"--CODEGEN--\":13369:13406   */\n      swap1\n      pop\n        /* \"--CODEGEN--\":13363:13411   */\n      swap2\n      swap1\n      pop\n      jump\n        /* \"--CODEGEN--\":13418:13507   */\n    tag_287:\n      0x00\n        /* \"--CODEGEN--\":13482:13502   */\n      tag_289\n        /* \"--CODEGEN--\":13496:13501   */\n      dup3\n        /* \"--CODEGEN--\":13482:13502   */\n      jump(tag_290)\n    tag_289:\n        /* \"--CODEGEN--\":13471:13502   */\n      swap1\n      pop\n        /* \"--CODEGEN--\":13465:13507   */\n      swap2\n      swap1\n      pop\n      jump\n        /* \"--CODEGEN--\":13514:13588   */\n    tag_236:\n      0x00\n        /* \"--CODEGEN--\":13578:13583   */\n      dup2\n        /* \"--CODEGEN--\":13567:13583   */\n      swap1\n      pop\n        /* \"--CODEGEN--\":13561:13588   */\n      swap2\n      swap1\n      pop\n      jump\n        /* \"--CODEGEN--\":13595:13692   */\n    tag_190:\n      0x00\n        /* \"--CODEGEN--\":13683:13685   */\n      0x1f\n        /* \"--CODEGEN--\":13679:13686   */\n      not\n        /* \"--CODEGEN--\":13674:13676   */\n      0x1f\n        /* \"--CODEGEN--\":13667:13672   */\n      dup4\n        /* \"--CODEGEN--\":13663:13677   */\n      add\n        /* \"--CODEGEN--\":13659:13687   */\n      and\n        /* \"--CODEGEN--\":13649:13687   */\n      swap1\n      pop\n        /* \"--CODEGEN--\":13643:13692   */\n      swap2\n      swap1\n      pop\n      jump\n        /* \"--CODEGEN--\":13700:13794   */\n    tag_290:\n      0x00\n        /* \"--CODEGEN--\":13778:13783   */\n      dup2\n        /* \"--CODEGEN--\":13774:13776   */\n      0x60\n        /* \"--CODEGEN--\":13770:13784   */\n      shl\n        /* \"--CODEGEN--\":13748:13784   */\n      swap1\n      pop\n        /* \"--CODEGEN--\":13742:13794   */\n      swap2\n      swap1\n      pop\n      jump\n        /* \"--CODEGEN--\":13802:13919   */\n    tag_145:\n        /* \"--CODEGEN--\":13871:13895   */\n      tag_295\n        /* \"--CODEGEN--\":13889:13894   */\n      dup2\n        /* \"--CODEGEN--\":13871:13895   */\n      jump(tag_231)\n    tag_295:\n        /* \"--CODEGEN--\":13864:13869   */\n      dup2\n        /* \"--CODEGEN--\":13861:13896   */\n      eq\n        /* \"--CODEGEN--\":13851:13853   */\n      tag_296\n      jumpi\n        /* \"--CODEGEN--\":13910:13911   */\n      0x00\n        /* \"--CODEGEN--\":13907:13908   */\n      dup1\n        /* \"--CODEGEN--\":13900:13912   */\n      revert\n        /* \"--CODEGEN--\":13851:13853   */\n    tag_296:\n        /* \"--CODEGEN--\":13845:13919   */\n      pop\n      jump\n    stop\n    data_41f82da17441ea04272ad4862c48de104e971b11291caf932cab5da13398e2ff 48617920756e20656d7061746520656e747265206c6f732063616e64696461746f73\n\n    auxdata: 0xa2646970667358221220dc9e315f7944fa389992e1e35beb830f1607a83c46cc4150bdfe25d26d7a7f3864736f6c63430006000033\n}\n",
				"bytecode": {
					"linkReferences": {},
					"object": "608060405234801561001057600080fd5b50336000806101000a81548173ffffffffffffffffffffffffffffffffffffffff021916908373ffffffffffffffffffffffffffffffffffffffff1602179055506111c7806100606000396000f3fe608060405234801561001057600080fd5b50600436106100625760003560e01c806355911cc1146100675780638107caa114610085578063bfc2e938146100b5578063e7bf56fa146100d3578063f01ca6b7146100f1578063febe07dc1461010d575b600080fd5b61006f610129565b60405161007c9190610f47565b60405180910390f35b61009f600480360361009a9190810190610ab5565b6104ae565b6040516100ac9190610f89565b60405180910390f35b6100bd6104d6565b6040516100ca9190610f25565b60405180910390f35b6100db6105bf565b6040516100e89190610f47565b60405180910390f35b61010b60048036036101069190810190610af6565b6106e5565b005b61012760048036036101229190810190610ab5565b610779565b005b606080600360008154811061013a57fe5b906000526020600020018054600181600116156101000203166002900480601f0160208091040260200160405190810160405280929190818152602001828054600181600116156101000203166002900480156101d85780601f106101ad576101008083540402835291602001916101d8565b820191906000526020600020905b8154815290600101906020018083116101bb57829003601f168201915b50505050509050600080600090505b60038054905081101561047c576102ac6003828154811061020457fe5b906000526020600020018054600181600116156101000203166002900480601f0160208091040260200160405190810160405280929190818152602001828054600181600116156101000203166002900480156102a25780601f10610277576101008083540402835291602001916102a2565b820191906000526020600020905b81548152906001019060200180831161028557829003601f168201915b50505050506104ae565b6002846040516102bc9190610e87565b908152602001604051809103902054101561038c57600381815481106102de57fe5b906000526020600020018054600181600116156101000203166002900480601f01602080910402602001604051908101604052809291908181526020018280546001816001161561010002031660029004801561037c5780601f106103515761010080835404028352916020019161037c565b820191906000526020600020905b81548152906001019060200180831161035f57829003601f168201915b505050505092506000915061046f565b6104446003828154811061039c57fe5b906000526020600020018054600181600116156101000203166002900480601f01602080910402602001604051908101604052809291908181526020018280546001816001161561010002031660029004801561043a5780601f1061040f5761010080835404028352916020019161043a565b820191906000526020600020905b81548152906001019060200180831161041d57829003601f168201915b50505050506104ae565b6002846040516104549190610e87565b908152602001604051809103902054141561046e57600191505b5b80806001019150506101e7565b506001151581151514156104a6576040518060600160405280602281526020016111706022913991505b819250505090565b60006002826040516104c09190610e87565b9081526020016040518091039020549050919050565b60606003805480602002602001604051908101604052809291908181526020016000905b828210156105b6578382906000526020600020018054600181600116156101000203166002900480601f0160208091040260200160405190810160405280929190818152602001828054600181600116156101000203166002900480156105a25780601f10610577576101008083540402835291602001916105a2565b820191906000526020600020905b81548152906001019060200180831161058557829003601f168201915b5050505050815260200190600101906104fa565b50505050905090565b60608060008090505b6003805490508110156106dd5781600382815481106105e357fe5b906000526020600020016106ad6106a86003858154811061060057fe5b906000526020600020018054600181600116156101000203166002900480601f01602080910402602001604051908101604052809291908181526020018280546001816001161561010002031660029004801561069e5780601f106106735761010080835404028352916020019161069e565b820191906000526020600020905b81548152906001019060200180831161068157829003601f168201915b50505050506104ae565b61087a565b6040516020016106bf93929190610e9e565b604051602081830303815290604052915080806001019150506105c8565b508091505090565b60008383836040516020016106fc93929190610ef0565b604051602081830303815290604052805190602001209050806001856040516107259190610e87565b9081526020016040518091039020819055506003849080600181540180825580915050600190039060005260206000200160009091909190915090805190602001906107729291906109a7565b5050505050565b60003360405160200161078c9190610e6c565b60405160208183030381529060405280519060200120905060008090505b60048054905081101561081e5781600482815481106107c557fe5b90600052602060002001541415610811576040517f08c379a000000000000000000000000000000000000000000000000000000000815260040161080890610f69565b60405180910390fd5b80806001019150506107aa565b5060048190806001815401808255809150506001900390600052602060002001600090919091909150556002826040516108589190610e87565b9081526020016040518091039020600081548092919060010191905055505050565b606060008214156108c2576040518060400160405280600181526020017f300000000000000000000000000000000000000000000000000000000000000081525090506109a2565b600082905060005b600082146108ec578080600101915050600a82816108e457fe5b0491506108ca565b6060816040519080825280601f01601f1916602001820160405280156109215781602001600182028038833980820191505090505b50905060006001830390505b6000861461099a57600a868161093f57fe5b0660300160f81b8282806001900393508151811061095957fe5b60200101907effffffffffffffffffffffffffffffffffffffffffffffffffffffffffffff1916908160001a905350600a868161099257fe5b04955061092d565b819450505050505b919050565b828054600181600116156101000203166002900490600052602060002090601f016020900481019282601f106109e857805160ff1916838001178555610a16565b82800160010185558215610a16579182015b82811115610a155782518255916020019190600101906109fa565b5b509050610a239190610a27565b5090565b610a4991905b80821115610a45576000816000905550600101610a2d565b5090565b90565b600082601f830112610a5d57600080fd5b8135610a70610a6b82610fd1565b610fa4565b91508082526020830160208301858383011115610a8c57600080fd5b610a978382846110ca565b50505092915050565b600081359050610aaf81611158565b92915050565b600060208284031215610ac757600080fd5b600082013567ffffffffffffffff811115610ae157600080fd5b610aed84828501610a4c565b91505092915050565b600080600060608486031215610b0b57600080fd5b600084013567ffffffffffffffff811115610b2557600080fd5b610b3186828701610a4c565b9350506020610b4286828701610aa0565b925050604084013567ffffffffffffffff811115610b5f57600080fd5b610b6b86828701610a4c565b9150509250925092565b6000610b818383610c7f565b905092915050565b610b9a610b958261108e565b61110c565b82525050565b6000610bab82611022565b610bb58185611050565b935083602082028501610bc785610ffd565b8060005b85811015610c035784840389528151610be48582610b75565b9450610bef83611043565b925060208a01995050600181019050610bcb565b50829750879550505050505092915050565b6000610c2082611038565b610c2a8185611072565b9350610c3a8185602086016110d9565b610c438161113a565b840191505092915050565b6000610c5982611038565b610c638185611083565b9350610c738185602086016110d9565b80840191505092915050565b6000610c8a8261102d565b610c948185611061565b9350610ca48185602086016110d9565b610cad8161113a565b840191505092915050565b600081546001811660008114610cd55760018114610cfa57610d3e565b607f6002830416610ce68187611083565b955060ff1983168652808601935050610d3e565b60028204610d088187611083565b9550610d138561100d565b60005b82811015610d3557815481890152600182019150602081019050610d16565b82880195505050505b505092915050565b6000610d53600183611083565b91507f2c000000000000000000000000000000000000000000000000000000000000006000830152600182019050919050565b6000610d93600183611083565b91507f28000000000000000000000000000000000000000000000000000000000000006000830152600182019050919050565b6000610dd3600583611083565b91507f292d2d2d2d0000000000000000000000000000000000000000000000000000006000830152600582019050919050565b6000610e13601983611072565b91507f59612068617320766f7461646f207072657669616d656e7465000000000000006000830152602082019050919050565b610e4f816110c0565b82525050565b610e66610e61826110c0565b611130565b82525050565b6000610e788284610b89565b60148201915081905092915050565b6000610e938284610c4e565b915081905092915050565b6000610eaa8286610c4e565b9150610eb582610d86565b9150610ec18285610cb8565b9150610ecc82610d46565b9150610ed88284610c4e565b9150610ee382610dc6565b9150819050949350505050565b6000610efc8286610c4e565b9150610f088285610e55565b602082019150610f188284610c4e565b9150819050949350505050565b60006020820190508181036000830152610f3f8184610ba0565b905092915050565b60006020820190508181036000830152610f618184610c15565b905092915050565b60006020820190508181036000830152610f8281610e06565b9050919050565b6000602082019050610f9e6000830184610e46565b92915050565b6000604051905081810181811067ffffffffffffffff82111715610fc757600080fd5b8060405250919050565b600067ffffffffffffffff821115610fe857600080fd5b601f19601f8301169050602081019050919050565b6000819050602082019050919050565b60008190508160005260206000209050919050565b600081519050919050565b600081519050919050565b600081519050919050565b6000602082019050919050565b600082825260208201905092915050565b600082825260208201905092915050565b600082825260208201905092915050565b600081905092915050565b6000611099826110a0565b9050919050565b600073ffffffffffffffffffffffffffffffffffffffff82169050919050565b6000819050919050565b82818337600083830152505050565b60005b838110156110f75780820151818401526020810190506110dc565b83811115611106576000848401525b50505050565b60006111178261111e565b9050919050565b60006111298261114b565b9050919050565b6000819050919050565b6000601f19601f8301169050919050565b60008160601b9050919050565b611161816110c0565b811461116c57600080fd5b5056fe48617920756e20656d7061746520656e747265206c6f732063616e64696461746f73a2646970667358221220dc9e315f7944fa389992e1e35beb830f1607a83c46cc4150bdfe25d26d7a7f3864736f6c63430006000033",
					"opcodes": "PUSH1 0x80 PUSH1 0x40 MSTORE CALLVALUE DUP1 ISZERO PUSH2 0x10 JUMPI PUSH1 0x0 DUP1 REVERT JUMPDEST POP CALLER PUSH1 0x0 DUP1 PUSH2 0x100 EXP DUP2 SLOAD DUP2 PUSH20 0xFFFFFFFFFFFFFFFFFFFFFFFFFFFFFFFFFFFFFFFF MUL NOT AND SWAP1 DUP4 PUSH20 0xFFFFFFFFFFFFFFFFFFFFFFFFFFFFFFFFFFFFFFFF AND MUL OR SWAP1 SSTORE POP PUSH2 0x11C7 DUP1 PUSH2 0x60 PUSH1 0x0 CODECOPY PUSH1 0x0 RETURN INVALID PUSH1 0x80 PUSH1 0x40 MSTORE CALLVALUE DUP1 ISZERO PUSH2 0x10 JUMPI PUSH1 0x0 DUP1 REVERT JUMPDEST POP PUSH1 0x4 CALLDATASIZE LT PUSH2 0x62 JUMPI PUSH1 0x0 CALLDATALOAD PUSH1 0xE0 SHR DUP1 PUSH4 0x55911CC1 EQ PUSH2 0x67 JUMPI DUP1 PUSH4 0x8107CAA1 EQ PUSH2 0x85 JUMPI DUP1 PUSH4 0xBFC2E938 EQ PUSH2 0xB5 JUMPI DUP1 PUSH4 0xE7BF56FA EQ PUSH2 0xD3 JUMPI DUP1 PUSH4 0xF01CA6B7 EQ PUSH2 0xF1 JUMPI DUP1 PUSH4 0xFEBE07DC EQ PUSH2 0x10D JUMPI JUMPDEST PUSH1 0x0 DUP1 REVERT JUMPDEST PUSH2 0x6F PUSH2 0x129 JUMP JUMPDEST PUSH1 0x40 MLOAD PUSH2 0x7C SWAP2 SWAP1 PUSH2 0xF47 JUMP JUMPDEST PUSH1 0x40 MLOAD DUP1 SWAP2 SUB SWAP1 RETURN JUMPDEST PUSH2 0x9F PUSH1 0x4 DUP1 CALLDATASIZE SUB PUSH2 0x9A SWAP2 SWAP1 DUP2 ADD SWAP1 PUSH2 0xAB5 JUMP JUMPDEST PUSH2 0x4AE JUMP JUMPDEST PUSH1 0x40 MLOAD PUSH2 0xAC SWAP2 SWAP1 PUSH2 0xF89 JUMP JUMPDEST PUSH1 0x40 MLOAD DUP1 SWAP2 SUB SWAP1 RETURN JUMPDEST PUSH2 0xBD PUSH2 0x4D6 JUMP JUMPDEST PUSH1 0x40 MLOAD PUSH2 0xCA SWAP2 SWAP1 PUSH2 0xF25 JUMP JUMPDEST PUSH1 0x40 MLOAD DUP1 SWAP2 SUB SWAP1 RETURN JUMPDEST PUSH2 0xDB PUSH2 0x5BF JUMP JUMPDEST PUSH1 0x40 MLOAD PUSH2 0xE8 SWAP2 SWAP1 PUSH2 0xF47 JUMP JUMPDEST PUSH1 0x40 MLOAD DUP1 SWAP2 SUB SWAP1 RETURN JUMPDEST PUSH2 0x10B PUSH1 0x4 DUP1 CALLDATASIZE SUB PUSH2 0x106 SWAP2 SWAP1 DUP2 ADD SWAP1 PUSH2 0xAF6 JUMP JUMPDEST PUSH2 0x6E5 JUMP JUMPDEST STOP JUMPDEST PUSH2 0x127 PUSH1 0x4 DUP1 CALLDATASIZE SUB PUSH2 0x122 SWAP2 SWAP1 DUP2 ADD SWAP1 PUSH2 0xAB5 JUMP JUMPDEST PUSH2 0x779 JUMP JUMPDEST STOP JUMPDEST PUSH1 0x60 DUP1 PUSH1 0x3 PUSH1 0x0 DUP2 SLOAD DUP2 LT PUSH2 0x13A JUMPI INVALID JUMPDEST SWAP1 PUSH1 0x0 MSTORE PUSH1 0x20 PUSH1 0x0 KECCAK256 ADD DUP1 SLOAD PUSH1 0x1 DUP2 PUSH1 0x1 AND ISZERO PUSH2 0x100 MUL SUB AND PUSH1 0x2 SWAP1 DIV DUP1 PUSH1 0x1F ADD PUSH1 0x20 DUP1 SWAP2 DIV MUL PUSH1 0x20 ADD PUSH1 0x40 MLOAD SWAP1 DUP2 ADD PUSH1 0x40 MSTORE DUP1 SWAP3 SWAP2 SWAP1 DUP2 DUP2 MSTORE PUSH1 0x20 ADD DUP3 DUP1 SLOAD PUSH1 0x1 DUP2 PUSH1 0x1 AND ISZERO PUSH2 0x100 MUL SUB AND PUSH1 0x2 SWAP1 DIV DUP1 ISZERO PUSH2 0x1D8 JUMPI DUP1 PUSH1 0x1F LT PUSH2 0x1AD JUMPI PUSH2 0x100 DUP1 DUP4 SLOAD DIV MUL DUP4 MSTORE SWAP2 PUSH1 0x20 ADD SWAP2 PUSH2 0x1D8 JUMP JUMPDEST DUP3 ADD SWAP2 SWAP1 PUSH1 0x0 MSTORE PUSH1 0x20 PUSH1 0x0 KECCAK256 SWAP1 JUMPDEST DUP2 SLOAD DUP2 MSTORE SWAP1 PUSH1 0x1 ADD SWAP1 PUSH1 0x20 ADD DUP1 DUP4 GT PUSH2 0x1BB JUMPI DUP3 SWAP1 SUB PUSH1 0x1F AND DUP3 ADD SWAP2 JUMPDEST POP POP POP POP POP SWAP1 POP PUSH1 0x0 DUP1 PUSH1 0x0 SWAP1 POP JUMPDEST PUSH1 0x3 DUP1 SLOAD SWAP1 POP DUP2 LT ISZERO PUSH2 0x47C JUMPI PUSH2 0x2AC PUSH1 0x3 DUP3 DUP2 SLOAD DUP2 LT PUSH2 0x204 JUMPI INVALID JUMPDEST SWAP1 PUSH1 0x0 MSTORE PUSH1 0x20 PUSH1 0x0 KECCAK256 ADD DUP1 SLOAD PUSH1 0x1 DUP2 PUSH1 0x1 AND ISZERO PUSH2 0x100 MUL SUB AND PUSH1 0x2 SWAP1 DIV DUP1 PUSH1 0x1F ADD PUSH1 0x20 DUP1 SWAP2 DIV MUL PUSH1 0x20 ADD PUSH1 0x40 MLOAD SWAP1 DUP2 ADD PUSH1 0x40 MSTORE DUP1 SWAP3 SWAP2 SWAP1 DUP2 DUP2 MSTORE PUSH1 0x20 ADD DUP3 DUP1 SLOAD PUSH1 0x1 DUP2 PUSH1 0x1 AND ISZERO PUSH2 0x100 MUL SUB AND PUSH1 0x2 SWAP1 DIV DUP1 ISZERO PUSH2 0x2A2 JUMPI DUP1 PUSH1 0x1F LT PUSH2 0x277 JUMPI PUSH2 0x100 DUP1 DUP4 SLOAD DIV MUL DUP4 MSTORE SWAP2 PUSH1 0x20 ADD SWAP2 PUSH2 0x2A2 JUMP JUMPDEST DUP3 ADD SWAP2 SWAP1 PUSH1 0x0 MSTORE PUSH1 0x20 PUSH1 0x0 KECCAK256 SWAP1 JUMPDEST DUP2 SLOAD DUP2 MSTORE SWAP1 PUSH1 0x1 ADD SWAP1 PUSH1 0x20 ADD DUP1 DUP4 GT PUSH2 0x285 JUMPI DUP3 SWAP1 SUB PUSH1 0x1F AND DUP3 ADD SWAP2 JUMPDEST POP POP POP POP POP PUSH2 0x4AE JUMP JUMPDEST PUSH1 0x2 DUP5 PUSH1 0x40 MLOAD PUSH2 0x2BC SWAP2 SWAP1 PUSH2 0xE87 JUMP JUMPDEST SWAP1 DUP2 MSTORE PUSH1 0x20 ADD PUSH1 0x40 MLOAD DUP1 SWAP2 SUB SWAP1 KECCAK256 SLOAD LT ISZERO PUSH2 0x38C JUMPI PUSH1 0x3 DUP2 DUP2 SLOAD DUP2 LT PUSH2 0x2DE JUMPI INVALID JUMPDEST SWAP1 PUSH1 0x0 MSTORE PUSH1 0x20 PUSH1 0x0 KECCAK256 ADD DUP1 SLOAD PUSH1 0x1 DUP2 PUSH1 0x1 AND ISZERO PUSH2 0x100 MUL SUB AND PUSH1 0x2 SWAP1 DIV DUP1 PUSH1 0x1F ADD PUSH1 0x20 DUP1 SWAP2 DIV MUL PUSH1 0x20 ADD PUSH1 0x40 MLOAD SWAP1 DUP2 ADD PUSH1 0x40 MSTORE DUP1 SWAP3 SWAP2 SWAP1 DUP2 DUP2 MSTORE PUSH1 0x20 ADD DUP3 DUP1 SLOAD PUSH1 0x1 DUP2 PUSH1 0x1 AND ISZERO PUSH2 0x100 MUL SUB AND PUSH1 0x2 SWAP1 DIV DUP1 ISZERO PUSH2 0x37C JUMPI DUP1 PUSH1 0x1F LT PUSH2 0x351 JUMPI PUSH2 0x100 DUP1 DUP4 SLOAD DIV MUL DUP4 MSTORE SWAP2 PUSH1 0x20 ADD SWAP2 PUSH2 0x37C JUMP JUMPDEST DUP3 ADD SWAP2 SWAP1 PUSH1 0x0 MSTORE PUSH1 0x20 PUSH1 0x0 KECCAK256 SWAP1 JUMPDEST DUP2 SLOAD DUP2 MSTORE SWAP1 PUSH1 0x1 ADD SWAP1 PUSH1 0x20 ADD DUP1 DUP4 GT PUSH2 0x35F JUMPI DUP3 SWAP1 SUB PUSH1 0x1F AND DUP3 ADD SWAP2 JUMPDEST POP POP POP POP POP SWAP3 POP PUSH1 0x0 SWAP2 POP PUSH2 0x46F JUMP JUMPDEST PUSH2 0x444 PUSH1 0x3 DUP3 DUP2 SLOAD DUP2 LT PUSH2 0x39C JUMPI INVALID JUMPDEST SWAP1 PUSH1 0x0 MSTORE PUSH1 0x20 PUSH1 0x0 KECCAK256 ADD DUP1 SLOAD PUSH1 0x1 DUP2 PUSH1 0x1 AND ISZERO PUSH2 0x100 MUL SUB AND PUSH1 0x2 SWAP1 DIV DUP1 PUSH1 0x1F ADD PUSH1 0x20 DUP1 SWAP2 DIV MUL PUSH1 0x20 ADD PUSH1 0x40 MLOAD SWAP1 DUP2 ADD PUSH1 0x40 MSTORE DUP1 SWAP3 SWAP2 SWAP1 DUP2 DUP2 MSTORE PUSH1 0x20 ADD DUP3 DUP1 SLOAD PUSH1 0x1 DUP2 PUSH1 0x1 AND ISZERO PUSH2 0x100 MUL SUB AND PUSH1 0x2 SWAP1 DIV DUP1 ISZERO PUSH2 0x43A JUMPI DUP1 PUSH1 0x1F LT PUSH2 0x40F JUMPI PUSH2 0x100 DUP1 DUP4 SLOAD DIV MUL DUP4 MSTORE SWAP2 PUSH1 0x20 ADD SWAP2 PUSH2 0x43A JUMP JUMPDEST DUP3 ADD SWAP2 SWAP1 PUSH1 0x0 MSTORE PUSH1 0x20 PUSH1 0x0 KECCAK256 SWAP1 JUMPDEST DUP2 SLOAD DUP2 MSTORE SWAP1 PUSH1 0x1 ADD SWAP1 PUSH1 0x20 ADD DUP1 DUP4 GT PUSH2 0x41D JUMPI DUP3 SWAP1 SUB PUSH1 0x1F AND DUP3 ADD SWAP2 JUMPDEST POP POP POP POP POP PUSH2 0x4AE JUMP JUMPDEST PUSH1 0x2 DUP5 PUSH1 0x40 MLOAD PUSH2 0x454 SWAP2 SWAP1 PUSH2 0xE87 JUMP JUMPDEST SWAP1 DUP2 MSTORE PUSH1 0x20 ADD PUSH1 0x40 MLOAD DUP1 SWAP2 SUB SWAP1 KECCAK256 SLOAD EQ ISZERO PUSH2 0x46E JUMPI PUSH1 0x1 SWAP2 POP JUMPDEST JUMPDEST DUP1 DUP1 PUSH1 0x1 ADD SWAP2 POP POP PUSH2 0x1E7 JUMP JUMPDEST POP PUSH1 0x1 ISZERO ISZERO DUP2 ISZERO ISZERO EQ ISZERO PUSH2 0x4A6 JUMPI PUSH1 0x40 MLOAD DUP1 PUSH1 0x60 ADD PUSH1 0x40 MSTORE DUP1 PUSH1 0x22 DUP2 MSTORE PUSH1 0x20 ADD PUSH2 0x1170 PUSH1 0x22 SWAP2 CODECOPY SWAP2 POP JUMPDEST DUP2 SWAP3 POP POP POP SWAP1 JUMP JUMPDEST PUSH1 0x0 PUSH1 0x2 DUP3 PUSH1 0x40 MLOAD PUSH2 0x4C0 SWAP2 SWAP1 PUSH2 0xE87 JUMP JUMPDEST SWAP1 DUP2 MSTORE PUSH1 0x20 ADD PUSH1 0x40 MLOAD DUP1 SWAP2 SUB SWAP1 KECCAK256 SLOAD SWAP1 POP SWAP2 SWAP1 POP JUMP JUMPDEST PUSH1 0x60 PUSH1 0x3 DUP1 SLOAD DUP1 PUSH1 0x20 MUL PUSH1 0x20 ADD PUSH1 0x40 MLOAD SWAP1 DUP2 ADD PUSH1 0x40 MSTORE DUP1 SWAP3 SWAP2 SWAP1 DUP2 DUP2 MSTORE PUSH1 0x20 ADD PUSH1 0x0 SWAP1 JUMPDEST DUP3 DUP3 LT ISZERO PUSH2 0x5B6 JUMPI DUP4 DUP3 SWAP1 PUSH1 0x0 MSTORE PUSH1 0x20 PUSH1 0x0 KECCAK256 ADD DUP1 SLOAD PUSH1 0x1 DUP2 PUSH1 0x1 AND ISZERO PUSH2 0x100 MUL SUB AND PUSH1 0x2 SWAP1 DIV DUP1 PUSH1 0x1F ADD PUSH1 0x20 DUP1 SWAP2 DIV MUL PUSH1 0x20 ADD PUSH1 0x40 MLOAD SWAP1 DUP2 ADD PUSH1 0x40 MSTORE DUP1 SWAP3 SWAP2 SWAP1 DUP2 DUP2 MSTORE PUSH1 0x20 ADD DUP3 DUP1 SLOAD PUSH1 0x1 DUP2 PUSH1 0x1 AND ISZERO PUSH2 0x100 MUL SUB AND PUSH1 0x2 SWAP1 DIV DUP1 ISZERO PUSH2 0x5A2 JUMPI DUP1 PUSH1 0x1F LT PUSH2 0x577 JUMPI PUSH2 0x100 DUP1 DUP4 SLOAD DIV MUL DUP4 MSTORE SWAP2 PUSH1 0x20 ADD SWAP2 PUSH2 0x5A2 JUMP JUMPDEST DUP3 ADD SWAP2 SWAP1 PUSH1 0x0 MSTORE PUSH1 0x20 PUSH1 0x0 KECCAK256 SWAP1 JUMPDEST DUP2 SLOAD DUP2 MSTORE SWAP1 PUSH1 0x1 ADD SWAP1 PUSH1 0x20 ADD DUP1 DUP4 GT PUSH2 0x585 JUMPI DUP3 SWAP1 SUB PUSH1 0x1F AND DUP3 ADD SWAP2 JUMPDEST POP POP POP POP POP DUP2 MSTORE PUSH1 0x20 ADD SWAP1 PUSH1 0x1 ADD SWAP1 PUSH2 0x4FA JUMP JUMPDEST POP POP POP POP SWAP1 POP SWAP1 JUMP JUMPDEST PUSH1 0x60 DUP1 PUSH1 0x0 DUP1 SWAP1 POP JUMPDEST PUSH1 0x3 DUP1 SLOAD SWAP1 POP DUP2 LT ISZERO PUSH2 0x6DD JUMPI DUP2 PUSH1 0x3 DUP3 DUP2 SLOAD DUP2 LT PUSH2 0x5E3 JUMPI INVALID JUMPDEST SWAP1 PUSH1 0x0 MSTORE PUSH1 0x20 PUSH1 0x0 KECCAK256 ADD PUSH2 0x6AD PUSH2 0x6A8 PUSH1 0x3 DUP6 DUP2 SLOAD DUP2 LT PUSH2 0x600 JUMPI INVALID JUMPDEST SWAP1 PUSH1 0x0 MSTORE PUSH1 0x20 PUSH1 0x0 KECCAK256 ADD DUP1 SLOAD PUSH1 0x1 DUP2 PUSH1 0x1 AND ISZERO PUSH2 0x100 MUL SUB AND PUSH1 0x2 SWAP1 DIV DUP1 PUSH1 0x1F ADD PUSH1 0x20 DUP1 SWAP2 DIV MUL PUSH1 0x20 ADD PUSH1 0x40 MLOAD SWAP1 DUP2 ADD PUSH1 0x40 MSTORE DUP1 SWAP3 SWAP2 SWAP1 DUP2 DUP2 MSTORE PUSH1 0x20 ADD DUP3 DUP1 SLOAD PUSH1 0x1 DUP2 PUSH1 0x1 AND ISZERO PUSH2 0x100 MUL SUB AND PUSH1 0x2 SWAP1 DIV DUP1 ISZERO PUSH2 0x69E JUMPI DUP1 PUSH1 0x1F LT PUSH2 0x673 JUMPI PUSH2 0x100 DUP1 DUP4 SLOAD DIV MUL DUP4 MSTORE SWAP2 PUSH1 0x20 ADD SWAP2 PUSH2 0x69E JUMP JUMPDEST DUP3 ADD SWAP2 SWAP1 PUSH1 0x0 MSTORE PUSH1 0x20 PUSH1 0x0 KECCAK256 SWAP1 JUMPDEST DUP2 SLOAD DUP2 MSTORE SWAP1 PUSH1 0x1 ADD SWAP1 PUSH1 0x20 ADD DUP1 DUP4 GT PUSH2 0x681 JUMPI DUP3 SWAP1 SUB PUSH1 0x1F AND DUP3 ADD SWAP2 JUMPDEST POP POP POP POP POP PUSH2 0x4AE JUMP JUMPDEST PUSH2 0x87A JUMP JUMPDEST PUSH1 0x40 MLOAD PUSH1 0x20 ADD PUSH2 0x6BF SWAP4 SWAP3 SWAP2 SWAP1 PUSH2 0xE9E JUMP JUMPDEST PUSH1 0x40 MLOAD PUSH1 0x20 DUP2 DUP4 SUB SUB DUP2 MSTORE SWAP1 PUSH1 0x40 MSTORE SWAP2 POP DUP1 DUP1 PUSH1 0x1 ADD SWAP2 POP POP PUSH2 0x5C8 JUMP JUMPDEST POP DUP1 SWAP2 POP POP SWAP1 JUMP JUMPDEST PUSH1 0x0 DUP4 DUP4 DUP4 PUSH1 0x40 MLOAD PUSH1 0x20 ADD PUSH2 0x6FC SWAP4 SWAP3 SWAP2 SWAP1 PUSH2 0xEF0 JUMP JUMPDEST PUSH1 0x40 MLOAD PUSH1 0x20 DUP2 DUP4 SUB SUB DUP2 MSTORE SWAP1 PUSH1 0x40 MSTORE DUP1 MLOAD SWAP1 PUSH1 0x20 ADD KECCAK256 SWAP1 POP DUP1 PUSH1 0x1 DUP6 PUSH1 0x40 MLOAD PUSH2 0x725 SWAP2 SWAP1 PUSH2 0xE87 JUMP JUMPDEST SWAP1 DUP2 MSTORE PUSH1 0x20 ADD PUSH1 0x40 MLOAD DUP1 SWAP2 SUB SWAP1 KECCAK256 DUP2 SWAP1 SSTORE POP PUSH1 0x3 DUP5 SWAP1 DUP1 PUSH1 0x1 DUP2 SLOAD ADD DUP1 DUP3 SSTORE DUP1 SWAP2 POP POP PUSH1 0x1 SWAP1 SUB SWAP1 PUSH1 0x0 MSTORE PUSH1 0x20 PUSH1 0x0 KECCAK256 ADD PUSH1 0x0 SWAP1 SWAP2 SWAP1 SWAP2 SWAP1 SWAP2 POP SWAP1 DUP1 MLOAD SWAP1 PUSH1 0x20 ADD SWAP1 PUSH2 0x772 SWAP3 SWAP2 SWAP1 PUSH2 0x9A7 JUMP JUMPDEST POP POP POP POP POP JUMP JUMPDEST PUSH1 0x0 CALLER PUSH1 0x40 MLOAD PUSH1 0x20 ADD PUSH2 0x78C SWAP2 SWAP1 PUSH2 0xE6C JUMP JUMPDEST PUSH1 0x40 MLOAD PUSH1 0x20 DUP2 DUP4 SUB SUB DUP2 MSTORE SWAP1 PUSH1 0x40 MSTORE DUP1 MLOAD SWAP1 PUSH1 0x20 ADD KECCAK256 SWAP1 POP PUSH1 0x0 DUP1 SWAP1 POP JUMPDEST PUSH1 0x4 DUP1 SLOAD SWAP1 POP DUP2 LT ISZERO PUSH2 0x81E JUMPI DUP2 PUSH1 0x4 DUP3 DUP2 SLOAD DUP2 LT PUSH2 0x7C5 JUMPI INVALID JUMPDEST SWAP1 PUSH1 0x0 MSTORE PUSH1 0x20 PUSH1 0x0 KECCAK256 ADD SLOAD EQ ISZERO PUSH2 0x811 JUMPI PUSH1 0x40 MLOAD PUSH32 0x8C379A000000000000000000000000000000000000000000000000000000000 DUP2 MSTORE PUSH1 0x4 ADD PUSH2 0x808 SWAP1 PUSH2 0xF69 JUMP JUMPDEST PUSH1 0x40 MLOAD DUP1 SWAP2 SUB SWAP1 REVERT JUMPDEST DUP1 DUP1 PUSH1 0x1 ADD SWAP2 POP POP PUSH2 0x7AA JUMP JUMPDEST POP PUSH1 0x4 DUP2 SWAP1 DUP1 PUSH1 0x1 DUP2 SLOAD ADD DUP1 DUP3 SSTORE DUP1 SWAP2 POP POP PUSH1 0x1 SWAP1 SUB SWAP1 PUSH1 0x0 MSTORE PUSH1 0x20 PUSH1 0x0 KECCAK256 ADD PUSH1 0x0 SWAP1 SWAP2 SWAP1 SWAP2 SWAP1 SWAP2 POP SSTORE PUSH1 0x2 DUP3 PUSH1 0x40 MLOAD PUSH2 0x858 SWAP2 SWAP1 PUSH2 0xE87 JUMP JUMPDEST SWAP1 DUP2 MSTORE PUSH1 0x20 ADD PUSH1 0x40 MLOAD DUP1 SWAP2 SUB SWAP1 KECCAK256 PUSH1 0x0 DUP2 SLOAD DUP1 SWAP3 SWAP2 SWAP1 PUSH1 0x1 ADD SWAP2 SWAP1 POP SSTORE POP POP POP JUMP JUMPDEST PUSH1 0x60 PUSH1 0x0 DUP3 EQ ISZERO PUSH2 0x8C2 JUMPI PUSH1 0x40 MLOAD DUP1 PUSH1 0x40 ADD PUSH1 0x40 MSTORE DUP1 PUSH1 0x1 DUP2 MSTORE PUSH1 0x20 ADD PUSH32 0x3000000000000000000000000000000000000000000000000000000000000000 DUP2 MSTORE POP SWAP1 POP PUSH2 0x9A2 JUMP JUMPDEST PUSH1 0x0 DUP3 SWAP1 POP PUSH1 0x0 JUMPDEST PUSH1 0x0 DUP3 EQ PUSH2 0x8EC JUMPI DUP1 DUP1 PUSH1 0x1 ADD SWAP2 POP POP PUSH1 0xA DUP3 DUP2 PUSH2 0x8E4 JUMPI INVALID JUMPDEST DIV SWAP2 POP PUSH2 0x8CA JUMP JUMPDEST PUSH1 0x60 DUP2 PUSH1 0x40 MLOAD SWAP1 DUP1 DUP3 MSTORE DUP1 PUSH1 0x1F ADD PUSH1 0x1F NOT AND PUSH1 0x20 ADD DUP3 ADD PUSH1 0x40 MSTORE DUP1 ISZERO PUSH2 0x921 JUMPI DUP2 PUSH1 0x20 ADD PUSH1 0x1 DUP3 MUL DUP1 CODESIZE DUP4 CODECOPY DUP1 DUP3 ADD SWAP2 POP POP SWAP1 POP JUMPDEST POP SWAP1 POP PUSH1 0x0 PUSH1 0x1 DUP4 SUB SWAP1 POP JUMPDEST PUSH1 0x0 DUP7 EQ PUSH2 0x99A JUMPI PUSH1 0xA DUP7 DUP2 PUSH2 0x93F JUMPI INVALID JUMPDEST MOD PUSH1 0x30 ADD PUSH1 0xF8 SHL DUP3 DUP3 DUP1 PUSH1 0x1 SWAP1 SUB SWAP4 POP DUP2 MLOAD DUP2 LT PUSH2 0x959 JUMPI INVALID JUMPDEST PUSH1 0x20 ADD ADD SWAP1 PUSH31 0xFFFFFFFFFFFFFFFFFFFFFFFFFFFFFFFFFFFFFFFFFFFFFFFFFFFFFFFFFFFFFF NOT AND SWAP1 DUP2 PUSH1 0x0 BYTE SWAP1 MSTORE8 POP PUSH1 0xA DUP7 DUP2 PUSH2 0x992 JUMPI INVALID JUMPDEST DIV SWAP6 POP PUSH2 0x92D JUMP JUMPDEST DUP2 SWAP5 POP POP POP POP POP JUMPDEST SWAP2 SWAP1 POP JUMP JUMPDEST DUP3 DUP1 SLOAD PUSH1 0x1 DUP2 PUSH1 0x1 AND ISZERO PUSH2 0x100 MUL SUB AND PUSH1 0x2 SWAP1 DIV SWAP1 PUSH1 0x0 MSTORE PUSH1 0x20 PUSH1 0x0 KECCAK256 SWAP1 PUSH1 0x1F ADD PUSH1 0x20 SWAP1 DIV DUP2 ADD SWAP3 DUP3 PUSH1 0x1F LT PUSH2 0x9E8 JUMPI DUP1 MLOAD PUSH1 0xFF NOT AND DUP4 DUP1 ADD OR DUP6 SSTORE PUSH2 0xA16 JUMP JUMPDEST DUP3 DUP1 ADD PUSH1 0x1 ADD DUP6 SSTORE DUP3 ISZERO PUSH2 0xA16 JUMPI SWAP2 DUP3 ADD JUMPDEST DUP3 DUP2 GT ISZERO PUSH2 0xA15 JUMPI DUP3 MLOAD DUP3 SSTORE SWAP2 PUSH1 0x20 ADD SWAP2 SWAP1 PUSH1 0x1 ADD SWAP1 PUSH2 0x9FA JUMP JUMPDEST JUMPDEST POP SWAP1 POP PUSH2 0xA23 SWAP2 SWAP1 PUSH2 0xA27 JUMP JUMPDEST POP SWAP1 JUMP JUMPDEST PUSH2 0xA49 SWAP2 SWAP1 JUMPDEST DUP1 DUP3 GT ISZERO PUSH2 0xA45 JUMPI PUSH1 0x0 DUP2 PUSH1 0x0 SWAP1 SSTORE POP PUSH1 0x1 ADD PUSH2 0xA2D JUMP JUMPDEST POP SWAP1 JUMP JUMPDEST SWAP1 JUMP JUMPDEST PUSH1 0x0 DUP3 PUSH1 0x1F DUP4 ADD SLT PUSH2 0xA5D JUMPI PUSH1 0x0 DUP1 REVERT JUMPDEST DUP2 CALLDATALOAD PUSH2 0xA70 PUSH2 0xA6B DUP3 PUSH2 0xFD1 JUMP JUMPDEST PUSH2 0xFA4 JUMP JUMPDEST SWAP2 POP DUP1 DUP3 MSTORE PUSH1 0x20 DUP4 ADD PUSH1 0x20 DUP4 ADD DUP6 DUP4 DUP4 ADD GT ISZERO PUSH2 0xA8C JUMPI PUSH1 0x0 DUP1 REVERT JUMPDEST PUSH2 0xA97 DUP4 DUP3 DUP5 PUSH2 0x10CA JUMP JUMPDEST POP POP POP SWAP3 SWAP2 POP POP JUMP JUMPDEST PUSH1 0x0 DUP2 CALLDATALOAD SWAP1 POP PUSH2 0xAAF DUP2 PUSH2 0x1158 JUMP JUMPDEST SWAP3 SWAP2 POP POP JUMP JUMPDEST PUSH1 0x0 PUSH1 0x20 DUP3 DUP5 SUB SLT ISZERO PUSH2 0xAC7 JUMPI PUSH1 0x0 DUP1 REVERT JUMPDEST PUSH1 0x0 DUP3 ADD CALLDATALOAD PUSH8 0xFFFFFFFFFFFFFFFF DUP2 GT ISZERO PUSH2 0xAE1 JUMPI PUSH1 0x0 DUP1 REVERT JUMPDEST PUSH2 0xAED DUP5 DUP3 DUP6 ADD PUSH2 0xA4C JUMP JUMPDEST SWAP2 POP POP SWAP3 SWAP2 POP POP JUMP JUMPDEST PUSH1 0x0 DUP1 PUSH1 0x0 PUSH1 0x60 DUP5 DUP7 SUB SLT ISZERO PUSH2 0xB0B JUMPI PUSH1 0x0 DUP1 REVERT JUMPDEST PUSH1 0x0 DUP5 ADD CALLDATALOAD PUSH8 0xFFFFFFFFFFFFFFFF DUP2 GT ISZERO PUSH2 0xB25 JUMPI PUSH1 0x0 DUP1 REVERT JUMPDEST PUSH2 0xB31 DUP7 DUP3 DUP8 ADD PUSH2 0xA4C JUMP JUMPDEST SWAP4 POP POP PUSH1 0x20 PUSH2 0xB42 DUP7 DUP3 DUP8 ADD PUSH2 0xAA0 JUMP JUMPDEST SWAP3 POP POP PUSH1 0x40 DUP5 ADD CALLDATALOAD PUSH8 0xFFFFFFFFFFFFFFFF DUP2 GT ISZERO PUSH2 0xB5F JUMPI PUSH1 0x0 DUP1 REVERT JUMPDEST PUSH2 0xB6B DUP7 DUP3 DUP8 ADD PUSH2 0xA4C JUMP JUMPDEST SWAP2 POP POP SWAP3 POP SWAP3 POP SWAP3 JUMP JUMPDEST PUSH1 0x0 PUSH2 0xB81 DUP4 DUP4 PUSH2 0xC7F JUMP JUMPDEST SWAP1 POP SWAP3 SWAP2 POP POP JUMP JUMPDEST PUSH2 0xB9A PUSH2 0xB95 DUP3 PUSH2 0x108E JUMP JUMPDEST PUSH2 0x110C JUMP JUMPDEST DUP3 MSTORE POP POP JUMP JUMPDEST PUSH1 0x0 PUSH2 0xBAB DUP3 PUSH2 0x1022 JUMP JUMPDEST PUSH2 0xBB5 DUP2 DUP6 PUSH2 0x1050 JUMP JUMPDEST SWAP4 POP DUP4 PUSH1 0x20 DUP3 MUL DUP6 ADD PUSH2 0xBC7 DUP6 PUSH2 0xFFD JUMP JUMPDEST DUP1 PUSH1 0x0 JUMPDEST DUP6 DUP2 LT ISZERO PUSH2 0xC03 JUMPI DUP5 DUP5 SUB DUP10 MSTORE DUP2 MLOAD PUSH2 0xBE4 DUP6 DUP3 PUSH2 0xB75 JUMP JUMPDEST SWAP5 POP PUSH2 0xBEF DUP4 PUSH2 0x1043 JUMP JUMPDEST SWAP3 POP PUSH1 0x20 DUP11 ADD SWAP10 POP POP PUSH1 0x1 DUP2 ADD SWAP1 POP PUSH2 0xBCB JUMP JUMPDEST POP DUP3 SWAP8 POP DUP8 SWAP6 POP POP POP POP POP POP SWAP3 SWAP2 POP POP JUMP JUMPDEST PUSH1 0x0 PUSH2 0xC20 DUP3 PUSH2 0x1038 JUMP JUMPDEST PUSH2 0xC2A DUP2 DUP6 PUSH2 0x1072 JUMP JUMPDEST SWAP4 POP PUSH2 0xC3A DUP2 DUP6 PUSH1 0x20 DUP7 ADD PUSH2 0x10D9 JUMP JUMPDEST PUSH2 0xC43 DUP2 PUSH2 0x113A JUMP JUMPDEST DUP5 ADD SWAP2 POP POP SWAP3 SWAP2 POP POP JUMP JUMPDEST PUSH1 0x0 PUSH2 0xC59 DUP3 PUSH2 0x1038 JUMP JUMPDEST PUSH2 0xC63 DUP2 DUP6 PUSH2 0x1083 JUMP JUMPDEST SWAP4 POP PUSH2 0xC73 DUP2 DUP6 PUSH1 0x20 DUP7 ADD PUSH2 0x10D9 JUMP JUMPDEST DUP1 DUP5 ADD SWAP2 POP POP SWAP3 SWAP2 POP POP JUMP JUMPDEST PUSH1 0x0 PUSH2 0xC8A DUP3 PUSH2 0x102D JUMP JUMPDEST PUSH2 0xC94 DUP2 DUP6 PUSH2 0x1061 JUMP JUMPDEST SWAP4 POP PUSH2 0xCA4 DUP2 DUP6 PUSH1 0x20 DUP7 ADD PUSH2 0x10D9 JUMP JUMPDEST PUSH2 0xCAD DUP2 PUSH2 0x113A JUMP JUMPDEST DUP5 ADD SWAP2 POP POP SWAP3 SWAP2 POP POP JUMP JUMPDEST PUSH1 0x0 DUP2 SLOAD PUSH1 0x1 DUP2 AND PUSH1 0x0 DUP2 EQ PUSH2 0xCD5 JUMPI PUSH1 0x1 DUP2 EQ PUSH2 0xCFA JUMPI PUSH2 0xD3E JUMP JUMPDEST PUSH1 0x7F PUSH1 0x2 DUP4 DIV AND PUSH2 0xCE6 DUP2 DUP8 PUSH2 0x1083 JUMP JUMPDEST SWAP6 POP PUSH1 0xFF NOT DUP4 AND DUP7 MSTORE DUP1 DUP7 ADD SWAP4 POP POP PUSH2 0xD3E JUMP JUMPDEST PUSH1 0x2 DUP3 DIV PUSH2 0xD08 DUP2 DUP8 PUSH2 0x1083 JUMP JUMPDEST SWAP6 POP PUSH2 0xD13 DUP6 PUSH2 0x100D JUMP JUMPDEST PUSH1 0x0 JUMPDEST DUP3 DUP2 LT ISZERO PUSH2 0xD35 JUMPI DUP2 SLOAD DUP2 DUP10 ADD MSTORE PUSH1 0x1 DUP3 ADD SWAP2 POP PUSH1 0x20 DUP2 ADD SWAP1 POP PUSH2 0xD16 JUMP JUMPDEST DUP3 DUP9 ADD SWAP6 POP POP POP POP JUMPDEST POP POP SWAP3 SWAP2 POP POP JUMP JUMPDEST PUSH1 0x0 PUSH2 0xD53 PUSH1 0x1 DUP4 PUSH2 0x1083 JUMP JUMPDEST SWAP2 POP PUSH32 0x2C00000000000000000000000000000000000000000000000000000000000000 PUSH1 0x0 DUP4 ADD MSTORE PUSH1 0x1 DUP3 ADD SWAP1 POP SWAP2 SWAP1 POP JUMP JUMPDEST PUSH1 0x0 PUSH2 0xD93 PUSH1 0x1 DUP4 PUSH2 0x1083 JUMP JUMPDEST SWAP2 POP PUSH32 0x2800000000000000000000000000000000000000000000000000000000000000 PUSH1 0x0 DUP4 ADD MSTORE PUSH1 0x1 DUP3 ADD SWAP1 POP SWAP2 SWAP1 POP JUMP JUMPDEST PUSH1 0x0 PUSH2 0xDD3 PUSH1 0x5 DUP4 PUSH2 0x1083 JUMP JUMPDEST SWAP2 POP PUSH32 0x292D2D2D2D000000000000000000000000000000000000000000000000000000 PUSH1 0x0 DUP4 ADD MSTORE PUSH1 0x5 DUP3 ADD SWAP1 POP SWAP2 SWAP1 POP JUMP JUMPDEST PUSH1 0x0 PUSH2 0xE13 PUSH1 0x19 DUP4 PUSH2 0x1072 JUMP JUMPDEST SWAP2 POP PUSH32 0x59612068617320766F7461646F207072657669616D656E746500000000000000 PUSH1 0x0 DUP4 ADD MSTORE PUSH1 0x20 DUP3 ADD SWAP1 POP SWAP2 SWAP1 POP JUMP JUMPDEST PUSH2 0xE4F DUP2 PUSH2 0x10C0 JUMP JUMPDEST DUP3 MSTORE POP POP JUMP JUMPDEST PUSH2 0xE66 PUSH2 0xE61 DUP3 PUSH2 0x10C0 JUMP JUMPDEST PUSH2 0x1130 JUMP JUMPDEST DUP3 MSTORE POP POP JUMP JUMPDEST PUSH1 0x0 PUSH2 0xE78 DUP3 DUP5 PUSH2 0xB89 JUMP JUMPDEST PUSH1 0x14 DUP3 ADD SWAP2 POP DUP2 SWAP1 POP SWAP3 SWAP2 POP POP JUMP JUMPDEST PUSH1 0x0 PUSH2 0xE93 DUP3 DUP5 PUSH2 0xC4E JUMP JUMPDEST SWAP2 POP DUP2 SWAP1 POP SWAP3 SWAP2 POP POP JUMP JUMPDEST PUSH1 0x0 PUSH2 0xEAA DUP3 DUP7 PUSH2 0xC4E JUMP JUMPDEST SWAP2 POP PUSH2 0xEB5 DUP3 PUSH2 0xD86 JUMP JUMPDEST SWAP2 POP PUSH2 0xEC1 DUP3 DUP6 PUSH2 0xCB8 JUMP JUMPDEST SWAP2 POP PUSH2 0xECC DUP3 PUSH2 0xD46 JUMP JUMPDEST SWAP2 POP PUSH2 0xED8 DUP3 DUP5 PUSH2 0xC4E JUMP JUMPDEST SWAP2 POP PUSH2 0xEE3 DUP3 PUSH2 0xDC6 JUMP JUMPDEST SWAP2 POP DUP2 SWAP1 POP SWAP5 SWAP4 POP POP POP POP JUMP JUMPDEST PUSH1 0x0 PUSH2 0xEFC DUP3 DUP7 PUSH2 0xC4E JUMP JUMPDEST SWAP2 POP PUSH2 0xF08 DUP3 DUP6 PUSH2 0xE55 JUMP JUMPDEST PUSH1 0x20 DUP3 ADD SWAP2 POP PUSH2 0xF18 DUP3 DUP5 PUSH2 0xC4E JUMP JUMPDEST SWAP2 POP DUP2 SWAP1 POP SWAP5 SWAP4 POP POP POP POP JUMP JUMPDEST PUSH1 0x0 PUSH1 0x20 DUP3 ADD SWAP1 POP DUP2 DUP2 SUB PUSH1 0x0 DUP4 ADD MSTORE PUSH2 0xF3F DUP2 DUP5 PUSH2 0xBA0 JUMP JUMPDEST SWAP1 POP SWAP3 SWAP2 POP POP JUMP JUMPDEST PUSH1 0x0 PUSH1 0x20 DUP3 ADD SWAP1 POP DUP2 DUP2 SUB PUSH1 0x0 DUP4 ADD MSTORE PUSH2 0xF61 DUP2 DUP5 PUSH2 0xC15 JUMP JUMPDEST SWAP1 POP SWAP3 SWAP2 POP POP JUMP JUMPDEST PUSH1 0x0 PUSH1 0x20 DUP3 ADD SWAP1 POP DUP2 DUP2 SUB PUSH1 0x0 DUP4 ADD MSTORE PUSH2 0xF82 DUP2 PUSH2 0xE06 JUMP JUMPDEST SWAP1 POP SWAP2 SWAP1 POP JUMP JUMPDEST PUSH1 0x0 PUSH1 0x20 DUP3 ADD SWAP1 POP PUSH2 0xF9E PUSH1 0x0 DUP4 ADD DUP5 PUSH2 0xE46 JUMP JUMPDEST SWAP3 SWAP2 POP POP JUMP JUMPDEST PUSH1 0x0 PUSH1 0x40 MLOAD SWAP1 POP DUP2 DUP2 ADD DUP2 DUP2 LT PUSH8 0xFFFFFFFFFFFFFFFF DUP3 GT OR ISZERO PUSH2 0xFC7 JUMPI PUSH1 0x0 DUP1 REVERT JUMPDEST DUP1 PUSH1 0x40 MSTORE POP SWAP2 SWAP1 POP JUMP JUMPDEST PUSH1 0x0 PUSH8 0xFFFFFFFFFFFFFFFF DUP3 GT ISZERO PUSH2 0xFE8 JUMPI PUSH1 0x0 DUP1 REVERT JUMPDEST PUSH1 0x1F NOT PUSH1 0x1F DUP4 ADD AND SWAP1 POP PUSH1 0x20 DUP2 ADD SWAP1 POP SWAP2 SWAP1 POP JUMP JUMPDEST PUSH1 0x0 DUP2 SWAP1 POP PUSH1 0x20 DUP3 ADD SWAP1 POP SWAP2 SWAP1 POP JUMP JUMPDEST PUSH1 0x0 DUP2 SWAP1 POP DUP2 PUSH1 0x0 MSTORE PUSH1 0x20 PUSH1 0x0 KECCAK256 SWAP1 POP SWAP2 SWAP1 POP JUMP JUMPDEST PUSH1 0x0 DUP2 MLOAD SWAP1 POP SWAP2 SWAP1 POP JUMP JUMPDEST PUSH1 0x0 DUP2 MLOAD SWAP1 POP SWAP2 SWAP1 POP JUMP JUMPDEST PUSH1 0x0 DUP2 MLOAD SWAP1 POP SWAP2 SWAP1 POP JUMP JUMPDEST PUSH1 0x0 PUSH1 0x20 DUP3 ADD SWAP1 POP SWAP2 SWAP1 POP JUMP JUMPDEST PUSH1 0x0 DUP3 DUP3 MSTORE PUSH1 0x20 DUP3 ADD SWAP1 POP SWAP3 SWAP2 POP POP JUMP JUMPDEST PUSH1 0x0 DUP3 DUP3 MSTORE PUSH1 0x20 DUP3 ADD SWAP1 POP SWAP3 SWAP2 POP POP JUMP JUMPDEST PUSH1 0x0 DUP3 DUP3 MSTORE PUSH1 0x20 DUP3 ADD SWAP1 POP SWAP3 SWAP2 POP POP JUMP JUMPDEST PUSH1 0x0 DUP2 SWAP1 POP SWAP3 SWAP2 POP POP JUMP JUMPDEST PUSH1 0x0 PUSH2 0x1099 DUP3 PUSH2 0x10A0 JUMP JUMPDEST SWAP1 POP SWAP2 SWAP1 POP JUMP JUMPDEST PUSH1 0x0 PUSH20 0xFFFFFFFFFFFFFFFFFFFFFFFFFFFFFFFFFFFFFFFF DUP3 AND SWAP1 POP SWAP2 SWAP1 POP JUMP JUMPDEST PUSH1 0x0 DUP2 SWAP1 POP SWAP2 SWAP1 POP JUMP JUMPDEST DUP3 DUP2 DUP4 CALLDATACOPY PUSH1 0x0 DUP4 DUP4 ADD MSTORE POP POP POP JUMP JUMPDEST PUSH1 0x0 JUMPDEST DUP4 DUP2 LT ISZERO PUSH2 0x10F7 JUMPI DUP1 DUP3 ADD MLOAD DUP2 DUP5 ADD MSTORE PUSH1 0x20 DUP2 ADD SWAP1 POP PUSH2 0x10DC JUMP JUMPDEST DUP4 DUP2 GT ISZERO PUSH2 0x1106 JUMPI PUSH1 0x0 DUP5 DUP5 ADD MSTORE JUMPDEST POP POP POP POP JUMP JUMPDEST PUSH1 0x0 PUSH2 0x1117 DUP3 PUSH2 0x111E JUMP JUMPDEST SWAP1 POP SWAP2 SWAP1 POP JUMP JUMPDEST PUSH1 0x0 PUSH2 0x1129 DUP3 PUSH2 0x114B JUMP JUMPDEST SWAP1 POP SWAP2 SWAP1 POP JUMP JUMPDEST PUSH1 0x0 DUP2 SWAP1 POP SWAP2 SWAP1 POP JUMP JUMPDEST PUSH1 0x0 PUSH1 0x1F NOT PUSH1 0x1F DUP4 ADD AND SWAP1 POP SWAP2 SWAP1 POP JUMP JUMPDEST PUSH1 0x0 DUP2 PUSH1 0x60 SHL SWAP1 POP SWAP2 SWAP1 POP JUMP JUMPDEST PUSH2 0x1161 DUP2 PUSH2 0x10C0 JUMP JUMPDEST DUP2 EQ PUSH2 0x116C JUMPI PUSH1 0x0 DUP1 REVERT JUMPDEST POP JUMP INVALID 0x48 PUSH2 0x7920 PUSH22 0x6E20656D7061746520656E747265206C6F732063616E PUSH5 0x696461746F PUSH20 0xA2646970667358221220DC9E315F7944FA389992 0xE1 0xE3 JUMPDEST 0xEB DUP4 0xF AND SMOD 0xA8 EXTCODECOPY CHAINID 0xCC COINBASE POP 0xBD INVALID 0x25 0xD2 PUSH14 0x7A7F3864736F6C63430006000033 "
				},
				"gasEstimates": {
					"creation": {
						"codeDepositCost": "910200",
						"executionCost": "21814",
						"totalCost": "932014"
					},
					"external": {
						"Ganador()": "infinite",
						"Representar(string,uint256,string)": "infinite",
						"VerCandidatos()": "infinite",
						"VerResultados()": "infinite",
						"VerVotos(string)": "infinite",
						"Votar(string)": "infinite"
					},
					"internal": {
						"uint2str(uint256)": "infinite"
					}
				},
				"methodIdentifiers": {
					"Ganador()": "55911cc1",
					"Representar(string,uint256,string)": "f01ca6b7",
					"VerCandidatos()": "bfc2e938",
					"VerResultados()": "e7bf56fa",
					"VerVotos(string)": "8107caa1",
					"Votar(string)": "febe07dc"
				}
			},
			"storageLayout": {
				"storage": [
					{
						"astId": 4,
						"contract": "Bloque_2/VOTACIONES/votaciones.sol:votacion",
						"label": "owner",
						"offset": 0,
						"slot": "0",
						"type": "t_address"
					},
					{
						"astId": 17,
						"contract": "Bloque_2/VOTACIONES/votaciones.sol:votacion",
						"label": "ID_Candidato",
						"offset": 0,
						"slot": "1",
						"type": "t_mapping(t_string_memory,t_bytes32)"
					},
					{
						"astId": 21,
						"contract": "Bloque_2/VOTACIONES/votaciones.sol:votacion",
						"label": "votos_candidato",
						"offset": 0,
						"slot": "2",
						"type": "t_mapping(t_string_memory,t_uint256)"
					},
					{
						"astId": 24,
						"contract": "Bloque_2/VOTACIONES/votaciones.sol:votacion",
						"label": "candidatos",
						"offset": 0,
						"slot": "3",
						"type": "t_array(t_string_storage)dyn_storage"
					},
					{
						"astId": 27,
						"contract": "Bloque_2/VOTACIONES/votaciones.sol:votacion",
						"label": "votantes",
						"offset": 0,
						"slot": "4",
						"type": "t_array(t_bytes32)dyn_storage"
					}
				],
				"types": {
					"t_address": {
						"encoding": "inplace",
						"label": "address",
						"numberOfBytes": "20"
					},
					"t_array(t_bytes32)dyn_storage": {
						"base": "t_bytes32",
						"encoding": "dynamic_array",
						"label": "bytes32[]",
						"numberOfBytes": "32"
					},
					"t_array(t_string_storage)dyn_storage": {
						"base": "t_string_storage",
						"encoding": "dynamic_array",
						"label": "string[]",
						"numberOfBytes": "32"
					},
					"t_bytes32": {
						"encoding": "inplace",
						"label": "bytes32",
						"numberOfBytes": "32"
					},
					"t_mapping(t_string_memory,t_bytes32)": {
						"encoding": "mapping",
						"key": "t_string_memory",
						"label": "mapping(string => bytes32)",
						"numberOfBytes": "32",
						"value": "t_bytes32"
					},
					"t_mapping(t_string_memory,t_uint256)": {
						"encoding": "mapping",
						"key": "t_string_memory",
						"label": "mapping(string => uint256)",
						"numberOfBytes": "32",
						"value": "t_uint256"
					},
					"t_string_memory": {
						"encoding": "bytes",
						"label": "string",
						"numberOfBytes": "32"
					},
					"t_string_storage": {
						"encoding": "bytes",
						"label": "string",
						"numberOfBytes": "32"
					},
					"t_uint256": {
						"encoding": "inplace",
						"label": "uint256",
						"numberOfBytes": "32"
					}
				}
			},
			"userdoc": {
				"methods": {}
			}
		}
	}
}