{
	"Bloque_2/TOKEN/ERC20.sol": {
		"ERC20": {
			"abi": [
				{
					"inputs": [
						{
							"internalType": "uint256",
							"name": "initialSupply",
							"type": "uint256"
						}
					],
					"stateMutability": "nonpayable",
					"type": "constructor"
				},
				{
					"anonymous": false,
					"inputs": [
						{
							"indexed": true,
							"internalType": "address",
							"name": "owner",
							"type": "address"
						},
						{
							"indexed": true,
							"internalType": "address",
							"name": "spender",
							"type": "address"
						},
						{
							"indexed": false,
							"internalType": "uint256",
							"name": "tokens",
							"type": "uint256"
						}
					],
					"name": "Approval",
					"type": "event"
				},
				{
					"anonymous": false,
					"inputs": [
						{
							"indexed": true,
							"internalType": "address",
							"name": "from",
							"type": "address"
						},
						{
							"indexed": true,
							"internalType": "address",
							"name": "to",
							"type": "address"
						},
						{
							"indexed": false,
							"internalType": "uint256",
							"name": "tokens",
							"type": "uint256"
						}
					],
					"name": "Transfer",
					"type": "event"
				},
				{
					"inputs": [
						{
							"internalType": "address",
							"name": "owner",
							"type": "address"
						},
						{
							"internalType": "address",
							"name": "delegate",
							"type": "address"
						}
					],
					"name": "allowance",
					"outputs": [
						{
							"internalType": "uint256",
							"name": "",
							"type": "uint256"
						}
					],
					"stateMutability": "view",
					"type": "function"
				},
				{
					"inputs": [
						{
							"internalType": "address",
							"name": "delegate",
							"type": "address"
						},
						{
							"internalType": "uint256",
							"name": "numTokens",
							"type": "uint256"
						}
					],
					"name": "approve",
					"outputs": [
						{
							"internalType": "bool",
							"name": "",
							"type": "bool"
						}
					],
					"stateMutability": "nonpayable",
					"type": "function"
				},
				{
					"inputs": [
						{
							"internalType": "address",
							"name": "tokkenOwner",
							"type": "address"
						}
					],
					"name": "balanceOf",
					"outputs": [
						{
							"internalType": "uint256",
							"name": "",
							"type": "uint256"
						}
					],
					"stateMutability": "view",
					"type": "function"
				},
				{
					"inputs": [],
					"name": "decimals",
					"outputs": [
						{
							"internalType": "uint8",
							"name": "",
							"type": "uint8"
						}
					],
					"stateMutability": "view",
					"type": "function"
				},
				{
					"inputs": [
						{
							"internalType": "uint256",
							"name": "newTokensAmount",
							"type": "uint256"
						}
					],
					"name": "increaseTotalSuply",
					"outputs": [],
					"stateMutability": "nonpayable",
					"type": "function"
				},
				{
					"inputs": [],
					"name": "name",
					"outputs": [
						{
							"internalType": "string",
							"name": "",
							"type": "string"
						}
					],
					"stateMutability": "view",
					"type": "function"
				},
				{
					"inputs": [],
					"name": "symbol",
					"outputs": [
						{
							"internalType": "string",
							"name": "",
							"type": "string"
						}
					],
					"stateMutability": "view",
					"type": "function"
				},
				{
					"inputs": [],
					"name": "totalSupply",
					"outputs": [
						{
							"internalType": "uint256",
							"name": "",
							"type": "uint256"
						}
					],
					"stateMutability": "view",
					"type": "function"
				},
				{
					"inputs": [
						{
							"internalType": "address",
							"name": "recipient",
							"type": "address"
						},
						{
							"internalType": "uint256",
							"name": "numTokens",
							"type": "uint256"
						}
					],
					"name": "transfer",
					"outputs": [
						{
							"internalType": "bool",
							"name": "",
							"type": "bool"
						}
					],
					"stateMutability": "nonpayable",
					"type": "function"
				},
				{
					"inputs": [
						{
							"internalType": "address",
							"name": "owner",
							"type": "address"
						},
						{
							"internalType": "address",
							"name": "buyer",
							"type": "address"
						},
						{
							"internalType": "uint256",
							"name": "numTokens",
							"type": "uint256"
						}
					],
					"name": "transferFrom",
					"outputs": [
						{
							"internalType": "bool",
							"name": "",
							"type": "bool"
						}
					],
					"stateMutability": "nonpayable",
					"type": "function"
				}
			],
			"devdoc": {
				"methods": {}
			},
			"evm": {
				"assembly": "    /* \"Bloque_2/TOKEN/ERC20.sol\":1770:4064  contract ERC20 is IERC20 {\r... */\n  mstore(0x40, 0x80)\n    /* \"Bloque_2/TOKEN/ERC20.sol\":2280:2415  constructor(uint256 initialSupply) public {\r... */\n  callvalue\n    /* \"--CODEGEN--\":8:17   */\n  dup1\n    /* \"--CODEGEN--\":5:7   */\n  iszero\n  tag_1\n  jumpi\n    /* \"--CODEGEN--\":30:31   */\n  0x00\n    /* \"--CODEGEN--\":27:28   */\n  dup1\n    /* \"--CODEGEN--\":20:32   */\n  revert\n    /* \"--CODEGEN--\":5:7   */\ntag_1:\n    /* \"Bloque_2/TOKEN/ERC20.sol\":2280:2415  constructor(uint256 initialSupply) public {\r... */\n  pop\n  mload(0x40)\n  sub(codesize, bytecodeSize)\n  dup1\n  bytecodeSize\n  dup4\n  codecopy\n  dup2\n  dup2\n  add\n  0x40\n  mstore\n  tag_2\n  swap2\n  swap1\n  dup2\n  add\n  swap1\n  jump(tag_3)\ntag_2:\n    /* \"Bloque_2/TOKEN/ERC20.sol\":2348:2361  initialSupply */\n  dup1\n    /* \"Bloque_2/TOKEN/ERC20.sol\":2333:2345  totalSupply_ */\n  0x02\n    /* \"Bloque_2/TOKEN/ERC20.sol\":2333:2361  totalSupply_ = initialSupply */\n  dup2\n  swap1\n  sstore\n  pop\n    /* \"Bloque_2/TOKEN/ERC20.sol\":2395:2407  totalSupply_ */\n  sload(0x02)\n    /* \"Bloque_2/TOKEN/ERC20.sol\":2372:2380  balances */\n  0x00\n    /* \"Bloque_2/TOKEN/ERC20.sol\":2372:2392  balances[msg.sender] */\n  dup1\n    /* \"Bloque_2/TOKEN/ERC20.sol\":2381:2391  msg.sender */\n  caller\n    /* \"Bloque_2/TOKEN/ERC20.sol\":2372:2392  balances[msg.sender] */\n  0xffffffffffffffffffffffffffffffffffffffff\n  and\n  0xffffffffffffffffffffffffffffffffffffffff\n  and\n  dup2\n  mstore\n  0x20\n  add\n  swap1\n  dup2\n  mstore\n  0x20\n  add\n  0x00\n  keccak256\n    /* \"Bloque_2/TOKEN/ERC20.sol\":2372:2407  balances[msg.sender] = totalSupply_ */\n  dup2\n  swap1\n  sstore\n  pop\n    /* \"Bloque_2/TOKEN/ERC20.sol\":2280:2415  constructor(uint256 initialSupply) public {\r... */\n  pop\n    /* \"Bloque_2/TOKEN/ERC20.sol\":1770:4064  contract ERC20 is IERC20 {\r... */\n  jump(tag_6)\n    /* \"--CODEGEN--\":5:139   */\ntag_8:\n  0x00\n    /* \"--CODEGEN--\":89:95   */\n  dup2\n    /* \"--CODEGEN--\":83:96   */\n  mload\n    /* \"--CODEGEN--\":74:96   */\n  swap1\n  pop\n    /* \"--CODEGEN--\":101:134   */\n  tag_10\n    /* \"--CODEGEN--\":128:133   */\n  dup2\n    /* \"--CODEGEN--\":101:134   */\n  jump(tag_11)\ntag_10:\n    /* \"--CODEGEN--\":68:139   */\n  swap3\n  swap2\n  pop\n  pop\n  jump\n    /* \"--CODEGEN--\":146:409   */\ntag_3:\n  0x00\n    /* \"--CODEGEN--\":261:263   */\n  0x20\n    /* \"--CODEGEN--\":249:258   */\n  dup3\n    /* \"--CODEGEN--\":240:247   */\n  dup5\n    /* \"--CODEGEN--\":236:259   */\n  sub\n    /* \"--CODEGEN--\":232:264   */\n  slt\n    /* \"--CODEGEN--\":229:231   */\n  iszero\n  tag_13\n  jumpi\n    /* \"--CODEGEN--\":277:278   */\n  0x00\n    /* \"--CODEGEN--\":274:275   */\n  dup1\n    /* \"--CODEGEN--\":267:279   */\n  revert\n    /* \"--CODEGEN--\":229:231   */\ntag_13:\n    /* \"--CODEGEN--\":312:313   */\n  0x00\n    /* \"--CODEGEN--\":329:393   */\n  tag_14\n    /* \"--CODEGEN--\":385:392   */\n  dup5\n    /* \"--CODEGEN--\":376:382   */\n  dup3\n    /* \"--CODEGEN--\":365:374   */\n  dup6\n    /* \"--CODEGEN--\":361:383   */\n  add\n    /* \"--CODEGEN--\":329:393   */\n  jump(tag_8)\ntag_14:\n    /* \"--CODEGEN--\":319:393   */\n  swap2\n  pop\n    /* \"--CODEGEN--\":291:399   */\n  pop\n    /* \"--CODEGEN--\":223:409   */\n  swap3\n  swap2\n  pop\n  pop\n  jump\n    /* \"--CODEGEN--\":416:488   */\ntag_15:\n  0x00\n    /* \"--CODEGEN--\":478:483   */\n  dup2\n    /* \"--CODEGEN--\":467:483   */\n  swap1\n  pop\n    /* \"--CODEGEN--\":461:488   */\n  swap2\n  swap1\n  pop\n  jump\n    /* \"--CODEGEN--\":495:612   */\ntag_11:\n    /* \"--CODEGEN--\":564:588   */\n  tag_18\n    /* \"--CODEGEN--\":582:587   */\n  dup2\n    /* \"--CODEGEN--\":564:588   */\n  jump(tag_15)\ntag_18:\n    /* \"--CODEGEN--\":557:562   */\n  dup2\n    /* \"--CODEGEN--\":554:589   */\n  eq\n    /* \"--CODEGEN--\":544:546   */\n  tag_19\n  jumpi\n    /* \"--CODEGEN--\":603:604   */\n  0x00\n    /* \"--CODEGEN--\":600:601   */\n  dup1\n    /* \"--CODEGEN--\":593:605   */\n  revert\n    /* \"--CODEGEN--\":544:546   */\ntag_19:\n    /* \"--CODEGEN--\":538:612   */\n  pop\n  jump\n    /* \"Bloque_2/TOKEN/ERC20.sol\":1770:4064  contract ERC20 is IERC20 {\r... */\ntag_6:\n  dataSize(sub_0)\n  dup1\n  dataOffset(sub_0)\n  0x00\n  codecopy\n  0x00\n  return\nstop\n\nsub_0: assembly {\n        /* \"Bloque_2/TOKEN/ERC20.sol\":1770:4064  contract ERC20 is IERC20 {\r... */\n      mstore(0x40, 0x80)\n      callvalue\n        /* \"--CODEGEN--\":8:17   */\n      dup1\n        /* \"--CODEGEN--\":5:7   */\n      iszero\n      tag_1\n      jumpi\n        /* \"--CODEGEN--\":30:31   */\n      0x00\n        /* \"--CODEGEN--\":27:28   */\n      dup1\n        /* \"--CODEGEN--\":20:32   */\n      revert\n        /* \"--CODEGEN--\":5:7   */\n    tag_1:\n        /* \"Bloque_2/TOKEN/ERC20.sol\":1770:4064  contract ERC20 is IERC20 {\r... */\n      pop\n      jumpi(tag_2, lt(calldatasize, 0x04))\n      shr(0xe0, calldataload(0x00))\n      dup1\n      0x4ee22adf\n      gt\n      tag_13\n      jumpi\n      dup1\n      0x4ee22adf\n      eq\n      tag_8\n      jumpi\n      dup1\n      0x70a08231\n      eq\n      tag_9\n      jumpi\n      dup1\n      0x95d89b41\n      eq\n      tag_10\n      jumpi\n      dup1\n      0xa9059cbb\n      eq\n      tag_11\n      jumpi\n      dup1\n      0xdd62ed3e\n      eq\n      tag_12\n      jumpi\n      jump(tag_2)\n    tag_13:\n      dup1\n      0x06fdde03\n      eq\n      tag_3\n      jumpi\n      dup1\n      0x095ea7b3\n      eq\n      tag_4\n      jumpi\n      dup1\n      0x18160ddd\n      eq\n      tag_5\n      jumpi\n      dup1\n      0x23b872dd\n      eq\n      tag_6\n      jumpi\n      dup1\n      0x313ce567\n      eq\n      tag_7\n      jumpi\n    tag_2:\n      0x00\n      dup1\n      revert\n        /* \"Bloque_2/TOKEN/ERC20.sol\":1804:1853  string public constant name = \"ERC20BlockchainAZ\" */\n    tag_3:\n      tag_14\n      tag_15\n      jump\t// in\n    tag_14:\n      mload(0x40)\n      tag_16\n      swap2\n      swap1\n      jump(tag_17)\n    tag_16:\n      mload(0x40)\n      dup1\n      swap2\n      sub\n      swap1\n      return\n        /* \"Bloque_2/TOKEN/ERC20.sol\":3345:3565  function approve(address delegate, uint numTokens) public override returns(bool) {\r... */\n    tag_4:\n      tag_18\n      0x04\n      dup1\n      calldatasize\n      sub\n      tag_19\n      swap2\n      swap1\n      dup2\n      add\n      swap1\n      jump(tag_20)\n    tag_19:\n      tag_21\n      jump\t// in\n    tag_18:\n      mload(0x40)\n      tag_22\n      swap2\n      swap1\n      jump(tag_23)\n    tag_22:\n      mload(0x40)\n      dup1\n      swap2\n      sub\n      swap1\n      return\n        /* \"Bloque_2/TOKEN/ERC20.sol\":2423:2522  function totalSupply() public override view returns(uint256) {\r... */\n    tag_5:\n      tag_24\n      tag_25\n      jump\t// in\n    tag_24:\n      mload(0x40)\n      tag_26\n      swap2\n      swap1\n      jump(tag_27)\n    tag_26:\n      mload(0x40)\n      dup1\n      swap2\n      sub\n      swap1\n      return\n        /* \"Bloque_2/TOKEN/ERC20.sol\":3573:4061  function transferFrom(address owner, address buyer, uint256 numTokens) public override returns(bool) {\r... */\n    tag_6:\n      tag_28\n      0x04\n      dup1\n      calldatasize\n      sub\n      tag_29\n      swap2\n      swap1\n      dup2\n      add\n      swap1\n      jump(tag_30)\n    tag_29:\n      tag_31\n      jump\t// in\n    tag_28:\n      mload(0x40)\n      tag_32\n      swap2\n      swap1\n      jump(tag_23)\n    tag_32:\n      mload(0x40)\n      dup1\n      swap2\n      sub\n      swap1\n      return\n        /* \"Bloque_2/TOKEN/ERC20.sol\":1904:1939  uint8 public constant decimals = 18 */\n    tag_7:\n      tag_33\n      tag_34\n      jump\t// in\n    tag_33:\n      mload(0x40)\n      tag_35\n      swap2\n      swap1\n      jump(tag_36)\n    tag_35:\n      mload(0x40)\n      dup1\n      swap2\n      sub\n      swap1\n      return\n        /* \"Bloque_2/TOKEN/ERC20.sol\":2530:2687  function increaseTotalSuply(uint newTokensAmount) public {\r... */\n    tag_8:\n      tag_37\n      0x04\n      dup1\n      calldatasize\n      sub\n      tag_38\n      swap2\n      swap1\n      dup2\n      add\n      swap1\n      jump(tag_39)\n    tag_38:\n      tag_40\n      jump\t// in\n    tag_37:\n      stop\n        /* \"Bloque_2/TOKEN/ERC20.sol\":2695:2820  function balanceOf(address tokkenOwner) public override view returns(uint256) {\r... */\n    tag_9:\n      tag_41\n      0x04\n      dup1\n      calldatasize\n      sub\n      tag_42\n      swap2\n      swap1\n      dup2\n      add\n      swap1\n      jump(tag_43)\n    tag_42:\n      tag_44\n      jump\t// in\n    tag_41:\n      mload(0x40)\n      tag_45\n      swap2\n      swap1\n      jump(tag_27)\n    tag_45:\n      mload(0x40)\n      dup1\n      swap2\n      sub\n      swap1\n      return\n        /* \"Bloque_2/TOKEN/ERC20.sol\":1860:1897  string public constant symbol = \"ERC\" */\n    tag_10:\n      tag_46\n      tag_47\n      jump\t// in\n    tag_46:\n      mload(0x40)\n      tag_48\n      swap2\n      swap1\n      jump(tag_17)\n    tag_48:\n      mload(0x40)\n      dup1\n      swap2\n      sub\n      swap1\n      return\n        /* \"Bloque_2/TOKEN/ERC20.sol\":2977:3337  function transfer(address recipient, uint numTokens) public override returns(bool) {\r... */\n    tag_11:\n      tag_49\n      0x04\n      dup1\n      calldatasize\n      sub\n      tag_50\n      swap2\n      swap1\n      dup2\n      add\n      swap1\n      jump(tag_20)\n    tag_50:\n      tag_51\n      jump\t// in\n    tag_49:\n      mload(0x40)\n      tag_52\n      swap2\n      swap1\n      jump(tag_23)\n    tag_52:\n      mload(0x40)\n      dup1\n      swap2\n      sub\n      swap1\n      return\n        /* \"Bloque_2/TOKEN/ERC20.sol\":2828:2969  function allowance(address owner, address delegate) public override view returns(uint256) {\r... */\n    tag_12:\n      tag_53\n      0x04\n      dup1\n      calldatasize\n      sub\n      tag_54\n      swap2\n      swap1\n      dup2\n      add\n      swap1\n      jump(tag_55)\n    tag_54:\n      tag_56\n      jump\t// in\n    tag_53:\n      mload(0x40)\n      tag_57\n      swap2\n      swap1\n      jump(tag_27)\n    tag_57:\n      mload(0x40)\n      dup1\n      swap2\n      sub\n      swap1\n      return\n        /* \"Bloque_2/TOKEN/ERC20.sol\":1804:1853  string public constant name = \"ERC20BlockchainAZ\" */\n    tag_15:\n      mload(0x40)\n      dup1\n      0x40\n      add\n      0x40\n      mstore\n      dup1\n      0x11\n      dup2\n      mstore\n      0x20\n      add\n      0x4552433230426c6f636b636861696e415a000000000000000000000000000000\n      dup2\n      mstore\n      pop\n      dup2\n      jump\t// out\n        /* \"Bloque_2/TOKEN/ERC20.sol\":3345:3565  function approve(address delegate, uint numTokens) public override returns(bool) {\r... */\n    tag_21:\n        /* \"Bloque_2/TOKEN/ERC20.sol\":3420:3424  bool */\n      0x00\n        /* \"Bloque_2/TOKEN/ERC20.sol\":3469:3478  numTokens */\n      dup2\n        /* \"Bloque_2/TOKEN/ERC20.sol\":3437:3444  allowed */\n      0x01\n        /* \"Bloque_2/TOKEN/ERC20.sol\":3437:3456  allowed[msg.sender] */\n      0x00\n        /* \"Bloque_2/TOKEN/ERC20.sol\":3445:3455  msg.sender */\n      caller\n        /* \"Bloque_2/TOKEN/ERC20.sol\":3437:3456  allowed[msg.sender] */\n      0xffffffffffffffffffffffffffffffffffffffff\n      and\n      0xffffffffffffffffffffffffffffffffffffffff\n      and\n      dup2\n      mstore\n      0x20\n      add\n      swap1\n      dup2\n      mstore\n      0x20\n      add\n      0x00\n      keccak256\n        /* \"Bloque_2/TOKEN/ERC20.sol\":3437:3466  allowed[msg.sender][delegate] */\n      0x00\n        /* \"Bloque_2/TOKEN/ERC20.sol\":3457:3465  delegate */\n      dup6\n        /* \"Bloque_2/TOKEN/ERC20.sol\":3437:3466  allowed[msg.sender][delegate] */\n      0xffffffffffffffffffffffffffffffffffffffff\n      and\n      0xffffffffffffffffffffffffffffffffffffffff\n      and\n      dup2\n      mstore\n      0x20\n      add\n      swap1\n      dup2\n      mstore\n      0x20\n      add\n      0x00\n      keccak256\n        /* \"Bloque_2/TOKEN/ERC20.sol\":3437:3478  allowed[msg.sender][delegate] = numTokens */\n      dup2\n      swap1\n      sstore\n      pop\n        /* \"Bloque_2/TOKEN/ERC20.sol\":3515:3523  delegate */\n      dup3\n        /* \"Bloque_2/TOKEN/ERC20.sol\":3494:3535  Approval(msg.sender, delegate, numTokens) */\n      0xffffffffffffffffffffffffffffffffffffffff\n      and\n        /* \"Bloque_2/TOKEN/ERC20.sol\":3503:3513  msg.sender */\n      caller\n        /* \"Bloque_2/TOKEN/ERC20.sol\":3494:3535  Approval(msg.sender, delegate, numTokens) */\n      0xffffffffffffffffffffffffffffffffffffffff\n      and\n      0x8c5be1e5ebec7d5bd14f71427d1e84f3dd0314c0f7b2291e5b200ac8c7c3b925\n        /* \"Bloque_2/TOKEN/ERC20.sol\":3525:3534  numTokens */\n      dup5\n        /* \"Bloque_2/TOKEN/ERC20.sol\":3494:3535  Approval(msg.sender, delegate, numTokens) */\n      mload(0x40)\n      tag_59\n      swap2\n      swap1\n      jump(tag_27)\n    tag_59:\n      mload(0x40)\n      dup1\n      swap2\n      sub\n      swap1\n      log3\n        /* \"Bloque_2/TOKEN/ERC20.sol\":3553:3557  true */\n      0x01\n        /* \"Bloque_2/TOKEN/ERC20.sol\":3546:3557  return true */\n      swap1\n      pop\n        /* \"Bloque_2/TOKEN/ERC20.sol\":3345:3565  function approve(address delegate, uint numTokens) public override returns(bool) {\r... */\n      swap3\n      swap2\n      pop\n      pop\n      jump\t// out\n        /* \"Bloque_2/TOKEN/ERC20.sol\":2423:2522  function totalSupply() public override view returns(uint256) {\r... */\n    tag_25:\n        /* \"Bloque_2/TOKEN/ERC20.sol\":2475:2482  uint256 */\n      0x00\n        /* \"Bloque_2/TOKEN/ERC20.sol\":2502:2514  totalSupply_ */\n      sload(0x02)\n        /* \"Bloque_2/TOKEN/ERC20.sol\":2495:2514  return totalSupply_ */\n      swap1\n      pop\n        /* \"Bloque_2/TOKEN/ERC20.sol\":2423:2522  function totalSupply() public override view returns(uint256) {\r... */\n      swap1\n      jump\t// out\n        /* \"Bloque_2/TOKEN/ERC20.sol\":3573:4061  function transferFrom(address owner, address buyer, uint256 numTokens) public override returns(bool) {\r... */\n    tag_31:\n        /* \"Bloque_2/TOKEN/ERC20.sol\":3668:3672  bool */\n      0x00\n        /* \"Bloque_2/TOKEN/ERC20.sol\":3706:3714  balances */\n      dup1\n        /* \"Bloque_2/TOKEN/ERC20.sol\":3706:3721  balances[owner] */\n      0x00\n        /* \"Bloque_2/TOKEN/ERC20.sol\":3715:3720  owner */\n      dup6\n        /* \"Bloque_2/TOKEN/ERC20.sol\":3706:3721  balances[owner] */\n      0xffffffffffffffffffffffffffffffffffffffff\n      and\n      0xffffffffffffffffffffffffffffffffffffffff\n      and\n      dup2\n      mstore\n      0x20\n      add\n      swap1\n      dup2\n      mstore\n      0x20\n      add\n      0x00\n      keccak256\n      sload\n        /* \"Bloque_2/TOKEN/ERC20.sol\":3693:3702  numTokens */\n      dup3\n        /* \"Bloque_2/TOKEN/ERC20.sol\":3693:3721  numTokens <= balances[owner] */\n      gt\n      iszero\n        /* \"Bloque_2/TOKEN/ERC20.sol\":3685:3722  require(numTokens <= balances[owner]) */\n      tag_62\n      jumpi\n      0x00\n      dup1\n      revert\n    tag_62:\n        /* \"Bloque_2/TOKEN/ERC20.sol\":3754:3761  allowed */\n      0x01\n        /* \"Bloque_2/TOKEN/ERC20.sol\":3754:3768  allowed[owner] */\n      0x00\n        /* \"Bloque_2/TOKEN/ERC20.sol\":3762:3767  owner */\n      dup6\n        /* \"Bloque_2/TOKEN/ERC20.sol\":3754:3768  allowed[owner] */\n      0xffffffffffffffffffffffffffffffffffffffff\n      and\n      0xffffffffffffffffffffffffffffffffffffffff\n      and\n      dup2\n      mstore\n      0x20\n      add\n      swap1\n      dup2\n      mstore\n      0x20\n      add\n      0x00\n      keccak256\n        /* \"Bloque_2/TOKEN/ERC20.sol\":3754:3780  allowed[owner][msg.sender] */\n      0x00\n        /* \"Bloque_2/TOKEN/ERC20.sol\":3769:3779  msg.sender */\n      caller\n        /* \"Bloque_2/TOKEN/ERC20.sol\":3754:3780  allowed[owner][msg.sender] */\n      0xffffffffffffffffffffffffffffffffffffffff\n      and\n      0xffffffffffffffffffffffffffffffffffffffff\n      and\n      dup2\n      mstore\n      0x20\n      add\n      swap1\n      dup2\n      mstore\n      0x20\n      add\n      0x00\n      keccak256\n      sload\n        /* \"Bloque_2/TOKEN/ERC20.sol\":3741:3750  numTokens */\n      dup3\n        /* \"Bloque_2/TOKEN/ERC20.sol\":3741:3780  numTokens <= allowed[owner][msg.sender] */\n      gt\n      iszero\n        /* \"Bloque_2/TOKEN/ERC20.sol\":3733:3781  require(numTokens <= allowed[owner][msg.sender]) */\n      tag_63\n      jumpi\n      0x00\n      dup1\n      revert\n    tag_63:\n        /* \"Bloque_2/TOKEN/ERC20.sol\":3812:3842  balances[owner].sub(numTokens) */\n      tag_64\n        /* \"Bloque_2/TOKEN/ERC20.sol\":3832:3841  numTokens */\n      dup3\n        /* \"Bloque_2/TOKEN/ERC20.sol\":3812:3820  balances */\n      0x00\n        /* \"Bloque_2/TOKEN/ERC20.sol\":3812:3827  balances[owner] */\n      dup1\n        /* \"Bloque_2/TOKEN/ERC20.sol\":3821:3826  owner */\n      dup8\n        /* \"Bloque_2/TOKEN/ERC20.sol\":3812:3827  balances[owner] */\n      0xffffffffffffffffffffffffffffffffffffffff\n      and\n      0xffffffffffffffffffffffffffffffffffffffff\n      and\n      dup2\n      mstore\n      0x20\n      add\n      swap1\n      dup2\n      mstore\n      0x20\n      add\n      0x00\n      keccak256\n      sload\n        /* \"Bloque_2/TOKEN/ERC20.sol\":3812:3831  balances[owner].sub */\n      tag_65\n      swap1\n        /* \"Bloque_2/TOKEN/ERC20.sol\":3812:3842  balances[owner].sub(numTokens) */\n      swap2\n      swap1\n      0xffffffff\n      and\n      jump\t// in\n    tag_64:\n        /* \"Bloque_2/TOKEN/ERC20.sol\":3794:3802  balances */\n      0x00\n        /* \"Bloque_2/TOKEN/ERC20.sol\":3794:3809  balances[owner] */\n      dup1\n        /* \"Bloque_2/TOKEN/ERC20.sol\":3803:3808  owner */\n      dup7\n        /* \"Bloque_2/TOKEN/ERC20.sol\":3794:3809  balances[owner] */\n      0xffffffffffffffffffffffffffffffffffffffff\n      and\n      0xffffffffffffffffffffffffffffffffffffffff\n      and\n      dup2\n      mstore\n      0x20\n      add\n      swap1\n      dup2\n      mstore\n      0x20\n      add\n      0x00\n      keccak256\n        /* \"Bloque_2/TOKEN/ERC20.sol\":3794:3842  balances[owner] = balances[owner].sub(numTokens) */\n      dup2\n      swap1\n      sstore\n      pop\n        /* \"Bloque_2/TOKEN/ERC20.sol\":3882:3923  allowed[owner][msg.sender].sub(numTokens) */\n      tag_66\n        /* \"Bloque_2/TOKEN/ERC20.sol\":3913:3922  numTokens */\n      dup3\n        /* \"Bloque_2/TOKEN/ERC20.sol\":3882:3889  allowed */\n      0x01\n        /* \"Bloque_2/TOKEN/ERC20.sol\":3882:3896  allowed[owner] */\n      0x00\n        /* \"Bloque_2/TOKEN/ERC20.sol\":3890:3895  owner */\n      dup8\n        /* \"Bloque_2/TOKEN/ERC20.sol\":3882:3896  allowed[owner] */\n      0xffffffffffffffffffffffffffffffffffffffff\n      and\n      0xffffffffffffffffffffffffffffffffffffffff\n      and\n      dup2\n      mstore\n      0x20\n      add\n      swap1\n      dup2\n      mstore\n      0x20\n      add\n      0x00\n      keccak256\n        /* \"Bloque_2/TOKEN/ERC20.sol\":3882:3908  allowed[owner][msg.sender] */\n      0x00\n        /* \"Bloque_2/TOKEN/ERC20.sol\":3897:3907  msg.sender */\n      caller\n        /* \"Bloque_2/TOKEN/ERC20.sol\":3882:3908  allowed[owner][msg.sender] */\n      0xffffffffffffffffffffffffffffffffffffffff\n      and\n      0xffffffffffffffffffffffffffffffffffffffff\n      and\n      dup2\n      mstore\n      0x20\n      add\n      swap1\n      dup2\n      mstore\n      0x20\n      add\n      0x00\n      keccak256\n      sload\n        /* \"Bloque_2/TOKEN/ERC20.sol\":3882:3912  allowed[owner][msg.sender].sub */\n      tag_65\n      swap1\n        /* \"Bloque_2/TOKEN/ERC20.sol\":3882:3923  allowed[owner][msg.sender].sub(numTokens) */\n      swap2\n      swap1\n      0xffffffff\n      and\n      jump\t// in\n    tag_66:\n        /* \"Bloque_2/TOKEN/ERC20.sol\":3853:3860  allowed */\n      0x01\n        /* \"Bloque_2/TOKEN/ERC20.sol\":3853:3867  allowed[owner] */\n      0x00\n        /* \"Bloque_2/TOKEN/ERC20.sol\":3861:3866  owner */\n      dup7\n        /* \"Bloque_2/TOKEN/ERC20.sol\":3853:3867  allowed[owner] */\n      0xffffffffffffffffffffffffffffffffffffffff\n      and\n      0xffffffffffffffffffffffffffffffffffffffff\n      and\n      dup2\n      mstore\n      0x20\n      add\n      swap1\n      dup2\n      mstore\n      0x20\n      add\n      0x00\n      keccak256\n        /* \"Bloque_2/TOKEN/ERC20.sol\":3853:3879  allowed[owner][msg.sender] */\n      0x00\n        /* \"Bloque_2/TOKEN/ERC20.sol\":3868:3878  msg.sender */\n      caller\n        /* \"Bloque_2/TOKEN/ERC20.sol\":3853:3879  allowed[owner][msg.sender] */\n      0xffffffffffffffffffffffffffffffffffffffff\n      and\n      0xffffffffffffffffffffffffffffffffffffffff\n      and\n      dup2\n      mstore\n      0x20\n      add\n      swap1\n      dup2\n      mstore\n      0x20\n      add\n      0x00\n      keccak256\n        /* \"Bloque_2/TOKEN/ERC20.sol\":3853:3923  allowed[owner][msg.sender] = allowed[owner][msg.sender].sub(numTokens) */\n      dup2\n      swap1\n      sstore\n      pop\n        /* \"Bloque_2/TOKEN/ERC20.sol\":3952:3982  balances[buyer].add(numTokens) */\n      tag_67\n        /* \"Bloque_2/TOKEN/ERC20.sol\":3972:3981  numTokens */\n      dup3\n        /* \"Bloque_2/TOKEN/ERC20.sol\":3952:3960  balances */\n      0x00\n        /* \"Bloque_2/TOKEN/ERC20.sol\":3952:3967  balances[buyer] */\n      dup1\n        /* \"Bloque_2/TOKEN/ERC20.sol\":3961:3966  buyer */\n      dup7\n        /* \"Bloque_2/TOKEN/ERC20.sol\":3952:3967  balances[buyer] */\n      0xffffffffffffffffffffffffffffffffffffffff\n      and\n      0xffffffffffffffffffffffffffffffffffffffff\n      and\n      dup2\n      mstore\n      0x20\n      add\n      swap1\n      dup2\n      mstore\n      0x20\n      add\n      0x00\n      keccak256\n      sload\n        /* \"Bloque_2/TOKEN/ERC20.sol\":3952:3971  balances[buyer].add */\n      tag_68\n      swap1\n        /* \"Bloque_2/TOKEN/ERC20.sol\":3952:3982  balances[buyer].add(numTokens) */\n      swap2\n      swap1\n      0xffffffff\n      and\n      jump\t// in\n    tag_67:\n        /* \"Bloque_2/TOKEN/ERC20.sol\":3934:3942  balances */\n      0x00\n        /* \"Bloque_2/TOKEN/ERC20.sol\":3934:3949  balances[buyer] */\n      dup1\n        /* \"Bloque_2/TOKEN/ERC20.sol\":3943:3948  buyer */\n      dup6\n        /* \"Bloque_2/TOKEN/ERC20.sol\":3934:3949  balances[buyer] */\n      0xffffffffffffffffffffffffffffffffffffffff\n      and\n      0xffffffffffffffffffffffffffffffffffffffff\n      and\n      dup2\n      mstore\n      0x20\n      add\n      swap1\n      dup2\n      mstore\n      0x20\n      add\n      0x00\n      keccak256\n        /* \"Bloque_2/TOKEN/ERC20.sol\":3934:3982  balances[buyer] = balances[buyer].add(numTokens) */\n      dup2\n      swap1\n      sstore\n      pop\n        /* \"Bloque_2/TOKEN/ERC20.sol\":4014:4019  buyer */\n      dup3\n        /* \"Bloque_2/TOKEN/ERC20.sol\":3998:4031  Transfer(owner, buyer, numTokens) */\n      0xffffffffffffffffffffffffffffffffffffffff\n      and\n        /* \"Bloque_2/TOKEN/ERC20.sol\":4007:4012  owner */\n      dup5\n        /* \"Bloque_2/TOKEN/ERC20.sol\":3998:4031  Transfer(owner, buyer, numTokens) */\n      0xffffffffffffffffffffffffffffffffffffffff\n      and\n      0xddf252ad1be2c89b69c2b068fc378daa952ba7f163c4a11628f55a4df523b3ef\n        /* \"Bloque_2/TOKEN/ERC20.sol\":4021:4030  numTokens */\n      dup5\n        /* \"Bloque_2/TOKEN/ERC20.sol\":3998:4031  Transfer(owner, buyer, numTokens) */\n      mload(0x40)\n      tag_69\n      swap2\n      swap1\n      jump(tag_27)\n    tag_69:\n      mload(0x40)\n      dup1\n      swap2\n      sub\n      swap1\n      log3\n        /* \"Bloque_2/TOKEN/ERC20.sol\":4049:4053  true */\n      0x01\n        /* \"Bloque_2/TOKEN/ERC20.sol\":4042:4053  return true */\n      swap1\n      pop\n        /* \"Bloque_2/TOKEN/ERC20.sol\":3573:4061  function transferFrom(address owner, address buyer, uint256 numTokens) public override returns(bool) {\r... */\n      swap4\n      swap3\n      pop\n      pop\n      pop\n      jump\t// out\n        /* \"Bloque_2/TOKEN/ERC20.sol\":1904:1939  uint8 public constant decimals = 18 */\n    tag_34:\n        /* \"Bloque_2/TOKEN/ERC20.sol\":1937:1939  18 */\n      0x12\n        /* \"Bloque_2/TOKEN/ERC20.sol\":1904:1939  uint8 public constant decimals = 18 */\n      dup2\n      jump\t// out\n        /* \"Bloque_2/TOKEN/ERC20.sol\":2530:2687  function increaseTotalSuply(uint newTokensAmount) public {\r... */\n    tag_40:\n        /* \"Bloque_2/TOKEN/ERC20.sol\":2614:2629  newTokensAmount */\n      dup1\n        /* \"Bloque_2/TOKEN/ERC20.sol\":2598:2610  totalSupply_ */\n      0x02\n      0x00\n        /* \"Bloque_2/TOKEN/ERC20.sol\":2598:2629  totalSupply_ += newTokensAmount */\n      dup3\n      dup3\n      sload\n      add\n      swap3\n      pop\n      pop\n      dup2\n      swap1\n      sstore\n      pop\n        /* \"Bloque_2/TOKEN/ERC20.sol\":2664:2679  newTokensAmount */\n      dup1\n        /* \"Bloque_2/TOKEN/ERC20.sol\":2640:2648  balances */\n      0x00\n        /* \"Bloque_2/TOKEN/ERC20.sol\":2640:2660  balances[msg.sender] */\n      dup1\n        /* \"Bloque_2/TOKEN/ERC20.sol\":2649:2659  msg.sender */\n      caller\n        /* \"Bloque_2/TOKEN/ERC20.sol\":2640:2660  balances[msg.sender] */\n      0xffffffffffffffffffffffffffffffffffffffff\n      and\n      0xffffffffffffffffffffffffffffffffffffffff\n      and\n      dup2\n      mstore\n      0x20\n      add\n      swap1\n      dup2\n      mstore\n      0x20\n      add\n      0x00\n      keccak256\n      0x00\n        /* \"Bloque_2/TOKEN/ERC20.sol\":2640:2679  balances[msg.sender] += newTokensAmount */\n      dup3\n      dup3\n      sload\n      add\n      swap3\n      pop\n      pop\n      dup2\n      swap1\n      sstore\n      pop\n        /* \"Bloque_2/TOKEN/ERC20.sol\":2530:2687  function increaseTotalSuply(uint newTokensAmount) public {\r... */\n      pop\n      jump\t// out\n        /* \"Bloque_2/TOKEN/ERC20.sol\":2695:2820  function balanceOf(address tokkenOwner) public override view returns(uint256) {\r... */\n    tag_44:\n        /* \"Bloque_2/TOKEN/ERC20.sol\":2764:2771  uint256 */\n      0x00\n        /* \"Bloque_2/TOKEN/ERC20.sol\":2791:2799  balances */\n      dup1\n        /* \"Bloque_2/TOKEN/ERC20.sol\":2791:2812  balances[tokkenOwner] */\n      0x00\n        /* \"Bloque_2/TOKEN/ERC20.sol\":2800:2811  tokkenOwner */\n      dup4\n        /* \"Bloque_2/TOKEN/ERC20.sol\":2791:2812  balances[tokkenOwner] */\n      0xffffffffffffffffffffffffffffffffffffffff\n      and\n      0xffffffffffffffffffffffffffffffffffffffff\n      and\n      dup2\n      mstore\n      0x20\n      add\n      swap1\n      dup2\n      mstore\n      0x20\n      add\n      0x00\n      keccak256\n      sload\n        /* \"Bloque_2/TOKEN/ERC20.sol\":2784:2812  return balances[tokkenOwner] */\n      swap1\n      pop\n        /* \"Bloque_2/TOKEN/ERC20.sol\":2695:2820  function balanceOf(address tokkenOwner) public override view returns(uint256) {\r... */\n      swap2\n      swap1\n      pop\n      jump\t// out\n        /* \"Bloque_2/TOKEN/ERC20.sol\":1860:1897  string public constant symbol = \"ERC\" */\n    tag_47:\n      mload(0x40)\n      dup1\n      0x40\n      add\n      0x40\n      mstore\n      dup1\n      0x03\n      dup2\n      mstore\n      0x20\n      add\n      0x4552430000000000000000000000000000000000000000000000000000000000\n      dup2\n      mstore\n      pop\n      dup2\n      jump\t// out\n        /* \"Bloque_2/TOKEN/ERC20.sol\":2977:3337  function transfer(address recipient, uint numTokens) public override returns(bool) {\r... */\n    tag_51:\n        /* \"Bloque_2/TOKEN/ERC20.sol\":3054:3058  bool */\n      0x00\n        /* \"Bloque_2/TOKEN/ERC20.sol\":3092:3100  balances */\n      dup1\n        /* \"Bloque_2/TOKEN/ERC20.sol\":3092:3112  balances[msg.sender] */\n      0x00\n        /* \"Bloque_2/TOKEN/ERC20.sol\":3101:3111  msg.sender */\n      caller\n        /* \"Bloque_2/TOKEN/ERC20.sol\":3092:3112  balances[msg.sender] */\n      0xffffffffffffffffffffffffffffffffffffffff\n      and\n      0xffffffffffffffffffffffffffffffffffffffff\n      and\n      dup2\n      mstore\n      0x20\n      add\n      swap1\n      dup2\n      mstore\n      0x20\n      add\n      0x00\n      keccak256\n      sload\n        /* \"Bloque_2/TOKEN/ERC20.sol\":3079:3088  numTokens */\n      dup3\n        /* \"Bloque_2/TOKEN/ERC20.sol\":3079:3112  numTokens <= balances[msg.sender] */\n      gt\n      iszero\n        /* \"Bloque_2/TOKEN/ERC20.sol\":3071:3113  require(numTokens <= balances[msg.sender]) */\n      tag_73\n      jumpi\n      0x00\n      dup1\n      revert\n    tag_73:\n        /* \"Bloque_2/TOKEN/ERC20.sol\":3147:3182  balances[msg.sender].sub(numTokens) */\n      tag_74\n        /* \"Bloque_2/TOKEN/ERC20.sol\":3172:3181  numTokens */\n      dup3\n        /* \"Bloque_2/TOKEN/ERC20.sol\":3147:3155  balances */\n      0x00\n        /* \"Bloque_2/TOKEN/ERC20.sol\":3147:3167  balances[msg.sender] */\n      dup1\n        /* \"Bloque_2/TOKEN/ERC20.sol\":3156:3166  msg.sender */\n      caller\n        /* \"Bloque_2/TOKEN/ERC20.sol\":3147:3167  balances[msg.sender] */\n      0xffffffffffffffffffffffffffffffffffffffff\n      and\n      0xffffffffffffffffffffffffffffffffffffffff\n      and\n      dup2\n      mstore\n      0x20\n      add\n      swap1\n      dup2\n      mstore\n      0x20\n      add\n      0x00\n      keccak256\n      sload\n        /* \"Bloque_2/TOKEN/ERC20.sol\":3147:3171  balances[msg.sender].sub */\n      tag_65\n      swap1\n        /* \"Bloque_2/TOKEN/ERC20.sol\":3147:3182  balances[msg.sender].sub(numTokens) */\n      swap2\n      swap1\n      0xffffffff\n      and\n      jump\t// in\n    tag_74:\n        /* \"Bloque_2/TOKEN/ERC20.sol\":3124:3132  balances */\n      0x00\n        /* \"Bloque_2/TOKEN/ERC20.sol\":3124:3144  balances[msg.sender] */\n      dup1\n        /* \"Bloque_2/TOKEN/ERC20.sol\":3133:3143  msg.sender */\n      caller\n        /* \"Bloque_2/TOKEN/ERC20.sol\":3124:3144  balances[msg.sender] */\n      0xffffffffffffffffffffffffffffffffffffffff\n      and\n      0xffffffffffffffffffffffffffffffffffffffff\n      and\n      dup2\n      mstore\n      0x20\n      add\n      swap1\n      dup2\n      mstore\n      0x20\n      add\n      0x00\n      keccak256\n        /* \"Bloque_2/TOKEN/ERC20.sol\":3124:3182  balances[msg.sender] = balances[msg.sender].sub(numTokens) */\n      dup2\n      swap1\n      sstore\n      pop\n        /* \"Bloque_2/TOKEN/ERC20.sol\":3215:3249  balances[recipient].add(numTokens) */\n      tag_75\n        /* \"Bloque_2/TOKEN/ERC20.sol\":3239:3248  numTokens */\n      dup3\n        /* \"Bloque_2/TOKEN/ERC20.sol\":3215:3223  balances */\n      0x00\n        /* \"Bloque_2/TOKEN/ERC20.sol\":3215:3234  balances[recipient] */\n      dup1\n        /* \"Bloque_2/TOKEN/ERC20.sol\":3224:3233  recipient */\n      dup7\n        /* \"Bloque_2/TOKEN/ERC20.sol\":3215:3234  balances[recipient] */\n      0xffffffffffffffffffffffffffffffffffffffff\n      and\n      0xffffffffffffffffffffffffffffffffffffffff\n      and\n      dup2\n      mstore\n      0x20\n      add\n      swap1\n      dup2\n      mstore\n      0x20\n      add\n      0x00\n      keccak256\n      sload\n        /* \"Bloque_2/TOKEN/ERC20.sol\":3215:3238  balances[recipient].add */\n      tag_68\n      swap1\n        /* \"Bloque_2/TOKEN/ERC20.sol\":3215:3249  balances[recipient].add(numTokens) */\n      swap2\n      swap1\n      0xffffffff\n      and\n      jump\t// in\n    tag_75:\n        /* \"Bloque_2/TOKEN/ERC20.sol\":3193:3201  balances */\n      0x00\n        /* \"Bloque_2/TOKEN/ERC20.sol\":3193:3212  balances[recipient] */\n      dup1\n        /* \"Bloque_2/TOKEN/ERC20.sol\":3202:3211  recipient */\n      dup6\n        /* \"Bloque_2/TOKEN/ERC20.sol\":3193:3212  balances[recipient] */\n      0xffffffffffffffffffffffffffffffffffffffff\n      and\n      0xffffffffffffffffffffffffffffffffffffffff\n      and\n      dup2\n      mstore\n      0x20\n      add\n      swap1\n      dup2\n      mstore\n      0x20\n      add\n      0x00\n      keccak256\n        /* \"Bloque_2/TOKEN/ERC20.sol\":3193:3249  balances[recipient] = balances[recipient].add(numTokens) */\n      dup2\n      swap1\n      sstore\n      pop\n        /* \"Bloque_2/TOKEN/ERC20.sol\":3286:3295  recipient */\n      dup3\n        /* \"Bloque_2/TOKEN/ERC20.sol\":3265:3307  Transfer(msg.sender, recipient, numTokens) */\n      0xffffffffffffffffffffffffffffffffffffffff\n      and\n        /* \"Bloque_2/TOKEN/ERC20.sol\":3274:3284  msg.sender */\n      caller\n        /* \"Bloque_2/TOKEN/ERC20.sol\":3265:3307  Transfer(msg.sender, recipient, numTokens) */\n      0xffffffffffffffffffffffffffffffffffffffff\n      and\n      0xddf252ad1be2c89b69c2b068fc378daa952ba7f163c4a11628f55a4df523b3ef\n        /* \"Bloque_2/TOKEN/ERC20.sol\":3297:3306  numTokens */\n      dup5\n        /* \"Bloque_2/TOKEN/ERC20.sol\":3265:3307  Transfer(msg.sender, recipient, numTokens) */\n      mload(0x40)\n      tag_76\n      swap2\n      swap1\n      jump(tag_27)\n    tag_76:\n      mload(0x40)\n      dup1\n      swap2\n      sub\n      swap1\n      log3\n        /* \"Bloque_2/TOKEN/ERC20.sol\":3325:3329  true */\n      0x01\n        /* \"Bloque_2/TOKEN/ERC20.sol\":3318:3329  return true */\n      swap1\n      pop\n        /* \"Bloque_2/TOKEN/ERC20.sol\":2977:3337  function transfer(address recipient, uint numTokens) public override returns(bool) {\r... */\n      swap3\n      swap2\n      pop\n      pop\n      jump\t// out\n        /* \"Bloque_2/TOKEN/ERC20.sol\":2828:2969  function allowance(address owner, address delegate) public override view returns(uint256) {\r... */\n    tag_56:\n        /* \"Bloque_2/TOKEN/ERC20.sol\":2909:2916  uint256 */\n      0x00\n        /* \"Bloque_2/TOKEN/ERC20.sol\":2937:2944  allowed */\n      0x01\n        /* \"Bloque_2/TOKEN/ERC20.sol\":2937:2951  allowed[owner] */\n      0x00\n        /* \"Bloque_2/TOKEN/ERC20.sol\":2945:2950  owner */\n      dup5\n        /* \"Bloque_2/TOKEN/ERC20.sol\":2937:2951  allowed[owner] */\n      0xffffffffffffffffffffffffffffffffffffffff\n      and\n      0xffffffffffffffffffffffffffffffffffffffff\n      and\n      dup2\n      mstore\n      0x20\n      add\n      swap1\n      dup2\n      mstore\n      0x20\n      add\n      0x00\n      keccak256\n        /* \"Bloque_2/TOKEN/ERC20.sol\":2937:2961  allowed[owner][delegate] */\n      0x00\n        /* \"Bloque_2/TOKEN/ERC20.sol\":2952:2960  delegate */\n      dup4\n        /* \"Bloque_2/TOKEN/ERC20.sol\":2937:2961  allowed[owner][delegate] */\n      0xffffffffffffffffffffffffffffffffffffffff\n      and\n      0xffffffffffffffffffffffffffffffffffffffff\n      and\n      dup2\n      mstore\n      0x20\n      add\n      swap1\n      dup2\n      mstore\n      0x20\n      add\n      0x00\n      keccak256\n      sload\n        /* \"Bloque_2/TOKEN/ERC20.sol\":2929:2961  return  allowed[owner][delegate] */\n      swap1\n      pop\n        /* \"Bloque_2/TOKEN/ERC20.sol\":2828:2969  function allowance(address owner, address delegate) public override view returns(uint256) {\r... */\n      swap3\n      swap2\n      pop\n      pop\n      jump\t// out\n        /* \"Bloque_2/TOKEN/SafeMath.sol\":308:424  function sub(uint256 a, uint256 b) internal pure returns (uint256) {... */\n    tag_65:\n        /* \"Bloque_2/TOKEN/SafeMath.sol\":366:373  uint256 */\n      0x00\n        /* \"Bloque_2/TOKEN/SafeMath.sol\":395:396  a */\n      dup3\n        /* \"Bloque_2/TOKEN/SafeMath.sol\":390:391  b */\n      dup3\n        /* \"Bloque_2/TOKEN/SafeMath.sol\":390:396  b <= a */\n      gt\n      iszero\n        /* \"Bloque_2/TOKEN/SafeMath.sol\":383:397  assert(b <= a) */\n      tag_79\n      jumpi\n      invalid\n    tag_79:\n        /* \"Bloque_2/TOKEN/SafeMath.sol\":416:417  b */\n      dup2\n        /* \"Bloque_2/TOKEN/SafeMath.sol\":412:413  a */\n      dup4\n        /* \"Bloque_2/TOKEN/SafeMath.sol\":412:417  a - b */\n      sub\n        /* \"Bloque_2/TOKEN/SafeMath.sol\":405:417  return a - b */\n      swap1\n      pop\n        /* \"Bloque_2/TOKEN/SafeMath.sol\":308:424  function sub(uint256 a, uint256 b) internal pure returns (uint256) {... */\n      swap3\n      swap2\n      pop\n      pop\n      jump\t// out\n        /* \"Bloque_2/TOKEN/SafeMath.sol\":447:584  function add(uint256 a, uint256 b) internal pure returns (uint256) {... */\n    tag_68:\n        /* \"Bloque_2/TOKEN/SafeMath.sol\":505:512  uint256 */\n      0x00\n        /* \"Bloque_2/TOKEN/SafeMath.sol\":522:531  uint256 c */\n      dup1\n        /* \"Bloque_2/TOKEN/SafeMath.sol\":538:539  b */\n      dup3\n        /* \"Bloque_2/TOKEN/SafeMath.sol\":534:535  a */\n      dup5\n        /* \"Bloque_2/TOKEN/SafeMath.sol\":534:539  a + b */\n      add\n        /* \"Bloque_2/TOKEN/SafeMath.sol\":522:539  uint256 c = a + b */\n      swap1\n      pop\n        /* \"Bloque_2/TOKEN/SafeMath.sol\":559:560  a */\n      dup4\n        /* \"Bloque_2/TOKEN/SafeMath.sol\":554:555  c */\n      dup2\n        /* \"Bloque_2/TOKEN/SafeMath.sol\":554:560  c >= a */\n      lt\n      iszero\n        /* \"Bloque_2/TOKEN/SafeMath.sol\":547:561  assert(c >= a) */\n      tag_81\n      jumpi\n      invalid\n    tag_81:\n        /* \"Bloque_2/TOKEN/SafeMath.sol\":576:577  c */\n      dup1\n        /* \"Bloque_2/TOKEN/SafeMath.sol\":569:577  return c */\n      swap2\n      pop\n      pop\n        /* \"Bloque_2/TOKEN/SafeMath.sol\":447:584  function add(uint256 a, uint256 b) internal pure returns (uint256) {... */\n      swap3\n      swap2\n      pop\n      pop\n      jump\t// out\n        /* \"--CODEGEN--\":5:135   */\n    tag_83:\n      0x00\n        /* \"--CODEGEN--\":85:91   */\n      dup2\n        /* \"--CODEGEN--\":72:92   */\n      calldataload\n        /* \"--CODEGEN--\":63:92   */\n      swap1\n      pop\n        /* \"--CODEGEN--\":97:130   */\n      tag_85\n        /* \"--CODEGEN--\":124:129   */\n      dup2\n        /* \"--CODEGEN--\":97:130   */\n      jump(tag_86)\n    tag_85:\n        /* \"--CODEGEN--\":57:135   */\n      swap3\n      swap2\n      pop\n      pop\n      jump\n        /* \"--CODEGEN--\":142:272   */\n    tag_87:\n      0x00\n        /* \"--CODEGEN--\":222:228   */\n      dup2\n        /* \"--CODEGEN--\":209:229   */\n      calldataload\n        /* \"--CODEGEN--\":200:229   */\n      swap1\n      pop\n        /* \"--CODEGEN--\":234:267   */\n      tag_89\n        /* \"--CODEGEN--\":261:266   */\n      dup2\n        /* \"--CODEGEN--\":234:267   */\n      jump(tag_90)\n    tag_89:\n        /* \"--CODEGEN--\":194:272   */\n      swap3\n      swap2\n      pop\n      pop\n      jump\n        /* \"--CODEGEN--\":279:520   */\n    tag_43:\n      0x00\n        /* \"--CODEGEN--\":383:385   */\n      0x20\n        /* \"--CODEGEN--\":371:380   */\n      dup3\n        /* \"--CODEGEN--\":362:369   */\n      dup5\n        /* \"--CODEGEN--\":358:381   */\n      sub\n        /* \"--CODEGEN--\":354:386   */\n      slt\n        /* \"--CODEGEN--\":351:353   */\n      iszero\n      tag_92\n      jumpi\n        /* \"--CODEGEN--\":399:400   */\n      0x00\n        /* \"--CODEGEN--\":396:397   */\n      dup1\n        /* \"--CODEGEN--\":389:401   */\n      revert\n        /* \"--CODEGEN--\":351:353   */\n    tag_92:\n        /* \"--CODEGEN--\":434:435   */\n      0x00\n        /* \"--CODEGEN--\":451:504   */\n      tag_93\n        /* \"--CODEGEN--\":496:503   */\n      dup5\n        /* \"--CODEGEN--\":487:493   */\n      dup3\n        /* \"--CODEGEN--\":476:485   */\n      dup6\n        /* \"--CODEGEN--\":472:494   */\n      add\n        /* \"--CODEGEN--\":451:504   */\n      jump(tag_83)\n    tag_93:\n        /* \"--CODEGEN--\":441:504   */\n      swap2\n      pop\n        /* \"--CODEGEN--\":413:510   */\n      pop\n        /* \"--CODEGEN--\":345:520   */\n      swap3\n      swap2\n      pop\n      pop\n      jump\n        /* \"--CODEGEN--\":527:893   */\n    tag_55:\n      0x00\n      dup1\n        /* \"--CODEGEN--\":648:650   */\n      0x40\n        /* \"--CODEGEN--\":636:645   */\n      dup4\n        /* \"--CODEGEN--\":627:634   */\n      dup6\n        /* \"--CODEGEN--\":623:646   */\n      sub\n        /* \"--CODEGEN--\":619:651   */\n      slt\n        /* \"--CODEGEN--\":616:618   */\n      iszero\n      tag_95\n      jumpi\n        /* \"--CODEGEN--\":664:665   */\n      0x00\n        /* \"--CODEGEN--\":661:662   */\n      dup1\n        /* \"--CODEGEN--\":654:666   */\n      revert\n        /* \"--CODEGEN--\":616:618   */\n    tag_95:\n        /* \"--CODEGEN--\":699:700   */\n      0x00\n        /* \"--CODEGEN--\":716:769   */\n      tag_96\n        /* \"--CODEGEN--\":761:768   */\n      dup6\n        /* \"--CODEGEN--\":752:758   */\n      dup3\n        /* \"--CODEGEN--\":741:750   */\n      dup7\n        /* \"--CODEGEN--\":737:759   */\n      add\n        /* \"--CODEGEN--\":716:769   */\n      jump(tag_83)\n    tag_96:\n        /* \"--CODEGEN--\":706:769   */\n      swap3\n      pop\n        /* \"--CODEGEN--\":678:775   */\n      pop\n        /* \"--CODEGEN--\":806:808   */\n      0x20\n        /* \"--CODEGEN--\":824:877   */\n      tag_97\n        /* \"--CODEGEN--\":869:876   */\n      dup6\n        /* \"--CODEGEN--\":860:866   */\n      dup3\n        /* \"--CODEGEN--\":849:858   */\n      dup7\n        /* \"--CODEGEN--\":845:867   */\n      add\n        /* \"--CODEGEN--\":824:877   */\n      jump(tag_83)\n    tag_97:\n        /* \"--CODEGEN--\":814:877   */\n      swap2\n      pop\n        /* \"--CODEGEN--\":785:883   */\n      pop\n        /* \"--CODEGEN--\":610:893   */\n      swap3\n      pop\n      swap3\n      swap1\n      pop\n      jump\n        /* \"--CODEGEN--\":900:1391   */\n    tag_30:\n      0x00\n      dup1\n      0x00\n        /* \"--CODEGEN--\":1038:1040   */\n      0x60\n        /* \"--CODEGEN--\":1026:1035   */\n      dup5\n        /* \"--CODEGEN--\":1017:1024   */\n      dup7\n        /* \"--CODEGEN--\":1013:1036   */\n      sub\n        /* \"--CODEGEN--\":1009:1041   */\n      slt\n        /* \"--CODEGEN--\":1006:1008   */\n      iszero\n      tag_99\n      jumpi\n        /* \"--CODEGEN--\":1054:1055   */\n      0x00\n        /* \"--CODEGEN--\":1051:1052   */\n      dup1\n        /* \"--CODEGEN--\":1044:1056   */\n      revert\n        /* \"--CODEGEN--\":1006:1008   */\n    tag_99:\n        /* \"--CODEGEN--\":1089:1090   */\n      0x00\n        /* \"--CODEGEN--\":1106:1159   */\n      tag_100\n        /* \"--CODEGEN--\":1151:1158   */\n      dup7\n        /* \"--CODEGEN--\":1142:1148   */\n      dup3\n        /* \"--CODEGEN--\":1131:1140   */\n      dup8\n        /* \"--CODEGEN--\":1127:1149   */\n      add\n        /* \"--CODEGEN--\":1106:1159   */\n      jump(tag_83)\n    tag_100:\n        /* \"--CODEGEN--\":1096:1159   */\n      swap4\n      pop\n        /* \"--CODEGEN--\":1068:1165   */\n      pop\n        /* \"--CODEGEN--\":1196:1198   */\n      0x20\n        /* \"--CODEGEN--\":1214:1267   */\n      tag_101\n        /* \"--CODEGEN--\":1259:1266   */\n      dup7\n        /* \"--CODEGEN--\":1250:1256   */\n      dup3\n        /* \"--CODEGEN--\":1239:1248   */\n      dup8\n        /* \"--CODEGEN--\":1235:1257   */\n      add\n        /* \"--CODEGEN--\":1214:1267   */\n      jump(tag_83)\n    tag_101:\n        /* \"--CODEGEN--\":1204:1267   */\n      swap3\n      pop\n        /* \"--CODEGEN--\":1175:1273   */\n      pop\n        /* \"--CODEGEN--\":1304:1306   */\n      0x40\n        /* \"--CODEGEN--\":1322:1375   */\n      tag_102\n        /* \"--CODEGEN--\":1367:1374   */\n      dup7\n        /* \"--CODEGEN--\":1358:1364   */\n      dup3\n        /* \"--CODEGEN--\":1347:1356   */\n      dup8\n        /* \"--CODEGEN--\":1343:1365   */\n      add\n        /* \"--CODEGEN--\":1322:1375   */\n      jump(tag_87)\n    tag_102:\n        /* \"--CODEGEN--\":1312:1375   */\n      swap2\n      pop\n        /* \"--CODEGEN--\":1283:1381   */\n      pop\n        /* \"--CODEGEN--\":1000:1391   */\n      swap3\n      pop\n      swap3\n      pop\n      swap3\n      jump\n        /* \"--CODEGEN--\":1398:1764   */\n    tag_20:\n      0x00\n      dup1\n        /* \"--CODEGEN--\":1519:1521   */\n      0x40\n        /* \"--CODEGEN--\":1507:1516   */\n      dup4\n        /* \"--CODEGEN--\":1498:1505   */\n      dup6\n        /* \"--CODEGEN--\":1494:1517   */\n      sub\n        /* \"--CODEGEN--\":1490:1522   */\n      slt\n        /* \"--CODEGEN--\":1487:1489   */\n      iszero\n      tag_104\n      jumpi\n        /* \"--CODEGEN--\":1535:1536   */\n      0x00\n        /* \"--CODEGEN--\":1532:1533   */\n      dup1\n        /* \"--CODEGEN--\":1525:1537   */\n      revert\n        /* \"--CODEGEN--\":1487:1489   */\n    tag_104:\n        /* \"--CODEGEN--\":1570:1571   */\n      0x00\n        /* \"--CODEGEN--\":1587:1640   */\n      tag_105\n        /* \"--CODEGEN--\":1632:1639   */\n      dup6\n        /* \"--CODEGEN--\":1623:1629   */\n      dup3\n        /* \"--CODEGEN--\":1612:1621   */\n      dup7\n        /* \"--CODEGEN--\":1608:1630   */\n      add\n        /* \"--CODEGEN--\":1587:1640   */\n      jump(tag_83)\n    tag_105:\n        /* \"--CODEGEN--\":1577:1640   */\n      swap3\n      pop\n        /* \"--CODEGEN--\":1549:1646   */\n      pop\n        /* \"--CODEGEN--\":1677:1679   */\n      0x20\n        /* \"--CODEGEN--\":1695:1748   */\n      tag_106\n        /* \"--CODEGEN--\":1740:1747   */\n      dup6\n        /* \"--CODEGEN--\":1731:1737   */\n      dup3\n        /* \"--CODEGEN--\":1720:1729   */\n      dup7\n        /* \"--CODEGEN--\":1716:1738   */\n      add\n        /* \"--CODEGEN--\":1695:1748   */\n      jump(tag_87)\n    tag_106:\n        /* \"--CODEGEN--\":1685:1748   */\n      swap2\n      pop\n        /* \"--CODEGEN--\":1656:1754   */\n      pop\n        /* \"--CODEGEN--\":1481:1764   */\n      swap3\n      pop\n      swap3\n      swap1\n      pop\n      jump\n        /* \"--CODEGEN--\":1771:2012   */\n    tag_39:\n      0x00\n        /* \"--CODEGEN--\":1875:1877   */\n      0x20\n        /* \"--CODEGEN--\":1863:1872   */\n      dup3\n        /* \"--CODEGEN--\":1854:1861   */\n      dup5\n        /* \"--CODEGEN--\":1850:1873   */\n      sub\n        /* \"--CODEGEN--\":1846:1878   */\n      slt\n        /* \"--CODEGEN--\":1843:1845   */\n      iszero\n      tag_108\n      jumpi\n        /* \"--CODEGEN--\":1891:1892   */\n      0x00\n        /* \"--CODEGEN--\":1888:1889   */\n      dup1\n        /* \"--CODEGEN--\":1881:1893   */\n      revert\n        /* \"--CODEGEN--\":1843:1845   */\n    tag_108:\n        /* \"--CODEGEN--\":1926:1927   */\n      0x00\n        /* \"--CODEGEN--\":1943:1996   */\n      tag_109\n        /* \"--CODEGEN--\":1988:1995   */\n      dup5\n        /* \"--CODEGEN--\":1979:1985   */\n      dup3\n        /* \"--CODEGEN--\":1968:1977   */\n      dup6\n        /* \"--CODEGEN--\":1964:1986   */\n      add\n        /* \"--CODEGEN--\":1943:1996   */\n      jump(tag_87)\n    tag_109:\n        /* \"--CODEGEN--\":1933:1996   */\n      swap2\n      pop\n        /* \"--CODEGEN--\":1905:2002   */\n      pop\n        /* \"--CODEGEN--\":1837:2012   */\n      swap3\n      swap2\n      pop\n      pop\n      jump\n        /* \"--CODEGEN--\":2019:2123   */\n    tag_110:\n        /* \"--CODEGEN--\":2096:2117   */\n      tag_112\n        /* \"--CODEGEN--\":2111:2116   */\n      dup2\n        /* \"--CODEGEN--\":2096:2117   */\n      jump(tag_113)\n    tag_112:\n        /* \"--CODEGEN--\":2091:2094   */\n      dup3\n        /* \"--CODEGEN--\":2084:2118   */\n      mstore\n        /* \"--CODEGEN--\":2078:2123   */\n      pop\n      pop\n      jump\n        /* \"--CODEGEN--\":2130:2469   */\n    tag_114:\n      0x00\n        /* \"--CODEGEN--\":2238:2273   */\n      tag_116\n        /* \"--CODEGEN--\":2267:2272   */\n      dup3\n        /* \"--CODEGEN--\":2238:2273   */\n      jump(tag_117)\n    tag_116:\n        /* \"--CODEGEN--\":2285:2356   */\n      tag_118\n        /* \"--CODEGEN--\":2349:2355   */\n      dup2\n        /* \"--CODEGEN--\":2344:2347   */\n      dup6\n        /* \"--CODEGEN--\":2285:2356   */\n      jump(tag_119)\n    tag_118:\n        /* \"--CODEGEN--\":2278:2356   */\n      swap4\n      pop\n        /* \"--CODEGEN--\":2361:2413   */\n      tag_120\n        /* \"--CODEGEN--\":2406:2412   */\n      dup2\n        /* \"--CODEGEN--\":2401:2404   */\n      dup6\n        /* \"--CODEGEN--\":2394:2398   */\n      0x20\n        /* \"--CODEGEN--\":2387:2392   */\n      dup7\n        /* \"--CODEGEN--\":2383:2399   */\n      add\n        /* \"--CODEGEN--\":2361:2413   */\n      jump(tag_121)\n    tag_120:\n        /* \"--CODEGEN--\":2434:2463   */\n      tag_122\n        /* \"--CODEGEN--\":2456:2462   */\n      dup2\n        /* \"--CODEGEN--\":2434:2463   */\n      jump(tag_123)\n    tag_122:\n        /* \"--CODEGEN--\":2429:2432   */\n      dup5\n        /* \"--CODEGEN--\":2425:2464   */\n      add\n        /* \"--CODEGEN--\":2418:2464   */\n      swap2\n      pop\n        /* \"--CODEGEN--\":2218:2469   */\n      pop\n      swap3\n      swap2\n      pop\n      pop\n      jump\n        /* \"--CODEGEN--\":2476:2589   */\n    tag_124:\n        /* \"--CODEGEN--\":2559:2583   */\n      tag_126\n        /* \"--CODEGEN--\":2577:2582   */\n      dup2\n        /* \"--CODEGEN--\":2559:2583   */\n      jump(tag_127)\n    tag_126:\n        /* \"--CODEGEN--\":2554:2557   */\n      dup3\n        /* \"--CODEGEN--\":2547:2584   */\n      mstore\n        /* \"--CODEGEN--\":2541:2589   */\n      pop\n      pop\n      jump\n        /* \"--CODEGEN--\":2596:2703   */\n    tag_128:\n        /* \"--CODEGEN--\":2675:2697   */\n      tag_130\n        /* \"--CODEGEN--\":2691:2696   */\n      dup2\n        /* \"--CODEGEN--\":2675:2697   */\n      jump(tag_131)\n    tag_130:\n        /* \"--CODEGEN--\":2670:2673   */\n      dup3\n        /* \"--CODEGEN--\":2663:2698   */\n      mstore\n        /* \"--CODEGEN--\":2657:2703   */\n      pop\n      pop\n      jump\n        /* \"--CODEGEN--\":2710:2911   */\n    tag_23:\n      0x00\n        /* \"--CODEGEN--\":2822:2824   */\n      0x20\n        /* \"--CODEGEN--\":2811:2820   */\n      dup3\n        /* \"--CODEGEN--\":2807:2825   */\n      add\n        /* \"--CODEGEN--\":2799:2825   */\n      swap1\n      pop\n        /* \"--CODEGEN--\":2836:2901   */\n      tag_133\n        /* \"--CODEGEN--\":2898:2899   */\n      0x00\n        /* \"--CODEGEN--\":2887:2896   */\n      dup4\n        /* \"--CODEGEN--\":2883:2900   */\n      add\n        /* \"--CODEGEN--\":2874:2880   */\n      dup5\n        /* \"--CODEGEN--\":2836:2901   */\n      jump(tag_110)\n    tag_133:\n        /* \"--CODEGEN--\":2793:2911   */\n      swap3\n      swap2\n      pop\n      pop\n      jump\n        /* \"--CODEGEN--\":2918:3211   */\n    tag_17:\n      0x00\n        /* \"--CODEGEN--\":3052:3054   */\n      0x20\n        /* \"--CODEGEN--\":3041:3050   */\n      dup3\n        /* \"--CODEGEN--\":3037:3055   */\n      add\n        /* \"--CODEGEN--\":3029:3055   */\n      swap1\n      pop\n        /* \"--CODEGEN--\":3102:3111   */\n      dup2\n        /* \"--CODEGEN--\":3096:3100   */\n      dup2\n        /* \"--CODEGEN--\":3092:3112   */\n      sub\n        /* \"--CODEGEN--\":3088:3089   */\n      0x00\n        /* \"--CODEGEN--\":3077:3086   */\n      dup4\n        /* \"--CODEGEN--\":3073:3090   */\n      add\n        /* \"--CODEGEN--\":3066:3113   */\n      mstore\n        /* \"--CODEGEN--\":3127:3201   */\n      tag_135\n        /* \"--CODEGEN--\":3196:3200   */\n      dup2\n        /* \"--CODEGEN--\":3187:3193   */\n      dup5\n        /* \"--CODEGEN--\":3127:3201   */\n      jump(tag_114)\n    tag_135:\n        /* \"--CODEGEN--\":3119:3201   */\n      swap1\n      pop\n        /* \"--CODEGEN--\":3023:3211   */\n      swap3\n      swap2\n      pop\n      pop\n      jump\n        /* \"--CODEGEN--\":3218:3431   */\n    tag_27:\n      0x00\n        /* \"--CODEGEN--\":3336:3338   */\n      0x20\n        /* \"--CODEGEN--\":3325:3334   */\n      dup3\n        /* \"--CODEGEN--\":3321:3339   */\n      add\n        /* \"--CODEGEN--\":3313:3339   */\n      swap1\n      pop\n        /* \"--CODEGEN--\":3350:3421   */\n      tag_137\n        /* \"--CODEGEN--\":3418:3419   */\n      0x00\n        /* \"--CODEGEN--\":3407:3416   */\n      dup4\n        /* \"--CODEGEN--\":3403:3420   */\n      add\n        /* \"--CODEGEN--\":3394:3400   */\n      dup5\n        /* \"--CODEGEN--\":3350:3421   */\n      jump(tag_124)\n    tag_137:\n        /* \"--CODEGEN--\":3307:3431   */\n      swap3\n      swap2\n      pop\n      pop\n      jump\n        /* \"--CODEGEN--\":3438:3643   */\n    tag_36:\n      0x00\n        /* \"--CODEGEN--\":3552:3554   */\n      0x20\n        /* \"--CODEGEN--\":3541:3550   */\n      dup3\n        /* \"--CODEGEN--\":3537:3555   */\n      add\n        /* \"--CODEGEN--\":3529:3555   */\n      swap1\n      pop\n        /* \"--CODEGEN--\":3566:3633   */\n      tag_139\n        /* \"--CODEGEN--\":3630:3631   */\n      0x00\n        /* \"--CODEGEN--\":3619:3628   */\n      dup4\n        /* \"--CODEGEN--\":3615:3632   */\n      add\n        /* \"--CODEGEN--\":3606:3612   */\n      dup5\n        /* \"--CODEGEN--\":3566:3633   */\n      jump(tag_128)\n    tag_139:\n        /* \"--CODEGEN--\":3523:3643   */\n      swap3\n      swap2\n      pop\n      pop\n      jump\n        /* \"--CODEGEN--\":3650:3768   */\n    tag_117:\n      0x00\n        /* \"--CODEGEN--\":3740:3745   */\n      dup2\n        /* \"--CODEGEN--\":3734:3746   */\n      mload\n        /* \"--CODEGEN--\":3724:3746   */\n      swap1\n      pop\n        /* \"--CODEGEN--\":3705:3768   */\n      swap2\n      swap1\n      pop\n      jump\n        /* \"--CODEGEN--\":3776:3939   */\n    tag_119:\n      0x00\n        /* \"--CODEGEN--\":3891:3897   */\n      dup3\n        /* \"--CODEGEN--\":3886:3889   */\n      dup3\n        /* \"--CODEGEN--\":3879:3898   */\n      mstore\n        /* \"--CODEGEN--\":3928:3932   */\n      0x20\n        /* \"--CODEGEN--\":3923:3926   */\n      dup3\n        /* \"--CODEGEN--\":3919:3933   */\n      add\n        /* \"--CODEGEN--\":3904:3933   */\n      swap1\n      pop\n        /* \"--CODEGEN--\":3872:3939   */\n      swap3\n      swap2\n      pop\n      pop\n      jump\n        /* \"--CODEGEN--\":3947:4038   */\n    tag_142:\n      0x00\n        /* \"--CODEGEN--\":4009:4033   */\n      tag_144\n        /* \"--CODEGEN--\":4027:4032   */\n      dup3\n        /* \"--CODEGEN--\":4009:4033   */\n      jump(tag_145)\n    tag_144:\n        /* \"--CODEGEN--\":3998:4033   */\n      swap1\n      pop\n        /* \"--CODEGEN--\":3992:4038   */\n      swap2\n      swap1\n      pop\n      jump\n        /* \"--CODEGEN--\":4045:4130   */\n    tag_113:\n      0x00\n        /* \"--CODEGEN--\":4118:4123   */\n      dup2\n        /* \"--CODEGEN--\":4111:4124   */\n      iszero\n        /* \"--CODEGEN--\":4104:4125   */\n      iszero\n        /* \"--CODEGEN--\":4093:4125   */\n      swap1\n      pop\n        /* \"--CODEGEN--\":4087:4130   */\n      swap2\n      swap1\n      pop\n      jump\n        /* \"--CODEGEN--\":4137:4258   */\n    tag_145:\n      0x00\n        /* \"--CODEGEN--\":4210:4252   */\n      0xffffffffffffffffffffffffffffffffffffffff\n        /* \"--CODEGEN--\":4203:4208   */\n      dup3\n        /* \"--CODEGEN--\":4199:4253   */\n      and\n        /* \"--CODEGEN--\":4188:4253   */\n      swap1\n      pop\n        /* \"--CODEGEN--\":4182:4258   */\n      swap2\n      swap1\n      pop\n      jump\n        /* \"--CODEGEN--\":4265:4337   */\n    tag_127:\n      0x00\n        /* \"--CODEGEN--\":4327:4332   */\n      dup2\n        /* \"--CODEGEN--\":4316:4332   */\n      swap1\n      pop\n        /* \"--CODEGEN--\":4310:4337   */\n      swap2\n      swap1\n      pop\n      jump\n        /* \"--CODEGEN--\":4344:4425   */\n    tag_131:\n      0x00\n        /* \"--CODEGEN--\":4415:4419   */\n      0xff\n        /* \"--CODEGEN--\":4408:4413   */\n      dup3\n        /* \"--CODEGEN--\":4404:4420   */\n      and\n        /* \"--CODEGEN--\":4393:4420   */\n      swap1\n      pop\n        /* \"--CODEGEN--\":4387:4425   */\n      swap2\n      swap1\n      pop\n      jump\n        /* \"--CODEGEN--\":4433:4701   */\n    tag_121:\n        /* \"--CODEGEN--\":4498:4499   */\n      0x00\n        /* \"--CODEGEN--\":4505:4606   */\n    tag_151:\n        /* \"--CODEGEN--\":4519:4525   */\n      dup4\n        /* \"--CODEGEN--\":4516:4517   */\n      dup2\n        /* \"--CODEGEN--\":4513:4526   */\n      lt\n        /* \"--CODEGEN--\":4505:4606   */\n      iszero\n      tag_153\n      jumpi\n        /* \"--CODEGEN--\":4595:4596   */\n      dup1\n        /* \"--CODEGEN--\":4590:4593   */\n      dup3\n        /* \"--CODEGEN--\":4586:4597   */\n      add\n        /* \"--CODEGEN--\":4580:4598   */\n      mload\n        /* \"--CODEGEN--\":4576:4577   */\n      dup2\n        /* \"--CODEGEN--\":4571:4574   */\n      dup5\n        /* \"--CODEGEN--\":4567:4578   */\n      add\n        /* \"--CODEGEN--\":4560:4599   */\n      mstore\n        /* \"--CODEGEN--\":4541:4543   */\n      0x20\n        /* \"--CODEGEN--\":4538:4539   */\n      dup2\n        /* \"--CODEGEN--\":4534:4544   */\n      add\n        /* \"--CODEGEN--\":4529:4544   */\n      swap1\n      pop\n        /* \"--CODEGEN--\":4505:4606   */\n      jump(tag_151)\n    tag_153:\n        /* \"--CODEGEN--\":4621:4627   */\n      dup4\n        /* \"--CODEGEN--\":4618:4619   */\n      dup2\n        /* \"--CODEGEN--\":4615:4628   */\n      gt\n        /* \"--CODEGEN--\":4612:4614   */\n      iszero\n      tag_154\n      jumpi\n        /* \"--CODEGEN--\":4686:4687   */\n      0x00\n        /* \"--CODEGEN--\":4677:4683   */\n      dup5\n        /* \"--CODEGEN--\":4672:4675   */\n      dup5\n        /* \"--CODEGEN--\":4668:4684   */\n      add\n        /* \"--CODEGEN--\":4661:4688   */\n      mstore\n        /* \"--CODEGEN--\":4612:4614   */\n    tag_154:\n        /* \"--CODEGEN--\":4482:4701   */\n      pop\n      pop\n      pop\n      pop\n      jump\n        /* \"--CODEGEN--\":4709:4806   */\n    tag_123:\n      0x00\n        /* \"--CODEGEN--\":4797:4799   */\n      0x1f\n        /* \"--CODEGEN--\":4793:4800   */\n      not\n        /* \"--CODEGEN--\":4788:4790   */\n      0x1f\n        /* \"--CODEGEN--\":4781:4786   */\n      dup4\n        /* \"--CODEGEN--\":4777:4791   */\n      add\n        /* \"--CODEGEN--\":4773:4801   */\n      and\n        /* \"--CODEGEN--\":4763:4801   */\n      swap1\n      pop\n        /* \"--CODEGEN--\":4757:4806   */\n      swap2\n      swap1\n      pop\n      jump\n        /* \"--CODEGEN--\":4814:4931   */\n    tag_86:\n        /* \"--CODEGEN--\":4883:4907   */\n      tag_157\n        /* \"--CODEGEN--\":4901:4906   */\n      dup2\n        /* \"--CODEGEN--\":4883:4907   */\n      jump(tag_142)\n    tag_157:\n        /* \"--CODEGEN--\":4876:4881   */\n      dup2\n        /* \"--CODEGEN--\":4873:4908   */\n      eq\n        /* \"--CODEGEN--\":4863:4865   */\n      tag_158\n      jumpi\n        /* \"--CODEGEN--\":4922:4923   */\n      0x00\n        /* \"--CODEGEN--\":4919:4920   */\n      dup1\n        /* \"--CODEGEN--\":4912:4924   */\n      revert\n        /* \"--CODEGEN--\":4863:4865   */\n    tag_158:\n        /* \"--CODEGEN--\":4857:4931   */\n      pop\n      jump\n        /* \"--CODEGEN--\":4938:5055   */\n    tag_90:\n        /* \"--CODEGEN--\":5007:5031   */\n      tag_160\n        /* \"--CODEGEN--\":5025:5030   */\n      dup2\n        /* \"--CODEGEN--\":5007:5031   */\n      jump(tag_127)\n    tag_160:\n        /* \"--CODEGEN--\":5000:5005   */\n      dup2\n        /* \"--CODEGEN--\":4997:5032   */\n      eq\n        /* \"--CODEGEN--\":4987:4989   */\n      tag_161\n      jumpi\n        /* \"--CODEGEN--\":5046:5047   */\n      0x00\n        /* \"--CODEGEN--\":5043:5044   */\n      dup1\n        /* \"--CODEGEN--\":5036:5048   */\n      revert\n        /* \"--CODEGEN--\":4987:4989   */\n    tag_161:\n        /* \"--CODEGEN--\":4981:5055   */\n      pop\n      jump\n\n    auxdata: 0xa2646970667358221220bfa1e96aa842e691b92e786085b34f506b38bb0dcb4efe42728585a53daa47b664736f6c63430006000033\n}\n",
				"bytecode": {
					"linkReferences": {},
					"object": "608060405234801561001057600080fd5b50604051610e7f380380610e7f83398181016040526100329190810190610099565b806002819055506002546000803373ffffffffffffffffffffffffffffffffffffffff1673ffffffffffffffffffffffffffffffffffffffff16815260200190815260200160002081905550506100e3565b600081519050610093816100cc565b92915050565b6000602082840312156100ab57600080fd5b60006100b984828501610084565b91505092915050565b6000819050919050565b6100d5816100c2565b81146100e057600080fd5b50565b610d8d806100f26000396000f3fe608060405234801561001057600080fd5b506004361061009e5760003560e01c80634ee22adf116100665780634ee22adf1461015d57806370a082311461017957806395d89b41146101a9578063a9059cbb146101c7578063dd62ed3e146101f75761009e565b806306fdde03146100a3578063095ea7b3146100c157806318160ddd146100f157806323b872dd1461010f578063313ce5671461013f575b600080fd5b6100ab610227565b6040516100b89190610c1c565b60405180910390f35b6100db60048036036100d69190810190610b36565b610260565b6040516100e89190610c01565b60405180910390f35b6100f9610352565b6040516101069190610c3e565b60405180910390f35b61012960048036036101249190810190610ae7565b61035c565b6040516101369190610c01565b60405180910390f35b6101476106d7565b6040516101549190610c59565b60405180910390f35b61017760048036036101729190810190610b72565b6106dc565b005b610193600480360361018e9190810190610a82565b61073b565b6040516101a09190610c3e565b60405180910390f35b6101b1610783565b6040516101be9190610c1c565b60405180910390f35b6101e160048036036101dc9190810190610b36565b6107bc565b6040516101ee9190610c01565b60405180910390f35b610211600480360361020c9190810190610aab565b61099e565b60405161021e9190610c3e565b60405180910390f35b6040518060400160405280601181526020017f4552433230426c6f636b636861696e415a00000000000000000000000000000081525081565b600081600160003373ffffffffffffffffffffffffffffffffffffffff1673ffffffffffffffffffffffffffffffffffffffff16815260200190815260200160002060008573ffffffffffffffffffffffffffffffffffffffff1673ffffffffffffffffffffffffffffffffffffffff168152602001908152602001600020819055508273ffffffffffffffffffffffffffffffffffffffff163373ffffffffffffffffffffffffffffffffffffffff167f8c5be1e5ebec7d5bd14f71427d1e84f3dd0314c0f7b2291e5b200ac8c7c3b925846040516103409190610c3e565b60405180910390a36001905092915050565b6000600254905090565b60008060008573ffffffffffffffffffffffffffffffffffffffff1673ffffffffffffffffffffffffffffffffffffffff168152602001908152602001600020548211156103a957600080fd5b600160008573ffffffffffffffffffffffffffffffffffffffff1673ffffffffffffffffffffffffffffffffffffffff16815260200190815260200160002060003373ffffffffffffffffffffffffffffffffffffffff1673ffffffffffffffffffffffffffffffffffffffff1681526020019081526020016000205482111561043257600080fd5b610483826000808773ffffffffffffffffffffffffffffffffffffffff1673ffffffffffffffffffffffffffffffffffffffff16815260200190815260200160002054610a2590919063ffffffff16565b6000808673ffffffffffffffffffffffffffffffffffffffff1673ffffffffffffffffffffffffffffffffffffffff1681526020019081526020016000208190555061055482600160008773ffffffffffffffffffffffffffffffffffffffff1673ffffffffffffffffffffffffffffffffffffffff16815260200190815260200160002060003373ffffffffffffffffffffffffffffffffffffffff1673ffffffffffffffffffffffffffffffffffffffff16815260200190815260200160002054610a2590919063ffffffff16565b600160008673ffffffffffffffffffffffffffffffffffffffff1673ffffffffffffffffffffffffffffffffffffffff16815260200190815260200160002060003373ffffffffffffffffffffffffffffffffffffffff1673ffffffffffffffffffffffffffffffffffffffff16815260200190815260200160002081905550610625826000808673ffffffffffffffffffffffffffffffffffffffff1673ffffffffffffffffffffffffffffffffffffffff16815260200190815260200160002054610a3c90919063ffffffff16565b6000808573ffffffffffffffffffffffffffffffffffffffff1673ffffffffffffffffffffffffffffffffffffffff168152602001908152602001600020819055508273ffffffffffffffffffffffffffffffffffffffff168473ffffffffffffffffffffffffffffffffffffffff167fddf252ad1be2c89b69c2b068fc378daa952ba7f163c4a11628f55a4df523b3ef846040516106c49190610c3e565b60405180910390a3600190509392505050565b601281565b80600260008282540192505081905550806000803373ffffffffffffffffffffffffffffffffffffffff1673ffffffffffffffffffffffffffffffffffffffff1681526020019081526020016000206000828254019250508190555050565b60008060008373ffffffffffffffffffffffffffffffffffffffff1673ffffffffffffffffffffffffffffffffffffffff168152602001908152602001600020549050919050565b6040518060400160405280600381526020017f455243000000000000000000000000000000000000000000000000000000000081525081565b60008060003373ffffffffffffffffffffffffffffffffffffffff1673ffffffffffffffffffffffffffffffffffffffff1681526020019081526020016000205482111561080957600080fd5b61085a826000803373ffffffffffffffffffffffffffffffffffffffff1673ffffffffffffffffffffffffffffffffffffffff16815260200190815260200160002054610a2590919063ffffffff16565b6000803373ffffffffffffffffffffffffffffffffffffffff1673ffffffffffffffffffffffffffffffffffffffff168152602001908152602001600020819055506108ed826000808673ffffffffffffffffffffffffffffffffffffffff1673ffffffffffffffffffffffffffffffffffffffff16815260200190815260200160002054610a3c90919063ffffffff16565b6000808573ffffffffffffffffffffffffffffffffffffffff1673ffffffffffffffffffffffffffffffffffffffff168152602001908152602001600020819055508273ffffffffffffffffffffffffffffffffffffffff163373ffffffffffffffffffffffffffffffffffffffff167fddf252ad1be2c89b69c2b068fc378daa952ba7f163c4a11628f55a4df523b3ef8460405161098c9190610c3e565b60405180910390a36001905092915050565b6000600160008473ffffffffffffffffffffffffffffffffffffffff1673ffffffffffffffffffffffffffffffffffffffff16815260200190815260200160002060008373ffffffffffffffffffffffffffffffffffffffff1673ffffffffffffffffffffffffffffffffffffffff16815260200190815260200160002054905092915050565b600082821115610a3157fe5b818303905092915050565b600080828401905083811015610a4e57fe5b8091505092915050565b600081359050610a6781610d29565b92915050565b600081359050610a7c81610d40565b92915050565b600060208284031215610a9457600080fd5b6000610aa284828501610a58565b91505092915050565b60008060408385031215610abe57600080fd5b6000610acc85828601610a58565b9250506020610add85828601610a58565b9150509250929050565b600080600060608486031215610afc57600080fd5b6000610b0a86828701610a58565b9350506020610b1b86828701610a58565b9250506040610b2c86828701610a6d565b9150509250925092565b60008060408385031215610b4957600080fd5b6000610b5785828601610a58565b9250506020610b6885828601610a6d565b9150509250929050565b600060208284031215610b8457600080fd5b6000610b9284828501610a6d565b91505092915050565b610ba481610ca2565b82525050565b6000610bb582610c74565b610bbf8185610c7f565b9350610bcf818560208601610ce5565b610bd881610d18565b840191505092915050565b610bec81610cce565b82525050565b610bfb81610cd8565b82525050565b6000602082019050610c166000830184610b9b565b92915050565b60006020820190508181036000830152610c368184610baa565b905092915050565b6000602082019050610c536000830184610be3565b92915050565b6000602082019050610c6e6000830184610bf2565b92915050565b600081519050919050565b600082825260208201905092915050565b6000610c9b82610cae565b9050919050565b60008115159050919050565b600073ffffffffffffffffffffffffffffffffffffffff82169050919050565b6000819050919050565b600060ff82169050919050565b60005b83811015610d03578082015181840152602081019050610ce8565b83811115610d12576000848401525b50505050565b6000601f19601f8301169050919050565b610d3281610c90565b8114610d3d57600080fd5b50565b610d4981610cce565b8114610d5457600080fd5b5056fea2646970667358221220bfa1e96aa842e691b92e786085b34f506b38bb0dcb4efe42728585a53daa47b664736f6c63430006000033",
					"opcodes": "PUSH1 0x80 PUSH1 0x40 MSTORE CALLVALUE DUP1 ISZERO PUSH2 0x10 JUMPI PUSH1 0x0 DUP1 REVERT JUMPDEST POP PUSH1 0x40 MLOAD PUSH2 0xE7F CODESIZE SUB DUP1 PUSH2 0xE7F DUP4 CODECOPY DUP2 DUP2 ADD PUSH1 0x40 MSTORE PUSH2 0x32 SWAP2 SWAP1 DUP2 ADD SWAP1 PUSH2 0x99 JUMP JUMPDEST DUP1 PUSH1 0x2 DUP2 SWAP1 SSTORE POP PUSH1 0x2 SLOAD PUSH1 0x0 DUP1 CALLER PUSH20 0xFFFFFFFFFFFFFFFFFFFFFFFFFFFFFFFFFFFFFFFF AND PUSH20 0xFFFFFFFFFFFFFFFFFFFFFFFFFFFFFFFFFFFFFFFF AND DUP2 MSTORE PUSH1 0x20 ADD SWAP1 DUP2 MSTORE PUSH1 0x20 ADD PUSH1 0x0 KECCAK256 DUP2 SWAP1 SSTORE POP POP PUSH2 0xE3 JUMP JUMPDEST PUSH1 0x0 DUP2 MLOAD SWAP1 POP PUSH2 0x93 DUP2 PUSH2 0xCC JUMP JUMPDEST SWAP3 SWAP2 POP POP JUMP JUMPDEST PUSH1 0x0 PUSH1 0x20 DUP3 DUP5 SUB SLT ISZERO PUSH2 0xAB JUMPI PUSH1 0x0 DUP1 REVERT JUMPDEST PUSH1 0x0 PUSH2 0xB9 DUP5 DUP3 DUP6 ADD PUSH2 0x84 JUMP JUMPDEST SWAP2 POP POP SWAP3 SWAP2 POP POP JUMP JUMPDEST PUSH1 0x0 DUP2 SWAP1 POP SWAP2 SWAP1 POP JUMP JUMPDEST PUSH2 0xD5 DUP2 PUSH2 0xC2 JUMP JUMPDEST DUP2 EQ PUSH2 0xE0 JUMPI PUSH1 0x0 DUP1 REVERT JUMPDEST POP JUMP JUMPDEST PUSH2 0xD8D DUP1 PUSH2 0xF2 PUSH1 0x0 CODECOPY PUSH1 0x0 RETURN INVALID PUSH1 0x80 PUSH1 0x40 MSTORE CALLVALUE DUP1 ISZERO PUSH2 0x10 JUMPI PUSH1 0x0 DUP1 REVERT JUMPDEST POP PUSH1 0x4 CALLDATASIZE LT PUSH2 0x9E JUMPI PUSH1 0x0 CALLDATALOAD PUSH1 0xE0 SHR DUP1 PUSH4 0x4EE22ADF GT PUSH2 0x66 JUMPI DUP1 PUSH4 0x4EE22ADF EQ PUSH2 0x15D JUMPI DUP1 PUSH4 0x70A08231 EQ PUSH2 0x179 JUMPI DUP1 PUSH4 0x95D89B41 EQ PUSH2 0x1A9 JUMPI DUP1 PUSH4 0xA9059CBB EQ PUSH2 0x1C7 JUMPI DUP1 PUSH4 0xDD62ED3E EQ PUSH2 0x1F7 JUMPI PUSH2 0x9E JUMP JUMPDEST DUP1 PUSH4 0x6FDDE03 EQ PUSH2 0xA3 JUMPI DUP1 PUSH4 0x95EA7B3 EQ PUSH2 0xC1 JUMPI DUP1 PUSH4 0x18160DDD EQ PUSH2 0xF1 JUMPI DUP1 PUSH4 0x23B872DD EQ PUSH2 0x10F JUMPI DUP1 PUSH4 0x313CE567 EQ PUSH2 0x13F JUMPI JUMPDEST PUSH1 0x0 DUP1 REVERT JUMPDEST PUSH2 0xAB PUSH2 0x227 JUMP JUMPDEST PUSH1 0x40 MLOAD PUSH2 0xB8 SWAP2 SWAP1 PUSH2 0xC1C JUMP JUMPDEST PUSH1 0x40 MLOAD DUP1 SWAP2 SUB SWAP1 RETURN JUMPDEST PUSH2 0xDB PUSH1 0x4 DUP1 CALLDATASIZE SUB PUSH2 0xD6 SWAP2 SWAP1 DUP2 ADD SWAP1 PUSH2 0xB36 JUMP JUMPDEST PUSH2 0x260 JUMP JUMPDEST PUSH1 0x40 MLOAD PUSH2 0xE8 SWAP2 SWAP1 PUSH2 0xC01 JUMP JUMPDEST PUSH1 0x40 MLOAD DUP1 SWAP2 SUB SWAP1 RETURN JUMPDEST PUSH2 0xF9 PUSH2 0x352 JUMP JUMPDEST PUSH1 0x40 MLOAD PUSH2 0x106 SWAP2 SWAP1 PUSH2 0xC3E JUMP JUMPDEST PUSH1 0x40 MLOAD DUP1 SWAP2 SUB SWAP1 RETURN JUMPDEST PUSH2 0x129 PUSH1 0x4 DUP1 CALLDATASIZE SUB PUSH2 0x124 SWAP2 SWAP1 DUP2 ADD SWAP1 PUSH2 0xAE7 JUMP JUMPDEST PUSH2 0x35C JUMP JUMPDEST PUSH1 0x40 MLOAD PUSH2 0x136 SWAP2 SWAP1 PUSH2 0xC01 JUMP JUMPDEST PUSH1 0x40 MLOAD DUP1 SWAP2 SUB SWAP1 RETURN JUMPDEST PUSH2 0x147 PUSH2 0x6D7 JUMP JUMPDEST PUSH1 0x40 MLOAD PUSH2 0x154 SWAP2 SWAP1 PUSH2 0xC59 JUMP JUMPDEST PUSH1 0x40 MLOAD DUP1 SWAP2 SUB SWAP1 RETURN JUMPDEST PUSH2 0x177 PUSH1 0x4 DUP1 CALLDATASIZE SUB PUSH2 0x172 SWAP2 SWAP1 DUP2 ADD SWAP1 PUSH2 0xB72 JUMP JUMPDEST PUSH2 0x6DC JUMP JUMPDEST STOP JUMPDEST PUSH2 0x193 PUSH1 0x4 DUP1 CALLDATASIZE SUB PUSH2 0x18E SWAP2 SWAP1 DUP2 ADD SWAP1 PUSH2 0xA82 JUMP JUMPDEST PUSH2 0x73B JUMP JUMPDEST PUSH1 0x40 MLOAD PUSH2 0x1A0 SWAP2 SWAP1 PUSH2 0xC3E JUMP JUMPDEST PUSH1 0x40 MLOAD DUP1 SWAP2 SUB SWAP1 RETURN JUMPDEST PUSH2 0x1B1 PUSH2 0x783 JUMP JUMPDEST PUSH1 0x40 MLOAD PUSH2 0x1BE SWAP2 SWAP1 PUSH2 0xC1C JUMP JUMPDEST PUSH1 0x40 MLOAD DUP1 SWAP2 SUB SWAP1 RETURN JUMPDEST PUSH2 0x1E1 PUSH1 0x4 DUP1 CALLDATASIZE SUB PUSH2 0x1DC SWAP2 SWAP1 DUP2 ADD SWAP1 PUSH2 0xB36 JUMP JUMPDEST PUSH2 0x7BC JUMP JUMPDEST PUSH1 0x40 MLOAD PUSH2 0x1EE SWAP2 SWAP1 PUSH2 0xC01 JUMP JUMPDEST PUSH1 0x40 MLOAD DUP1 SWAP2 SUB SWAP1 RETURN JUMPDEST PUSH2 0x211 PUSH1 0x4 DUP1 CALLDATASIZE SUB PUSH2 0x20C SWAP2 SWAP1 DUP2 ADD SWAP1 PUSH2 0xAAB JUMP JUMPDEST PUSH2 0x99E JUMP JUMPDEST PUSH1 0x40 MLOAD PUSH2 0x21E SWAP2 SWAP1 PUSH2 0xC3E JUMP JUMPDEST PUSH1 0x40 MLOAD DUP1 SWAP2 SUB SWAP1 RETURN JUMPDEST PUSH1 0x40 MLOAD DUP1 PUSH1 0x40 ADD PUSH1 0x40 MSTORE DUP1 PUSH1 0x11 DUP2 MSTORE PUSH1 0x20 ADD PUSH32 0x4552433230426C6F636B636861696E415A000000000000000000000000000000 DUP2 MSTORE POP DUP2 JUMP JUMPDEST PUSH1 0x0 DUP2 PUSH1 0x1 PUSH1 0x0 CALLER PUSH20 0xFFFFFFFFFFFFFFFFFFFFFFFFFFFFFFFFFFFFFFFF AND PUSH20 0xFFFFFFFFFFFFFFFFFFFFFFFFFFFFFFFFFFFFFFFF AND DUP2 MSTORE PUSH1 0x20 ADD SWAP1 DUP2 MSTORE PUSH1 0x20 ADD PUSH1 0x0 KECCAK256 PUSH1 0x0 DUP6 PUSH20 0xFFFFFFFFFFFFFFFFFFFFFFFFFFFFFFFFFFFFFFFF AND PUSH20 0xFFFFFFFFFFFFFFFFFFFFFFFFFFFFFFFFFFFFFFFF AND DUP2 MSTORE PUSH1 0x20 ADD SWAP1 DUP2 MSTORE PUSH1 0x20 ADD PUSH1 0x0 KECCAK256 DUP2 SWAP1 SSTORE POP DUP3 PUSH20 0xFFFFFFFFFFFFFFFFFFFFFFFFFFFFFFFFFFFFFFFF AND CALLER PUSH20 0xFFFFFFFFFFFFFFFFFFFFFFFFFFFFFFFFFFFFFFFF AND PUSH32 0x8C5BE1E5EBEC7D5BD14F71427D1E84F3DD0314C0F7B2291E5B200AC8C7C3B925 DUP5 PUSH1 0x40 MLOAD PUSH2 0x340 SWAP2 SWAP1 PUSH2 0xC3E JUMP JUMPDEST PUSH1 0x40 MLOAD DUP1 SWAP2 SUB SWAP1 LOG3 PUSH1 0x1 SWAP1 POP SWAP3 SWAP2 POP POP JUMP JUMPDEST PUSH1 0x0 PUSH1 0x2 SLOAD SWAP1 POP SWAP1 JUMP JUMPDEST PUSH1 0x0 DUP1 PUSH1 0x0 DUP6 PUSH20 0xFFFFFFFFFFFFFFFFFFFFFFFFFFFFFFFFFFFFFFFF AND PUSH20 0xFFFFFFFFFFFFFFFFFFFFFFFFFFFFFFFFFFFFFFFF AND DUP2 MSTORE PUSH1 0x20 ADD SWAP1 DUP2 MSTORE PUSH1 0x20 ADD PUSH1 0x0 KECCAK256 SLOAD DUP3 GT ISZERO PUSH2 0x3A9 JUMPI PUSH1 0x0 DUP1 REVERT JUMPDEST PUSH1 0x1 PUSH1 0x0 DUP6 PUSH20 0xFFFFFFFFFFFFFFFFFFFFFFFFFFFFFFFFFFFFFFFF AND PUSH20 0xFFFFFFFFFFFFFFFFFFFFFFFFFFFFFFFFFFFFFFFF AND DUP2 MSTORE PUSH1 0x20 ADD SWAP1 DUP2 MSTORE PUSH1 0x20 ADD PUSH1 0x0 KECCAK256 PUSH1 0x0 CALLER PUSH20 0xFFFFFFFFFFFFFFFFFFFFFFFFFFFFFFFFFFFFFFFF AND PUSH20 0xFFFFFFFFFFFFFFFFFFFFFFFFFFFFFFFFFFFFFFFF AND DUP2 MSTORE PUSH1 0x20 ADD SWAP1 DUP2 MSTORE PUSH1 0x20 ADD PUSH1 0x0 KECCAK256 SLOAD DUP3 GT ISZERO PUSH2 0x432 JUMPI PUSH1 0x0 DUP1 REVERT JUMPDEST PUSH2 0x483 DUP3 PUSH1 0x0 DUP1 DUP8 PUSH20 0xFFFFFFFFFFFFFFFFFFFFFFFFFFFFFFFFFFFFFFFF AND PUSH20 0xFFFFFFFFFFFFFFFFFFFFFFFFFFFFFFFFFFFFFFFF AND DUP2 MSTORE PUSH1 0x20 ADD SWAP1 DUP2 MSTORE PUSH1 0x20 ADD PUSH1 0x0 KECCAK256 SLOAD PUSH2 0xA25 SWAP1 SWAP2 SWAP1 PUSH4 0xFFFFFFFF AND JUMP JUMPDEST PUSH1 0x0 DUP1 DUP7 PUSH20 0xFFFFFFFFFFFFFFFFFFFFFFFFFFFFFFFFFFFFFFFF AND PUSH20 0xFFFFFFFFFFFFFFFFFFFFFFFFFFFFFFFFFFFFFFFF AND DUP2 MSTORE PUSH1 0x20 ADD SWAP1 DUP2 MSTORE PUSH1 0x20 ADD PUSH1 0x0 KECCAK256 DUP2 SWAP1 SSTORE POP PUSH2 0x554 DUP3 PUSH1 0x1 PUSH1 0x0 DUP8 PUSH20 0xFFFFFFFFFFFFFFFFFFFFFFFFFFFFFFFFFFFFFFFF AND PUSH20 0xFFFFFFFFFFFFFFFFFFFFFFFFFFFFFFFFFFFFFFFF AND DUP2 MSTORE PUSH1 0x20 ADD SWAP1 DUP2 MSTORE PUSH1 0x20 ADD PUSH1 0x0 KECCAK256 PUSH1 0x0 CALLER PUSH20 0xFFFFFFFFFFFFFFFFFFFFFFFFFFFFFFFFFFFFFFFF AND PUSH20 0xFFFFFFFFFFFFFFFFFFFFFFFFFFFFFFFFFFFFFFFF AND DUP2 MSTORE PUSH1 0x20 ADD SWAP1 DUP2 MSTORE PUSH1 0x20 ADD PUSH1 0x0 KECCAK256 SLOAD PUSH2 0xA25 SWAP1 SWAP2 SWAP1 PUSH4 0xFFFFFFFF AND JUMP JUMPDEST PUSH1 0x1 PUSH1 0x0 DUP7 PUSH20 0xFFFFFFFFFFFFFFFFFFFFFFFFFFFFFFFFFFFFFFFF AND PUSH20 0xFFFFFFFFFFFFFFFFFFFFFFFFFFFFFFFFFFFFFFFF AND DUP2 MSTORE PUSH1 0x20 ADD SWAP1 DUP2 MSTORE PUSH1 0x20 ADD PUSH1 0x0 KECCAK256 PUSH1 0x0 CALLER PUSH20 0xFFFFFFFFFFFFFFFFFFFFFFFFFFFFFFFFFFFFFFFF AND PUSH20 0xFFFFFFFFFFFFFFFFFFFFFFFFFFFFFFFFFFFFFFFF AND DUP2 MSTORE PUSH1 0x20 ADD SWAP1 DUP2 MSTORE PUSH1 0x20 ADD PUSH1 0x0 KECCAK256 DUP2 SWAP1 SSTORE POP PUSH2 0x625 DUP3 PUSH1 0x0 DUP1 DUP7 PUSH20 0xFFFFFFFFFFFFFFFFFFFFFFFFFFFFFFFFFFFFFFFF AND PUSH20 0xFFFFFFFFFFFFFFFFFFFFFFFFFFFFFFFFFFFFFFFF AND DUP2 MSTORE PUSH1 0x20 ADD SWAP1 DUP2 MSTORE PUSH1 0x20 ADD PUSH1 0x0 KECCAK256 SLOAD PUSH2 0xA3C SWAP1 SWAP2 SWAP1 PUSH4 0xFFFFFFFF AND JUMP JUMPDEST PUSH1 0x0 DUP1 DUP6 PUSH20 0xFFFFFFFFFFFFFFFFFFFFFFFFFFFFFFFFFFFFFFFF AND PUSH20 0xFFFFFFFFFFFFFFFFFFFFFFFFFFFFFFFFFFFFFFFF AND DUP2 MSTORE PUSH1 0x20 ADD SWAP1 DUP2 MSTORE PUSH1 0x20 ADD PUSH1 0x0 KECCAK256 DUP2 SWAP1 SSTORE POP DUP3 PUSH20 0xFFFFFFFFFFFFFFFFFFFFFFFFFFFFFFFFFFFFFFFF AND DUP5 PUSH20 0xFFFFFFFFFFFFFFFFFFFFFFFFFFFFFFFFFFFFFFFF AND PUSH32 0xDDF252AD1BE2C89B69C2B068FC378DAA952BA7F163C4A11628F55A4DF523B3EF DUP5 PUSH1 0x40 MLOAD PUSH2 0x6C4 SWAP2 SWAP1 PUSH2 0xC3E JUMP JUMPDEST PUSH1 0x40 MLOAD DUP1 SWAP2 SUB SWAP1 LOG3 PUSH1 0x1 SWAP1 POP SWAP4 SWAP3 POP POP POP JUMP JUMPDEST PUSH1 0x12 DUP2 JUMP JUMPDEST DUP1 PUSH1 0x2 PUSH1 0x0 DUP3 DUP3 SLOAD ADD SWAP3 POP POP DUP2 SWAP1 SSTORE POP DUP1 PUSH1 0x0 DUP1 CALLER PUSH20 0xFFFFFFFFFFFFFFFFFFFFFFFFFFFFFFFFFFFFFFFF AND PUSH20 0xFFFFFFFFFFFFFFFFFFFFFFFFFFFFFFFFFFFFFFFF AND DUP2 MSTORE PUSH1 0x20 ADD SWAP1 DUP2 MSTORE PUSH1 0x20 ADD PUSH1 0x0 KECCAK256 PUSH1 0x0 DUP3 DUP3 SLOAD ADD SWAP3 POP POP DUP2 SWAP1 SSTORE POP POP JUMP JUMPDEST PUSH1 0x0 DUP1 PUSH1 0x0 DUP4 PUSH20 0xFFFFFFFFFFFFFFFFFFFFFFFFFFFFFFFFFFFFFFFF AND PUSH20 0xFFFFFFFFFFFFFFFFFFFFFFFFFFFFFFFFFFFFFFFF AND DUP2 MSTORE PUSH1 0x20 ADD SWAP1 DUP2 MSTORE PUSH1 0x20 ADD PUSH1 0x0 KECCAK256 SLOAD SWAP1 POP SWAP2 SWAP1 POP JUMP JUMPDEST PUSH1 0x40 MLOAD DUP1 PUSH1 0x40 ADD PUSH1 0x40 MSTORE DUP1 PUSH1 0x3 DUP2 MSTORE PUSH1 0x20 ADD PUSH32 0x4552430000000000000000000000000000000000000000000000000000000000 DUP2 MSTORE POP DUP2 JUMP JUMPDEST PUSH1 0x0 DUP1 PUSH1 0x0 CALLER PUSH20 0xFFFFFFFFFFFFFFFFFFFFFFFFFFFFFFFFFFFFFFFF AND PUSH20 0xFFFFFFFFFFFFFFFFFFFFFFFFFFFFFFFFFFFFFFFF AND DUP2 MSTORE PUSH1 0x20 ADD SWAP1 DUP2 MSTORE PUSH1 0x20 ADD PUSH1 0x0 KECCAK256 SLOAD DUP3 GT ISZERO PUSH2 0x809 JUMPI PUSH1 0x0 DUP1 REVERT JUMPDEST PUSH2 0x85A DUP3 PUSH1 0x0 DUP1 CALLER PUSH20 0xFFFFFFFFFFFFFFFFFFFFFFFFFFFFFFFFFFFFFFFF AND PUSH20 0xFFFFFFFFFFFFFFFFFFFFFFFFFFFFFFFFFFFFFFFF AND DUP2 MSTORE PUSH1 0x20 ADD SWAP1 DUP2 MSTORE PUSH1 0x20 ADD PUSH1 0x0 KECCAK256 SLOAD PUSH2 0xA25 SWAP1 SWAP2 SWAP1 PUSH4 0xFFFFFFFF AND JUMP JUMPDEST PUSH1 0x0 DUP1 CALLER PUSH20 0xFFFFFFFFFFFFFFFFFFFFFFFFFFFFFFFFFFFFFFFF AND PUSH20 0xFFFFFFFFFFFFFFFFFFFFFFFFFFFFFFFFFFFFFFFF AND DUP2 MSTORE PUSH1 0x20 ADD SWAP1 DUP2 MSTORE PUSH1 0x20 ADD PUSH1 0x0 KECCAK256 DUP2 SWAP1 SSTORE POP PUSH2 0x8ED DUP3 PUSH1 0x0 DUP1 DUP7 PUSH20 0xFFFFFFFFFFFFFFFFFFFFFFFFFFFFFFFFFFFFFFFF AND PUSH20 0xFFFFFFFFFFFFFFFFFFFFFFFFFFFFFFFFFFFFFFFF AND DUP2 MSTORE PUSH1 0x20 ADD SWAP1 DUP2 MSTORE PUSH1 0x20 ADD PUSH1 0x0 KECCAK256 SLOAD PUSH2 0xA3C SWAP1 SWAP2 SWAP1 PUSH4 0xFFFFFFFF AND JUMP JUMPDEST PUSH1 0x0 DUP1 DUP6 PUSH20 0xFFFFFFFFFFFFFFFFFFFFFFFFFFFFFFFFFFFFFFFF AND PUSH20 0xFFFFFFFFFFFFFFFFFFFFFFFFFFFFFFFFFFFFFFFF AND DUP2 MSTORE PUSH1 0x20 ADD SWAP1 DUP2 MSTORE PUSH1 0x20 ADD PUSH1 0x0 KECCAK256 DUP2 SWAP1 SSTORE POP DUP3 PUSH20 0xFFFFFFFFFFFFFFFFFFFFFFFFFFFFFFFFFFFFFFFF AND CALLER PUSH20 0xFFFFFFFFFFFFFFFFFFFFFFFFFFFFFFFFFFFFFFFF AND PUSH32 0xDDF252AD1BE2C89B69C2B068FC378DAA952BA7F163C4A11628F55A4DF523B3EF DUP5 PUSH1 0x40 MLOAD PUSH2 0x98C SWAP2 SWAP1 PUSH2 0xC3E JUMP JUMPDEST PUSH1 0x40 MLOAD DUP1 SWAP2 SUB SWAP1 LOG3 PUSH1 0x1 SWAP1 POP SWAP3 SWAP2 POP POP JUMP JUMPDEST PUSH1 0x0 PUSH1 0x1 PUSH1 0x0 DUP5 PUSH20 0xFFFFFFFFFFFFFFFFFFFFFFFFFFFFFFFFFFFFFFFF AND PUSH20 0xFFFFFFFFFFFFFFFFFFFFFFFFFFFFFFFFFFFFFFFF AND DUP2 MSTORE PUSH1 0x20 ADD SWAP1 DUP2 MSTORE PUSH1 0x20 ADD PUSH1 0x0 KECCAK256 PUSH1 0x0 DUP4 PUSH20 0xFFFFFFFFFFFFFFFFFFFFFFFFFFFFFFFFFFFFFFFF AND PUSH20 0xFFFFFFFFFFFFFFFFFFFFFFFFFFFFFFFFFFFFFFFF AND DUP2 MSTORE PUSH1 0x20 ADD SWAP1 DUP2 MSTORE PUSH1 0x20 ADD PUSH1 0x0 KECCAK256 SLOAD SWAP1 POP SWAP3 SWAP2 POP POP JUMP JUMPDEST PUSH1 0x0 DUP3 DUP3 GT ISZERO PUSH2 0xA31 JUMPI INVALID JUMPDEST DUP2 DUP4 SUB SWAP1 POP SWAP3 SWAP2 POP POP JUMP JUMPDEST PUSH1 0x0 DUP1 DUP3 DUP5 ADD SWAP1 POP DUP4 DUP2 LT ISZERO PUSH2 0xA4E JUMPI INVALID JUMPDEST DUP1 SWAP2 POP POP SWAP3 SWAP2 POP POP JUMP JUMPDEST PUSH1 0x0 DUP2 CALLDATALOAD SWAP1 POP PUSH2 0xA67 DUP2 PUSH2 0xD29 JUMP JUMPDEST SWAP3 SWAP2 POP POP JUMP JUMPDEST PUSH1 0x0 DUP2 CALLDATALOAD SWAP1 POP PUSH2 0xA7C DUP2 PUSH2 0xD40 JUMP JUMPDEST SWAP3 SWAP2 POP POP JUMP JUMPDEST PUSH1 0x0 PUSH1 0x20 DUP3 DUP5 SUB SLT ISZERO PUSH2 0xA94 JUMPI PUSH1 0x0 DUP1 REVERT JUMPDEST PUSH1 0x0 PUSH2 0xAA2 DUP5 DUP3 DUP6 ADD PUSH2 0xA58 JUMP JUMPDEST SWAP2 POP POP SWAP3 SWAP2 POP POP JUMP JUMPDEST PUSH1 0x0 DUP1 PUSH1 0x40 DUP4 DUP6 SUB SLT ISZERO PUSH2 0xABE JUMPI PUSH1 0x0 DUP1 REVERT JUMPDEST PUSH1 0x0 PUSH2 0xACC DUP6 DUP3 DUP7 ADD PUSH2 0xA58 JUMP JUMPDEST SWAP3 POP POP PUSH1 0x20 PUSH2 0xADD DUP6 DUP3 DUP7 ADD PUSH2 0xA58 JUMP JUMPDEST SWAP2 POP POP SWAP3 POP SWAP3 SWAP1 POP JUMP JUMPDEST PUSH1 0x0 DUP1 PUSH1 0x0 PUSH1 0x60 DUP5 DUP7 SUB SLT ISZERO PUSH2 0xAFC JUMPI PUSH1 0x0 DUP1 REVERT JUMPDEST PUSH1 0x0 PUSH2 0xB0A DUP7 DUP3 DUP8 ADD PUSH2 0xA58 JUMP JUMPDEST SWAP4 POP POP PUSH1 0x20 PUSH2 0xB1B DUP7 DUP3 DUP8 ADD PUSH2 0xA58 JUMP JUMPDEST SWAP3 POP POP PUSH1 0x40 PUSH2 0xB2C DUP7 DUP3 DUP8 ADD PUSH2 0xA6D JUMP JUMPDEST SWAP2 POP POP SWAP3 POP SWAP3 POP SWAP3 JUMP JUMPDEST PUSH1 0x0 DUP1 PUSH1 0x40 DUP4 DUP6 SUB SLT ISZERO PUSH2 0xB49 JUMPI PUSH1 0x0 DUP1 REVERT JUMPDEST PUSH1 0x0 PUSH2 0xB57 DUP6 DUP3 DUP7 ADD PUSH2 0xA58 JUMP JUMPDEST SWAP3 POP POP PUSH1 0x20 PUSH2 0xB68 DUP6 DUP3 DUP7 ADD PUSH2 0xA6D JUMP JUMPDEST SWAP2 POP POP SWAP3 POP SWAP3 SWAP1 POP JUMP JUMPDEST PUSH1 0x0 PUSH1 0x20 DUP3 DUP5 SUB SLT ISZERO PUSH2 0xB84 JUMPI PUSH1 0x0 DUP1 REVERT JUMPDEST PUSH1 0x0 PUSH2 0xB92 DUP5 DUP3 DUP6 ADD PUSH2 0xA6D JUMP JUMPDEST SWAP2 POP POP SWAP3 SWAP2 POP POP JUMP JUMPDEST PUSH2 0xBA4 DUP2 PUSH2 0xCA2 JUMP JUMPDEST DUP3 MSTORE POP POP JUMP JUMPDEST PUSH1 0x0 PUSH2 0xBB5 DUP3 PUSH2 0xC74 JUMP JUMPDEST PUSH2 0xBBF DUP2 DUP6 PUSH2 0xC7F JUMP JUMPDEST SWAP4 POP PUSH2 0xBCF DUP2 DUP6 PUSH1 0x20 DUP7 ADD PUSH2 0xCE5 JUMP JUMPDEST PUSH2 0xBD8 DUP2 PUSH2 0xD18 JUMP JUMPDEST DUP5 ADD SWAP2 POP POP SWAP3 SWAP2 POP POP JUMP JUMPDEST PUSH2 0xBEC DUP2 PUSH2 0xCCE JUMP JUMPDEST DUP3 MSTORE POP POP JUMP JUMPDEST PUSH2 0xBFB DUP2 PUSH2 0xCD8 JUMP JUMPDEST DUP3 MSTORE POP POP JUMP JUMPDEST PUSH1 0x0 PUSH1 0x20 DUP3 ADD SWAP1 POP PUSH2 0xC16 PUSH1 0x0 DUP4 ADD DUP5 PUSH2 0xB9B JUMP JUMPDEST SWAP3 SWAP2 POP POP JUMP JUMPDEST PUSH1 0x0 PUSH1 0x20 DUP3 ADD SWAP1 POP DUP2 DUP2 SUB PUSH1 0x0 DUP4 ADD MSTORE PUSH2 0xC36 DUP2 DUP5 PUSH2 0xBAA JUMP JUMPDEST SWAP1 POP SWAP3 SWAP2 POP POP JUMP JUMPDEST PUSH1 0x0 PUSH1 0x20 DUP3 ADD SWAP1 POP PUSH2 0xC53 PUSH1 0x0 DUP4 ADD DUP5 PUSH2 0xBE3 JUMP JUMPDEST SWAP3 SWAP2 POP POP JUMP JUMPDEST PUSH1 0x0 PUSH1 0x20 DUP3 ADD SWAP1 POP PUSH2 0xC6E PUSH1 0x0 DUP4 ADD DUP5 PUSH2 0xBF2 JUMP JUMPDEST SWAP3 SWAP2 POP POP JUMP JUMPDEST PUSH1 0x0 DUP2 MLOAD SWAP1 POP SWAP2 SWAP1 POP JUMP JUMPDEST PUSH1 0x0 DUP3 DUP3 MSTORE PUSH1 0x20 DUP3 ADD SWAP1 POP SWAP3 SWAP2 POP POP JUMP JUMPDEST PUSH1 0x0 PUSH2 0xC9B DUP3 PUSH2 0xCAE JUMP JUMPDEST SWAP1 POP SWAP2 SWAP1 POP JUMP JUMPDEST PUSH1 0x0 DUP2 ISZERO ISZERO SWAP1 POP SWAP2 SWAP1 POP JUMP JUMPDEST PUSH1 0x0 PUSH20 0xFFFFFFFFFFFFFFFFFFFFFFFFFFFFFFFFFFFFFFFF DUP3 AND SWAP1 POP SWAP2 SWAP1 POP JUMP JUMPDEST PUSH1 0x0 DUP2 SWAP1 POP SWAP2 SWAP1 POP JUMP JUMPDEST PUSH1 0x0 PUSH1 0xFF DUP3 AND SWAP1 POP SWAP2 SWAP1 POP JUMP JUMPDEST PUSH1 0x0 JUMPDEST DUP4 DUP2 LT ISZERO PUSH2 0xD03 JUMPI DUP1 DUP3 ADD MLOAD DUP2 DUP5 ADD MSTORE PUSH1 0x20 DUP2 ADD SWAP1 POP PUSH2 0xCE8 JUMP JUMPDEST DUP4 DUP2 GT ISZERO PUSH2 0xD12 JUMPI PUSH1 0x0 DUP5 DUP5 ADD MSTORE JUMPDEST POP POP POP POP JUMP JUMPDEST PUSH1 0x0 PUSH1 0x1F NOT PUSH1 0x1F DUP4 ADD AND SWAP1 POP SWAP2 SWAP1 POP JUMP JUMPDEST PUSH2 0xD32 DUP2 PUSH2 0xC90 JUMP JUMPDEST DUP2 EQ PUSH2 0xD3D JUMPI PUSH1 0x0 DUP1 REVERT JUMPDEST POP JUMP JUMPDEST PUSH2 0xD49 DUP2 PUSH2 0xCCE JUMP JUMPDEST DUP2 EQ PUSH2 0xD54 JUMPI PUSH1 0x0 DUP1 REVERT JUMPDEST POP JUMP INVALID LOG2 PUSH5 0x6970667358 0x22 SLT KECCAK256 0xBF LOG1 0xE9 PUSH11 0xA842E691B92E786085B34F POP PUSH12 0x38BB0DCB4EFE42728585A53D 0xAA SELFBALANCE 0xB6 PUSH5 0x736F6C6343 STOP MOD STOP STOP CALLER "
				},
				"gasEstimates": {
					"creation": {
						"codeDepositCost": "693800",
						"executionCost": "infinite",
						"totalCost": "infinite"
					},
					"external": {
						"allowance(address,address)": "infinite",
						"approve(address,uint256)": "infinite",
						"balanceOf(address)": "1563",
						"decimals()": "424",
						"increaseTotalSuply(uint256)": "42161",
						"name()": "infinite",
						"symbol()": "infinite",
						"totalSupply()": "1182",
						"transfer(address,uint256)": "infinite",
						"transferFrom(address,address,uint256)": "infinite"
					}
				},
				"methodIdentifiers": {
					"allowance(address,address)": "dd62ed3e",
					"approve(address,uint256)": "095ea7b3",
					"balanceOf(address)": "70a08231",
					"decimals()": "313ce567",
					"increaseTotalSuply(uint256)": "4ee22adf",
					"name()": "06fdde03",
					"symbol()": "95d89b41",
					"totalSupply()": "18160ddd",
					"transfer(address,uint256)": "a9059cbb",
					"transferFrom(address,address,uint256)": "23b872dd"
				}
			},
			"storageLayout": {
				"storage": [
					{
						"astId": 104,
						"contract": "Bloque_2/TOKEN/ERC20.sol:ERC20",
						"label": "balances",
						"offset": 0,
						"slot": "0",
						"type": "t_mapping(t_address,t_uint256)"
					},
					{
						"astId": 110,
						"contract": "Bloque_2/TOKEN/ERC20.sol:ERC20",
						"label": "allowed",
						"offset": 0,
						"slot": "1",
						"type": "t_mapping(t_address,t_mapping(t_address,t_uint256))"
					},
					{
						"astId": 112,
						"contract": "Bloque_2/TOKEN/ERC20.sol:ERC20",
						"label": "totalSupply_",
						"offset": 0,
						"slot": "2",
						"type": "t_uint256"
					}
				],
				"types": {
					"t_address": {
						"encoding": "inplace",
						"label": "address",
						"numberOfBytes": "20"
					},
					"t_mapping(t_address,t_mapping(t_address,t_uint256))": {
						"encoding": "mapping",
						"key": "t_address",
						"label": "mapping(address => mapping(address => uint256))",
						"numberOfBytes": "32",
						"value": "t_mapping(t_address,t_uint256)"
					},
					"t_mapping(t_address,t_uint256)": {
						"encoding": "mapping",
						"key": "t_address",
						"label": "mapping(address => uint256)",
						"numberOfBytes": "32",
						"value": "t_uint256"
					},
					"t_uint256": {
						"encoding": "inplace",
						"label": "uint256",
						"numberOfBytes": "32"
					}
				}
			},
			"userdoc": {
				"methods": {}
			}
		}
	}
}