{
	"SafeMath/ejemplos_uso.sol": {
		"ejemplos": {
			"abi": [
				{
					"inputs": [
						{
							"internalType": "uint256",
							"name": "_a",
							"type": "uint256"
						},
						{
							"internalType": "uint256",
							"name": "_b",
							"type": "uint256"
						}
					],
					"name": "multiplicacion",
					"outputs": [
						{
							"internalType": "uint256",
							"name": "",
							"type": "uint256"
						}
					],
					"stateMutability": "pure",
					"type": "function"
				},
				{
					"inputs": [
						{
							"internalType": "uint256",
							"name": "_a",
							"type": "uint256"
						},
						{
							"internalType": "uint256",
							"name": "_b",
							"type": "uint256"
						}
					],
					"name": "resta",
					"outputs": [
						{
							"internalType": "uint256",
							"name": "",
							"type": "uint256"
						}
					],
					"stateMutability": "pure",
					"type": "function"
				},
				{
					"inputs": [
						{
							"internalType": "uint256",
							"name": "_a",
							"type": "uint256"
						},
						{
							"internalType": "uint256",
							"name": "_b",
							"type": "uint256"
						}
					],
					"name": "suma",
					"outputs": [
						{
							"internalType": "uint256",
							"name": "",
							"type": "uint256"
						}
					],
					"stateMutability": "pure",
					"type": "function"
				}
			],
			"devdoc": {
				"methods": {}
			},
			"evm": {
				"assembly": "    /* \"SafeMath/ejemplos_uso.sol\":71:582  contract ejemplos {\r... */\n  mstore(0x40, 0x80)\n  callvalue\n    /* \"--CODEGEN--\":8:17   */\n  dup1\n    /* \"--CODEGEN--\":5:7   */\n  iszero\n  tag_1\n  jumpi\n    /* \"--CODEGEN--\":30:31   */\n  0x00\n    /* \"--CODEGEN--\":27:28   */\n  dup1\n    /* \"--CODEGEN--\":20:32   */\n  revert\n    /* \"--CODEGEN--\":5:7   */\ntag_1:\n    /* \"SafeMath/ejemplos_uso.sol\":71:582  contract ejemplos {\r... */\n  pop\n  dataSize(sub_0)\n  dup1\n  dataOffset(sub_0)\n  0x00\n  codecopy\n  0x00\n  return\nstop\n\nsub_0: assembly {\n        /* \"SafeMath/ejemplos_uso.sol\":71:582  contract ejemplos {\r... */\n      mstore(0x40, 0x80)\n      callvalue\n        /* \"--CODEGEN--\":8:17   */\n      dup1\n        /* \"--CODEGEN--\":5:7   */\n      iszero\n      tag_1\n      jumpi\n        /* \"--CODEGEN--\":30:31   */\n      0x00\n        /* \"--CODEGEN--\":27:28   */\n      dup1\n        /* \"--CODEGEN--\":20:32   */\n      revert\n        /* \"--CODEGEN--\":5:7   */\n    tag_1:\n        /* \"SafeMath/ejemplos_uso.sol\":71:582  contract ejemplos {\r... */\n      pop\n      jumpi(tag_2, lt(calldatasize, 0x04))\n      shr(0xe0, calldataload(0x00))\n      dup1\n      0x52f294bc\n      eq\n      tag_3\n      jumpi\n      dup1\n      0xb1b45b1b\n      eq\n      tag_4\n      jumpi\n      dup1\n      0xd17fb9ea\n      eq\n      tag_5\n      jumpi\n    tag_2:\n      0x00\n      dup1\n      revert\n        /* \"SafeMath/ejemplos_uso.sol\":339:434  function resta(uint _a, uint _b) public pure returns(uint) {\r... */\n    tag_3:\n      tag_6\n      0x04\n      dup1\n      calldatasize\n      sub\n        /* \"--CODEGEN--\":13:15   */\n      0x40\n        /* \"--CODEGEN--\":8:11   */\n      dup2\n        /* \"--CODEGEN--\":5:16   */\n      lt\n        /* \"--CODEGEN--\":2:4   */\n      iszero\n      tag_7\n      jumpi\n        /* \"--CODEGEN--\":29:30   */\n      0x00\n        /* \"--CODEGEN--\":26:27   */\n      dup1\n        /* \"--CODEGEN--\":19:31   */\n      revert\n        /* \"--CODEGEN--\":2:4   */\n    tag_7:\n        /* \"SafeMath/ejemplos_uso.sol\":339:434  function resta(uint _a, uint _b) public pure returns(uint) {\r... */\n      dup2\n      add\n      swap1\n      dup1\n      dup1\n      calldataload\n      swap1\n      0x20\n      add\n      swap1\n      swap3\n      swap2\n      swap1\n      dup1\n      calldataload\n      swap1\n      0x20\n      add\n      swap1\n      swap3\n      swap2\n      swap1\n      pop\n      pop\n      pop\n      tag_8\n      jump\t// in\n    tag_6:\n      mload(0x40)\n      dup1\n      dup3\n      dup2\n      mstore\n      0x20\n      add\n      swap2\n      pop\n      pop\n      mload(0x40)\n      dup1\n      swap2\n      sub\n      swap1\n      return\n        /* \"SafeMath/ejemplos_uso.sol\":215:309  function suma(uint _a, uint _b) public pure returns(uint) {\r... */\n    tag_4:\n      tag_9\n      0x04\n      dup1\n      calldatasize\n      sub\n        /* \"--CODEGEN--\":13:15   */\n      0x40\n        /* \"--CODEGEN--\":8:11   */\n      dup2\n        /* \"--CODEGEN--\":5:16   */\n      lt\n        /* \"--CODEGEN--\":2:4   */\n      iszero\n      tag_10\n      jumpi\n        /* \"--CODEGEN--\":29:30   */\n      0x00\n        /* \"--CODEGEN--\":26:27   */\n      dup1\n        /* \"--CODEGEN--\":19:31   */\n      revert\n        /* \"--CODEGEN--\":2:4   */\n    tag_10:\n        /* \"SafeMath/ejemplos_uso.sol\":215:309  function suma(uint _a, uint _b) public pure returns(uint) {\r... */\n      dup2\n      add\n      swap1\n      dup1\n      dup1\n      calldataload\n      swap1\n      0x20\n      add\n      swap1\n      swap3\n      swap2\n      swap1\n      dup1\n      calldataload\n      swap1\n      0x20\n      add\n      swap1\n      swap3\n      swap2\n      swap1\n      pop\n      pop\n      pop\n      tag_11\n      jump\t// in\n    tag_9:\n      mload(0x40)\n      dup1\n      dup3\n      dup2\n      mstore\n      0x20\n      add\n      swap2\n      pop\n      pop\n      mload(0x40)\n      dup1\n      swap2\n      sub\n      swap1\n      return\n        /* \"SafeMath/ejemplos_uso.sol\":473:577  function multiplicacion(uint _a, uint _b) public pure returns(uint) {\r... */\n    tag_5:\n      tag_12\n      0x04\n      dup1\n      calldatasize\n      sub\n        /* \"--CODEGEN--\":13:15   */\n      0x40\n        /* \"--CODEGEN--\":8:11   */\n      dup2\n        /* \"--CODEGEN--\":5:16   */\n      lt\n        /* \"--CODEGEN--\":2:4   */\n      iszero\n      tag_13\n      jumpi\n        /* \"--CODEGEN--\":29:30   */\n      0x00\n        /* \"--CODEGEN--\":26:27   */\n      dup1\n        /* \"--CODEGEN--\":19:31   */\n      revert\n        /* \"--CODEGEN--\":2:4   */\n    tag_13:\n        /* \"SafeMath/ejemplos_uso.sol\":473:577  function multiplicacion(uint _a, uint _b) public pure returns(uint) {\r... */\n      dup2\n      add\n      swap1\n      dup1\n      dup1\n      calldataload\n      swap1\n      0x20\n      add\n      swap1\n      swap3\n      swap2\n      swap1\n      dup1\n      calldataload\n      swap1\n      0x20\n      add\n      swap1\n      swap3\n      swap2\n      swap1\n      pop\n      pop\n      pop\n      tag_14\n      jump\t// in\n    tag_12:\n      mload(0x40)\n      dup1\n      dup3\n      dup2\n      mstore\n      0x20\n      add\n      swap2\n      pop\n      pop\n      mload(0x40)\n      dup1\n      swap2\n      sub\n      swap1\n      return\n        /* \"SafeMath/ejemplos_uso.sol\":339:434  function resta(uint _a, uint _b) public pure returns(uint) {\r... */\n    tag_8:\n        /* \"SafeMath/ejemplos_uso.sol\":392:396  uint */\n      0x00\n        /* \"SafeMath/ejemplos_uso.sol\":416:426  _a.sub(_b) */\n      tag_16\n        /* \"SafeMath/ejemplos_uso.sol\":423:425  _b */\n      dup3\n        /* \"SafeMath/ejemplos_uso.sol\":416:418  _a */\n      dup5\n        /* \"SafeMath/ejemplos_uso.sol\":416:422  _a.sub */\n      tag_17\n      swap1\n        /* \"SafeMath/ejemplos_uso.sol\":416:426  _a.sub(_b) */\n      swap2\n      swap1\n      0xffffffff\n      and\n      jump\t// in\n    tag_16:\n        /* \"SafeMath/ejemplos_uso.sol\":409:426  return _a.sub(_b) */\n      swap1\n      pop\n        /* \"SafeMath/ejemplos_uso.sol\":339:434  function resta(uint _a, uint _b) public pure returns(uint) {\r... */\n      swap3\n      swap2\n      pop\n      pop\n      jump\t// out\n        /* \"SafeMath/ejemplos_uso.sol\":215:309  function suma(uint _a, uint _b) public pure returns(uint) {\r... */\n    tag_11:\n        /* \"SafeMath/ejemplos_uso.sol\":267:271  uint */\n      0x00\n        /* \"SafeMath/ejemplos_uso.sol\":291:301  _a.add(_b) */\n      tag_19\n        /* \"SafeMath/ejemplos_uso.sol\":298:300  _b */\n      dup3\n        /* \"SafeMath/ejemplos_uso.sol\":291:293  _a */\n      dup5\n        /* \"SafeMath/ejemplos_uso.sol\":291:297  _a.add */\n      tag_20\n      swap1\n        /* \"SafeMath/ejemplos_uso.sol\":291:301  _a.add(_b) */\n      swap2\n      swap1\n      0xffffffff\n      and\n      jump\t// in\n    tag_19:\n        /* \"SafeMath/ejemplos_uso.sol\":284:301  return _a.add(_b) */\n      swap1\n      pop\n        /* \"SafeMath/ejemplos_uso.sol\":215:309  function suma(uint _a, uint _b) public pure returns(uint) {\r... */\n      swap3\n      swap2\n      pop\n      pop\n      jump\t// out\n        /* \"SafeMath/ejemplos_uso.sol\":473:577  function multiplicacion(uint _a, uint _b) public pure returns(uint) {\r... */\n    tag_14:\n        /* \"SafeMath/ejemplos_uso.sol\":535:539  uint */\n      0x00\n        /* \"SafeMath/ejemplos_uso.sol\":559:569  _a.mul(_b) */\n      tag_22\n        /* \"SafeMath/ejemplos_uso.sol\":566:568  _b */\n      dup3\n        /* \"SafeMath/ejemplos_uso.sol\":559:561  _a */\n      dup5\n        /* \"SafeMath/ejemplos_uso.sol\":559:565  _a.mul */\n      tag_23\n      swap1\n        /* \"SafeMath/ejemplos_uso.sol\":559:569  _a.mul(_b) */\n      swap2\n      swap1\n      0xffffffff\n      and\n      jump\t// in\n    tag_22:\n        /* \"SafeMath/ejemplos_uso.sol\":552:569  return _a.mul(_b) */\n      swap1\n      pop\n        /* \"SafeMath/ejemplos_uso.sol\":473:577  function multiplicacion(uint _a, uint _b) public pure returns(uint) {\r... */\n      swap3\n      swap2\n      pop\n      pop\n      jump\t// out\n        /* \"SafeMath/SafeMath_comentada.sol\":412:528  function sub(uint256 a, uint256 b) internal pure returns (uint256) {... */\n    tag_17:\n        /* \"SafeMath/SafeMath_comentada.sol\":470:477  uint256 */\n      0x00\n        /* \"SafeMath/SafeMath_comentada.sol\":499:500  a */\n      dup3\n        /* \"SafeMath/SafeMath_comentada.sol\":494:495  b */\n      dup3\n        /* \"SafeMath/SafeMath_comentada.sol\":494:500  b <= a */\n      gt\n      iszero\n        /* \"SafeMath/SafeMath_comentada.sol\":487:501  assert(b <= a) */\n      tag_25\n      jumpi\n      invalid\n    tag_25:\n        /* \"SafeMath/SafeMath_comentada.sol\":520:521  b */\n      dup2\n        /* \"SafeMath/SafeMath_comentada.sol\":516:517  a */\n      dup4\n        /* \"SafeMath/SafeMath_comentada.sol\":516:521  a - b */\n      sub\n        /* \"SafeMath/SafeMath_comentada.sol\":509:521  return a - b */\n      swap1\n      pop\n        /* \"SafeMath/SafeMath_comentada.sol\":412:528  function sub(uint256 a, uint256 b) internal pure returns (uint256) {... */\n      swap3\n      swap2\n      pop\n      pop\n      jump\t// out\n        /* \"SafeMath/SafeMath_comentada.sol\":551:688  function add(uint256 a, uint256 b) internal pure returns (uint256) {... */\n    tag_20:\n        /* \"SafeMath/SafeMath_comentada.sol\":609:616  uint256 */\n      0x00\n        /* \"SafeMath/SafeMath_comentada.sol\":626:635  uint256 c */\n      dup1\n        /* \"SafeMath/SafeMath_comentada.sol\":642:643  b */\n      dup3\n        /* \"SafeMath/SafeMath_comentada.sol\":638:639  a */\n      dup5\n        /* \"SafeMath/SafeMath_comentada.sol\":638:643  a + b */\n      add\n        /* \"SafeMath/SafeMath_comentada.sol\":626:643  uint256 c = a + b */\n      swap1\n      pop\n        /* \"SafeMath/SafeMath_comentada.sol\":663:664  a */\n      dup4\n        /* \"SafeMath/SafeMath_comentada.sol\":658:659  c */\n      dup2\n        /* \"SafeMath/SafeMath_comentada.sol\":658:664  c >= a */\n      lt\n      iszero\n        /* \"SafeMath/SafeMath_comentada.sol\":651:665  assert(c >= a) */\n      tag_27\n      jumpi\n      invalid\n    tag_27:\n        /* \"SafeMath/SafeMath_comentada.sol\":680:681  c */\n      dup1\n        /* \"SafeMath/SafeMath_comentada.sol\":673:681  return c */\n      swap2\n      pop\n      pop\n        /* \"SafeMath/SafeMath_comentada.sol\":551:688  function add(uint256 a, uint256 b) internal pure returns (uint256) {... */\n      swap3\n      swap2\n      pop\n      pop\n      jump\t// out\n        /* \"SafeMath/SafeMath_comentada.sol\":720:961  function mul(uint256 a, uint256 b) internal pure returns (uint256) {... */\n    tag_23:\n        /* \"SafeMath/SafeMath_comentada.sol\":778:785  uint256 */\n      0x00\n        /* \"SafeMath/SafeMath_comentada.sol\":806:807  0 */\n      dup1\n        /* \"SafeMath/SafeMath_comentada.sol\":801:802  a */\n      dup4\n        /* \"SafeMath/SafeMath_comentada.sol\":801:807  a == 0 */\n      eq\n        /* \"SafeMath/SafeMath_comentada.sol\":797:842  if (a == 0) {... */\n      iszero\n      tag_29\n      jumpi\n        /* \"SafeMath/SafeMath_comentada.sol\":830:831  0 */\n      0x00\n        /* \"SafeMath/SafeMath_comentada.sol\":823:831  return 0 */\n      swap1\n      pop\n      jump(tag_28)\n        /* \"SafeMath/SafeMath_comentada.sol\":797:842  if (a == 0) {... */\n    tag_29:\n        /* \"SafeMath/SafeMath_comentada.sol\":852:861  uint256 c */\n      0x00\n        /* \"SafeMath/SafeMath_comentada.sol\":868:869  b */\n      dup3\n        /* \"SafeMath/SafeMath_comentada.sol\":864:865  a */\n      dup5\n        /* \"SafeMath/SafeMath_comentada.sol\":864:869  a * b */\n      mul\n        /* \"SafeMath/SafeMath_comentada.sol\":852:869  uint256 c = a * b */\n      swap1\n      pop\n        /* \"SafeMath/SafeMath_comentada.sol\":896:897  b */\n      dup3\n        /* \"SafeMath/SafeMath_comentada.sol\":891:892  a */\n      dup5\n        /* \"SafeMath/SafeMath_comentada.sol\":887:888  c */\n      dup3\n        /* \"SafeMath/SafeMath_comentada.sol\":887:892  c / a */\n      dup2\n      tag_30\n      jumpi\n      invalid\n    tag_30:\n      div\n        /* \"SafeMath/SafeMath_comentada.sol\":887:897  c / a == b */\n      eq\n        /* \"SafeMath/SafeMath_comentada.sol\":879:935  require(c / a == b, \"SafeMath: multiplication overflow\") */\n      tag_31\n      jumpi\n      mload(0x40)\n      0x08c379a000000000000000000000000000000000000000000000000000000000\n      dup2\n      mstore\n      0x04\n      add\n      dup1\n      dup1\n      0x20\n      add\n      dup3\n      dup2\n      sub\n      dup3\n      mstore\n      0x21\n      dup2\n      mstore\n      0x20\n      add\n      dup1\n      data_9113bb53c2876a3805b2c9242029423fc540a728243ce887ab24c82cf119fba3\n      0x21\n      swap2\n      codecopy\n      0x40\n      add\n      swap2\n      pop\n      pop\n      mload(0x40)\n      dup1\n      swap2\n      sub\n      swap1\n      revert\n    tag_31:\n        /* \"SafeMath/SafeMath_comentada.sol\":953:954  c */\n      dup1\n        /* \"SafeMath/SafeMath_comentada.sol\":946:954  return c */\n      swap2\n      pop\n      pop\n        /* \"SafeMath/SafeMath_comentada.sol\":720:961  function mul(uint256 a, uint256 b) internal pure returns (uint256) {... */\n    tag_28:\n      swap3\n      swap2\n      pop\n      pop\n      jump\t// out\n    stop\n    data_9113bb53c2876a3805b2c9242029423fc540a728243ce887ab24c82cf119fba3 536166654d6174683a206d756c7469706c69636174696f6e206f766572666c6f77\n\n    auxdata: 0xa26469706673582212208373f1a8d9d5921bae47fbdc2e8a39933a3d9dabf8da8ae8995a9c699b02210e64736f6c63430006000033\n}\n",
				"bytecode": {
					"linkReferences": {},
					"object": "608060405234801561001057600080fd5b50610291806100206000396000f3fe608060405234801561001057600080fd5b50600436106100415760003560e01c806352f294bc14610046578063b1b45b1b14610092578063d17fb9ea146100de575b600080fd5b61007c6004803603604081101561005c57600080fd5b81019080803590602001909291908035906020019092919050505061012a565b6040518082815260200191505060405180910390f35b6100c8600480360360408110156100a857600080fd5b810190808035906020019092919080359060200190929190505050610147565b6040518082815260200191505060405180910390f35b610114600480360360408110156100f457600080fd5b810190808035906020019092919080359060200190929190505050610164565b6040518082815260200191505060405180910390f35b600061013f828461018190919063ffffffff16565b905092915050565b600061015c828461019890919063ffffffff16565b905092915050565b600061017982846101b490919063ffffffff16565b905092915050565b60008282111561018d57fe5b818303905092915050565b6000808284019050838110156101aa57fe5b8091505092915050565b6000808314156101c75760009050610234565b60008284029050828482816101d857fe5b041461022f576040517f08c379a000000000000000000000000000000000000000000000000000000000815260040180806020018281038252602181526020018061023b6021913960400191505060405180910390fd5b809150505b9291505056fe536166654d6174683a206d756c7469706c69636174696f6e206f766572666c6f77a26469706673582212208373f1a8d9d5921bae47fbdc2e8a39933a3d9dabf8da8ae8995a9c699b02210e64736f6c63430006000033",
					"opcodes": "PUSH1 0x80 PUSH1 0x40 MSTORE CALLVALUE DUP1 ISZERO PUSH2 0x10 JUMPI PUSH1 0x0 DUP1 REVERT JUMPDEST POP PUSH2 0x291 DUP1 PUSH2 0x20 PUSH1 0x0 CODECOPY PUSH1 0x0 RETURN INVALID PUSH1 0x80 PUSH1 0x40 MSTORE CALLVALUE DUP1 ISZERO PUSH2 0x10 JUMPI PUSH1 0x0 DUP1 REVERT JUMPDEST POP PUSH1 0x4 CALLDATASIZE LT PUSH2 0x41 JUMPI PUSH1 0x0 CALLDATALOAD PUSH1 0xE0 SHR DUP1 PUSH4 0x52F294BC EQ PUSH2 0x46 JUMPI DUP1 PUSH4 0xB1B45B1B EQ PUSH2 0x92 JUMPI DUP1 PUSH4 0xD17FB9EA EQ PUSH2 0xDE JUMPI JUMPDEST PUSH1 0x0 DUP1 REVERT JUMPDEST PUSH2 0x7C PUSH1 0x4 DUP1 CALLDATASIZE SUB PUSH1 0x40 DUP2 LT ISZERO PUSH2 0x5C JUMPI PUSH1 0x0 DUP1 REVERT JUMPDEST DUP2 ADD SWAP1 DUP1 DUP1 CALLDATALOAD SWAP1 PUSH1 0x20 ADD SWAP1 SWAP3 SWAP2 SWAP1 DUP1 CALLDATALOAD SWAP1 PUSH1 0x20 ADD SWAP1 SWAP3 SWAP2 SWAP1 POP POP POP PUSH2 0x12A JUMP JUMPDEST PUSH1 0x40 MLOAD DUP1 DUP3 DUP2 MSTORE PUSH1 0x20 ADD SWAP2 POP POP PUSH1 0x40 MLOAD DUP1 SWAP2 SUB SWAP1 RETURN JUMPDEST PUSH2 0xC8 PUSH1 0x4 DUP1 CALLDATASIZE SUB PUSH1 0x40 DUP2 LT ISZERO PUSH2 0xA8 JUMPI PUSH1 0x0 DUP1 REVERT JUMPDEST DUP2 ADD SWAP1 DUP1 DUP1 CALLDATALOAD SWAP1 PUSH1 0x20 ADD SWAP1 SWAP3 SWAP2 SWAP1 DUP1 CALLDATALOAD SWAP1 PUSH1 0x20 ADD SWAP1 SWAP3 SWAP2 SWAP1 POP POP POP PUSH2 0x147 JUMP JUMPDEST PUSH1 0x40 MLOAD DUP1 DUP3 DUP2 MSTORE PUSH1 0x20 ADD SWAP2 POP POP PUSH1 0x40 MLOAD DUP1 SWAP2 SUB SWAP1 RETURN JUMPDEST PUSH2 0x114 PUSH1 0x4 DUP1 CALLDATASIZE SUB PUSH1 0x40 DUP2 LT ISZERO PUSH2 0xF4 JUMPI PUSH1 0x0 DUP1 REVERT JUMPDEST DUP2 ADD SWAP1 DUP1 DUP1 CALLDATALOAD SWAP1 PUSH1 0x20 ADD SWAP1 SWAP3 SWAP2 SWAP1 DUP1 CALLDATALOAD SWAP1 PUSH1 0x20 ADD SWAP1 SWAP3 SWAP2 SWAP1 POP POP POP PUSH2 0x164 JUMP JUMPDEST PUSH1 0x40 MLOAD DUP1 DUP3 DUP2 MSTORE PUSH1 0x20 ADD SWAP2 POP POP PUSH1 0x40 MLOAD DUP1 SWAP2 SUB SWAP1 RETURN JUMPDEST PUSH1 0x0 PUSH2 0x13F DUP3 DUP5 PUSH2 0x181 SWAP1 SWAP2 SWAP1 PUSH4 0xFFFFFFFF AND JUMP JUMPDEST SWAP1 POP SWAP3 SWAP2 POP POP JUMP JUMPDEST PUSH1 0x0 PUSH2 0x15C DUP3 DUP5 PUSH2 0x198 SWAP1 SWAP2 SWAP1 PUSH4 0xFFFFFFFF AND JUMP JUMPDEST SWAP1 POP SWAP3 SWAP2 POP POP JUMP JUMPDEST PUSH1 0x0 PUSH2 0x179 DUP3 DUP5 PUSH2 0x1B4 SWAP1 SWAP2 SWAP1 PUSH4 0xFFFFFFFF AND JUMP JUMPDEST SWAP1 POP SWAP3 SWAP2 POP POP JUMP JUMPDEST PUSH1 0x0 DUP3 DUP3 GT ISZERO PUSH2 0x18D JUMPI INVALID JUMPDEST DUP2 DUP4 SUB SWAP1 POP SWAP3 SWAP2 POP POP JUMP JUMPDEST PUSH1 0x0 DUP1 DUP3 DUP5 ADD SWAP1 POP DUP4 DUP2 LT ISZERO PUSH2 0x1AA JUMPI INVALID JUMPDEST DUP1 SWAP2 POP POP SWAP3 SWAP2 POP POP JUMP JUMPDEST PUSH1 0x0 DUP1 DUP4 EQ ISZERO PUSH2 0x1C7 JUMPI PUSH1 0x0 SWAP1 POP PUSH2 0x234 JUMP JUMPDEST PUSH1 0x0 DUP3 DUP5 MUL SWAP1 POP DUP3 DUP5 DUP3 DUP2 PUSH2 0x1D8 JUMPI INVALID JUMPDEST DIV EQ PUSH2 0x22F JUMPI PUSH1 0x40 MLOAD PUSH32 0x8C379A000000000000000000000000000000000000000000000000000000000 DUP2 MSTORE PUSH1 0x4 ADD DUP1 DUP1 PUSH1 0x20 ADD DUP3 DUP2 SUB DUP3 MSTORE PUSH1 0x21 DUP2 MSTORE PUSH1 0x20 ADD DUP1 PUSH2 0x23B PUSH1 0x21 SWAP2 CODECOPY PUSH1 0x40 ADD SWAP2 POP POP PUSH1 0x40 MLOAD DUP1 SWAP2 SUB SWAP1 REVERT JUMPDEST DUP1 SWAP2 POP POP JUMPDEST SWAP3 SWAP2 POP POP JUMP INVALID MSTORE8 PUSH2 0x6665 0x4D PUSH2 0x7468 GASPRICE KECCAK256 PUSH14 0x756C7469706C69636174696F6E20 PUSH16 0x766572666C6F77A26469706673582212 KECCAK256 DUP4 PUSH20 0xF1A8D9D5921BAE47FBDC2E8A39933A3D9DABF8DA DUP11 0xE8 SWAP10 GAS SWAP13 PUSH10 0x9B02210E64736F6C6343 STOP MOD STOP STOP CALLER "
				},
				"gasEstimates": {
					"creation": {
						"codeDepositCost": "131400",
						"executionCost": "177",
						"totalCost": "131577"
					},
					"external": {
						"multiplicacion(uint256,uint256)": "infinite",
						"resta(uint256,uint256)": "infinite",
						"suma(uint256,uint256)": "infinite"
					}
				},
				"methodIdentifiers": {
					"multiplicacion(uint256,uint256)": "d17fb9ea",
					"resta(uint256,uint256)": "52f294bc",
					"suma(uint256,uint256)": "b1b45b1b"
				}
			},
			"storageLayout": {
				"storage": [],
				"types": null
			},
			"userdoc": {
				"methods": {}
			}
		}
	}
}