{
	"Bloque_2/NOTAS/notas.sol": {
		"notas": {
			"abi": [
				{
					"inputs": [],
					"stateMutability": "nonpayable",
					"type": "constructor"
				},
				{
					"anonymous": false,
					"inputs": [
						{
							"indexed": false,
							"internalType": "bytes32",
							"name": "",
							"type": "bytes32"
						},
						{
							"indexed": false,
							"internalType": "uint256",
							"name": "",
							"type": "uint256"
						}
					],
					"name": "alumno_evaluado",
					"type": "event"
				},
				{
					"anonymous": false,
					"inputs": [
						{
							"indexed": false,
							"internalType": "string",
							"name": "",
							"type": "string"
						}
					],
					"name": "evento_revision",
					"type": "event"
				},
				{
					"inputs": [
						{
							"internalType": "string",
							"name": "_idAlumno",
							"type": "string"
						},
						{
							"internalType": "uint256",
							"name": "_nota",
							"type": "uint256"
						}
					],
					"name": "Evaluar",
					"outputs": [],
					"stateMutability": "nonpayable",
					"type": "function"
				},
				{
					"inputs": [
						{
							"internalType": "string",
							"name": "_idAlumno",
							"type": "string"
						}
					],
					"name": "Revision",
					"outputs": [],
					"stateMutability": "nonpayable",
					"type": "function"
				},
				{
					"inputs": [
						{
							"internalType": "string",
							"name": "_idAlumno",
							"type": "string"
						}
					],
					"name": "VerNotas",
					"outputs": [
						{
							"internalType": "uint256",
							"name": "",
							"type": "uint256"
						}
					],
					"stateMutability": "view",
					"type": "function"
				},
				{
					"inputs": [],
					"name": "VerRevisiones",
					"outputs": [
						{
							"internalType": "string[]",
							"name": "",
							"type": "string[]"
						}
					],
					"stateMutability": "view",
					"type": "function"
				},
				{
					"inputs": [],
					"name": "profesor",
					"outputs": [
						{
							"internalType": "address",
							"name": "",
							"type": "address"
						}
					],
					"stateMutability": "view",
					"type": "function"
				}
			],
			"devdoc": {
				"methods": {}
			},
			"evm": {
				"assembly": "    /* \"Bloque_2/NOTAS/notas.sol\":402:2313  contract notas {\r... */\n  mstore(0x40, 0x80)\n    /* \"Bloque_2/NOTAS/notas.sol\":507:569  constructor () public {\r... */\n  callvalue\n    /* \"--CODEGEN--\":8:17   */\n  dup1\n    /* \"--CODEGEN--\":5:7   */\n  iszero\n  tag_1\n  jumpi\n    /* \"--CODEGEN--\":30:31   */\n  0x00\n    /* \"--CODEGEN--\":27:28   */\n  dup1\n    /* \"--CODEGEN--\":20:32   */\n  revert\n    /* \"--CODEGEN--\":5:7   */\ntag_1:\n    /* \"Bloque_2/NOTAS/notas.sol\":507:569  constructor () public {\r... */\n  pop\n    /* \"Bloque_2/NOTAS/notas.sol\":551:561  msg.sender */\n  caller\n    /* \"Bloque_2/NOTAS/notas.sol\":540:548  profesor */\n  0x00\n  dup1\n    /* \"Bloque_2/NOTAS/notas.sol\":540:561  profesor = msg.sender */\n  0x0100\n  exp\n  dup2\n  sload\n  dup2\n  0xffffffffffffffffffffffffffffffffffffffff\n  mul\n  not\n  and\n  swap1\n  dup4\n  0xffffffffffffffffffffffffffffffffffffffff\n  and\n  mul\n  or\n  swap1\n  sstore\n  pop\n    /* \"Bloque_2/NOTAS/notas.sol\":402:2313  contract notas {\r... */\n  dataSize(sub_0)\n  dup1\n  dataOffset(sub_0)\n  0x00\n  codecopy\n  0x00\n  return\nstop\n\nsub_0: assembly {\n        /* \"Bloque_2/NOTAS/notas.sol\":402:2313  contract notas {\r... */\n      mstore(0x40, 0x80)\n      callvalue\n        /* \"--CODEGEN--\":8:17   */\n      dup1\n        /* \"--CODEGEN--\":5:7   */\n      iszero\n      tag_1\n      jumpi\n        /* \"--CODEGEN--\":30:31   */\n      0x00\n        /* \"--CODEGEN--\":27:28   */\n      dup1\n        /* \"--CODEGEN--\":20:32   */\n      revert\n        /* \"--CODEGEN--\":5:7   */\n    tag_1:\n        /* \"Bloque_2/NOTAS/notas.sol\":402:2313  contract notas {\r... */\n      pop\n      jumpi(tag_2, lt(calldatasize, 0x04))\n      shr(0xe0, calldataload(0x00))\n      dup1\n      0x040d9f60\n      eq\n      tag_3\n      jumpi\n      dup1\n      0x2cd22cd8\n      eq\n      tag_4\n      jumpi\n      dup1\n      0x33731af6\n      eq\n      tag_5\n      jumpi\n      dup1\n      0xdf096576\n      eq\n      tag_6\n      jumpi\n      dup1\n      0xf22044e6\n      eq\n      tag_7\n      jumpi\n    tag_2:\n      0x00\n      dup1\n      revert\n        /* \"Bloque_2/NOTAS/notas.sol\":903:1290  function Evaluar(string memory _idAlumno, uint _nota) public UnicamenteProfesor(msg.sender) {\r... */\n    tag_3:\n      tag_8\n      0x04\n      dup1\n      calldatasize\n      sub\n      tag_9\n      swap2\n      swap1\n      dup2\n      add\n      swap1\n      jump(tag_10)\n    tag_9:\n      tag_11\n      jump\t// in\n    tag_8:\n      stop\n        /* \"Bloque_2/NOTAS/notas.sol\":1876:2089  function Revision(string memory _idAlumno) public {\r... */\n    tag_4:\n      tag_12\n      0x04\n      dup1\n      calldatasize\n      sub\n      tag_13\n      swap2\n      swap1\n      dup2\n      add\n      swap1\n      jump(tag_14)\n    tag_13:\n      tag_15\n      jump\t// in\n    tag_12:\n      stop\n        /* \"Bloque_2/NOTAS/notas.sol\":1584:1832  function VerNotas(string memory _idAlumno) public view returns(uint) {\r... */\n    tag_5:\n      tag_16\n      0x04\n      dup1\n      calldatasize\n      sub\n      tag_17\n      swap2\n      swap1\n      dup2\n      add\n      swap1\n      jump(tag_14)\n    tag_17:\n      tag_18\n      jump\t// in\n    tag_16:\n      mload(0x40)\n      tag_19\n      swap2\n      swap1\n      jump(tag_20)\n    tag_19:\n      mload(0x40)\n      dup1\n      swap2\n      sub\n      swap1\n      return\n        /* \"Bloque_2/NOTAS/notas.sol\":455:478  address public profesor */\n    tag_6:\n      tag_21\n      tag_22\n      jump\t// in\n    tag_21:\n      mload(0x40)\n      tag_23\n      swap2\n      swap1\n      jump(tag_24)\n    tag_23:\n      mload(0x40)\n      dup1\n      swap2\n      sub\n      swap1\n      return\n        /* \"Bloque_2/NOTAS/notas.sol\":2137:2310  function VerRevisiones() public view UnicamenteProfesor(msg.sender) returns(string[] memory) {\r... */\n    tag_7:\n      tag_25\n      tag_26\n      jump\t// in\n    tag_25:\n      mload(0x40)\n      tag_27\n      swap2\n      swap1\n      jump(tag_28)\n    tag_27:\n      mload(0x40)\n      dup1\n      swap2\n      sub\n      swap1\n      return\n        /* \"Bloque_2/NOTAS/notas.sol\":903:1290  function Evaluar(string memory _idAlumno, uint _nota) public UnicamenteProfesor(msg.sender) {\r... */\n    tag_11:\n        /* \"Bloque_2/NOTAS/notas.sol\":983:993  msg.sender */\n      caller\n        /* \"Bloque_2/NOTAS/notas.sol\":1464:1472  profesor */\n      0x00\n      dup1\n      swap1\n      sload\n      swap1\n      0x0100\n      exp\n      swap1\n      div\n      0xffffffffffffffffffffffffffffffffffffffff\n      and\n        /* \"Bloque_2/NOTAS/notas.sol\":1450:1472  _direccion == profesor */\n      0xffffffffffffffffffffffffffffffffffffffff\n      and\n        /* \"Bloque_2/NOTAS/notas.sol\":1450:1460  _direccion */\n      dup2\n        /* \"Bloque_2/NOTAS/notas.sol\":1450:1472  _direccion == profesor */\n      0xffffffffffffffffffffffffffffffffffffffff\n      and\n      eq\n        /* \"Bloque_2/NOTAS/notas.sol\":1442:1521  require(_direccion == profesor, \"No tienes permisos para ejecutar la funcion.\") */\n      tag_30\n      jumpi\n      mload(0x40)\n      0x08c379a000000000000000000000000000000000000000000000000000000000\n      dup2\n      mstore\n      0x04\n      add\n      tag_31\n      swap1\n      jump(tag_32)\n    tag_31:\n      mload(0x40)\n      dup1\n      swap2\n      sub\n      swap1\n      revert\n    tag_30:\n        /* \"Bloque_2/NOTAS/notas.sol\":1041:1062  bytes32 hash_idAlumno */\n      0x00\n        /* \"Bloque_2/NOTAS/notas.sol\":1092:1101  _idAlumno */\n      dup4\n        /* \"Bloque_2/NOTAS/notas.sol\":1075:1102  abi.encodePacked(_idAlumno) */\n      add(0x20, mload(0x40))\n      tag_34\n      swap2\n      swap1\n      jump(tag_35)\n    tag_34:\n      mload(0x40)\n        /* \"--CODEGEN--\":49:53   */\n      0x20\n        /* \"--CODEGEN--\":39:46   */\n      dup2\n        /* \"--CODEGEN--\":30:37   */\n      dup4\n        /* \"--CODEGEN--\":26:47   */\n      sub\n        /* \"--CODEGEN--\":22:54   */\n      sub\n        /* \"--CODEGEN--\":13:20   */\n      dup2\n        /* \"--CODEGEN--\":6:55   */\n      mstore\n        /* \"Bloque_2/NOTAS/notas.sol\":1075:1102  abi.encodePacked(_idAlumno) */\n      swap1\n      0x40\n      mstore\n        /* \"Bloque_2/NOTAS/notas.sol\":1065:1103  keccak256(abi.encodePacked(_idAlumno)) */\n      dup1\n      mload\n      swap1\n      0x20\n      add\n      keccak256\n        /* \"Bloque_2/NOTAS/notas.sol\":1041:1103  bytes32 hash_idAlumno = keccak256(abi.encodePacked(_idAlumno)) */\n      swap1\n      pop\n        /* \"Bloque_2/NOTAS/notas.sol\":1193:1198  _nota */\n      dup3\n        /* \"Bloque_2/NOTAS/notas.sol\":1170:1175  Notas */\n      0x01\n        /* \"Bloque_2/NOTAS/notas.sol\":1170:1190  Notas[hash_idAlumno] */\n      0x00\n        /* \"Bloque_2/NOTAS/notas.sol\":1176:1189  hash_idAlumno */\n      dup4\n        /* \"Bloque_2/NOTAS/notas.sol\":1170:1190  Notas[hash_idAlumno] */\n      dup2\n      mstore\n      0x20\n      add\n      swap1\n      dup2\n      mstore\n      0x20\n      add\n      0x00\n      keccak256\n        /* \"Bloque_2/NOTAS/notas.sol\":1170:1198  Notas[hash_idAlumno] = _nota */\n      dup2\n      swap1\n      sstore\n      pop\n        /* \"Bloque_2/NOTAS/notas.sol\":1245:1282  alumno_evaluado(hash_idAlumno, _nota) */\n      0x1decb51588158e4fd9a593e42935e33c4641f4958a08256e305bf6dec1092d8f\n        /* \"Bloque_2/NOTAS/notas.sol\":1261:1274  hash_idAlumno */\n      dup2\n        /* \"Bloque_2/NOTAS/notas.sol\":1276:1281  _nota */\n      dup5\n        /* \"Bloque_2/NOTAS/notas.sol\":1245:1282  alumno_evaluado(hash_idAlumno, _nota) */\n      mload(0x40)\n      tag_36\n      swap3\n      swap2\n      swap1\n      jump(tag_37)\n    tag_36:\n      mload(0x40)\n      dup1\n      swap2\n      sub\n      swap1\n      log1\n        /* \"Bloque_2/NOTAS/notas.sol\":1532:1533  _ */\n      pop\n        /* \"Bloque_2/NOTAS/notas.sol\":903:1290  function Evaluar(string memory _idAlumno, uint _nota) public UnicamenteProfesor(msg.sender) {\r... */\n      pop\n      pop\n      pop\n      jump\t// out\n        /* \"Bloque_2/NOTAS/notas.sol\":1876:2089  function Revision(string memory _idAlumno) public {\r... */\n    tag_15:\n        /* \"Bloque_2/NOTAS/notas.sol\":1982:1992  revisiones */\n      0x02\n        /* \"Bloque_2/NOTAS/notas.sol\":1998:2007  _idAlumno */\n      dup2\n        /* \"Bloque_2/NOTAS/notas.sol\":1982:2008  revisiones.push(_idAlumno) */\n      swap1\n      dup1\n        /* \"--CODEGEN--\":39:40   */\n      0x01\n        /* \"--CODEGEN--\":33:36   */\n      dup2\n        /* \"--CODEGEN--\":27:37   */\n      sload\n        /* \"--CODEGEN--\":23:41   */\n      add\n        /* \"--CODEGEN--\":57:67   */\n      dup1\n        /* \"--CODEGEN--\":52:55   */\n      dup3\n        /* \"--CODEGEN--\":45:68   */\n      sstore\n        /* \"--CODEGEN--\":79:89   */\n      dup1\n        /* \"--CODEGEN--\":72:89   */\n      swap2\n      pop\n        /* \"--CODEGEN--\":0:93   */\n      pop\n        /* \"Bloque_2/NOTAS/notas.sol\":1982:2008  revisiones.push(_idAlumno) */\n      0x01\n      swap1\n      sub\n      swap1\n      0x00\n      mstore\n      keccak256(0x00, 0x20)\n      add\n      0x00\n      swap1\n      swap2\n      swap1\n      swap2\n      swap1\n      swap2\n      pop\n      swap1\n      dup1\n      mload\n      swap1\n      0x20\n      add\n      swap1\n      tag_40\n      swap3\n      swap2\n      swap1\n      tag_41\n      jump\t// in\n    tag_40:\n      pop\n        /* \"Bloque_2/NOTAS/notas.sol\":2055:2081  evento_revision(_idAlumno) */\n      0xafd73f39162aa4c0421f362f3a3d26f44b23c73253256cfc1c68794b0973e0a0\n        /* \"Bloque_2/NOTAS/notas.sol\":2071:2080  _idAlumno */\n      dup2\n        /* \"Bloque_2/NOTAS/notas.sol\":2055:2081  evento_revision(_idAlumno) */\n      mload(0x40)\n      tag_42\n      swap2\n      swap1\n      jump(tag_43)\n    tag_42:\n      mload(0x40)\n      dup1\n      swap2\n      sub\n      swap1\n      log1\n        /* \"Bloque_2/NOTAS/notas.sol\":1876:2089  function Revision(string memory _idAlumno) public {\r... */\n      pop\n      jump\t// out\n        /* \"Bloque_2/NOTAS/notas.sol\":1584:1832  function VerNotas(string memory _idAlumno) public view returns(uint) {\r... */\n    tag_18:\n        /* \"Bloque_2/NOTAS/notas.sol\":1647:1651  uint */\n      0x00\n        /* \"Bloque_2/NOTAS/notas.sol\":1698:1710  bytes32 hash */\n      dup1\n        /* \"Bloque_2/NOTAS/notas.sol\":1740:1749  _idAlumno */\n      dup3\n        /* \"Bloque_2/NOTAS/notas.sol\":1723:1750  abi.encodePacked(_idAlumno) */\n      add(0x20, mload(0x40))\n      tag_45\n      swap2\n      swap1\n      jump(tag_35)\n    tag_45:\n      mload(0x40)\n        /* \"--CODEGEN--\":49:53   */\n      0x20\n        /* \"--CODEGEN--\":39:46   */\n      dup2\n        /* \"--CODEGEN--\":30:37   */\n      dup4\n        /* \"--CODEGEN--\":26:47   */\n      sub\n        /* \"--CODEGEN--\":22:54   */\n      sub\n        /* \"--CODEGEN--\":13:20   */\n      dup2\n        /* \"--CODEGEN--\":6:55   */\n      mstore\n        /* \"Bloque_2/NOTAS/notas.sol\":1723:1750  abi.encodePacked(_idAlumno) */\n      swap1\n      0x40\n      mstore\n        /* \"Bloque_2/NOTAS/notas.sol\":1713:1751  keccak256(abi.encodePacked(_idAlumno)) */\n      dup1\n      mload\n      swap1\n      0x20\n      add\n      keccak256\n        /* \"Bloque_2/NOTAS/notas.sol\":1698:1751  bytes32 hash = keccak256(abi.encodePacked(_idAlumno)) */\n      swap1\n      pop\n        /* \"Bloque_2/NOTAS/notas.sol\":1813:1818  Notas */\n      0x01\n        /* \"Bloque_2/NOTAS/notas.sol\":1813:1824  Notas[hash] */\n      0x00\n        /* \"Bloque_2/NOTAS/notas.sol\":1819:1823  hash */\n      dup3\n        /* \"Bloque_2/NOTAS/notas.sol\":1813:1824  Notas[hash] */\n      dup2\n      mstore\n      0x20\n      add\n      swap1\n      dup2\n      mstore\n      0x20\n      add\n      0x00\n      keccak256\n      sload\n        /* \"Bloque_2/NOTAS/notas.sol\":1806:1824  return Notas[hash] */\n      swap2\n      pop\n      pop\n        /* \"Bloque_2/NOTAS/notas.sol\":1584:1832  function VerNotas(string memory _idAlumno) public view returns(uint) {\r... */\n      swap2\n      swap1\n      pop\n      jump\t// out\n        /* \"Bloque_2/NOTAS/notas.sol\":455:478  address public profesor */\n    tag_22:\n      0x00\n      dup1\n      swap1\n      sload\n      swap1\n      0x0100\n      exp\n      swap1\n      div\n      0xffffffffffffffffffffffffffffffffffffffff\n      and\n      dup2\n      jump\t// out\n        /* \"Bloque_2/NOTAS/notas.sol\":2137:2310  function VerRevisiones() public view UnicamenteProfesor(msg.sender) returns(string[] memory) {\r... */\n    tag_26:\n        /* \"Bloque_2/NOTAS/notas.sol\":2213:2228  string[] memory */\n      0x60\n        /* \"Bloque_2/NOTAS/notas.sol\":2193:2203  msg.sender */\n      caller\n        /* \"Bloque_2/NOTAS/notas.sol\":1464:1472  profesor */\n      0x00\n      dup1\n      swap1\n      sload\n      swap1\n      0x0100\n      exp\n      swap1\n      div\n      0xffffffffffffffffffffffffffffffffffffffff\n      and\n        /* \"Bloque_2/NOTAS/notas.sol\":1450:1472  _direccion == profesor */\n      0xffffffffffffffffffffffffffffffffffffffff\n      and\n        /* \"Bloque_2/NOTAS/notas.sol\":1450:1460  _direccion */\n      dup2\n        /* \"Bloque_2/NOTAS/notas.sol\":1450:1472  _direccion == profesor */\n      0xffffffffffffffffffffffffffffffffffffffff\n      and\n      eq\n        /* \"Bloque_2/NOTAS/notas.sol\":1442:1521  require(_direccion == profesor, \"No tienes permisos para ejecutar la funcion.\") */\n      tag_47\n      jumpi\n      mload(0x40)\n      0x08c379a000000000000000000000000000000000000000000000000000000000\n      dup2\n      mstore\n      0x04\n      add\n      tag_48\n      swap1\n      jump(tag_32)\n    tag_48:\n      mload(0x40)\n      dup1\n      swap2\n      sub\n      swap1\n      revert\n    tag_47:\n        /* \"Bloque_2/NOTAS/notas.sol\":2292:2302  revisiones */\n      0x02\n        /* \"Bloque_2/NOTAS/notas.sol\":2285:2302  return revisiones */\n      dup1\n      sload\n      dup1\n      0x20\n      mul\n      0x20\n      add\n      mload(0x40)\n      swap1\n      dup2\n      add\n      0x40\n      mstore\n      dup1\n      swap3\n      swap2\n      swap1\n      dup2\n      dup2\n      mstore\n      0x20\n      add\n      0x00\n      swap1\n    tag_50:\n      dup3\n      dup3\n      lt\n      iszero\n      tag_51\n      jumpi\n      dup4\n      dup3\n      swap1\n      0x00\n      mstore\n      keccak256(0x00, 0x20)\n      add\n      dup1\n      sload\n      0x01\n      dup2\n      0x01\n      and\n      iszero\n      0x0100\n      mul\n      sub\n      and\n      0x02\n      swap1\n      div\n      dup1\n      0x1f\n      add\n      0x20\n      dup1\n      swap2\n      div\n      mul\n      0x20\n      add\n      mload(0x40)\n      swap1\n      dup2\n      add\n      0x40\n      mstore\n      dup1\n      swap3\n      swap2\n      swap1\n      dup2\n      dup2\n      mstore\n      0x20\n      add\n      dup3\n      dup1\n      sload\n      0x01\n      dup2\n      0x01\n      and\n      iszero\n      0x0100\n      mul\n      sub\n      and\n      0x02\n      swap1\n      div\n      dup1\n      iszero\n      tag_53\n      jumpi\n      dup1\n      0x1f\n      lt\n      tag_54\n      jumpi\n      0x0100\n      dup1\n      dup4\n      sload\n      div\n      mul\n      dup4\n      mstore\n      swap2\n      0x20\n      add\n      swap2\n      jump(tag_53)\n    tag_54:\n      dup3\n      add\n      swap2\n      swap1\n      0x00\n      mstore\n      keccak256(0x00, 0x20)\n      swap1\n    tag_55:\n      dup2\n      sload\n      dup2\n      mstore\n      swap1\n      0x01\n      add\n      swap1\n      0x20\n      add\n      dup1\n      dup4\n      gt\n      tag_55\n      jumpi\n      dup3\n      swap1\n      sub\n      0x1f\n      and\n      dup3\n      add\n      swap2\n    tag_53:\n      pop\n      pop\n      pop\n      pop\n      pop\n      dup2\n      mstore\n      0x20\n      add\n      swap1\n      0x01\n      add\n      swap1\n      jump(tag_50)\n    tag_51:\n      pop\n      pop\n      pop\n      pop\n      swap2\n      pop\n        /* \"Bloque_2/NOTAS/notas.sol\":2137:2310  function VerRevisiones() public view UnicamenteProfesor(msg.sender) returns(string[] memory) {\r... */\n      pop\n      swap1\n      jump\t// out\n        /* \"Bloque_2/NOTAS/notas.sol\":402:2313  contract notas {\r... */\n    tag_41:\n      dup3\n      dup1\n      sload\n      0x01\n      dup2\n      0x01\n      and\n      iszero\n      0x0100\n      mul\n      sub\n      and\n      0x02\n      swap1\n      div\n      swap1\n      0x00\n      mstore\n      keccak256(0x00, 0x20)\n      swap1\n      0x1f\n      add\n      0x20\n      swap1\n      div\n      dup2\n      add\n      swap3\n      dup3\n      0x1f\n      lt\n      tag_57\n      jumpi\n      dup1\n      mload\n      not(0xff)\n      and\n      dup4\n      dup1\n      add\n      or\n      dup6\n      sstore\n      jump(tag_56)\n    tag_57:\n      dup3\n      dup1\n      add\n      0x01\n      add\n      dup6\n      sstore\n      dup3\n      iszero\n      tag_56\n      jumpi\n      swap2\n      dup3\n      add\n    tag_58:\n      dup3\n      dup2\n      gt\n      iszero\n      tag_59\n      jumpi\n      dup3\n      mload\n      dup3\n      sstore\n      swap2\n      0x20\n      add\n      swap2\n      swap1\n      0x01\n      add\n      swap1\n      jump(tag_58)\n    tag_59:\n    tag_56:\n      pop\n      swap1\n      pop\n      tag_60\n      swap2\n      swap1\n      tag_61\n      jump\t// in\n    tag_60:\n      pop\n      swap1\n      jump\t// out\n    tag_61:\n      tag_62\n      swap2\n      swap1\n    tag_63:\n      dup1\n      dup3\n      gt\n      iszero\n      tag_64\n      jumpi\n      0x00\n      dup2\n      0x00\n      swap1\n      sstore\n      pop\n      0x01\n      add\n      jump(tag_63)\n    tag_64:\n      pop\n      swap1\n      jump\n    tag_62:\n      swap1\n      jump\t// out\n        /* \"--CODEGEN--\":6:448   */\n    tag_66:\n      0x00\n        /* \"--CODEGEN--\":108:111   */\n      dup3\n        /* \"--CODEGEN--\":101:105   */\n      0x1f\n        /* \"--CODEGEN--\":93:99   */\n      dup4\n        /* \"--CODEGEN--\":89:106   */\n      add\n        /* \"--CODEGEN--\":85:112   */\n      slt\n        /* \"--CODEGEN--\":75:77   */\n      tag_68\n      jumpi\n        /* \"--CODEGEN--\":126:127   */\n      0x00\n        /* \"--CODEGEN--\":123:124   */\n      dup1\n        /* \"--CODEGEN--\":116:128   */\n      revert\n        /* \"--CODEGEN--\":75:77   */\n    tag_68:\n        /* \"--CODEGEN--\":163:169   */\n      dup2\n        /* \"--CODEGEN--\":150:170   */\n      calldataload\n        /* \"--CODEGEN--\":185:250   */\n      tag_69\n        /* \"--CODEGEN--\":200:249   */\n      tag_70\n        /* \"--CODEGEN--\":242:248   */\n      dup3\n        /* \"--CODEGEN--\":200:249   */\n      jump(tag_71)\n    tag_70:\n        /* \"--CODEGEN--\":185:250   */\n      jump(tag_72)\n    tag_69:\n        /* \"--CODEGEN--\":176:250   */\n      swap2\n      pop\n        /* \"--CODEGEN--\":270:276   */\n      dup1\n        /* \"--CODEGEN--\":263:268   */\n      dup3\n        /* \"--CODEGEN--\":256:277   */\n      mstore\n        /* \"--CODEGEN--\":306:310   */\n      0x20\n        /* \"--CODEGEN--\":298:304   */\n      dup4\n        /* \"--CODEGEN--\":294:311   */\n      add\n        /* \"--CODEGEN--\":339:343   */\n      0x20\n        /* \"--CODEGEN--\":332:337   */\n      dup4\n        /* \"--CODEGEN--\":328:344   */\n      add\n        /* \"--CODEGEN--\":374:377   */\n      dup6\n        /* \"--CODEGEN--\":365:371   */\n      dup4\n        /* \"--CODEGEN--\":360:363   */\n      dup4\n        /* \"--CODEGEN--\":356:372   */\n      add\n        /* \"--CODEGEN--\":353:378   */\n      gt\n        /* \"--CODEGEN--\":350:352   */\n      iszero\n      tag_73\n      jumpi\n        /* \"--CODEGEN--\":391:392   */\n      0x00\n        /* \"--CODEGEN--\":388:389   */\n      dup1\n        /* \"--CODEGEN--\":381:393   */\n      revert\n        /* \"--CODEGEN--\":350:352   */\n    tag_73:\n        /* \"--CODEGEN--\":401:442   */\n      tag_74\n        /* \"--CODEGEN--\":435:441   */\n      dup4\n        /* \"--CODEGEN--\":430:433   */\n      dup3\n        /* \"--CODEGEN--\":425:428   */\n      dup5\n        /* \"--CODEGEN--\":401:442   */\n      jump(tag_75)\n    tag_74:\n        /* \"--CODEGEN--\":68:448   */\n      pop\n      pop\n      pop\n      swap3\n      swap2\n      pop\n      pop\n      jump\n        /* \"--CODEGEN--\":456:586   */\n    tag_76:\n      0x00\n        /* \"--CODEGEN--\":536:542   */\n      dup2\n        /* \"--CODEGEN--\":523:543   */\n      calldataload\n        /* \"--CODEGEN--\":514:543   */\n      swap1\n      pop\n        /* \"--CODEGEN--\":548:581   */\n      tag_78\n        /* \"--CODEGEN--\":575:580   */\n      dup2\n        /* \"--CODEGEN--\":548:581   */\n      jump(tag_79)\n    tag_78:\n        /* \"--CODEGEN--\":508:586   */\n      swap3\n      swap2\n      pop\n      pop\n      jump\n        /* \"--CODEGEN--\":593:940   */\n    tag_14:\n      0x00\n        /* \"--CODEGEN--\":707:709   */\n      0x20\n        /* \"--CODEGEN--\":695:704   */\n      dup3\n        /* \"--CODEGEN--\":686:693   */\n      dup5\n        /* \"--CODEGEN--\":682:705   */\n      sub\n        /* \"--CODEGEN--\":678:710   */\n      slt\n        /* \"--CODEGEN--\":675:677   */\n      iszero\n      tag_81\n      jumpi\n        /* \"--CODEGEN--\":723:724   */\n      0x00\n        /* \"--CODEGEN--\":720:721   */\n      dup1\n        /* \"--CODEGEN--\":713:725   */\n      revert\n        /* \"--CODEGEN--\":675:677   */\n    tag_81:\n        /* \"--CODEGEN--\":786:787   */\n      0x00\n        /* \"--CODEGEN--\":775:784   */\n      dup3\n        /* \"--CODEGEN--\":771:788   */\n      add\n        /* \"--CODEGEN--\":758:789   */\n      calldataload\n        /* \"--CODEGEN--\":809:827   */\n      0xffffffffffffffff\n        /* \"--CODEGEN--\":801:807   */\n      dup2\n        /* \"--CODEGEN--\":798:828   */\n      gt\n        /* \"--CODEGEN--\":795:797   */\n      iszero\n      tag_82\n      jumpi\n        /* \"--CODEGEN--\":841:842   */\n      0x00\n        /* \"--CODEGEN--\":838:839   */\n      dup1\n        /* \"--CODEGEN--\":831:843   */\n      revert\n        /* \"--CODEGEN--\":795:797   */\n    tag_82:\n        /* \"--CODEGEN--\":861:924   */\n      tag_83\n        /* \"--CODEGEN--\":916:923   */\n      dup5\n        /* \"--CODEGEN--\":907:913   */\n      dup3\n        /* \"--CODEGEN--\":896:905   */\n      dup6\n        /* \"--CODEGEN--\":892:914   */\n      add\n        /* \"--CODEGEN--\":861:924   */\n      jump(tag_66)\n    tag_83:\n        /* \"--CODEGEN--\":851:924   */\n      swap2\n      pop\n        /* \"--CODEGEN--\":737:930   */\n      pop\n        /* \"--CODEGEN--\":669:940   */\n      swap3\n      swap2\n      pop\n      pop\n      jump\n        /* \"--CODEGEN--\":947:1419   */\n    tag_10:\n      0x00\n      dup1\n        /* \"--CODEGEN--\":1078:1080   */\n      0x40\n        /* \"--CODEGEN--\":1066:1075   */\n      dup4\n        /* \"--CODEGEN--\":1057:1064   */\n      dup6\n        /* \"--CODEGEN--\":1053:1076   */\n      sub\n        /* \"--CODEGEN--\":1049:1081   */\n      slt\n        /* \"--CODEGEN--\":1046:1048   */\n      iszero\n      tag_85\n      jumpi\n        /* \"--CODEGEN--\":1094:1095   */\n      0x00\n        /* \"--CODEGEN--\":1091:1092   */\n      dup1\n        /* \"--CODEGEN--\":1084:1096   */\n      revert\n        /* \"--CODEGEN--\":1046:1048   */\n    tag_85:\n        /* \"--CODEGEN--\":1157:1158   */\n      0x00\n        /* \"--CODEGEN--\":1146:1155   */\n      dup4\n        /* \"--CODEGEN--\":1142:1159   */\n      add\n        /* \"--CODEGEN--\":1129:1160   */\n      calldataload\n        /* \"--CODEGEN--\":1180:1198   */\n      0xffffffffffffffff\n        /* \"--CODEGEN--\":1172:1178   */\n      dup2\n        /* \"--CODEGEN--\":1169:1199   */\n      gt\n        /* \"--CODEGEN--\":1166:1168   */\n      iszero\n      tag_86\n      jumpi\n        /* \"--CODEGEN--\":1212:1213   */\n      0x00\n        /* \"--CODEGEN--\":1209:1210   */\n      dup1\n        /* \"--CODEGEN--\":1202:1214   */\n      revert\n        /* \"--CODEGEN--\":1166:1168   */\n    tag_86:\n        /* \"--CODEGEN--\":1232:1295   */\n      tag_87\n        /* \"--CODEGEN--\":1287:1294   */\n      dup6\n        /* \"--CODEGEN--\":1278:1284   */\n      dup3\n        /* \"--CODEGEN--\":1267:1276   */\n      dup7\n        /* \"--CODEGEN--\":1263:1285   */\n      add\n        /* \"--CODEGEN--\":1232:1295   */\n      jump(tag_66)\n    tag_87:\n        /* \"--CODEGEN--\":1222:1295   */\n      swap3\n      pop\n        /* \"--CODEGEN--\":1108:1301   */\n      pop\n        /* \"--CODEGEN--\":1332:1334   */\n      0x20\n        /* \"--CODEGEN--\":1350:1403   */\n      tag_88\n        /* \"--CODEGEN--\":1395:1402   */\n      dup6\n        /* \"--CODEGEN--\":1386:1392   */\n      dup3\n        /* \"--CODEGEN--\":1375:1384   */\n      dup7\n        /* \"--CODEGEN--\":1371:1393   */\n      add\n        /* \"--CODEGEN--\":1350:1403   */\n      jump(tag_76)\n    tag_88:\n        /* \"--CODEGEN--\":1340:1403   */\n      swap2\n      pop\n        /* \"--CODEGEN--\":1311:1409   */\n      pop\n        /* \"--CODEGEN--\":1040:1419   */\n      swap3\n      pop\n      swap3\n      swap1\n      pop\n      jump\n        /* \"--CODEGEN--\":1427:1608   */\n    tag_89:\n      0x00\n        /* \"--CODEGEN--\":1540:1602   */\n      tag_91\n        /* \"--CODEGEN--\":1598:1601   */\n      dup4\n        /* \"--CODEGEN--\":1590:1596   */\n      dup4\n        /* \"--CODEGEN--\":1540:1602   */\n      jump(tag_92)\n    tag_91:\n        /* \"--CODEGEN--\":1526:1602   */\n      swap1\n      pop\n        /* \"--CODEGEN--\":1519:1608   */\n      swap3\n      swap2\n      pop\n      pop\n      jump\n        /* \"--CODEGEN--\":1616:1729   */\n    tag_93:\n        /* \"--CODEGEN--\":1699:1723   */\n      tag_95\n        /* \"--CODEGEN--\":1717:1722   */\n      dup2\n        /* \"--CODEGEN--\":1699:1723   */\n      jump(tag_96)\n    tag_95:\n        /* \"--CODEGEN--\":1694:1697   */\n      dup3\n        /* \"--CODEGEN--\":1687:1724   */\n      mstore\n        /* \"--CODEGEN--\":1681:1729   */\n      pop\n      pop\n      jump\n        /* \"--CODEGEN--\":1765:2661   */\n    tag_97:\n      0x00\n        /* \"--CODEGEN--\":1922:1982   */\n      tag_99\n        /* \"--CODEGEN--\":1976:1981   */\n      dup3\n        /* \"--CODEGEN--\":1922:1982   */\n      jump(tag_100)\n    tag_99:\n        /* \"--CODEGEN--\":1995:2087   */\n      tag_101\n        /* \"--CODEGEN--\":2080:2086   */\n      dup2\n        /* \"--CODEGEN--\":2075:2078   */\n      dup6\n        /* \"--CODEGEN--\":1995:2087   */\n      jump(tag_102)\n    tag_101:\n        /* \"--CODEGEN--\":1988:2087   */\n      swap4\n      pop\n        /* \"--CODEGEN--\":2110:2113   */\n      dup4\n        /* \"--CODEGEN--\":2152:2156   */\n      0x20\n        /* \"--CODEGEN--\":2144:2150   */\n      dup3\n        /* \"--CODEGEN--\":2140:2157   */\n      mul\n        /* \"--CODEGEN--\":2135:2138   */\n      dup6\n        /* \"--CODEGEN--\":2131:2158   */\n      add\n        /* \"--CODEGEN--\":2179:2241   */\n      tag_103\n        /* \"--CODEGEN--\":2235:2240   */\n      dup6\n        /* \"--CODEGEN--\":2179:2241   */\n      jump(tag_104)\n    tag_103:\n        /* \"--CODEGEN--\":2261:2268   */\n      dup1\n        /* \"--CODEGEN--\":2289:2290   */\n      0x00\n        /* \"--CODEGEN--\":2274:2622   */\n    tag_105:\n        /* \"--CODEGEN--\":2299:2305   */\n      dup6\n        /* \"--CODEGEN--\":2296:2297   */\n      dup2\n        /* \"--CODEGEN--\":2293:2306   */\n      lt\n        /* \"--CODEGEN--\":2274:2622   */\n      iszero\n      tag_107\n      jumpi\n        /* \"--CODEGEN--\":2361:2370   */\n      dup5\n        /* \"--CODEGEN--\":2355:2359   */\n      dup5\n        /* \"--CODEGEN--\":2351:2371   */\n      sub\n        /* \"--CODEGEN--\":2346:2349   */\n      dup10\n        /* \"--CODEGEN--\":2339:2372   */\n      mstore\n        /* \"--CODEGEN--\":2406:2412   */\n      dup2\n        /* \"--CODEGEN--\":2400:2413   */\n      mload\n        /* \"--CODEGEN--\":2428:2504   */\n      tag_108\n        /* \"--CODEGEN--\":2499:2503   */\n      dup6\n        /* \"--CODEGEN--\":2484:2497   */\n      dup3\n        /* \"--CODEGEN--\":2428:2504   */\n      jump(tag_89)\n    tag_108:\n        /* \"--CODEGEN--\":2420:2504   */\n      swap5\n      pop\n        /* \"--CODEGEN--\":2521:2587   */\n      tag_109\n        /* \"--CODEGEN--\":2580:2586   */\n      dup4\n        /* \"--CODEGEN--\":2521:2587   */\n      jump(tag_110)\n    tag_109:\n        /* \"--CODEGEN--\":2511:2587   */\n      swap3\n      pop\n        /* \"--CODEGEN--\":2610:2614   */\n      0x20\n        /* \"--CODEGEN--\":2605:2608   */\n      dup11\n        /* \"--CODEGEN--\":2601:2615   */\n      add\n        /* \"--CODEGEN--\":2594:2615   */\n      swap10\n      pop\n        /* \"--CODEGEN--\":2331:2622   */\n      pop\n        /* \"--CODEGEN--\":2321:2322   */\n      0x01\n        /* \"--CODEGEN--\":2318:2319   */\n      dup2\n        /* \"--CODEGEN--\":2314:2323   */\n      add\n        /* \"--CODEGEN--\":2309:2323   */\n      swap1\n      pop\n        /* \"--CODEGEN--\":2274:2622   */\n      jump(tag_105)\n    tag_107:\n        /* \"--CODEGEN--\":2278:2292   */\n      pop\n        /* \"--CODEGEN--\":2635:2639   */\n      dup3\n        /* \"--CODEGEN--\":2628:2639   */\n      swap8\n      pop\n        /* \"--CODEGEN--\":2652:2655   */\n      dup8\n        /* \"--CODEGEN--\":2645:2655   */\n      swap6\n      pop\n        /* \"--CODEGEN--\":1901:2661   */\n      pop\n      pop\n      pop\n      pop\n      pop\n      swap3\n      swap2\n      pop\n      pop\n      jump\n        /* \"--CODEGEN--\":2669:2782   */\n    tag_111:\n        /* \"--CODEGEN--\":2752:2776   */\n      tag_113\n        /* \"--CODEGEN--\":2770:2775   */\n      dup2\n        /* \"--CODEGEN--\":2752:2776   */\n      jump(tag_114)\n    tag_113:\n        /* \"--CODEGEN--\":2747:2750   */\n      dup3\n        /* \"--CODEGEN--\":2740:2777   */\n      mstore\n        /* \"--CODEGEN--\":2734:2782   */\n      pop\n      pop\n      jump\n        /* \"--CODEGEN--\":2789:3136   */\n    tag_115:\n      0x00\n        /* \"--CODEGEN--\":2901:2940   */\n      tag_117\n        /* \"--CODEGEN--\":2934:2939   */\n      dup3\n        /* \"--CODEGEN--\":2901:2940   */\n      jump(tag_118)\n    tag_117:\n        /* \"--CODEGEN--\":2952:3023   */\n      tag_119\n        /* \"--CODEGEN--\":3016:3022   */\n      dup2\n        /* \"--CODEGEN--\":3011:3014   */\n      dup6\n        /* \"--CODEGEN--\":2952:3023   */\n      jump(tag_120)\n    tag_119:\n        /* \"--CODEGEN--\":2945:3023   */\n      swap4\n      pop\n        /* \"--CODEGEN--\":3028:3080   */\n      tag_121\n        /* \"--CODEGEN--\":3073:3079   */\n      dup2\n        /* \"--CODEGEN--\":3068:3071   */\n      dup6\n        /* \"--CODEGEN--\":3061:3065   */\n      0x20\n        /* \"--CODEGEN--\":3054:3059   */\n      dup7\n        /* \"--CODEGEN--\":3050:3066   */\n      add\n        /* \"--CODEGEN--\":3028:3080   */\n      jump(tag_122)\n    tag_121:\n        /* \"--CODEGEN--\":3101:3130   */\n      tag_123\n        /* \"--CODEGEN--\":3123:3129   */\n      dup2\n        /* \"--CODEGEN--\":3101:3130   */\n      jump(tag_124)\n    tag_123:\n        /* \"--CODEGEN--\":3096:3099   */\n      dup5\n        /* \"--CODEGEN--\":3092:3131   */\n      add\n        /* \"--CODEGEN--\":3085:3131   */\n      swap2\n      pop\n        /* \"--CODEGEN--\":2881:3136   */\n      pop\n      swap3\n      swap2\n      pop\n      pop\n      jump\n        /* \"--CODEGEN--\":3143:3503   */\n    tag_125:\n      0x00\n        /* \"--CODEGEN--\":3273:3312   */\n      tag_127\n        /* \"--CODEGEN--\":3306:3311   */\n      dup3\n        /* \"--CODEGEN--\":3273:3312   */\n      jump(tag_118)\n    tag_127:\n        /* \"--CODEGEN--\":3324:3413   */\n      tag_128\n        /* \"--CODEGEN--\":3406:3412   */\n      dup2\n        /* \"--CODEGEN--\":3401:3404   */\n      dup6\n        /* \"--CODEGEN--\":3324:3413   */\n      jump(tag_129)\n    tag_128:\n        /* \"--CODEGEN--\":3317:3413   */\n      swap4\n      pop\n        /* \"--CODEGEN--\":3418:3470   */\n      tag_130\n        /* \"--CODEGEN--\":3463:3469   */\n      dup2\n        /* \"--CODEGEN--\":3458:3461   */\n      dup6\n        /* \"--CODEGEN--\":3451:3455   */\n      0x20\n        /* \"--CODEGEN--\":3444:3449   */\n      dup7\n        /* \"--CODEGEN--\":3440:3456   */\n      add\n        /* \"--CODEGEN--\":3418:3470   */\n      jump(tag_122)\n    tag_130:\n        /* \"--CODEGEN--\":3491:3497   */\n      dup1\n        /* \"--CODEGEN--\":3486:3489   */\n      dup5\n        /* \"--CODEGEN--\":3482:3498   */\n      add\n        /* \"--CODEGEN--\":3475:3498   */\n      swap2\n      pop\n        /* \"--CODEGEN--\":3253:3503   */\n      pop\n      swap3\n      swap2\n      pop\n      pop\n      jump\n        /* \"--CODEGEN--\":3510:3829   */\n    tag_92:\n      0x00\n        /* \"--CODEGEN--\":3608:3643   */\n      tag_132\n        /* \"--CODEGEN--\":3637:3642   */\n      dup3\n        /* \"--CODEGEN--\":3608:3643   */\n      jump(tag_133)\n    tag_132:\n        /* \"--CODEGEN--\":3655:3716   */\n      tag_134\n        /* \"--CODEGEN--\":3709:3715   */\n      dup2\n        /* \"--CODEGEN--\":3704:3707   */\n      dup6\n        /* \"--CODEGEN--\":3655:3716   */\n      jump(tag_135)\n    tag_134:\n        /* \"--CODEGEN--\":3648:3716   */\n      swap4\n      pop\n        /* \"--CODEGEN--\":3721:3773   */\n      tag_136\n        /* \"--CODEGEN--\":3766:3772   */\n      dup2\n        /* \"--CODEGEN--\":3761:3764   */\n      dup6\n        /* \"--CODEGEN--\":3754:3758   */\n      0x20\n        /* \"--CODEGEN--\":3747:3752   */\n      dup7\n        /* \"--CODEGEN--\":3743:3759   */\n      add\n        /* \"--CODEGEN--\":3721:3773   */\n      jump(tag_122)\n    tag_136:\n        /* \"--CODEGEN--\":3794:3823   */\n      tag_137\n        /* \"--CODEGEN--\":3816:3822   */\n      dup2\n        /* \"--CODEGEN--\":3794:3823   */\n      jump(tag_124)\n    tag_137:\n        /* \"--CODEGEN--\":3789:3792   */\n      dup5\n        /* \"--CODEGEN--\":3785:3824   */\n      add\n        /* \"--CODEGEN--\":3778:3824   */\n      swap2\n      pop\n        /* \"--CODEGEN--\":3588:3829   */\n      pop\n      swap3\n      swap2\n      pop\n      pop\n      jump\n        /* \"--CODEGEN--\":3837:4218   */\n    tag_138:\n      0x00\n        /* \"--CODEGEN--\":3997:4064   */\n      tag_140\n        /* \"--CODEGEN--\":4061:4063   */\n      0x2c\n        /* \"--CODEGEN--\":4056:4059   */\n      dup4\n        /* \"--CODEGEN--\":3997:4064   */\n      jump(tag_120)\n    tag_140:\n        /* \"--CODEGEN--\":3990:4064   */\n      swap2\n      pop\n        /* \"--CODEGEN--\":4097:4131   */\n      0x4e6f207469656e6573207065726d69736f73207061726120656a656375746172\n        /* \"--CODEGEN--\":4093:4094   */\n      0x00\n        /* \"--CODEGEN--\":4088:4091   */\n      dup4\n        /* \"--CODEGEN--\":4084:4095   */\n      add\n        /* \"--CODEGEN--\":4077:4132   */\n      mstore\n        /* \"--CODEGEN--\":4166:4180   */\n      0x206c612066756e63696f6e2e0000000000000000000000000000000000000000\n        /* \"--CODEGEN--\":4161:4163   */\n      0x20\n        /* \"--CODEGEN--\":4156:4159   */\n      dup4\n        /* \"--CODEGEN--\":4152:4164   */\n      add\n        /* \"--CODEGEN--\":4145:4181   */\n      mstore\n        /* \"--CODEGEN--\":4209:4211   */\n      0x40\n        /* \"--CODEGEN--\":4204:4207   */\n      dup3\n        /* \"--CODEGEN--\":4200:4212   */\n      add\n        /* \"--CODEGEN--\":4193:4212   */\n      swap1\n      pop\n        /* \"--CODEGEN--\":3983:4218   */\n      swap2\n      swap1\n      pop\n      jump\n        /* \"--CODEGEN--\":4226:4339   */\n    tag_141:\n        /* \"--CODEGEN--\":4309:4333   */\n      tag_143\n        /* \"--CODEGEN--\":4327:4332   */\n      dup2\n        /* \"--CODEGEN--\":4309:4333   */\n      jump(tag_144)\n    tag_143:\n        /* \"--CODEGEN--\":4304:4307   */\n      dup3\n        /* \"--CODEGEN--\":4297:4334   */\n      mstore\n        /* \"--CODEGEN--\":4291:4339   */\n      pop\n      pop\n      jump\n        /* \"--CODEGEN--\":4346:4612   */\n    tag_35:\n      0x00\n        /* \"--CODEGEN--\":4492:4587   */\n      tag_146\n        /* \"--CODEGEN--\":4583:4586   */\n      dup3\n        /* \"--CODEGEN--\":4574:4580   */\n      dup5\n        /* \"--CODEGEN--\":4492:4587   */\n      jump(tag_125)\n    tag_146:\n        /* \"--CODEGEN--\":4485:4587   */\n      swap2\n      pop\n        /* \"--CODEGEN--\":4604:4607   */\n      dup2\n        /* \"--CODEGEN--\":4597:4607   */\n      swap1\n      pop\n        /* \"--CODEGEN--\":4473:4612   */\n      swap3\n      swap2\n      pop\n      pop\n      jump\n        /* \"--CODEGEN--\":4619:4832   */\n    tag_24:\n      0x00\n        /* \"--CODEGEN--\":4737:4739   */\n      0x20\n        /* \"--CODEGEN--\":4726:4735   */\n      dup3\n        /* \"--CODEGEN--\":4722:4740   */\n      add\n        /* \"--CODEGEN--\":4714:4740   */\n      swap1\n      pop\n        /* \"--CODEGEN--\":4751:4822   */\n      tag_148\n        /* \"--CODEGEN--\":4819:4820   */\n      0x00\n        /* \"--CODEGEN--\":4808:4817   */\n      dup4\n        /* \"--CODEGEN--\":4804:4821   */\n      add\n        /* \"--CODEGEN--\":4795:4801   */\n      dup5\n        /* \"--CODEGEN--\":4751:4822   */\n      jump(tag_93)\n    tag_148:\n        /* \"--CODEGEN--\":4708:4832   */\n      swap3\n      swap2\n      pop\n      pop\n      jump\n        /* \"--CODEGEN--\":4839:5224   */\n    tag_28:\n      0x00\n        /* \"--CODEGEN--\":5019:5021   */\n      0x20\n        /* \"--CODEGEN--\":5008:5017   */\n      dup3\n        /* \"--CODEGEN--\":5004:5022   */\n      add\n        /* \"--CODEGEN--\":4996:5022   */\n      swap1\n      pop\n        /* \"--CODEGEN--\":5069:5078   */\n      dup2\n        /* \"--CODEGEN--\":5063:5067   */\n      dup2\n        /* \"--CODEGEN--\":5059:5079   */\n      sub\n        /* \"--CODEGEN--\":5055:5056   */\n      0x00\n        /* \"--CODEGEN--\":5044:5053   */\n      dup4\n        /* \"--CODEGEN--\":5040:5057   */\n      add\n        /* \"--CODEGEN--\":5033:5080   */\n      mstore\n        /* \"--CODEGEN--\":5094:5214   */\n      tag_150\n        /* \"--CODEGEN--\":5209:5213   */\n      dup2\n        /* \"--CODEGEN--\":5200:5206   */\n      dup5\n        /* \"--CODEGEN--\":5094:5214   */\n      jump(tag_97)\n    tag_150:\n        /* \"--CODEGEN--\":5086:5214   */\n      swap1\n      pop\n        /* \"--CODEGEN--\":4990:5224   */\n      swap3\n      swap2\n      pop\n      pop\n      jump\n        /* \"--CODEGEN--\":5231:5555   */\n    tag_37:\n      0x00\n        /* \"--CODEGEN--\":5377:5379   */\n      0x40\n        /* \"--CODEGEN--\":5366:5375   */\n      dup3\n        /* \"--CODEGEN--\":5362:5380   */\n      add\n        /* \"--CODEGEN--\":5354:5380   */\n      swap1\n      pop\n        /* \"--CODEGEN--\":5391:5462   */\n      tag_152\n        /* \"--CODEGEN--\":5459:5460   */\n      0x00\n        /* \"--CODEGEN--\":5448:5457   */\n      dup4\n        /* \"--CODEGEN--\":5444:5461   */\n      add\n        /* \"--CODEGEN--\":5435:5441   */\n      dup6\n        /* \"--CODEGEN--\":5391:5462   */\n      jump(tag_111)\n    tag_152:\n        /* \"--CODEGEN--\":5473:5545   */\n      tag_153\n        /* \"--CODEGEN--\":5541:5543   */\n      0x20\n        /* \"--CODEGEN--\":5530:5539   */\n      dup4\n        /* \"--CODEGEN--\":5526:5544   */\n      add\n        /* \"--CODEGEN--\":5517:5523   */\n      dup5\n        /* \"--CODEGEN--\":5473:5545   */\n      jump(tag_141)\n    tag_153:\n        /* \"--CODEGEN--\":5348:5555   */\n      swap4\n      swap3\n      pop\n      pop\n      pop\n      jump\n        /* \"--CODEGEN--\":5562:5863   */\n    tag_43:\n      0x00\n        /* \"--CODEGEN--\":5700:5702   */\n      0x20\n        /* \"--CODEGEN--\":5689:5698   */\n      dup3\n        /* \"--CODEGEN--\":5685:5703   */\n      add\n        /* \"--CODEGEN--\":5677:5703   */\n      swap1\n      pop\n        /* \"--CODEGEN--\":5750:5759   */\n      dup2\n        /* \"--CODEGEN--\":5744:5748   */\n      dup2\n        /* \"--CODEGEN--\":5740:5760   */\n      sub\n        /* \"--CODEGEN--\":5736:5737   */\n      0x00\n        /* \"--CODEGEN--\":5725:5734   */\n      dup4\n        /* \"--CODEGEN--\":5721:5738   */\n      add\n        /* \"--CODEGEN--\":5714:5761   */\n      mstore\n        /* \"--CODEGEN--\":5775:5853   */\n      tag_155\n        /* \"--CODEGEN--\":5848:5852   */\n      dup2\n        /* \"--CODEGEN--\":5839:5845   */\n      dup5\n        /* \"--CODEGEN--\":5775:5853   */\n      jump(tag_115)\n    tag_155:\n        /* \"--CODEGEN--\":5767:5853   */\n      swap1\n      pop\n        /* \"--CODEGEN--\":5671:5863   */\n      swap3\n      swap2\n      pop\n      pop\n      jump\n        /* \"--CODEGEN--\":5870:6277   */\n    tag_32:\n      0x00\n        /* \"--CODEGEN--\":6061:6063   */\n      0x20\n        /* \"--CODEGEN--\":6050:6059   */\n      dup3\n        /* \"--CODEGEN--\":6046:6064   */\n      add\n        /* \"--CODEGEN--\":6038:6064   */\n      swap1\n      pop\n        /* \"--CODEGEN--\":6111:6120   */\n      dup2\n        /* \"--CODEGEN--\":6105:6109   */\n      dup2\n        /* \"--CODEGEN--\":6101:6121   */\n      sub\n        /* \"--CODEGEN--\":6097:6098   */\n      0x00\n        /* \"--CODEGEN--\":6086:6095   */\n      dup4\n        /* \"--CODEGEN--\":6082:6099   */\n      add\n        /* \"--CODEGEN--\":6075:6122   */\n      mstore\n        /* \"--CODEGEN--\":6136:6267   */\n      tag_157\n        /* \"--CODEGEN--\":6262:6266   */\n      dup2\n        /* \"--CODEGEN--\":6136:6267   */\n      jump(tag_138)\n    tag_157:\n        /* \"--CODEGEN--\":6128:6267   */\n      swap1\n      pop\n        /* \"--CODEGEN--\":6032:6277   */\n      swap2\n      swap1\n      pop\n      jump\n        /* \"--CODEGEN--\":6284:6497   */\n    tag_20:\n      0x00\n        /* \"--CODEGEN--\":6402:6404   */\n      0x20\n        /* \"--CODEGEN--\":6391:6400   */\n      dup3\n        /* \"--CODEGEN--\":6387:6405   */\n      add\n        /* \"--CODEGEN--\":6379:6405   */\n      swap1\n      pop\n        /* \"--CODEGEN--\":6416:6487   */\n      tag_159\n        /* \"--CODEGEN--\":6484:6485   */\n      0x00\n        /* \"--CODEGEN--\":6473:6482   */\n      dup4\n        /* \"--CODEGEN--\":6469:6486   */\n      add\n        /* \"--CODEGEN--\":6460:6466   */\n      dup5\n        /* \"--CODEGEN--\":6416:6487   */\n      jump(tag_141)\n    tag_159:\n        /* \"--CODEGEN--\":6373:6497   */\n      swap3\n      swap2\n      pop\n      pop\n      jump\n        /* \"--CODEGEN--\":6504:6760   */\n    tag_72:\n      0x00\n        /* \"--CODEGEN--\":6566:6568   */\n      0x40\n        /* \"--CODEGEN--\":6560:6569   */\n      mload\n        /* \"--CODEGEN--\":6550:6569   */\n      swap1\n      pop\n        /* \"--CODEGEN--\":6604:6608   */\n      dup2\n        /* \"--CODEGEN--\":6596:6602   */\n      dup2\n        /* \"--CODEGEN--\":6592:6609   */\n      add\n        /* \"--CODEGEN--\":6703:6709   */\n      dup2\n        /* \"--CODEGEN--\":6691:6701   */\n      dup2\n        /* \"--CODEGEN--\":6688:6710   */\n      lt\n        /* \"--CODEGEN--\":6667:6685   */\n      0xffffffffffffffff\n        /* \"--CODEGEN--\":6655:6665   */\n      dup3\n        /* \"--CODEGEN--\":6652:6686   */\n      gt\n        /* \"--CODEGEN--\":6649:6711   */\n      or\n        /* \"--CODEGEN--\":6646:6648   */\n      iszero\n      tag_161\n      jumpi\n        /* \"--CODEGEN--\":6724:6725   */\n      0x00\n        /* \"--CODEGEN--\":6721:6722   */\n      dup1\n        /* \"--CODEGEN--\":6714:6726   */\n      revert\n        /* \"--CODEGEN--\":6646:6648   */\n    tag_161:\n        /* \"--CODEGEN--\":6744:6754   */\n      dup1\n        /* \"--CODEGEN--\":6740:6742   */\n      0x40\n        /* \"--CODEGEN--\":6733:6755   */\n      mstore\n        /* \"--CODEGEN--\":6544:6760   */\n      pop\n      swap2\n      swap1\n      pop\n      jump\n        /* \"--CODEGEN--\":6767:7089   */\n    tag_71:\n      0x00\n        /* \"--CODEGEN--\":6911:6929   */\n      0xffffffffffffffff\n        /* \"--CODEGEN--\":6903:6909   */\n      dup3\n        /* \"--CODEGEN--\":6900:6930   */\n      gt\n        /* \"--CODEGEN--\":6897:6899   */\n      iszero\n      tag_163\n      jumpi\n        /* \"--CODEGEN--\":6943:6944   */\n      0x00\n        /* \"--CODEGEN--\":6940:6941   */\n      dup1\n        /* \"--CODEGEN--\":6933:6945   */\n      revert\n        /* \"--CODEGEN--\":6897:6899   */\n    tag_163:\n        /* \"--CODEGEN--\":7010:7014   */\n      0x1f\n        /* \"--CODEGEN--\":7006:7015   */\n      not\n        /* \"--CODEGEN--\":6999:7003   */\n      0x1f\n        /* \"--CODEGEN--\":6991:6997   */\n      dup4\n        /* \"--CODEGEN--\":6987:7004   */\n      add\n        /* \"--CODEGEN--\":6983:7016   */\n      and\n        /* \"--CODEGEN--\":6975:7016   */\n      swap1\n      pop\n        /* \"--CODEGEN--\":7074:7078   */\n      0x20\n        /* \"--CODEGEN--\":7068:7072   */\n      dup2\n        /* \"--CODEGEN--\":7064:7079   */\n      add\n        /* \"--CODEGEN--\":7056:7079   */\n      swap1\n      pop\n        /* \"--CODEGEN--\":6834:7089   */\n      swap2\n      swap1\n      pop\n      jump\n        /* \"--CODEGEN--\":7096:7253   */\n    tag_104:\n      0x00\n        /* \"--CODEGEN--\":7188:7191   */\n      dup2\n        /* \"--CODEGEN--\":7180:7191   */\n      swap1\n      pop\n        /* \"--CODEGEN--\":7226:7230   */\n      0x20\n        /* \"--CODEGEN--\":7221:7224   */\n      dup3\n        /* \"--CODEGEN--\":7217:7231   */\n      add\n        /* \"--CODEGEN--\":7209:7231   */\n      swap1\n      pop\n        /* \"--CODEGEN--\":7174:7253   */\n      swap2\n      swap1\n      pop\n      jump\n        /* \"--CODEGEN--\":7260:7403   */\n    tag_100:\n      0x00\n        /* \"--CODEGEN--\":7375:7380   */\n      dup2\n        /* \"--CODEGEN--\":7369:7381   */\n      mload\n        /* \"--CODEGEN--\":7359:7381   */\n      swap1\n      pop\n        /* \"--CODEGEN--\":7340:7403   */\n      swap2\n      swap1\n      pop\n      jump\n        /* \"--CODEGEN--\":7410:7528   */\n    tag_133:\n      0x00\n        /* \"--CODEGEN--\":7500:7505   */\n      dup2\n        /* \"--CODEGEN--\":7494:7506   */\n      mload\n        /* \"--CODEGEN--\":7484:7506   */\n      swap1\n      pop\n        /* \"--CODEGEN--\":7465:7528   */\n      swap2\n      swap1\n      pop\n      jump\n        /* \"--CODEGEN--\":7535:7657   */\n    tag_118:\n      0x00\n        /* \"--CODEGEN--\":7629:7634   */\n      dup2\n        /* \"--CODEGEN--\":7623:7635   */\n      mload\n        /* \"--CODEGEN--\":7613:7635   */\n      swap1\n      pop\n        /* \"--CODEGEN--\":7594:7657   */\n      swap2\n      swap1\n      pop\n      jump\n        /* \"--CODEGEN--\":7664:7778   */\n    tag_110:\n      0x00\n        /* \"--CODEGEN--\":7768:7772   */\n      0x20\n        /* \"--CODEGEN--\":7763:7766   */\n      dup3\n        /* \"--CODEGEN--\":7759:7773   */\n      add\n        /* \"--CODEGEN--\":7751:7773   */\n      swap1\n      pop\n        /* \"--CODEGEN--\":7745:7778   */\n      swap2\n      swap1\n      pop\n      jump\n        /* \"--CODEGEN--\":7786:7970   */\n    tag_102:\n      0x00\n        /* \"--CODEGEN--\":7922:7928   */\n      dup3\n        /* \"--CODEGEN--\":7917:7920   */\n      dup3\n        /* \"--CODEGEN--\":7910:7929   */\n      mstore\n        /* \"--CODEGEN--\":7959:7963   */\n      0x20\n        /* \"--CODEGEN--\":7954:7957   */\n      dup3\n        /* \"--CODEGEN--\":7950:7964   */\n      add\n        /* \"--CODEGEN--\":7935:7964   */\n      swap1\n      pop\n        /* \"--CODEGEN--\":7903:7970   */\n      swap3\n      swap2\n      pop\n      pop\n      jump\n        /* \"--CODEGEN--\":7979:8132   */\n    tag_135:\n      0x00\n        /* \"--CODEGEN--\":8084:8090   */\n      dup3\n        /* \"--CODEGEN--\":8079:8082   */\n      dup3\n        /* \"--CODEGEN--\":8072:8091   */\n      mstore\n        /* \"--CODEGEN--\":8121:8125   */\n      0x20\n        /* \"--CODEGEN--\":8116:8119   */\n      dup3\n        /* \"--CODEGEN--\":8112:8126   */\n      add\n        /* \"--CODEGEN--\":8097:8126   */\n      swap1\n      pop\n        /* \"--CODEGEN--\":8065:8132   */\n      swap3\n      swap2\n      pop\n      pop\n      jump\n        /* \"--CODEGEN--\":8141:8304   */\n    tag_120:\n      0x00\n        /* \"--CODEGEN--\":8256:8262   */\n      dup3\n        /* \"--CODEGEN--\":8251:8254   */\n      dup3\n        /* \"--CODEGEN--\":8244:8263   */\n      mstore\n        /* \"--CODEGEN--\":8293:8297   */\n      0x20\n        /* \"--CODEGEN--\":8288:8291   */\n      dup3\n        /* \"--CODEGEN--\":8284:8298   */\n      add\n        /* \"--CODEGEN--\":8269:8298   */\n      swap1\n      pop\n        /* \"--CODEGEN--\":8237:8304   */\n      swap3\n      swap2\n      pop\n      pop\n      jump\n        /* \"--CODEGEN--\":8313:8458   */\n    tag_129:\n      0x00\n        /* \"--CODEGEN--\":8449:8452   */\n      dup2\n        /* \"--CODEGEN--\":8434:8452   */\n      swap1\n      pop\n        /* \"--CODEGEN--\":8427:8458   */\n      swap3\n      swap2\n      pop\n      pop\n      jump\n        /* \"--CODEGEN--\":8466:8557   */\n    tag_96:\n      0x00\n        /* \"--CODEGEN--\":8528:8552   */\n      tag_174\n        /* \"--CODEGEN--\":8546:8551   */\n      dup3\n        /* \"--CODEGEN--\":8528:8552   */\n      jump(tag_175)\n    tag_174:\n        /* \"--CODEGEN--\":8517:8552   */\n      swap1\n      pop\n        /* \"--CODEGEN--\":8511:8557   */\n      swap2\n      swap1\n      pop\n      jump\n        /* \"--CODEGEN--\":8564:8636   */\n    tag_114:\n      0x00\n        /* \"--CODEGEN--\":8626:8631   */\n      dup2\n        /* \"--CODEGEN--\":8615:8631   */\n      swap1\n      pop\n        /* \"--CODEGEN--\":8609:8636   */\n      swap2\n      swap1\n      pop\n      jump\n        /* \"--CODEGEN--\":8643:8764   */\n    tag_175:\n      0x00\n        /* \"--CODEGEN--\":8716:8758   */\n      0xffffffffffffffffffffffffffffffffffffffff\n        /* \"--CODEGEN--\":8709:8714   */\n      dup3\n        /* \"--CODEGEN--\":8705:8759   */\n      and\n        /* \"--CODEGEN--\":8694:8759   */\n      swap1\n      pop\n        /* \"--CODEGEN--\":8688:8764   */\n      swap2\n      swap1\n      pop\n      jump\n        /* \"--CODEGEN--\":8771:8843   */\n    tag_144:\n      0x00\n        /* \"--CODEGEN--\":8833:8838   */\n      dup2\n        /* \"--CODEGEN--\":8822:8838   */\n      swap1\n      pop\n        /* \"--CODEGEN--\":8816:8843   */\n      swap2\n      swap1\n      pop\n      jump\n        /* \"--CODEGEN--\":8851:8996   */\n    tag_75:\n        /* \"--CODEGEN--\":8932:8938   */\n      dup3\n        /* \"--CODEGEN--\":8927:8930   */\n      dup2\n        /* \"--CODEGEN--\":8922:8925   */\n      dup4\n        /* \"--CODEGEN--\":8909:8939   */\n      calldatacopy\n        /* \"--CODEGEN--\":8988:8989   */\n      0x00\n        /* \"--CODEGEN--\":8979:8985   */\n      dup4\n        /* \"--CODEGEN--\":8974:8977   */\n      dup4\n        /* \"--CODEGEN--\":8970:8986   */\n      add\n        /* \"--CODEGEN--\":8963:8990   */\n      mstore\n        /* \"--CODEGEN--\":8902:8996   */\n      pop\n      pop\n      pop\n      jump\n        /* \"--CODEGEN--\":9005:9273   */\n    tag_122:\n        /* \"--CODEGEN--\":9070:9071   */\n      0x00\n        /* \"--CODEGEN--\":9077:9178   */\n    tag_181:\n        /* \"--CODEGEN--\":9091:9097   */\n      dup4\n        /* \"--CODEGEN--\":9088:9089   */\n      dup2\n        /* \"--CODEGEN--\":9085:9098   */\n      lt\n        /* \"--CODEGEN--\":9077:9178   */\n      iszero\n      tag_183\n      jumpi\n        /* \"--CODEGEN--\":9167:9168   */\n      dup1\n        /* \"--CODEGEN--\":9162:9165   */\n      dup3\n        /* \"--CODEGEN--\":9158:9169   */\n      add\n        /* \"--CODEGEN--\":9152:9170   */\n      mload\n        /* \"--CODEGEN--\":9148:9149   */\n      dup2\n        /* \"--CODEGEN--\":9143:9146   */\n      dup5\n        /* \"--CODEGEN--\":9139:9150   */\n      add\n        /* \"--CODEGEN--\":9132:9171   */\n      mstore\n        /* \"--CODEGEN--\":9113:9115   */\n      0x20\n        /* \"--CODEGEN--\":9110:9111   */\n      dup2\n        /* \"--CODEGEN--\":9106:9116   */\n      add\n        /* \"--CODEGEN--\":9101:9116   */\n      swap1\n      pop\n        /* \"--CODEGEN--\":9077:9178   */\n      jump(tag_181)\n    tag_183:\n        /* \"--CODEGEN--\":9193:9199   */\n      dup4\n        /* \"--CODEGEN--\":9190:9191   */\n      dup2\n        /* \"--CODEGEN--\":9187:9200   */\n      gt\n        /* \"--CODEGEN--\":9184:9186   */\n      iszero\n      tag_184\n      jumpi\n        /* \"--CODEGEN--\":9258:9259   */\n      0x00\n        /* \"--CODEGEN--\":9249:9255   */\n      dup5\n        /* \"--CODEGEN--\":9244:9247   */\n      dup5\n        /* \"--CODEGEN--\":9240:9256   */\n      add\n        /* \"--CODEGEN--\":9233:9260   */\n      mstore\n        /* \"--CODEGEN--\":9184:9186   */\n    tag_184:\n        /* \"--CODEGEN--\":9054:9273   */\n      pop\n      pop\n      pop\n      pop\n      jump\n        /* \"--CODEGEN--\":9281:9378   */\n    tag_124:\n      0x00\n        /* \"--CODEGEN--\":9369:9371   */\n      0x1f\n        /* \"--CODEGEN--\":9365:9372   */\n      not\n        /* \"--CODEGEN--\":9360:9362   */\n      0x1f\n        /* \"--CODEGEN--\":9353:9358   */\n      dup4\n        /* \"--CODEGEN--\":9349:9363   */\n      add\n        /* \"--CODEGEN--\":9345:9373   */\n      and\n        /* \"--CODEGEN--\":9335:9373   */\n      swap1\n      pop\n        /* \"--CODEGEN--\":9329:9378   */\n      swap2\n      swap1\n      pop\n      jump\n        /* \"--CODEGEN--\":9386:9503   */\n    tag_79:\n        /* \"--CODEGEN--\":9455:9479   */\n      tag_187\n        /* \"--CODEGEN--\":9473:9478   */\n      dup2\n        /* \"--CODEGEN--\":9455:9479   */\n      jump(tag_144)\n    tag_187:\n        /* \"--CODEGEN--\":9448:9453   */\n      dup2\n        /* \"--CODEGEN--\":9445:9480   */\n      eq\n        /* \"--CODEGEN--\":9435:9437   */\n      tag_188\n      jumpi\n        /* \"--CODEGEN--\":9494:9495   */\n      0x00\n        /* \"--CODEGEN--\":9491:9492   */\n      dup1\n        /* \"--CODEGEN--\":9484:9496   */\n      revert\n        /* \"--CODEGEN--\":9435:9437   */\n    tag_188:\n        /* \"--CODEGEN--\":9429:9503   */\n      pop\n      jump\n\n    auxdata: 0xa2646970667358221220df1684dd8202b69021b5fda7905e8cdb57414b26b0444ed46fb40b06097e010f64736f6c63430006000033\n}\n",
				"bytecode": {
					"linkReferences": {},
					"object": "608060405234801561001057600080fd5b50336000806101000a81548173ffffffffffffffffffffffffffffffffffffffff021916908373ffffffffffffffffffffffffffffffffffffffff160217905550610a66806100606000396000f3fe608060405234801561001057600080fd5b50600436106100575760003560e01c8063040d9f601461005c5780632cd22cd81461007857806333731af614610094578063df096576146100c4578063f22044e6146100e2575b600080fd5b610076600480360361007191908101906105be565b610100565b005b610092600480360361008d919081019061057d565b610212565b005b6100ae60048036036100a9919081019061057d565b610288565b6040516100bb9190610890565b60405180910390f35b6100cc6102d0565b6040516100d991906107e8565b60405180910390f35b6100ea6102f5565b6040516100f79190610803565b60405180910390f35b336000809054906101000a900473ffffffffffffffffffffffffffffffffffffffff1673ffffffffffffffffffffffffffffffffffffffff168173ffffffffffffffffffffffffffffffffffffffff1614610190576040517f08c379a000000000000000000000000000000000000000000000000000000000815260040161018790610870565b60405180910390fd5b6000836040516020016101a391906107d1565b6040516020818303038152906040528051906020012090508260016000838152602001908152602001600020819055507f1decb51588158e4fd9a593e42935e33c4641f4958a08256e305bf6dec1092d8f8184604051610204929190610825565b60405180910390a150505050565b60028190806001815401808255809150506001900390600052602060002001600090919091909150908051906020019061024d92919061046f565b507fafd73f39162aa4c0421f362f3a3d26f44b23c73253256cfc1c68794b0973e0a08160405161027d919061084e565b60405180910390a150565b6000808260405160200161029c91906107d1565b6040516020818303038152906040528051906020012090506001600082815260200190815260200160002054915050919050565b6000809054906101000a900473ffffffffffffffffffffffffffffffffffffffff1681565b6060336000809054906101000a900473ffffffffffffffffffffffffffffffffffffffff1673ffffffffffffffffffffffffffffffffffffffff168173ffffffffffffffffffffffffffffffffffffffff1614610387576040517f08c379a000000000000000000000000000000000000000000000000000000000815260040161037e90610870565b60405180910390fd5b6002805480602002602001604051908101604052809291908181526020016000905b82821015610465578382906000526020600020018054600181600116156101000203166002900480601f0160208091040260200160405190810160405280929190818152602001828054600181600116156101000203166002900480156104515780601f1061042657610100808354040283529160200191610451565b820191906000526020600020905b81548152906001019060200180831161043457829003601f168201915b5050505050815260200190600101906103a9565b5050505091505090565b828054600181600116156101000203166002900490600052602060002090601f016020900481019282601f106104b057805160ff19168380011785556104de565b828001600101855582156104de579182015b828111156104dd5782518255916020019190600101906104c2565b5b5090506104eb91906104ef565b5090565b61051191905b8082111561050d5760008160009055506001016104f5565b5090565b90565b600082601f83011261052557600080fd5b8135610538610533826108d8565b6108ab565b9150808252602083016020830185838301111561055457600080fd5b61055f8382846109c6565b50505092915050565b60008135905061057781610a19565b92915050565b60006020828403121561058f57600080fd5b600082013567ffffffffffffffff8111156105a957600080fd5b6105b584828501610514565b91505092915050565b600080604083850312156105d157600080fd5b600083013567ffffffffffffffff8111156105eb57600080fd5b6105f785828601610514565b925050602061060885828601610568565b9150509250929050565b600061061e8383610723565b905092915050565b61062f81610980565b82525050565b600061064082610914565b61064a8185610942565b93508360208202850161065c85610904565b8060005b8581101561069857848403895281516106798582610612565b945061068483610935565b925060208a01995050600181019050610660565b50829750879550505050505092915050565b6106b381610992565b82525050565b60006106c48261092a565b6106ce8185610964565b93506106de8185602086016109d5565b6106e781610a08565b840191505092915050565b60006106fd8261092a565b6107078185610975565b93506107178185602086016109d5565b80840191505092915050565b600061072e8261091f565b6107388185610953565b93506107488185602086016109d5565b61075181610a08565b840191505092915050565b6000610769602c83610964565b91507f4e6f207469656e6573207065726d69736f73207061726120656a65637574617260008301527f206c612066756e63696f6e2e00000000000000000000000000000000000000006020830152604082019050919050565b6107cb816109bc565b82525050565b60006107dd82846106f2565b915081905092915050565b60006020820190506107fd6000830184610626565b92915050565b6000602082019050818103600083015261081d8184610635565b905092915050565b600060408201905061083a60008301856106aa565b61084760208301846107c2565b9392505050565b6000602082019050818103600083015261086881846106b9565b905092915050565b600060208201905081810360008301526108898161075c565b9050919050565b60006020820190506108a560008301846107c2565b92915050565b6000604051905081810181811067ffffffffffffffff821117156108ce57600080fd5b8060405250919050565b600067ffffffffffffffff8211156108ef57600080fd5b601f19601f8301169050602081019050919050565b6000819050602082019050919050565b600081519050919050565b600081519050919050565b600081519050919050565b6000602082019050919050565b600082825260208201905092915050565b600082825260208201905092915050565b600082825260208201905092915050565b600081905092915050565b600061098b8261099c565b9050919050565b6000819050919050565b600073ffffffffffffffffffffffffffffffffffffffff82169050919050565b6000819050919050565b82818337600083830152505050565b60005b838110156109f35780820151818401526020810190506109d8565b83811115610a02576000848401525b50505050565b6000601f19601f8301169050919050565b610a22816109bc565b8114610a2d57600080fd5b5056fea2646970667358221220df1684dd8202b69021b5fda7905e8cdb57414b26b0444ed46fb40b06097e010f64736f6c63430006000033",
					"opcodes": "PUSH1 0x80 PUSH1 0x40 MSTORE CALLVALUE DUP1 ISZERO PUSH2 0x10 JUMPI PUSH1 0x0 DUP1 REVERT JUMPDEST POP CALLER PUSH1 0x0 DUP1 PUSH2 0x100 EXP DUP2 SLOAD DUP2 PUSH20 0xFFFFFFFFFFFFFFFFFFFFFFFFFFFFFFFFFFFFFFFF MUL NOT AND SWAP1 DUP4 PUSH20 0xFFFFFFFFFFFFFFFFFFFFFFFFFFFFFFFFFFFFFFFF AND MUL OR SWAP1 SSTORE POP PUSH2 0xA66 DUP1 PUSH2 0x60 PUSH1 0x0 CODECOPY PUSH1 0x0 RETURN INVALID PUSH1 0x80 PUSH1 0x40 MSTORE CALLVALUE DUP1 ISZERO PUSH2 0x10 JUMPI PUSH1 0x0 DUP1 REVERT JUMPDEST POP PUSH1 0x4 CALLDATASIZE LT PUSH2 0x57 JUMPI PUSH1 0x0 CALLDATALOAD PUSH1 0xE0 SHR DUP1 PUSH4 0x40D9F60 EQ PUSH2 0x5C JUMPI DUP1 PUSH4 0x2CD22CD8 EQ PUSH2 0x78 JUMPI DUP1 PUSH4 0x33731AF6 EQ PUSH2 0x94 JUMPI DUP1 PUSH4 0xDF096576 EQ PUSH2 0xC4 JUMPI DUP1 PUSH4 0xF22044E6 EQ PUSH2 0xE2 JUMPI JUMPDEST PUSH1 0x0 DUP1 REVERT JUMPDEST PUSH2 0x76 PUSH1 0x4 DUP1 CALLDATASIZE SUB PUSH2 0x71 SWAP2 SWAP1 DUP2 ADD SWAP1 PUSH2 0x5BE JUMP JUMPDEST PUSH2 0x100 JUMP JUMPDEST STOP JUMPDEST PUSH2 0x92 PUSH1 0x4 DUP1 CALLDATASIZE SUB PUSH2 0x8D SWAP2 SWAP1 DUP2 ADD SWAP1 PUSH2 0x57D JUMP JUMPDEST PUSH2 0x212 JUMP JUMPDEST STOP JUMPDEST PUSH2 0xAE PUSH1 0x4 DUP1 CALLDATASIZE SUB PUSH2 0xA9 SWAP2 SWAP1 DUP2 ADD SWAP1 PUSH2 0x57D JUMP JUMPDEST PUSH2 0x288 JUMP JUMPDEST PUSH1 0x40 MLOAD PUSH2 0xBB SWAP2 SWAP1 PUSH2 0x890 JUMP JUMPDEST PUSH1 0x40 MLOAD DUP1 SWAP2 SUB SWAP1 RETURN JUMPDEST PUSH2 0xCC PUSH2 0x2D0 JUMP JUMPDEST PUSH1 0x40 MLOAD PUSH2 0xD9 SWAP2 SWAP1 PUSH2 0x7E8 JUMP JUMPDEST PUSH1 0x40 MLOAD DUP1 SWAP2 SUB SWAP1 RETURN JUMPDEST PUSH2 0xEA PUSH2 0x2F5 JUMP JUMPDEST PUSH1 0x40 MLOAD PUSH2 0xF7 SWAP2 SWAP1 PUSH2 0x803 JUMP JUMPDEST PUSH1 0x40 MLOAD DUP1 SWAP2 SUB SWAP1 RETURN JUMPDEST CALLER PUSH1 0x0 DUP1 SWAP1 SLOAD SWAP1 PUSH2 0x100 EXP SWAP1 DIV PUSH20 0xFFFFFFFFFFFFFFFFFFFFFFFFFFFFFFFFFFFFFFFF AND PUSH20 0xFFFFFFFFFFFFFFFFFFFFFFFFFFFFFFFFFFFFFFFF AND DUP2 PUSH20 0xFFFFFFFFFFFFFFFFFFFFFFFFFFFFFFFFFFFFFFFF AND EQ PUSH2 0x190 JUMPI PUSH1 0x40 MLOAD PUSH32 0x8C379A000000000000000000000000000000000000000000000000000000000 DUP2 MSTORE PUSH1 0x4 ADD PUSH2 0x187 SWAP1 PUSH2 0x870 JUMP JUMPDEST PUSH1 0x40 MLOAD DUP1 SWAP2 SUB SWAP1 REVERT JUMPDEST PUSH1 0x0 DUP4 PUSH1 0x40 MLOAD PUSH1 0x20 ADD PUSH2 0x1A3 SWAP2 SWAP1 PUSH2 0x7D1 JUMP JUMPDEST PUSH1 0x40 MLOAD PUSH1 0x20 DUP2 DUP4 SUB SUB DUP2 MSTORE SWAP1 PUSH1 0x40 MSTORE DUP1 MLOAD SWAP1 PUSH1 0x20 ADD KECCAK256 SWAP1 POP DUP3 PUSH1 0x1 PUSH1 0x0 DUP4 DUP2 MSTORE PUSH1 0x20 ADD SWAP1 DUP2 MSTORE PUSH1 0x20 ADD PUSH1 0x0 KECCAK256 DUP2 SWAP1 SSTORE POP PUSH32 0x1DECB51588158E4FD9A593E42935E33C4641F4958A08256E305BF6DEC1092D8F DUP2 DUP5 PUSH1 0x40 MLOAD PUSH2 0x204 SWAP3 SWAP2 SWAP1 PUSH2 0x825 JUMP JUMPDEST PUSH1 0x40 MLOAD DUP1 SWAP2 SUB SWAP1 LOG1 POP POP POP POP JUMP JUMPDEST PUSH1 0x2 DUP2 SWAP1 DUP1 PUSH1 0x1 DUP2 SLOAD ADD DUP1 DUP3 SSTORE DUP1 SWAP2 POP POP PUSH1 0x1 SWAP1 SUB SWAP1 PUSH1 0x0 MSTORE PUSH1 0x20 PUSH1 0x0 KECCAK256 ADD PUSH1 0x0 SWAP1 SWAP2 SWAP1 SWAP2 SWAP1 SWAP2 POP SWAP1 DUP1 MLOAD SWAP1 PUSH1 0x20 ADD SWAP1 PUSH2 0x24D SWAP3 SWAP2 SWAP1 PUSH2 0x46F JUMP JUMPDEST POP PUSH32 0xAFD73F39162AA4C0421F362F3A3D26F44B23C73253256CFC1C68794B0973E0A0 DUP2 PUSH1 0x40 MLOAD PUSH2 0x27D SWAP2 SWAP1 PUSH2 0x84E JUMP JUMPDEST PUSH1 0x40 MLOAD DUP1 SWAP2 SUB SWAP1 LOG1 POP JUMP JUMPDEST PUSH1 0x0 DUP1 DUP3 PUSH1 0x40 MLOAD PUSH1 0x20 ADD PUSH2 0x29C SWAP2 SWAP1 PUSH2 0x7D1 JUMP JUMPDEST PUSH1 0x40 MLOAD PUSH1 0x20 DUP2 DUP4 SUB SUB DUP2 MSTORE SWAP1 PUSH1 0x40 MSTORE DUP1 MLOAD SWAP1 PUSH1 0x20 ADD KECCAK256 SWAP1 POP PUSH1 0x1 PUSH1 0x0 DUP3 DUP2 MSTORE PUSH1 0x20 ADD SWAP1 DUP2 MSTORE PUSH1 0x20 ADD PUSH1 0x0 KECCAK256 SLOAD SWAP2 POP POP SWAP2 SWAP1 POP JUMP JUMPDEST PUSH1 0x0 DUP1 SWAP1 SLOAD SWAP1 PUSH2 0x100 EXP SWAP1 DIV PUSH20 0xFFFFFFFFFFFFFFFFFFFFFFFFFFFFFFFFFFFFFFFF AND DUP2 JUMP JUMPDEST PUSH1 0x60 CALLER PUSH1 0x0 DUP1 SWAP1 SLOAD SWAP1 PUSH2 0x100 EXP SWAP1 DIV PUSH20 0xFFFFFFFFFFFFFFFFFFFFFFFFFFFFFFFFFFFFFFFF AND PUSH20 0xFFFFFFFFFFFFFFFFFFFFFFFFFFFFFFFFFFFFFFFF AND DUP2 PUSH20 0xFFFFFFFFFFFFFFFFFFFFFFFFFFFFFFFFFFFFFFFF AND EQ PUSH2 0x387 JUMPI PUSH1 0x40 MLOAD PUSH32 0x8C379A000000000000000000000000000000000000000000000000000000000 DUP2 MSTORE PUSH1 0x4 ADD PUSH2 0x37E SWAP1 PUSH2 0x870 JUMP JUMPDEST PUSH1 0x40 MLOAD DUP1 SWAP2 SUB SWAP1 REVERT JUMPDEST PUSH1 0x2 DUP1 SLOAD DUP1 PUSH1 0x20 MUL PUSH1 0x20 ADD PUSH1 0x40 MLOAD SWAP1 DUP2 ADD PUSH1 0x40 MSTORE DUP1 SWAP3 SWAP2 SWAP1 DUP2 DUP2 MSTORE PUSH1 0x20 ADD PUSH1 0x0 SWAP1 JUMPDEST DUP3 DUP3 LT ISZERO PUSH2 0x465 JUMPI DUP4 DUP3 SWAP1 PUSH1 0x0 MSTORE PUSH1 0x20 PUSH1 0x0 KECCAK256 ADD DUP1 SLOAD PUSH1 0x1 DUP2 PUSH1 0x1 AND ISZERO PUSH2 0x100 MUL SUB AND PUSH1 0x2 SWAP1 DIV DUP1 PUSH1 0x1F ADD PUSH1 0x20 DUP1 SWAP2 DIV MUL PUSH1 0x20 ADD PUSH1 0x40 MLOAD SWAP1 DUP2 ADD PUSH1 0x40 MSTORE DUP1 SWAP3 SWAP2 SWAP1 DUP2 DUP2 MSTORE PUSH1 0x20 ADD DUP3 DUP1 SLOAD PUSH1 0x1 DUP2 PUSH1 0x1 AND ISZERO PUSH2 0x100 MUL SUB AND PUSH1 0x2 SWAP1 DIV DUP1 ISZERO PUSH2 0x451 JUMPI DUP1 PUSH1 0x1F LT PUSH2 0x426 JUMPI PUSH2 0x100 DUP1 DUP4 SLOAD DIV MUL DUP4 MSTORE SWAP2 PUSH1 0x20 ADD SWAP2 PUSH2 0x451 JUMP JUMPDEST DUP3 ADD SWAP2 SWAP1 PUSH1 0x0 MSTORE PUSH1 0x20 PUSH1 0x0 KECCAK256 SWAP1 JUMPDEST DUP2 SLOAD DUP2 MSTORE SWAP1 PUSH1 0x1 ADD SWAP1 PUSH1 0x20 ADD DUP1 DUP4 GT PUSH2 0x434 JUMPI DUP3 SWAP1 SUB PUSH1 0x1F AND DUP3 ADD SWAP2 JUMPDEST POP POP POP POP POP DUP2 MSTORE PUSH1 0x20 ADD SWAP1 PUSH1 0x1 ADD SWAP1 PUSH2 0x3A9 JUMP JUMPDEST POP POP POP POP SWAP2 POP POP SWAP1 JUMP JUMPDEST DUP3 DUP1 SLOAD PUSH1 0x1 DUP2 PUSH1 0x1 AND ISZERO PUSH2 0x100 MUL SUB AND PUSH1 0x2 SWAP1 DIV SWAP1 PUSH1 0x0 MSTORE PUSH1 0x20 PUSH1 0x0 KECCAK256 SWAP1 PUSH1 0x1F ADD PUSH1 0x20 SWAP1 DIV DUP2 ADD SWAP3 DUP3 PUSH1 0x1F LT PUSH2 0x4B0 JUMPI DUP1 MLOAD PUSH1 0xFF NOT AND DUP4 DUP1 ADD OR DUP6 SSTORE PUSH2 0x4DE JUMP JUMPDEST DUP3 DUP1 ADD PUSH1 0x1 ADD DUP6 SSTORE DUP3 ISZERO PUSH2 0x4DE JUMPI SWAP2 DUP3 ADD JUMPDEST DUP3 DUP2 GT ISZERO PUSH2 0x4DD JUMPI DUP3 MLOAD DUP3 SSTORE SWAP2 PUSH1 0x20 ADD SWAP2 SWAP1 PUSH1 0x1 ADD SWAP1 PUSH2 0x4C2 JUMP JUMPDEST JUMPDEST POP SWAP1 POP PUSH2 0x4EB SWAP2 SWAP1 PUSH2 0x4EF JUMP JUMPDEST POP SWAP1 JUMP JUMPDEST PUSH2 0x511 SWAP2 SWAP1 JUMPDEST DUP1 DUP3 GT ISZERO PUSH2 0x50D JUMPI PUSH1 0x0 DUP2 PUSH1 0x0 SWAP1 SSTORE POP PUSH1 0x1 ADD PUSH2 0x4F5 JUMP JUMPDEST POP SWAP1 JUMP JUMPDEST SWAP1 JUMP JUMPDEST PUSH1 0x0 DUP3 PUSH1 0x1F DUP4 ADD SLT PUSH2 0x525 JUMPI PUSH1 0x0 DUP1 REVERT JUMPDEST DUP2 CALLDATALOAD PUSH2 0x538 PUSH2 0x533 DUP3 PUSH2 0x8D8 JUMP JUMPDEST PUSH2 0x8AB JUMP JUMPDEST SWAP2 POP DUP1 DUP3 MSTORE PUSH1 0x20 DUP4 ADD PUSH1 0x20 DUP4 ADD DUP6 DUP4 DUP4 ADD GT ISZERO PUSH2 0x554 JUMPI PUSH1 0x0 DUP1 REVERT JUMPDEST PUSH2 0x55F DUP4 DUP3 DUP5 PUSH2 0x9C6 JUMP JUMPDEST POP POP POP SWAP3 SWAP2 POP POP JUMP JUMPDEST PUSH1 0x0 DUP2 CALLDATALOAD SWAP1 POP PUSH2 0x577 DUP2 PUSH2 0xA19 JUMP JUMPDEST SWAP3 SWAP2 POP POP JUMP JUMPDEST PUSH1 0x0 PUSH1 0x20 DUP3 DUP5 SUB SLT ISZERO PUSH2 0x58F JUMPI PUSH1 0x0 DUP1 REVERT JUMPDEST PUSH1 0x0 DUP3 ADD CALLDATALOAD PUSH8 0xFFFFFFFFFFFFFFFF DUP2 GT ISZERO PUSH2 0x5A9 JUMPI PUSH1 0x0 DUP1 REVERT JUMPDEST PUSH2 0x5B5 DUP5 DUP3 DUP6 ADD PUSH2 0x514 JUMP JUMPDEST SWAP2 POP POP SWAP3 SWAP2 POP POP JUMP JUMPDEST PUSH1 0x0 DUP1 PUSH1 0x40 DUP4 DUP6 SUB SLT ISZERO PUSH2 0x5D1 JUMPI PUSH1 0x0 DUP1 REVERT JUMPDEST PUSH1 0x0 DUP4 ADD CALLDATALOAD PUSH8 0xFFFFFFFFFFFFFFFF DUP2 GT ISZERO PUSH2 0x5EB JUMPI PUSH1 0x0 DUP1 REVERT JUMPDEST PUSH2 0x5F7 DUP6 DUP3 DUP7 ADD PUSH2 0x514 JUMP JUMPDEST SWAP3 POP POP PUSH1 0x20 PUSH2 0x608 DUP6 DUP3 DUP7 ADD PUSH2 0x568 JUMP JUMPDEST SWAP2 POP POP SWAP3 POP SWAP3 SWAP1 POP JUMP JUMPDEST PUSH1 0x0 PUSH2 0x61E DUP4 DUP4 PUSH2 0x723 JUMP JUMPDEST SWAP1 POP SWAP3 SWAP2 POP POP JUMP JUMPDEST PUSH2 0x62F DUP2 PUSH2 0x980 JUMP JUMPDEST DUP3 MSTORE POP POP JUMP JUMPDEST PUSH1 0x0 PUSH2 0x640 DUP3 PUSH2 0x914 JUMP JUMPDEST PUSH2 0x64A DUP2 DUP6 PUSH2 0x942 JUMP JUMPDEST SWAP4 POP DUP4 PUSH1 0x20 DUP3 MUL DUP6 ADD PUSH2 0x65C DUP6 PUSH2 0x904 JUMP JUMPDEST DUP1 PUSH1 0x0 JUMPDEST DUP6 DUP2 LT ISZERO PUSH2 0x698 JUMPI DUP5 DUP5 SUB DUP10 MSTORE DUP2 MLOAD PUSH2 0x679 DUP6 DUP3 PUSH2 0x612 JUMP JUMPDEST SWAP5 POP PUSH2 0x684 DUP4 PUSH2 0x935 JUMP JUMPDEST SWAP3 POP PUSH1 0x20 DUP11 ADD SWAP10 POP POP PUSH1 0x1 DUP2 ADD SWAP1 POP PUSH2 0x660 JUMP JUMPDEST POP DUP3 SWAP8 POP DUP8 SWAP6 POP POP POP POP POP POP SWAP3 SWAP2 POP POP JUMP JUMPDEST PUSH2 0x6B3 DUP2 PUSH2 0x992 JUMP JUMPDEST DUP3 MSTORE POP POP JUMP JUMPDEST PUSH1 0x0 PUSH2 0x6C4 DUP3 PUSH2 0x92A JUMP JUMPDEST PUSH2 0x6CE DUP2 DUP6 PUSH2 0x964 JUMP JUMPDEST SWAP4 POP PUSH2 0x6DE DUP2 DUP6 PUSH1 0x20 DUP7 ADD PUSH2 0x9D5 JUMP JUMPDEST PUSH2 0x6E7 DUP2 PUSH2 0xA08 JUMP JUMPDEST DUP5 ADD SWAP2 POP POP SWAP3 SWAP2 POP POP JUMP JUMPDEST PUSH1 0x0 PUSH2 0x6FD DUP3 PUSH2 0x92A JUMP JUMPDEST PUSH2 0x707 DUP2 DUP6 PUSH2 0x975 JUMP JUMPDEST SWAP4 POP PUSH2 0x717 DUP2 DUP6 PUSH1 0x20 DUP7 ADD PUSH2 0x9D5 JUMP JUMPDEST DUP1 DUP5 ADD SWAP2 POP POP SWAP3 SWAP2 POP POP JUMP JUMPDEST PUSH1 0x0 PUSH2 0x72E DUP3 PUSH2 0x91F JUMP JUMPDEST PUSH2 0x738 DUP2 DUP6 PUSH2 0x953 JUMP JUMPDEST SWAP4 POP PUSH2 0x748 DUP2 DUP6 PUSH1 0x20 DUP7 ADD PUSH2 0x9D5 JUMP JUMPDEST PUSH2 0x751 DUP2 PUSH2 0xA08 JUMP JUMPDEST DUP5 ADD SWAP2 POP POP SWAP3 SWAP2 POP POP JUMP JUMPDEST PUSH1 0x0 PUSH2 0x769 PUSH1 0x2C DUP4 PUSH2 0x964 JUMP JUMPDEST SWAP2 POP PUSH32 0x4E6F207469656E6573207065726D69736F73207061726120656A656375746172 PUSH1 0x0 DUP4 ADD MSTORE PUSH32 0x206C612066756E63696F6E2E0000000000000000000000000000000000000000 PUSH1 0x20 DUP4 ADD MSTORE PUSH1 0x40 DUP3 ADD SWAP1 POP SWAP2 SWAP1 POP JUMP JUMPDEST PUSH2 0x7CB DUP2 PUSH2 0x9BC JUMP JUMPDEST DUP3 MSTORE POP POP JUMP JUMPDEST PUSH1 0x0 PUSH2 0x7DD DUP3 DUP5 PUSH2 0x6F2 JUMP JUMPDEST SWAP2 POP DUP2 SWAP1 POP SWAP3 SWAP2 POP POP JUMP JUMPDEST PUSH1 0x0 PUSH1 0x20 DUP3 ADD SWAP1 POP PUSH2 0x7FD PUSH1 0x0 DUP4 ADD DUP5 PUSH2 0x626 JUMP JUMPDEST SWAP3 SWAP2 POP POP JUMP JUMPDEST PUSH1 0x0 PUSH1 0x20 DUP3 ADD SWAP1 POP DUP2 DUP2 SUB PUSH1 0x0 DUP4 ADD MSTORE PUSH2 0x81D DUP2 DUP5 PUSH2 0x635 JUMP JUMPDEST SWAP1 POP SWAP3 SWAP2 POP POP JUMP JUMPDEST PUSH1 0x0 PUSH1 0x40 DUP3 ADD SWAP1 POP PUSH2 0x83A PUSH1 0x0 DUP4 ADD DUP6 PUSH2 0x6AA JUMP JUMPDEST PUSH2 0x847 PUSH1 0x20 DUP4 ADD DUP5 PUSH2 0x7C2 JUMP JUMPDEST SWAP4 SWAP3 POP POP POP JUMP JUMPDEST PUSH1 0x0 PUSH1 0x20 DUP3 ADD SWAP1 POP DUP2 DUP2 SUB PUSH1 0x0 DUP4 ADD MSTORE PUSH2 0x868 DUP2 DUP5 PUSH2 0x6B9 JUMP JUMPDEST SWAP1 POP SWAP3 SWAP2 POP POP JUMP JUMPDEST PUSH1 0x0 PUSH1 0x20 DUP3 ADD SWAP1 POP DUP2 DUP2 SUB PUSH1 0x0 DUP4 ADD MSTORE PUSH2 0x889 DUP2 PUSH2 0x75C JUMP JUMPDEST SWAP1 POP SWAP2 SWAP1 POP JUMP JUMPDEST PUSH1 0x0 PUSH1 0x20 DUP3 ADD SWAP1 POP PUSH2 0x8A5 PUSH1 0x0 DUP4 ADD DUP5 PUSH2 0x7C2 JUMP JUMPDEST SWAP3 SWAP2 POP POP JUMP JUMPDEST PUSH1 0x0 PUSH1 0x40 MLOAD SWAP1 POP DUP2 DUP2 ADD DUP2 DUP2 LT PUSH8 0xFFFFFFFFFFFFFFFF DUP3 GT OR ISZERO PUSH2 0x8CE JUMPI PUSH1 0x0 DUP1 REVERT JUMPDEST DUP1 PUSH1 0x40 MSTORE POP SWAP2 SWAP1 POP JUMP JUMPDEST PUSH1 0x0 PUSH8 0xFFFFFFFFFFFFFFFF DUP3 GT ISZERO PUSH2 0x8EF JUMPI PUSH1 0x0 DUP1 REVERT JUMPDEST PUSH1 0x1F NOT PUSH1 0x1F DUP4 ADD AND SWAP1 POP PUSH1 0x20 DUP2 ADD SWAP1 POP SWAP2 SWAP1 POP JUMP JUMPDEST PUSH1 0x0 DUP2 SWAP1 POP PUSH1 0x20 DUP3 ADD SWAP1 POP SWAP2 SWAP1 POP JUMP JUMPDEST PUSH1 0x0 DUP2 MLOAD SWAP1 POP SWAP2 SWAP1 POP JUMP JUMPDEST PUSH1 0x0 DUP2 MLOAD SWAP1 POP SWAP2 SWAP1 POP JUMP JUMPDEST PUSH1 0x0 DUP2 MLOAD SWAP1 POP SWAP2 SWAP1 POP JUMP JUMPDEST PUSH1 0x0 PUSH1 0x20 DUP3 ADD SWAP1 POP SWAP2 SWAP1 POP JUMP JUMPDEST PUSH1 0x0 DUP3 DUP3 MSTORE PUSH1 0x20 DUP3 ADD SWAP1 POP SWAP3 SWAP2 POP POP JUMP JUMPDEST PUSH1 0x0 DUP3 DUP3 MSTORE PUSH1 0x20 DUP3 ADD SWAP1 POP SWAP3 SWAP2 POP POP JUMP JUMPDEST PUSH1 0x0 DUP3 DUP3 MSTORE PUSH1 0x20 DUP3 ADD SWAP1 POP SWAP3 SWAP2 POP POP JUMP JUMPDEST PUSH1 0x0 DUP2 SWAP1 POP SWAP3 SWAP2 POP POP JUMP JUMPDEST PUSH1 0x0 PUSH2 0x98B DUP3 PUSH2 0x99C JUMP JUMPDEST SWAP1 POP SWAP2 SWAP1 POP JUMP JUMPDEST PUSH1 0x0 DUP2 SWAP1 POP SWAP2 SWAP1 POP JUMP JUMPDEST PUSH1 0x0 PUSH20 0xFFFFFFFFFFFFFFFFFFFFFFFFFFFFFFFFFFFFFFFF DUP3 AND SWAP1 POP SWAP2 SWAP1 POP JUMP JUMPDEST PUSH1 0x0 DUP2 SWAP1 POP SWAP2 SWAP1 POP JUMP JUMPDEST DUP3 DUP2 DUP4 CALLDATACOPY PUSH1 0x0 DUP4 DUP4 ADD MSTORE POP POP POP JUMP JUMPDEST PUSH1 0x0 JUMPDEST DUP4 DUP2 LT ISZERO PUSH2 0x9F3 JUMPI DUP1 DUP3 ADD MLOAD DUP2 DUP5 ADD MSTORE PUSH1 0x20 DUP2 ADD SWAP1 POP PUSH2 0x9D8 JUMP JUMPDEST DUP4 DUP2 GT ISZERO PUSH2 0xA02 JUMPI PUSH1 0x0 DUP5 DUP5 ADD MSTORE JUMPDEST POP POP POP POP JUMP JUMPDEST PUSH1 0x0 PUSH1 0x1F NOT PUSH1 0x1F DUP4 ADD AND SWAP1 POP SWAP2 SWAP1 POP JUMP JUMPDEST PUSH2 0xA22 DUP2 PUSH2 0x9BC JUMP JUMPDEST DUP2 EQ PUSH2 0xA2D JUMPI PUSH1 0x0 DUP1 REVERT JUMPDEST POP JUMP INVALID LOG2 PUSH5 0x6970667358 0x22 SLT KECCAK256 0xDF AND DUP5 0xDD DUP3 MUL 0xB6 SWAP1 0x21 0xB5 REVERT 0xA7 SWAP1 0x5E DUP13 0xDB JUMPI COINBASE 0x4B 0x26 0xB0 DIFFICULTY 0x4E 0xD4 PUSH16 0xB40B06097E010F64736F6C6343000600 STOP CALLER "
				},
				"gasEstimates": {
					"creation": {
						"codeDepositCost": "532400",
						"executionCost": "21434",
						"totalCost": "553834"
					},
					"external": {
						"Evaluar(string,uint256)": "infinite",
						"Revision(string)": "infinite",
						"VerNotas(string)": "infinite",
						"VerRevisiones()": "infinite",
						"profesor()": "1258"
					}
				},
				"methodIdentifiers": {
					"Evaluar(string,uint256)": "040d9f60",
					"Revision(string)": "2cd22cd8",
					"VerNotas(string)": "33731af6",
					"VerRevisiones()": "f22044e6",
					"profesor()": "df096576"
				}
			},
			"storageLayout": {
				"storage": [
					{
						"astId": 4,
						"contract": "Bloque_2/NOTAS/notas.sol:notas",
						"label": "profesor",
						"offset": 0,
						"slot": "0",
						"type": "t_address"
					},
					{
						"astId": 17,
						"contract": "Bloque_2/NOTAS/notas.sol:notas",
						"label": "Notas",
						"offset": 0,
						"slot": "1",
						"type": "t_mapping(t_bytes32,t_uint256)"
					},
					{
						"astId": 20,
						"contract": "Bloque_2/NOTAS/notas.sol:notas",
						"label": "revisiones",
						"offset": 0,
						"slot": "2",
						"type": "t_array(t_string_storage)dyn_storage"
					}
				],
				"types": {
					"t_address": {
						"encoding": "inplace",
						"label": "address",
						"numberOfBytes": "20"
					},
					"t_array(t_string_storage)dyn_storage": {
						"base": "t_string_storage",
						"encoding": "dynamic_array",
						"label": "string[]",
						"numberOfBytes": "32"
					},
					"t_bytes32": {
						"encoding": "inplace",
						"label": "bytes32",
						"numberOfBytes": "32"
					},
					"t_mapping(t_bytes32,t_uint256)": {
						"encoding": "mapping",
						"key": "t_bytes32",
						"label": "mapping(bytes32 => uint256)",
						"numberOfBytes": "32",
						"value": "t_uint256"
					},
					"t_string_storage": {
						"encoding": "bytes",
						"label": "string",
						"numberOfBytes": "32"
					},
					"t_uint256": {
						"encoding": "inplace",
						"label": "uint256",
						"numberOfBytes": "32"
					}
				}
			},
			"userdoc": {
				"methods": {}
			}
		}
	}
}