{
	"Funciones avanzadas/require.sol": {
		"Require": {
			"abi": [
				{
					"inputs": [
						{
							"internalType": "uint256",
							"name": "_cantidad",
							"type": "uint256"
						}
					],
					"name": "Pagar",
					"outputs": [
						{
							"internalType": "uint256",
							"name": "",
							"type": "uint256"
						}
					],
					"stateMutability": "nonpayable",
					"type": "function"
				},
				{
					"inputs": [],
					"name": "cartera",
					"outputs": [
						{
							"internalType": "uint256",
							"name": "",
							"type": "uint256"
						}
					],
					"stateMutability": "view",
					"type": "function"
				},
				{
					"inputs": [
						{
							"internalType": "string",
							"name": "_nombre",
							"type": "string"
						}
					],
					"name": "nuevoNombre",
					"outputs": [],
					"stateMutability": "nonpayable",
					"type": "function"
				},
				{
					"inputs": [
						{
							"internalType": "string",
							"name": "_pass",
							"type": "string"
						}
					],
					"name": "password",
					"outputs": [
						{
							"internalType": "string",
							"name": "",
							"type": "string"
						}
					],
					"stateMutability": "pure",
					"type": "function"
				}
			],
			"devdoc": {
				"methods": {}
			},
			"evm": {
				"assembly": "    /* \"Funciones avanzadas/require.sol\":70:1034  contract Require {\r... */\n  mstore(0x40, 0x80)\n    /* \"Funciones avanzadas/require.sol\":429:430  0 */\n  0x00\n    /* \"Funciones avanzadas/require.sol\":415:430  uint tiempo = 0 */\n  dup1\n  sstore\n    /* \"Funciones avanzadas/require.sol\":459:460  0 */\n  0x00\n    /* \"Funciones avanzadas/require.sol\":437:460  uint public cartera = 0 */\n  0x01\n  sstore\n    /* \"Funciones avanzadas/require.sol\":70:1034  contract Require {\r... */\n  callvalue\n    /* \"--CODEGEN--\":8:17   */\n  dup1\n    /* \"--CODEGEN--\":5:7   */\n  iszero\n  tag_1\n  jumpi\n    /* \"--CODEGEN--\":30:31   */\n  0x00\n    /* \"--CODEGEN--\":27:28   */\n  dup1\n    /* \"--CODEGEN--\":20:32   */\n  revert\n    /* \"--CODEGEN--\":5:7   */\ntag_1:\n    /* \"Funciones avanzadas/require.sol\":70:1034  contract Require {\r... */\n  pop\n  dataSize(sub_0)\n  dup1\n  dataOffset(sub_0)\n  0x00\n  codecopy\n  0x00\n  return\nstop\n\nsub_0: assembly {\n        /* \"Funciones avanzadas/require.sol\":70:1034  contract Require {\r... */\n      mstore(0x40, 0x80)\n      callvalue\n        /* \"--CODEGEN--\":8:17   */\n      dup1\n        /* \"--CODEGEN--\":5:7   */\n      iszero\n      tag_1\n      jumpi\n        /* \"--CODEGEN--\":30:31   */\n      0x00\n        /* \"--CODEGEN--\":27:28   */\n      dup1\n        /* \"--CODEGEN--\":20:32   */\n      revert\n        /* \"--CODEGEN--\":5:7   */\n    tag_1:\n        /* \"Funciones avanzadas/require.sol\":70:1034  contract Require {\r... */\n      pop\n      jumpi(tag_2, lt(calldatasize, 0x04))\n      shr(0xe0, calldataload(0x00))\n      dup1\n      0x5c4faad9\n      eq\n      tag_3\n      jumpi\n      dup1\n      0x694b9d34\n      eq\n      tag_4\n      jumpi\n      dup1\n      0x71d3f37a\n      eq\n      tag_5\n      jumpi\n      dup1\n      0xf8f552b4\n      eq\n      tag_6\n      jumpi\n    tag_2:\n      0x00\n      dup1\n      revert\n        /* \"Funciones avanzadas/require.sol\":469:684  function Pagar(uint _cantidad) public returns(uint) {\r... */\n    tag_3:\n      tag_7\n      0x04\n      dup1\n      calldatasize\n      sub\n      tag_8\n      swap2\n      swap1\n      dup2\n      add\n      swap1\n      jump(tag_9)\n    tag_8:\n      tag_10\n      jump\t// in\n    tag_7:\n      mload(0x40)\n      tag_11\n      swap2\n      swap1\n      jump(tag_12)\n    tag_11:\n      mload(0x40)\n      dup1\n      swap2\n      sub\n      swap1\n      return\n        /* \"Funciones avanzadas/require.sol\":437:460  uint public cartera = 0 */\n    tag_4:\n      tag_13\n      tag_14\n      jump\t// in\n    tag_13:\n      mload(0x40)\n      tag_15\n      swap2\n      swap1\n      jump(tag_12)\n    tag_15:\n      mload(0x40)\n      dup1\n      swap2\n      sub\n      swap1\n      return\n        /* \"Funciones avanzadas/require.sol\":138:381  function password(string memory _pass) public pure returns (string memory) {\r... */\n    tag_5:\n      tag_16\n      0x04\n      dup1\n      calldatasize\n      sub\n      tag_17\n      swap2\n      swap1\n      dup2\n      add\n      swap1\n      jump(tag_18)\n    tag_17:\n      tag_19\n      jump\t// in\n    tag_16:\n      mload(0x40)\n      tag_20\n      swap2\n      swap1\n      jump(tag_21)\n    tag_20:\n      mload(0x40)\n      dup1\n      swap2\n      sub\n      swap1\n      return\n        /* \"Funciones avanzadas/require.sol\":748:1031  function nuevoNombre(string memory _nombre) public {\r... */\n    tag_6:\n      tag_22\n      0x04\n      dup1\n      calldatasize\n      sub\n      tag_23\n      swap2\n      swap1\n      dup2\n      add\n      swap1\n      jump(tag_18)\n    tag_23:\n      tag_24\n      jump\t// in\n    tag_22:\n      stop\n        /* \"Funciones avanzadas/require.sol\":469:684  function Pagar(uint _cantidad) public returns(uint) {\r... */\n    tag_10:\n        /* \"Funciones avanzadas/require.sol\":515:519  uint */\n      0x00\n        /* \"Funciones avanzadas/require.sol\":555:564  5 seconds */\n      0x05\n        /* \"Funciones avanzadas/require.sol\":546:552  tiempo */\n      sload(0x00)\n        /* \"Funciones avanzadas/require.sol\":546:564  tiempo + 5 seconds */\n      add\n        /* \"Funciones avanzadas/require.sol\":540:543  now */\n      timestamp\n        /* \"Funciones avanzadas/require.sol\":540:564  now > tiempo + 5 seconds */\n      gt\n        /* \"Funciones avanzadas/require.sol\":532:597  require(now > tiempo + 5 seconds, \"Aun no puedes pagar de nuevo\") */\n      tag_26\n      jumpi\n      mload(0x40)\n      0x08c379a000000000000000000000000000000000000000000000000000000000\n      dup2\n      mstore\n      0x04\n      add\n      tag_27\n      swap1\n      jump(tag_28)\n    tag_27:\n      mload(0x40)\n      dup1\n      swap2\n      sub\n      swap1\n      revert\n    tag_26:\n        /* \"Funciones avanzadas/require.sol\":617:620  now */\n      timestamp\n        /* \"Funciones avanzadas/require.sol\":608:614  tiempo */\n      0x00\n        /* \"Funciones avanzadas/require.sol\":608:620  tiempo = now */\n      dup2\n      swap1\n      sstore\n      pop\n        /* \"Funciones avanzadas/require.sol\":642:651  _cantidad */\n      dup2\n        /* \"Funciones avanzadas/require.sol\":631:638  cartera */\n      0x01\n      0x00\n        /* \"Funciones avanzadas/require.sol\":631:651  cartera += _cantidad */\n      dup3\n      dup3\n      sload\n      add\n      swap3\n      pop\n      pop\n      dup2\n      swap1\n      sstore\n      pop\n        /* \"Funciones avanzadas/require.sol\":669:676  cartera */\n      sload(0x01)\n        /* \"Funciones avanzadas/require.sol\":662:676  return cartera */\n      swap1\n      pop\n        /* \"Funciones avanzadas/require.sol\":469:684  function Pagar(uint _cantidad) public returns(uint) {\r... */\n      swap2\n      swap1\n      pop\n      jump\t// out\n        /* \"Funciones avanzadas/require.sol\":437:460  uint public cartera = 0 */\n    tag_14:\n      sload(0x01)\n      dup2\n      jump\t// out\n        /* \"Funciones avanzadas/require.sol\":138:381  function password(string memory _pass) public pure returns (string memory) {\r... */\n    tag_19:\n        /* \"Funciones avanzadas/require.sol\":198:211  string memory */\n      0x60\n        /* \"Funciones avanzadas/require.sol\":280:305  abi.encodePacked(\"12345\") */\n      add(0x20, mload(0x40))\n      tag_30\n      swap1\n      jump(tag_31)\n    tag_30:\n      mload(0x40)\n        /* \"--CODEGEN--\":49:53   */\n      0x20\n        /* \"--CODEGEN--\":39:46   */\n      dup2\n        /* \"--CODEGEN--\":30:37   */\n      dup4\n        /* \"--CODEGEN--\":26:47   */\n      sub\n        /* \"--CODEGEN--\":22:54   */\n      sub\n        /* \"--CODEGEN--\":13:20   */\n      dup2\n        /* \"--CODEGEN--\":6:55   */\n      mstore\n        /* \"Funciones avanzadas/require.sol\":280:305  abi.encodePacked(\"12345\") */\n      swap1\n      0x40\n      mstore\n        /* \"Funciones avanzadas/require.sol\":270:306  keccak256(abi.encodePacked(\"12345\")) */\n      dup1\n      mload\n      swap1\n      0x20\n      add\n      keccak256\n        /* \"Funciones avanzadas/require.sol\":259:264  _pass */\n      dup3\n        /* \"Funciones avanzadas/require.sol\":242:265  abi.encodePacked(_pass) */\n      add(0x20, mload(0x40))\n      tag_32\n      swap2\n      swap1\n      jump(tag_33)\n    tag_32:\n      mload(0x40)\n        /* \"--CODEGEN--\":49:53   */\n      0x20\n        /* \"--CODEGEN--\":39:46   */\n      dup2\n        /* \"--CODEGEN--\":30:37   */\n      dup4\n        /* \"--CODEGEN--\":26:47   */\n      sub\n        /* \"--CODEGEN--\":22:54   */\n      sub\n        /* \"--CODEGEN--\":13:20   */\n      dup2\n        /* \"--CODEGEN--\":6:55   */\n      mstore\n        /* \"Funciones avanzadas/require.sol\":242:265  abi.encodePacked(_pass) */\n      swap1\n      0x40\n      mstore\n        /* \"Funciones avanzadas/require.sol\":232:266  keccak256(abi.encodePacked(_pass)) */\n      dup1\n      mload\n      swap1\n      0x20\n      add\n      keccak256\n        /* \"Funciones avanzadas/require.sol\":232:306  keccak256(abi.encodePacked(_pass)) == keccak256(abi.encodePacked(\"12345\")) */\n      eq\n        /* \"Funciones avanzadas/require.sol\":224:333  require(keccak256(abi.encodePacked(_pass)) == keccak256(abi.encodePacked(\"12345\")), \"Contraseña incorrecta\") */\n      tag_34\n      jumpi\n      mload(0x40)\n      0x08c379a000000000000000000000000000000000000000000000000000000000\n      dup2\n      mstore\n      0x04\n      add\n      tag_35\n      swap1\n      jump(tag_36)\n    tag_35:\n      mload(0x40)\n      dup1\n      swap2\n      sub\n      swap1\n      revert\n    tag_34:\n        /* \"Funciones avanzadas/require.sol\":344:373  return \"Contraseña correcta\" */\n      mload(0x40)\n      dup1\n      0x40\n      add\n      0x40\n      mstore\n      dup1\n      0x14\n      dup2\n      mstore\n      0x20\n      add\n      0x436f6e7472617365c3b16120636f727265637461000000000000000000000000\n      dup2\n      mstore\n      pop\n      swap1\n      pop\n        /* \"Funciones avanzadas/require.sol\":138:381  function password(string memory _pass) public pure returns (string memory) {\r... */\n      swap2\n      swap1\n      pop\n      jump\t// out\n        /* \"Funciones avanzadas/require.sol\":748:1031  function nuevoNombre(string memory _nombre) public {\r... */\n    tag_24:\n        /* \"Funciones avanzadas/require.sol\":815:821  uint i */\n      0x00\n        /* \"Funciones avanzadas/require.sol\":824:825  0 */\n      dup1\n        /* \"Funciones avanzadas/require.sol\":815:825  uint i = 0 */\n      swap1\n      pop\n        /* \"Funciones avanzadas/require.sol\":810:992  for (uint i = 0; i < nombres.length; i++) {\r... */\n    tag_38:\n        /* \"Funciones avanzadas/require.sol\":831:838  nombres */\n      0x02\n        /* \"Funciones avanzadas/require.sol\":831:845  nombres.length */\n      dup1\n      sload\n      swap1\n      pop\n        /* \"Funciones avanzadas/require.sol\":827:828  i */\n      dup2\n        /* \"Funciones avanzadas/require.sol\":827:845  i < nombres.length */\n      lt\n        /* \"Funciones avanzadas/require.sol\":810:992  for (uint i = 0; i < nombres.length; i++) {\r... */\n      iszero\n      tag_39\n      jumpi\n        /* \"Funciones avanzadas/require.sol\":942:949  nombres */\n      0x02\n        /* \"Funciones avanzadas/require.sol\":950:951  i */\n      dup2\n        /* \"Funciones avanzadas/require.sol\":942:952  nombres[i] */\n      dup2\n      sload\n      dup2\n      lt\n      tag_41\n      jumpi\n      invalid\n    tag_41:\n      swap1\n      0x00\n      mstore\n      keccak256(0x00, 0x20)\n      add\n        /* \"Funciones avanzadas/require.sol\":925:953  abi.encodePacked(nombres[i]) */\n      add(0x20, mload(0x40))\n      tag_43\n      swap2\n      swap1\n      jump(tag_44)\n    tag_43:\n      mload(0x40)\n        /* \"--CODEGEN--\":49:53   */\n      0x20\n        /* \"--CODEGEN--\":39:46   */\n      dup2\n        /* \"--CODEGEN--\":30:37   */\n      dup4\n        /* \"--CODEGEN--\":26:47   */\n      sub\n        /* \"--CODEGEN--\":22:54   */\n      sub\n        /* \"--CODEGEN--\":13:20   */\n      dup2\n        /* \"--CODEGEN--\":6:55   */\n      mstore\n        /* \"Funciones avanzadas/require.sol\":925:953  abi.encodePacked(nombres[i]) */\n      swap1\n      0x40\n      mstore\n        /* \"Funciones avanzadas/require.sol\":915:954  keccak256(abi.encodePacked(nombres[i])) */\n      dup1\n      mload\n      swap1\n      0x20\n      add\n      keccak256\n        /* \"Funciones avanzadas/require.sol\":902:909  _nombre */\n      dup3\n        /* \"Funciones avanzadas/require.sol\":885:910  abi.encodePacked(_nombre) */\n      add(0x20, mload(0x40))\n      tag_45\n      swap2\n      swap1\n      jump(tag_33)\n    tag_45:\n      mload(0x40)\n        /* \"--CODEGEN--\":49:53   */\n      0x20\n        /* \"--CODEGEN--\":39:46   */\n      dup2\n        /* \"--CODEGEN--\":30:37   */\n      dup4\n        /* \"--CODEGEN--\":26:47   */\n      sub\n        /* \"--CODEGEN--\":22:54   */\n      sub\n        /* \"--CODEGEN--\":13:20   */\n      dup2\n        /* \"--CODEGEN--\":6:55   */\n      mstore\n        /* \"Funciones avanzadas/require.sol\":885:910  abi.encodePacked(_nombre) */\n      swap1\n      0x40\n      mstore\n        /* \"Funciones avanzadas/require.sol\":875:911  keccak256(abi.encodePacked(_nombre)) */\n      dup1\n      mload\n      swap1\n      0x20\n      add\n      keccak256\n        /* \"Funciones avanzadas/require.sol\":875:954  keccak256(abi.encodePacked(_nombre)) != keccak256(abi.encodePacked(nombres[i])) */\n      eq\n      iszero\n        /* \"Funciones avanzadas/require.sol\":867:980  require(keccak256(abi.encodePacked(_nombre)) != keccak256(abi.encodePacked(nombres[i])), \"Este nombre ya existe\") */\n      tag_46\n      jumpi\n      mload(0x40)\n      0x08c379a000000000000000000000000000000000000000000000000000000000\n      dup2\n      mstore\n      0x04\n      add\n      tag_47\n      swap1\n      jump(tag_48)\n    tag_47:\n      mload(0x40)\n      dup1\n      swap2\n      sub\n      swap1\n      revert\n    tag_46:\n        /* \"Funciones avanzadas/require.sol\":847:850  i++ */\n      dup1\n      dup1\n      0x01\n      add\n      swap2\n      pop\n      pop\n        /* \"Funciones avanzadas/require.sol\":810:992  for (uint i = 0; i < nombres.length; i++) {\r... */\n      jump(tag_38)\n    tag_39:\n      pop\n        /* \"Funciones avanzadas/require.sol\":1002:1009  nombres */\n      0x02\n        /* \"Funciones avanzadas/require.sol\":1015:1022  _nombre */\n      dup2\n        /* \"Funciones avanzadas/require.sol\":1002:1023  nombres.push(_nombre) */\n      swap1\n      dup1\n        /* \"--CODEGEN--\":39:40   */\n      0x01\n        /* \"--CODEGEN--\":33:36   */\n      dup2\n        /* \"--CODEGEN--\":27:37   */\n      sload\n        /* \"--CODEGEN--\":23:41   */\n      add\n        /* \"--CODEGEN--\":57:67   */\n      dup1\n        /* \"--CODEGEN--\":52:55   */\n      dup3\n        /* \"--CODEGEN--\":45:68   */\n      sstore\n        /* \"--CODEGEN--\":79:89   */\n      dup1\n        /* \"--CODEGEN--\":72:89   */\n      swap2\n      pop\n        /* \"--CODEGEN--\":0:93   */\n      pop\n        /* \"Funciones avanzadas/require.sol\":1002:1023  nombres.push(_nombre) */\n      0x01\n      swap1\n      sub\n      swap1\n      0x00\n      mstore\n      keccak256(0x00, 0x20)\n      add\n      0x00\n      swap1\n      swap2\n      swap1\n      swap2\n      swap1\n      swap2\n      pop\n      swap1\n      dup1\n      mload\n      swap1\n      0x20\n      add\n      swap1\n      tag_50\n      swap3\n      swap2\n      swap1\n      tag_51\n      jump\t// in\n    tag_50:\n      pop\n        /* \"Funciones avanzadas/require.sol\":748:1031  function nuevoNombre(string memory _nombre) public {\r... */\n      pop\n      jump\t// out\n        /* \"Funciones avanzadas/require.sol\":70:1034  contract Require {\r... */\n    tag_51:\n      dup3\n      dup1\n      sload\n      0x01\n      dup2\n      0x01\n      and\n      iszero\n      0x0100\n      mul\n      sub\n      and\n      0x02\n      swap1\n      div\n      swap1\n      0x00\n      mstore\n      keccak256(0x00, 0x20)\n      swap1\n      0x1f\n      add\n      0x20\n      swap1\n      div\n      dup2\n      add\n      swap3\n      dup3\n      0x1f\n      lt\n      tag_53\n      jumpi\n      dup1\n      mload\n      not(0xff)\n      and\n      dup4\n      dup1\n      add\n      or\n      dup6\n      sstore\n      jump(tag_52)\n    tag_53:\n      dup3\n      dup1\n      add\n      0x01\n      add\n      dup6\n      sstore\n      dup3\n      iszero\n      tag_52\n      jumpi\n      swap2\n      dup3\n      add\n    tag_54:\n      dup3\n      dup2\n      gt\n      iszero\n      tag_55\n      jumpi\n      dup3\n      mload\n      dup3\n      sstore\n      swap2\n      0x20\n      add\n      swap2\n      swap1\n      0x01\n      add\n      swap1\n      jump(tag_54)\n    tag_55:\n    tag_52:\n      pop\n      swap1\n      pop\n      tag_56\n      swap2\n      swap1\n      tag_57\n      jump\t// in\n    tag_56:\n      pop\n      swap1\n      jump\t// out\n    tag_57:\n      tag_58\n      swap2\n      swap1\n    tag_59:\n      dup1\n      dup3\n      gt\n      iszero\n      tag_60\n      jumpi\n      0x00\n      dup2\n      0x00\n      swap1\n      sstore\n      pop\n      0x01\n      add\n      jump(tag_59)\n    tag_60:\n      pop\n      swap1\n      jump\n    tag_58:\n      swap1\n      jump\t// out\n        /* \"--CODEGEN--\":6:448   */\n    tag_62:\n      0x00\n        /* \"--CODEGEN--\":108:111   */\n      dup3\n        /* \"--CODEGEN--\":101:105   */\n      0x1f\n        /* \"--CODEGEN--\":93:99   */\n      dup4\n        /* \"--CODEGEN--\":89:106   */\n      add\n        /* \"--CODEGEN--\":85:112   */\n      slt\n        /* \"--CODEGEN--\":75:77   */\n      tag_64\n      jumpi\n        /* \"--CODEGEN--\":126:127   */\n      0x00\n        /* \"--CODEGEN--\":123:124   */\n      dup1\n        /* \"--CODEGEN--\":116:128   */\n      revert\n        /* \"--CODEGEN--\":75:77   */\n    tag_64:\n        /* \"--CODEGEN--\":163:169   */\n      dup2\n        /* \"--CODEGEN--\":150:170   */\n      calldataload\n        /* \"--CODEGEN--\":185:250   */\n      tag_65\n        /* \"--CODEGEN--\":200:249   */\n      tag_66\n        /* \"--CODEGEN--\":242:248   */\n      dup3\n        /* \"--CODEGEN--\":200:249   */\n      jump(tag_67)\n    tag_66:\n        /* \"--CODEGEN--\":185:250   */\n      jump(tag_68)\n    tag_65:\n        /* \"--CODEGEN--\":176:250   */\n      swap2\n      pop\n        /* \"--CODEGEN--\":270:276   */\n      dup1\n        /* \"--CODEGEN--\":263:268   */\n      dup3\n        /* \"--CODEGEN--\":256:277   */\n      mstore\n        /* \"--CODEGEN--\":306:310   */\n      0x20\n        /* \"--CODEGEN--\":298:304   */\n      dup4\n        /* \"--CODEGEN--\":294:311   */\n      add\n        /* \"--CODEGEN--\":339:343   */\n      0x20\n        /* \"--CODEGEN--\":332:337   */\n      dup4\n        /* \"--CODEGEN--\":328:344   */\n      add\n        /* \"--CODEGEN--\":374:377   */\n      dup6\n        /* \"--CODEGEN--\":365:371   */\n      dup4\n        /* \"--CODEGEN--\":360:363   */\n      dup4\n        /* \"--CODEGEN--\":356:372   */\n      add\n        /* \"--CODEGEN--\":353:378   */\n      gt\n        /* \"--CODEGEN--\":350:352   */\n      iszero\n      tag_69\n      jumpi\n        /* \"--CODEGEN--\":391:392   */\n      0x00\n        /* \"--CODEGEN--\":388:389   */\n      dup1\n        /* \"--CODEGEN--\":381:393   */\n      revert\n        /* \"--CODEGEN--\":350:352   */\n    tag_69:\n        /* \"--CODEGEN--\":401:442   */\n      tag_70\n        /* \"--CODEGEN--\":435:441   */\n      dup4\n        /* \"--CODEGEN--\":430:433   */\n      dup3\n        /* \"--CODEGEN--\":425:428   */\n      dup5\n        /* \"--CODEGEN--\":401:442   */\n      jump(tag_71)\n    tag_70:\n        /* \"--CODEGEN--\":68:448   */\n      pop\n      pop\n      pop\n      swap3\n      swap2\n      pop\n      pop\n      jump\n        /* \"--CODEGEN--\":456:586   */\n    tag_72:\n      0x00\n        /* \"--CODEGEN--\":536:542   */\n      dup2\n        /* \"--CODEGEN--\":523:543   */\n      calldataload\n        /* \"--CODEGEN--\":514:543   */\n      swap1\n      pop\n        /* \"--CODEGEN--\":548:581   */\n      tag_74\n        /* \"--CODEGEN--\":575:580   */\n      dup2\n        /* \"--CODEGEN--\":548:581   */\n      jump(tag_75)\n    tag_74:\n        /* \"--CODEGEN--\":508:586   */\n      swap3\n      swap2\n      pop\n      pop\n      jump\n        /* \"--CODEGEN--\":593:940   */\n    tag_18:\n      0x00\n        /* \"--CODEGEN--\":707:709   */\n      0x20\n        /* \"--CODEGEN--\":695:704   */\n      dup3\n        /* \"--CODEGEN--\":686:693   */\n      dup5\n        /* \"--CODEGEN--\":682:705   */\n      sub\n        /* \"--CODEGEN--\":678:710   */\n      slt\n        /* \"--CODEGEN--\":675:677   */\n      iszero\n      tag_77\n      jumpi\n        /* \"--CODEGEN--\":723:724   */\n      0x00\n        /* \"--CODEGEN--\":720:721   */\n      dup1\n        /* \"--CODEGEN--\":713:725   */\n      revert\n        /* \"--CODEGEN--\":675:677   */\n    tag_77:\n        /* \"--CODEGEN--\":786:787   */\n      0x00\n        /* \"--CODEGEN--\":775:784   */\n      dup3\n        /* \"--CODEGEN--\":771:788   */\n      add\n        /* \"--CODEGEN--\":758:789   */\n      calldataload\n        /* \"--CODEGEN--\":809:827   */\n      0xffffffffffffffff\n        /* \"--CODEGEN--\":801:807   */\n      dup2\n        /* \"--CODEGEN--\":798:828   */\n      gt\n        /* \"--CODEGEN--\":795:797   */\n      iszero\n      tag_78\n      jumpi\n        /* \"--CODEGEN--\":841:842   */\n      0x00\n        /* \"--CODEGEN--\":838:839   */\n      dup1\n        /* \"--CODEGEN--\":831:843   */\n      revert\n        /* \"--CODEGEN--\":795:797   */\n    tag_78:\n        /* \"--CODEGEN--\":861:924   */\n      tag_79\n        /* \"--CODEGEN--\":916:923   */\n      dup5\n        /* \"--CODEGEN--\":907:913   */\n      dup3\n        /* \"--CODEGEN--\":896:905   */\n      dup6\n        /* \"--CODEGEN--\":892:914   */\n      add\n        /* \"--CODEGEN--\":861:924   */\n      jump(tag_62)\n    tag_79:\n        /* \"--CODEGEN--\":851:924   */\n      swap2\n      pop\n        /* \"--CODEGEN--\":737:930   */\n      pop\n        /* \"--CODEGEN--\":669:940   */\n      swap3\n      swap2\n      pop\n      pop\n      jump\n        /* \"--CODEGEN--\":947:1188   */\n    tag_9:\n      0x00\n        /* \"--CODEGEN--\":1051:1053   */\n      0x20\n        /* \"--CODEGEN--\":1039:1048   */\n      dup3\n        /* \"--CODEGEN--\":1030:1037   */\n      dup5\n        /* \"--CODEGEN--\":1026:1049   */\n      sub\n        /* \"--CODEGEN--\":1022:1054   */\n      slt\n        /* \"--CODEGEN--\":1019:1021   */\n      iszero\n      tag_81\n      jumpi\n        /* \"--CODEGEN--\":1067:1068   */\n      0x00\n        /* \"--CODEGEN--\":1064:1065   */\n      dup1\n        /* \"--CODEGEN--\":1057:1069   */\n      revert\n        /* \"--CODEGEN--\":1019:1021   */\n    tag_81:\n        /* \"--CODEGEN--\":1102:1103   */\n      0x00\n        /* \"--CODEGEN--\":1119:1172   */\n      tag_82\n        /* \"--CODEGEN--\":1164:1171   */\n      dup5\n        /* \"--CODEGEN--\":1155:1161   */\n      dup3\n        /* \"--CODEGEN--\":1144:1153   */\n      dup6\n        /* \"--CODEGEN--\":1140:1162   */\n      add\n        /* \"--CODEGEN--\":1119:1172   */\n      jump(tag_72)\n    tag_82:\n        /* \"--CODEGEN--\":1109:1172   */\n      swap2\n      pop\n        /* \"--CODEGEN--\":1081:1178   */\n      pop\n        /* \"--CODEGEN--\":1013:1188   */\n      swap3\n      swap2\n      pop\n      pop\n      jump\n        /* \"--CODEGEN--\":1195:1542   */\n    tag_83:\n      0x00\n        /* \"--CODEGEN--\":1307:1346   */\n      tag_85\n        /* \"--CODEGEN--\":1340:1345   */\n      dup3\n        /* \"--CODEGEN--\":1307:1346   */\n      jump(tag_86)\n    tag_85:\n        /* \"--CODEGEN--\":1358:1429   */\n      tag_87\n        /* \"--CODEGEN--\":1422:1428   */\n      dup2\n        /* \"--CODEGEN--\":1417:1420   */\n      dup6\n        /* \"--CODEGEN--\":1358:1429   */\n      jump(tag_88)\n    tag_87:\n        /* \"--CODEGEN--\":1351:1429   */\n      swap4\n      pop\n        /* \"--CODEGEN--\":1434:1486   */\n      tag_89\n        /* \"--CODEGEN--\":1479:1485   */\n      dup2\n        /* \"--CODEGEN--\":1474:1477   */\n      dup6\n        /* \"--CODEGEN--\":1467:1471   */\n      0x20\n        /* \"--CODEGEN--\":1460:1465   */\n      dup7\n        /* \"--CODEGEN--\":1456:1472   */\n      add\n        /* \"--CODEGEN--\":1434:1486   */\n      jump(tag_90)\n    tag_89:\n        /* \"--CODEGEN--\":1507:1536   */\n      tag_91\n        /* \"--CODEGEN--\":1529:1535   */\n      dup2\n        /* \"--CODEGEN--\":1507:1536   */\n      jump(tag_92)\n    tag_91:\n        /* \"--CODEGEN--\":1502:1505   */\n      dup5\n        /* \"--CODEGEN--\":1498:1537   */\n      add\n        /* \"--CODEGEN--\":1491:1537   */\n      swap2\n      pop\n        /* \"--CODEGEN--\":1287:1542   */\n      pop\n      swap3\n      swap2\n      pop\n      pop\n      jump\n        /* \"--CODEGEN--\":1549:1909   */\n    tag_93:\n      0x00\n        /* \"--CODEGEN--\":1679:1718   */\n      tag_95\n        /* \"--CODEGEN--\":1712:1717   */\n      dup3\n        /* \"--CODEGEN--\":1679:1718   */\n      jump(tag_86)\n    tag_95:\n        /* \"--CODEGEN--\":1730:1819   */\n      tag_96\n        /* \"--CODEGEN--\":1812:1818   */\n      dup2\n        /* \"--CODEGEN--\":1807:1810   */\n      dup6\n        /* \"--CODEGEN--\":1730:1819   */\n      jump(tag_97)\n    tag_96:\n        /* \"--CODEGEN--\":1723:1819   */\n      swap4\n      pop\n        /* \"--CODEGEN--\":1824:1876   */\n      tag_98\n        /* \"--CODEGEN--\":1869:1875   */\n      dup2\n        /* \"--CODEGEN--\":1864:1867   */\n      dup6\n        /* \"--CODEGEN--\":1857:1861   */\n      0x20\n        /* \"--CODEGEN--\":1850:1855   */\n      dup7\n        /* \"--CODEGEN--\":1846:1862   */\n      add\n        /* \"--CODEGEN--\":1824:1876   */\n      jump(tag_90)\n    tag_98:\n        /* \"--CODEGEN--\":1897:1903   */\n      dup1\n        /* \"--CODEGEN--\":1892:1895   */\n      dup5\n        /* \"--CODEGEN--\":1888:1904   */\n      add\n        /* \"--CODEGEN--\":1881:1904   */\n      swap2\n      pop\n        /* \"--CODEGEN--\":1659:1909   */\n      pop\n      swap3\n      swap2\n      pop\n      pop\n      jump\n        /* \"--CODEGEN--\":1941:2825   */\n    tag_99:\n      0x00\n        /* \"--CODEGEN--\":2078:2083   */\n      dup2\n        /* \"--CODEGEN--\":2072:2084   */\n      sload\n        /* \"--CODEGEN--\":2112:2113   */\n      0x01\n        /* \"--CODEGEN--\":2101:2110   */\n      dup2\n        /* \"--CODEGEN--\":2097:2114   */\n      and\n        /* \"--CODEGEN--\":2125:2126   */\n      0x00\n        /* \"--CODEGEN--\":2120:2388   */\n      dup2\n      eq\n      tag_102\n      jumpi\n        /* \"--CODEGEN--\":2399:2400   */\n      0x01\n        /* \"--CODEGEN--\":2394:2819   */\n      dup2\n      eq\n      tag_103\n      jumpi\n        /* \"--CODEGEN--\":2090:2819   */\n      jump(tag_101)\n        /* \"--CODEGEN--\":2120:2388   */\n    tag_102:\n        /* \"--CODEGEN--\":2198:2202   */\n      0x7f\n        /* \"--CODEGEN--\":2194:2195   */\n      0x02\n        /* \"--CODEGEN--\":2183:2192   */\n      dup4\n        /* \"--CODEGEN--\":2179:2196   */\n      div\n        /* \"--CODEGEN--\":2175:2203   */\n      and\n        /* \"--CODEGEN--\":2217:2306   */\n      tag_104\n        /* \"--CODEGEN--\":2299:2305   */\n      dup2\n        /* \"--CODEGEN--\":2294:2297   */\n      dup8\n        /* \"--CODEGEN--\":2217:2306   */\n      jump(tag_97)\n    tag_104:\n        /* \"--CODEGEN--\":2210:2306   */\n      swap6\n      pop\n        /* \"--CODEGEN--\":2344:2348   */\n      0xff\n        /* \"--CODEGEN--\":2340:2349   */\n      not\n        /* \"--CODEGEN--\":2329:2338   */\n      dup4\n        /* \"--CODEGEN--\":2325:2350   */\n      and\n        /* \"--CODEGEN--\":2320:2323   */\n      dup7\n        /* \"--CODEGEN--\":2313:2351   */\n      mstore\n        /* \"--CODEGEN--\":2374:2380   */\n      dup1\n        /* \"--CODEGEN--\":2369:2372   */\n      dup7\n        /* \"--CODEGEN--\":2365:2381   */\n      add\n        /* \"--CODEGEN--\":2358:2381   */\n      swap4\n      pop\n        /* \"--CODEGEN--\":2127:2388   */\n      pop\n        /* \"--CODEGEN--\":2120:2388   */\n      jump(tag_101)\n        /* \"--CODEGEN--\":2394:2819   */\n    tag_103:\n        /* \"--CODEGEN--\":2463:2464   */\n      0x02\n        /* \"--CODEGEN--\":2452:2461   */\n      dup3\n        /* \"--CODEGEN--\":2448:2465   */\n      div\n        /* \"--CODEGEN--\":2479:2568   */\n      tag_105\n        /* \"--CODEGEN--\":2561:2567   */\n      dup2\n        /* \"--CODEGEN--\":2556:2559   */\n      dup8\n        /* \"--CODEGEN--\":2479:2568   */\n      jump(tag_97)\n    tag_105:\n        /* \"--CODEGEN--\":2472:2568   */\n      swap6\n      pop\n        /* \"--CODEGEN--\":2590:2628   */\n      tag_106\n        /* \"--CODEGEN--\":2622:2627   */\n      dup6\n        /* \"--CODEGEN--\":2590:2628   */\n      jump(tag_107)\n    tag_106:\n        /* \"--CODEGEN--\":2644:2645   */\n      0x00\n        /* \"--CODEGEN--\":2652:2782   */\n    tag_108:\n        /* \"--CODEGEN--\":2666:2672   */\n      dup3\n        /* \"--CODEGEN--\":2663:2664   */\n      dup2\n        /* \"--CODEGEN--\":2660:2673   */\n      lt\n        /* \"--CODEGEN--\":2652:2782   */\n      iszero\n      tag_110\n      jumpi\n        /* \"--CODEGEN--\":2731:2738   */\n      dup2\n        /* \"--CODEGEN--\":2725:2739   */\n      sload\n        /* \"--CODEGEN--\":2721:2722   */\n      dup2\n        /* \"--CODEGEN--\":2716:2719   */\n      dup10\n        /* \"--CODEGEN--\":2712:2723   */\n      add\n        /* \"--CODEGEN--\":2705:2740   */\n      mstore\n        /* \"--CODEGEN--\":2772:2773   */\n      0x01\n        /* \"--CODEGEN--\":2763:2770   */\n      dup3\n        /* \"--CODEGEN--\":2759:2774   */\n      add\n        /* \"--CODEGEN--\":2748:2774   */\n      swap2\n      pop\n        /* \"--CODEGEN--\":2688:2692   */\n      0x20\n        /* \"--CODEGEN--\":2685:2686   */\n      dup2\n        /* \"--CODEGEN--\":2681:2693   */\n      add\n        /* \"--CODEGEN--\":2676:2693   */\n      swap1\n      pop\n        /* \"--CODEGEN--\":2652:2782   */\n      jump(tag_108)\n    tag_110:\n        /* \"--CODEGEN--\":2805:2811   */\n      dup3\n        /* \"--CODEGEN--\":2800:2803   */\n      dup9\n        /* \"--CODEGEN--\":2796:2812   */\n      add\n        /* \"--CODEGEN--\":2789:2812   */\n      swap6\n      pop\n        /* \"--CODEGEN--\":2401:2819   */\n      pop\n      pop\n      pop\n        /* \"--CODEGEN--\":2090:2819   */\n    tag_101:\n      pop\n        /* \"--CODEGEN--\":2048:2825   */\n      pop\n      swap3\n      swap2\n      pop\n      pop\n      jump\n        /* \"--CODEGEN--\":2834:3198   */\n    tag_111:\n      0x00\n        /* \"--CODEGEN--\":2994:3061   */\n      tag_113\n        /* \"--CODEGEN--\":3058:3060   */\n      0x16\n        /* \"--CODEGEN--\":3053:3056   */\n      dup4\n        /* \"--CODEGEN--\":2994:3061   */\n      jump(tag_88)\n    tag_113:\n        /* \"--CODEGEN--\":2987:3061   */\n      swap2\n      pop\n        /* \"--CODEGEN--\":3094:3160   */\n      0x436f6e7472617365c3b16120696e636f72726563746100000000000000000000\n        /* \"--CODEGEN--\":3090:3091   */\n      0x00\n        /* \"--CODEGEN--\":3085:3088   */\n      dup4\n        /* \"--CODEGEN--\":3081:3092   */\n      add\n        /* \"--CODEGEN--\":3074:3161   */\n      mstore\n        /* \"--CODEGEN--\":3189:3191   */\n      0x20\n        /* \"--CODEGEN--\":3184:3187   */\n      dup3\n        /* \"--CODEGEN--\":3180:3192   */\n      add\n        /* \"--CODEGEN--\":3173:3192   */\n      swap1\n      pop\n        /* \"--CODEGEN--\":2980:3198   */\n      swap2\n      swap1\n      pop\n      jump\n        /* \"--CODEGEN--\":3207:3546   */\n    tag_114:\n      0x00\n        /* \"--CODEGEN--\":3385:3469   */\n      tag_116\n        /* \"--CODEGEN--\":3467:3468   */\n      0x05\n        /* \"--CODEGEN--\":3462:3465   */\n      dup4\n        /* \"--CODEGEN--\":3385:3469   */\n      jump(tag_97)\n    tag_116:\n        /* \"--CODEGEN--\":3378:3469   */\n      swap2\n      pop\n        /* \"--CODEGEN--\":3502:3509   */\n      0x3132333435000000000000000000000000000000000000000000000000000000\n        /* \"--CODEGEN--\":3498:3499   */\n      0x00\n        /* \"--CODEGEN--\":3493:3496   */\n      dup4\n        /* \"--CODEGEN--\":3489:3500   */\n      add\n        /* \"--CODEGEN--\":3482:3510   */\n      mstore\n        /* \"--CODEGEN--\":3538:3539   */\n      0x05\n        /* \"--CODEGEN--\":3533:3536   */\n      dup3\n        /* \"--CODEGEN--\":3529:3540   */\n      add\n        /* \"--CODEGEN--\":3522:3540   */\n      swap1\n      pop\n        /* \"--CODEGEN--\":3371:3546   */\n      swap2\n      swap1\n      pop\n      jump\n        /* \"--CODEGEN--\":3555:3883   */\n    tag_117:\n      0x00\n        /* \"--CODEGEN--\":3715:3782   */\n      tag_119\n        /* \"--CODEGEN--\":3779:3781   */\n      0x1c\n        /* \"--CODEGEN--\":3774:3777   */\n      dup4\n        /* \"--CODEGEN--\":3715:3782   */\n      jump(tag_88)\n    tag_119:\n        /* \"--CODEGEN--\":3708:3782   */\n      swap2\n      pop\n        /* \"--CODEGEN--\":3815:3845   */\n      0x41756e206e6f20707565646573207061676172206465206e7565766f00000000\n        /* \"--CODEGEN--\":3811:3812   */\n      0x00\n        /* \"--CODEGEN--\":3806:3809   */\n      dup4\n        /* \"--CODEGEN--\":3802:3813   */\n      add\n        /* \"--CODEGEN--\":3795:3846   */\n      mstore\n        /* \"--CODEGEN--\":3874:3876   */\n      0x20\n        /* \"--CODEGEN--\":3869:3872   */\n      dup3\n        /* \"--CODEGEN--\":3865:3877   */\n      add\n        /* \"--CODEGEN--\":3858:3877   */\n      swap1\n      pop\n        /* \"--CODEGEN--\":3701:3883   */\n      swap2\n      swap1\n      pop\n      jump\n        /* \"--CODEGEN--\":3892:4213   */\n    tag_120:\n      0x00\n        /* \"--CODEGEN--\":4052:4119   */\n      tag_122\n        /* \"--CODEGEN--\":4116:4118   */\n      0x15\n        /* \"--CODEGEN--\":4111:4114   */\n      dup4\n        /* \"--CODEGEN--\":4052:4119   */\n      jump(tag_88)\n    tag_122:\n        /* \"--CODEGEN--\":4045:4119   */\n      swap2\n      pop\n        /* \"--CODEGEN--\":4152:4175   */\n      0x45737465206e6f6d627265207961206578697374650000000000000000000000\n        /* \"--CODEGEN--\":4148:4149   */\n      0x00\n        /* \"--CODEGEN--\":4143:4146   */\n      dup4\n        /* \"--CODEGEN--\":4139:4150   */\n      add\n        /* \"--CODEGEN--\":4132:4176   */\n      mstore\n        /* \"--CODEGEN--\":4204:4206   */\n      0x20\n        /* \"--CODEGEN--\":4199:4202   */\n      dup3\n        /* \"--CODEGEN--\":4195:4207   */\n      add\n        /* \"--CODEGEN--\":4188:4207   */\n      swap1\n      pop\n        /* \"--CODEGEN--\":4038:4213   */\n      swap2\n      swap1\n      pop\n      jump\n        /* \"--CODEGEN--\":4221:4334   */\n    tag_123:\n        /* \"--CODEGEN--\":4304:4328   */\n      tag_125\n        /* \"--CODEGEN--\":4322:4327   */\n      dup2\n        /* \"--CODEGEN--\":4304:4328   */\n      jump(tag_126)\n    tag_125:\n        /* \"--CODEGEN--\":4299:4302   */\n      dup3\n        /* \"--CODEGEN--\":4292:4329   */\n      mstore\n        /* \"--CODEGEN--\":4286:4334   */\n      pop\n      pop\n      jump\n        /* \"--CODEGEN--\":4341:4607   */\n    tag_33:\n      0x00\n        /* \"--CODEGEN--\":4487:4582   */\n      tag_128\n        /* \"--CODEGEN--\":4578:4581   */\n      dup3\n        /* \"--CODEGEN--\":4569:4575   */\n      dup5\n        /* \"--CODEGEN--\":4487:4582   */\n      jump(tag_93)\n    tag_128:\n        /* \"--CODEGEN--\":4480:4582   */\n      swap2\n      pop\n        /* \"--CODEGEN--\":4599:4602   */\n      dup2\n        /* \"--CODEGEN--\":4592:4602   */\n      swap1\n      pop\n        /* \"--CODEGEN--\":4468:4607   */\n      swap3\n      swap2\n      pop\n      pop\n      jump\n        /* \"--CODEGEN--\":4614:4874   */\n    tag_44:\n      0x00\n        /* \"--CODEGEN--\":4757:4849   */\n      tag_130\n        /* \"--CODEGEN--\":4845:4848   */\n      dup3\n        /* \"--CODEGEN--\":4836:4842   */\n      dup5\n        /* \"--CODEGEN--\":4757:4849   */\n      jump(tag_99)\n    tag_130:\n        /* \"--CODEGEN--\":4750:4849   */\n      swap2\n      pop\n        /* \"--CODEGEN--\":4866:4869   */\n      dup2\n        /* \"--CODEGEN--\":4859:4869   */\n      swap1\n      pop\n        /* \"--CODEGEN--\":4738:4874   */\n      swap3\n      swap2\n      pop\n      pop\n      jump\n        /* \"--CODEGEN--\":4881:5253   */\n    tag_31:\n      0x00\n        /* \"--CODEGEN--\":5080:5228   */\n      tag_132\n        /* \"--CODEGEN--\":5224:5227   */\n      dup3\n        /* \"--CODEGEN--\":5080:5228   */\n      jump(tag_114)\n    tag_132:\n        /* \"--CODEGEN--\":5073:5228   */\n      swap2\n      pop\n        /* \"--CODEGEN--\":5245:5248   */\n      dup2\n        /* \"--CODEGEN--\":5238:5248   */\n      swap1\n      pop\n        /* \"--CODEGEN--\":5061:5253   */\n      swap2\n      swap1\n      pop\n      jump\n        /* \"--CODEGEN--\":5260:5561   */\n    tag_21:\n      0x00\n        /* \"--CODEGEN--\":5398:5400   */\n      0x20\n        /* \"--CODEGEN--\":5387:5396   */\n      dup3\n        /* \"--CODEGEN--\":5383:5401   */\n      add\n        /* \"--CODEGEN--\":5375:5401   */\n      swap1\n      pop\n        /* \"--CODEGEN--\":5448:5457   */\n      dup2\n        /* \"--CODEGEN--\":5442:5446   */\n      dup2\n        /* \"--CODEGEN--\":5438:5458   */\n      sub\n        /* \"--CODEGEN--\":5434:5435   */\n      0x00\n        /* \"--CODEGEN--\":5423:5432   */\n      dup4\n        /* \"--CODEGEN--\":5419:5436   */\n      add\n        /* \"--CODEGEN--\":5412:5459   */\n      mstore\n        /* \"--CODEGEN--\":5473:5551   */\n      tag_134\n        /* \"--CODEGEN--\":5546:5550   */\n      dup2\n        /* \"--CODEGEN--\":5537:5543   */\n      dup5\n        /* \"--CODEGEN--\":5473:5551   */\n      jump(tag_83)\n    tag_134:\n        /* \"--CODEGEN--\":5465:5551   */\n      swap1\n      pop\n        /* \"--CODEGEN--\":5369:5561   */\n      swap3\n      swap2\n      pop\n      pop\n      jump\n        /* \"--CODEGEN--\":5568:5975   */\n    tag_36:\n      0x00\n        /* \"--CODEGEN--\":5759:5761   */\n      0x20\n        /* \"--CODEGEN--\":5748:5757   */\n      dup3\n        /* \"--CODEGEN--\":5744:5762   */\n      add\n        /* \"--CODEGEN--\":5736:5762   */\n      swap1\n      pop\n        /* \"--CODEGEN--\":5809:5818   */\n      dup2\n        /* \"--CODEGEN--\":5803:5807   */\n      dup2\n        /* \"--CODEGEN--\":5799:5819   */\n      sub\n        /* \"--CODEGEN--\":5795:5796   */\n      0x00\n        /* \"--CODEGEN--\":5784:5793   */\n      dup4\n        /* \"--CODEGEN--\":5780:5797   */\n      add\n        /* \"--CODEGEN--\":5773:5820   */\n      mstore\n        /* \"--CODEGEN--\":5834:5965   */\n      tag_136\n        /* \"--CODEGEN--\":5960:5964   */\n      dup2\n        /* \"--CODEGEN--\":5834:5965   */\n      jump(tag_111)\n    tag_136:\n        /* \"--CODEGEN--\":5826:5965   */\n      swap1\n      pop\n        /* \"--CODEGEN--\":5730:5975   */\n      swap2\n      swap1\n      pop\n      jump\n        /* \"--CODEGEN--\":5982:6389   */\n    tag_28:\n      0x00\n        /* \"--CODEGEN--\":6173:6175   */\n      0x20\n        /* \"--CODEGEN--\":6162:6171   */\n      dup3\n        /* \"--CODEGEN--\":6158:6176   */\n      add\n        /* \"--CODEGEN--\":6150:6176   */\n      swap1\n      pop\n        /* \"--CODEGEN--\":6223:6232   */\n      dup2\n        /* \"--CODEGEN--\":6217:6221   */\n      dup2\n        /* \"--CODEGEN--\":6213:6233   */\n      sub\n        /* \"--CODEGEN--\":6209:6210   */\n      0x00\n        /* \"--CODEGEN--\":6198:6207   */\n      dup4\n        /* \"--CODEGEN--\":6194:6211   */\n      add\n        /* \"--CODEGEN--\":6187:6234   */\n      mstore\n        /* \"--CODEGEN--\":6248:6379   */\n      tag_138\n        /* \"--CODEGEN--\":6374:6378   */\n      dup2\n        /* \"--CODEGEN--\":6248:6379   */\n      jump(tag_117)\n    tag_138:\n        /* \"--CODEGEN--\":6240:6379   */\n      swap1\n      pop\n        /* \"--CODEGEN--\":6144:6389   */\n      swap2\n      swap1\n      pop\n      jump\n        /* \"--CODEGEN--\":6396:6803   */\n    tag_48:\n      0x00\n        /* \"--CODEGEN--\":6587:6589   */\n      0x20\n        /* \"--CODEGEN--\":6576:6585   */\n      dup3\n        /* \"--CODEGEN--\":6572:6590   */\n      add\n        /* \"--CODEGEN--\":6564:6590   */\n      swap1\n      pop\n        /* \"--CODEGEN--\":6637:6646   */\n      dup2\n        /* \"--CODEGEN--\":6631:6635   */\n      dup2\n        /* \"--CODEGEN--\":6627:6647   */\n      sub\n        /* \"--CODEGEN--\":6623:6624   */\n      0x00\n        /* \"--CODEGEN--\":6612:6621   */\n      dup4\n        /* \"--CODEGEN--\":6608:6625   */\n      add\n        /* \"--CODEGEN--\":6601:6648   */\n      mstore\n        /* \"--CODEGEN--\":6662:6793   */\n      tag_140\n        /* \"--CODEGEN--\":6788:6792   */\n      dup2\n        /* \"--CODEGEN--\":6662:6793   */\n      jump(tag_120)\n    tag_140:\n        /* \"--CODEGEN--\":6654:6793   */\n      swap1\n      pop\n        /* \"--CODEGEN--\":6558:6803   */\n      swap2\n      swap1\n      pop\n      jump\n        /* \"--CODEGEN--\":6810:7023   */\n    tag_12:\n      0x00\n        /* \"--CODEGEN--\":6928:6930   */\n      0x20\n        /* \"--CODEGEN--\":6917:6926   */\n      dup3\n        /* \"--CODEGEN--\":6913:6931   */\n      add\n        /* \"--CODEGEN--\":6905:6931   */\n      swap1\n      pop\n        /* \"--CODEGEN--\":6942:7013   */\n      tag_142\n        /* \"--CODEGEN--\":7010:7011   */\n      0x00\n        /* \"--CODEGEN--\":6999:7008   */\n      dup4\n        /* \"--CODEGEN--\":6995:7012   */\n      add\n        /* \"--CODEGEN--\":6986:6992   */\n      dup5\n        /* \"--CODEGEN--\":6942:7013   */\n      jump(tag_123)\n    tag_142:\n        /* \"--CODEGEN--\":6899:7023   */\n      swap3\n      swap2\n      pop\n      pop\n      jump\n        /* \"--CODEGEN--\":7030:7286   */\n    tag_68:\n      0x00\n        /* \"--CODEGEN--\":7092:7094   */\n      0x40\n        /* \"--CODEGEN--\":7086:7095   */\n      mload\n        /* \"--CODEGEN--\":7076:7095   */\n      swap1\n      pop\n        /* \"--CODEGEN--\":7130:7134   */\n      dup2\n        /* \"--CODEGEN--\":7122:7128   */\n      dup2\n        /* \"--CODEGEN--\":7118:7135   */\n      add\n        /* \"--CODEGEN--\":7229:7235   */\n      dup2\n        /* \"--CODEGEN--\":7217:7227   */\n      dup2\n        /* \"--CODEGEN--\":7214:7236   */\n      lt\n        /* \"--CODEGEN--\":7193:7211   */\n      0xffffffffffffffff\n        /* \"--CODEGEN--\":7181:7191   */\n      dup3\n        /* \"--CODEGEN--\":7178:7212   */\n      gt\n        /* \"--CODEGEN--\":7175:7237   */\n      or\n        /* \"--CODEGEN--\":7172:7174   */\n      iszero\n      tag_144\n      jumpi\n        /* \"--CODEGEN--\":7250:7251   */\n      0x00\n        /* \"--CODEGEN--\":7247:7248   */\n      dup1\n        /* \"--CODEGEN--\":7240:7252   */\n      revert\n        /* \"--CODEGEN--\":7172:7174   */\n    tag_144:\n        /* \"--CODEGEN--\":7270:7280   */\n      dup1\n        /* \"--CODEGEN--\":7266:7268   */\n      0x40\n        /* \"--CODEGEN--\":7259:7281   */\n      mstore\n        /* \"--CODEGEN--\":7070:7286   */\n      pop\n      swap2\n      swap1\n      pop\n      jump\n        /* \"--CODEGEN--\":7293:7615   */\n    tag_67:\n      0x00\n        /* \"--CODEGEN--\":7437:7455   */\n      0xffffffffffffffff\n        /* \"--CODEGEN--\":7429:7435   */\n      dup3\n        /* \"--CODEGEN--\":7426:7456   */\n      gt\n        /* \"--CODEGEN--\":7423:7425   */\n      iszero\n      tag_146\n      jumpi\n        /* \"--CODEGEN--\":7469:7470   */\n      0x00\n        /* \"--CODEGEN--\":7466:7467   */\n      dup1\n        /* \"--CODEGEN--\":7459:7471   */\n      revert\n        /* \"--CODEGEN--\":7423:7425   */\n    tag_146:\n        /* \"--CODEGEN--\":7536:7540   */\n      0x1f\n        /* \"--CODEGEN--\":7532:7541   */\n      not\n        /* \"--CODEGEN--\":7525:7529   */\n      0x1f\n        /* \"--CODEGEN--\":7517:7523   */\n      dup4\n        /* \"--CODEGEN--\":7513:7530   */\n      add\n        /* \"--CODEGEN--\":7509:7542   */\n      and\n        /* \"--CODEGEN--\":7501:7542   */\n      swap1\n      pop\n        /* \"--CODEGEN--\":7600:7604   */\n      0x20\n        /* \"--CODEGEN--\":7594:7598   */\n      dup2\n        /* \"--CODEGEN--\":7590:7605   */\n      add\n        /* \"--CODEGEN--\":7582:7605   */\n      swap1\n      pop\n        /* \"--CODEGEN--\":7360:7615   */\n      swap2\n      swap1\n      pop\n      jump\n        /* \"--CODEGEN--\":7622:7780   */\n    tag_107:\n      0x00\n        /* \"--CODEGEN--\":7690:7693   */\n      dup2\n        /* \"--CODEGEN--\":7682:7693   */\n      swap1\n      pop\n        /* \"--CODEGEN--\":7727:7730   */\n      dup2\n        /* \"--CODEGEN--\":7724:7725   */\n      0x00\n        /* \"--CODEGEN--\":7717:7731   */\n      mstore\n        /* \"--CODEGEN--\":7759:7763   */\n      0x20\n        /* \"--CODEGEN--\":7756:7757   */\n      0x00\n        /* \"--CODEGEN--\":7746:7764   */\n      keccak256\n        /* \"--CODEGEN--\":7738:7764   */\n      swap1\n      pop\n        /* \"--CODEGEN--\":7676:7780   */\n      swap2\n      swap1\n      pop\n      jump\n        /* \"--CODEGEN--\":7787:7909   */\n    tag_86:\n      0x00\n        /* \"--CODEGEN--\":7881:7886   */\n      dup2\n        /* \"--CODEGEN--\":7875:7887   */\n      mload\n        /* \"--CODEGEN--\":7865:7887   */\n      swap1\n      pop\n        /* \"--CODEGEN--\":7846:7909   */\n      swap2\n      swap1\n      pop\n      jump\n        /* \"--CODEGEN--\":7917:8080   */\n    tag_88:\n      0x00\n        /* \"--CODEGEN--\":8032:8038   */\n      dup3\n        /* \"--CODEGEN--\":8027:8030   */\n      dup3\n        /* \"--CODEGEN--\":8020:8039   */\n      mstore\n        /* \"--CODEGEN--\":8069:8073   */\n      0x20\n        /* \"--CODEGEN--\":8064:8067   */\n      dup3\n        /* \"--CODEGEN--\":8060:8074   */\n      add\n        /* \"--CODEGEN--\":8045:8074   */\n      swap1\n      pop\n        /* \"--CODEGEN--\":8013:8080   */\n      swap3\n      swap2\n      pop\n      pop\n      jump\n        /* \"--CODEGEN--\":8089:8234   */\n    tag_97:\n      0x00\n        /* \"--CODEGEN--\":8225:8228   */\n      dup2\n        /* \"--CODEGEN--\":8210:8228   */\n      swap1\n      pop\n        /* \"--CODEGEN--\":8203:8234   */\n      swap3\n      swap2\n      pop\n      pop\n      jump\n        /* \"--CODEGEN--\":8242:8314   */\n    tag_126:\n      0x00\n        /* \"--CODEGEN--\":8304:8309   */\n      dup2\n        /* \"--CODEGEN--\":8293:8309   */\n      swap1\n      pop\n        /* \"--CODEGEN--\":8287:8314   */\n      swap2\n      swap1\n      pop\n      jump\n        /* \"--CODEGEN--\":8322:8467   */\n    tag_71:\n        /* \"--CODEGEN--\":8403:8409   */\n      dup3\n        /* \"--CODEGEN--\":8398:8401   */\n      dup2\n        /* \"--CODEGEN--\":8393:8396   */\n      dup4\n        /* \"--CODEGEN--\":8380:8410   */\n      calldatacopy\n        /* \"--CODEGEN--\":8459:8460   */\n      0x00\n        /* \"--CODEGEN--\":8450:8456   */\n      dup4\n        /* \"--CODEGEN--\":8445:8448   */\n      dup4\n        /* \"--CODEGEN--\":8441:8457   */\n      add\n        /* \"--CODEGEN--\":8434:8461   */\n      mstore\n        /* \"--CODEGEN--\":8373:8467   */\n      pop\n      pop\n      pop\n      jump\n        /* \"--CODEGEN--\":8476:8744   */\n    tag_90:\n        /* \"--CODEGEN--\":8541:8542   */\n      0x00\n        /* \"--CODEGEN--\":8548:8649   */\n    tag_154:\n        /* \"--CODEGEN--\":8562:8568   */\n      dup4\n        /* \"--CODEGEN--\":8559:8560   */\n      dup2\n        /* \"--CODEGEN--\":8556:8569   */\n      lt\n        /* \"--CODEGEN--\":8548:8649   */\n      iszero\n      tag_156\n      jumpi\n        /* \"--CODEGEN--\":8638:8639   */\n      dup1\n        /* \"--CODEGEN--\":8633:8636   */\n      dup3\n        /* \"--CODEGEN--\":8629:8640   */\n      add\n        /* \"--CODEGEN--\":8623:8641   */\n      mload\n        /* \"--CODEGEN--\":8619:8620   */\n      dup2\n        /* \"--CODEGEN--\":8614:8617   */\n      dup5\n        /* \"--CODEGEN--\":8610:8621   */\n      add\n        /* \"--CODEGEN--\":8603:8642   */\n      mstore\n        /* \"--CODEGEN--\":8584:8586   */\n      0x20\n        /* \"--CODEGEN--\":8581:8582   */\n      dup2\n        /* \"--CODEGEN--\":8577:8587   */\n      add\n        /* \"--CODEGEN--\":8572:8587   */\n      swap1\n      pop\n        /* \"--CODEGEN--\":8548:8649   */\n      jump(tag_154)\n    tag_156:\n        /* \"--CODEGEN--\":8664:8670   */\n      dup4\n        /* \"--CODEGEN--\":8661:8662   */\n      dup2\n        /* \"--CODEGEN--\":8658:8671   */\n      gt\n        /* \"--CODEGEN--\":8655:8657   */\n      iszero\n      tag_157\n      jumpi\n        /* \"--CODEGEN--\":8729:8730   */\n      0x00\n        /* \"--CODEGEN--\":8720:8726   */\n      dup5\n        /* \"--CODEGEN--\":8715:8718   */\n      dup5\n        /* \"--CODEGEN--\":8711:8727   */\n      add\n        /* \"--CODEGEN--\":8704:8731   */\n      mstore\n        /* \"--CODEGEN--\":8655:8657   */\n    tag_157:\n        /* \"--CODEGEN--\":8525:8744   */\n      pop\n      pop\n      pop\n      pop\n      jump\n        /* \"--CODEGEN--\":8752:8849   */\n    tag_92:\n      0x00\n        /* \"--CODEGEN--\":8840:8842   */\n      0x1f\n        /* \"--CODEGEN--\":8836:8843   */\n      not\n        /* \"--CODEGEN--\":8831:8833   */\n      0x1f\n        /* \"--CODEGEN--\":8824:8829   */\n      dup4\n        /* \"--CODEGEN--\":8820:8834   */\n      add\n        /* \"--CODEGEN--\":8816:8844   */\n      and\n        /* \"--CODEGEN--\":8806:8844   */\n      swap1\n      pop\n        /* \"--CODEGEN--\":8800:8849   */\n      swap2\n      swap1\n      pop\n      jump\n        /* \"--CODEGEN--\":8857:8974   */\n    tag_75:\n        /* \"--CODEGEN--\":8926:8950   */\n      tag_160\n        /* \"--CODEGEN--\":8944:8949   */\n      dup2\n        /* \"--CODEGEN--\":8926:8950   */\n      jump(tag_126)\n    tag_160:\n        /* \"--CODEGEN--\":8919:8924   */\n      dup2\n        /* \"--CODEGEN--\":8916:8951   */\n      eq\n        /* \"--CODEGEN--\":8906:8908   */\n      tag_161\n      jumpi\n        /* \"--CODEGEN--\":8965:8966   */\n      0x00\n        /* \"--CODEGEN--\":8962:8963   */\n      dup1\n        /* \"--CODEGEN--\":8955:8967   */\n      revert\n        /* \"--CODEGEN--\":8906:8908   */\n    tag_161:\n        /* \"--CODEGEN--\":8900:8974   */\n      pop\n      jump\n\n    auxdata: 0xa2646970667358221220d90f6ee9a7ccb84ea41847169d7d181e9a517339fac4a57169bb5ed104a2041464736f6c63430006000033\n}\n",
				"bytecode": {
					"linkReferences": {},
					"object": "608060405260008055600060015534801561001957600080fd5b506108c9806100296000396000f3fe608060405234801561001057600080fd5b506004361061004c5760003560e01c80635c4faad914610051578063694b9d341461008157806371d3f37a1461009f578063f8f552b4146100cf575b600080fd5b61006b6004803603610066919081019061047a565b6100eb565b604051610078919061076f565b60405180910390f35b610089610155565b604051610096919061076f565b60405180910390f35b6100b960048036036100b49190810190610439565b61015b565b6040516100c691906106ed565b60405180910390f35b6100e960048036036100e49190810190610439565b610226565b005b60006005600054014211610134576040517f08c379a000000000000000000000000000000000000000000000000000000000815260040161012b9061072f565b60405180910390fd5b42600081905550816001600082825401925050819055506001549050919050565b60015481565b606060405160200161016c906106d8565b604051602081830303815290604052805190602001208260405160200161019391906106aa565b60405160208183030381529060405280519060200120146101e9576040517f08c379a00000000000000000000000000000000000000000000000000000000081526004016101e09061070f565b60405180910390fd5b6040518060400160405280601481526020017f436f6e7472617365c3b16120636f7272656374610000000000000000000000008152509050919050565b60008090505b6002805490508110156102eb576002818154811061024657fe5b9060005260206000200160405160200161026091906106c1565b604051602081830303815290604052805190602001208260405160200161028791906106aa565b6040516020818303038152906040528051906020012014156102de576040517f08c379a00000000000000000000000000000000000000000000000000000000081526004016102d59061074f565b60405180910390fd5b808060010191505061022c565b5060028190806001815401808255809150506001900390600052602060002001600090919091909150908051906020019061032792919061032b565b5050565b828054600181600116156101000203166002900490600052602060002090601f016020900481019282601f1061036c57805160ff191683800117855561039a565b8280016001018555821561039a579182015b8281111561039957825182559160200191906001019061037e565b5b5090506103a791906103ab565b5090565b6103cd91905b808211156103c95760008160009055506001016103b1565b5090565b90565b600082601f8301126103e157600080fd5b81356103f46103ef826107b7565b61078a565b9150808252602083016020830185838301111561041057600080fd5b61041b838284610829565b50505092915050565b6000813590506104338161087c565b92915050565b60006020828403121561044b57600080fd5b600082013567ffffffffffffffff81111561046557600080fd5b610471848285016103d0565b91505092915050565b60006020828403121561048c57600080fd5b600061049a84828501610424565b91505092915050565b60006104ae826107f8565b6104b88185610803565b93506104c8818560208601610838565b6104d18161086b565b840191505092915050565b60006104e7826107f8565b6104f18185610814565b9350610501818560208601610838565b80840191505092915050565b60008154600181166000811461052a576001811461054f57610593565b607f600283041661053b8187610814565b955060ff1983168652808601935050610593565b6002820461055d8187610814565b9550610568856107e3565b60005b8281101561058a5781548189015260018201915060208101905061056b565b82880195505050505b505092915050565b60006105a8601683610803565b91507f436f6e7472617365c3b16120696e636f727265637461000000000000000000006000830152602082019050919050565b60006105e8600583610814565b91507f31323334350000000000000000000000000000000000000000000000000000006000830152600582019050919050565b6000610628601c83610803565b91507f41756e206e6f20707565646573207061676172206465206e7565766f000000006000830152602082019050919050565b6000610668601583610803565b91507f45737465206e6f6d6272652079612065786973746500000000000000000000006000830152602082019050919050565b6106a48161081f565b82525050565b60006106b682846104dc565b915081905092915050565b60006106cd828461050d565b915081905092915050565b60006106e3826105db565b9150819050919050565b6000602082019050818103600083015261070781846104a3565b905092915050565b600060208201905081810360008301526107288161059b565b9050919050565b600060208201905081810360008301526107488161061b565b9050919050565b600060208201905081810360008301526107688161065b565b9050919050565b6000602082019050610784600083018461069b565b92915050565b6000604051905081810181811067ffffffffffffffff821117156107ad57600080fd5b8060405250919050565b600067ffffffffffffffff8211156107ce57600080fd5b601f19601f8301169050602081019050919050565b60008190508160005260206000209050919050565b600081519050919050565b600082825260208201905092915050565b600081905092915050565b6000819050919050565b82818337600083830152505050565b60005b8381101561085657808201518184015260208101905061083b565b83811115610865576000848401525b50505050565b6000601f19601f8301169050919050565b6108858161081f565b811461089057600080fd5b5056fea2646970667358221220d90f6ee9a7ccb84ea41847169d7d181e9a517339fac4a57169bb5ed104a2041464736f6c63430006000033",
					"opcodes": "PUSH1 0x80 PUSH1 0x40 MSTORE PUSH1 0x0 DUP1 SSTORE PUSH1 0x0 PUSH1 0x1 SSTORE CALLVALUE DUP1 ISZERO PUSH2 0x19 JUMPI PUSH1 0x0 DUP1 REVERT JUMPDEST POP PUSH2 0x8C9 DUP1 PUSH2 0x29 PUSH1 0x0 CODECOPY PUSH1 0x0 RETURN INVALID PUSH1 0x80 PUSH1 0x40 MSTORE CALLVALUE DUP1 ISZERO PUSH2 0x10 JUMPI PUSH1 0x0 DUP1 REVERT JUMPDEST POP PUSH1 0x4 CALLDATASIZE LT PUSH2 0x4C JUMPI PUSH1 0x0 CALLDATALOAD PUSH1 0xE0 SHR DUP1 PUSH4 0x5C4FAAD9 EQ PUSH2 0x51 JUMPI DUP1 PUSH4 0x694B9D34 EQ PUSH2 0x81 JUMPI DUP1 PUSH4 0x71D3F37A EQ PUSH2 0x9F JUMPI DUP1 PUSH4 0xF8F552B4 EQ PUSH2 0xCF JUMPI JUMPDEST PUSH1 0x0 DUP1 REVERT JUMPDEST PUSH2 0x6B PUSH1 0x4 DUP1 CALLDATASIZE SUB PUSH2 0x66 SWAP2 SWAP1 DUP2 ADD SWAP1 PUSH2 0x47A JUMP JUMPDEST PUSH2 0xEB JUMP JUMPDEST PUSH1 0x40 MLOAD PUSH2 0x78 SWAP2 SWAP1 PUSH2 0x76F JUMP JUMPDEST PUSH1 0x40 MLOAD DUP1 SWAP2 SUB SWAP1 RETURN JUMPDEST PUSH2 0x89 PUSH2 0x155 JUMP JUMPDEST PUSH1 0x40 MLOAD PUSH2 0x96 SWAP2 SWAP1 PUSH2 0x76F JUMP JUMPDEST PUSH1 0x40 MLOAD DUP1 SWAP2 SUB SWAP1 RETURN JUMPDEST PUSH2 0xB9 PUSH1 0x4 DUP1 CALLDATASIZE SUB PUSH2 0xB4 SWAP2 SWAP1 DUP2 ADD SWAP1 PUSH2 0x439 JUMP JUMPDEST PUSH2 0x15B JUMP JUMPDEST PUSH1 0x40 MLOAD PUSH2 0xC6 SWAP2 SWAP1 PUSH2 0x6ED JUMP JUMPDEST PUSH1 0x40 MLOAD DUP1 SWAP2 SUB SWAP1 RETURN JUMPDEST PUSH2 0xE9 PUSH1 0x4 DUP1 CALLDATASIZE SUB PUSH2 0xE4 SWAP2 SWAP1 DUP2 ADD SWAP1 PUSH2 0x439 JUMP JUMPDEST PUSH2 0x226 JUMP JUMPDEST STOP JUMPDEST PUSH1 0x0 PUSH1 0x5 PUSH1 0x0 SLOAD ADD TIMESTAMP GT PUSH2 0x134 JUMPI PUSH1 0x40 MLOAD PUSH32 0x8C379A000000000000000000000000000000000000000000000000000000000 DUP2 MSTORE PUSH1 0x4 ADD PUSH2 0x12B SWAP1 PUSH2 0x72F JUMP JUMPDEST PUSH1 0x40 MLOAD DUP1 SWAP2 SUB SWAP1 REVERT JUMPDEST TIMESTAMP PUSH1 0x0 DUP2 SWAP1 SSTORE POP DUP2 PUSH1 0x1 PUSH1 0x0 DUP3 DUP3 SLOAD ADD SWAP3 POP POP DUP2 SWAP1 SSTORE POP PUSH1 0x1 SLOAD SWAP1 POP SWAP2 SWAP1 POP JUMP JUMPDEST PUSH1 0x1 SLOAD DUP2 JUMP JUMPDEST PUSH1 0x60 PUSH1 0x40 MLOAD PUSH1 0x20 ADD PUSH2 0x16C SWAP1 PUSH2 0x6D8 JUMP JUMPDEST PUSH1 0x40 MLOAD PUSH1 0x20 DUP2 DUP4 SUB SUB DUP2 MSTORE SWAP1 PUSH1 0x40 MSTORE DUP1 MLOAD SWAP1 PUSH1 0x20 ADD KECCAK256 DUP3 PUSH1 0x40 MLOAD PUSH1 0x20 ADD PUSH2 0x193 SWAP2 SWAP1 PUSH2 0x6AA JUMP JUMPDEST PUSH1 0x40 MLOAD PUSH1 0x20 DUP2 DUP4 SUB SUB DUP2 MSTORE SWAP1 PUSH1 0x40 MSTORE DUP1 MLOAD SWAP1 PUSH1 0x20 ADD KECCAK256 EQ PUSH2 0x1E9 JUMPI PUSH1 0x40 MLOAD PUSH32 0x8C379A000000000000000000000000000000000000000000000000000000000 DUP2 MSTORE PUSH1 0x4 ADD PUSH2 0x1E0 SWAP1 PUSH2 0x70F JUMP JUMPDEST PUSH1 0x40 MLOAD DUP1 SWAP2 SUB SWAP1 REVERT JUMPDEST PUSH1 0x40 MLOAD DUP1 PUSH1 0x40 ADD PUSH1 0x40 MSTORE DUP1 PUSH1 0x14 DUP2 MSTORE PUSH1 0x20 ADD PUSH32 0x436F6E7472617365C3B16120636F727265637461000000000000000000000000 DUP2 MSTORE POP SWAP1 POP SWAP2 SWAP1 POP JUMP JUMPDEST PUSH1 0x0 DUP1 SWAP1 POP JUMPDEST PUSH1 0x2 DUP1 SLOAD SWAP1 POP DUP2 LT ISZERO PUSH2 0x2EB JUMPI PUSH1 0x2 DUP2 DUP2 SLOAD DUP2 LT PUSH2 0x246 JUMPI INVALID JUMPDEST SWAP1 PUSH1 0x0 MSTORE PUSH1 0x20 PUSH1 0x0 KECCAK256 ADD PUSH1 0x40 MLOAD PUSH1 0x20 ADD PUSH2 0x260 SWAP2 SWAP1 PUSH2 0x6C1 JUMP JUMPDEST PUSH1 0x40 MLOAD PUSH1 0x20 DUP2 DUP4 SUB SUB DUP2 MSTORE SWAP1 PUSH1 0x40 MSTORE DUP1 MLOAD SWAP1 PUSH1 0x20 ADD KECCAK256 DUP3 PUSH1 0x40 MLOAD PUSH1 0x20 ADD PUSH2 0x287 SWAP2 SWAP1 PUSH2 0x6AA JUMP JUMPDEST PUSH1 0x40 MLOAD PUSH1 0x20 DUP2 DUP4 SUB SUB DUP2 MSTORE SWAP1 PUSH1 0x40 MSTORE DUP1 MLOAD SWAP1 PUSH1 0x20 ADD KECCAK256 EQ ISZERO PUSH2 0x2DE JUMPI PUSH1 0x40 MLOAD PUSH32 0x8C379A000000000000000000000000000000000000000000000000000000000 DUP2 MSTORE PUSH1 0x4 ADD PUSH2 0x2D5 SWAP1 PUSH2 0x74F JUMP JUMPDEST PUSH1 0x40 MLOAD DUP1 SWAP2 SUB SWAP1 REVERT JUMPDEST DUP1 DUP1 PUSH1 0x1 ADD SWAP2 POP POP PUSH2 0x22C JUMP JUMPDEST POP PUSH1 0x2 DUP2 SWAP1 DUP1 PUSH1 0x1 DUP2 SLOAD ADD DUP1 DUP3 SSTORE DUP1 SWAP2 POP POP PUSH1 0x1 SWAP1 SUB SWAP1 PUSH1 0x0 MSTORE PUSH1 0x20 PUSH1 0x0 KECCAK256 ADD PUSH1 0x0 SWAP1 SWAP2 SWAP1 SWAP2 SWAP1 SWAP2 POP SWAP1 DUP1 MLOAD SWAP1 PUSH1 0x20 ADD SWAP1 PUSH2 0x327 SWAP3 SWAP2 SWAP1 PUSH2 0x32B JUMP JUMPDEST POP POP JUMP JUMPDEST DUP3 DUP1 SLOAD PUSH1 0x1 DUP2 PUSH1 0x1 AND ISZERO PUSH2 0x100 MUL SUB AND PUSH1 0x2 SWAP1 DIV SWAP1 PUSH1 0x0 MSTORE PUSH1 0x20 PUSH1 0x0 KECCAK256 SWAP1 PUSH1 0x1F ADD PUSH1 0x20 SWAP1 DIV DUP2 ADD SWAP3 DUP3 PUSH1 0x1F LT PUSH2 0x36C JUMPI DUP1 MLOAD PUSH1 0xFF NOT AND DUP4 DUP1 ADD OR DUP6 SSTORE PUSH2 0x39A JUMP JUMPDEST DUP3 DUP1 ADD PUSH1 0x1 ADD DUP6 SSTORE DUP3 ISZERO PUSH2 0x39A JUMPI SWAP2 DUP3 ADD JUMPDEST DUP3 DUP2 GT ISZERO PUSH2 0x399 JUMPI DUP3 MLOAD DUP3 SSTORE SWAP2 PUSH1 0x20 ADD SWAP2 SWAP1 PUSH1 0x1 ADD SWAP1 PUSH2 0x37E JUMP JUMPDEST JUMPDEST POP SWAP1 POP PUSH2 0x3A7 SWAP2 SWAP1 PUSH2 0x3AB JUMP JUMPDEST POP SWAP1 JUMP JUMPDEST PUSH2 0x3CD SWAP2 SWAP1 JUMPDEST DUP1 DUP3 GT ISZERO PUSH2 0x3C9 JUMPI PUSH1 0x0 DUP2 PUSH1 0x0 SWAP1 SSTORE POP PUSH1 0x1 ADD PUSH2 0x3B1 JUMP JUMPDEST POP SWAP1 JUMP JUMPDEST SWAP1 JUMP JUMPDEST PUSH1 0x0 DUP3 PUSH1 0x1F DUP4 ADD SLT PUSH2 0x3E1 JUMPI PUSH1 0x0 DUP1 REVERT JUMPDEST DUP2 CALLDATALOAD PUSH2 0x3F4 PUSH2 0x3EF DUP3 PUSH2 0x7B7 JUMP JUMPDEST PUSH2 0x78A JUMP JUMPDEST SWAP2 POP DUP1 DUP3 MSTORE PUSH1 0x20 DUP4 ADD PUSH1 0x20 DUP4 ADD DUP6 DUP4 DUP4 ADD GT ISZERO PUSH2 0x410 JUMPI PUSH1 0x0 DUP1 REVERT JUMPDEST PUSH2 0x41B DUP4 DUP3 DUP5 PUSH2 0x829 JUMP JUMPDEST POP POP POP SWAP3 SWAP2 POP POP JUMP JUMPDEST PUSH1 0x0 DUP2 CALLDATALOAD SWAP1 POP PUSH2 0x433 DUP2 PUSH2 0x87C JUMP JUMPDEST SWAP3 SWAP2 POP POP JUMP JUMPDEST PUSH1 0x0 PUSH1 0x20 DUP3 DUP5 SUB SLT ISZERO PUSH2 0x44B JUMPI PUSH1 0x0 DUP1 REVERT JUMPDEST PUSH1 0x0 DUP3 ADD CALLDATALOAD PUSH8 0xFFFFFFFFFFFFFFFF DUP2 GT ISZERO PUSH2 0x465 JUMPI PUSH1 0x0 DUP1 REVERT JUMPDEST PUSH2 0x471 DUP5 DUP3 DUP6 ADD PUSH2 0x3D0 JUMP JUMPDEST SWAP2 POP POP SWAP3 SWAP2 POP POP JUMP JUMPDEST PUSH1 0x0 PUSH1 0x20 DUP3 DUP5 SUB SLT ISZERO PUSH2 0x48C JUMPI PUSH1 0x0 DUP1 REVERT JUMPDEST PUSH1 0x0 PUSH2 0x49A DUP5 DUP3 DUP6 ADD PUSH2 0x424 JUMP JUMPDEST SWAP2 POP POP SWAP3 SWAP2 POP POP JUMP JUMPDEST PUSH1 0x0 PUSH2 0x4AE DUP3 PUSH2 0x7F8 JUMP JUMPDEST PUSH2 0x4B8 DUP2 DUP6 PUSH2 0x803 JUMP JUMPDEST SWAP4 POP PUSH2 0x4C8 DUP2 DUP6 PUSH1 0x20 DUP7 ADD PUSH2 0x838 JUMP JUMPDEST PUSH2 0x4D1 DUP2 PUSH2 0x86B JUMP JUMPDEST DUP5 ADD SWAP2 POP POP SWAP3 SWAP2 POP POP JUMP JUMPDEST PUSH1 0x0 PUSH2 0x4E7 DUP3 PUSH2 0x7F8 JUMP JUMPDEST PUSH2 0x4F1 DUP2 DUP6 PUSH2 0x814 JUMP JUMPDEST SWAP4 POP PUSH2 0x501 DUP2 DUP6 PUSH1 0x20 DUP7 ADD PUSH2 0x838 JUMP JUMPDEST DUP1 DUP5 ADD SWAP2 POP POP SWAP3 SWAP2 POP POP JUMP JUMPDEST PUSH1 0x0 DUP2 SLOAD PUSH1 0x1 DUP2 AND PUSH1 0x0 DUP2 EQ PUSH2 0x52A JUMPI PUSH1 0x1 DUP2 EQ PUSH2 0x54F JUMPI PUSH2 0x593 JUMP JUMPDEST PUSH1 0x7F PUSH1 0x2 DUP4 DIV AND PUSH2 0x53B DUP2 DUP8 PUSH2 0x814 JUMP JUMPDEST SWAP6 POP PUSH1 0xFF NOT DUP4 AND DUP7 MSTORE DUP1 DUP7 ADD SWAP4 POP POP PUSH2 0x593 JUMP JUMPDEST PUSH1 0x2 DUP3 DIV PUSH2 0x55D DUP2 DUP8 PUSH2 0x814 JUMP JUMPDEST SWAP6 POP PUSH2 0x568 DUP6 PUSH2 0x7E3 JUMP JUMPDEST PUSH1 0x0 JUMPDEST DUP3 DUP2 LT ISZERO PUSH2 0x58A JUMPI DUP2 SLOAD DUP2 DUP10 ADD MSTORE PUSH1 0x1 DUP3 ADD SWAP2 POP PUSH1 0x20 DUP2 ADD SWAP1 POP PUSH2 0x56B JUMP JUMPDEST DUP3 DUP9 ADD SWAP6 POP POP POP POP JUMPDEST POP POP SWAP3 SWAP2 POP POP JUMP JUMPDEST PUSH1 0x0 PUSH2 0x5A8 PUSH1 0x16 DUP4 PUSH2 0x803 JUMP JUMPDEST SWAP2 POP PUSH32 0x436F6E7472617365C3B16120696E636F72726563746100000000000000000000 PUSH1 0x0 DUP4 ADD MSTORE PUSH1 0x20 DUP3 ADD SWAP1 POP SWAP2 SWAP1 POP JUMP JUMPDEST PUSH1 0x0 PUSH2 0x5E8 PUSH1 0x5 DUP4 PUSH2 0x814 JUMP JUMPDEST SWAP2 POP PUSH32 0x3132333435000000000000000000000000000000000000000000000000000000 PUSH1 0x0 DUP4 ADD MSTORE PUSH1 0x5 DUP3 ADD SWAP1 POP SWAP2 SWAP1 POP JUMP JUMPDEST PUSH1 0x0 PUSH2 0x628 PUSH1 0x1C DUP4 PUSH2 0x803 JUMP JUMPDEST SWAP2 POP PUSH32 0x41756E206E6F20707565646573207061676172206465206E7565766F00000000 PUSH1 0x0 DUP4 ADD MSTORE PUSH1 0x20 DUP3 ADD SWAP1 POP SWAP2 SWAP1 POP JUMP JUMPDEST PUSH1 0x0 PUSH2 0x668 PUSH1 0x15 DUP4 PUSH2 0x803 JUMP JUMPDEST SWAP2 POP PUSH32 0x45737465206E6F6D627265207961206578697374650000000000000000000000 PUSH1 0x0 DUP4 ADD MSTORE PUSH1 0x20 DUP3 ADD SWAP1 POP SWAP2 SWAP1 POP JUMP JUMPDEST PUSH2 0x6A4 DUP2 PUSH2 0x81F JUMP JUMPDEST DUP3 MSTORE POP POP JUMP JUMPDEST PUSH1 0x0 PUSH2 0x6B6 DUP3 DUP5 PUSH2 0x4DC JUMP JUMPDEST SWAP2 POP DUP2 SWAP1 POP SWAP3 SWAP2 POP POP JUMP JUMPDEST PUSH1 0x0 PUSH2 0x6CD DUP3 DUP5 PUSH2 0x50D JUMP JUMPDEST SWAP2 POP DUP2 SWAP1 POP SWAP3 SWAP2 POP POP JUMP JUMPDEST PUSH1 0x0 PUSH2 0x6E3 DUP3 PUSH2 0x5DB JUMP JUMPDEST SWAP2 POP DUP2 SWAP1 POP SWAP2 SWAP1 POP JUMP JUMPDEST PUSH1 0x0 PUSH1 0x20 DUP3 ADD SWAP1 POP DUP2 DUP2 SUB PUSH1 0x0 DUP4 ADD MSTORE PUSH2 0x707 DUP2 DUP5 PUSH2 0x4A3 JUMP JUMPDEST SWAP1 POP SWAP3 SWAP2 POP POP JUMP JUMPDEST PUSH1 0x0 PUSH1 0x20 DUP3 ADD SWAP1 POP DUP2 DUP2 SUB PUSH1 0x0 DUP4 ADD MSTORE PUSH2 0x728 DUP2 PUSH2 0x59B JUMP JUMPDEST SWAP1 POP SWAP2 SWAP1 POP JUMP JUMPDEST PUSH1 0x0 PUSH1 0x20 DUP3 ADD SWAP1 POP DUP2 DUP2 SUB PUSH1 0x0 DUP4 ADD MSTORE PUSH2 0x748 DUP2 PUSH2 0x61B JUMP JUMPDEST SWAP1 POP SWAP2 SWAP1 POP JUMP JUMPDEST PUSH1 0x0 PUSH1 0x20 DUP3 ADD SWAP1 POP DUP2 DUP2 SUB PUSH1 0x0 DUP4 ADD MSTORE PUSH2 0x768 DUP2 PUSH2 0x65B JUMP JUMPDEST SWAP1 POP SWAP2 SWAP1 POP JUMP JUMPDEST PUSH1 0x0 PUSH1 0x20 DUP3 ADD SWAP1 POP PUSH2 0x784 PUSH1 0x0 DUP4 ADD DUP5 PUSH2 0x69B JUMP JUMPDEST SWAP3 SWAP2 POP POP JUMP JUMPDEST PUSH1 0x0 PUSH1 0x40 MLOAD SWAP1 POP DUP2 DUP2 ADD DUP2 DUP2 LT PUSH8 0xFFFFFFFFFFFFFFFF DUP3 GT OR ISZERO PUSH2 0x7AD JUMPI PUSH1 0x0 DUP1 REVERT JUMPDEST DUP1 PUSH1 0x40 MSTORE POP SWAP2 SWAP1 POP JUMP JUMPDEST PUSH1 0x0 PUSH8 0xFFFFFFFFFFFFFFFF DUP3 GT ISZERO PUSH2 0x7CE JUMPI PUSH1 0x0 DUP1 REVERT JUMPDEST PUSH1 0x1F NOT PUSH1 0x1F DUP4 ADD AND SWAP1 POP PUSH1 0x20 DUP2 ADD SWAP1 POP SWAP2 SWAP1 POP JUMP JUMPDEST PUSH1 0x0 DUP2 SWAP1 POP DUP2 PUSH1 0x0 MSTORE PUSH1 0x20 PUSH1 0x0 KECCAK256 SWAP1 POP SWAP2 SWAP1 POP JUMP JUMPDEST PUSH1 0x0 DUP2 MLOAD SWAP1 POP SWAP2 SWAP1 POP JUMP JUMPDEST PUSH1 0x0 DUP3 DUP3 MSTORE PUSH1 0x20 DUP3 ADD SWAP1 POP SWAP3 SWAP2 POP POP JUMP JUMPDEST PUSH1 0x0 DUP2 SWAP1 POP SWAP3 SWAP2 POP POP JUMP JUMPDEST PUSH1 0x0 DUP2 SWAP1 POP SWAP2 SWAP1 POP JUMP JUMPDEST DUP3 DUP2 DUP4 CALLDATACOPY PUSH1 0x0 DUP4 DUP4 ADD MSTORE POP POP POP JUMP JUMPDEST PUSH1 0x0 JUMPDEST DUP4 DUP2 LT ISZERO PUSH2 0x856 JUMPI DUP1 DUP3 ADD MLOAD DUP2 DUP5 ADD MSTORE PUSH1 0x20 DUP2 ADD SWAP1 POP PUSH2 0x83B JUMP JUMPDEST DUP4 DUP2 GT ISZERO PUSH2 0x865 JUMPI PUSH1 0x0 DUP5 DUP5 ADD MSTORE JUMPDEST POP POP POP POP JUMP JUMPDEST PUSH1 0x0 PUSH1 0x1F NOT PUSH1 0x1F DUP4 ADD AND SWAP1 POP SWAP2 SWAP1 POP JUMP JUMPDEST PUSH2 0x885 DUP2 PUSH2 0x81F JUMP JUMPDEST DUP2 EQ PUSH2 0x890 JUMPI PUSH1 0x0 DUP1 REVERT JUMPDEST POP JUMP INVALID LOG2 PUSH5 0x6970667358 0x22 SLT KECCAK256 0xD9 0xF PUSH15 0xE9A7CCB84EA41847169D7D181E9A51 PUSH20 0x39FAC4A57169BB5ED104A2041464736F6C634300 MOD STOP STOP CALLER "
				},
				"gasEstimates": {
					"creation": {
						"codeDepositCost": "449800",
						"executionCost": "10498",
						"totalCost": "460298"
					},
					"external": {
						"Pagar(uint256)": "infinite",
						"cartera()": "1129",
						"nuevoNombre(string)": "infinite",
						"password(string)": "infinite"
					}
				},
				"methodIdentifiers": {
					"Pagar(uint256)": "5c4faad9",
					"cartera()": "694b9d34",
					"nuevoNombre(string)": "f8f552b4",
					"password(string)": "71d3f37a"
				}
			},
			"storageLayout": {
				"storage": [
					{
						"astId": 32,
						"contract": "Funciones avanzadas/require.sol:Require",
						"label": "tiempo",
						"offset": 0,
						"slot": "0",
						"type": "t_uint256"
					},
					{
						"astId": 35,
						"contract": "Funciones avanzadas/require.sol:Require",
						"label": "cartera",
						"offset": 0,
						"slot": "1",
						"type": "t_uint256"
					},
					{
						"astId": 65,
						"contract": "Funciones avanzadas/require.sol:Require",
						"label": "nombres",
						"offset": 0,
						"slot": "2",
						"type": "t_array(t_string_storage)dyn_storage"
					}
				],
				"types": {
					"t_array(t_string_storage)dyn_storage": {
						"base": "t_string_storage",
						"encoding": "dynamic_array",
						"label": "string[]",
						"numberOfBytes": "32"
					},
					"t_string_storage": {
						"encoding": "bytes",
						"label": "string",
						"numberOfBytes": "32"
					},
					"t_uint256": {
						"encoding": "inplace",
						"label": "uint256",
						"numberOfBytes": "32"
					}
				}
			},
			"userdoc": {
				"methods": {}
			}
		}
	}
}