{
	"Estructuras de datos/mappings.sol": {
		"Mappings": {
			"abi": [
				{
					"inputs": [
						{
							"internalType": "string",
							"name": "_nombre",
							"type": "string"
						},
						{
							"internalType": "uint256",
							"name": "_cantidad",
							"type": "uint256"
						}
					],
					"name": "Dinero",
					"outputs": [],
					"stateMutability": "nonpayable",
					"type": "function"
				},
				{
					"inputs": [
						{
							"internalType": "string",
							"name": "",
							"type": "string"
						}
					],
					"name": "cantidadDinero",
					"outputs": [
						{
							"internalType": "uint256",
							"name": "",
							"type": "uint256"
						}
					],
					"stateMutability": "view",
					"type": "function"
				},
				{
					"inputs": [],
					"name": "consultarNumero",
					"outputs": [
						{
							"internalType": "uint256",
							"name": "",
							"type": "uint256"
						}
					],
					"stateMutability": "view",
					"type": "function"
				},
				{
					"inputs": [
						{
							"internalType": "uint256",
							"name": "_dni",
							"type": "uint256"
						},
						{
							"internalType": "string",
							"name": "_nombre",
							"type": "string"
						},
						{
							"internalType": "uint256",
							"name": "_edad",
							"type": "uint256"
						}
					],
					"name": "crearPersona",
					"outputs": [],
					"stateMutability": "nonpayable",
					"type": "function"
				},
				{
					"inputs": [
						{
							"internalType": "uint256",
							"name": "_numero",
							"type": "uint256"
						}
					],
					"name": "elegirNumero",
					"outputs": [],
					"stateMutability": "nonpayable",
					"type": "function"
				},
				{
					"inputs": [
						{
							"internalType": "address",
							"name": "",
							"type": "address"
						}
					],
					"name": "myMap",
					"outputs": [
						{
							"internalType": "uint256",
							"name": "",
							"type": "uint256"
						}
					],
					"stateMutability": "view",
					"type": "function"
				},
				{
					"inputs": [
						{
							"internalType": "uint256",
							"name": "",
							"type": "uint256"
						}
					],
					"name": "personas",
					"outputs": [
						{
							"internalType": "string",
							"name": "nombre",
							"type": "string"
						},
						{
							"internalType": "uint256",
							"name": "edad",
							"type": "uint256"
						}
					],
					"stateMutability": "view",
					"type": "function"
				},
				{
					"inputs": [
						{
							"internalType": "string",
							"name": "_nombre",
							"type": "string"
						}
					],
					"name": "verDinero",
					"outputs": [
						{
							"internalType": "uint256",
							"name": "",
							"type": "uint256"
						}
					],
					"stateMutability": "view",
					"type": "function"
				},
				{
					"inputs": [
						{
							"internalType": "uint256",
							"name": "_dni",
							"type": "uint256"
						}
					],
					"name": "visualizarPersona",
					"outputs": [
						{
							"components": [
								{
									"internalType": "string",
									"name": "nombre",
									"type": "string"
								},
								{
									"internalType": "uint256",
									"name": "edad",
									"type": "uint256"
								}
							],
							"internalType": "struct Mappings.Persona",
							"name": "",
							"type": "tuple"
						}
					],
					"stateMutability": "view",
					"type": "function"
				}
			],
			"devdoc": {
				"methods": {}
			},
			"evm": {
				"assembly": "    /* \"Estructuras de datos/mappings.sol\":70:1199  contract Mappings {\r... */\n  mstore(0x40, 0x80)\n  callvalue\n    /* \"--CODEGEN--\":8:17   */\n  dup1\n    /* \"--CODEGEN--\":5:7   */\n  iszero\n  tag_1\n  jumpi\n    /* \"--CODEGEN--\":30:31   */\n  0x00\n    /* \"--CODEGEN--\":27:28   */\n  dup1\n    /* \"--CODEGEN--\":20:32   */\n  revert\n    /* \"--CODEGEN--\":5:7   */\ntag_1:\n    /* \"Estructuras de datos/mappings.sol\":70:1199  contract Mappings {\r... */\n  pop\n  dataSize(sub_0)\n  dup1\n  dataOffset(sub_0)\n  0x00\n  codecopy\n  0x00\n  return\nstop\n\nsub_0: assembly {\n        /* \"Estructuras de datos/mappings.sol\":70:1199  contract Mappings {\r... */\n      mstore(0x40, 0x80)\n      callvalue\n        /* \"--CODEGEN--\":8:17   */\n      dup1\n        /* \"--CODEGEN--\":5:7   */\n      iszero\n      tag_1\n      jumpi\n        /* \"--CODEGEN--\":30:31   */\n      0x00\n        /* \"--CODEGEN--\":27:28   */\n      dup1\n        /* \"--CODEGEN--\":20:32   */\n      revert\n        /* \"--CODEGEN--\":5:7   */\n    tag_1:\n        /* \"Estructuras de datos/mappings.sol\":70:1199  contract Mappings {\r... */\n      pop\n      jumpi(tag_2, lt(calldatasize, 0x04))\n      shr(0xe0, calldataload(0x00))\n      dup1\n      0x6a14c9ec\n      gt\n      tag_12\n      jumpi\n      dup1\n      0x6a14c9ec\n      eq\n      tag_7\n      jumpi\n      dup1\n      0x92174b49\n      eq\n      tag_8\n      jumpi\n      dup1\n      0xb39b39a6\n      eq\n      tag_9\n      jumpi\n      dup1\n      0xd0427d5a\n      eq\n      tag_10\n      jumpi\n      dup1\n      0xff64cd52\n      eq\n      tag_11\n      jumpi\n      jump(tag_2)\n    tag_12:\n      dup1\n      0x27cbd529\n      eq\n      tag_3\n      jumpi\n      dup1\n      0x40291e6a\n      eq\n      tag_4\n      jumpi\n      dup1\n      0x428ae454\n      eq\n      tag_5\n      jumpi\n      dup1\n      0x54d69881\n      eq\n      tag_6\n      jumpi\n    tag_2:\n      0x00\n      dup1\n      revert\n        /* \"Estructuras de datos/mappings.sol\":125:163  mapping (address => uint) public myMap */\n    tag_3:\n      tag_13\n      0x04\n      dup1\n      calldatasize\n      sub\n      tag_14\n      swap2\n      swap1\n      dup2\n      add\n      swap1\n      jump(tag_15)\n    tag_14:\n      tag_16\n      jump\t// in\n    tag_13:\n      mload(0x40)\n      tag_17\n      swap2\n      swap1\n      jump(tag_18)\n    tag_17:\n      mload(0x40)\n      dup1\n      swap2\n      sub\n      swap1\n      return\n        /* \"Estructuras de datos/mappings.sol\":890:930  mapping(uint => Persona) public personas */\n    tag_4:\n      tag_19\n      0x04\n      dup1\n      calldatasize\n      sub\n      tag_20\n      swap2\n      swap1\n      dup2\n      add\n      swap1\n      jump(tag_21)\n    tag_20:\n      tag_22\n      jump\t// in\n    tag_19:\n      mload(0x40)\n      tag_23\n      swap3\n      swap2\n      swap1\n      jump(tag_24)\n    tag_23:\n      mload(0x40)\n      dup1\n      swap2\n      sub\n      swap1\n      return\n        /* \"Estructuras de datos/mappings.sol\":524:640  function Dinero(string memory _nombre, uint _cantidad) public {\r... */\n    tag_5:\n      tag_25\n      0x04\n      dup1\n      calldatasize\n      sub\n      tag_26\n      swap2\n      swap1\n      dup2\n      add\n      swap1\n      jump(tag_27)\n    tag_26:\n      tag_28\n      jump\t// in\n    tag_25:\n      stop\n        /* \"Estructuras de datos/mappings.sol\":469:515  mapping (string => uint) public cantidadDinero */\n    tag_6:\n      tag_29\n      0x04\n      dup1\n      calldatasize\n      sub\n      tag_30\n      swap2\n      swap1\n      dup2\n      add\n      swap1\n      jump(tag_31)\n    tag_30:\n      tag_32\n      jump\t// in\n    tag_29:\n      mload(0x40)\n      tag_33\n      swap2\n      swap1\n      jump(tag_18)\n    tag_33:\n      mload(0x40)\n      dup1\n      swap2\n      sub\n      swap1\n      return\n        /* \"Estructuras de datos/mappings.sol\":648:766  function verDinero(string memory _nombre) public view returns (uint) {\r... */\n    tag_7:\n      tag_34\n      0x04\n      dup1\n      calldatasize\n      sub\n      tag_35\n      swap2\n      swap1\n      dup2\n      add\n      swap1\n      jump(tag_36)\n    tag_35:\n      tag_37\n      jump\t// in\n    tag_34:\n      mload(0x40)\n      tag_38\n      swap2\n      swap1\n      jump(tag_18)\n    tag_38:\n      mload(0x40)\n      dup1\n      swap2\n      sub\n      swap1\n      return\n        /* \"Estructuras de datos/mappings.sol\":269:366  function consultarNumero() public view returns (uint) {\r... */\n    tag_8:\n      tag_39\n      tag_40\n      jump\t// in\n    tag_39:\n      mload(0x40)\n      tag_41\n      swap2\n      swap1\n      jump(tag_18)\n    tag_41:\n      mload(0x40)\n      dup1\n      swap2\n      sub\n      swap1\n      return\n        /* \"Estructuras de datos/mappings.sol\":1081:1196  function visualizarPersona(uint _dni) public view returns (Persona memory) {\r... */\n    tag_9:\n      tag_42\n      0x04\n      dup1\n      calldatasize\n      sub\n      tag_43\n      swap2\n      swap1\n      dup2\n      add\n      swap1\n      jump(tag_21)\n    tag_43:\n      tag_44\n      jump\t// in\n    tag_42:\n      mload(0x40)\n      tag_45\n      swap2\n      swap1\n      jump(tag_46)\n    tag_45:\n      mload(0x40)\n      dup1\n      swap2\n      sub\n      swap1\n      return\n        /* \"Estructuras de datos/mappings.sol\":172:261  function elegirNumero(uint _numero) public {\r... */\n    tag_10:\n      tag_47\n      0x04\n      dup1\n      calldatasize\n      sub\n      tag_48\n      swap2\n      swap1\n      dup2\n      add\n      swap1\n      jump(tag_21)\n    tag_48:\n      tag_49\n      jump\t// in\n    tag_47:\n      stop\n        /* \"Estructuras de datos/mappings.sol\":939:1073  function crearPersona(uint _dni, string memory _nombre, uint _edad) public {\r... */\n    tag_11:\n      tag_50\n      0x04\n      dup1\n      calldatasize\n      sub\n      tag_51\n      swap2\n      swap1\n      dup2\n      add\n      swap1\n      jump(tag_52)\n    tag_51:\n      tag_53\n      jump\t// in\n    tag_50:\n      stop\n        /* \"Estructuras de datos/mappings.sol\":125:163  mapping (address => uint) public myMap */\n    tag_16:\n      mstore(0x20, 0x00)\n      dup1\n      0x00\n      mstore\n      keccak256(0x00, 0x40)\n      0x00\n      swap2\n      pop\n      swap1\n      pop\n      sload\n      dup2\n      jump\t// out\n        /* \"Estructuras de datos/mappings.sol\":890:930  mapping(uint => Persona) public personas */\n    tag_22:\n      mstore(0x20, 0x02)\n      dup1\n      0x00\n      mstore\n      keccak256(0x00, 0x40)\n      0x00\n      swap2\n      pop\n      swap1\n      pop\n      dup1\n      0x00\n      add\n      dup1\n      sload\n      0x01\n      dup2\n      0x01\n      and\n      iszero\n      0x0100\n      mul\n      sub\n      and\n      0x02\n      swap1\n      div\n      dup1\n      0x1f\n      add\n      0x20\n      dup1\n      swap2\n      div\n      mul\n      0x20\n      add\n      mload(0x40)\n      swap1\n      dup2\n      add\n      0x40\n      mstore\n      dup1\n      swap3\n      swap2\n      swap1\n      dup2\n      dup2\n      mstore\n      0x20\n      add\n      dup3\n      dup1\n      sload\n      0x01\n      dup2\n      0x01\n      and\n      iszero\n      0x0100\n      mul\n      sub\n      and\n      0x02\n      swap1\n      div\n      dup1\n      iszero\n      tag_54\n      jumpi\n      dup1\n      0x1f\n      lt\n      tag_55\n      jumpi\n      0x0100\n      dup1\n      dup4\n      sload\n      div\n      mul\n      dup4\n      mstore\n      swap2\n      0x20\n      add\n      swap2\n      jump(tag_54)\n    tag_55:\n      dup3\n      add\n      swap2\n      swap1\n      0x00\n      mstore\n      keccak256(0x00, 0x20)\n      swap1\n    tag_56:\n      dup2\n      sload\n      dup2\n      mstore\n      swap1\n      0x01\n      add\n      swap1\n      0x20\n      add\n      dup1\n      dup4\n      gt\n      tag_56\n      jumpi\n      dup3\n      swap1\n      sub\n      0x1f\n      and\n      dup3\n      add\n      swap2\n    tag_54:\n      pop\n      pop\n      pop\n      pop\n      pop\n      swap1\n      dup1\n      0x01\n      add\n      sload\n      swap1\n      pop\n      dup3\n      jump\t// out\n        /* \"Estructuras de datos/mappings.sol\":524:640  function Dinero(string memory _nombre, uint _cantidad) public {\r... */\n    tag_28:\n        /* \"Estructuras de datos/mappings.sol\":623:632  _cantidad */\n      dup1\n        /* \"Estructuras de datos/mappings.sol\":597:611  cantidadDinero */\n      0x01\n        /* \"Estructuras de datos/mappings.sol\":612:619  _nombre */\n      dup4\n        /* \"Estructuras de datos/mappings.sol\":597:620  cantidadDinero[_nombre] */\n      mload(0x40)\n      tag_58\n      swap2\n      swap1\n      jump(tag_59)\n    tag_58:\n      swap1\n      dup2\n      mstore\n      0x20\n      add\n      mload(0x40)\n      dup1\n      swap2\n      sub\n      swap1\n      keccak256\n        /* \"Estructuras de datos/mappings.sol\":597:632  cantidadDinero[_nombre] = _cantidad */\n      dup2\n      swap1\n      sstore\n      pop\n        /* \"Estructuras de datos/mappings.sol\":524:640  function Dinero(string memory _nombre, uint _cantidad) public {\r... */\n      pop\n      pop\n      jump\t// out\n        /* \"Estructuras de datos/mappings.sol\":469:515  mapping (string => uint) public cantidadDinero */\n    tag_32:\n      0x01\n      dup2\n        /* \"--CODEGEN--\":28:35   */\n      dup1\n        /* \"--CODEGEN--\":22:36   */\n      mload\n        /* \"--CODEGEN--\":169:173   */\n      0x20\n        /* \"--CODEGEN--\":160:167   */\n      dup2\n        /* \"--CODEGEN--\":156:174   */\n      add\n        /* \"--CODEGEN--\":147:154   */\n      dup3\n        /* \"--CODEGEN--\":143:175   */\n      add\n        /* \"--CODEGEN--\":204:217   */\n      dup1\n        /* \"--CODEGEN--\":198:218   */\n      mload\n        /* \"--CODEGEN--\":246:254   */\n      dup5\n        /* \"--CODEGEN--\":231:244   */\n      dup3\n        /* \"--CODEGEN--\":224:255   */\n      mstore\n        /* \"--CODEGEN--\":316:320   */\n      0x20\n        /* \"--CODEGEN--\":307:314   */\n      dup4\n        /* \"--CODEGEN--\":303:321   */\n      add\n        /* \"--CODEGEN--\":296:300   */\n      0x20\n        /* \"--CODEGEN--\":287:294   */\n      dup6\n        /* \"--CODEGEN--\":283:301   */\n      add\n        /* \"--CODEGEN--\":273:322   */\n      keccak256\n        /* \"--CODEGEN--\":350:359   */\n      dup2\n        /* \"--CODEGEN--\":335:348   */\n      dup4\n        /* \"--CODEGEN--\":328:360   */\n      mstore\n        /* \"--CODEGEN--\":378:382   */\n      dup1\n        /* \"--CODEGEN--\":366:382   */\n      swap6\n      pop\n        /* \"--CODEGEN--\":0:388   */\n      pop\n      pop\n      pop\n      pop\n        /* \"Estructuras de datos/mappings.sol\":469:515  mapping (string => uint) public cantidadDinero */\n      pop\n      0x00\n      swap2\n      pop\n      swap1\n      pop\n      sload\n      dup2\n      jump\t// out\n        /* \"Estructuras de datos/mappings.sol\":648:766  function verDinero(string memory _nombre) public view returns (uint) {\r... */\n    tag_37:\n        /* \"Estructuras de datos/mappings.sol\":711:715  uint */\n      0x00\n        /* \"Estructuras de datos/mappings.sol\":735:749  cantidadDinero */\n      0x01\n        /* \"Estructuras de datos/mappings.sol\":750:757  _nombre */\n      dup3\n        /* \"Estructuras de datos/mappings.sol\":735:758  cantidadDinero[_nombre] */\n      mload(0x40)\n      tag_61\n      swap2\n      swap1\n      jump(tag_59)\n    tag_61:\n      swap1\n      dup2\n      mstore\n      0x20\n      add\n      mload(0x40)\n      dup1\n      swap2\n      sub\n      swap1\n      keccak256\n      sload\n        /* \"Estructuras de datos/mappings.sol\":728:758  return cantidadDinero[_nombre] */\n      swap1\n      pop\n        /* \"Estructuras de datos/mappings.sol\":648:766  function verDinero(string memory _nombre) public view returns (uint) {\r... */\n      swap2\n      swap1\n      pop\n      jump\t// out\n        /* \"Estructuras de datos/mappings.sol\":269:366  function consultarNumero() public view returns (uint) {\r... */\n    tag_40:\n        /* \"Estructuras de datos/mappings.sol\":317:321  uint */\n      0x00\n        /* \"Estructuras de datos/mappings.sol\":341:346  myMap */\n      dup1\n        /* \"Estructuras de datos/mappings.sol\":341:358  myMap[msg.sender] */\n      0x00\n        /* \"Estructuras de datos/mappings.sol\":347:357  msg.sender */\n      caller\n        /* \"Estructuras de datos/mappings.sol\":341:358  myMap[msg.sender] */\n      0xffffffffffffffffffffffffffffffffffffffff\n      and\n      0xffffffffffffffffffffffffffffffffffffffff\n      and\n      dup2\n      mstore\n      0x20\n      add\n      swap1\n      dup2\n      mstore\n      0x20\n      add\n      0x00\n      keccak256\n      sload\n        /* \"Estructuras de datos/mappings.sol\":334:358  return myMap[msg.sender] */\n      swap1\n      pop\n        /* \"Estructuras de datos/mappings.sol\":269:366  function consultarNumero() public view returns (uint) {\r... */\n      swap1\n      jump\t// out\n        /* \"Estructuras de datos/mappings.sol\":1081:1196  function visualizarPersona(uint _dni) public view returns (Persona memory) {\r... */\n    tag_44:\n        /* \"Estructuras de datos/mappings.sol\":1140:1154  Persona memory */\n      tag_63\n      tag_64\n      jump\t// in\n    tag_63:\n        /* \"Estructuras de datos/mappings.sol\":1174:1182  personas */\n      0x02\n        /* \"Estructuras de datos/mappings.sol\":1174:1188  personas[_dni] */\n      0x00\n        /* \"Estructuras de datos/mappings.sol\":1183:1187  _dni */\n      dup4\n        /* \"Estructuras de datos/mappings.sol\":1174:1188  personas[_dni] */\n      dup2\n      mstore\n      0x20\n      add\n      swap1\n      dup2\n      mstore\n      0x20\n      add\n      0x00\n      keccak256\n        /* \"Estructuras de datos/mappings.sol\":1167:1188  return personas[_dni] */\n      mload(0x40)\n      dup1\n      0x40\n      add\n      0x40\n      mstore\n      swap1\n      dup2\n      0x00\n      dup3\n      add\n      dup1\n      sload\n      0x01\n      dup2\n      0x01\n      and\n      iszero\n      0x0100\n      mul\n      sub\n      and\n      0x02\n      swap1\n      div\n      dup1\n      0x1f\n      add\n      0x20\n      dup1\n      swap2\n      div\n      mul\n      0x20\n      add\n      mload(0x40)\n      swap1\n      dup2\n      add\n      0x40\n      mstore\n      dup1\n      swap3\n      swap2\n      swap1\n      dup2\n      dup2\n      mstore\n      0x20\n      add\n      dup3\n      dup1\n      sload\n      0x01\n      dup2\n      0x01\n      and\n      iszero\n      0x0100\n      mul\n      sub\n      and\n      0x02\n      swap1\n      div\n      dup1\n      iszero\n      tag_66\n      jumpi\n      dup1\n      0x1f\n      lt\n      tag_67\n      jumpi\n      0x0100\n      dup1\n      dup4\n      sload\n      div\n      mul\n      dup4\n      mstore\n      swap2\n      0x20\n      add\n      swap2\n      jump(tag_66)\n    tag_67:\n      dup3\n      add\n      swap2\n      swap1\n      0x00\n      mstore\n      keccak256(0x00, 0x20)\n      swap1\n    tag_68:\n      dup2\n      sload\n      dup2\n      mstore\n      swap1\n      0x01\n      add\n      swap1\n      0x20\n      add\n      dup1\n      dup4\n      gt\n      tag_68\n      jumpi\n      dup3\n      swap1\n      sub\n      0x1f\n      and\n      dup3\n      add\n      swap2\n    tag_66:\n      pop\n      pop\n      pop\n      pop\n      pop\n      dup2\n      mstore\n      0x20\n      add\n      0x01\n      dup3\n      add\n      sload\n      dup2\n      mstore\n      pop\n      pop\n      swap1\n      pop\n        /* \"Estructuras de datos/mappings.sol\":1081:1196  function visualizarPersona(uint _dni) public view returns (Persona memory) {\r... */\n      swap2\n      swap1\n      pop\n      jump\t// out\n        /* \"Estructuras de datos/mappings.sol\":172:261  function elegirNumero(uint _numero) public {\r... */\n    tag_49:\n        /* \"Estructuras de datos/mappings.sol\":246:253  _numero */\n      dup1\n        /* \"Estructuras de datos/mappings.sol\":226:231  myMap */\n      0x00\n        /* \"Estructuras de datos/mappings.sol\":226:243  myMap[msg.sender] */\n      dup1\n        /* \"Estructuras de datos/mappings.sol\":232:242  msg.sender */\n      caller\n        /* \"Estructuras de datos/mappings.sol\":226:243  myMap[msg.sender] */\n      0xffffffffffffffffffffffffffffffffffffffff\n      and\n      0xffffffffffffffffffffffffffffffffffffffff\n      and\n      dup2\n      mstore\n      0x20\n      add\n      swap1\n      dup2\n      mstore\n      0x20\n      add\n      0x00\n      keccak256\n        /* \"Estructuras de datos/mappings.sol\":226:253  myMap[msg.sender] = _numero */\n      dup2\n      swap1\n      sstore\n      pop\n        /* \"Estructuras de datos/mappings.sol\":172:261  function elegirNumero(uint _numero) public {\r... */\n      pop\n      jump\t// out\n        /* \"Estructuras de datos/mappings.sol\":939:1073  function crearPersona(uint _dni, string memory _nombre, uint _edad) public {\r... */\n    tag_53:\n        /* \"Estructuras de datos/mappings.sol\":1042:1065  Persona(_nombre, _edad) */\n      mload(0x40)\n      dup1\n      0x40\n      add\n      0x40\n      mstore\n      dup1\n        /* \"Estructuras de datos/mappings.sol\":1050:1057  _nombre */\n      dup4\n        /* \"Estructuras de datos/mappings.sol\":1042:1065  Persona(_nombre, _edad) */\n      dup2\n      mstore\n      0x20\n      add\n        /* \"Estructuras de datos/mappings.sol\":1059:1064  _edad */\n      dup3\n        /* \"Estructuras de datos/mappings.sol\":1042:1065  Persona(_nombre, _edad) */\n      dup2\n      mstore\n      pop\n        /* \"Estructuras de datos/mappings.sol\":1025:1033  personas */\n      0x02\n        /* \"Estructuras de datos/mappings.sol\":1025:1039  personas[_dni] */\n      0x00\n        /* \"Estructuras de datos/mappings.sol\":1034:1038  _dni */\n      dup6\n        /* \"Estructuras de datos/mappings.sol\":1025:1039  personas[_dni] */\n      dup2\n      mstore\n      0x20\n      add\n      swap1\n      dup2\n      mstore\n      0x20\n      add\n      0x00\n      keccak256\n        /* \"Estructuras de datos/mappings.sol\":1025:1065  personas[_dni] = Persona(_nombre, _edad) */\n      0x00\n      dup3\n      add\n      mload\n      dup2\n      0x00\n      add\n      swap1\n      dup1\n      mload\n      swap1\n      0x20\n      add\n      swap1\n      tag_71\n      swap3\n      swap2\n      swap1\n      tag_72\n      jump\t// in\n    tag_71:\n      pop\n      0x20\n      dup3\n      add\n      mload\n      dup2\n      0x01\n      add\n      sstore\n      swap1\n      pop\n      pop\n        /* \"Estructuras de datos/mappings.sol\":939:1073  function crearPersona(uint _dni, string memory _nombre, uint _edad) public {\r... */\n      pop\n      pop\n      pop\n      jump\t// out\n        /* \"Estructuras de datos/mappings.sol\":70:1199  contract Mappings {\r... */\n    tag_64:\n      mload(0x40)\n      dup1\n      0x40\n      add\n      0x40\n      mstore\n      dup1\n      0x60\n      dup2\n      mstore\n      0x20\n      add\n      0x00\n      dup2\n      mstore\n      pop\n      swap1\n      jump\t// out\n    tag_72:\n      dup3\n      dup1\n      sload\n      0x01\n      dup2\n      0x01\n      and\n      iszero\n      0x0100\n      mul\n      sub\n      and\n      0x02\n      swap1\n      div\n      swap1\n      0x00\n      mstore\n      keccak256(0x00, 0x20)\n      swap1\n      0x1f\n      add\n      0x20\n      swap1\n      div\n      dup2\n      add\n      swap3\n      dup3\n      0x1f\n      lt\n      tag_74\n      jumpi\n      dup1\n      mload\n      not(0xff)\n      and\n      dup4\n      dup1\n      add\n      or\n      dup6\n      sstore\n      jump(tag_73)\n    tag_74:\n      dup3\n      dup1\n      add\n      0x01\n      add\n      dup6\n      sstore\n      dup3\n      iszero\n      tag_73\n      jumpi\n      swap2\n      dup3\n      add\n    tag_75:\n      dup3\n      dup2\n      gt\n      iszero\n      tag_76\n      jumpi\n      dup3\n      mload\n      dup3\n      sstore\n      swap2\n      0x20\n      add\n      swap2\n      swap1\n      0x01\n      add\n      swap1\n      jump(tag_75)\n    tag_76:\n    tag_73:\n      pop\n      swap1\n      pop\n      tag_77\n      swap2\n      swap1\n      tag_78\n      jump\t// in\n    tag_77:\n      pop\n      swap1\n      jump\t// out\n    tag_78:\n      tag_79\n      swap2\n      swap1\n    tag_80:\n      dup1\n      dup3\n      gt\n      iszero\n      tag_81\n      jumpi\n      0x00\n      dup2\n      0x00\n      swap1\n      sstore\n      pop\n      0x01\n      add\n      jump(tag_80)\n    tag_81:\n      pop\n      swap1\n      jump\n    tag_79:\n      swap1\n      jump\t// out\n        /* \"--CODEGEN--\":5:135   */\n    tag_83:\n      0x00\n        /* \"--CODEGEN--\":85:91   */\n      dup2\n        /* \"--CODEGEN--\":72:92   */\n      calldataload\n        /* \"--CODEGEN--\":63:92   */\n      swap1\n      pop\n        /* \"--CODEGEN--\":97:130   */\n      tag_85\n        /* \"--CODEGEN--\":124:129   */\n      dup2\n        /* \"--CODEGEN--\":97:130   */\n      jump(tag_86)\n    tag_85:\n        /* \"--CODEGEN--\":57:135   */\n      swap3\n      swap2\n      pop\n      pop\n      jump\n        /* \"--CODEGEN--\":143:577   */\n    tag_87:\n      0x00\n        /* \"--CODEGEN--\":241:244   */\n      dup3\n        /* \"--CODEGEN--\":234:238   */\n      0x1f\n        /* \"--CODEGEN--\":226:232   */\n      dup4\n        /* \"--CODEGEN--\":222:239   */\n      add\n        /* \"--CODEGEN--\":218:245   */\n      slt\n        /* \"--CODEGEN--\":208:210   */\n      tag_89\n      jumpi\n        /* \"--CODEGEN--\":259:260   */\n      0x00\n        /* \"--CODEGEN--\":256:257   */\n      dup1\n        /* \"--CODEGEN--\":249:261   */\n      revert\n        /* \"--CODEGEN--\":208:210   */\n    tag_89:\n        /* \"--CODEGEN--\":296:302   */\n      dup2\n        /* \"--CODEGEN--\":283:303   */\n      calldataload\n        /* \"--CODEGEN--\":318:379   */\n      tag_90\n        /* \"--CODEGEN--\":333:378   */\n      tag_91\n        /* \"--CODEGEN--\":371:377   */\n      dup3\n        /* \"--CODEGEN--\":333:378   */\n      jump(tag_92)\n    tag_91:\n        /* \"--CODEGEN--\":318:379   */\n      jump(tag_93)\n    tag_90:\n        /* \"--CODEGEN--\":309:379   */\n      swap2\n      pop\n        /* \"--CODEGEN--\":399:405   */\n      dup1\n        /* \"--CODEGEN--\":392:397   */\n      dup3\n        /* \"--CODEGEN--\":385:406   */\n      mstore\n        /* \"--CODEGEN--\":435:439   */\n      0x20\n        /* \"--CODEGEN--\":427:433   */\n      dup4\n        /* \"--CODEGEN--\":423:440   */\n      add\n        /* \"--CODEGEN--\":468:472   */\n      0x20\n        /* \"--CODEGEN--\":461:466   */\n      dup4\n        /* \"--CODEGEN--\":457:473   */\n      add\n        /* \"--CODEGEN--\":503:506   */\n      dup6\n        /* \"--CODEGEN--\":494:500   */\n      dup4\n        /* \"--CODEGEN--\":489:492   */\n      dup4\n        /* \"--CODEGEN--\":485:501   */\n      add\n        /* \"--CODEGEN--\":482:507   */\n      gt\n        /* \"--CODEGEN--\":479:481   */\n      iszero\n      tag_94\n      jumpi\n        /* \"--CODEGEN--\":520:521   */\n      0x00\n        /* \"--CODEGEN--\":517:518   */\n      dup1\n        /* \"--CODEGEN--\":510:522   */\n      revert\n        /* \"--CODEGEN--\":479:481   */\n    tag_94:\n        /* \"--CODEGEN--\":530:571   */\n      tag_95\n        /* \"--CODEGEN--\":564:570   */\n      dup4\n        /* \"--CODEGEN--\":559:562   */\n      dup3\n        /* \"--CODEGEN--\":554:557   */\n      dup5\n        /* \"--CODEGEN--\":530:571   */\n      jump(tag_96)\n    tag_95:\n        /* \"--CODEGEN--\":201:577   */\n      pop\n      pop\n      pop\n      swap3\n      swap2\n      pop\n      pop\n      jump\n        /* \"--CODEGEN--\":586:1028   */\n    tag_97:\n      0x00\n        /* \"--CODEGEN--\":688:691   */\n      dup3\n        /* \"--CODEGEN--\":681:685   */\n      0x1f\n        /* \"--CODEGEN--\":673:679   */\n      dup4\n        /* \"--CODEGEN--\":669:686   */\n      add\n        /* \"--CODEGEN--\":665:692   */\n      slt\n        /* \"--CODEGEN--\":655:657   */\n      tag_99\n      jumpi\n        /* \"--CODEGEN--\":706:707   */\n      0x00\n        /* \"--CODEGEN--\":703:704   */\n      dup1\n        /* \"--CODEGEN--\":696:708   */\n      revert\n        /* \"--CODEGEN--\":655:657   */\n    tag_99:\n        /* \"--CODEGEN--\":743:749   */\n      dup2\n        /* \"--CODEGEN--\":730:750   */\n      calldataload\n        /* \"--CODEGEN--\":765:830   */\n      tag_100\n        /* \"--CODEGEN--\":780:829   */\n      tag_101\n        /* \"--CODEGEN--\":822:828   */\n      dup3\n        /* \"--CODEGEN--\":780:829   */\n      jump(tag_102)\n    tag_101:\n        /* \"--CODEGEN--\":765:830   */\n      jump(tag_93)\n    tag_100:\n        /* \"--CODEGEN--\":756:830   */\n      swap2\n      pop\n        /* \"--CODEGEN--\":850:856   */\n      dup1\n        /* \"--CODEGEN--\":843:848   */\n      dup3\n        /* \"--CODEGEN--\":836:857   */\n      mstore\n        /* \"--CODEGEN--\":886:890   */\n      0x20\n        /* \"--CODEGEN--\":878:884   */\n      dup4\n        /* \"--CODEGEN--\":874:891   */\n      add\n        /* \"--CODEGEN--\":919:923   */\n      0x20\n        /* \"--CODEGEN--\":912:917   */\n      dup4\n        /* \"--CODEGEN--\":908:924   */\n      add\n        /* \"--CODEGEN--\":954:957   */\n      dup6\n        /* \"--CODEGEN--\":945:951   */\n      dup4\n        /* \"--CODEGEN--\":940:943   */\n      dup4\n        /* \"--CODEGEN--\":936:952   */\n      add\n        /* \"--CODEGEN--\":933:958   */\n      gt\n        /* \"--CODEGEN--\":930:932   */\n      iszero\n      tag_103\n      jumpi\n        /* \"--CODEGEN--\":971:972   */\n      0x00\n        /* \"--CODEGEN--\":968:969   */\n      dup1\n        /* \"--CODEGEN--\":961:973   */\n      revert\n        /* \"--CODEGEN--\":930:932   */\n    tag_103:\n        /* \"--CODEGEN--\":981:1022   */\n      tag_104\n        /* \"--CODEGEN--\":1015:1021   */\n      dup4\n        /* \"--CODEGEN--\":1010:1013   */\n      dup3\n        /* \"--CODEGEN--\":1005:1008   */\n      dup5\n        /* \"--CODEGEN--\":981:1022   */\n      jump(tag_96)\n    tag_104:\n        /* \"--CODEGEN--\":648:1028   */\n      pop\n      pop\n      pop\n      swap3\n      swap2\n      pop\n      pop\n      jump\n        /* \"--CODEGEN--\":1036:1166   */\n    tag_105:\n      0x00\n        /* \"--CODEGEN--\":1116:1122   */\n      dup2\n        /* \"--CODEGEN--\":1103:1123   */\n      calldataload\n        /* \"--CODEGEN--\":1094:1123   */\n      swap1\n      pop\n        /* \"--CODEGEN--\":1128:1161   */\n      tag_107\n        /* \"--CODEGEN--\":1155:1160   */\n      dup2\n        /* \"--CODEGEN--\":1128:1161   */\n      jump(tag_108)\n    tag_107:\n        /* \"--CODEGEN--\":1088:1166   */\n      swap3\n      swap2\n      pop\n      pop\n      jump\n        /* \"--CODEGEN--\":1173:1414   */\n    tag_15:\n      0x00\n        /* \"--CODEGEN--\":1277:1279   */\n      0x20\n        /* \"--CODEGEN--\":1265:1274   */\n      dup3\n        /* \"--CODEGEN--\":1256:1263   */\n      dup5\n        /* \"--CODEGEN--\":1252:1275   */\n      sub\n        /* \"--CODEGEN--\":1248:1280   */\n      slt\n        /* \"--CODEGEN--\":1245:1247   */\n      iszero\n      tag_110\n      jumpi\n        /* \"--CODEGEN--\":1293:1294   */\n      0x00\n        /* \"--CODEGEN--\":1290:1291   */\n      dup1\n        /* \"--CODEGEN--\":1283:1295   */\n      revert\n        /* \"--CODEGEN--\":1245:1247   */\n    tag_110:\n        /* \"--CODEGEN--\":1328:1329   */\n      0x00\n        /* \"--CODEGEN--\":1345:1398   */\n      tag_111\n        /* \"--CODEGEN--\":1390:1397   */\n      dup5\n        /* \"--CODEGEN--\":1381:1387   */\n      dup3\n        /* \"--CODEGEN--\":1370:1379   */\n      dup6\n        /* \"--CODEGEN--\":1366:1388   */\n      add\n        /* \"--CODEGEN--\":1345:1398   */\n      jump(tag_83)\n    tag_111:\n        /* \"--CODEGEN--\":1335:1398   */\n      swap2\n      pop\n        /* \"--CODEGEN--\":1307:1404   */\n      pop\n        /* \"--CODEGEN--\":1239:1414   */\n      swap3\n      swap2\n      pop\n      pop\n      jump\n        /* \"--CODEGEN--\":1421:1760   */\n    tag_31:\n      0x00\n        /* \"--CODEGEN--\":1531:1533   */\n      0x20\n        /* \"--CODEGEN--\":1519:1528   */\n      dup3\n        /* \"--CODEGEN--\":1510:1517   */\n      dup5\n        /* \"--CODEGEN--\":1506:1529   */\n      sub\n        /* \"--CODEGEN--\":1502:1534   */\n      slt\n        /* \"--CODEGEN--\":1499:1501   */\n      iszero\n      tag_113\n      jumpi\n        /* \"--CODEGEN--\":1547:1548   */\n      0x00\n        /* \"--CODEGEN--\":1544:1545   */\n      dup1\n        /* \"--CODEGEN--\":1537:1549   */\n      revert\n        /* \"--CODEGEN--\":1499:1501   */\n    tag_113:\n        /* \"--CODEGEN--\":1610:1611   */\n      0x00\n        /* \"--CODEGEN--\":1599:1608   */\n      dup3\n        /* \"--CODEGEN--\":1595:1612   */\n      add\n        /* \"--CODEGEN--\":1582:1613   */\n      calldataload\n        /* \"--CODEGEN--\":1633:1651   */\n      0xffffffffffffffff\n        /* \"--CODEGEN--\":1625:1631   */\n      dup2\n        /* \"--CODEGEN--\":1622:1652   */\n      gt\n        /* \"--CODEGEN--\":1619:1621   */\n      iszero\n      tag_114\n      jumpi\n        /* \"--CODEGEN--\":1665:1666   */\n      0x00\n        /* \"--CODEGEN--\":1662:1663   */\n      dup1\n        /* \"--CODEGEN--\":1655:1667   */\n      revert\n        /* \"--CODEGEN--\":1619:1621   */\n    tag_114:\n        /* \"--CODEGEN--\":1685:1744   */\n      tag_115\n        /* \"--CODEGEN--\":1736:1743   */\n      dup5\n        /* \"--CODEGEN--\":1727:1733   */\n      dup3\n        /* \"--CODEGEN--\":1716:1725   */\n      dup6\n        /* \"--CODEGEN--\":1712:1734   */\n      add\n        /* \"--CODEGEN--\":1685:1744   */\n      jump(tag_87)\n    tag_115:\n        /* \"--CODEGEN--\":1675:1744   */\n      swap2\n      pop\n        /* \"--CODEGEN--\":1561:1750   */\n      pop\n        /* \"--CODEGEN--\":1493:1760   */\n      swap3\n      swap2\n      pop\n      pop\n      jump\n        /* \"--CODEGEN--\":1767:2114   */\n    tag_36:\n      0x00\n        /* \"--CODEGEN--\":1881:1883   */\n      0x20\n        /* \"--CODEGEN--\":1869:1878   */\n      dup3\n        /* \"--CODEGEN--\":1860:1867   */\n      dup5\n        /* \"--CODEGEN--\":1856:1879   */\n      sub\n        /* \"--CODEGEN--\":1852:1884   */\n      slt\n        /* \"--CODEGEN--\":1849:1851   */\n      iszero\n      tag_117\n      jumpi\n        /* \"--CODEGEN--\":1897:1898   */\n      0x00\n        /* \"--CODEGEN--\":1894:1895   */\n      dup1\n        /* \"--CODEGEN--\":1887:1899   */\n      revert\n        /* \"--CODEGEN--\":1849:1851   */\n    tag_117:\n        /* \"--CODEGEN--\":1960:1961   */\n      0x00\n        /* \"--CODEGEN--\":1949:1958   */\n      dup3\n        /* \"--CODEGEN--\":1945:1962   */\n      add\n        /* \"--CODEGEN--\":1932:1963   */\n      calldataload\n        /* \"--CODEGEN--\":1983:2001   */\n      0xffffffffffffffff\n        /* \"--CODEGEN--\":1975:1981   */\n      dup2\n        /* \"--CODEGEN--\":1972:2002   */\n      gt\n        /* \"--CODEGEN--\":1969:1971   */\n      iszero\n      tag_118\n      jumpi\n        /* \"--CODEGEN--\":2015:2016   */\n      0x00\n        /* \"--CODEGEN--\":2012:2013   */\n      dup1\n        /* \"--CODEGEN--\":2005:2017   */\n      revert\n        /* \"--CODEGEN--\":1969:1971   */\n    tag_118:\n        /* \"--CODEGEN--\":2035:2098   */\n      tag_119\n        /* \"--CODEGEN--\":2090:2097   */\n      dup5\n        /* \"--CODEGEN--\":2081:2087   */\n      dup3\n        /* \"--CODEGEN--\":2070:2079   */\n      dup6\n        /* \"--CODEGEN--\":2066:2088   */\n      add\n        /* \"--CODEGEN--\":2035:2098   */\n      jump(tag_97)\n    tag_119:\n        /* \"--CODEGEN--\":2025:2098   */\n      swap2\n      pop\n        /* \"--CODEGEN--\":1911:2104   */\n      pop\n        /* \"--CODEGEN--\":1843:2114   */\n      swap3\n      swap2\n      pop\n      pop\n      jump\n        /* \"--CODEGEN--\":2121:2593   */\n    tag_27:\n      0x00\n      dup1\n        /* \"--CODEGEN--\":2252:2254   */\n      0x40\n        /* \"--CODEGEN--\":2240:2249   */\n      dup4\n        /* \"--CODEGEN--\":2231:2238   */\n      dup6\n        /* \"--CODEGEN--\":2227:2250   */\n      sub\n        /* \"--CODEGEN--\":2223:2255   */\n      slt\n        /* \"--CODEGEN--\":2220:2222   */\n      iszero\n      tag_121\n      jumpi\n        /* \"--CODEGEN--\":2268:2269   */\n      0x00\n        /* \"--CODEGEN--\":2265:2266   */\n      dup1\n        /* \"--CODEGEN--\":2258:2270   */\n      revert\n        /* \"--CODEGEN--\":2220:2222   */\n    tag_121:\n        /* \"--CODEGEN--\":2331:2332   */\n      0x00\n        /* \"--CODEGEN--\":2320:2329   */\n      dup4\n        /* \"--CODEGEN--\":2316:2333   */\n      add\n        /* \"--CODEGEN--\":2303:2334   */\n      calldataload\n        /* \"--CODEGEN--\":2354:2372   */\n      0xffffffffffffffff\n        /* \"--CODEGEN--\":2346:2352   */\n      dup2\n        /* \"--CODEGEN--\":2343:2373   */\n      gt\n        /* \"--CODEGEN--\":2340:2342   */\n      iszero\n      tag_122\n      jumpi\n        /* \"--CODEGEN--\":2386:2387   */\n      0x00\n        /* \"--CODEGEN--\":2383:2384   */\n      dup1\n        /* \"--CODEGEN--\":2376:2388   */\n      revert\n        /* \"--CODEGEN--\":2340:2342   */\n    tag_122:\n        /* \"--CODEGEN--\":2406:2469   */\n      tag_123\n        /* \"--CODEGEN--\":2461:2468   */\n      dup6\n        /* \"--CODEGEN--\":2452:2458   */\n      dup3\n        /* \"--CODEGEN--\":2441:2450   */\n      dup7\n        /* \"--CODEGEN--\":2437:2459   */\n      add\n        /* \"--CODEGEN--\":2406:2469   */\n      jump(tag_97)\n    tag_123:\n        /* \"--CODEGEN--\":2396:2469   */\n      swap3\n      pop\n        /* \"--CODEGEN--\":2282:2475   */\n      pop\n        /* \"--CODEGEN--\":2506:2508   */\n      0x20\n        /* \"--CODEGEN--\":2524:2577   */\n      tag_124\n        /* \"--CODEGEN--\":2569:2576   */\n      dup6\n        /* \"--CODEGEN--\":2560:2566   */\n      dup3\n        /* \"--CODEGEN--\":2549:2558   */\n      dup7\n        /* \"--CODEGEN--\":2545:2567   */\n      add\n        /* \"--CODEGEN--\":2524:2577   */\n      jump(tag_105)\n    tag_124:\n        /* \"--CODEGEN--\":2514:2577   */\n      swap2\n      pop\n        /* \"--CODEGEN--\":2485:2583   */\n      pop\n        /* \"--CODEGEN--\":2214:2593   */\n      swap3\n      pop\n      swap3\n      swap1\n      pop\n      jump\n        /* \"--CODEGEN--\":2600:2841   */\n    tag_21:\n      0x00\n        /* \"--CODEGEN--\":2704:2706   */\n      0x20\n        /* \"--CODEGEN--\":2692:2701   */\n      dup3\n        /* \"--CODEGEN--\":2683:2690   */\n      dup5\n        /* \"--CODEGEN--\":2679:2702   */\n      sub\n        /* \"--CODEGEN--\":2675:2707   */\n      slt\n        /* \"--CODEGEN--\":2672:2674   */\n      iszero\n      tag_126\n      jumpi\n        /* \"--CODEGEN--\":2720:2721   */\n      0x00\n        /* \"--CODEGEN--\":2717:2718   */\n      dup1\n        /* \"--CODEGEN--\":2710:2722   */\n      revert\n        /* \"--CODEGEN--\":2672:2674   */\n    tag_126:\n        /* \"--CODEGEN--\":2755:2756   */\n      0x00\n        /* \"--CODEGEN--\":2772:2825   */\n      tag_127\n        /* \"--CODEGEN--\":2817:2824   */\n      dup5\n        /* \"--CODEGEN--\":2808:2814   */\n      dup3\n        /* \"--CODEGEN--\":2797:2806   */\n      dup6\n        /* \"--CODEGEN--\":2793:2815   */\n      add\n        /* \"--CODEGEN--\":2772:2825   */\n      jump(tag_105)\n    tag_127:\n        /* \"--CODEGEN--\":2762:2825   */\n      swap2\n      pop\n        /* \"--CODEGEN--\":2734:2831   */\n      pop\n        /* \"--CODEGEN--\":2666:2841   */\n      swap3\n      swap2\n      pop\n      pop\n      jump\n        /* \"--CODEGEN--\":2848:3445   */\n    tag_52:\n      0x00\n      dup1\n      0x00\n        /* \"--CODEGEN--\":2996:2998   */\n      0x60\n        /* \"--CODEGEN--\":2984:2993   */\n      dup5\n        /* \"--CODEGEN--\":2975:2982   */\n      dup7\n        /* \"--CODEGEN--\":2971:2994   */\n      sub\n        /* \"--CODEGEN--\":2967:2999   */\n      slt\n        /* \"--CODEGEN--\":2964:2966   */\n      iszero\n      tag_129\n      jumpi\n        /* \"--CODEGEN--\":3012:3013   */\n      0x00\n        /* \"--CODEGEN--\":3009:3010   */\n      dup1\n        /* \"--CODEGEN--\":3002:3014   */\n      revert\n        /* \"--CODEGEN--\":2964:2966   */\n    tag_129:\n        /* \"--CODEGEN--\":3047:3048   */\n      0x00\n        /* \"--CODEGEN--\":3064:3117   */\n      tag_130\n        /* \"--CODEGEN--\":3109:3116   */\n      dup7\n        /* \"--CODEGEN--\":3100:3106   */\n      dup3\n        /* \"--CODEGEN--\":3089:3098   */\n      dup8\n        /* \"--CODEGEN--\":3085:3107   */\n      add\n        /* \"--CODEGEN--\":3064:3117   */\n      jump(tag_105)\n    tag_130:\n        /* \"--CODEGEN--\":3054:3117   */\n      swap4\n      pop\n        /* \"--CODEGEN--\":3026:3123   */\n      pop\n        /* \"--CODEGEN--\":3182:3184   */\n      0x20\n        /* \"--CODEGEN--\":3171:3180   */\n      dup5\n        /* \"--CODEGEN--\":3167:3185   */\n      add\n        /* \"--CODEGEN--\":3154:3186   */\n      calldataload\n        /* \"--CODEGEN--\":3206:3224   */\n      0xffffffffffffffff\n        /* \"--CODEGEN--\":3198:3204   */\n      dup2\n        /* \"--CODEGEN--\":3195:3225   */\n      gt\n        /* \"--CODEGEN--\":3192:3194   */\n      iszero\n      tag_131\n      jumpi\n        /* \"--CODEGEN--\":3238:3239   */\n      0x00\n        /* \"--CODEGEN--\":3235:3236   */\n      dup1\n        /* \"--CODEGEN--\":3228:3240   */\n      revert\n        /* \"--CODEGEN--\":3192:3194   */\n    tag_131:\n        /* \"--CODEGEN--\":3258:3321   */\n      tag_132\n        /* \"--CODEGEN--\":3313:3320   */\n      dup7\n        /* \"--CODEGEN--\":3304:3310   */\n      dup3\n        /* \"--CODEGEN--\":3293:3302   */\n      dup8\n        /* \"--CODEGEN--\":3289:3311   */\n      add\n        /* \"--CODEGEN--\":3258:3321   */\n      jump(tag_97)\n    tag_132:\n        /* \"--CODEGEN--\":3248:3321   */\n      swap3\n      pop\n        /* \"--CODEGEN--\":3133:3327   */\n      pop\n        /* \"--CODEGEN--\":3358:3360   */\n      0x40\n        /* \"--CODEGEN--\":3376:3429   */\n      tag_133\n        /* \"--CODEGEN--\":3421:3428   */\n      dup7\n        /* \"--CODEGEN--\":3412:3418   */\n      dup3\n        /* \"--CODEGEN--\":3401:3410   */\n      dup8\n        /* \"--CODEGEN--\":3397:3419   */\n      add\n        /* \"--CODEGEN--\":3376:3429   */\n      jump(tag_105)\n    tag_133:\n        /* \"--CODEGEN--\":3366:3429   */\n      swap2\n      pop\n        /* \"--CODEGEN--\":3337:3435   */\n      pop\n        /* \"--CODEGEN--\":2958:3445   */\n      swap3\n      pop\n      swap3\n      pop\n      swap3\n      jump\n        /* \"--CODEGEN--\":3452:3812   */\n    tag_134:\n      0x00\n        /* \"--CODEGEN--\":3582:3621   */\n      tag_136\n        /* \"--CODEGEN--\":3615:3620   */\n      dup3\n        /* \"--CODEGEN--\":3582:3621   */\n      jump(tag_137)\n    tag_136:\n        /* \"--CODEGEN--\":3633:3722   */\n      tag_138\n        /* \"--CODEGEN--\":3715:3721   */\n      dup2\n        /* \"--CODEGEN--\":3710:3713   */\n      dup6\n        /* \"--CODEGEN--\":3633:3722   */\n      jump(tag_139)\n    tag_138:\n        /* \"--CODEGEN--\":3626:3722   */\n      swap4\n      pop\n        /* \"--CODEGEN--\":3727:3779   */\n      tag_140\n        /* \"--CODEGEN--\":3772:3778   */\n      dup2\n        /* \"--CODEGEN--\":3767:3770   */\n      dup6\n        /* \"--CODEGEN--\":3760:3764   */\n      0x20\n        /* \"--CODEGEN--\":3753:3758   */\n      dup7\n        /* \"--CODEGEN--\":3749:3765   */\n      add\n        /* \"--CODEGEN--\":3727:3779   */\n      jump(tag_141)\n    tag_140:\n        /* \"--CODEGEN--\":3800:3806   */\n      dup1\n        /* \"--CODEGEN--\":3795:3798   */\n      dup5\n        /* \"--CODEGEN--\":3791:3807   */\n      add\n        /* \"--CODEGEN--\":3784:3807   */\n      swap2\n      pop\n        /* \"--CODEGEN--\":3562:3812   */\n      pop\n      swap3\n      swap2\n      pop\n      pop\n      jump\n        /* \"--CODEGEN--\":3819:4138   */\n    tag_142:\n      0x00\n        /* \"--CODEGEN--\":3917:3952   */\n      tag_144\n        /* \"--CODEGEN--\":3946:3951   */\n      dup3\n        /* \"--CODEGEN--\":3917:3952   */\n      jump(tag_145)\n    tag_144:\n        /* \"--CODEGEN--\":3964:4025   */\n      tag_146\n        /* \"--CODEGEN--\":4018:4024   */\n      dup2\n        /* \"--CODEGEN--\":4013:4016   */\n      dup6\n        /* \"--CODEGEN--\":3964:4025   */\n      jump(tag_147)\n    tag_146:\n        /* \"--CODEGEN--\":3957:4025   */\n      swap4\n      pop\n        /* \"--CODEGEN--\":4030:4082   */\n      tag_148\n        /* \"--CODEGEN--\":4075:4081   */\n      dup2\n        /* \"--CODEGEN--\":4070:4073   */\n      dup6\n        /* \"--CODEGEN--\":4063:4067   */\n      0x20\n        /* \"--CODEGEN--\":4056:4061   */\n      dup7\n        /* \"--CODEGEN--\":4052:4068   */\n      add\n        /* \"--CODEGEN--\":4030:4082   */\n      jump(tag_141)\n    tag_148:\n        /* \"--CODEGEN--\":4103:4132   */\n      tag_149\n        /* \"--CODEGEN--\":4125:4131   */\n      dup2\n        /* \"--CODEGEN--\":4103:4132   */\n      jump(tag_150)\n    tag_149:\n        /* \"--CODEGEN--\":4098:4101   */\n      dup5\n        /* \"--CODEGEN--\":4094:4133   */\n      add\n        /* \"--CODEGEN--\":4087:4133   */\n      swap2\n      pop\n        /* \"--CODEGEN--\":3897:4138   */\n      pop\n      swap3\n      swap2\n      pop\n      pop\n      jump\n        /* \"--CODEGEN--\":4145:4484   */\n    tag_151:\n      0x00\n        /* \"--CODEGEN--\":4253:4288   */\n      tag_153\n        /* \"--CODEGEN--\":4282:4287   */\n      dup3\n        /* \"--CODEGEN--\":4253:4288   */\n      jump(tag_145)\n    tag_153:\n        /* \"--CODEGEN--\":4300:4371   */\n      tag_154\n        /* \"--CODEGEN--\":4364:4370   */\n      dup2\n        /* \"--CODEGEN--\":4359:4362   */\n      dup6\n        /* \"--CODEGEN--\":4300:4371   */\n      jump(tag_155)\n    tag_154:\n        /* \"--CODEGEN--\":4293:4371   */\n      swap4\n      pop\n        /* \"--CODEGEN--\":4376:4428   */\n      tag_156\n        /* \"--CODEGEN--\":4421:4427   */\n      dup2\n        /* \"--CODEGEN--\":4416:4419   */\n      dup6\n        /* \"--CODEGEN--\":4409:4413   */\n      0x20\n        /* \"--CODEGEN--\":4402:4407   */\n      dup7\n        /* \"--CODEGEN--\":4398:4414   */\n      add\n        /* \"--CODEGEN--\":4376:4428   */\n      jump(tag_141)\n    tag_156:\n        /* \"--CODEGEN--\":4449:4478   */\n      tag_157\n        /* \"--CODEGEN--\":4471:4477   */\n      dup2\n        /* \"--CODEGEN--\":4449:4478   */\n      jump(tag_150)\n    tag_157:\n        /* \"--CODEGEN--\":4444:4447   */\n      dup5\n        /* \"--CODEGEN--\":4440:4479   */\n      add\n        /* \"--CODEGEN--\":4433:4479   */\n      swap2\n      pop\n        /* \"--CODEGEN--\":4233:4484   */\n      pop\n      swap3\n      swap2\n      pop\n      pop\n      jump\n        /* \"--CODEGEN--\":4548:5113   */\n    tag_158:\n      0x00\n        /* \"--CODEGEN--\":4695:4699   */\n      0x40\n        /* \"--CODEGEN--\":4690:4693   */\n      dup4\n        /* \"--CODEGEN--\":4686:4700   */\n      add\n        /* \"--CODEGEN--\":4780:4784   */\n      0x00\n        /* \"--CODEGEN--\":4773:4778   */\n      dup4\n        /* \"--CODEGEN--\":4769:4785   */\n      add\n        /* \"--CODEGEN--\":4763:4786   */\n      mload\n        /* \"--CODEGEN--\":4832:4835   */\n      dup5\n        /* \"--CODEGEN--\":4826:4830   */\n      dup3\n        /* \"--CODEGEN--\":4822:4836   */\n      sub\n        /* \"--CODEGEN--\":4815:4819   */\n      0x00\n        /* \"--CODEGEN--\":4810:4813   */\n      dup7\n        /* \"--CODEGEN--\":4806:4820   */\n      add\n        /* \"--CODEGEN--\":4799:4837   */\n      mstore\n        /* \"--CODEGEN--\":4852:4921   */\n      tag_160\n        /* \"--CODEGEN--\":4916:4920   */\n      dup3\n        /* \"--CODEGEN--\":4902:4914   */\n      dup3\n        /* \"--CODEGEN--\":4852:4921   */\n      jump(tag_142)\n    tag_160:\n        /* \"--CODEGEN--\":4844:4921   */\n      swap2\n      pop\n        /* \"--CODEGEN--\":4715:4933   */\n      pop\n        /* \"--CODEGEN--\":5006:5010   */\n      0x20\n        /* \"--CODEGEN--\":4999:5004   */\n      dup4\n        /* \"--CODEGEN--\":4995:5011   */\n      add\n        /* \"--CODEGEN--\":4989:5012   */\n      mload\n        /* \"--CODEGEN--\":5018:5081   */\n      tag_161\n        /* \"--CODEGEN--\":5075:5079   */\n      0x20\n        /* \"--CODEGEN--\":5070:5073   */\n      dup7\n        /* \"--CODEGEN--\":5066:5080   */\n      add\n        /* \"--CODEGEN--\":5052:5064   */\n      dup3\n        /* \"--CODEGEN--\":5018:5081   */\n      jump(tag_162)\n    tag_161:\n        /* \"--CODEGEN--\":4943:5087   */\n      pop\n        /* \"--CODEGEN--\":5104:5108   */\n      dup1\n        /* \"--CODEGEN--\":5097:5108   */\n      swap2\n      pop\n        /* \"--CODEGEN--\":4668:5113   */\n      pop\n      swap3\n      swap2\n      pop\n      pop\n      jump\n        /* \"--CODEGEN--\":5120:5223   */\n    tag_162:\n        /* \"--CODEGEN--\":5193:5217   */\n      tag_164\n        /* \"--CODEGEN--\":5211:5216   */\n      dup2\n        /* \"--CODEGEN--\":5193:5217   */\n      jump(tag_165)\n    tag_164:\n        /* \"--CODEGEN--\":5188:5191   */\n      dup3\n        /* \"--CODEGEN--\":5181:5218   */\n      mstore\n        /* \"--CODEGEN--\":5175:5223   */\n      pop\n      pop\n      jump\n        /* \"--CODEGEN--\":5230:5343   */\n    tag_166:\n        /* \"--CODEGEN--\":5313:5337   */\n      tag_168\n        /* \"--CODEGEN--\":5331:5336   */\n      dup2\n        /* \"--CODEGEN--\":5313:5337   */\n      jump(tag_165)\n    tag_168:\n        /* \"--CODEGEN--\":5308:5311   */\n      dup3\n        /* \"--CODEGEN--\":5301:5338   */\n      mstore\n        /* \"--CODEGEN--\":5295:5343   */\n      pop\n      pop\n      jump\n        /* \"--CODEGEN--\":5350:5616   */\n    tag_59:\n      0x00\n        /* \"--CODEGEN--\":5496:5591   */\n      tag_170\n        /* \"--CODEGEN--\":5587:5590   */\n      dup3\n        /* \"--CODEGEN--\":5578:5584   */\n      dup5\n        /* \"--CODEGEN--\":5496:5591   */\n      jump(tag_134)\n    tag_170:\n        /* \"--CODEGEN--\":5489:5591   */\n      swap2\n      pop\n        /* \"--CODEGEN--\":5608:5611   */\n      dup2\n        /* \"--CODEGEN--\":5601:5611   */\n      swap1\n      pop\n        /* \"--CODEGEN--\":5477:5616   */\n      swap3\n      swap2\n      pop\n      pop\n      jump\n        /* \"--CODEGEN--\":5623:6027   */\n    tag_24:\n      0x00\n        /* \"--CODEGEN--\":5785:5787   */\n      0x40\n        /* \"--CODEGEN--\":5774:5783   */\n      dup3\n        /* \"--CODEGEN--\":5770:5788   */\n      add\n        /* \"--CODEGEN--\":5762:5788   */\n      swap1\n      pop\n        /* \"--CODEGEN--\":5835:5844   */\n      dup2\n        /* \"--CODEGEN--\":5829:5833   */\n      dup2\n        /* \"--CODEGEN--\":5825:5845   */\n      sub\n        /* \"--CODEGEN--\":5821:5822   */\n      0x00\n        /* \"--CODEGEN--\":5810:5819   */\n      dup4\n        /* \"--CODEGEN--\":5806:5823   */\n      add\n        /* \"--CODEGEN--\":5799:5846   */\n      mstore\n        /* \"--CODEGEN--\":5860:5934   */\n      tag_172\n        /* \"--CODEGEN--\":5929:5933   */\n      dup2\n        /* \"--CODEGEN--\":5920:5926   */\n      dup6\n        /* \"--CODEGEN--\":5860:5934   */\n      jump(tag_151)\n    tag_172:\n        /* \"--CODEGEN--\":5852:5934   */\n      swap1\n      pop\n        /* \"--CODEGEN--\":5945:6017   */\n      tag_173\n        /* \"--CODEGEN--\":6013:6015   */\n      0x20\n        /* \"--CODEGEN--\":6002:6011   */\n      dup4\n        /* \"--CODEGEN--\":5998:6016   */\n      add\n        /* \"--CODEGEN--\":5989:5995   */\n      dup5\n        /* \"--CODEGEN--\":5945:6017   */\n      jump(tag_166)\n    tag_173:\n        /* \"--CODEGEN--\":5756:6027   */\n      swap4\n      swap3\n      pop\n      pop\n      pop\n      jump\n        /* \"--CODEGEN--\":6034:6387   */\n    tag_46:\n      0x00\n        /* \"--CODEGEN--\":6198:6200   */\n      0x20\n        /* \"--CODEGEN--\":6187:6196   */\n      dup3\n        /* \"--CODEGEN--\":6183:6201   */\n      add\n        /* \"--CODEGEN--\":6175:6201   */\n      swap1\n      pop\n        /* \"--CODEGEN--\":6248:6257   */\n      dup2\n        /* \"--CODEGEN--\":6242:6246   */\n      dup2\n        /* \"--CODEGEN--\":6238:6258   */\n      sub\n        /* \"--CODEGEN--\":6234:6235   */\n      0x00\n        /* \"--CODEGEN--\":6223:6232   */\n      dup4\n        /* \"--CODEGEN--\":6219:6236   */\n      add\n        /* \"--CODEGEN--\":6212:6259   */\n      mstore\n        /* \"--CODEGEN--\":6273:6377   */\n      tag_175\n        /* \"--CODEGEN--\":6372:6376   */\n      dup2\n        /* \"--CODEGEN--\":6363:6369   */\n      dup5\n        /* \"--CODEGEN--\":6273:6377   */\n      jump(tag_158)\n    tag_175:\n        /* \"--CODEGEN--\":6265:6377   */\n      swap1\n      pop\n        /* \"--CODEGEN--\":6169:6387   */\n      swap3\n      swap2\n      pop\n      pop\n      jump\n        /* \"--CODEGEN--\":6394:6607   */\n    tag_18:\n      0x00\n        /* \"--CODEGEN--\":6512:6514   */\n      0x20\n        /* \"--CODEGEN--\":6501:6510   */\n      dup3\n        /* \"--CODEGEN--\":6497:6515   */\n      add\n        /* \"--CODEGEN--\":6489:6515   */\n      swap1\n      pop\n        /* \"--CODEGEN--\":6526:6597   */\n      tag_177\n        /* \"--CODEGEN--\":6594:6595   */\n      0x00\n        /* \"--CODEGEN--\":6583:6592   */\n      dup4\n        /* \"--CODEGEN--\":6579:6596   */\n      add\n        /* \"--CODEGEN--\":6570:6576   */\n      dup5\n        /* \"--CODEGEN--\":6526:6597   */\n      jump(tag_166)\n    tag_177:\n        /* \"--CODEGEN--\":6483:6607   */\n      swap3\n      swap2\n      pop\n      pop\n      jump\n        /* \"--CODEGEN--\":6614:6870   */\n    tag_93:\n      0x00\n        /* \"--CODEGEN--\":6676:6678   */\n      0x40\n        /* \"--CODEGEN--\":6670:6679   */\n      mload\n        /* \"--CODEGEN--\":6660:6679   */\n      swap1\n      pop\n        /* \"--CODEGEN--\":6714:6718   */\n      dup2\n        /* \"--CODEGEN--\":6706:6712   */\n      dup2\n        /* \"--CODEGEN--\":6702:6719   */\n      add\n        /* \"--CODEGEN--\":6813:6819   */\n      dup2\n        /* \"--CODEGEN--\":6801:6811   */\n      dup2\n        /* \"--CODEGEN--\":6798:6820   */\n      lt\n        /* \"--CODEGEN--\":6777:6795   */\n      0xffffffffffffffff\n        /* \"--CODEGEN--\":6765:6775   */\n      dup3\n        /* \"--CODEGEN--\":6762:6796   */\n      gt\n        /* \"--CODEGEN--\":6759:6821   */\n      or\n        /* \"--CODEGEN--\":6756:6758   */\n      iszero\n      tag_179\n      jumpi\n        /* \"--CODEGEN--\":6834:6835   */\n      0x00\n        /* \"--CODEGEN--\":6831:6832   */\n      dup1\n        /* \"--CODEGEN--\":6824:6836   */\n      revert\n        /* \"--CODEGEN--\":6756:6758   */\n    tag_179:\n        /* \"--CODEGEN--\":6854:6864   */\n      dup1\n        /* \"--CODEGEN--\":6850:6852   */\n      0x40\n        /* \"--CODEGEN--\":6843:6865   */\n      mstore\n        /* \"--CODEGEN--\":6654:6870   */\n      pop\n      swap2\n      swap1\n      pop\n      jump\n        /* \"--CODEGEN--\":6877:7195   */\n    tag_92:\n      0x00\n        /* \"--CODEGEN--\":7017:7035   */\n      0xffffffffffffffff\n        /* \"--CODEGEN--\":7009:7015   */\n      dup3\n        /* \"--CODEGEN--\":7006:7036   */\n      gt\n        /* \"--CODEGEN--\":7003:7005   */\n      iszero\n      tag_181\n      jumpi\n        /* \"--CODEGEN--\":7049:7050   */\n      0x00\n        /* \"--CODEGEN--\":7046:7047   */\n      dup1\n        /* \"--CODEGEN--\":7039:7051   */\n      revert\n        /* \"--CODEGEN--\":7003:7005   */\n    tag_181:\n        /* \"--CODEGEN--\":7116:7120   */\n      0x1f\n        /* \"--CODEGEN--\":7112:7121   */\n      not\n        /* \"--CODEGEN--\":7105:7109   */\n      0x1f\n        /* \"--CODEGEN--\":7097:7103   */\n      dup4\n        /* \"--CODEGEN--\":7093:7110   */\n      add\n        /* \"--CODEGEN--\":7089:7122   */\n      and\n        /* \"--CODEGEN--\":7081:7122   */\n      swap1\n      pop\n        /* \"--CODEGEN--\":7180:7184   */\n      0x20\n        /* \"--CODEGEN--\":7174:7178   */\n      dup2\n        /* \"--CODEGEN--\":7170:7185   */\n      add\n        /* \"--CODEGEN--\":7162:7185   */\n      swap1\n      pop\n        /* \"--CODEGEN--\":6940:7195   */\n      swap2\n      swap1\n      pop\n      jump\n        /* \"--CODEGEN--\":7202:7524   */\n    tag_102:\n      0x00\n        /* \"--CODEGEN--\":7346:7364   */\n      0xffffffffffffffff\n        /* \"--CODEGEN--\":7338:7344   */\n      dup3\n        /* \"--CODEGEN--\":7335:7365   */\n      gt\n        /* \"--CODEGEN--\":7332:7334   */\n      iszero\n      tag_183\n      jumpi\n        /* \"--CODEGEN--\":7378:7379   */\n      0x00\n        /* \"--CODEGEN--\":7375:7376   */\n      dup1\n        /* \"--CODEGEN--\":7368:7380   */\n      revert\n        /* \"--CODEGEN--\":7332:7334   */\n    tag_183:\n        /* \"--CODEGEN--\":7445:7449   */\n      0x1f\n        /* \"--CODEGEN--\":7441:7450   */\n      not\n        /* \"--CODEGEN--\":7434:7438   */\n      0x1f\n        /* \"--CODEGEN--\":7426:7432   */\n      dup4\n        /* \"--CODEGEN--\":7422:7439   */\n      add\n        /* \"--CODEGEN--\":7418:7451   */\n      and\n        /* \"--CODEGEN--\":7410:7451   */\n      swap1\n      pop\n        /* \"--CODEGEN--\":7509:7513   */\n      0x20\n        /* \"--CODEGEN--\":7503:7507   */\n      dup2\n        /* \"--CODEGEN--\":7499:7514   */\n      add\n        /* \"--CODEGEN--\":7491:7514   */\n      swap1\n      pop\n        /* \"--CODEGEN--\":7269:7524   */\n      swap2\n      swap1\n      pop\n      jump\n        /* \"--CODEGEN--\":7531:7649   */\n    tag_145:\n      0x00\n        /* \"--CODEGEN--\":7621:7626   */\n      dup2\n        /* \"--CODEGEN--\":7615:7627   */\n      mload\n        /* \"--CODEGEN--\":7605:7627   */\n      swap1\n      pop\n        /* \"--CODEGEN--\":7586:7649   */\n      swap2\n      swap1\n      pop\n      jump\n        /* \"--CODEGEN--\":7656:7778   */\n    tag_137:\n      0x00\n        /* \"--CODEGEN--\":7750:7755   */\n      dup2\n        /* \"--CODEGEN--\":7744:7756   */\n      mload\n        /* \"--CODEGEN--\":7734:7756   */\n      swap1\n      pop\n        /* \"--CODEGEN--\":7715:7778   */\n      swap2\n      swap1\n      pop\n      jump\n        /* \"--CODEGEN--\":7786:7939   */\n    tag_147:\n      0x00\n        /* \"--CODEGEN--\":7891:7897   */\n      dup3\n        /* \"--CODEGEN--\":7886:7889   */\n      dup3\n        /* \"--CODEGEN--\":7879:7898   */\n      mstore\n        /* \"--CODEGEN--\":7928:7932   */\n      0x20\n        /* \"--CODEGEN--\":7923:7926   */\n      dup3\n        /* \"--CODEGEN--\":7919:7933   */\n      add\n        /* \"--CODEGEN--\":7904:7933   */\n      swap1\n      pop\n        /* \"--CODEGEN--\":7872:7939   */\n      swap3\n      swap2\n      pop\n      pop\n      jump\n        /* \"--CODEGEN--\":7948:8111   */\n    tag_155:\n      0x00\n        /* \"--CODEGEN--\":8063:8069   */\n      dup3\n        /* \"--CODEGEN--\":8058:8061   */\n      dup3\n        /* \"--CODEGEN--\":8051:8070   */\n      mstore\n        /* \"--CODEGEN--\":8100:8104   */\n      0x20\n        /* \"--CODEGEN--\":8095:8098   */\n      dup3\n        /* \"--CODEGEN--\":8091:8105   */\n      add\n        /* \"--CODEGEN--\":8076:8105   */\n      swap1\n      pop\n        /* \"--CODEGEN--\":8044:8111   */\n      swap3\n      swap2\n      pop\n      pop\n      jump\n        /* \"--CODEGEN--\":8120:8265   */\n    tag_139:\n      0x00\n        /* \"--CODEGEN--\":8256:8259   */\n      dup2\n        /* \"--CODEGEN--\":8241:8259   */\n      swap1\n      pop\n        /* \"--CODEGEN--\":8234:8265   */\n      swap3\n      swap2\n      pop\n      pop\n      jump\n        /* \"--CODEGEN--\":8273:8364   */\n    tag_189:\n      0x00\n        /* \"--CODEGEN--\":8335:8359   */\n      tag_191\n        /* \"--CODEGEN--\":8353:8358   */\n      dup3\n        /* \"--CODEGEN--\":8335:8359   */\n      jump(tag_192)\n    tag_191:\n        /* \"--CODEGEN--\":8324:8359   */\n      swap1\n      pop\n        /* \"--CODEGEN--\":8318:8364   */\n      swap2\n      swap1\n      pop\n      jump\n        /* \"--CODEGEN--\":8371:8492   */\n    tag_192:\n      0x00\n        /* \"--CODEGEN--\":8444:8486   */\n      0xffffffffffffffffffffffffffffffffffffffff\n        /* \"--CODEGEN--\":8437:8442   */\n      dup3\n        /* \"--CODEGEN--\":8433:8487   */\n      and\n        /* \"--CODEGEN--\":8422:8487   */\n      swap1\n      pop\n        /* \"--CODEGEN--\":8416:8492   */\n      swap2\n      swap1\n      pop\n      jump\n        /* \"--CODEGEN--\":8499:8571   */\n    tag_165:\n      0x00\n        /* \"--CODEGEN--\":8561:8566   */\n      dup2\n        /* \"--CODEGEN--\":8550:8566   */\n      swap1\n      pop\n        /* \"--CODEGEN--\":8544:8571   */\n      swap2\n      swap1\n      pop\n      jump\n        /* \"--CODEGEN--\":8579:8724   */\n    tag_96:\n        /* \"--CODEGEN--\":8660:8666   */\n      dup3\n        /* \"--CODEGEN--\":8655:8658   */\n      dup2\n        /* \"--CODEGEN--\":8650:8653   */\n      dup4\n        /* \"--CODEGEN--\":8637:8667   */\n      calldatacopy\n        /* \"--CODEGEN--\":8716:8717   */\n      0x00\n        /* \"--CODEGEN--\":8707:8713   */\n      dup4\n        /* \"--CODEGEN--\":8702:8705   */\n      dup4\n        /* \"--CODEGEN--\":8698:8714   */\n      add\n        /* \"--CODEGEN--\":8691:8718   */\n      mstore\n        /* \"--CODEGEN--\":8630:8724   */\n      pop\n      pop\n      pop\n      jump\n        /* \"--CODEGEN--\":8733:9001   */\n    tag_141:\n        /* \"--CODEGEN--\":8798:8799   */\n      0x00\n        /* \"--CODEGEN--\":8805:8906   */\n    tag_197:\n        /* \"--CODEGEN--\":8819:8825   */\n      dup4\n        /* \"--CODEGEN--\":8816:8817   */\n      dup2\n        /* \"--CODEGEN--\":8813:8826   */\n      lt\n        /* \"--CODEGEN--\":8805:8906   */\n      iszero\n      tag_199\n      jumpi\n        /* \"--CODEGEN--\":8895:8896   */\n      dup1\n        /* \"--CODEGEN--\":8890:8893   */\n      dup3\n        /* \"--CODEGEN--\":8886:8897   */\n      add\n        /* \"--CODEGEN--\":8880:8898   */\n      mload\n        /* \"--CODEGEN--\":8876:8877   */\n      dup2\n        /* \"--CODEGEN--\":8871:8874   */\n      dup5\n        /* \"--CODEGEN--\":8867:8878   */\n      add\n        /* \"--CODEGEN--\":8860:8899   */\n      mstore\n        /* \"--CODEGEN--\":8841:8843   */\n      0x20\n        /* \"--CODEGEN--\":8838:8839   */\n      dup2\n        /* \"--CODEGEN--\":8834:8844   */\n      add\n        /* \"--CODEGEN--\":8829:8844   */\n      swap1\n      pop\n        /* \"--CODEGEN--\":8805:8906   */\n      jump(tag_197)\n    tag_199:\n        /* \"--CODEGEN--\":8921:8927   */\n      dup4\n        /* \"--CODEGEN--\":8918:8919   */\n      dup2\n        /* \"--CODEGEN--\":8915:8928   */\n      gt\n        /* \"--CODEGEN--\":8912:8914   */\n      iszero\n      tag_200\n      jumpi\n        /* \"--CODEGEN--\":8986:8987   */\n      0x00\n        /* \"--CODEGEN--\":8977:8983   */\n      dup5\n        /* \"--CODEGEN--\":8972:8975   */\n      dup5\n        /* \"--CODEGEN--\":8968:8984   */\n      add\n        /* \"--CODEGEN--\":8961:8988   */\n      mstore\n        /* \"--CODEGEN--\":8912:8914   */\n    tag_200:\n        /* \"--CODEGEN--\":8782:9001   */\n      pop\n      pop\n      pop\n      pop\n      jump\n        /* \"--CODEGEN--\":9009:9106   */\n    tag_150:\n      0x00\n        /* \"--CODEGEN--\":9097:9099   */\n      0x1f\n        /* \"--CODEGEN--\":9093:9100   */\n      not\n        /* \"--CODEGEN--\":9088:9090   */\n      0x1f\n        /* \"--CODEGEN--\":9081:9086   */\n      dup4\n        /* \"--CODEGEN--\":9077:9091   */\n      add\n        /* \"--CODEGEN--\":9073:9101   */\n      and\n        /* \"--CODEGEN--\":9063:9101   */\n      swap1\n      pop\n        /* \"--CODEGEN--\":9057:9106   */\n      swap2\n      swap1\n      pop\n      jump\n        /* \"--CODEGEN--\":9114:9231   */\n    tag_86:\n        /* \"--CODEGEN--\":9183:9207   */\n      tag_203\n        /* \"--CODEGEN--\":9201:9206   */\n      dup2\n        /* \"--CODEGEN--\":9183:9207   */\n      jump(tag_189)\n    tag_203:\n        /* \"--CODEGEN--\":9176:9181   */\n      dup2\n        /* \"--CODEGEN--\":9173:9208   */\n      eq\n        /* \"--CODEGEN--\":9163:9165   */\n      tag_204\n      jumpi\n        /* \"--CODEGEN--\":9222:9223   */\n      0x00\n        /* \"--CODEGEN--\":9219:9220   */\n      dup1\n        /* \"--CODEGEN--\":9212:9224   */\n      revert\n        /* \"--CODEGEN--\":9163:9165   */\n    tag_204:\n        /* \"--CODEGEN--\":9157:9231   */\n      pop\n      jump\n        /* \"--CODEGEN--\":9238:9355   */\n    tag_108:\n        /* \"--CODEGEN--\":9307:9331   */\n      tag_206\n        /* \"--CODEGEN--\":9325:9330   */\n      dup2\n        /* \"--CODEGEN--\":9307:9331   */\n      jump(tag_165)\n    tag_206:\n        /* \"--CODEGEN--\":9300:9305   */\n      dup2\n        /* \"--CODEGEN--\":9297:9332   */\n      eq\n        /* \"--CODEGEN--\":9287:9289   */\n      tag_207\n      jumpi\n        /* \"--CODEGEN--\":9346:9347   */\n      0x00\n        /* \"--CODEGEN--\":9343:9344   */\n      dup1\n        /* \"--CODEGEN--\":9336:9348   */\n      revert\n        /* \"--CODEGEN--\":9287:9289   */\n    tag_207:\n        /* \"--CODEGEN--\":9281:9355   */\n      pop\n      jump\n\n    auxdata: 0xa2646970667358221220d98be9cbc07804584757c9b44bf522609b5c13afade8a2e888b46b639d1ca22964736f6c63430006000033\n}\n",
				"bytecode": {
					"linkReferences": {},
					"object": "608060405234801561001057600080fd5b50610b65806100206000396000f3fe608060405234801561001057600080fd5b50600436106100935760003560e01c80636a14c9ec116100665780636a14c9ec1461014557806392174b4914610175578063b39b39a614610193578063d0427d5a146101c3578063ff64cd52146101df57610093565b806327cbd5291461009857806340291e6a146100c8578063428ae454146100f957806354d6988114610115575b600080fd5b6100b260048036036100ad9190810190610699565b6101fb565b6040516100bf919061098f565b60405180910390f35b6100e260048036036100dd9190810190610798565b610213565b6040516100f092919061093d565b60405180910390f35b610113600480360361010e9190810190610744565b6102cf565b005b61012f600480360361012a91908101906106c2565b6102f6565b60405161013c919061098f565b60405180910390f35b61015f600480360361015a9190810190610703565b610324565b60405161016c919061098f565b60405180910390f35b61017d61034c565b60405161018a919061098f565b60405180910390f35b6101ad60048036036101a89190810190610798565b610392565b6040516101ba919061096d565b60405180910390f35b6101dd60048036036101d89190810190610798565b61046b565b005b6101f960048036036101f491908101906107c1565b6104b1565b005b60006020528060005260406000206000915090505481565b6002602052806000526040600020600091509050806000018054600181600116156101000203166002900480601f0160208091040260200160405190810160405280929190818152602001828054600181600116156101000203166002900480156102bf5780601f10610294576101008083540402835291602001916102bf565b820191906000526020600020905b8154815290600101906020018083116102a257829003601f168201915b5050505050908060010154905082565b806001836040516102e09190610926565b9081526020016040518091039020819055505050565b6001818051602081018201805184825260208301602085012081835280955050505050506000915090505481565b60006001826040516103369190610926565b9081526020016040518091039020549050919050565b60008060003373ffffffffffffffffffffffffffffffffffffffff1673ffffffffffffffffffffffffffffffffffffffff16815260200190815260200160002054905090565b61039a610508565b60026000838152602001908152602001600020604051806040016040529081600082018054600181600116156101000203166002900480601f0160208091040260200160405190810160405280929190818152602001828054600181600116156101000203166002900480156104515780601f1061042657610100808354040283529160200191610451565b820191906000526020600020905b81548152906001019060200180831161043457829003601f168201915b505050505081526020016001820154815250509050919050565b806000803373ffffffffffffffffffffffffffffffffffffffff1673ffffffffffffffffffffffffffffffffffffffff1681526020019081526020016000208190555050565b6040518060400160405280838152602001828152506002600085815260200190815260200160002060008201518160000190805190602001906104f5929190610522565b5060208201518160010155905050505050565b604051806040016040528060608152602001600081525090565b828054600181600116156101000203166002900490600052602060002090601f016020900481019282601f1061056357805160ff1916838001178555610591565b82800160010185558215610591579182015b82811115610590578251825591602001919060010190610575565b5b50905061059e91906105a2565b5090565b6105c491905b808211156105c05760008160009055506001016105a8565b5090565b90565b6000813590506105d681610b01565b92915050565b600082601f8301126105ed57600080fd5b81356106006105fb826109d7565b6109aa565b9150808252602083016020830185838301111561061c57600080fd5b610627838284610aae565b50505092915050565b600082601f83011261064157600080fd5b813561065461064f82610a03565b6109aa565b9150808252602083016020830185838301111561067057600080fd5b61067b838284610aae565b50505092915050565b60008135905061069381610b18565b92915050565b6000602082840312156106ab57600080fd5b60006106b9848285016105c7565b91505092915050565b6000602082840312156106d457600080fd5b600082013567ffffffffffffffff8111156106ee57600080fd5b6106fa848285016105dc565b91505092915050565b60006020828403121561071557600080fd5b600082013567ffffffffffffffff81111561072f57600080fd5b61073b84828501610630565b91505092915050565b6000806040838503121561075757600080fd5b600083013567ffffffffffffffff81111561077157600080fd5b61077d85828601610630565b925050602061078e85828601610684565b9150509250929050565b6000602082840312156107aa57600080fd5b60006107b884828501610684565b91505092915050565b6000806000606084860312156107d657600080fd5b60006107e486828701610684565b935050602084013567ffffffffffffffff81111561080157600080fd5b61080d86828701610630565b925050604061081e86828701610684565b9150509250925092565b600061083382610a3a565b61083d8185610a67565b935061084d818560208601610abd565b80840191505092915050565b600061086482610a2f565b61086e8185610a45565b935061087e818560208601610abd565b61088781610af0565b840191505092915050565b600061089d82610a2f565b6108a78185610a56565b93506108b7818560208601610abd565b6108c081610af0565b840191505092915050565b600060408301600083015184820360008601526108e88282610859565b91505060208301516108fd6020860182610908565b508091505092915050565b61091181610aa4565b82525050565b61092081610aa4565b82525050565b60006109328284610828565b915081905092915050565b600060408201905081810360008301526109578185610892565b90506109666020830184610917565b9392505050565b6000602082019050818103600083015261098781846108cb565b905092915050565b60006020820190506109a46000830184610917565b92915050565b6000604051905081810181811067ffffffffffffffff821117156109cd57600080fd5b8060405250919050565b600067ffffffffffffffff8211156109ee57600080fd5b601f19601f8301169050602081019050919050565b600067ffffffffffffffff821115610a1a57600080fd5b601f19601f8301169050602081019050919050565b600081519050919050565b600081519050919050565b600082825260208201905092915050565b600082825260208201905092915050565b600081905092915050565b6000610a7d82610a84565b9050919050565b600073ffffffffffffffffffffffffffffffffffffffff82169050919050565b6000819050919050565b82818337600083830152505050565b60005b83811015610adb578082015181840152602081019050610ac0565b83811115610aea576000848401525b50505050565b6000601f19601f8301169050919050565b610b0a81610a72565b8114610b1557600080fd5b50565b610b2181610aa4565b8114610b2c57600080fd5b5056fea2646970667358221220d98be9cbc07804584757c9b44bf522609b5c13afade8a2e888b46b639d1ca22964736f6c63430006000033",
					"opcodes": "PUSH1 0x80 PUSH1 0x40 MSTORE CALLVALUE DUP1 ISZERO PUSH2 0x10 JUMPI PUSH1 0x0 DUP1 REVERT JUMPDEST POP PUSH2 0xB65 DUP1 PUSH2 0x20 PUSH1 0x0 CODECOPY PUSH1 0x0 RETURN INVALID PUSH1 0x80 PUSH1 0x40 MSTORE CALLVALUE DUP1 ISZERO PUSH2 0x10 JUMPI PUSH1 0x0 DUP1 REVERT JUMPDEST POP PUSH1 0x4 CALLDATASIZE LT PUSH2 0x93 JUMPI PUSH1 0x0 CALLDATALOAD PUSH1 0xE0 SHR DUP1 PUSH4 0x6A14C9EC GT PUSH2 0x66 JUMPI DUP1 PUSH4 0x6A14C9EC EQ PUSH2 0x145 JUMPI DUP1 PUSH4 0x92174B49 EQ PUSH2 0x175 JUMPI DUP1 PUSH4 0xB39B39A6 EQ PUSH2 0x193 JUMPI DUP1 PUSH4 0xD0427D5A EQ PUSH2 0x1C3 JUMPI DUP1 PUSH4 0xFF64CD52 EQ PUSH2 0x1DF JUMPI PUSH2 0x93 JUMP JUMPDEST DUP1 PUSH4 0x27CBD529 EQ PUSH2 0x98 JUMPI DUP1 PUSH4 0x40291E6A EQ PUSH2 0xC8 JUMPI DUP1 PUSH4 0x428AE454 EQ PUSH2 0xF9 JUMPI DUP1 PUSH4 0x54D69881 EQ PUSH2 0x115 JUMPI JUMPDEST PUSH1 0x0 DUP1 REVERT JUMPDEST PUSH2 0xB2 PUSH1 0x4 DUP1 CALLDATASIZE SUB PUSH2 0xAD SWAP2 SWAP1 DUP2 ADD SWAP1 PUSH2 0x699 JUMP JUMPDEST PUSH2 0x1FB JUMP JUMPDEST PUSH1 0x40 MLOAD PUSH2 0xBF SWAP2 SWAP1 PUSH2 0x98F JUMP JUMPDEST PUSH1 0x40 MLOAD DUP1 SWAP2 SUB SWAP1 RETURN JUMPDEST PUSH2 0xE2 PUSH1 0x4 DUP1 CALLDATASIZE SUB PUSH2 0xDD SWAP2 SWAP1 DUP2 ADD SWAP1 PUSH2 0x798 JUMP JUMPDEST PUSH2 0x213 JUMP JUMPDEST PUSH1 0x40 MLOAD PUSH2 0xF0 SWAP3 SWAP2 SWAP1 PUSH2 0x93D JUMP JUMPDEST PUSH1 0x40 MLOAD DUP1 SWAP2 SUB SWAP1 RETURN JUMPDEST PUSH2 0x113 PUSH1 0x4 DUP1 CALLDATASIZE SUB PUSH2 0x10E SWAP2 SWAP1 DUP2 ADD SWAP1 PUSH2 0x744 JUMP JUMPDEST PUSH2 0x2CF JUMP JUMPDEST STOP JUMPDEST PUSH2 0x12F PUSH1 0x4 DUP1 CALLDATASIZE SUB PUSH2 0x12A SWAP2 SWAP1 DUP2 ADD SWAP1 PUSH2 0x6C2 JUMP JUMPDEST PUSH2 0x2F6 JUMP JUMPDEST PUSH1 0x40 MLOAD PUSH2 0x13C SWAP2 SWAP1 PUSH2 0x98F JUMP JUMPDEST PUSH1 0x40 MLOAD DUP1 SWAP2 SUB SWAP1 RETURN JUMPDEST PUSH2 0x15F PUSH1 0x4 DUP1 CALLDATASIZE SUB PUSH2 0x15A SWAP2 SWAP1 DUP2 ADD SWAP1 PUSH2 0x703 JUMP JUMPDEST PUSH2 0x324 JUMP JUMPDEST PUSH1 0x40 MLOAD PUSH2 0x16C SWAP2 SWAP1 PUSH2 0x98F JUMP JUMPDEST PUSH1 0x40 MLOAD DUP1 SWAP2 SUB SWAP1 RETURN JUMPDEST PUSH2 0x17D PUSH2 0x34C JUMP JUMPDEST PUSH1 0x40 MLOAD PUSH2 0x18A SWAP2 SWAP1 PUSH2 0x98F JUMP JUMPDEST PUSH1 0x40 MLOAD DUP1 SWAP2 SUB SWAP1 RETURN JUMPDEST PUSH2 0x1AD PUSH1 0x4 DUP1 CALLDATASIZE SUB PUSH2 0x1A8 SWAP2 SWAP1 DUP2 ADD SWAP1 PUSH2 0x798 JUMP JUMPDEST PUSH2 0x392 JUMP JUMPDEST PUSH1 0x40 MLOAD PUSH2 0x1BA SWAP2 SWAP1 PUSH2 0x96D JUMP JUMPDEST PUSH1 0x40 MLOAD DUP1 SWAP2 SUB SWAP1 RETURN JUMPDEST PUSH2 0x1DD PUSH1 0x4 DUP1 CALLDATASIZE SUB PUSH2 0x1D8 SWAP2 SWAP1 DUP2 ADD SWAP1 PUSH2 0x798 JUMP JUMPDEST PUSH2 0x46B JUMP JUMPDEST STOP JUMPDEST PUSH2 0x1F9 PUSH1 0x4 DUP1 CALLDATASIZE SUB PUSH2 0x1F4 SWAP2 SWAP1 DUP2 ADD SWAP1 PUSH2 0x7C1 JUMP JUMPDEST PUSH2 0x4B1 JUMP JUMPDEST STOP JUMPDEST PUSH1 0x0 PUSH1 0x20 MSTORE DUP1 PUSH1 0x0 MSTORE PUSH1 0x40 PUSH1 0x0 KECCAK256 PUSH1 0x0 SWAP2 POP SWAP1 POP SLOAD DUP2 JUMP JUMPDEST PUSH1 0x2 PUSH1 0x20 MSTORE DUP1 PUSH1 0x0 MSTORE PUSH1 0x40 PUSH1 0x0 KECCAK256 PUSH1 0x0 SWAP2 POP SWAP1 POP DUP1 PUSH1 0x0 ADD DUP1 SLOAD PUSH1 0x1 DUP2 PUSH1 0x1 AND ISZERO PUSH2 0x100 MUL SUB AND PUSH1 0x2 SWAP1 DIV DUP1 PUSH1 0x1F ADD PUSH1 0x20 DUP1 SWAP2 DIV MUL PUSH1 0x20 ADD PUSH1 0x40 MLOAD SWAP1 DUP2 ADD PUSH1 0x40 MSTORE DUP1 SWAP3 SWAP2 SWAP1 DUP2 DUP2 MSTORE PUSH1 0x20 ADD DUP3 DUP1 SLOAD PUSH1 0x1 DUP2 PUSH1 0x1 AND ISZERO PUSH2 0x100 MUL SUB AND PUSH1 0x2 SWAP1 DIV DUP1 ISZERO PUSH2 0x2BF JUMPI DUP1 PUSH1 0x1F LT PUSH2 0x294 JUMPI PUSH2 0x100 DUP1 DUP4 SLOAD DIV MUL DUP4 MSTORE SWAP2 PUSH1 0x20 ADD SWAP2 PUSH2 0x2BF JUMP JUMPDEST DUP3 ADD SWAP2 SWAP1 PUSH1 0x0 MSTORE PUSH1 0x20 PUSH1 0x0 KECCAK256 SWAP1 JUMPDEST DUP2 SLOAD DUP2 MSTORE SWAP1 PUSH1 0x1 ADD SWAP1 PUSH1 0x20 ADD DUP1 DUP4 GT PUSH2 0x2A2 JUMPI DUP3 SWAP1 SUB PUSH1 0x1F AND DUP3 ADD SWAP2 JUMPDEST POP POP POP POP POP SWAP1 DUP1 PUSH1 0x1 ADD SLOAD SWAP1 POP DUP3 JUMP JUMPDEST DUP1 PUSH1 0x1 DUP4 PUSH1 0x40 MLOAD PUSH2 0x2E0 SWAP2 SWAP1 PUSH2 0x926 JUMP JUMPDEST SWAP1 DUP2 MSTORE PUSH1 0x20 ADD PUSH1 0x40 MLOAD DUP1 SWAP2 SUB SWAP1 KECCAK256 DUP2 SWAP1 SSTORE POP POP POP JUMP JUMPDEST PUSH1 0x1 DUP2 DUP1 MLOAD PUSH1 0x20 DUP2 ADD DUP3 ADD DUP1 MLOAD DUP5 DUP3 MSTORE PUSH1 0x20 DUP4 ADD PUSH1 0x20 DUP6 ADD KECCAK256 DUP2 DUP4 MSTORE DUP1 SWAP6 POP POP POP POP POP POP PUSH1 0x0 SWAP2 POP SWAP1 POP SLOAD DUP2 JUMP JUMPDEST PUSH1 0x0 PUSH1 0x1 DUP3 PUSH1 0x40 MLOAD PUSH2 0x336 SWAP2 SWAP1 PUSH2 0x926 JUMP JUMPDEST SWAP1 DUP2 MSTORE PUSH1 0x20 ADD PUSH1 0x40 MLOAD DUP1 SWAP2 SUB SWAP1 KECCAK256 SLOAD SWAP1 POP SWAP2 SWAP1 POP JUMP JUMPDEST PUSH1 0x0 DUP1 PUSH1 0x0 CALLER PUSH20 0xFFFFFFFFFFFFFFFFFFFFFFFFFFFFFFFFFFFFFFFF AND PUSH20 0xFFFFFFFFFFFFFFFFFFFFFFFFFFFFFFFFFFFFFFFF AND DUP2 MSTORE PUSH1 0x20 ADD SWAP1 DUP2 MSTORE PUSH1 0x20 ADD PUSH1 0x0 KECCAK256 SLOAD SWAP1 POP SWAP1 JUMP JUMPDEST PUSH2 0x39A PUSH2 0x508 JUMP JUMPDEST PUSH1 0x2 PUSH1 0x0 DUP4 DUP2 MSTORE PUSH1 0x20 ADD SWAP1 DUP2 MSTORE PUSH1 0x20 ADD PUSH1 0x0 KECCAK256 PUSH1 0x40 MLOAD DUP1 PUSH1 0x40 ADD PUSH1 0x40 MSTORE SWAP1 DUP2 PUSH1 0x0 DUP3 ADD DUP1 SLOAD PUSH1 0x1 DUP2 PUSH1 0x1 AND ISZERO PUSH2 0x100 MUL SUB AND PUSH1 0x2 SWAP1 DIV DUP1 PUSH1 0x1F ADD PUSH1 0x20 DUP1 SWAP2 DIV MUL PUSH1 0x20 ADD PUSH1 0x40 MLOAD SWAP1 DUP2 ADD PUSH1 0x40 MSTORE DUP1 SWAP3 SWAP2 SWAP1 DUP2 DUP2 MSTORE PUSH1 0x20 ADD DUP3 DUP1 SLOAD PUSH1 0x1 DUP2 PUSH1 0x1 AND ISZERO PUSH2 0x100 MUL SUB AND PUSH1 0x2 SWAP1 DIV DUP1 ISZERO PUSH2 0x451 JUMPI DUP1 PUSH1 0x1F LT PUSH2 0x426 JUMPI PUSH2 0x100 DUP1 DUP4 SLOAD DIV MUL DUP4 MSTORE SWAP2 PUSH1 0x20 ADD SWAP2 PUSH2 0x451 JUMP JUMPDEST DUP3 ADD SWAP2 SWAP1 PUSH1 0x0 MSTORE PUSH1 0x20 PUSH1 0x0 KECCAK256 SWAP1 JUMPDEST DUP2 SLOAD DUP2 MSTORE SWAP1 PUSH1 0x1 ADD SWAP1 PUSH1 0x20 ADD DUP1 DUP4 GT PUSH2 0x434 JUMPI DUP3 SWAP1 SUB PUSH1 0x1F AND DUP3 ADD SWAP2 JUMPDEST POP POP POP POP POP DUP2 MSTORE PUSH1 0x20 ADD PUSH1 0x1 DUP3 ADD SLOAD DUP2 MSTORE POP POP SWAP1 POP SWAP2 SWAP1 POP JUMP JUMPDEST DUP1 PUSH1 0x0 DUP1 CALLER PUSH20 0xFFFFFFFFFFFFFFFFFFFFFFFFFFFFFFFFFFFFFFFF AND PUSH20 0xFFFFFFFFFFFFFFFFFFFFFFFFFFFFFFFFFFFFFFFF AND DUP2 MSTORE PUSH1 0x20 ADD SWAP1 DUP2 MSTORE PUSH1 0x20 ADD PUSH1 0x0 KECCAK256 DUP2 SWAP1 SSTORE POP POP JUMP JUMPDEST PUSH1 0x40 MLOAD DUP1 PUSH1 0x40 ADD PUSH1 0x40 MSTORE DUP1 DUP4 DUP2 MSTORE PUSH1 0x20 ADD DUP3 DUP2 MSTORE POP PUSH1 0x2 PUSH1 0x0 DUP6 DUP2 MSTORE PUSH1 0x20 ADD SWAP1 DUP2 MSTORE PUSH1 0x20 ADD PUSH1 0x0 KECCAK256 PUSH1 0x0 DUP3 ADD MLOAD DUP2 PUSH1 0x0 ADD SWAP1 DUP1 MLOAD SWAP1 PUSH1 0x20 ADD SWAP1 PUSH2 0x4F5 SWAP3 SWAP2 SWAP1 PUSH2 0x522 JUMP JUMPDEST POP PUSH1 0x20 DUP3 ADD MLOAD DUP2 PUSH1 0x1 ADD SSTORE SWAP1 POP POP POP POP POP JUMP JUMPDEST PUSH1 0x40 MLOAD DUP1 PUSH1 0x40 ADD PUSH1 0x40 MSTORE DUP1 PUSH1 0x60 DUP2 MSTORE PUSH1 0x20 ADD PUSH1 0x0 DUP2 MSTORE POP SWAP1 JUMP JUMPDEST DUP3 DUP1 SLOAD PUSH1 0x1 DUP2 PUSH1 0x1 AND ISZERO PUSH2 0x100 MUL SUB AND PUSH1 0x2 SWAP1 DIV SWAP1 PUSH1 0x0 MSTORE PUSH1 0x20 PUSH1 0x0 KECCAK256 SWAP1 PUSH1 0x1F ADD PUSH1 0x20 SWAP1 DIV DUP2 ADD SWAP3 DUP3 PUSH1 0x1F LT PUSH2 0x563 JUMPI DUP1 MLOAD PUSH1 0xFF NOT AND DUP4 DUP1 ADD OR DUP6 SSTORE PUSH2 0x591 JUMP JUMPDEST DUP3 DUP1 ADD PUSH1 0x1 ADD DUP6 SSTORE DUP3 ISZERO PUSH2 0x591 JUMPI SWAP2 DUP3 ADD JUMPDEST DUP3 DUP2 GT ISZERO PUSH2 0x590 JUMPI DUP3 MLOAD DUP3 SSTORE SWAP2 PUSH1 0x20 ADD SWAP2 SWAP1 PUSH1 0x1 ADD SWAP1 PUSH2 0x575 JUMP JUMPDEST JUMPDEST POP SWAP1 POP PUSH2 0x59E SWAP2 SWAP1 PUSH2 0x5A2 JUMP JUMPDEST POP SWAP1 JUMP JUMPDEST PUSH2 0x5C4 SWAP2 SWAP1 JUMPDEST DUP1 DUP3 GT ISZERO PUSH2 0x5C0 JUMPI PUSH1 0x0 DUP2 PUSH1 0x0 SWAP1 SSTORE POP PUSH1 0x1 ADD PUSH2 0x5A8 JUMP JUMPDEST POP SWAP1 JUMP JUMPDEST SWAP1 JUMP JUMPDEST PUSH1 0x0 DUP2 CALLDATALOAD SWAP1 POP PUSH2 0x5D6 DUP2 PUSH2 0xB01 JUMP JUMPDEST SWAP3 SWAP2 POP POP JUMP JUMPDEST PUSH1 0x0 DUP3 PUSH1 0x1F DUP4 ADD SLT PUSH2 0x5ED JUMPI PUSH1 0x0 DUP1 REVERT JUMPDEST DUP2 CALLDATALOAD PUSH2 0x600 PUSH2 0x5FB DUP3 PUSH2 0x9D7 JUMP JUMPDEST PUSH2 0x9AA JUMP JUMPDEST SWAP2 POP DUP1 DUP3 MSTORE PUSH1 0x20 DUP4 ADD PUSH1 0x20 DUP4 ADD DUP6 DUP4 DUP4 ADD GT ISZERO PUSH2 0x61C JUMPI PUSH1 0x0 DUP1 REVERT JUMPDEST PUSH2 0x627 DUP4 DUP3 DUP5 PUSH2 0xAAE JUMP JUMPDEST POP POP POP SWAP3 SWAP2 POP POP JUMP JUMPDEST PUSH1 0x0 DUP3 PUSH1 0x1F DUP4 ADD SLT PUSH2 0x641 JUMPI PUSH1 0x0 DUP1 REVERT JUMPDEST DUP2 CALLDATALOAD PUSH2 0x654 PUSH2 0x64F DUP3 PUSH2 0xA03 JUMP JUMPDEST PUSH2 0x9AA JUMP JUMPDEST SWAP2 POP DUP1 DUP3 MSTORE PUSH1 0x20 DUP4 ADD PUSH1 0x20 DUP4 ADD DUP6 DUP4 DUP4 ADD GT ISZERO PUSH2 0x670 JUMPI PUSH1 0x0 DUP1 REVERT JUMPDEST PUSH2 0x67B DUP4 DUP3 DUP5 PUSH2 0xAAE JUMP JUMPDEST POP POP POP SWAP3 SWAP2 POP POP JUMP JUMPDEST PUSH1 0x0 DUP2 CALLDATALOAD SWAP1 POP PUSH2 0x693 DUP2 PUSH2 0xB18 JUMP JUMPDEST SWAP3 SWAP2 POP POP JUMP JUMPDEST PUSH1 0x0 PUSH1 0x20 DUP3 DUP5 SUB SLT ISZERO PUSH2 0x6AB JUMPI PUSH1 0x0 DUP1 REVERT JUMPDEST PUSH1 0x0 PUSH2 0x6B9 DUP5 DUP3 DUP6 ADD PUSH2 0x5C7 JUMP JUMPDEST SWAP2 POP POP SWAP3 SWAP2 POP POP JUMP JUMPDEST PUSH1 0x0 PUSH1 0x20 DUP3 DUP5 SUB SLT ISZERO PUSH2 0x6D4 JUMPI PUSH1 0x0 DUP1 REVERT JUMPDEST PUSH1 0x0 DUP3 ADD CALLDATALOAD PUSH8 0xFFFFFFFFFFFFFFFF DUP2 GT ISZERO PUSH2 0x6EE JUMPI PUSH1 0x0 DUP1 REVERT JUMPDEST PUSH2 0x6FA DUP5 DUP3 DUP6 ADD PUSH2 0x5DC JUMP JUMPDEST SWAP2 POP POP SWAP3 SWAP2 POP POP JUMP JUMPDEST PUSH1 0x0 PUSH1 0x20 DUP3 DUP5 SUB SLT ISZERO PUSH2 0x715 JUMPI PUSH1 0x0 DUP1 REVERT JUMPDEST PUSH1 0x0 DUP3 ADD CALLDATALOAD PUSH8 0xFFFFFFFFFFFFFFFF DUP2 GT ISZERO PUSH2 0x72F JUMPI PUSH1 0x0 DUP1 REVERT JUMPDEST PUSH2 0x73B DUP5 DUP3 DUP6 ADD PUSH2 0x630 JUMP JUMPDEST SWAP2 POP POP SWAP3 SWAP2 POP POP JUMP JUMPDEST PUSH1 0x0 DUP1 PUSH1 0x40 DUP4 DUP6 SUB SLT ISZERO PUSH2 0x757 JUMPI PUSH1 0x0 DUP1 REVERT JUMPDEST PUSH1 0x0 DUP4 ADD CALLDATALOAD PUSH8 0xFFFFFFFFFFFFFFFF DUP2 GT ISZERO PUSH2 0x771 JUMPI PUSH1 0x0 DUP1 REVERT JUMPDEST PUSH2 0x77D DUP6 DUP3 DUP7 ADD PUSH2 0x630 JUMP JUMPDEST SWAP3 POP POP PUSH1 0x20 PUSH2 0x78E DUP6 DUP3 DUP7 ADD PUSH2 0x684 JUMP JUMPDEST SWAP2 POP POP SWAP3 POP SWAP3 SWAP1 POP JUMP JUMPDEST PUSH1 0x0 PUSH1 0x20 DUP3 DUP5 SUB SLT ISZERO PUSH2 0x7AA JUMPI PUSH1 0x0 DUP1 REVERT JUMPDEST PUSH1 0x0 PUSH2 0x7B8 DUP5 DUP3 DUP6 ADD PUSH2 0x684 JUMP JUMPDEST SWAP2 POP POP SWAP3 SWAP2 POP POP JUMP JUMPDEST PUSH1 0x0 DUP1 PUSH1 0x0 PUSH1 0x60 DUP5 DUP7 SUB SLT ISZERO PUSH2 0x7D6 JUMPI PUSH1 0x0 DUP1 REVERT JUMPDEST PUSH1 0x0 PUSH2 0x7E4 DUP7 DUP3 DUP8 ADD PUSH2 0x684 JUMP JUMPDEST SWAP4 POP POP PUSH1 0x20 DUP5 ADD CALLDATALOAD PUSH8 0xFFFFFFFFFFFFFFFF DUP2 GT ISZERO PUSH2 0x801 JUMPI PUSH1 0x0 DUP1 REVERT JUMPDEST PUSH2 0x80D DUP7 DUP3 DUP8 ADD PUSH2 0x630 JUMP JUMPDEST SWAP3 POP POP PUSH1 0x40 PUSH2 0x81E DUP7 DUP3 DUP8 ADD PUSH2 0x684 JUMP JUMPDEST SWAP2 POP POP SWAP3 POP SWAP3 POP SWAP3 JUMP JUMPDEST PUSH1 0x0 PUSH2 0x833 DUP3 PUSH2 0xA3A JUMP JUMPDEST PUSH2 0x83D DUP2 DUP6 PUSH2 0xA67 JUMP JUMPDEST SWAP4 POP PUSH2 0x84D DUP2 DUP6 PUSH1 0x20 DUP7 ADD PUSH2 0xABD JUMP JUMPDEST DUP1 DUP5 ADD SWAP2 POP POP SWAP3 SWAP2 POP POP JUMP JUMPDEST PUSH1 0x0 PUSH2 0x864 DUP3 PUSH2 0xA2F JUMP JUMPDEST PUSH2 0x86E DUP2 DUP6 PUSH2 0xA45 JUMP JUMPDEST SWAP4 POP PUSH2 0x87E DUP2 DUP6 PUSH1 0x20 DUP7 ADD PUSH2 0xABD JUMP JUMPDEST PUSH2 0x887 DUP2 PUSH2 0xAF0 JUMP JUMPDEST DUP5 ADD SWAP2 POP POP SWAP3 SWAP2 POP POP JUMP JUMPDEST PUSH1 0x0 PUSH2 0x89D DUP3 PUSH2 0xA2F JUMP JUMPDEST PUSH2 0x8A7 DUP2 DUP6 PUSH2 0xA56 JUMP JUMPDEST SWAP4 POP PUSH2 0x8B7 DUP2 DUP6 PUSH1 0x20 DUP7 ADD PUSH2 0xABD JUMP JUMPDEST PUSH2 0x8C0 DUP2 PUSH2 0xAF0 JUMP JUMPDEST DUP5 ADD SWAP2 POP POP SWAP3 SWAP2 POP POP JUMP JUMPDEST PUSH1 0x0 PUSH1 0x40 DUP4 ADD PUSH1 0x0 DUP4 ADD MLOAD DUP5 DUP3 SUB PUSH1 0x0 DUP7 ADD MSTORE PUSH2 0x8E8 DUP3 DUP3 PUSH2 0x859 JUMP JUMPDEST SWAP2 POP POP PUSH1 0x20 DUP4 ADD MLOAD PUSH2 0x8FD PUSH1 0x20 DUP7 ADD DUP3 PUSH2 0x908 JUMP JUMPDEST POP DUP1 SWAP2 POP POP SWAP3 SWAP2 POP POP JUMP JUMPDEST PUSH2 0x911 DUP2 PUSH2 0xAA4 JUMP JUMPDEST DUP3 MSTORE POP POP JUMP JUMPDEST PUSH2 0x920 DUP2 PUSH2 0xAA4 JUMP JUMPDEST DUP3 MSTORE POP POP JUMP JUMPDEST PUSH1 0x0 PUSH2 0x932 DUP3 DUP5 PUSH2 0x828 JUMP JUMPDEST SWAP2 POP DUP2 SWAP1 POP SWAP3 SWAP2 POP POP JUMP JUMPDEST PUSH1 0x0 PUSH1 0x40 DUP3 ADD SWAP1 POP DUP2 DUP2 SUB PUSH1 0x0 DUP4 ADD MSTORE PUSH2 0x957 DUP2 DUP6 PUSH2 0x892 JUMP JUMPDEST SWAP1 POP PUSH2 0x966 PUSH1 0x20 DUP4 ADD DUP5 PUSH2 0x917 JUMP JUMPDEST SWAP4 SWAP3 POP POP POP JUMP JUMPDEST PUSH1 0x0 PUSH1 0x20 DUP3 ADD SWAP1 POP DUP2 DUP2 SUB PUSH1 0x0 DUP4 ADD MSTORE PUSH2 0x987 DUP2 DUP5 PUSH2 0x8CB JUMP JUMPDEST SWAP1 POP SWAP3 SWAP2 POP POP JUMP JUMPDEST PUSH1 0x0 PUSH1 0x20 DUP3 ADD SWAP1 POP PUSH2 0x9A4 PUSH1 0x0 DUP4 ADD DUP5 PUSH2 0x917 JUMP JUMPDEST SWAP3 SWAP2 POP POP JUMP JUMPDEST PUSH1 0x0 PUSH1 0x40 MLOAD SWAP1 POP DUP2 DUP2 ADD DUP2 DUP2 LT PUSH8 0xFFFFFFFFFFFFFFFF DUP3 GT OR ISZERO PUSH2 0x9CD JUMPI PUSH1 0x0 DUP1 REVERT JUMPDEST DUP1 PUSH1 0x40 MSTORE POP SWAP2 SWAP1 POP JUMP JUMPDEST PUSH1 0x0 PUSH8 0xFFFFFFFFFFFFFFFF DUP3 GT ISZERO PUSH2 0x9EE JUMPI PUSH1 0x0 DUP1 REVERT JUMPDEST PUSH1 0x1F NOT PUSH1 0x1F DUP4 ADD AND SWAP1 POP PUSH1 0x20 DUP2 ADD SWAP1 POP SWAP2 SWAP1 POP JUMP JUMPDEST PUSH1 0x0 PUSH8 0xFFFFFFFFFFFFFFFF DUP3 GT ISZERO PUSH2 0xA1A JUMPI PUSH1 0x0 DUP1 REVERT JUMPDEST PUSH1 0x1F NOT PUSH1 0x1F DUP4 ADD AND SWAP1 POP PUSH1 0x20 DUP2 ADD SWAP1 POP SWAP2 SWAP1 POP JUMP JUMPDEST PUSH1 0x0 DUP2 MLOAD SWAP1 POP SWAP2 SWAP1 POP JUMP JUMPDEST PUSH1 0x0 DUP2 MLOAD SWAP1 POP SWAP2 SWAP1 POP JUMP JUMPDEST PUSH1 0x0 DUP3 DUP3 MSTORE PUSH1 0x20 DUP3 ADD SWAP1 POP SWAP3 SWAP2 POP POP JUMP JUMPDEST PUSH1 0x0 DUP3 DUP3 MSTORE PUSH1 0x20 DUP3 ADD SWAP1 POP SWAP3 SWAP2 POP POP JUMP JUMPDEST PUSH1 0x0 DUP2 SWAP1 POP SWAP3 SWAP2 POP POP JUMP JUMPDEST PUSH1 0x0 PUSH2 0xA7D DUP3 PUSH2 0xA84 JUMP JUMPDEST SWAP1 POP SWAP2 SWAP1 POP JUMP JUMPDEST PUSH1 0x0 PUSH20 0xFFFFFFFFFFFFFFFFFFFFFFFFFFFFFFFFFFFFFFFF DUP3 AND SWAP1 POP SWAP2 SWAP1 POP JUMP JUMPDEST PUSH1 0x0 DUP2 SWAP1 POP SWAP2 SWAP1 POP JUMP JUMPDEST DUP3 DUP2 DUP4 CALLDATACOPY PUSH1 0x0 DUP4 DUP4 ADD MSTORE POP POP POP JUMP JUMPDEST PUSH1 0x0 JUMPDEST DUP4 DUP2 LT ISZERO PUSH2 0xADB JUMPI DUP1 DUP3 ADD MLOAD DUP2 DUP5 ADD MSTORE PUSH1 0x20 DUP2 ADD SWAP1 POP PUSH2 0xAC0 JUMP JUMPDEST DUP4 DUP2 GT ISZERO PUSH2 0xAEA JUMPI PUSH1 0x0 DUP5 DUP5 ADD MSTORE JUMPDEST POP POP POP POP JUMP JUMPDEST PUSH1 0x0 PUSH1 0x1F NOT PUSH1 0x1F DUP4 ADD AND SWAP1 POP SWAP2 SWAP1 POP JUMP JUMPDEST PUSH2 0xB0A DUP2 PUSH2 0xA72 JUMP JUMPDEST DUP2 EQ PUSH2 0xB15 JUMPI PUSH1 0x0 DUP1 REVERT JUMPDEST POP JUMP JUMPDEST PUSH2 0xB21 DUP2 PUSH2 0xAA4 JUMP JUMPDEST DUP2 EQ PUSH2 0xB2C JUMPI PUSH1 0x0 DUP1 REVERT JUMPDEST POP JUMP INVALID LOG2 PUSH5 0x6970667358 0x22 SLT KECCAK256 0xD9 DUP12 0xE9 0xCB 0xC0 PUSH25 0x4584757C9B44BF522609B5C13AFADE8A2E888B46B639D1CA2 0x29 PUSH5 0x736F6C6343 STOP MOD STOP STOP CALLER "
				},
				"gasEstimates": {
					"creation": {
						"codeDepositCost": "583400",
						"executionCost": "619",
						"totalCost": "584019"
					},
					"external": {
						"Dinero(string,uint256)": "infinite",
						"cantidadDinero(string)": "infinite",
						"consultarNumero()": "1248",
						"crearPersona(uint256,string,uint256)": "infinite",
						"elegirNumero(uint256)": "20575",
						"myMap(address)": "1515",
						"personas(uint256)": "infinite",
						"verDinero(string)": "infinite",
						"visualizarPersona(uint256)": "infinite"
					}
				},
				"methodIdentifiers": {
					"Dinero(string,uint256)": "428ae454",
					"cantidadDinero(string)": "54d69881",
					"consultarNumero()": "92174b49",
					"crearPersona(uint256,string,uint256)": "ff64cd52",
					"elegirNumero(uint256)": "d0427d5a",
					"myMap(address)": "27cbd529",
					"personas(uint256)": "40291e6a",
					"verDinero(string)": "6a14c9ec",
					"visualizarPersona(uint256)": "b39b39a6"
				}
			},
			"storageLayout": {
				"storage": [
					{
						"astId": 6,
						"contract": "Estructuras de datos/mappings.sol:Mappings",
						"label": "myMap",
						"offset": 0,
						"slot": "0",
						"type": "t_mapping(t_address,t_uint256)"
					},
					{
						"astId": 34,
						"contract": "Estructuras de datos/mappings.sol:Mappings",
						"label": "cantidadDinero",
						"offset": 0,
						"slot": "1",
						"type": "t_mapping(t_string_memory,t_uint256)"
					},
					{
						"astId": 69,
						"contract": "Estructuras de datos/mappings.sol:Mappings",
						"label": "personas",
						"offset": 0,
						"slot": "2",
						"type": "t_mapping(t_uint256,t_struct(Persona)65_storage)"
					}
				],
				"types": {
					"t_address": {
						"encoding": "inplace",
						"label": "address",
						"numberOfBytes": "20"
					},
					"t_mapping(t_address,t_uint256)": {
						"encoding": "mapping",
						"key": "t_address",
						"label": "mapping(address => uint256)",
						"numberOfBytes": "32",
						"value": "t_uint256"
					},
					"t_mapping(t_string_memory,t_uint256)": {
						"encoding": "mapping",
						"key": "t_string_memory",
						"label": "mapping(string => uint256)",
						"numberOfBytes": "32",
						"value": "t_uint256"
					},
					"t_mapping(t_uint256,t_struct(Persona)65_storage)": {
						"encoding": "mapping",
						"key": "t_uint256",
						"label": "mapping(uint256 => struct Mappings.Persona)",
						"numberOfBytes": "32",
						"value": "t_struct(Persona)65_storage"
					},
					"t_string_memory": {
						"encoding": "bytes",
						"label": "string",
						"numberOfBytes": "32"
					},
					"t_string_storage": {
						"encoding": "bytes",
						"label": "string",
						"numberOfBytes": "32"
					},
					"t_struct(Persona)65_storage": {
						"encoding": "inplace",
						"label": "struct Mappings.Persona",
						"members": [
							{
								"astId": 62,
								"contract": "Estructuras de datos/mappings.sol:Mappings",
								"label": "nombre",
								"offset": 0,
								"slot": "0",
								"type": "t_string_storage"
							},
							{
								"astId": 64,
								"contract": "Estructuras de datos/mappings.sol:Mappings",
								"label": "edad",
								"offset": 0,
								"slot": "1",
								"type": "t_uint256"
							}
						],
						"numberOfBytes": "64"
					},
					"t_uint256": {
						"encoding": "inplace",
						"label": "uint256",
						"numberOfBytes": "32"
					}
				}
			},
			"userdoc": {
				"methods": {}
			}
		}
	}
}