{
	"Variables y operadores/modificadores.sol": {
		"modificadores": {
			"abi": [
				{
					"inputs": [],
					"stateMutability": "nonpayable",
					"type": "constructor"
				},
				{
					"inputs": [],
					"name": "mi_entero",
					"outputs": [
						{
							"internalType": "uint256",
							"name": "",
							"type": "uint256"
						}
					],
					"stateMutability": "view",
					"type": "function"
				},
				{
					"inputs": [],
					"name": "mi_string",
					"outputs": [
						{
							"internalType": "string",
							"name": "",
							"type": "string"
						}
					],
					"stateMutability": "view",
					"type": "function"
				},
				{
					"inputs": [],
					"name": "owner",
					"outputs": [
						{
							"internalType": "address",
							"name": "",
							"type": "address"
						}
					],
					"stateMutability": "view",
					"type": "function"
				},
				{
					"inputs": [
						{
							"internalType": "uint256",
							"name": "_k",
							"type": "uint256"
						}
					],
					"name": "test",
					"outputs": [],
					"stateMutability": "nonpayable",
					"type": "function"
				}
			],
			"devdoc": {
				"methods": {}
			},
			"evm": {
				"assembly": "    /* \"Variables y operadores/modificadores.sol\":70:650  contract modificadores {\r... */\n  mstore(0x40, 0x80)\n    /* \"Variables y operadores/modificadores.sol\":151:153  45 */\n  0x2d\n    /* \"Variables y operadores/modificadores.sol\":127:153  uint public mi_entero = 45 */\n  0x00\n  sstore\n    /* \"Variables y operadores/modificadores.sol\":160:194  string public mi_string = \"Alvaro\" */\n  mload(0x40)\n  dup1\n  0x40\n  add\n  0x40\n  mstore\n  dup1\n  0x06\n  dup2\n  mstore\n  0x20\n  add\n  0x416c7661726f0000000000000000000000000000000000000000000000000000\n  dup2\n  mstore\n  pop\n  0x01\n  swap1\n  dup1\n  mload\n  swap1\n  0x20\n  add\n  swap1\n  tag_1\n  swap3\n  swap2\n  swap1\n  tag_2\n  jump\t// in\ntag_1:\n  pop\n    /* \"Variables y operadores/modificadores.sol\":357:361  1000 */\n  0x03e8\n    /* \"Variables y operadores/modificadores.sol\":324:361  uint private mi_entero_privado = 1000 */\n  0x03\n  sstore\n    /* \"Variables y operadores/modificadores.sol\":388:392  true */\n  0x01\n    /* \"Variables y operadores/modificadores.sol\":368:392  bool private flag = true */\n  0x04\n  exp(0x0100, 0x00)\n  dup2\n  sload\n  dup2\n  0xff\n  mul\n  not\n  and\n  swap1\n  dup4\n  iszero\n  iszero\n  mul\n  or\n  swap1\n  sstore\n  pop\n    /* \"Variables y operadores/modificadores.sol\":543:567  abi.encodePacked(\"hola\") */\n  add(0x20, mload(0x40))\n  tag_3\n  swap1\n  jump(tag_4)\ntag_3:\n  mload(0x40)\n    /* \"--CODEGEN--\":49:53   */\n  0x20\n    /* \"--CODEGEN--\":39:46   */\n  dup2\n    /* \"--CODEGEN--\":30:37   */\n  dup4\n    /* \"--CODEGEN--\":26:47   */\n  sub\n    /* \"--CODEGEN--\":22:54   */\n  sub\n    /* \"--CODEGEN--\":13:20   */\n  dup2\n    /* \"--CODEGEN--\":6:55   */\n  mstore\n    /* \"Variables y operadores/modificadores.sol\":543:567  abi.encodePacked(\"hola\") */\n  swap1\n  0x40\n  mstore\n    /* \"Variables y operadores/modificadores.sol\":533:568  keccak256(abi.encodePacked(\"hola\")) */\n  dup1\n  mload\n  swap1\n  0x20\n  add\n  keccak256\n    /* \"Variables y operadores/modificadores.sol\":509:568  bytes32 internal hash = keccak256(abi.encodePacked(\"hola\")) */\n  0x05\n  sstore\n    /* \"Variables y operadores/modificadores.sol\":604:646  0x5B38Da6a701c568545dCfcB03FcB875f56beddC4 */\n  0x5b38da6a701c568545dcfcb03fcb875f56beddc4\n    /* \"Variables y operadores/modificadores.sol\":575:646  address internal direccion = 0x5B38Da6a701c568545dCfcB03FcB875f56beddC4 */\n  0x06\n  exp(0x0100, 0x00)\n  dup2\n  sload\n  dup2\n  0xffffffffffffffffffffffffffffffffffffffff\n  mul\n  not\n  and\n  swap1\n  dup4\n  0xffffffffffffffffffffffffffffffffffffffff\n  and\n  mul\n  or\n  swap1\n  sstore\n  pop\n    /* \"Variables y operadores/modificadores.sol\":230:288  constructor() public {\r... */\n  callvalue\n    /* \"--CODEGEN--\":8:17   */\n  dup1\n    /* \"--CODEGEN--\":5:7   */\n  iszero\n  tag_5\n  jumpi\n    /* \"--CODEGEN--\":30:31   */\n  0x00\n    /* \"--CODEGEN--\":27:28   */\n  dup1\n    /* \"--CODEGEN--\":20:32   */\n  revert\n    /* \"--CODEGEN--\":5:7   */\ntag_5:\n    /* \"Variables y operadores/modificadores.sol\":230:288  constructor() public {\r... */\n  pop\n    /* \"Variables y operadores/modificadores.sol\":270:280  msg.sender */\n  caller\n    /* \"Variables y operadores/modificadores.sol\":262:267  owner */\n  0x02\n  0x00\n    /* \"Variables y operadores/modificadores.sol\":262:280  owner = msg.sender */\n  0x0100\n  exp\n  dup2\n  sload\n  dup2\n  0xffffffffffffffffffffffffffffffffffffffff\n  mul\n  not\n  and\n  swap1\n  dup4\n  0xffffffffffffffffffffffffffffffffffffffff\n  and\n  mul\n  or\n  swap1\n  sstore\n  pop\n    /* \"Variables y operadores/modificadores.sol\":70:650  contract modificadores {\r... */\n  jump(tag_8)\ntag_2:\n  dup3\n  dup1\n  sload\n  0x01\n  dup2\n  0x01\n  and\n  iszero\n  0x0100\n  mul\n  sub\n  and\n  0x02\n  swap1\n  div\n  swap1\n  0x00\n  mstore\n  keccak256(0x00, 0x20)\n  swap1\n  0x1f\n  add\n  0x20\n  swap1\n  div\n  dup2\n  add\n  swap3\n  dup3\n  0x1f\n  lt\n  tag_10\n  jumpi\n  dup1\n  mload\n  not(0xff)\n  and\n  dup4\n  dup1\n  add\n  or\n  dup6\n  sstore\n  jump(tag_9)\ntag_10:\n  dup3\n  dup1\n  add\n  0x01\n  add\n  dup6\n  sstore\n  dup3\n  iszero\n  tag_9\n  jumpi\n  swap2\n  dup3\n  add\ntag_11:\n  dup3\n  dup2\n  gt\n  iszero\n  tag_12\n  jumpi\n  dup3\n  mload\n  dup3\n  sstore\n  swap2\n  0x20\n  add\n  swap2\n  swap1\n  0x01\n  add\n  swap1\n  jump(tag_11)\ntag_12:\ntag_9:\n  pop\n  swap1\n  pop\n  tag_13\n  swap2\n  swap1\n  tag_14\n  jump\t// in\ntag_13:\n  pop\n  swap1\n  jump\t// out\ntag_14:\n  tag_15\n  swap2\n  swap1\ntag_16:\n  dup1\n  dup3\n  gt\n  iszero\n  tag_17\n  jumpi\n  0x00\n  dup2\n  0x00\n  swap1\n  sstore\n  pop\n  0x01\n  add\n  jump(tag_16)\ntag_17:\n  pop\n  swap1\n  jump\ntag_15:\n  swap1\n  jump\t// out\n    /* \"--CODEGEN--\":6:344   */\ntag_19:\n  0x00\n    /* \"--CODEGEN--\":184:268   */\n  tag_21\n    /* \"--CODEGEN--\":266:267   */\n  0x04\n    /* \"--CODEGEN--\":261:264   */\n  dup4\n    /* \"--CODEGEN--\":184:268   */\n  jump(tag_22)\ntag_21:\n    /* \"--CODEGEN--\":177:268   */\n  swap2\n  pop\n    /* \"--CODEGEN--\":301:307   */\n  0x686f6c6100000000000000000000000000000000000000000000000000000000\n    /* \"--CODEGEN--\":297:298   */\n  0x00\n    /* \"--CODEGEN--\":292:295   */\n  dup4\n    /* \"--CODEGEN--\":288:299   */\n  add\n    /* \"--CODEGEN--\":281:308   */\n  mstore\n    /* \"--CODEGEN--\":336:337   */\n  0x04\n    /* \"--CODEGEN--\":331:334   */\n  dup3\n    /* \"--CODEGEN--\":327:338   */\n  add\n    /* \"--CODEGEN--\":320:338   */\n  swap1\n  pop\n    /* \"--CODEGEN--\":170:344   */\n  swap2\n  swap1\n  pop\n  jump\n    /* \"--CODEGEN--\":352:724   */\ntag_4:\n  0x00\n    /* \"--CODEGEN--\":551:699   */\n  tag_24\n    /* \"--CODEGEN--\":695:698   */\n  dup3\n    /* \"--CODEGEN--\":551:699   */\n  jump(tag_19)\ntag_24:\n    /* \"--CODEGEN--\":544:699   */\n  swap2\n  pop\n    /* \"--CODEGEN--\":716:719   */\n  dup2\n    /* \"--CODEGEN--\":709:719   */\n  swap1\n  pop\n    /* \"--CODEGEN--\":532:724   */\n  swap2\n  swap1\n  pop\n  jump\n    /* \"--CODEGEN--\":732:877   */\ntag_22:\n  0x00\n    /* \"--CODEGEN--\":868:871   */\n  dup2\n    /* \"--CODEGEN--\":853:871   */\n  swap1\n  pop\n    /* \"--CODEGEN--\":846:877   */\n  swap3\n  swap2\n  pop\n  pop\n  jump\n    /* \"Variables y operadores/modificadores.sol\":70:650  contract modificadores {\r... */\ntag_8:\n  dataSize(sub_0)\n  dup1\n  dataOffset(sub_0)\n  0x00\n  codecopy\n  0x00\n  return\nstop\n\nsub_0: assembly {\n        /* \"Variables y operadores/modificadores.sol\":70:650  contract modificadores {\r... */\n      mstore(0x40, 0x80)\n      callvalue\n        /* \"--CODEGEN--\":8:17   */\n      dup1\n        /* \"--CODEGEN--\":5:7   */\n      iszero\n      tag_1\n      jumpi\n        /* \"--CODEGEN--\":30:31   */\n      0x00\n        /* \"--CODEGEN--\":27:28   */\n      dup1\n        /* \"--CODEGEN--\":20:32   */\n      revert\n        /* \"--CODEGEN--\":5:7   */\n    tag_1:\n        /* \"Variables y operadores/modificadores.sol\":70:650  contract modificadores {\r... */\n      pop\n      jumpi(tag_2, lt(calldatasize, 0x04))\n      shr(0xe0, calldataload(0x00))\n      dup1\n      0x29e99f07\n      eq\n      tag_3\n      jumpi\n      dup1\n      0x5acd2fe1\n      eq\n      tag_4\n      jumpi\n      dup1\n      0x8da5cb5b\n      eq\n      tag_5\n      jumpi\n      dup1\n      0x91a1f789\n      eq\n      tag_6\n      jumpi\n    tag_2:\n      0x00\n      dup1\n      revert\n        /* \"Variables y operadores/modificadores.sol\":401:472  function test(uint _k) public {\r... */\n    tag_3:\n      tag_7\n      0x04\n      dup1\n      calldatasize\n      sub\n      tag_8\n      swap2\n      swap1\n      dup2\n      add\n      swap1\n      jump(tag_9)\n    tag_8:\n      tag_10\n      jump\t// in\n    tag_7:\n      stop\n        /* \"Variables y operadores/modificadores.sol\":160:194  string public mi_string = \"Alvaro\" */\n    tag_4:\n      tag_11\n      tag_12\n      jump\t// in\n    tag_11:\n      mload(0x40)\n      tag_13\n      swap2\n      swap1\n      jump(tag_14)\n    tag_13:\n      mload(0x40)\n      dup1\n      swap2\n      sub\n      swap1\n      return\n        /* \"Variables y operadores/modificadores.sol\":201:221  address public owner */\n    tag_5:\n      tag_15\n      tag_16\n      jump\t// in\n    tag_15:\n      mload(0x40)\n      tag_17\n      swap2\n      swap1\n      jump(tag_18)\n    tag_17:\n      mload(0x40)\n      dup1\n      swap2\n      sub\n      swap1\n      return\n        /* \"Variables y operadores/modificadores.sol\":127:153  uint public mi_entero = 45 */\n    tag_6:\n      tag_19\n      tag_20\n      jump\t// in\n    tag_19:\n      mload(0x40)\n      tag_21\n      swap2\n      swap1\n      jump(tag_22)\n    tag_21:\n      mload(0x40)\n      dup1\n      swap2\n      sub\n      swap1\n      return\n        /* \"Variables y operadores/modificadores.sol\":401:472  function test(uint _k) public {\r... */\n    tag_10:\n        /* \"Variables y operadores/modificadores.sol\":462:464  _k */\n      dup1\n        /* \"Variables y operadores/modificadores.sol\":442:459  mi_entero_privado */\n      0x03\n        /* \"Variables y operadores/modificadores.sol\":442:464  mi_entero_privado = _k */\n      dup2\n      swap1\n      sstore\n      pop\n        /* \"Variables y operadores/modificadores.sol\":401:472  function test(uint _k) public {\r... */\n      pop\n      jump\t// out\n        /* \"Variables y operadores/modificadores.sol\":160:194  string public mi_string = \"Alvaro\" */\n    tag_12:\n      0x01\n      dup1\n      sload\n      0x01\n      dup2\n      0x01\n      and\n      iszero\n      0x0100\n      mul\n      sub\n      and\n      0x02\n      swap1\n      div\n      dup1\n      0x1f\n      add\n      0x20\n      dup1\n      swap2\n      div\n      mul\n      0x20\n      add\n      mload(0x40)\n      swap1\n      dup2\n      add\n      0x40\n      mstore\n      dup1\n      swap3\n      swap2\n      swap1\n      dup2\n      dup2\n      mstore\n      0x20\n      add\n      dup3\n      dup1\n      sload\n      0x01\n      dup2\n      0x01\n      and\n      iszero\n      0x0100\n      mul\n      sub\n      and\n      0x02\n      swap1\n      div\n      dup1\n      iszero\n      tag_24\n      jumpi\n      dup1\n      0x1f\n      lt\n      tag_25\n      jumpi\n      0x0100\n      dup1\n      dup4\n      sload\n      div\n      mul\n      dup4\n      mstore\n      swap2\n      0x20\n      add\n      swap2\n      jump(tag_24)\n    tag_25:\n      dup3\n      add\n      swap2\n      swap1\n      0x00\n      mstore\n      keccak256(0x00, 0x20)\n      swap1\n    tag_26:\n      dup2\n      sload\n      dup2\n      mstore\n      swap1\n      0x01\n      add\n      swap1\n      0x20\n      add\n      dup1\n      dup4\n      gt\n      tag_26\n      jumpi\n      dup3\n      swap1\n      sub\n      0x1f\n      and\n      dup3\n      add\n      swap2\n    tag_24:\n      pop\n      pop\n      pop\n      pop\n      pop\n      dup2\n      jump\t// out\n        /* \"Variables y operadores/modificadores.sol\":201:221  address public owner */\n    tag_16:\n      0x02\n      0x00\n      swap1\n      sload\n      swap1\n      0x0100\n      exp\n      swap1\n      div\n      0xffffffffffffffffffffffffffffffffffffffff\n      and\n      dup2\n      jump\t// out\n        /* \"Variables y operadores/modificadores.sol\":127:153  uint public mi_entero = 45 */\n    tag_20:\n      sload(0x00)\n      dup2\n      jump\t// out\n        /* \"--CODEGEN--\":5:135   */\n    tag_28:\n      0x00\n        /* \"--CODEGEN--\":85:91   */\n      dup2\n        /* \"--CODEGEN--\":72:92   */\n      calldataload\n        /* \"--CODEGEN--\":63:92   */\n      swap1\n      pop\n        /* \"--CODEGEN--\":97:130   */\n      tag_30\n        /* \"--CODEGEN--\":124:129   */\n      dup2\n        /* \"--CODEGEN--\":97:130   */\n      jump(tag_31)\n    tag_30:\n        /* \"--CODEGEN--\":57:135   */\n      swap3\n      swap2\n      pop\n      pop\n      jump\n        /* \"--CODEGEN--\":142:383   */\n    tag_9:\n      0x00\n        /* \"--CODEGEN--\":246:248   */\n      0x20\n        /* \"--CODEGEN--\":234:243   */\n      dup3\n        /* \"--CODEGEN--\":225:232   */\n      dup5\n        /* \"--CODEGEN--\":221:244   */\n      sub\n        /* \"--CODEGEN--\":217:249   */\n      slt\n        /* \"--CODEGEN--\":214:216   */\n      iszero\n      tag_33\n      jumpi\n        /* \"--CODEGEN--\":262:263   */\n      0x00\n        /* \"--CODEGEN--\":259:260   */\n      dup1\n        /* \"--CODEGEN--\":252:264   */\n      revert\n        /* \"--CODEGEN--\":214:216   */\n    tag_33:\n        /* \"--CODEGEN--\":297:298   */\n      0x00\n        /* \"--CODEGEN--\":314:367   */\n      tag_34\n        /* \"--CODEGEN--\":359:366   */\n      dup5\n        /* \"--CODEGEN--\":350:356   */\n      dup3\n        /* \"--CODEGEN--\":339:348   */\n      dup6\n        /* \"--CODEGEN--\":335:357   */\n      add\n        /* \"--CODEGEN--\":314:367   */\n      jump(tag_28)\n    tag_34:\n        /* \"--CODEGEN--\":304:367   */\n      swap2\n      pop\n        /* \"--CODEGEN--\":276:373   */\n      pop\n        /* \"--CODEGEN--\":208:383   */\n      swap3\n      swap2\n      pop\n      pop\n      jump\n        /* \"--CODEGEN--\":390:503   */\n    tag_35:\n        /* \"--CODEGEN--\":473:497   */\n      tag_37\n        /* \"--CODEGEN--\":491:496   */\n      dup2\n        /* \"--CODEGEN--\":473:497   */\n      jump(tag_38)\n    tag_37:\n        /* \"--CODEGEN--\":468:471   */\n      dup3\n        /* \"--CODEGEN--\":461:498   */\n      mstore\n        /* \"--CODEGEN--\":455:503   */\n      pop\n      pop\n      jump\n        /* \"--CODEGEN--\":510:849   */\n    tag_39:\n      0x00\n        /* \"--CODEGEN--\":618:653   */\n      tag_41\n        /* \"--CODEGEN--\":647:652   */\n      dup3\n        /* \"--CODEGEN--\":618:653   */\n      jump(tag_42)\n    tag_41:\n        /* \"--CODEGEN--\":665:736   */\n      tag_43\n        /* \"--CODEGEN--\":729:735   */\n      dup2\n        /* \"--CODEGEN--\":724:727   */\n      dup6\n        /* \"--CODEGEN--\":665:736   */\n      jump(tag_44)\n    tag_43:\n        /* \"--CODEGEN--\":658:736   */\n      swap4\n      pop\n        /* \"--CODEGEN--\":741:793   */\n      tag_45\n        /* \"--CODEGEN--\":786:792   */\n      dup2\n        /* \"--CODEGEN--\":781:784   */\n      dup6\n        /* \"--CODEGEN--\":774:778   */\n      0x20\n        /* \"--CODEGEN--\":767:772   */\n      dup7\n        /* \"--CODEGEN--\":763:779   */\n      add\n        /* \"--CODEGEN--\":741:793   */\n      jump(tag_46)\n    tag_45:\n        /* \"--CODEGEN--\":814:843   */\n      tag_47\n        /* \"--CODEGEN--\":836:842   */\n      dup2\n        /* \"--CODEGEN--\":814:843   */\n      jump(tag_48)\n    tag_47:\n        /* \"--CODEGEN--\":809:812   */\n      dup5\n        /* \"--CODEGEN--\":805:844   */\n      add\n        /* \"--CODEGEN--\":798:844   */\n      swap2\n      pop\n        /* \"--CODEGEN--\":598:849   */\n      pop\n      swap3\n      swap2\n      pop\n      pop\n      jump\n        /* \"--CODEGEN--\":856:969   */\n    tag_49:\n        /* \"--CODEGEN--\":939:963   */\n      tag_51\n        /* \"--CODEGEN--\":957:962   */\n      dup2\n        /* \"--CODEGEN--\":939:963   */\n      jump(tag_52)\n    tag_51:\n        /* \"--CODEGEN--\":934:937   */\n      dup3\n        /* \"--CODEGEN--\":927:964   */\n      mstore\n        /* \"--CODEGEN--\":921:969   */\n      pop\n      pop\n      jump\n        /* \"--CODEGEN--\":976:1189   */\n    tag_18:\n      0x00\n        /* \"--CODEGEN--\":1094:1096   */\n      0x20\n        /* \"--CODEGEN--\":1083:1092   */\n      dup3\n        /* \"--CODEGEN--\":1079:1097   */\n      add\n        /* \"--CODEGEN--\":1071:1097   */\n      swap1\n      pop\n        /* \"--CODEGEN--\":1108:1179   */\n      tag_54\n        /* \"--CODEGEN--\":1176:1177   */\n      0x00\n        /* \"--CODEGEN--\":1165:1174   */\n      dup4\n        /* \"--CODEGEN--\":1161:1178   */\n      add\n        /* \"--CODEGEN--\":1152:1158   */\n      dup5\n        /* \"--CODEGEN--\":1108:1179   */\n      jump(tag_35)\n    tag_54:\n        /* \"--CODEGEN--\":1065:1189   */\n      swap3\n      swap2\n      pop\n      pop\n      jump\n        /* \"--CODEGEN--\":1196:1489   */\n    tag_14:\n      0x00\n        /* \"--CODEGEN--\":1330:1332   */\n      0x20\n        /* \"--CODEGEN--\":1319:1328   */\n      dup3\n        /* \"--CODEGEN--\":1315:1333   */\n      add\n        /* \"--CODEGEN--\":1307:1333   */\n      swap1\n      pop\n        /* \"--CODEGEN--\":1380:1389   */\n      dup2\n        /* \"--CODEGEN--\":1374:1378   */\n      dup2\n        /* \"--CODEGEN--\":1370:1390   */\n      sub\n        /* \"--CODEGEN--\":1366:1367   */\n      0x00\n        /* \"--CODEGEN--\":1355:1364   */\n      dup4\n        /* \"--CODEGEN--\":1351:1368   */\n      add\n        /* \"--CODEGEN--\":1344:1391   */\n      mstore\n        /* \"--CODEGEN--\":1405:1479   */\n      tag_56\n        /* \"--CODEGEN--\":1474:1478   */\n      dup2\n        /* \"--CODEGEN--\":1465:1471   */\n      dup5\n        /* \"--CODEGEN--\":1405:1479   */\n      jump(tag_39)\n    tag_56:\n        /* \"--CODEGEN--\":1397:1479   */\n      swap1\n      pop\n        /* \"--CODEGEN--\":1301:1489   */\n      swap3\n      swap2\n      pop\n      pop\n      jump\n        /* \"--CODEGEN--\":1496:1709   */\n    tag_22:\n      0x00\n        /* \"--CODEGEN--\":1614:1616   */\n      0x20\n        /* \"--CODEGEN--\":1603:1612   */\n      dup3\n        /* \"--CODEGEN--\":1599:1617   */\n      add\n        /* \"--CODEGEN--\":1591:1617   */\n      swap1\n      pop\n        /* \"--CODEGEN--\":1628:1699   */\n      tag_58\n        /* \"--CODEGEN--\":1696:1697   */\n      0x00\n        /* \"--CODEGEN--\":1685:1694   */\n      dup4\n        /* \"--CODEGEN--\":1681:1698   */\n      add\n        /* \"--CODEGEN--\":1672:1678   */\n      dup5\n        /* \"--CODEGEN--\":1628:1699   */\n      jump(tag_49)\n    tag_58:\n        /* \"--CODEGEN--\":1585:1709   */\n      swap3\n      swap2\n      pop\n      pop\n      jump\n        /* \"--CODEGEN--\":1716:1834   */\n    tag_42:\n      0x00\n        /* \"--CODEGEN--\":1806:1811   */\n      dup2\n        /* \"--CODEGEN--\":1800:1812   */\n      mload\n        /* \"--CODEGEN--\":1790:1812   */\n      swap1\n      pop\n        /* \"--CODEGEN--\":1771:1834   */\n      swap2\n      swap1\n      pop\n      jump\n        /* \"--CODEGEN--\":1842:2005   */\n    tag_44:\n      0x00\n        /* \"--CODEGEN--\":1957:1963   */\n      dup3\n        /* \"--CODEGEN--\":1952:1955   */\n      dup3\n        /* \"--CODEGEN--\":1945:1964   */\n      mstore\n        /* \"--CODEGEN--\":1994:1998   */\n      0x20\n        /* \"--CODEGEN--\":1989:1992   */\n      dup3\n        /* \"--CODEGEN--\":1985:1999   */\n      add\n        /* \"--CODEGEN--\":1970:1999   */\n      swap1\n      pop\n        /* \"--CODEGEN--\":1938:2005   */\n      swap3\n      swap2\n      pop\n      pop\n      jump\n        /* \"--CODEGEN--\":2013:2104   */\n    tag_38:\n      0x00\n        /* \"--CODEGEN--\":2075:2099   */\n      tag_62\n        /* \"--CODEGEN--\":2093:2098   */\n      dup3\n        /* \"--CODEGEN--\":2075:2099   */\n      jump(tag_63)\n    tag_62:\n        /* \"--CODEGEN--\":2064:2099   */\n      swap1\n      pop\n        /* \"--CODEGEN--\":2058:2104   */\n      swap2\n      swap1\n      pop\n      jump\n        /* \"--CODEGEN--\":2111:2232   */\n    tag_63:\n      0x00\n        /* \"--CODEGEN--\":2184:2226   */\n      0xffffffffffffffffffffffffffffffffffffffff\n        /* \"--CODEGEN--\":2177:2182   */\n      dup3\n        /* \"--CODEGEN--\":2173:2227   */\n      and\n        /* \"--CODEGEN--\":2162:2227   */\n      swap1\n      pop\n        /* \"--CODEGEN--\":2156:2232   */\n      swap2\n      swap1\n      pop\n      jump\n        /* \"--CODEGEN--\":2239:2311   */\n    tag_52:\n      0x00\n        /* \"--CODEGEN--\":2301:2306   */\n      dup2\n        /* \"--CODEGEN--\":2290:2306   */\n      swap1\n      pop\n        /* \"--CODEGEN--\":2284:2311   */\n      swap2\n      swap1\n      pop\n      jump\n        /* \"--CODEGEN--\":2319:2587   */\n    tag_46:\n        /* \"--CODEGEN--\":2384:2385   */\n      0x00\n        /* \"--CODEGEN--\":2391:2492   */\n    tag_67:\n        /* \"--CODEGEN--\":2405:2411   */\n      dup4\n        /* \"--CODEGEN--\":2402:2403   */\n      dup2\n        /* \"--CODEGEN--\":2399:2412   */\n      lt\n        /* \"--CODEGEN--\":2391:2492   */\n      iszero\n      tag_69\n      jumpi\n        /* \"--CODEGEN--\":2481:2482   */\n      dup1\n        /* \"--CODEGEN--\":2476:2479   */\n      dup3\n        /* \"--CODEGEN--\":2472:2483   */\n      add\n        /* \"--CODEGEN--\":2466:2484   */\n      mload\n        /* \"--CODEGEN--\":2462:2463   */\n      dup2\n        /* \"--CODEGEN--\":2457:2460   */\n      dup5\n        /* \"--CODEGEN--\":2453:2464   */\n      add\n        /* \"--CODEGEN--\":2446:2485   */\n      mstore\n        /* \"--CODEGEN--\":2427:2429   */\n      0x20\n        /* \"--CODEGEN--\":2424:2425   */\n      dup2\n        /* \"--CODEGEN--\":2420:2430   */\n      add\n        /* \"--CODEGEN--\":2415:2430   */\n      swap1\n      pop\n        /* \"--CODEGEN--\":2391:2492   */\n      jump(tag_67)\n    tag_69:\n        /* \"--CODEGEN--\":2507:2513   */\n      dup4\n        /* \"--CODEGEN--\":2504:2505   */\n      dup2\n        /* \"--CODEGEN--\":2501:2514   */\n      gt\n        /* \"--CODEGEN--\":2498:2500   */\n      iszero\n      tag_70\n      jumpi\n        /* \"--CODEGEN--\":2572:2573   */\n      0x00\n        /* \"--CODEGEN--\":2563:2569   */\n      dup5\n        /* \"--CODEGEN--\":2558:2561   */\n      dup5\n        /* \"--CODEGEN--\":2554:2570   */\n      add\n        /* \"--CODEGEN--\":2547:2574   */\n      mstore\n        /* \"--CODEGEN--\":2498:2500   */\n    tag_70:\n        /* \"--CODEGEN--\":2368:2587   */\n      pop\n      pop\n      pop\n      pop\n      jump\n        /* \"--CODEGEN--\":2595:2692   */\n    tag_48:\n      0x00\n        /* \"--CODEGEN--\":2683:2685   */\n      0x1f\n        /* \"--CODEGEN--\":2679:2686   */\n      not\n        /* \"--CODEGEN--\":2674:2676   */\n      0x1f\n        /* \"--CODEGEN--\":2667:2672   */\n      dup4\n        /* \"--CODEGEN--\":2663:2677   */\n      add\n        /* \"--CODEGEN--\":2659:2687   */\n      and\n        /* \"--CODEGEN--\":2649:2687   */\n      swap1\n      pop\n        /* \"--CODEGEN--\":2643:2692   */\n      swap2\n      swap1\n      pop\n      jump\n        /* \"--CODEGEN--\":2700:2817   */\n    tag_31:\n        /* \"--CODEGEN--\":2769:2793   */\n      tag_73\n        /* \"--CODEGEN--\":2787:2792   */\n      dup2\n        /* \"--CODEGEN--\":2769:2793   */\n      jump(tag_52)\n    tag_73:\n        /* \"--CODEGEN--\":2762:2767   */\n      dup2\n        /* \"--CODEGEN--\":2759:2794   */\n      eq\n        /* \"--CODEGEN--\":2749:2751   */\n      tag_74\n      jumpi\n        /* \"--CODEGEN--\":2808:2809   */\n      0x00\n        /* \"--CODEGEN--\":2805:2806   */\n      dup1\n        /* \"--CODEGEN--\":2798:2810   */\n      revert\n        /* \"--CODEGEN--\":2749:2751   */\n    tag_74:\n        /* \"--CODEGEN--\":2743:2817   */\n      pop\n      jump\n\n    auxdata: 0xa264697066735822122006cf84e36851eec0997da2a86fd6e798d363cc721ba099129ca69d7c3f8df30264736f6c63430006000033\n}\n",
				"bytecode": {
					"linkReferences": {},
					"object": "6080604052602d6000556040518060400160405280600681526020017f416c7661726f000000000000000000000000000000000000000000000000000081525060019080519060200190610054929190610146565b506103e86003556001600460006101000a81548160ff0219169083151502179055506040516020016100859061022b565b60405160208183030381529060405280519060200120600555735b38da6a701c568545dcfcb03fcb875f56beddc4600660006101000a81548173ffffffffffffffffffffffffffffffffffffffff021916908373ffffffffffffffffffffffffffffffffffffffff1602179055503480156100ff57600080fd5b5033600260006101000a81548173ffffffffffffffffffffffffffffffffffffffff021916908373ffffffffffffffffffffffffffffffffffffffff16021790555061024b565b828054600181600116156101000203166002900490600052602060002090601f016020900481019282601f1061018757805160ff19168380011785556101b5565b828001600101855582156101b5579182015b828111156101b4578251825591602001919060010190610199565b5b5090506101c291906101c6565b5090565b6101e891905b808211156101e45760008160009055506001016101cc565b5090565b90565b60006101f8600483610240565b91507f686f6c61000000000000000000000000000000000000000000000000000000006000830152600482019050919050565b6000610236826101eb565b9150819050919050565b600081905092915050565b6103718061025a6000396000f3fe608060405234801561001057600080fd5b506004361061004c5760003560e01c806329e99f07146100515780635acd2fe11461006d5780638da5cb5b1461008b57806391a1f789146100a9575b600080fd5b61006b600480360361006691908101906101b0565b6100c7565b005b6100756100d1565b604051610082919061024b565b60405180910390f35b61009361016f565b6040516100a09190610230565b60405180910390f35b6100b1610195565b6040516100be919061026d565b60405180910390f35b8060038190555050565b60018054600181600116156101000203166002900480601f0160208091040260200160405190810160405280929190818152602001828054600181600116156101000203166002900480156101675780601f1061013c57610100808354040283529160200191610167565b820191906000526020600020905b81548152906001019060200180831161014a57829003601f168201915b505050505081565b600260009054906101000a900473ffffffffffffffffffffffffffffffffffffffff1681565b60005481565b6000813590506101aa81610324565b92915050565b6000602082840312156101c257600080fd5b60006101d08482850161019b565b91505092915050565b6101e2816102a4565b82525050565b60006101f382610288565b6101fd8185610293565b935061020d8185602086016102e0565b61021681610313565b840191505092915050565b61022a816102d6565b82525050565b600060208201905061024560008301846101d9565b92915050565b6000602082019050818103600083015261026581846101e8565b905092915050565b60006020820190506102826000830184610221565b92915050565b600081519050919050565b600082825260208201905092915050565b60006102af826102b6565b9050919050565b600073ffffffffffffffffffffffffffffffffffffffff82169050919050565b6000819050919050565b60005b838110156102fe5780820151818401526020810190506102e3565b8381111561030d576000848401525b50505050565b6000601f19601f8301169050919050565b61032d816102d6565b811461033857600080fd5b5056fea264697066735822122006cf84e36851eec0997da2a86fd6e798d363cc721ba099129ca69d7c3f8df30264736f6c63430006000033",
					"opcodes": "PUSH1 0x80 PUSH1 0x40 MSTORE PUSH1 0x2D PUSH1 0x0 SSTORE PUSH1 0x40 MLOAD DUP1 PUSH1 0x40 ADD PUSH1 0x40 MSTORE DUP1 PUSH1 0x6 DUP2 MSTORE PUSH1 0x20 ADD PUSH32 0x416C7661726F0000000000000000000000000000000000000000000000000000 DUP2 MSTORE POP PUSH1 0x1 SWAP1 DUP1 MLOAD SWAP1 PUSH1 0x20 ADD SWAP1 PUSH2 0x54 SWAP3 SWAP2 SWAP1 PUSH2 0x146 JUMP JUMPDEST POP PUSH2 0x3E8 PUSH1 0x3 SSTORE PUSH1 0x1 PUSH1 0x4 PUSH1 0x0 PUSH2 0x100 EXP DUP2 SLOAD DUP2 PUSH1 0xFF MUL NOT AND SWAP1 DUP4 ISZERO ISZERO MUL OR SWAP1 SSTORE POP PUSH1 0x40 MLOAD PUSH1 0x20 ADD PUSH2 0x85 SWAP1 PUSH2 0x22B JUMP JUMPDEST PUSH1 0x40 MLOAD PUSH1 0x20 DUP2 DUP4 SUB SUB DUP2 MSTORE SWAP1 PUSH1 0x40 MSTORE DUP1 MLOAD SWAP1 PUSH1 0x20 ADD KECCAK256 PUSH1 0x5 SSTORE PUSH20 0x5B38DA6A701C568545DCFCB03FCB875F56BEDDC4 PUSH1 0x6 PUSH1 0x0 PUSH2 0x100 EXP DUP2 SLOAD DUP2 PUSH20 0xFFFFFFFFFFFFFFFFFFFFFFFFFFFFFFFFFFFFFFFF MUL NOT AND SWAP1 DUP4 PUSH20 0xFFFFFFFFFFFFFFFFFFFFFFFFFFFFFFFFFFFFFFFF AND MUL OR SWAP1 SSTORE POP CALLVALUE DUP1 ISZERO PUSH2 0xFF JUMPI PUSH1 0x0 DUP1 REVERT JUMPDEST POP CALLER PUSH1 0x2 PUSH1 0x0 PUSH2 0x100 EXP DUP2 SLOAD DUP2 PUSH20 0xFFFFFFFFFFFFFFFFFFFFFFFFFFFFFFFFFFFFFFFF MUL NOT AND SWAP1 DUP4 PUSH20 0xFFFFFFFFFFFFFFFFFFFFFFFFFFFFFFFFFFFFFFFF AND MUL OR SWAP1 SSTORE POP PUSH2 0x24B JUMP JUMPDEST DUP3 DUP1 SLOAD PUSH1 0x1 DUP2 PUSH1 0x1 AND ISZERO PUSH2 0x100 MUL SUB AND PUSH1 0x2 SWAP1 DIV SWAP1 PUSH1 0x0 MSTORE PUSH1 0x20 PUSH1 0x0 KECCAK256 SWAP1 PUSH1 0x1F ADD PUSH1 0x20 SWAP1 DIV DUP2 ADD SWAP3 DUP3 PUSH1 0x1F LT PUSH2 0x187 JUMPI DUP1 MLOAD PUSH1 0xFF NOT AND DUP4 DUP1 ADD OR DUP6 SSTORE PUSH2 0x1B5 JUMP JUMPDEST DUP3 DUP1 ADD PUSH1 0x1 ADD DUP6 SSTORE DUP3 ISZERO PUSH2 0x1B5 JUMPI SWAP2 DUP3 ADD JUMPDEST DUP3 DUP2 GT ISZERO PUSH2 0x1B4 JUMPI DUP3 MLOAD DUP3 SSTORE SWAP2 PUSH1 0x20 ADD SWAP2 SWAP1 PUSH1 0x1 ADD SWAP1 PUSH2 0x199 JUMP JUMPDEST JUMPDEST POP SWAP1 POP PUSH2 0x1C2 SWAP2 SWAP1 PUSH2 0x1C6 JUMP JUMPDEST POP SWAP1 JUMP JUMPDEST PUSH2 0x1E8 SWAP2 SWAP1 JUMPDEST DUP1 DUP3 GT ISZERO PUSH2 0x1E4 JUMPI PUSH1 0x0 DUP2 PUSH1 0x0 SWAP1 SSTORE POP PUSH1 0x1 ADD PUSH2 0x1CC JUMP JUMPDEST POP SWAP1 JUMP JUMPDEST SWAP1 JUMP JUMPDEST PUSH1 0x0 PUSH2 0x1F8 PUSH1 0x4 DUP4 PUSH2 0x240 JUMP JUMPDEST SWAP2 POP PUSH32 0x686F6C6100000000000000000000000000000000000000000000000000000000 PUSH1 0x0 DUP4 ADD MSTORE PUSH1 0x4 DUP3 ADD SWAP1 POP SWAP2 SWAP1 POP JUMP JUMPDEST PUSH1 0x0 PUSH2 0x236 DUP3 PUSH2 0x1EB JUMP JUMPDEST SWAP2 POP DUP2 SWAP1 POP SWAP2 SWAP1 POP JUMP JUMPDEST PUSH1 0x0 DUP2 SWAP1 POP SWAP3 SWAP2 POP POP JUMP JUMPDEST PUSH2 0x371 DUP1 PUSH2 0x25A PUSH1 0x0 CODECOPY PUSH1 0x0 RETURN INVALID PUSH1 0x80 PUSH1 0x40 MSTORE CALLVALUE DUP1 ISZERO PUSH2 0x10 JUMPI PUSH1 0x0 DUP1 REVERT JUMPDEST POP PUSH1 0x4 CALLDATASIZE LT PUSH2 0x4C JUMPI PUSH1 0x0 CALLDATALOAD PUSH1 0xE0 SHR DUP1 PUSH4 0x29E99F07 EQ PUSH2 0x51 JUMPI DUP1 PUSH4 0x5ACD2FE1 EQ PUSH2 0x6D JUMPI DUP1 PUSH4 0x8DA5CB5B EQ PUSH2 0x8B JUMPI DUP1 PUSH4 0x91A1F789 EQ PUSH2 0xA9 JUMPI JUMPDEST PUSH1 0x0 DUP1 REVERT JUMPDEST PUSH2 0x6B PUSH1 0x4 DUP1 CALLDATASIZE SUB PUSH2 0x66 SWAP2 SWAP1 DUP2 ADD SWAP1 PUSH2 0x1B0 JUMP JUMPDEST PUSH2 0xC7 JUMP JUMPDEST STOP JUMPDEST PUSH2 0x75 PUSH2 0xD1 JUMP JUMPDEST PUSH1 0x40 MLOAD PUSH2 0x82 SWAP2 SWAP1 PUSH2 0x24B JUMP JUMPDEST PUSH1 0x40 MLOAD DUP1 SWAP2 SUB SWAP1 RETURN JUMPDEST PUSH2 0x93 PUSH2 0x16F JUMP JUMPDEST PUSH1 0x40 MLOAD PUSH2 0xA0 SWAP2 SWAP1 PUSH2 0x230 JUMP JUMPDEST PUSH1 0x40 MLOAD DUP1 SWAP2 SUB SWAP1 RETURN JUMPDEST PUSH2 0xB1 PUSH2 0x195 JUMP JUMPDEST PUSH1 0x40 MLOAD PUSH2 0xBE SWAP2 SWAP1 PUSH2 0x26D JUMP JUMPDEST PUSH1 0x40 MLOAD DUP1 SWAP2 SUB SWAP1 RETURN JUMPDEST DUP1 PUSH1 0x3 DUP2 SWAP1 SSTORE POP POP JUMP JUMPDEST PUSH1 0x1 DUP1 SLOAD PUSH1 0x1 DUP2 PUSH1 0x1 AND ISZERO PUSH2 0x100 MUL SUB AND PUSH1 0x2 SWAP1 DIV DUP1 PUSH1 0x1F ADD PUSH1 0x20 DUP1 SWAP2 DIV MUL PUSH1 0x20 ADD PUSH1 0x40 MLOAD SWAP1 DUP2 ADD PUSH1 0x40 MSTORE DUP1 SWAP3 SWAP2 SWAP1 DUP2 DUP2 MSTORE PUSH1 0x20 ADD DUP3 DUP1 SLOAD PUSH1 0x1 DUP2 PUSH1 0x1 AND ISZERO PUSH2 0x100 MUL SUB AND PUSH1 0x2 SWAP1 DIV DUP1 ISZERO PUSH2 0x167 JUMPI DUP1 PUSH1 0x1F LT PUSH2 0x13C JUMPI PUSH2 0x100 DUP1 DUP4 SLOAD DIV MUL DUP4 MSTORE SWAP2 PUSH1 0x20 ADD SWAP2 PUSH2 0x167 JUMP JUMPDEST DUP3 ADD SWAP2 SWAP1 PUSH1 0x0 MSTORE PUSH1 0x20 PUSH1 0x0 KECCAK256 SWAP1 JUMPDEST DUP2 SLOAD DUP2 MSTORE SWAP1 PUSH1 0x1 ADD SWAP1 PUSH1 0x20 ADD DUP1 DUP4 GT PUSH2 0x14A JUMPI DUP3 SWAP1 SUB PUSH1 0x1F AND DUP3 ADD SWAP2 JUMPDEST POP POP POP POP POP DUP2 JUMP JUMPDEST PUSH1 0x2 PUSH1 0x0 SWAP1 SLOAD SWAP1 PUSH2 0x100 EXP SWAP1 DIV PUSH20 0xFFFFFFFFFFFFFFFFFFFFFFFFFFFFFFFFFFFFFFFF AND DUP2 JUMP JUMPDEST PUSH1 0x0 SLOAD DUP2 JUMP JUMPDEST PUSH1 0x0 DUP2 CALLDATALOAD SWAP1 POP PUSH2 0x1AA DUP2 PUSH2 0x324 JUMP JUMPDEST SWAP3 SWAP2 POP POP JUMP JUMPDEST PUSH1 0x0 PUSH1 0x20 DUP3 DUP5 SUB SLT ISZERO PUSH2 0x1C2 JUMPI PUSH1 0x0 DUP1 REVERT JUMPDEST PUSH1 0x0 PUSH2 0x1D0 DUP5 DUP3 DUP6 ADD PUSH2 0x19B JUMP JUMPDEST SWAP2 POP POP SWAP3 SWAP2 POP POP JUMP JUMPDEST PUSH2 0x1E2 DUP2 PUSH2 0x2A4 JUMP JUMPDEST DUP3 MSTORE POP POP JUMP JUMPDEST PUSH1 0x0 PUSH2 0x1F3 DUP3 PUSH2 0x288 JUMP JUMPDEST PUSH2 0x1FD DUP2 DUP6 PUSH2 0x293 JUMP JUMPDEST SWAP4 POP PUSH2 0x20D DUP2 DUP6 PUSH1 0x20 DUP7 ADD PUSH2 0x2E0 JUMP JUMPDEST PUSH2 0x216 DUP2 PUSH2 0x313 JUMP JUMPDEST DUP5 ADD SWAP2 POP POP SWAP3 SWAP2 POP POP JUMP JUMPDEST PUSH2 0x22A DUP2 PUSH2 0x2D6 JUMP JUMPDEST DUP3 MSTORE POP POP JUMP JUMPDEST PUSH1 0x0 PUSH1 0x20 DUP3 ADD SWAP1 POP PUSH2 0x245 PUSH1 0x0 DUP4 ADD DUP5 PUSH2 0x1D9 JUMP JUMPDEST SWAP3 SWAP2 POP POP JUMP JUMPDEST PUSH1 0x0 PUSH1 0x20 DUP3 ADD SWAP1 POP DUP2 DUP2 SUB PUSH1 0x0 DUP4 ADD MSTORE PUSH2 0x265 DUP2 DUP5 PUSH2 0x1E8 JUMP JUMPDEST SWAP1 POP SWAP3 SWAP2 POP POP JUMP JUMPDEST PUSH1 0x0 PUSH1 0x20 DUP3 ADD SWAP1 POP PUSH2 0x282 PUSH1 0x0 DUP4 ADD DUP5 PUSH2 0x221 JUMP JUMPDEST SWAP3 SWAP2 POP POP JUMP JUMPDEST PUSH1 0x0 DUP2 MLOAD SWAP1 POP SWAP2 SWAP1 POP JUMP JUMPDEST PUSH1 0x0 DUP3 DUP3 MSTORE PUSH1 0x20 DUP3 ADD SWAP1 POP SWAP3 SWAP2 POP POP JUMP JUMPDEST PUSH1 0x0 PUSH2 0x2AF DUP3 PUSH2 0x2B6 JUMP JUMPDEST SWAP1 POP SWAP2 SWAP1 POP JUMP JUMPDEST PUSH1 0x0 PUSH20 0xFFFFFFFFFFFFFFFFFFFFFFFFFFFFFFFFFFFFFFFF DUP3 AND SWAP1 POP SWAP2 SWAP1 POP JUMP JUMPDEST PUSH1 0x0 DUP2 SWAP1 POP SWAP2 SWAP1 POP JUMP JUMPDEST PUSH1 0x0 JUMPDEST DUP4 DUP2 LT ISZERO PUSH2 0x2FE JUMPI DUP1 DUP3 ADD MLOAD DUP2 DUP5 ADD MSTORE PUSH1 0x20 DUP2 ADD SWAP1 POP PUSH2 0x2E3 JUMP JUMPDEST DUP4 DUP2 GT ISZERO PUSH2 0x30D JUMPI PUSH1 0x0 DUP5 DUP5 ADD MSTORE JUMPDEST POP POP POP POP JUMP JUMPDEST PUSH1 0x0 PUSH1 0x1F NOT PUSH1 0x1F DUP4 ADD AND SWAP1 POP SWAP2 SWAP1 POP JUMP JUMPDEST PUSH2 0x32D DUP2 PUSH2 0x2D6 JUMP JUMPDEST DUP2 EQ PUSH2 0x338 JUMPI PUSH1 0x0 DUP1 REVERT JUMPDEST POP JUMP INVALID LOG2 PUSH5 0x6970667358 0x22 SLT KECCAK256 MOD 0xCF DUP5 0xE3 PUSH9 0x51EEC0997DA2A86FD6 0xE7 SWAP9 0xD3 PUSH4 0xCC721BA0 SWAP10 SLT SWAP13 0xA6 SWAP14 PUSH29 0x3F8DF30264736F6C634300060000330000000000000000000000000000 "
				},
				"gasEstimates": {
					"creation": {
						"codeDepositCost": "176200",
						"executionCost": "infinite",
						"totalCost": "infinite"
					},
					"external": {
						"mi_entero()": "1173",
						"mi_string()": "infinite",
						"owner()": "1236",
						"test(uint256)": "20398"
					}
				},
				"methodIdentifiers": {
					"mi_entero()": "91a1f789",
					"mi_string()": "5acd2fe1",
					"owner()": "8da5cb5b",
					"test(uint256)": "29e99f07"
				}
			},
			"storageLayout": {
				"storage": [
					{
						"astId": 5,
						"contract": "Variables y operadores/modificadores.sol:modificadores",
						"label": "mi_entero",
						"offset": 0,
						"slot": "0",
						"type": "t_uint256"
					},
					{
						"astId": 8,
						"contract": "Variables y operadores/modificadores.sol:modificadores",
						"label": "mi_string",
						"offset": 0,
						"slot": "1",
						"type": "t_string_storage"
					},
					{
						"astId": 10,
						"contract": "Variables y operadores/modificadores.sol:modificadores",
						"label": "owner",
						"offset": 0,
						"slot": "2",
						"type": "t_address"
					},
					{
						"astId": 22,
						"contract": "Variables y operadores/modificadores.sol:modificadores",
						"label": "mi_entero_privado",
						"offset": 0,
						"slot": "3",
						"type": "t_uint256"
					},
					{
						"astId": 25,
						"contract": "Variables y operadores/modificadores.sol:modificadores",
						"label": "flag",
						"offset": 0,
						"slot": "4",
						"type": "t_bool"
					},
					{
						"astId": 43,
						"contract": "Variables y operadores/modificadores.sol:modificadores",
						"label": "hash",
						"offset": 0,
						"slot": "5",
						"type": "t_bytes32"
					},
					{
						"astId": 46,
						"contract": "Variables y operadores/modificadores.sol:modificadores",
						"label": "direccion",
						"offset": 0,
						"slot": "6",
						"type": "t_address"
					}
				],
				"types": {
					"t_address": {
						"encoding": "inplace",
						"label": "address",
						"numberOfBytes": "20"
					},
					"t_bool": {
						"encoding": "inplace",
						"label": "bool",
						"numberOfBytes": "1"
					},
					"t_bytes32": {
						"encoding": "inplace",
						"label": "bytes32",
						"numberOfBytes": "32"
					},
					"t_string_storage": {
						"encoding": "bytes",
						"label": "string",
						"numberOfBytes": "32"
					},
					"t_uint256": {
						"encoding": "inplace",
						"label": "uint256",
						"numberOfBytes": "32"
					}
				}
			},
			"userdoc": {
				"methods": {}
			}
		}
	}
}