{
	"Funciones/eventos.sol": {
		"Eventos": {
			"abi": [
				{
					"anonymous": false,
					"inputs": [],
					"name": "abortarmision",
					"type": "event"
				},
				{
					"anonymous": false,
					"inputs": [
						{
							"indexed": false,
							"internalType": "string",
							"name": "_nombrePersona",
							"type": "string"
						}
					],
					"name": "nombre_evento1",
					"type": "event"
				},
				{
					"anonymous": false,
					"inputs": [
						{
							"indexed": false,
							"internalType": "string",
							"name": "_nombrePersona",
							"type": "string"
						},
						{
							"indexed": false,
							"internalType": "uint256",
							"name": "_edadPersona",
							"type": "uint256"
						}
					],
					"name": "nombre_evento2",
					"type": "event"
				},
				{
					"anonymous": false,
					"inputs": [
						{
							"indexed": false,
							"internalType": "string",
							"name": "",
							"type": "string"
						},
						{
							"indexed": false,
							"internalType": "uint256",
							"name": "",
							"type": "uint256"
						},
						{
							"indexed": false,
							"internalType": "address",
							"name": "",
							"type": "address"
						},
						{
							"indexed": false,
							"internalType": "bytes32",
							"name": "",
							"type": "bytes32"
						}
					],
					"name": "nombre_evento3",
					"type": "event"
				},
				{
					"inputs": [],
					"name": "AbortarMision",
					"outputs": [],
					"stateMutability": "nonpayable",
					"type": "function"
				},
				{
					"inputs": [
						{
							"internalType": "string",
							"name": "_nombrePersona",
							"type": "string"
						}
					],
					"name": "EmitirEvento1",
					"outputs": [],
					"stateMutability": "nonpayable",
					"type": "function"
				},
				{
					"inputs": [
						{
							"internalType": "string",
							"name": "_nombrePersona",
							"type": "string"
						},
						{
							"internalType": "uint256",
							"name": "_edad",
							"type": "uint256"
						}
					],
					"name": "EmitirEvento2",
					"outputs": [],
					"stateMutability": "nonpayable",
					"type": "function"
				},
				{
					"inputs": [
						{
							"internalType": "string",
							"name": "_nombrePersona",
							"type": "string"
						},
						{
							"internalType": "uint256",
							"name": "_edad",
							"type": "uint256"
						}
					],
					"name": "EmitirEvento3",
					"outputs": [],
					"stateMutability": "nonpayable",
					"type": "function"
				}
			],
			"devdoc": {
				"methods": {}
			},
			"evm": {
				"assembly": "    /* \"Funciones/eventos.sol\":70:926  contract Eventos {\r... */\n  mstore(0x40, 0x80)\n  callvalue\n    /* \"--CODEGEN--\":8:17   */\n  dup1\n    /* \"--CODEGEN--\":5:7   */\n  iszero\n  tag_1\n  jumpi\n    /* \"--CODEGEN--\":30:31   */\n  0x00\n    /* \"--CODEGEN--\":27:28   */\n  dup1\n    /* \"--CODEGEN--\":20:32   */\n  revert\n    /* \"--CODEGEN--\":5:7   */\ntag_1:\n    /* \"Funciones/eventos.sol\":70:926  contract Eventos {\r... */\n  pop\n  dataSize(sub_0)\n  dup1\n  dataOffset(sub_0)\n  0x00\n  codecopy\n  0x00\n  return\nstop\n\nsub_0: assembly {\n        /* \"Funciones/eventos.sol\":70:926  contract Eventos {\r... */\n      mstore(0x40, 0x80)\n      callvalue\n        /* \"--CODEGEN--\":8:17   */\n      dup1\n        /* \"--CODEGEN--\":5:7   */\n      iszero\n      tag_1\n      jumpi\n        /* \"--CODEGEN--\":30:31   */\n      0x00\n        /* \"--CODEGEN--\":27:28   */\n      dup1\n        /* \"--CODEGEN--\":20:32   */\n      revert\n        /* \"--CODEGEN--\":5:7   */\n    tag_1:\n        /* \"Funciones/eventos.sol\":70:926  contract Eventos {\r... */\n      pop\n      jumpi(tag_2, lt(calldatasize, 0x04))\n      shr(0xe0, calldataload(0x00))\n      dup1\n      0x1297814e\n      eq\n      tag_3\n      jumpi\n      dup1\n      0x14d07a25\n      eq\n      tag_4\n      jumpi\n      dup1\n      0xabefda81\n      eq\n      tag_5\n      jumpi\n      dup1\n      0xc355a3e5\n      eq\n      tag_6\n      jumpi\n    tag_2:\n      0x00\n      dup1\n      revert\n        /* \"Funciones/eventos.sol\":852:923  function AbortarMision() public {\r... */\n    tag_3:\n      tag_7\n      tag_8\n      jump\t// in\n    tag_7:\n      stop\n        /* \"Funciones/eventos.sol\":611:844  function EmitirEvento3(string memory _nombrePersona, uint _edad) public {\r... */\n    tag_4:\n      tag_9\n      0x04\n      dup1\n      calldatasize\n      sub\n      tag_10\n      swap2\n      swap1\n      dup2\n      add\n      swap1\n      jump(tag_11)\n    tag_10:\n      tag_12\n      jump\t// in\n    tag_9:\n      stop\n        /* \"Funciones/eventos.sol\":348:462  function EmitirEvento1(string memory _nombrePersona) public {\r... */\n    tag_5:\n      tag_13\n      0x04\n      dup1\n      calldatasize\n      sub\n      tag_14\n      swap2\n      swap1\n      dup2\n      add\n      swap1\n      jump(tag_15)\n    tag_14:\n      tag_16\n      jump\t// in\n    tag_13:\n      stop\n        /* \"Funciones/eventos.sol\":470:603  function EmitirEvento2(string memory _nombrePersona, uint _edad) public {\r... */\n    tag_6:\n      tag_17\n      0x04\n      dup1\n      calldatasize\n      sub\n      tag_18\n      swap2\n      swap1\n      dup2\n      add\n      swap1\n      jump(tag_11)\n    tag_18:\n      tag_19\n      jump\t// in\n    tag_17:\n      stop\n        /* \"Funciones/eventos.sol\":852:923  function AbortarMision() public {\r... */\n    tag_8:\n        /* \"Funciones/eventos.sol\":900:915  abortarmision() */\n      0x9f2c8877eeb6e22e94438633d64a43489fefb752521080a2f01e64a03feb270b\n      mload(0x40)\n      mload(0x40)\n      dup1\n      swap2\n      sub\n      swap1\n      log1\n        /* \"Funciones/eventos.sol\":852:923  function AbortarMision() public {\r... */\n      jump\t// out\n        /* \"Funciones/eventos.sol\":611:844  function EmitirEvento3(string memory _nombrePersona, uint _edad) public {\r... */\n    tag_12:\n        /* \"Funciones/eventos.sol\":694:709  bytes32 hash_id */\n      0x00\n        /* \"Funciones/eventos.sol\":739:753  _nombrePersona */\n      dup3\n        /* \"Funciones/eventos.sol\":755:760  _edad */\n      dup3\n        /* \"Funciones/eventos.sol\":722:761  abi.encodePacked(_nombrePersona, _edad) */\n      add(0x20, mload(0x40))\n      tag_22\n      swap3\n      swap2\n      swap1\n      jump(tag_23)\n    tag_22:\n      mload(0x40)\n        /* \"--CODEGEN--\":49:53   */\n      0x20\n        /* \"--CODEGEN--\":39:46   */\n      dup2\n        /* \"--CODEGEN--\":30:37   */\n      dup4\n        /* \"--CODEGEN--\":26:47   */\n      sub\n        /* \"--CODEGEN--\":22:54   */\n      sub\n        /* \"--CODEGEN--\":13:20   */\n      dup2\n        /* \"--CODEGEN--\":6:55   */\n      mstore\n        /* \"Funciones/eventos.sol\":722:761  abi.encodePacked(_nombrePersona, _edad) */\n      swap1\n      0x40\n      mstore\n        /* \"Funciones/eventos.sol\":712:762  keccak256(abi.encodePacked(_nombrePersona, _edad)) */\n      dup1\n      mload\n      swap1\n      0x20\n      add\n      keccak256\n        /* \"Funciones/eventos.sol\":694:762  bytes32 hash_id = keccak256(abi.encodePacked(_nombrePersona, _edad)) */\n      swap1\n      pop\n        /* \"Funciones/eventos.sol\":778:836  nombre_evento3(_nombrePersona, _edad, msg.sender, hash_id) */\n      0xd0ff1ee28f2dbf23f694467b91653073187a19cba2610b37edd759ee2e31a871\n        /* \"Funciones/eventos.sol\":793:807  _nombrePersona */\n      dup4\n        /* \"Funciones/eventos.sol\":809:814  _edad */\n      dup4\n        /* \"Funciones/eventos.sol\":816:826  msg.sender */\n      caller\n        /* \"Funciones/eventos.sol\":828:835  hash_id */\n      dup5\n        /* \"Funciones/eventos.sol\":778:836  nombre_evento3(_nombrePersona, _edad, msg.sender, hash_id) */\n      mload(0x40)\n      tag_24\n      swap5\n      swap4\n      swap3\n      swap2\n      swap1\n      jump(tag_25)\n    tag_24:\n      mload(0x40)\n      dup1\n      swap2\n      sub\n      swap1\n      log1\n        /* \"Funciones/eventos.sol\":611:844  function EmitirEvento3(string memory _nombrePersona, uint _edad) public {\r... */\n      pop\n      pop\n      pop\n      jump\t// out\n        /* \"Funciones/eventos.sol\":348:462  function EmitirEvento1(string memory _nombrePersona) public {\r... */\n    tag_16:\n        /* \"Funciones/eventos.sol\":424:454  nombre_evento1(_nombrePersona) */\n      0x5007d59453ebcd951519cabd56f016d29fe2390892307189bde962ced3d34094\n        /* \"Funciones/eventos.sol\":439:453  _nombrePersona */\n      dup2\n        /* \"Funciones/eventos.sol\":424:454  nombre_evento1(_nombrePersona) */\n      mload(0x40)\n      tag_27\n      swap2\n      swap1\n      jump(tag_28)\n    tag_27:\n      mload(0x40)\n      dup1\n      swap2\n      sub\n      swap1\n      log1\n        /* \"Funciones/eventos.sol\":348:462  function EmitirEvento1(string memory _nombrePersona) public {\r... */\n      pop\n      jump\t// out\n        /* \"Funciones/eventos.sol\":470:603  function EmitirEvento2(string memory _nombrePersona, uint _edad) public {\r... */\n    tag_19:\n        /* \"Funciones/eventos.sol\":558:595  nombre_evento2(_nombrePersona, _edad) */\n      0x7556e8345a443b754c690a14b2cd91df7aec27fbd662a660dd25d647f4732ed1\n        /* \"Funciones/eventos.sol\":573:587  _nombrePersona */\n      dup3\n        /* \"Funciones/eventos.sol\":589:594  _edad */\n      dup3\n        /* \"Funciones/eventos.sol\":558:595  nombre_evento2(_nombrePersona, _edad) */\n      mload(0x40)\n      tag_30\n      swap3\n      swap2\n      swap1\n      jump(tag_31)\n    tag_30:\n      mload(0x40)\n      dup1\n      swap2\n      sub\n      swap1\n      log1\n        /* \"Funciones/eventos.sol\":470:603  function EmitirEvento2(string memory _nombrePersona, uint _edad) public {\r... */\n      pop\n      pop\n      jump\t// out\n        /* \"--CODEGEN--\":6:448   */\n    tag_33:\n      0x00\n        /* \"--CODEGEN--\":108:111   */\n      dup3\n        /* \"--CODEGEN--\":101:105   */\n      0x1f\n        /* \"--CODEGEN--\":93:99   */\n      dup4\n        /* \"--CODEGEN--\":89:106   */\n      add\n        /* \"--CODEGEN--\":85:112   */\n      slt\n        /* \"--CODEGEN--\":75:77   */\n      tag_35\n      jumpi\n        /* \"--CODEGEN--\":126:127   */\n      0x00\n        /* \"--CODEGEN--\":123:124   */\n      dup1\n        /* \"--CODEGEN--\":116:128   */\n      revert\n        /* \"--CODEGEN--\":75:77   */\n    tag_35:\n        /* \"--CODEGEN--\":163:169   */\n      dup2\n        /* \"--CODEGEN--\":150:170   */\n      calldataload\n        /* \"--CODEGEN--\":185:250   */\n      tag_36\n        /* \"--CODEGEN--\":200:249   */\n      tag_37\n        /* \"--CODEGEN--\":242:248   */\n      dup3\n        /* \"--CODEGEN--\":200:249   */\n      jump(tag_38)\n    tag_37:\n        /* \"--CODEGEN--\":185:250   */\n      jump(tag_39)\n    tag_36:\n        /* \"--CODEGEN--\":176:250   */\n      swap2\n      pop\n        /* \"--CODEGEN--\":270:276   */\n      dup1\n        /* \"--CODEGEN--\":263:268   */\n      dup3\n        /* \"--CODEGEN--\":256:277   */\n      mstore\n        /* \"--CODEGEN--\":306:310   */\n      0x20\n        /* \"--CODEGEN--\":298:304   */\n      dup4\n        /* \"--CODEGEN--\":294:311   */\n      add\n        /* \"--CODEGEN--\":339:343   */\n      0x20\n        /* \"--CODEGEN--\":332:337   */\n      dup4\n        /* \"--CODEGEN--\":328:344   */\n      add\n        /* \"--CODEGEN--\":374:377   */\n      dup6\n        /* \"--CODEGEN--\":365:371   */\n      dup4\n        /* \"--CODEGEN--\":360:363   */\n      dup4\n        /* \"--CODEGEN--\":356:372   */\n      add\n        /* \"--CODEGEN--\":353:378   */\n      gt\n        /* \"--CODEGEN--\":350:352   */\n      iszero\n      tag_40\n      jumpi\n        /* \"--CODEGEN--\":391:392   */\n      0x00\n        /* \"--CODEGEN--\":388:389   */\n      dup1\n        /* \"--CODEGEN--\":381:393   */\n      revert\n        /* \"--CODEGEN--\":350:352   */\n    tag_40:\n        /* \"--CODEGEN--\":401:442   */\n      tag_41\n        /* \"--CODEGEN--\":435:441   */\n      dup4\n        /* \"--CODEGEN--\":430:433   */\n      dup3\n        /* \"--CODEGEN--\":425:428   */\n      dup5\n        /* \"--CODEGEN--\":401:442   */\n      jump(tag_42)\n    tag_41:\n        /* \"--CODEGEN--\":68:448   */\n      pop\n      pop\n      pop\n      swap3\n      swap2\n      pop\n      pop\n      jump\n        /* \"--CODEGEN--\":456:586   */\n    tag_43:\n      0x00\n        /* \"--CODEGEN--\":536:542   */\n      dup2\n        /* \"--CODEGEN--\":523:543   */\n      calldataload\n        /* \"--CODEGEN--\":514:543   */\n      swap1\n      pop\n        /* \"--CODEGEN--\":548:581   */\n      tag_45\n        /* \"--CODEGEN--\":575:580   */\n      dup2\n        /* \"--CODEGEN--\":548:581   */\n      jump(tag_46)\n    tag_45:\n        /* \"--CODEGEN--\":508:586   */\n      swap3\n      swap2\n      pop\n      pop\n      jump\n        /* \"--CODEGEN--\":593:940   */\n    tag_15:\n      0x00\n        /* \"--CODEGEN--\":707:709   */\n      0x20\n        /* \"--CODEGEN--\":695:704   */\n      dup3\n        /* \"--CODEGEN--\":686:693   */\n      dup5\n        /* \"--CODEGEN--\":682:705   */\n      sub\n        /* \"--CODEGEN--\":678:710   */\n      slt\n        /* \"--CODEGEN--\":675:677   */\n      iszero\n      tag_48\n      jumpi\n        /* \"--CODEGEN--\":723:724   */\n      0x00\n        /* \"--CODEGEN--\":720:721   */\n      dup1\n        /* \"--CODEGEN--\":713:725   */\n      revert\n        /* \"--CODEGEN--\":675:677   */\n    tag_48:\n        /* \"--CODEGEN--\":786:787   */\n      0x00\n        /* \"--CODEGEN--\":775:784   */\n      dup3\n        /* \"--CODEGEN--\":771:788   */\n      add\n        /* \"--CODEGEN--\":758:789   */\n      calldataload\n        /* \"--CODEGEN--\":809:827   */\n      0xffffffffffffffff\n        /* \"--CODEGEN--\":801:807   */\n      dup2\n        /* \"--CODEGEN--\":798:828   */\n      gt\n        /* \"--CODEGEN--\":795:797   */\n      iszero\n      tag_49\n      jumpi\n        /* \"--CODEGEN--\":841:842   */\n      0x00\n        /* \"--CODEGEN--\":838:839   */\n      dup1\n        /* \"--CODEGEN--\":831:843   */\n      revert\n        /* \"--CODEGEN--\":795:797   */\n    tag_49:\n        /* \"--CODEGEN--\":861:924   */\n      tag_50\n        /* \"--CODEGEN--\":916:923   */\n      dup5\n        /* \"--CODEGEN--\":907:913   */\n      dup3\n        /* \"--CODEGEN--\":896:905   */\n      dup6\n        /* \"--CODEGEN--\":892:914   */\n      add\n        /* \"--CODEGEN--\":861:924   */\n      jump(tag_33)\n    tag_50:\n        /* \"--CODEGEN--\":851:924   */\n      swap2\n      pop\n        /* \"--CODEGEN--\":737:930   */\n      pop\n        /* \"--CODEGEN--\":669:940   */\n      swap3\n      swap2\n      pop\n      pop\n      jump\n        /* \"--CODEGEN--\":947:1419   */\n    tag_11:\n      0x00\n      dup1\n        /* \"--CODEGEN--\":1078:1080   */\n      0x40\n        /* \"--CODEGEN--\":1066:1075   */\n      dup4\n        /* \"--CODEGEN--\":1057:1064   */\n      dup6\n        /* \"--CODEGEN--\":1053:1076   */\n      sub\n        /* \"--CODEGEN--\":1049:1081   */\n      slt\n        /* \"--CODEGEN--\":1046:1048   */\n      iszero\n      tag_52\n      jumpi\n        /* \"--CODEGEN--\":1094:1095   */\n      0x00\n        /* \"--CODEGEN--\":1091:1092   */\n      dup1\n        /* \"--CODEGEN--\":1084:1096   */\n      revert\n        /* \"--CODEGEN--\":1046:1048   */\n    tag_52:\n        /* \"--CODEGEN--\":1157:1158   */\n      0x00\n        /* \"--CODEGEN--\":1146:1155   */\n      dup4\n        /* \"--CODEGEN--\":1142:1159   */\n      add\n        /* \"--CODEGEN--\":1129:1160   */\n      calldataload\n        /* \"--CODEGEN--\":1180:1198   */\n      0xffffffffffffffff\n        /* \"--CODEGEN--\":1172:1178   */\n      dup2\n        /* \"--CODEGEN--\":1169:1199   */\n      gt\n        /* \"--CODEGEN--\":1166:1168   */\n      iszero\n      tag_53\n      jumpi\n        /* \"--CODEGEN--\":1212:1213   */\n      0x00\n        /* \"--CODEGEN--\":1209:1210   */\n      dup1\n        /* \"--CODEGEN--\":1202:1214   */\n      revert\n        /* \"--CODEGEN--\":1166:1168   */\n    tag_53:\n        /* \"--CODEGEN--\":1232:1295   */\n      tag_54\n        /* \"--CODEGEN--\":1287:1294   */\n      dup6\n        /* \"--CODEGEN--\":1278:1284   */\n      dup3\n        /* \"--CODEGEN--\":1267:1276   */\n      dup7\n        /* \"--CODEGEN--\":1263:1285   */\n      add\n        /* \"--CODEGEN--\":1232:1295   */\n      jump(tag_33)\n    tag_54:\n        /* \"--CODEGEN--\":1222:1295   */\n      swap3\n      pop\n        /* \"--CODEGEN--\":1108:1301   */\n      pop\n        /* \"--CODEGEN--\":1332:1334   */\n      0x20\n        /* \"--CODEGEN--\":1350:1403   */\n      tag_55\n        /* \"--CODEGEN--\":1395:1402   */\n      dup6\n        /* \"--CODEGEN--\":1386:1392   */\n      dup3\n        /* \"--CODEGEN--\":1375:1384   */\n      dup7\n        /* \"--CODEGEN--\":1371:1393   */\n      add\n        /* \"--CODEGEN--\":1350:1403   */\n      jump(tag_43)\n    tag_55:\n        /* \"--CODEGEN--\":1340:1403   */\n      swap2\n      pop\n        /* \"--CODEGEN--\":1311:1409   */\n      pop\n        /* \"--CODEGEN--\":1040:1419   */\n      swap3\n      pop\n      swap3\n      swap1\n      pop\n      jump\n        /* \"--CODEGEN--\":1426:1568   */\n    tag_56:\n        /* \"--CODEGEN--\":1517:1562   */\n      tag_58\n        /* \"--CODEGEN--\":1556:1561   */\n      dup2\n        /* \"--CODEGEN--\":1517:1562   */\n      jump(tag_59)\n    tag_58:\n        /* \"--CODEGEN--\":1512:1515   */\n      dup3\n        /* \"--CODEGEN--\":1505:1563   */\n      mstore\n        /* \"--CODEGEN--\":1499:1568   */\n      pop\n      pop\n      jump\n        /* \"--CODEGEN--\":1575:1688   */\n    tag_60:\n        /* \"--CODEGEN--\":1658:1682   */\n      tag_62\n        /* \"--CODEGEN--\":1676:1681   */\n      dup2\n        /* \"--CODEGEN--\":1658:1682   */\n      jump(tag_63)\n    tag_62:\n        /* \"--CODEGEN--\":1653:1656   */\n      dup3\n        /* \"--CODEGEN--\":1646:1683   */\n      mstore\n        /* \"--CODEGEN--\":1640:1688   */\n      pop\n      pop\n      jump\n        /* \"--CODEGEN--\":1695:2042   */\n    tag_64:\n      0x00\n        /* \"--CODEGEN--\":1807:1846   */\n      tag_66\n        /* \"--CODEGEN--\":1840:1845   */\n      dup3\n        /* \"--CODEGEN--\":1807:1846   */\n      jump(tag_67)\n    tag_66:\n        /* \"--CODEGEN--\":1858:1929   */\n      tag_68\n        /* \"--CODEGEN--\":1922:1928   */\n      dup2\n        /* \"--CODEGEN--\":1917:1920   */\n      dup6\n        /* \"--CODEGEN--\":1858:1929   */\n      jump(tag_69)\n    tag_68:\n        /* \"--CODEGEN--\":1851:1929   */\n      swap4\n      pop\n        /* \"--CODEGEN--\":1934:1986   */\n      tag_70\n        /* \"--CODEGEN--\":1979:1985   */\n      dup2\n        /* \"--CODEGEN--\":1974:1977   */\n      dup6\n        /* \"--CODEGEN--\":1967:1971   */\n      0x20\n        /* \"--CODEGEN--\":1960:1965   */\n      dup7\n        /* \"--CODEGEN--\":1956:1972   */\n      add\n        /* \"--CODEGEN--\":1934:1986   */\n      jump(tag_71)\n    tag_70:\n        /* \"--CODEGEN--\":2007:2036   */\n      tag_72\n        /* \"--CODEGEN--\":2029:2035   */\n      dup2\n        /* \"--CODEGEN--\":2007:2036   */\n      jump(tag_73)\n    tag_72:\n        /* \"--CODEGEN--\":2002:2005   */\n      dup5\n        /* \"--CODEGEN--\":1998:2037   */\n      add\n        /* \"--CODEGEN--\":1991:2037   */\n      swap2\n      pop\n        /* \"--CODEGEN--\":1787:2042   */\n      pop\n      swap3\n      swap2\n      pop\n      pop\n      jump\n        /* \"--CODEGEN--\":2049:2409   */\n    tag_74:\n      0x00\n        /* \"--CODEGEN--\":2179:2218   */\n      tag_76\n        /* \"--CODEGEN--\":2212:2217   */\n      dup3\n        /* \"--CODEGEN--\":2179:2218   */\n      jump(tag_67)\n    tag_76:\n        /* \"--CODEGEN--\":2230:2319   */\n      tag_77\n        /* \"--CODEGEN--\":2312:2318   */\n      dup2\n        /* \"--CODEGEN--\":2307:2310   */\n      dup6\n        /* \"--CODEGEN--\":2230:2319   */\n      jump(tag_78)\n    tag_77:\n        /* \"--CODEGEN--\":2223:2319   */\n      swap4\n      pop\n        /* \"--CODEGEN--\":2324:2376   */\n      tag_79\n        /* \"--CODEGEN--\":2369:2375   */\n      dup2\n        /* \"--CODEGEN--\":2364:2367   */\n      dup6\n        /* \"--CODEGEN--\":2357:2361   */\n      0x20\n        /* \"--CODEGEN--\":2350:2355   */\n      dup7\n        /* \"--CODEGEN--\":2346:2362   */\n      add\n        /* \"--CODEGEN--\":2324:2376   */\n      jump(tag_71)\n    tag_79:\n        /* \"--CODEGEN--\":2397:2403   */\n      dup1\n        /* \"--CODEGEN--\":2392:2395   */\n      dup5\n        /* \"--CODEGEN--\":2388:2404   */\n      add\n        /* \"--CODEGEN--\":2381:2404   */\n      swap2\n      pop\n        /* \"--CODEGEN--\":2159:2409   */\n      pop\n      swap3\n      swap2\n      pop\n      pop\n      jump\n        /* \"--CODEGEN--\":2416:2529   */\n    tag_80:\n        /* \"--CODEGEN--\":2499:2523   */\n      tag_82\n        /* \"--CODEGEN--\":2517:2522   */\n      dup2\n        /* \"--CODEGEN--\":2499:2523   */\n      jump(tag_83)\n    tag_82:\n        /* \"--CODEGEN--\":2494:2497   */\n      dup3\n        /* \"--CODEGEN--\":2487:2524   */\n      mstore\n        /* \"--CODEGEN--\":2481:2529   */\n      pop\n      pop\n      jump\n        /* \"--CODEGEN--\":2536:2688   */\n    tag_84:\n        /* \"--CODEGEN--\":2637:2682   */\n      tag_86\n        /* \"--CODEGEN--\":2657:2681   */\n      tag_87\n        /* \"--CODEGEN--\":2675:2680   */\n      dup3\n        /* \"--CODEGEN--\":2657:2681   */\n      jump(tag_83)\n    tag_87:\n        /* \"--CODEGEN--\":2637:2682   */\n      jump(tag_88)\n    tag_86:\n        /* \"--CODEGEN--\":2632:2635   */\n      dup3\n        /* \"--CODEGEN--\":2625:2683   */\n      mstore\n        /* \"--CODEGEN--\":2619:2688   */\n      pop\n      pop\n      jump\n        /* \"--CODEGEN--\":2695:3100   */\n    tag_23:\n      0x00\n        /* \"--CODEGEN--\":2869:2964   */\n      tag_90\n        /* \"--CODEGEN--\":2960:2963   */\n      dup3\n        /* \"--CODEGEN--\":2951:2957   */\n      dup6\n        /* \"--CODEGEN--\":2869:2964   */\n      jump(tag_74)\n    tag_90:\n        /* \"--CODEGEN--\":2862:2964   */\n      swap2\n      pop\n        /* \"--CODEGEN--\":2975:3050   */\n      tag_91\n        /* \"--CODEGEN--\":3046:3049   */\n      dup3\n        /* \"--CODEGEN--\":3037:3043   */\n      dup5\n        /* \"--CODEGEN--\":2975:3050   */\n      jump(tag_84)\n    tag_91:\n        /* \"--CODEGEN--\":3072:3074   */\n      0x20\n        /* \"--CODEGEN--\":3067:3070   */\n      dup3\n        /* \"--CODEGEN--\":3063:3075   */\n      add\n        /* \"--CODEGEN--\":3056:3075   */\n      swap2\n      pop\n        /* \"--CODEGEN--\":3092:3095   */\n      dup2\n        /* \"--CODEGEN--\":3085:3095   */\n      swap1\n      pop\n        /* \"--CODEGEN--\":2850:3100   */\n      swap4\n      swap3\n      pop\n      pop\n      pop\n      jump\n        /* \"--CODEGEN--\":3107:3408   */\n    tag_28:\n      0x00\n        /* \"--CODEGEN--\":3245:3247   */\n      0x20\n        /* \"--CODEGEN--\":3234:3243   */\n      dup3\n        /* \"--CODEGEN--\":3230:3248   */\n      add\n        /* \"--CODEGEN--\":3222:3248   */\n      swap1\n      pop\n        /* \"--CODEGEN--\":3295:3304   */\n      dup2\n        /* \"--CODEGEN--\":3289:3293   */\n      dup2\n        /* \"--CODEGEN--\":3285:3305   */\n      sub\n        /* \"--CODEGEN--\":3281:3282   */\n      0x00\n        /* \"--CODEGEN--\":3270:3279   */\n      dup4\n        /* \"--CODEGEN--\":3266:3283   */\n      add\n        /* \"--CODEGEN--\":3259:3306   */\n      mstore\n        /* \"--CODEGEN--\":3320:3398   */\n      tag_93\n        /* \"--CODEGEN--\":3393:3397   */\n      dup2\n        /* \"--CODEGEN--\":3384:3390   */\n      dup5\n        /* \"--CODEGEN--\":3320:3398   */\n      jump(tag_64)\n    tag_93:\n        /* \"--CODEGEN--\":3312:3398   */\n      swap1\n      pop\n        /* \"--CODEGEN--\":3216:3408   */\n      swap3\n      swap2\n      pop\n      pop\n      jump\n        /* \"--CODEGEN--\":3415:3827   */\n    tag_31:\n      0x00\n        /* \"--CODEGEN--\":3581:3583   */\n      0x40\n        /* \"--CODEGEN--\":3570:3579   */\n      dup3\n        /* \"--CODEGEN--\":3566:3584   */\n      add\n        /* \"--CODEGEN--\":3558:3584   */\n      swap1\n      pop\n        /* \"--CODEGEN--\":3631:3640   */\n      dup2\n        /* \"--CODEGEN--\":3625:3629   */\n      dup2\n        /* \"--CODEGEN--\":3621:3641   */\n      sub\n        /* \"--CODEGEN--\":3617:3618   */\n      0x00\n        /* \"--CODEGEN--\":3606:3615   */\n      dup4\n        /* \"--CODEGEN--\":3602:3619   */\n      add\n        /* \"--CODEGEN--\":3595:3642   */\n      mstore\n        /* \"--CODEGEN--\":3656:3734   */\n      tag_95\n        /* \"--CODEGEN--\":3729:3733   */\n      dup2\n        /* \"--CODEGEN--\":3720:3726   */\n      dup6\n        /* \"--CODEGEN--\":3656:3734   */\n      jump(tag_64)\n    tag_95:\n        /* \"--CODEGEN--\":3648:3734   */\n      swap1\n      pop\n        /* \"--CODEGEN--\":3745:3817   */\n      tag_96\n        /* \"--CODEGEN--\":3813:3815   */\n      0x20\n        /* \"--CODEGEN--\":3802:3811   */\n      dup4\n        /* \"--CODEGEN--\":3798:3816   */\n      add\n        /* \"--CODEGEN--\":3789:3795   */\n      dup5\n        /* \"--CODEGEN--\":3745:3817   */\n      jump(tag_80)\n    tag_96:\n        /* \"--CODEGEN--\":3552:3827   */\n      swap4\n      swap3\n      pop\n      pop\n      pop\n      jump\n        /* \"--CODEGEN--\":3834:4485   */\n    tag_25:\n      0x00\n        /* \"--CODEGEN--\":4064:4067   */\n      0x80\n        /* \"--CODEGEN--\":4053:4062   */\n      dup3\n        /* \"--CODEGEN--\":4049:4068   */\n      add\n        /* \"--CODEGEN--\":4041:4068   */\n      swap1\n      pop\n        /* \"--CODEGEN--\":4115:4124   */\n      dup2\n        /* \"--CODEGEN--\":4109:4113   */\n      dup2\n        /* \"--CODEGEN--\":4105:4125   */\n      sub\n        /* \"--CODEGEN--\":4101:4102   */\n      0x00\n        /* \"--CODEGEN--\":4090:4099   */\n      dup4\n        /* \"--CODEGEN--\":4086:4103   */\n      add\n        /* \"--CODEGEN--\":4079:4126   */\n      mstore\n        /* \"--CODEGEN--\":4140:4218   */\n      tag_98\n        /* \"--CODEGEN--\":4213:4217   */\n      dup2\n        /* \"--CODEGEN--\":4204:4210   */\n      dup8\n        /* \"--CODEGEN--\":4140:4218   */\n      jump(tag_64)\n    tag_98:\n        /* \"--CODEGEN--\":4132:4218   */\n      swap1\n      pop\n        /* \"--CODEGEN--\":4229:4301   */\n      tag_99\n        /* \"--CODEGEN--\":4297:4299   */\n      0x20\n        /* \"--CODEGEN--\":4286:4295   */\n      dup4\n        /* \"--CODEGEN--\":4282:4300   */\n      add\n        /* \"--CODEGEN--\":4273:4279   */\n      dup7\n        /* \"--CODEGEN--\":4229:4301   */\n      jump(tag_80)\n    tag_99:\n        /* \"--CODEGEN--\":4312:4392   */\n      tag_100\n        /* \"--CODEGEN--\":4388:4390   */\n      0x40\n        /* \"--CODEGEN--\":4377:4386   */\n      dup4\n        /* \"--CODEGEN--\":4373:4391   */\n      add\n        /* \"--CODEGEN--\":4364:4370   */\n      dup6\n        /* \"--CODEGEN--\":4312:4392   */\n      jump(tag_56)\n    tag_100:\n        /* \"--CODEGEN--\":4403:4475   */\n      tag_101\n        /* \"--CODEGEN--\":4471:4473   */\n      0x60\n        /* \"--CODEGEN--\":4460:4469   */\n      dup4\n        /* \"--CODEGEN--\":4456:4474   */\n      add\n        /* \"--CODEGEN--\":4447:4453   */\n      dup5\n        /* \"--CODEGEN--\":4403:4475   */\n      jump(tag_60)\n    tag_101:\n        /* \"--CODEGEN--\":4035:4485   */\n      swap6\n      swap5\n      pop\n      pop\n      pop\n      pop\n      pop\n      jump\n        /* \"--CODEGEN--\":4492:4748   */\n    tag_39:\n      0x00\n        /* \"--CODEGEN--\":4554:4556   */\n      0x40\n        /* \"--CODEGEN--\":4548:4557   */\n      mload\n        /* \"--CODEGEN--\":4538:4557   */\n      swap1\n      pop\n        /* \"--CODEGEN--\":4592:4596   */\n      dup2\n        /* \"--CODEGEN--\":4584:4590   */\n      dup2\n        /* \"--CODEGEN--\":4580:4597   */\n      add\n        /* \"--CODEGEN--\":4691:4697   */\n      dup2\n        /* \"--CODEGEN--\":4679:4689   */\n      dup2\n        /* \"--CODEGEN--\":4676:4698   */\n      lt\n        /* \"--CODEGEN--\":4655:4673   */\n      0xffffffffffffffff\n        /* \"--CODEGEN--\":4643:4653   */\n      dup3\n        /* \"--CODEGEN--\":4640:4674   */\n      gt\n        /* \"--CODEGEN--\":4637:4699   */\n      or\n        /* \"--CODEGEN--\":4634:4636   */\n      iszero\n      tag_103\n      jumpi\n        /* \"--CODEGEN--\":4712:4713   */\n      0x00\n        /* \"--CODEGEN--\":4709:4710   */\n      dup1\n        /* \"--CODEGEN--\":4702:4714   */\n      revert\n        /* \"--CODEGEN--\":4634:4636   */\n    tag_103:\n        /* \"--CODEGEN--\":4732:4742   */\n      dup1\n        /* \"--CODEGEN--\":4728:4730   */\n      0x40\n        /* \"--CODEGEN--\":4721:4743   */\n      mstore\n        /* \"--CODEGEN--\":4532:4748   */\n      pop\n      swap2\n      swap1\n      pop\n      jump\n        /* \"--CODEGEN--\":4755:5077   */\n    tag_38:\n      0x00\n        /* \"--CODEGEN--\":4899:4917   */\n      0xffffffffffffffff\n        /* \"--CODEGEN--\":4891:4897   */\n      dup3\n        /* \"--CODEGEN--\":4888:4918   */\n      gt\n        /* \"--CODEGEN--\":4885:4887   */\n      iszero\n      tag_105\n      jumpi\n        /* \"--CODEGEN--\":4931:4932   */\n      0x00\n        /* \"--CODEGEN--\":4928:4929   */\n      dup1\n        /* \"--CODEGEN--\":4921:4933   */\n      revert\n        /* \"--CODEGEN--\":4885:4887   */\n    tag_105:\n        /* \"--CODEGEN--\":4998:5002   */\n      0x1f\n        /* \"--CODEGEN--\":4994:5003   */\n      not\n        /* \"--CODEGEN--\":4987:4991   */\n      0x1f\n        /* \"--CODEGEN--\":4979:4985   */\n      dup4\n        /* \"--CODEGEN--\":4975:4992   */\n      add\n        /* \"--CODEGEN--\":4971:5004   */\n      and\n        /* \"--CODEGEN--\":4963:5004   */\n      swap1\n      pop\n        /* \"--CODEGEN--\":5062:5066   */\n      0x20\n        /* \"--CODEGEN--\":5056:5060   */\n      dup2\n        /* \"--CODEGEN--\":5052:5067   */\n      add\n        /* \"--CODEGEN--\":5044:5067   */\n      swap1\n      pop\n        /* \"--CODEGEN--\":4822:5077   */\n      swap2\n      swap1\n      pop\n      jump\n        /* \"--CODEGEN--\":5084:5206   */\n    tag_67:\n      0x00\n        /* \"--CODEGEN--\":5178:5183   */\n      dup2\n        /* \"--CODEGEN--\":5172:5184   */\n      mload\n        /* \"--CODEGEN--\":5162:5184   */\n      swap1\n      pop\n        /* \"--CODEGEN--\":5143:5206   */\n      swap2\n      swap1\n      pop\n      jump\n        /* \"--CODEGEN--\":5214:5377   */\n    tag_69:\n      0x00\n        /* \"--CODEGEN--\":5329:5335   */\n      dup3\n        /* \"--CODEGEN--\":5324:5327   */\n      dup3\n        /* \"--CODEGEN--\":5317:5336   */\n      mstore\n        /* \"--CODEGEN--\":5366:5370   */\n      0x20\n        /* \"--CODEGEN--\":5361:5364   */\n      dup3\n        /* \"--CODEGEN--\":5357:5371   */\n      add\n        /* \"--CODEGEN--\":5342:5371   */\n      swap1\n      pop\n        /* \"--CODEGEN--\":5310:5377   */\n      swap3\n      swap2\n      pop\n      pop\n      jump\n        /* \"--CODEGEN--\":5386:5531   */\n    tag_78:\n      0x00\n        /* \"--CODEGEN--\":5522:5525   */\n      dup2\n        /* \"--CODEGEN--\":5507:5525   */\n      swap1\n      pop\n        /* \"--CODEGEN--\":5500:5531   */\n      swap3\n      swap2\n      pop\n      pop\n      jump\n        /* \"--CODEGEN--\":5539:5611   */\n    tag_63:\n      0x00\n        /* \"--CODEGEN--\":5601:5606   */\n      dup2\n        /* \"--CODEGEN--\":5590:5606   */\n      swap1\n      pop\n        /* \"--CODEGEN--\":5584:5611   */\n      swap2\n      swap1\n      pop\n      jump\n        /* \"--CODEGEN--\":5618:5739   */\n    tag_110:\n      0x00\n        /* \"--CODEGEN--\":5691:5733   */\n      0xffffffffffffffffffffffffffffffffffffffff\n        /* \"--CODEGEN--\":5684:5689   */\n      dup3\n        /* \"--CODEGEN--\":5680:5734   */\n      and\n        /* \"--CODEGEN--\":5669:5734   */\n      swap1\n      pop\n        /* \"--CODEGEN--\":5663:5739   */\n      swap2\n      swap1\n      pop\n      jump\n        /* \"--CODEGEN--\":5746:5818   */\n    tag_83:\n      0x00\n        /* \"--CODEGEN--\":5808:5813   */\n      dup2\n        /* \"--CODEGEN--\":5797:5813   */\n      swap1\n      pop\n        /* \"--CODEGEN--\":5791:5818   */\n      swap2\n      swap1\n      pop\n      jump\n        /* \"--CODEGEN--\":5825:5954   */\n    tag_59:\n      0x00\n        /* \"--CODEGEN--\":5912:5949   */\n      tag_114\n        /* \"--CODEGEN--\":5943:5948   */\n      dup3\n        /* \"--CODEGEN--\":5912:5949   */\n      jump(tag_115)\n    tag_114:\n        /* \"--CODEGEN--\":5899:5949   */\n      swap1\n      pop\n        /* \"--CODEGEN--\":5893:5954   */\n      swap2\n      swap1\n      pop\n      jump\n        /* \"--CODEGEN--\":5961:6082   */\n    tag_115:\n      0x00\n        /* \"--CODEGEN--\":6040:6077   */\n      tag_117\n        /* \"--CODEGEN--\":6071:6076   */\n      dup3\n        /* \"--CODEGEN--\":6040:6077   */\n      jump(tag_118)\n    tag_117:\n        /* \"--CODEGEN--\":6027:6077   */\n      swap1\n      pop\n        /* \"--CODEGEN--\":6021:6082   */\n      swap2\n      swap1\n      pop\n      jump\n        /* \"--CODEGEN--\":6089:6197   */\n    tag_118:\n      0x00\n        /* \"--CODEGEN--\":6168:6192   */\n      tag_120\n        /* \"--CODEGEN--\":6186:6191   */\n      dup3\n        /* \"--CODEGEN--\":6168:6192   */\n      jump(tag_110)\n    tag_120:\n        /* \"--CODEGEN--\":6155:6192   */\n      swap1\n      pop\n        /* \"--CODEGEN--\":6149:6197   */\n      swap2\n      swap1\n      pop\n      jump\n        /* \"--CODEGEN--\":6205:6350   */\n    tag_42:\n        /* \"--CODEGEN--\":6286:6292   */\n      dup3\n        /* \"--CODEGEN--\":6281:6284   */\n      dup2\n        /* \"--CODEGEN--\":6276:6279   */\n      dup4\n        /* \"--CODEGEN--\":6263:6293   */\n      calldatacopy\n        /* \"--CODEGEN--\":6342:6343   */\n      0x00\n        /* \"--CODEGEN--\":6333:6339   */\n      dup4\n        /* \"--CODEGEN--\":6328:6331   */\n      dup4\n        /* \"--CODEGEN--\":6324:6340   */\n      add\n        /* \"--CODEGEN--\":6317:6344   */\n      mstore\n        /* \"--CODEGEN--\":6256:6350   */\n      pop\n      pop\n      pop\n      jump\n        /* \"--CODEGEN--\":6359:6627   */\n    tag_71:\n        /* \"--CODEGEN--\":6424:6425   */\n      0x00\n        /* \"--CODEGEN--\":6431:6532   */\n    tag_123:\n        /* \"--CODEGEN--\":6445:6451   */\n      dup4\n        /* \"--CODEGEN--\":6442:6443   */\n      dup2\n        /* \"--CODEGEN--\":6439:6452   */\n      lt\n        /* \"--CODEGEN--\":6431:6532   */\n      iszero\n      tag_125\n      jumpi\n        /* \"--CODEGEN--\":6521:6522   */\n      dup1\n        /* \"--CODEGEN--\":6516:6519   */\n      dup3\n        /* \"--CODEGEN--\":6512:6523   */\n      add\n        /* \"--CODEGEN--\":6506:6524   */\n      mload\n        /* \"--CODEGEN--\":6502:6503   */\n      dup2\n        /* \"--CODEGEN--\":6497:6500   */\n      dup5\n        /* \"--CODEGEN--\":6493:6504   */\n      add\n        /* \"--CODEGEN--\":6486:6525   */\n      mstore\n        /* \"--CODEGEN--\":6467:6469   */\n      0x20\n        /* \"--CODEGEN--\":6464:6465   */\n      dup2\n        /* \"--CODEGEN--\":6460:6470   */\n      add\n        /* \"--CODEGEN--\":6455:6470   */\n      swap1\n      pop\n        /* \"--CODEGEN--\":6431:6532   */\n      jump(tag_123)\n    tag_125:\n        /* \"--CODEGEN--\":6547:6553   */\n      dup4\n        /* \"--CODEGEN--\":6544:6545   */\n      dup2\n        /* \"--CODEGEN--\":6541:6554   */\n      gt\n        /* \"--CODEGEN--\":6538:6540   */\n      iszero\n      tag_126\n      jumpi\n        /* \"--CODEGEN--\":6612:6613   */\n      0x00\n        /* \"--CODEGEN--\":6603:6609   */\n      dup5\n        /* \"--CODEGEN--\":6598:6601   */\n      dup5\n        /* \"--CODEGEN--\":6594:6610   */\n      add\n        /* \"--CODEGEN--\":6587:6614   */\n      mstore\n        /* \"--CODEGEN--\":6538:6540   */\n    tag_126:\n        /* \"--CODEGEN--\":6408:6627   */\n      pop\n      pop\n      pop\n      pop\n      jump\n        /* \"--CODEGEN--\":6635:6709   */\n    tag_88:\n      0x00\n        /* \"--CODEGEN--\":6699:6704   */\n      dup2\n        /* \"--CODEGEN--\":6688:6704   */\n      swap1\n      pop\n        /* \"--CODEGEN--\":6682:6709   */\n      swap2\n      swap1\n      pop\n      jump\n        /* \"--CODEGEN--\":6716:6813   */\n    tag_73:\n      0x00\n        /* \"--CODEGEN--\":6804:6806   */\n      0x1f\n        /* \"--CODEGEN--\":6800:6807   */\n      not\n        /* \"--CODEGEN--\":6795:6797   */\n      0x1f\n        /* \"--CODEGEN--\":6788:6793   */\n      dup4\n        /* \"--CODEGEN--\":6784:6798   */\n      add\n        /* \"--CODEGEN--\":6780:6808   */\n      and\n        /* \"--CODEGEN--\":6770:6808   */\n      swap1\n      pop\n        /* \"--CODEGEN--\":6764:6813   */\n      swap2\n      swap1\n      pop\n      jump\n        /* \"--CODEGEN--\":6821:6938   */\n    tag_46:\n        /* \"--CODEGEN--\":6890:6914   */\n      tag_130\n        /* \"--CODEGEN--\":6908:6913   */\n      dup2\n        /* \"--CODEGEN--\":6890:6914   */\n      jump(tag_83)\n    tag_130:\n        /* \"--CODEGEN--\":6883:6888   */\n      dup2\n        /* \"--CODEGEN--\":6880:6915   */\n      eq\n        /* \"--CODEGEN--\":6870:6872   */\n      tag_131\n      jumpi\n        /* \"--CODEGEN--\":6929:6930   */\n      0x00\n        /* \"--CODEGEN--\":6926:6927   */\n      dup1\n        /* \"--CODEGEN--\":6919:6931   */\n      revert\n        /* \"--CODEGEN--\":6870:6872   */\n    tag_131:\n        /* \"--CODEGEN--\":6864:6938   */\n      pop\n      jump\n\n    auxdata: 0xa2646970667358221220d44a93429dbcb5f4d6c688127f9dec7dca469426e5184a6250d6054ca95a770c64736f6c63430006000033\n}\n",
				"bytecode": {
					"linkReferences": {},
					"object": "608060405234801561001057600080fd5b506105c9806100206000396000f3fe608060405234801561001057600080fd5b506004361061004c5760003560e01c80631297814e1461005157806314d07a251461005b578063abefda8114610077578063c355a3e514610093575b600080fd5b6100596100af565b005b6100756004803603610070919081019061026d565b6100dd565b005b610091600480360361008c919081019061022c565b61014c565b005b6100ad60048036036100a8919081019061026d565b610186565b005b7f9f2c8877eeb6e22e94438633d64a43489fefb752521080a2f01e64a03feb270b60405160405180910390a1565b600082826040516020016100f292919061036f565b6040516020818303038152906040528051906020012090507fd0ff1ee28f2dbf23f694467b91653073187a19cba2610b37edd759ee2e31a8718383338460405161013f94939291906103e9565b60405180910390a1505050565b7f5007d59453ebcd951519cabd56f016d29fe2390892307189bde962ced3d340948160405161017b9190610397565b60405180910390a150565b7f7556e8345a443b754c690a14b2cd91df7aec27fbd662a660dd25d647f4732ed182826040516101b79291906103b9565b60405180910390a15050565b600082601f8301126101d457600080fd5b81356101e76101e282610462565b610435565b9150808252602083016020830185838301111561020357600080fd5b61020e83828461051f565b50505092915050565b6000813590506102268161057c565b92915050565b60006020828403121561023e57600080fd5b600082013567ffffffffffffffff81111561025857600080fd5b610264848285016101c3565b91505092915050565b6000806040838503121561028057600080fd5b600083013567ffffffffffffffff81111561029a57600080fd5b6102a6858286016101c3565b92505060206102b785828601610217565b9150509250929050565b6102ca816104e9565b82525050565b6102d9816104b5565b82525050565b60006102ea8261048e565b6102f48185610499565b935061030481856020860161052e565b61030d8161056b565b840191505092915050565b60006103238261048e565b61032d81856104aa565b935061033d81856020860161052e565b80840191505092915050565b610352816104df565b82525050565b610369610364826104df565b610561565b82525050565b600061037b8285610318565b91506103878284610358565b6020820191508190509392505050565b600060208201905081810360008301526103b181846102df565b905092915050565b600060408201905081810360008301526103d381856102df565b90506103e26020830184610349565b9392505050565b6000608082019050818103600083015261040381876102df565b90506104126020830186610349565b61041f60408301856102c1565b61042c60608301846102d0565b95945050505050565b6000604051905081810181811067ffffffffffffffff8211171561045857600080fd5b8060405250919050565b600067ffffffffffffffff82111561047957600080fd5b601f19601f8301169050602081019050919050565b600081519050919050565b600082825260208201905092915050565b600081905092915050565b6000819050919050565b600073ffffffffffffffffffffffffffffffffffffffff82169050919050565b6000819050919050565b60006104f4826104fb565b9050919050565b60006105068261050d565b9050919050565b6000610518826104bf565b9050919050565b82818337600083830152505050565b60005b8381101561054c578082015181840152602081019050610531565b8381111561055b576000848401525b50505050565b6000819050919050565b6000601f19601f8301169050919050565b610585816104df565b811461059057600080fd5b5056fea2646970667358221220d44a93429dbcb5f4d6c688127f9dec7dca469426e5184a6250d6054ca95a770c64736f6c63430006000033",
					"opcodes": "PUSH1 0x80 PUSH1 0x40 MSTORE CALLVALUE DUP1 ISZERO PUSH2 0x10 JUMPI PUSH1 0x0 DUP1 REVERT JUMPDEST POP PUSH2 0x5C9 DUP1 PUSH2 0x20 PUSH1 0x0 CODECOPY PUSH1 0x0 RETURN INVALID PUSH1 0x80 PUSH1 0x40 MSTORE CALLVALUE DUP1 ISZERO PUSH2 0x10 JUMPI PUSH1 0x0 DUP1 REVERT JUMPDEST POP PUSH1 0x4 CALLDATASIZE LT PUSH2 0x4C JUMPI PUSH1 0x0 CALLDATALOAD PUSH1 0xE0 SHR DUP1 PUSH4 0x1297814E EQ PUSH2 0x51 JUMPI DUP1 PUSH4 0x14D07A25 EQ PUSH2 0x5B JUMPI DUP1 PUSH4 0xABEFDA81 EQ PUSH2 0x77 JUMPI DUP1 PUSH4 0xC355A3E5 EQ PUSH2 0x93 JUMPI JUMPDEST PUSH1 0x0 DUP1 REVERT JUMPDEST PUSH2 0x59 PUSH2 0xAF JUMP JUMPDEST STOP JUMPDEST PUSH2 0x75 PUSH1 0x4 DUP1 CALLDATASIZE SUB PUSH2 0x70 SWAP2 SWAP1 DUP2 ADD SWAP1 PUSH2 0x26D JUMP JUMPDEST PUSH2 0xDD JUMP JUMPDEST STOP JUMPDEST PUSH2 0x91 PUSH1 0x4 DUP1 CALLDATASIZE SUB PUSH2 0x8C SWAP2 SWAP1 DUP2 ADD SWAP1 PUSH2 0x22C JUMP JUMPDEST PUSH2 0x14C JUMP JUMPDEST STOP JUMPDEST PUSH2 0xAD PUSH1 0x4 DUP1 CALLDATASIZE SUB PUSH2 0xA8 SWAP2 SWAP1 DUP2 ADD SWAP1 PUSH2 0x26D JUMP JUMPDEST PUSH2 0x186 JUMP JUMPDEST STOP JUMPDEST PUSH32 0x9F2C8877EEB6E22E94438633D64A43489FEFB752521080A2F01E64A03FEB270B PUSH1 0x40 MLOAD PUSH1 0x40 MLOAD DUP1 SWAP2 SUB SWAP1 LOG1 JUMP JUMPDEST PUSH1 0x0 DUP3 DUP3 PUSH1 0x40 MLOAD PUSH1 0x20 ADD PUSH2 0xF2 SWAP3 SWAP2 SWAP1 PUSH2 0x36F JUMP JUMPDEST PUSH1 0x40 MLOAD PUSH1 0x20 DUP2 DUP4 SUB SUB DUP2 MSTORE SWAP1 PUSH1 0x40 MSTORE DUP1 MLOAD SWAP1 PUSH1 0x20 ADD KECCAK256 SWAP1 POP PUSH32 0xD0FF1EE28F2DBF23F694467B91653073187A19CBA2610B37EDD759EE2E31A871 DUP4 DUP4 CALLER DUP5 PUSH1 0x40 MLOAD PUSH2 0x13F SWAP5 SWAP4 SWAP3 SWAP2 SWAP1 PUSH2 0x3E9 JUMP JUMPDEST PUSH1 0x40 MLOAD DUP1 SWAP2 SUB SWAP1 LOG1 POP POP POP JUMP JUMPDEST PUSH32 0x5007D59453EBCD951519CABD56F016D29FE2390892307189BDE962CED3D34094 DUP2 PUSH1 0x40 MLOAD PUSH2 0x17B SWAP2 SWAP1 PUSH2 0x397 JUMP JUMPDEST PUSH1 0x40 MLOAD DUP1 SWAP2 SUB SWAP1 LOG1 POP JUMP JUMPDEST PUSH32 0x7556E8345A443B754C690A14B2CD91DF7AEC27FBD662A660DD25D647F4732ED1 DUP3 DUP3 PUSH1 0x40 MLOAD PUSH2 0x1B7 SWAP3 SWAP2 SWAP1 PUSH2 0x3B9 JUMP JUMPDEST PUSH1 0x40 MLOAD DUP1 SWAP2 SUB SWAP1 LOG1 POP POP JUMP JUMPDEST PUSH1 0x0 DUP3 PUSH1 0x1F DUP4 ADD SLT PUSH2 0x1D4 JUMPI PUSH1 0x0 DUP1 REVERT JUMPDEST DUP2 CALLDATALOAD PUSH2 0x1E7 PUSH2 0x1E2 DUP3 PUSH2 0x462 JUMP JUMPDEST PUSH2 0x435 JUMP JUMPDEST SWAP2 POP DUP1 DUP3 MSTORE PUSH1 0x20 DUP4 ADD PUSH1 0x20 DUP4 ADD DUP6 DUP4 DUP4 ADD GT ISZERO PUSH2 0x203 JUMPI PUSH1 0x0 DUP1 REVERT JUMPDEST PUSH2 0x20E DUP4 DUP3 DUP5 PUSH2 0x51F JUMP JUMPDEST POP POP POP SWAP3 SWAP2 POP POP JUMP JUMPDEST PUSH1 0x0 DUP2 CALLDATALOAD SWAP1 POP PUSH2 0x226 DUP2 PUSH2 0x57C JUMP JUMPDEST SWAP3 SWAP2 POP POP JUMP JUMPDEST PUSH1 0x0 PUSH1 0x20 DUP3 DUP5 SUB SLT ISZERO PUSH2 0x23E JUMPI PUSH1 0x0 DUP1 REVERT JUMPDEST PUSH1 0x0 DUP3 ADD CALLDATALOAD PUSH8 0xFFFFFFFFFFFFFFFF DUP2 GT ISZERO PUSH2 0x258 JUMPI PUSH1 0x0 DUP1 REVERT JUMPDEST PUSH2 0x264 DUP5 DUP3 DUP6 ADD PUSH2 0x1C3 JUMP JUMPDEST SWAP2 POP POP SWAP3 SWAP2 POP POP JUMP JUMPDEST PUSH1 0x0 DUP1 PUSH1 0x40 DUP4 DUP6 SUB SLT ISZERO PUSH2 0x280 JUMPI PUSH1 0x0 DUP1 REVERT JUMPDEST PUSH1 0x0 DUP4 ADD CALLDATALOAD PUSH8 0xFFFFFFFFFFFFFFFF DUP2 GT ISZERO PUSH2 0x29A JUMPI PUSH1 0x0 DUP1 REVERT JUMPDEST PUSH2 0x2A6 DUP6 DUP3 DUP7 ADD PUSH2 0x1C3 JUMP JUMPDEST SWAP3 POP POP PUSH1 0x20 PUSH2 0x2B7 DUP6 DUP3 DUP7 ADD PUSH2 0x217 JUMP JUMPDEST SWAP2 POP POP SWAP3 POP SWAP3 SWAP1 POP JUMP JUMPDEST PUSH2 0x2CA DUP2 PUSH2 0x4E9 JUMP JUMPDEST DUP3 MSTORE POP POP JUMP JUMPDEST PUSH2 0x2D9 DUP2 PUSH2 0x4B5 JUMP JUMPDEST DUP3 MSTORE POP POP JUMP JUMPDEST PUSH1 0x0 PUSH2 0x2EA DUP3 PUSH2 0x48E JUMP JUMPDEST PUSH2 0x2F4 DUP2 DUP6 PUSH2 0x499 JUMP JUMPDEST SWAP4 POP PUSH2 0x304 DUP2 DUP6 PUSH1 0x20 DUP7 ADD PUSH2 0x52E JUMP JUMPDEST PUSH2 0x30D DUP2 PUSH2 0x56B JUMP JUMPDEST DUP5 ADD SWAP2 POP POP SWAP3 SWAP2 POP POP JUMP JUMPDEST PUSH1 0x0 PUSH2 0x323 DUP3 PUSH2 0x48E JUMP JUMPDEST PUSH2 0x32D DUP2 DUP6 PUSH2 0x4AA JUMP JUMPDEST SWAP4 POP PUSH2 0x33D DUP2 DUP6 PUSH1 0x20 DUP7 ADD PUSH2 0x52E JUMP JUMPDEST DUP1 DUP5 ADD SWAP2 POP POP SWAP3 SWAP2 POP POP JUMP JUMPDEST PUSH2 0x352 DUP2 PUSH2 0x4DF JUMP JUMPDEST DUP3 MSTORE POP POP JUMP JUMPDEST PUSH2 0x369 PUSH2 0x364 DUP3 PUSH2 0x4DF JUMP JUMPDEST PUSH2 0x561 JUMP JUMPDEST DUP3 MSTORE POP POP JUMP JUMPDEST PUSH1 0x0 PUSH2 0x37B DUP3 DUP6 PUSH2 0x318 JUMP JUMPDEST SWAP2 POP PUSH2 0x387 DUP3 DUP5 PUSH2 0x358 JUMP JUMPDEST PUSH1 0x20 DUP3 ADD SWAP2 POP DUP2 SWAP1 POP SWAP4 SWAP3 POP POP POP JUMP JUMPDEST PUSH1 0x0 PUSH1 0x20 DUP3 ADD SWAP1 POP DUP2 DUP2 SUB PUSH1 0x0 DUP4 ADD MSTORE PUSH2 0x3B1 DUP2 DUP5 PUSH2 0x2DF JUMP JUMPDEST SWAP1 POP SWAP3 SWAP2 POP POP JUMP JUMPDEST PUSH1 0x0 PUSH1 0x40 DUP3 ADD SWAP1 POP DUP2 DUP2 SUB PUSH1 0x0 DUP4 ADD MSTORE PUSH2 0x3D3 DUP2 DUP6 PUSH2 0x2DF JUMP JUMPDEST SWAP1 POP PUSH2 0x3E2 PUSH1 0x20 DUP4 ADD DUP5 PUSH2 0x349 JUMP JUMPDEST SWAP4 SWAP3 POP POP POP JUMP JUMPDEST PUSH1 0x0 PUSH1 0x80 DUP3 ADD SWAP1 POP DUP2 DUP2 SUB PUSH1 0x0 DUP4 ADD MSTORE PUSH2 0x403 DUP2 DUP8 PUSH2 0x2DF JUMP JUMPDEST SWAP1 POP PUSH2 0x412 PUSH1 0x20 DUP4 ADD DUP7 PUSH2 0x349 JUMP JUMPDEST PUSH2 0x41F PUSH1 0x40 DUP4 ADD DUP6 PUSH2 0x2C1 JUMP JUMPDEST PUSH2 0x42C PUSH1 0x60 DUP4 ADD DUP5 PUSH2 0x2D0 JUMP JUMPDEST SWAP6 SWAP5 POP POP POP POP POP JUMP JUMPDEST PUSH1 0x0 PUSH1 0x40 MLOAD SWAP1 POP DUP2 DUP2 ADD DUP2 DUP2 LT PUSH8 0xFFFFFFFFFFFFFFFF DUP3 GT OR ISZERO PUSH2 0x458 JUMPI PUSH1 0x0 DUP1 REVERT JUMPDEST DUP1 PUSH1 0x40 MSTORE POP SWAP2 SWAP1 POP JUMP JUMPDEST PUSH1 0x0 PUSH8 0xFFFFFFFFFFFFFFFF DUP3 GT ISZERO PUSH2 0x479 JUMPI PUSH1 0x0 DUP1 REVERT JUMPDEST PUSH1 0x1F NOT PUSH1 0x1F DUP4 ADD AND SWAP1 POP PUSH1 0x20 DUP2 ADD SWAP1 POP SWAP2 SWAP1 POP JUMP JUMPDEST PUSH1 0x0 DUP2 MLOAD SWAP1 POP SWAP2 SWAP1 POP JUMP JUMPDEST PUSH1 0x0 DUP3 DUP3 MSTORE PUSH1 0x20 DUP3 ADD SWAP1 POP SWAP3 SWAP2 POP POP JUMP JUMPDEST PUSH1 0x0 DUP2 SWAP1 POP SWAP3 SWAP2 POP POP JUMP JUMPDEST PUSH1 0x0 DUP2 SWAP1 POP SWAP2 SWAP1 POP JUMP JUMPDEST PUSH1 0x0 PUSH20 0xFFFFFFFFFFFFFFFFFFFFFFFFFFFFFFFFFFFFFFFF DUP3 AND SWAP1 POP SWAP2 SWAP1 POP JUMP JUMPDEST PUSH1 0x0 DUP2 SWAP1 POP SWAP2 SWAP1 POP JUMP JUMPDEST PUSH1 0x0 PUSH2 0x4F4 DUP3 PUSH2 0x4FB JUMP JUMPDEST SWAP1 POP SWAP2 SWAP1 POP JUMP JUMPDEST PUSH1 0x0 PUSH2 0x506 DUP3 PUSH2 0x50D JUMP JUMPDEST SWAP1 POP SWAP2 SWAP1 POP JUMP JUMPDEST PUSH1 0x0 PUSH2 0x518 DUP3 PUSH2 0x4BF JUMP JUMPDEST SWAP1 POP SWAP2 SWAP1 POP JUMP JUMPDEST DUP3 DUP2 DUP4 CALLDATACOPY PUSH1 0x0 DUP4 DUP4 ADD MSTORE POP POP POP JUMP JUMPDEST PUSH1 0x0 JUMPDEST DUP4 DUP2 LT ISZERO PUSH2 0x54C JUMPI DUP1 DUP3 ADD MLOAD DUP2 DUP5 ADD MSTORE PUSH1 0x20 DUP2 ADD SWAP1 POP PUSH2 0x531 JUMP JUMPDEST DUP4 DUP2 GT ISZERO PUSH2 0x55B JUMPI PUSH1 0x0 DUP5 DUP5 ADD MSTORE JUMPDEST POP POP POP POP JUMP JUMPDEST PUSH1 0x0 DUP2 SWAP1 POP SWAP2 SWAP1 POP JUMP JUMPDEST PUSH1 0x0 PUSH1 0x1F NOT PUSH1 0x1F DUP4 ADD AND SWAP1 POP SWAP2 SWAP1 POP JUMP JUMPDEST PUSH2 0x585 DUP2 PUSH2 0x4DF JUMP JUMPDEST DUP2 EQ PUSH2 0x590 JUMPI PUSH1 0x0 DUP1 REVERT JUMPDEST POP JUMP INVALID LOG2 PUSH5 0x6970667358 0x22 SLT KECCAK256 0xD4 0x4A SWAP4 TIMESTAMP SWAP14 0xBC 0xB5 DELEGATECALL 0xD6 0xC6 DUP9 SLT PUSH32 0x9DEC7DCA469426E5184A6250D6054CA95A770C64736F6C634300060000330000 "
				},
				"gasEstimates": {
					"creation": {
						"codeDepositCost": "296200",
						"executionCost": "337",
						"totalCost": "296537"
					},
					"external": {
						"AbortarMision()": "899",
						"EmitirEvento1(string)": "infinite",
						"EmitirEvento2(string,uint256)": "infinite",
						"EmitirEvento3(string,uint256)": "infinite"
					}
				},
				"methodIdentifiers": {
					"AbortarMision()": "1297814e",
					"EmitirEvento1(string)": "abefda81",
					"EmitirEvento2(string,uint256)": "c355a3e5",
					"EmitirEvento3(string,uint256)": "14d07a25"
				}
			},
			"storageLayout": {
				"storage": [],
				"types": null
			},
			"userdoc": {
				"methods": {}
			}
		}
	}
}