{
	"data": {
		"bytecode": {
			"linkReferences": {},
			"object": "60806040526020600055600460015560015460005401600255600154600054036003556001546000548161002f57fe5b04600455600154600054026005556001546000548161004a57fe5b066006556001546000540a6007556003600855600360095560015460005411600a60006101000a81548160ff02191690831515021790555060015460005410600a60016101000a81548160ff02191690831515021790555060015460005414600a60026101000a81548160ff02191690831515021790555060095460085414600a60036101000a81548160ff0219169083151502179055506001546000541415600a60046101000a81548160ff0219169083151502179055506001546000541015600a60056101000a81548160ff02191690831515021790555034801561013057600080fd5b5061043c806101406000396000f3fe608060405234801561001057600080fd5b50600436106100ea5760003560e01c80639a441df91161008c578063cf7ff13311610066578063cf7ff1331461024f578063d9eb62f114610271578063dfdbfd3414610293578063fa75054e146102b5576100ea565b80639a441df9146101ed5780639ffe16661461020f578063c76218e614610231576100ea565b806355079601116100c8578063550796011461014957806368aac98d1461018f5780637e7d8ec6146101b1578063800c2a0e146101cf576100ea565b806329745262146100ef5780633205f5fc1461010d5780633475a3ed1461012b575b600080fd5b6100f76102fb565b6040518082815260200191505060405180910390f35b610115610301565b6040518082815260200191505060405180910390f35b610133610307565b6040518082815260200191505060405180910390f35b6101756004803603602081101561015f57600080fd5b810190808035906020019092919050505061030d565b604051808215151515815260200191505060405180910390f35b610197610346565b604051808215151515815260200191505060405180910390f35b6101b9610359565b6040518082815260200191505060405180910390f35b6101d761035f565b6040518082815260200191505060405180910390f35b6101f5610365565b604051808215151515815260200191505060405180910390f35b610217610378565b604051808215151515815260200191505060405180910390f35b61023961038b565b6040518082815260200191505060405180910390f35b610257610391565b604051808215151515815260200191505060405180910390f35b6102796103a4565b604051808215151515815260200191505060405180910390f35b61029b6103b7565b604051808215151515815260200191505060405180910390f35b6102e1600480360360208110156102cb57600080fd5b81019080803590602001909291905050506103ca565b604051808215151515815260200191505060405180910390f35b60065481565b60045481565b60035481565b600080600a838161031a57fe5b069050600081148061032c5750600581145b1561033b576001915050610341565b60009150505b919050565b600a60039054906101000a900460ff1681565b60025481565b60075481565b600a60049054906101000a900460ff1681565b600a60019054906101000a900460ff1681565b60055481565b600a60009054906101000a900460ff1681565b600a60059054906101000a900460ff1681565b600a60029054906101000a900460ff1681565b600080600a83816103d757fe5b069050600081141580156103ec575060058114155b156103fb576001915050610401565b60009150505b91905056fea26469706673582212205aed46bc08c10364e01000a8f458766a526a204998d9499b964ac84d93c20d6364736f6c63430006000033",
			"opcodes": "PUSH1 0x80 PUSH1 0x40 MSTORE PUSH1 0x20 PUSH1 0x0 SSTORE PUSH1 0x4 PUSH1 0x1 SSTORE PUSH1 0x1 SLOAD PUSH1 0x0 SLOAD ADD PUSH1 0x2 SSTORE PUSH1 0x1 SLOAD PUSH1 0x0 SLOAD SUB PUSH1 0x3 SSTORE PUSH1 0x1 SLOAD PUSH1 0x0 SLOAD DUP2 PUSH2 0x2F JUMPI INVALID JUMPDEST DIV PUSH1 0x4 SSTORE PUSH1 0x1 SLOAD PUSH1 0x0 SLOAD MUL PUSH1 0x5 SSTORE PUSH1 0x1 SLOAD PUSH1 0x0 SLOAD DUP2 PUSH2 0x4A JUMPI INVALID JUMPDEST MOD PUSH1 0x6 SSTORE PUSH1 0x1 SLOAD PUSH1 0x0 SLOAD EXP PUSH1 0x7 SSTORE PUSH1 0x3 PUSH1 0x8 SSTORE PUSH1 0x3 PUSH1 0x9 SSTORE PUSH1 0x1 SLOAD PUSH1 0x0 SLOAD GT PUSH1 0xA PUSH1 0x0 PUSH2 0x100 EXP DUP2 SLOAD DUP2 PUSH1 0xFF MUL NOT AND SWAP1 DUP4 ISZERO ISZERO MUL OR SWAP1 SSTORE POP PUSH1 0x1 SLOAD PUSH1 0x0 SLOAD LT PUSH1 0xA PUSH1 0x1 PUSH2 0x100 EXP DUP2 SLOAD DUP2 PUSH1 0xFF MUL NOT AND SWAP1 DUP4 ISZERO ISZERO MUL OR SWAP1 SSTORE POP PUSH1 0x1 SLOAD PUSH1 0x0 SLOAD EQ PUSH1 0xA PUSH1 0x2 PUSH2 0x100 EXP DUP2 SLOAD DUP2 PUSH1 0xFF MUL NOT AND SWAP1 DUP4 ISZERO ISZERO MUL OR SWAP1 SSTORE POP PUSH1 0x9 SLOAD PUSH1 0x8 SLOAD EQ PUSH1 0xA PUSH1 0x3 PUSH2 0x100 EXP DUP2 SLOAD DUP2 PUSH1 0xFF MUL NOT AND SWAP1 DUP4 ISZERO ISZERO MUL OR SWAP1 SSTORE POP PUSH1 0x1 SLOAD PUSH1 0x0 SLOAD EQ ISZERO PUSH1 0xA PUSH1 0x4 PUSH2 0x100 EXP DUP2 SLOAD DUP2 PUSH1 0xFF MUL NOT AND SWAP1 DUP4 ISZERO ISZERO MUL OR SWAP1 SSTORE POP PUSH1 0x1 SLOAD PUSH1 0x0 SLOAD LT ISZERO PUSH1 0xA PUSH1 0x5 PUSH2 0x100 EXP DUP2 SLOAD DUP2 PUSH1 0xFF MUL NOT AND SWAP1 DUP4 ISZERO ISZERO MUL OR SWAP1 SSTORE POP CALLVALUE DUP1 ISZERO PUSH2 0x130 JUMPI PUSH1 0x0 DUP1 REVERT JUMPDEST POP PUSH2 0x43C DUP1 PUSH2 0x140 PUSH1 0x0 CODECOPY PUSH1 0x0 RETURN INVALID PUSH1 0x80 PUSH1 0x40 MSTORE CALLVALUE DUP1 ISZERO PUSH2 0x10 JUMPI PUSH1 0x0 DUP1 REVERT JUMPDEST POP PUSH1 0x4 CALLDATASIZE LT PUSH2 0xEA JUMPI PUSH1 0x0 CALLDATALOAD PUSH1 0xE0 SHR DUP1 PUSH4 0x9A441DF9 GT PUSH2 0x8C JUMPI DUP1 PUSH4 0xCF7FF133 GT PUSH2 0x66 JUMPI DUP1 PUSH4 0xCF7FF133 EQ PUSH2 0x24F JUMPI DUP1 PUSH4 0xD9EB62F1 EQ PUSH2 0x271 JUMPI DUP1 PUSH4 0xDFDBFD34 EQ PUSH2 0x293 JUMPI DUP1 PUSH4 0xFA75054E EQ PUSH2 0x2B5 JUMPI PUSH2 0xEA JUMP JUMPDEST DUP1 PUSH4 0x9A441DF9 EQ PUSH2 0x1ED JUMPI DUP1 PUSH4 0x9FFE1666 EQ PUSH2 0x20F JUMPI DUP1 PUSH4 0xC76218E6 EQ PUSH2 0x231 JUMPI PUSH2 0xEA JUMP JUMPDEST DUP1 PUSH4 0x55079601 GT PUSH2 0xC8 JUMPI DUP1 PUSH4 0x55079601 EQ PUSH2 0x149 JUMPI DUP1 PUSH4 0x68AAC98D EQ PUSH2 0x18F JUMPI DUP1 PUSH4 0x7E7D8EC6 EQ PUSH2 0x1B1 JUMPI DUP1 PUSH4 0x800C2A0E EQ PUSH2 0x1CF JUMPI PUSH2 0xEA JUMP JUMPDEST DUP1 PUSH4 0x29745262 EQ PUSH2 0xEF JUMPI DUP1 PUSH4 0x3205F5FC EQ PUSH2 0x10D JUMPI DUP1 PUSH4 0x3475A3ED EQ PUSH2 0x12B JUMPI JUMPDEST PUSH1 0x0 DUP1 REVERT JUMPDEST PUSH2 0xF7 PUSH2 0x2FB JUMP JUMPDEST PUSH1 0x40 MLOAD DUP1 DUP3 DUP2 MSTORE PUSH1 0x20 ADD SWAP2 POP POP PUSH1 0x40 MLOAD DUP1 SWAP2 SUB SWAP1 RETURN JUMPDEST PUSH2 0x115 PUSH2 0x301 JUMP JUMPDEST PUSH1 0x40 MLOAD DUP1 DUP3 DUP2 MSTORE PUSH1 0x20 ADD SWAP2 POP POP PUSH1 0x40 MLOAD DUP1 SWAP2 SUB SWAP1 RETURN JUMPDEST PUSH2 0x133 PUSH2 0x307 JUMP JUMPDEST PUSH1 0x40 MLOAD DUP1 DUP3 DUP2 MSTORE PUSH1 0x20 ADD SWAP2 POP POP PUSH1 0x40 MLOAD DUP1 SWAP2 SUB SWAP1 RETURN JUMPDEST PUSH2 0x175 PUSH1 0x4 DUP1 CALLDATASIZE SUB PUSH1 0x20 DUP2 LT ISZERO PUSH2 0x15F JUMPI PUSH1 0x0 DUP1 REVERT JUMPDEST DUP2 ADD SWAP1 DUP1 DUP1 CALLDATALOAD SWAP1 PUSH1 0x20 ADD SWAP1 SWAP3 SWAP2 SWAP1 POP POP POP PUSH2 0x30D JUMP JUMPDEST PUSH1 0x40 MLOAD DUP1 DUP3 ISZERO ISZERO ISZERO ISZERO DUP2 MSTORE PUSH1 0x20 ADD SWAP2 POP POP PUSH1 0x40 MLOAD DUP1 SWAP2 SUB SWAP1 RETURN JUMPDEST PUSH2 0x197 PUSH2 0x346 JUMP JUMPDEST PUSH1 0x40 MLOAD DUP1 DUP3 ISZERO ISZERO ISZERO ISZERO DUP2 MSTORE PUSH1 0x20 ADD SWAP2 POP POP PUSH1 0x40 MLOAD DUP1 SWAP2 SUB SWAP1 RETURN JUMPDEST PUSH2 0x1B9 PUSH2 0x359 JUMP JUMPDEST PUSH1 0x40 MLOAD DUP1 DUP3 DUP2 MSTORE PUSH1 0x20 ADD SWAP2 POP POP PUSH1 0x40 MLOAD DUP1 SWAP2 SUB SWAP1 RETURN JUMPDEST PUSH2 0x1D7 PUSH2 0x35F JUMP JUMPDEST PUSH1 0x40 MLOAD DUP1 DUP3 DUP2 MSTORE PUSH1 0x20 ADD SWAP2 POP POP PUSH1 0x40 MLOAD DUP1 SWAP2 SUB SWAP1 RETURN JUMPDEST PUSH2 0x1F5 PUSH2 0x365 JUMP JUMPDEST PUSH1 0x40 MLOAD DUP1 DUP3 ISZERO ISZERO ISZERO ISZERO DUP2 MSTORE PUSH1 0x20 ADD SWAP2 POP POP PUSH1 0x40 MLOAD DUP1 SWAP2 SUB SWAP1 RETURN JUMPDEST PUSH2 0x217 PUSH2 0x378 JUMP JUMPDEST PUSH1 0x40 MLOAD DUP1 DUP3 ISZERO ISZERO ISZERO ISZERO DUP2 MSTORE PUSH1 0x20 ADD SWAP2 POP POP PUSH1 0x40 MLOAD DUP1 SWAP2 SUB SWAP1 RETURN JUMPDEST PUSH2 0x239 PUSH2 0x38B JUMP JUMPDEST PUSH1 0x40 MLOAD DUP1 DUP3 DUP2 MSTORE PUSH1 0x20 ADD SWAP2 POP POP PUSH1 0x40 MLOAD DUP1 SWAP2 SUB SWAP1 RETURN JUMPDEST PUSH2 0x257 PUSH2 0x391 JUMP JUMPDEST PUSH1 0x40 MLOAD DUP1 DUP3 ISZERO ISZERO ISZERO ISZERO DUP2 MSTORE PUSH1 0x20 ADD SWAP2 POP POP PUSH1 0x40 MLOAD DUP1 SWAP2 SUB SWAP1 RETURN JUMPDEST PUSH2 0x279 PUSH2 0x3A4 JUMP JUMPDEST PUSH1 0x40 MLOAD DUP1 DUP3 ISZERO ISZERO ISZERO ISZERO DUP2 MSTORE PUSH1 0x20 ADD SWAP2 POP POP PUSH1 0x40 MLOAD DUP1 SWAP2 SUB SWAP1 RETURN JUMPDEST PUSH2 0x29B PUSH2 0x3B7 JUMP JUMPDEST PUSH1 0x40 MLOAD DUP1 DUP3 ISZERO ISZERO ISZERO ISZERO DUP2 MSTORE PUSH1 0x20 ADD SWAP2 POP POP PUSH1 0x40 MLOAD DUP1 SWAP2 SUB SWAP1 RETURN JUMPDEST PUSH2 0x2E1 PUSH1 0x4 DUP1 CALLDATASIZE SUB PUSH1 0x20 DUP2 LT ISZERO PUSH2 0x2CB JUMPI PUSH1 0x0 DUP1 REVERT JUMPDEST DUP2 ADD SWAP1 DUP1 DUP1 CALLDATALOAD SWAP1 PUSH1 0x20 ADD SWAP1 SWAP3 SWAP2 SWAP1 POP POP POP PUSH2 0x3CA JUMP JUMPDEST PUSH1 0x40 MLOAD DUP1 DUP3 ISZERO ISZERO ISZERO ISZERO DUP2 MSTORE PUSH1 0x20 ADD SWAP2 POP POP PUSH1 0x40 MLOAD DUP1 SWAP2 SUB SWAP1 RETURN JUMPDEST PUSH1 0x6 SLOAD DUP2 JUMP JUMPDEST PUSH1 0x4 SLOAD DUP2 JUMP JUMPDEST PUSH1 0x3 SLOAD DUP2 JUMP JUMPDEST PUSH1 0x0 DUP1 PUSH1 0xA DUP4 DUP2 PUSH2 0x31A JUMPI INVALID JUMPDEST MOD SWAP1 POP PUSH1 0x0 DUP2 EQ DUP1 PUSH2 0x32C JUMPI POP PUSH1 0x5 DUP2 EQ JUMPDEST ISZERO PUSH2 0x33B JUMPI PUSH1 0x1 SWAP2 POP POP PUSH2 0x341 JUMP JUMPDEST PUSH1 0x0 SWAP2 POP POP JUMPDEST SWAP2 SWAP1 POP JUMP JUMPDEST PUSH1 0xA PUSH1 0x3 SWAP1 SLOAD SWAP1 PUSH2 0x100 EXP SWAP1 DIV PUSH1 0xFF AND DUP2 JUMP JUMPDEST PUSH1 0x2 SLOAD DUP2 JUMP JUMPDEST PUSH1 0x7 SLOAD DUP2 JUMP JUMPDEST PUSH1 0xA PUSH1 0x4 SWAP1 SLOAD SWAP1 PUSH2 0x100 EXP SWAP1 DIV PUSH1 0xFF AND DUP2 JUMP JUMPDEST PUSH1 0xA PUSH1 0x1 SWAP1 SLOAD SWAP1 PUSH2 0x100 EXP SWAP1 DIV PUSH1 0xFF AND DUP2 JUMP JUMPDEST PUSH1 0x5 SLOAD DUP2 JUMP JUMPDEST PUSH1 0xA PUSH1 0x0 SWAP1 SLOAD SWAP1 PUSH2 0x100 EXP SWAP1 DIV PUSH1 0xFF AND DUP2 JUMP JUMPDEST PUSH1 0xA PUSH1 0x5 SWAP1 SLOAD SWAP1 PUSH2 0x100 EXP SWAP1 DIV PUSH1 0xFF AND DUP2 JUMP JUMPDEST PUSH1 0xA PUSH1 0x2 SWAP1 SLOAD SWAP1 PUSH2 0x100 EXP SWAP1 DIV PUSH1 0xFF AND DUP2 JUMP JUMPDEST PUSH1 0x0 DUP1 PUSH1 0xA DUP4 DUP2 PUSH2 0x3D7 JUMPI INVALID JUMPDEST MOD SWAP1 POP PUSH1 0x0 DUP2 EQ ISZERO DUP1 ISZERO PUSH2 0x3EC JUMPI POP PUSH1 0x5 DUP2 EQ ISZERO JUMPDEST ISZERO PUSH2 0x3FB JUMPI PUSH1 0x1 SWAP2 POP POP PUSH2 0x401 JUMP JUMPDEST PUSH1 0x0 SWAP2 POP POP JUMPDEST SWAP2 SWAP1 POP JUMP INVALID LOG2 PUSH5 0x6970667358 0x22 SLT KECCAK256 GAS 0xED CHAINID 0xBC ADDMOD 0xC1 SUB PUSH5 0xE01000A8F4 PC PUSH23 0x6A526A204998D9499B964AC84D93C20D6364736F6C6343 STOP MOD STOP STOP CALLER "
		},
		"gasEstimates": {
			"creation": {
				"codeDepositCost": "216800",
				"executionCost": "330144",
				"totalCost": "546944"
			},
			"external": {
				"diferente()": "1126",
				"divisibilidad(uint256)": "438",
				"divisibilidadV2(uint256)": "512",
				"division()": "1051",
				"exponente()": "1094",
				"igual()": "1169",
				"igual_t()": "1148",
				"mayor()": "1075",
				"mayor_igual()": "1147",
				"menor()": "1148",
				"modulo()": "1029",
				"multiplicacion()": "1072",
				"resta()": "1073",
				"suma()": "1072"
			}
		},
		"methodIdentifiers": {
			"diferente()": "9a441df9",
			"divisibilidad(uint256)": "55079601",
			"divisibilidadV2(uint256)": "fa75054e",
			"division()": "3205f5fc",
			"exponente()": "800c2a0e",
			"igual()": "dfdbfd34",
			"igual_t()": "68aac98d",
			"mayor()": "cf7ff133",
			"mayor_igual()": "d9eb62f1",
			"menor()": "9ffe1666",
			"modulo()": "29745262",
			"multiplicacion()": "c76218e6",
			"resta()": "3475a3ed",
			"suma()": "7e7d8ec6"
		}
	},
	"abi": [
		{
			"inputs": [],
			"name": "diferente",
			"outputs": [
				{
					"internalType": "bool",
					"name": "",
					"type": "bool"
				}
			],
			"stateMutability": "view",
			"type": "function"
		},
		{
			"inputs": [
				{
					"internalType": "uint256",
					"name": "_i",
					"type": "uint256"
				}
			],
			"name": "divisibilidad",
			"outputs": [
				{
					"internalType": "bool",
					"name": "",
					"type": "bool"
				}
			],
			"stateMutability": "pure",
			"type": "function"
		},
		{
			"inputs": [
				{
					"internalType": "uint256",
					"name": "_i",
					"type": "uint256"
				}
			],
			"name": "divisibilidadV2",
			"outputs": [
				{
					"internalType": "bool",
					"name": "",
					"type": "bool"
				}
			],
			"stateMutability": "pure",
			"type": "function"
		},
		{
			"inputs": [],
			"name": "division",
			"outputs": [
				{
					"internalType": "uint256",
					"name": "",
					"type": "uint256"
				}
			],
			"stateMutability": "view",
			"type": "function"
		},
		{
			"inputs": [],
			"name": "exponente",
			"outputs": [
				{
					"internalType": "uint256",
					"name": "",
					"type": "uint256"
				}
			],
			"stateMutability": "view",
			"type": "function"
		},
		{
			"inputs": [],
			"name": "igual",
			"outputs": [
				{
					"internalType": "bool",
					"name": "",
					"type": "bool"
				}
			],
			"stateMutability": "view",
			"type": "function"
		},
		{
			"inputs": [],
			"name": "igual_t",
			"outputs": [
				{
					"internalType": "bool",
					"name": "",
					"type": "bool"
				}
			],
			"stateMutability": "view",
			"type": "function"
		},
		{
			"inputs": [],
			"name": "mayor",
			"outputs": [
				{
					"internalType": "bool",
					"name": "",
					"type": "bool"
				}
			],
			"stateMutability": "view",
			"type": "function"
		},
		{
			"inputs": [],
			"name": "mayor_igual",
			"outputs": [
				{
					"internalType": "bool",
					"name": "",
					"type": "bool"
				}
			],
			"stateMutability": "view",
			"type": "function"
		},
		{
			"inputs": [],
			"name": "menor",
			"outputs": [
				{
					"internalType": "bool",
					"name": "",
					"type": "bool"
				}
			],
			"stateMutability": "view",
			"type": "function"
		},
		{
			"inputs": [],
			"name": "modulo",
			"outputs": [
				{
					"internalType": "uint256",
					"name": "",
					"type": "uint256"
				}
			],
			"stateMutability": "view",
			"type": "function"
		},
		{
			"inputs": [],
			"name": "multiplicacion",
			"outputs": [
				{
					"internalType": "uint256",
					"name": "",
					"type": "uint256"
				}
			],
			"stateMutability": "view",
			"type": "function"
		},
		{
			"inputs": [],
			"name": "resta",
			"outputs": [
				{
					"internalType": "uint256",
					"name": "",
					"type": "uint256"
				}
			],
			"stateMutability": "view",
			"type": "function"
		},
		{
			"inputs": [],
			"name": "suma",
			"outputs": [
				{
					"internalType": "uint256",
					"name": "",
					"type": "uint256"
				}
			],
			"stateMutability": "view",
			"type": "function"
		}
	]
}