{
	"data": {
		"bytecode": {
			"linkReferences": {},
			"object": "60806040524260005560018055603c600255611c206003556241eb0060045562093a8060055534801561003157600080fd5b506101ee806100416000396000f3fe608060405234801561001057600080fd5b50600436106100885760003560e01c80634f0cea831161005b5780634f0cea83146101055780635a9606a414610123578063a9c6537014610141578063e8b1ed291461015f57610088565b806301a348751461008d578063108c4abb146100ab578063172f11fc146100c9578063183289fc146100e7575b600080fd5b61009561017d565b6040518082815260200191505060405180910390f35b6100b3610188565b6040518082815260200191505060405180910390f35b6100d1610194565b6040518082815260200191505060405180910390f35b6100ef61019a565b6040518082815260200191505060405180910390f35b61010d6101a0565b6040518082815260200191505060405180910390f35b61012b6101a6565b6040518082815260200191505060405180910390f35b6101496101ac565b6040518082815260200191505060405180910390f35b6101676101b2565b6040518082815260200191505060405180910390f35b600060324201905090565b6000610e104201905090565b60025481565b60055481565b60045481565b60005481565b60015481565b6003548156fea264697066735822122081ca3b61e544fa0e12a2d0e33d52918be8772dfe2df539658a48d326679530dd64736f6c63430006000033",
			"opcodes": "PUSH1 0x80 PUSH1 0x40 MSTORE TIMESTAMP PUSH1 0x0 SSTORE PUSH1 0x1 DUP1 SSTORE PUSH1 0x3C PUSH1 0x2 SSTORE PUSH2 0x1C20 PUSH1 0x3 SSTORE PUSH3 0x41EB00 PUSH1 0x4 SSTORE PUSH3 0x93A80 PUSH1 0x5 SSTORE CALLVALUE DUP1 ISZERO PUSH2 0x31 JUMPI PUSH1 0x0 DUP1 REVERT JUMPDEST POP PUSH2 0x1EE DUP1 PUSH2 0x41 PUSH1 0x0 CODECOPY PUSH1 0x0 RETURN INVALID PUSH1 0x80 PUSH1 0x40 MSTORE CALLVALUE DUP1 ISZERO PUSH2 0x10 JUMPI PUSH1 0x0 DUP1 REVERT JUMPDEST POP PUSH1 0x4 CALLDATASIZE LT PUSH2 0x88 JUMPI PUSH1 0x0 CALLDATALOAD PUSH1 0xE0 SHR DUP1 PUSH4 0x4F0CEA83 GT PUSH2 0x5B JUMPI DUP1 PUSH4 0x4F0CEA83 EQ PUSH2 0x105 JUMPI DUP1 PUSH4 0x5A9606A4 EQ PUSH2 0x123 JUMPI DUP1 PUSH4 0xA9C65370 EQ PUSH2 0x141 JUMPI DUP1 PUSH4 0xE8B1ED29 EQ PUSH2 0x15F JUMPI PUSH2 0x88 JUMP JUMPDEST DUP1 PUSH4 0x1A34875 EQ PUSH2 0x8D JUMPI DUP1 PUSH4 0x108C4ABB EQ PUSH2 0xAB JUMPI DUP1 PUSH4 0x172F11FC EQ PUSH2 0xC9 JUMPI DUP1 PUSH4 0x183289FC EQ PUSH2 0xE7 JUMPI JUMPDEST PUSH1 0x0 DUP1 REVERT JUMPDEST PUSH2 0x95 PUSH2 0x17D JUMP JUMPDEST PUSH1 0x40 MLOAD DUP1 DUP3 DUP2 MSTORE PUSH1 0x20 ADD SWAP2 POP POP PUSH1 0x40 MLOAD DUP1 SWAP2 SUB SWAP1 RETURN JUMPDEST PUSH2 0xB3 PUSH2 0x188 JUMP JUMPDEST PUSH1 0x40 MLOAD DUP1 DUP3 DUP2 MSTORE PUSH1 0x20 ADD SWAP2 POP POP PUSH1 0x40 MLOAD DUP1 SWAP2 SUB SWAP1 RETURN JUMPDEST PUSH2 0xD1 PUSH2 0x194 JUMP JUMPDEST PUSH1 0x40 MLOAD DUP1 DUP3 DUP2 MSTORE PUSH1 0x20 ADD SWAP2 POP POP PUSH1 0x40 MLOAD DUP1 SWAP2 SUB SWAP1 RETURN JUMPDEST PUSH2 0xEF PUSH2 0x19A JUMP JUMPDEST PUSH1 0x40 MLOAD DUP1 DUP3 DUP2 MSTORE PUSH1 0x20 ADD SWAP2 POP POP PUSH1 0x40 MLOAD DUP1 SWAP2 SUB SWAP1 RETURN JUMPDEST PUSH2 0x10D PUSH2 0x1A0 JUMP JUMPDEST PUSH1 0x40 MLOAD DUP1 DUP3 DUP2 MSTORE PUSH1 0x20 ADD SWAP2 POP POP PUSH1 0x40 MLOAD DUP1 SWAP2 SUB SWAP1 RETURN JUMPDEST PUSH2 0x12B PUSH2 0x1A6 JUMP JUMPDEST PUSH1 0x40 MLOAD DUP1 DUP3 DUP2 MSTORE PUSH1 0x20 ADD SWAP2 POP POP PUSH1 0x40 MLOAD DUP1 SWAP2 SUB SWAP1 RETURN JUMPDEST PUSH2 0x149 PUSH2 0x1AC JUMP JUMPDEST PUSH1 0x40 MLOAD DUP1 DUP3 DUP2 MSTORE PUSH1 0x20 ADD SWAP2 POP POP PUSH1 0x40 MLOAD DUP1 SWAP2 SUB SWAP1 RETURN JUMPDEST PUSH2 0x167 PUSH2 0x1B2 JUMP JUMPDEST PUSH1 0x40 MLOAD DUP1 DUP3 DUP2 MSTORE PUSH1 0x20 ADD SWAP2 POP POP PUSH1 0x40 MLOAD DUP1 SWAP2 SUB SWAP1 RETURN JUMPDEST PUSH1 0x0 PUSH1 0x32 TIMESTAMP ADD SWAP1 POP SWAP1 JUMP JUMPDEST PUSH1 0x0 PUSH2 0xE10 TIMESTAMP ADD SWAP1 POP SWAP1 JUMP JUMPDEST PUSH1 0x2 SLOAD DUP2 JUMP JUMPDEST PUSH1 0x5 SLOAD DUP2 JUMP JUMPDEST PUSH1 0x4 SLOAD DUP2 JUMP JUMPDEST PUSH1 0x0 SLOAD DUP2 JUMP JUMPDEST PUSH1 0x1 SLOAD DUP2 JUMP JUMPDEST PUSH1 0x3 SLOAD DUP2 JUMP INVALID LOG2 PUSH5 0x6970667358 0x22 SLT KECCAK256 DUP2 0xCA EXTCODESIZE PUSH2 0xE544 STATICCALL 0xE SLT LOG2 0xD0 0xE3 RETURNDATASIZE MSTORE SWAP2 DUP12 0xE8 PUSH24 0x2DFE2DF539658A48D326679530DD64736F6C634300060000 CALLER "
		},
		"gasEstimates": {
			"creation": {
				"codeDepositCost": "98800",
				"executionCost": "120182",
				"totalCost": "218982"
			},
			"external": {
				"MasHoras()": "241",
				"MasSegundos()": "219",
				"cincuenta_dias()": "1005",
				"dos_horas()": "1071",
				"tiempo_actual()": "1027",
				"un_minuto()": "1050",
				"un_segundo()": "1049",
				"una_semana()": "1072"
			}
		},
		"methodIdentifiers": {
			"MasHoras()": "108c4abb",
			"MasSegundos()": "01a34875",
			"cincuenta_dias()": "4f0cea83",
			"dos_horas()": "e8b1ed29",
			"tiempo_actual()": "5a9606a4",
			"un_minuto()": "172f11fc",
			"un_segundo()": "a9c65370",
			"una_semana()": "183289fc"
		}
	},
	"abi": [
		{
			"inputs": [],
			"name": "MasHoras",
			"outputs": [
				{
					"internalType": "uint256",
					"name": "",
					"type": "uint256"
				}
			],
			"stateMutability": "view",
			"type": "function"
		},
		{
			"inputs": [],
			"name": "MasSegundos",
			"outputs": [
				{
					"internalType": "uint256",
					"name": "",
					"type": "uint256"
				}
			],
			"stateMutability": "view",
			"type": "function"
		},
		{
			"inputs": [],
			"name": "cincuenta_dias",
			"outputs": [
				{
					"internalType": "uint256",
					"name": "",
					"type": "uint256"
				}
			],
			"stateMutability": "view",
			"type": "function"
		},
		{
			"inputs": [],
			"name": "dos_horas",
			"outputs": [
				{
					"internalType": "uint256",
					"name": "",
					"type": "uint256"
				}
			],
			"stateMutability": "view",
			"type": "function"
		},
		{
			"inputs": [],
			"name": "tiempo_actual",
			"outputs": [
				{
					"internalType": "uint256",
					"name": "",
					"type": "uint256"
				}
			],
			"stateMutability": "view",
			"type": "function"
		},
		{
			"inputs": [],
			"name": "un_minuto",
			"outputs": [
				{
					"internalType": "uint256",
					"name": "",
					"type": "uint256"
				}
			],
			"stateMutability": "view",
			"type": "function"
		},
		{
			"inputs": [],
			"name": "un_segundo",
			"outputs": [
				{
					"internalType": "uint256",
					"name": "",
					"type": "uint256"
				}
			],
			"stateMutability": "view",
			"type": "function"
		},
		{
			"inputs": [],
			"name": "una_semana",
			"outputs": [
				{
					"internalType": "uint256",
					"name": "",
					"type": "uint256"
				}
			],
			"stateMutability": "view",
			"type": "function"
		}
	]
}